{
  "_format": "hh-sol-artifact-1",
  "contractName": "LiquidityLocker",
  "sourceName": "contracts/myLocker.sol",
  "abi": [
    {
      "inputs": [
        {
          "internalType": "address",
          "name": "_positionManager",
          "type": "address"
        }
      ],
      "stateMutability": "nonpayable",
      "type": "constructor"
    },
    {
      "anonymous": false,
      "inputs": [
        {
          "indexed": false,
          "internalType": "uint256",
          "name": "",
          "type": "uint256"
        },
        {
          "indexed": false,
          "internalType": "uint256",
          "name": "",
          "type": "uint256"
        },
        {
          "indexed": false,
          "internalType": "uint256",
          "name": "",
          "type": "uint256"
        }
      ],
      "name": "FeesCollected",
      "type": "event"
    },
    {
      "anonymous": false,
      "inputs": [
        {
          "indexed": true,
          "internalType": "uint256",
          "name": "lockId",
          "type": "uint256"
        },
        {
          "indexed": true,
          "internalType": "address",
          "name": "tokenAddress",
          "type": "address"
        },
        {
          "indexed": false,
          "internalType": "uint256",
          "name": "tokenId",
          "type": "uint256"
        },
        {
          "indexed": false,
          "internalType": "uint256",
          "name": "unlockTime",
          "type": "uint256"
        }
      ],
      "name": "LiquidityLocked",
      "type": "event"
    },
    {
      "anonymous": false,
      "inputs": [
        {
          "indexed": true,
          "internalType": "uint256",
          "name": "lockId",
          "type": "uint256"
        },
        {
          "indexed": true,
          "internalType": "address",
          "name": "tokenAddress",
          "type": "address"
        },
        {
          "indexed": false,
          "internalType": "uint256",
          "name": "tokenId",
          "type": "uint256"
        }
      ],
      "name": "LiquidityUnlocked",
      "type": "event"
    },
    {
      "inputs": [
        {
          "internalType": "address",
          "name": "factory",
          "type": "address"
        },
        {
          "internalType": "uint256",
          "name": "tokenId",
          "type": "uint256"
        }
      ],
      "name": "approveFactory",
      "outputs": [],
      "stateMutability": "nonpayable",
      "type": "function"
    },
    {
      "inputs": [
        {
          "internalType": "uint256",
          "name": "tokenId",
          "type": "uint256"
        },
        {
          "internalType": "address",
          "name": "factory",
          "type": "address"
        }
      ],
      "name": "collectFees",
      "outputs": [],
      "stateMutability": "nonpayable",
      "type": "function"
    },
    {
      "inputs": [],
      "name": "factoryAddress",
      "outputs": [
        {
          "internalType": "address",
          "name": "",
          "type": "address"
        }
      ],
      "stateMutability": "view",
      "type": "function"
    },
    {
      "inputs": [
        {
          "internalType": "address",
          "name": "_nftAddress",
          "type": "address"
        },
        {
          "internalType": "uint256",
          "name": "_tokenId",
          "type": "uint256"
        },
        {
          "internalType": "uint256",
          "name": "_duration",
          "type": "uint256"
        },
        {
          "internalType": "address",
          "name": "factory",
          "type": "address"
        }
      ],
      "name": "lockLiquidity",
      "outputs": [
        {
          "internalType": "uint256",
          "name": "lockId",
          "type": "uint256"
        }
      ],
      "stateMutability": "nonpayable",
      "type": "function"
    },
    {
      "inputs": [
        {
          "internalType": "uint256",
          "name": "",
          "type": "uint256"
        }
      ],
      "name": "locks",
      "outputs": [
        {
          "internalType": "uint256",
          "name": "tokenId",
          "type": "uint256"
        },
        {
          "internalType": "bool",
          "name": "isLocked",
          "type": "bool"
        },
        {
          "internalType": "uint256",
          "name": "lockID",
          "type": "uint256"
        },
        {
          "internalType": "uint256",
          "name": "unlockTime",
          "type": "uint256"
        }
      ],
      "stateMutability": "view",
      "type": "function"
    },
    {
      "inputs": [],
      "name": "nextLockId",
      "outputs": [
        {
          "internalType": "uint256",
          "name": "",
          "type": "uint256"
        }
      ],
      "stateMutability": "view",
      "type": "function"
    },
    {
      "inputs": [
        {
          "internalType": "address",
          "name": "",
          "type": "address"
        },
        {
          "internalType": "address",
          "name": "",
          "type": "address"
        },
        {
          "internalType": "uint256",
          "name": "",
          "type": "uint256"
        },
        {
          "internalType": "bytes",
          "name": "",
          "type": "bytes"
        }
      ],
      "name": "onERC721Received",
      "outputs": [
        {
          "internalType": "bytes4",
          "name": "",
          "type": "bytes4"
        }
      ],
      "stateMutability": "nonpayable",
      "type": "function"
    },
    {
      "inputs": [],
      "name": "owner",
      "outputs": [
        {
          "internalType": "address",
          "name": "",
          "type": "address"
        }
      ],
      "stateMutability": "view",
      "type": "function"
    },
    {
      "inputs": [],
      "name": "positionManager",
      "outputs": [
        {
          "internalType": "contract INonfungiblePositionManager",
          "name": "",
          "type": "address"
        }
      ],
      "stateMutability": "view",
      "type": "function"
    },
    {
      "inputs": [
        {
          "internalType": "address",
          "name": "_factoryAddress",
          "type": "address"
        }
      ],
      "name": "setFactoryAddress",
      "outputs": [],
      "stateMutability": "nonpayable",
      "type": "function"
    },
    {
      "inputs": [
        {
          "internalType": "address",
          "name": "newOwner",
          "type": "address"
        }
      ],
      "name": "transferOwnership",
      "outputs": [],
      "stateMutability": "nonpayable",
      "type": "function"
    },
    {
      "inputs": [
        {
          "internalType": "uint256",
          "name": "_lockId",
          "type": "uint256"
        },
        {
          "internalType": "address",
          "name": "factory",
          "type": "address"
        }
      ],
      "name": "unlockLiquidity",
      "outputs": [],
      "stateMutability": "nonpayable",
      "type": "function"
    }
  ],
  "bytecode": "0x60803461008957601f610a7238819003918201601f19168301916001600160401b0383118484101761008e5780849260209460405283398101031261008957516001600160a01b0381169081900361008957600060035560018060a01b0319338160015416176001558181600454161760045560055416176005556040516109cd90816100a58239f35b600080fd5b634e487b7160e01b600052604160045260246000fdfe6080604081815260048036101561001557600080fd5b600092833560e01c908163150b7a02146107f55750806351f3b4bd146106a85780636518a0b314610689578063791b98bc146106625780637f4d4fa81461044357806383c17c55146103ef5780638da5cb5b146103c7578063966dae0e1461039b57838163a1167b0d146102fa57508063c62915c41461019a578063f2fde38b146100fa5763f4dadc61146100a957600080fd5b346100f65760203660031901126100f65760809282913581526002602052209081549160ff6001820154169160036002830154920154928151948552151560208501528301526060820152f35b8280fd5b50346100f65760203660031901126100f6576101146108b3565b90600154916001600160a01b039061012f828516331461094c565b1692831561015757505073ffffffffffffffffffffffffffffffffffffffff19161760015580f35b906020606492519162461bcd60e51b8352820152601160248201527f496e76616c6964206e6577206f776e65720000000000000000000000000000006044820152fd5b50346100f657816003193601126100f6578035906101b66108ce565b906001600160a01b03906101cf8260015416331461094c565b8386526002602052848620600381015442106102b7579086915493836005541691823b156102b35787516323b872dd60e01b8152309181019182526001600160a01b039092166020820152604081018690529091839183919082908490829060600103925af180156102a957610291575b5091602091847fdc06eb63ca5d784b588e010a2d11101d6c14f6112ccba7611aadbe0c680c3fb49452600283528660038782208281558260018201558260028201550155600554169451908152a380f35b61029a90610916565b6102a5578438610240565b8480fd5b86513d84823e3d90fd5b8380fd5b606482602088519162461bcd60e51b8352820152601960248201527f4c6971756964697479206973207374696c6c206c6f636b6564000000000000006044820152fd5b929050346103975780600319360112610397576103156108b3565b6001600160a01b038060055416803b1561039357859283604492865197889586947f095ea7b3000000000000000000000000000000000000000000000000000000008652169084015260243560248401525af190811561038a57506103775750f35b61038090610916565b6103875780f35b80fd5b513d84823e3d90fd5b8580fd5b5050fd5b5050346103c357816003193601126103c3576020906001600160a01b03600654169051908152f35b5080fd5b5050346103c357816003193601126103c3576020906001600160a01b03600154169051908152f35b8334610387576020366003190112610387576104096108b3565b6001600160a01b03906104218260015416331461094c565b1673ffffffffffffffffffffffffffffffffffffffff19600654161760065580f35b509190346103c35760803660031901126103c35761045f6108b3565b602435606435916001600160a01b0390818416840361039357816001541633148015610655575b1561061257169182156105cf57823b156102a55783516323b872dd60e01b81526001600160a01b0390911686820190815230602082015260408101839052859082908190606001038183875af180156105c5576105b2575b50604435420180421161059f5760035494600019861461058c576020965085927f35caa98fef2de84d0d86a8fe9a3965c7604490475581199f5519e0581bac3c0a928692600186016003556003845191610537836108e4565b8483528b830160018152868401908982528760608601938785528b81528f600290522094518555600185019051151560ff8019835416911617905551600284015551910155825191825288820152a351908152f35b80601188634e487b7160e01b6024945252fd5b602485601188634e487b7160e01b835252fd5b6105be90949194610916565b92386104de565b84513d87823e3d90fd5b606486602086519162461bcd60e51b8352820152601360248201527f496e76616c6964204e46542061646472657373000000000000000000000000006044820152fd5b606487602087519162461bcd60e51b8352820152601860248201527f43616c6c6572206973206e6f7420617574686f72697a656400000000000000006044820152fd5b5081600654163314610486565b509134610387578060031936011261038757506001600160a01b0360209254169051908152f35b5050346103c357816003193601126103c3576020906003549051908152f35b5090346100f657806003193601126100f657813590806106c66108ce565b9360846001600160a01b036106e08160015416331461094c565b878451916106ed836108e4565b8783528060208401991689528583016fffffffffffffffffffffffffffffffff9081815281606086019181835284895416948a519d8e9a8b997ffc6f7865000000000000000000000000000000000000000000000000000000008b5251908a01525116602488015251166044860152511660648401525af19283156107eb57849085946107ae575b5092817fa54e6c2fc0861aa9c991b26891d71059d517983b9e84b91020f42609c452eb9d9460609493519384526020840152820152a180f35b8094508280949392503d83116107e4575b6107c9818361092a565b810103126102b3578251602090930151929091906060610775565b503d6107bf565b81513d86823e3d90fd5b838584346103c35760803660031901126103c3576108116108b3565b5061081a6108ce565b5060643567ffffffffffffffff918282116102b357366023830112156102b357818101359283116108a0575061085a601f8301601f19166020018661092a565b81855236602483830101116100f6579060209481602487940184830137010152517f150b7a02000000000000000000000000000000000000000000000000000000008152f35b836041602492634e487b7160e01b835252fd5b600435906001600160a01b03821682036108c957565b600080fd5b602435906001600160a01b03821682036108c957565b6080810190811067ffffffffffffffff82111761090057604052565b634e487b7160e01b600052604160045260246000fd5b67ffffffffffffffff811161090057604052565b90601f8019910116810190811067ffffffffffffffff82111761090057604052565b1561095357565b606460405162461bcd60e51b815260206004820152601760248201527f43616c6c6572206973206e6f7420746865206f776e65720000000000000000006044820152fdfea26469706673582212200d2fe3ba6304488e9e4a239201f97d8db9aadb534985bdd759fc2d7339b5e78a64736f6c63430008180033",
  "linkReferences": {},
  "deployedLinkReferences": {}
}