{
  "_format": "hh-sol-artifact-1",
  "contractName": "LiquidityLocker",
  "sourceName": "contracts/myLocker.sol",
  "abi": [
    {
      "inputs": [
        {
          "internalType": "address",
          "name": "_positionManager",
          "type": "address"
        }
      ],
      "stateMutability": "nonpayable",
      "type": "constructor"
    },
    {
      "anonymous": false,
      "inputs": [
        {
          "indexed": false,
          "internalType": "uint256",
          "name": "",
          "type": "uint256"
        },
        {
          "indexed": false,
          "internalType": "uint256",
          "name": "",
          "type": "uint256"
        },
        {
          "indexed": false,
          "internalType": "uint256",
          "name": "",
          "type": "uint256"
        }
      ],
      "name": "FeesCollected",
      "type": "event"
    },
    {
      "anonymous": false,
      "inputs": [
        {
          "indexed": true,
          "internalType": "uint256",
          "name": "lockId",
          "type": "uint256"
        },
        {
          "indexed": true,
          "internalType": "address",
          "name": "tokenAddress",
          "type": "address"
        },
        {
          "indexed": false,
          "internalType": "uint256",
          "name": "tokenId",
          "type": "uint256"
        },
        {
          "indexed": false,
          "internalType": "uint256",
          "name": "unlockTime",
          "type": "uint256"
        }
      ],
      "name": "LiquidityLocked",
      "type": "event"
    },
    {
      "anonymous": false,
      "inputs": [
        {
          "indexed": true,
          "internalType": "uint256",
          "name": "lockId",
          "type": "uint256"
        },
        {
          "indexed": true,
          "internalType": "address",
          "name": "tokenAddress",
          "type": "address"
        },
        {
          "indexed": false,
          "internalType": "uint256",
          "name": "tokenId",
          "type": "uint256"
        }
      ],
      "name": "LiquidityUnlocked",
      "type": "event"
    },
    {
      "inputs": [
        {
          "internalType": "uint256",
          "name": "",
          "type": "uint256"
        }
      ],
      "name": "allTokens",
      "outputs": [
        {
          "internalType": "uint256",
          "name": "tokenId",
          "type": "uint256"
        },
        {
          "internalType": "bool",
          "name": "isLocked",
          "type": "bool"
        },
        {
          "internalType": "uint256",
          "name": "lockID",
          "type": "uint256"
        },
        {
          "internalType": "uint256",
          "name": "unlockTime",
          "type": "uint256"
        }
      ],
      "stateMutability": "view",
      "type": "function"
    },
    {
      "inputs": [
        {
          "internalType": "address",
          "name": "factoryAddress",
          "type": "address"
        },
        {
          "internalType": "address",
          "name": "nftAddress",
          "type": "address"
        },
        {
          "internalType": "uint256",
          "name": "tokenId",
          "type": "uint256"
        }
      ],
      "name": "approveFactory",
      "outputs": [],
      "stateMutability": "nonpayable",
      "type": "function"
    },
    {
      "inputs": [
        {
          "internalType": "uint256",
          "name": "tokenId",
          "type": "uint256"
        },
        {
          "internalType": "address",
          "name": "factory",
          "type": "address"
        }
      ],
      "name": "collectFees",
      "outputs": [],
      "stateMutability": "nonpayable",
      "type": "function"
    },
    {
      "inputs": [],
      "name": "getAllTokens",
      "outputs": [
        {
          "internalType": "uint256[]",
          "name": "_tokenId",
          "type": "uint256[]"
        },
        {
          "internalType": "bool[]",
          "name": "_isLocked",
          "type": "bool[]"
        },
        {
          "internalType": "uint256[]",
          "name": "_lockID",
          "type": "uint256[]"
        },
        {
          "internalType": "uint256[]",
          "name": "_unlockTime",
          "type": "uint256[]"
        }
      ],
      "stateMutability": "view",
      "type": "function"
    },
    {
      "inputs": [
        {
          "internalType": "address",
          "name": "_nftAddress",
          "type": "address"
        },
        {
          "internalType": "uint256",
          "name": "_tokenId",
          "type": "uint256"
        },
        {
          "internalType": "uint256",
          "name": "_duration",
          "type": "uint256"
        },
        {
          "internalType": "address",
          "name": "factory",
          "type": "address"
        }
      ],
      "name": "lockLiquidity",
      "outputs": [
        {
          "internalType": "uint256",
          "name": "lockId",
          "type": "uint256"
        }
      ],
      "stateMutability": "nonpayable",
      "type": "function"
    },
    {
      "inputs": [
        {
          "internalType": "uint256",
          "name": "",
          "type": "uint256"
        }
      ],
      "name": "locks",
      "outputs": [
        {
          "internalType": "address",
          "name": "tokenAddress",
          "type": "address"
        },
        {
          "internalType": "uint256",
          "name": "tokenId",
          "type": "uint256"
        },
        {
          "internalType": "uint256",
          "name": "unlockTime",
          "type": "uint256"
        }
      ],
      "stateMutability": "view",
      "type": "function"
    },
    {
      "inputs": [],
      "name": "nextLockId",
      "outputs": [
        {
          "internalType": "uint256",
          "name": "",
          "type": "uint256"
        }
      ],
      "stateMutability": "view",
      "type": "function"
    },
    {
      "inputs": [
        {
          "internalType": "address",
          "name": "",
          "type": "address"
        },
        {
          "internalType": "address",
          "name": "",
          "type": "address"
        },
        {
          "internalType": "uint256",
          "name": "",
          "type": "uint256"
        },
        {
          "internalType": "bytes",
          "name": "",
          "type": "bytes"
        }
      ],
      "name": "onERC721Received",
      "outputs": [
        {
          "internalType": "bytes4",
          "name": "",
          "type": "bytes4"
        }
      ],
      "stateMutability": "nonpayable",
      "type": "function"
    },
    {
      "inputs": [],
      "name": "owner",
      "outputs": [
        {
          "internalType": "address",
          "name": "",
          "type": "address"
        }
      ],
      "stateMutability": "view",
      "type": "function"
    },
    {
      "inputs": [],
      "name": "positionManager",
      "outputs": [
        {
          "internalType": "contract INonfungiblePositionManager",
          "name": "",
          "type": "address"
        }
      ],
      "stateMutability": "view",
      "type": "function"
    },
    {
      "inputs": [
        {
          "internalType": "uint256",
          "name": "",
          "type": "uint256"
        }
      ],
      "name": "token",
      "outputs": [
        {
          "internalType": "uint256",
          "name": "tokenId",
          "type": "uint256"
        },
        {
          "internalType": "bool",
          "name": "isLocked",
          "type": "bool"
        },
        {
          "internalType": "uint256",
          "name": "lockID",
          "type": "uint256"
        },
        {
          "internalType": "uint256",
          "name": "unlockTime",
          "type": "uint256"
        }
      ],
      "stateMutability": "view",
      "type": "function"
    },
    {
      "inputs": [
        {
          "internalType": "address",
          "name": "newOwner",
          "type": "address"
        }
      ],
      "name": "transferOwnership",
      "outputs": [],
      "stateMutability": "nonpayable",
      "type": "function"
    },
    {
      "inputs": [
        {
          "internalType": "uint256",
          "name": "_lockId",
          "type": "uint256"
        },
        {
          "internalType": "address",
          "name": "factory",
          "type": "address"
        }
      ],
      "name": "unlockLiquidity",
      "outputs": [],
      "stateMutability": "nonpayable",
      "type": "function"
    }
  ],
  "bytecode": "0x60803461007f57601f610da838819003918201601f19168301916001600160401b038311848410176100845780849260209460405283398101031261007f57516001600160a01b0381169081900361007f57600060055560018060a01b0319338160025416176002556006541617600655604051610d0d908161009b8239f35b600080fd5b634e487b7160e01b600052604160045260246000fdfe6080604081815260048036101561001557600080fd5b600092833560e01c908163044215c614610aa457508063150b7a02146109e35780632a5c792a1461087d57806351f3b4bd1461072b578063634282af146106c75780636518a0b3146106a8578063791b98bc146106805780637f4d4fa8146103e05780638da5cb5b146103b857838163b91931d71461031557508063c62915c41461019c578063f2fde38b146100fc5763f4dadc61146100b457600080fd5b346100f85760203660031901126100f857606092818392358252602052206001600160a01b0381541691600260018301549201549181519384526020840152820152f35b8280fd5b50346100f85760203660031901126100f857610116610afe565b90600254916001600160a01b03906101318285163314610c18565b1692831561015957505073ffffffffffffffffffffffffffffffffffffffff19161760025580f35b906020606492519162461bcd60e51b8352820152601160248201527f496e76616c6964206e6577206f776e65720000000000000000000000000000006044820152fd5b5090346100f857806003193601126100f8578135916101b9610b19565b906001600160a01b03906101d282600254163314610c18565b8486528060205283862091600283015442106102d2576001879184541693015493833b156102ce5785516323b872dd60e01b8152308482019081526001600160a01b0390921660208301526040820186905290829082908190606001038183885af180156102c4576102a4575b5094610297949392918160019752602052866002858220828155828982015501557fdc06eb63ca5d784b588e010a2d11101d6c14f6112ccba7611aadbe0c680c3fb460208551858152a3845282602052832054610bcb565b5001805460ff1916905580f35b6102b2909594939295610b61565b6102c057909192853861023f565b8580fd5b86513d84823e3d90fd5b5080fd5b606482602087519162461bcd60e51b8352820152601960248201527f4c6971756964697479206973207374696c6c206c6f636b6564000000000000006044820152fd5b929050346103b45760603660031901126103b457610331610afe565b610339610b19565b6001600160a01b03809116803b156102c057859283604492865197889586947f095ea7b30000000000000000000000000000000000000000000000000000000086521690840152833560248401525af19081156103ab57506103985750f35b6103a190610b61565b6103a85780f35b80fd5b513d84823e3d90fd5b5050fd5b5050346102ce57816003193601126102ce576020906001600160a01b03600254169051908152f35b509190346102ce5760803660031901126102ce576103fc610afe565b916024803590606435926001600160a01b039586851685036102ce57869061042982600254163314610c18565b1693841561063e57843b156102ce5785516323b872dd60e01b81526001600160a01b0390911681890190815230602082015260408101859052829082908190606001038183895af180156102c45761062f575b509060443542019182421161061f57600554966000199283891461060e57600191828a016005558851906060820182811067ffffffffffffffff8211176105fa578a8d93928d9282528b845260209e8f808601938d85528601948c86528a52528c8820935116835473ffffffffffffffffffffffffffffffffffffffff19161783555185830155519060020155885161051481610b2f565b8781528b81018481528a82018c815260608301918983528754680100000000000000008110156105e857808861054c92018a55610bcb565b9490946105d7579060039392915185558785019051151560ff801983541691161790555160028401555191015583549485019485116105c657505084825288528590205583519182528186015283907f35caa98fef2de84d0d86a8fe9a3965c7604490475581199f5519e0581bac3c0a908490a351908152f35b60118491634e487b7160e01b835252fd5b86898088634e487b7160e01b825252fd5b8689604188634e487b7160e01b835252fd5b8360418e634e487b7160e01b600052526000fd5b8260118b634e487b7160e01b835252fd5b601188634e487b7160e01b835252fd5b61063890610b61565b3861047c565b60648860138560208a519362461bcd60e51b85528401528201527f496e76616c6964204e46542061646472657373000000000000000000000000006044820152fd5b5050346102ce57816003193601126102ce576020906001600160a01b03600654169051908152f35b5050346102ce57816003193601126102ce576020906005549051908152f35b508290346102ce5760203660031901126102ce57359080548210156103a857506106f090610bcb565b50805460018201546002830154600390930154935191825260ff161515602082015260408101919091526060810191909152608090f35b0390f35b5090346100f857806003193601126100f85781359080610749610b19565b9360846001600160a01b0361076381600254163314610c18565b8784519161077083610b2f565b8783528060208401991689528583016fffffffffffffffffffffffffffffffff908181528160608601918183528460065416948a519d8e9a8b997ffc6f7865000000000000000000000000000000000000000000000000000000008b5251908a01525116602488015251166044860152511660648401525af19283156108735784908594610832575b5092817fa54e6c2fc0861aa9c991b26891d71059d517983b9e84b91020f42609c452eb9d9460609493519384526020840152820152a180f35b8094508280949392503d831161086c575b61084d8183610b75565b810103126108685782516020909301519290919060606107f9565b8380fd5b503d610843565b81513d86823e3d90fd5b5050346102ce57816003193601126102ce5760026108a76001600160a01b03600254163314610c18565b82546108b281610c7b565b926108bc82610c63565b946108c982519687610b75565b8286526108d583610c63565b60208088019791601f19013689376108ec85610c7b565b946108f681610c7b565b96845b82811061096c57505050602061091985519860808a5260808a0190610b97565b92888403828a015251928381520197925b82811061095657878903858901528780610727896109488d8b610b97565b908382036060850152610b97565b835115158952978101979281019260010161092a565b8061097c60019297959697610bcb565b5054610988828d610cad565b5260ff8261099583610bcb565b500154166109a38289610cad565b9015159052826109b282610bcb565b5001546109bf828b610cad565b5260036109cb82610bcb565b5001546109d8828c610cad565b5201949392946108f9565b5091346103a85760803660031901126103a8576109fe610afe565b50610a07610b19565b506064359267ffffffffffffffff908185116100f857366023860112156100f85784810135918211610a915750825193610a4b601f8301601f191660200186610b75565b81855236602483830101116100f8579060209481602487940184830137010152517f150b7a02000000000000000000000000000000000000000000000000000000008152f35b826041602492634e487b7160e01b835252fd5b9291905034610868576020366003190112610868579082936107279235815260036020522080549060ff60018201541660036002830154920154928590949392606092608083019683521515602083015260408201520152565b600435906001600160a01b0382168203610b1457565b600080fd5b602435906001600160a01b0382168203610b1457565b6080810190811067ffffffffffffffff821117610b4b57604052565b634e487b7160e01b600052604160045260246000fd5b67ffffffffffffffff8111610b4b57604052565b90601f8019910116810190811067ffffffffffffffff821117610b4b57604052565b90815180825260208080930193019160005b828110610bb7575050505090565b835185529381019392810192600101610ba9565b906000918254811015610c045782805260021b7f290decd9548b62a8d60345a988386fc84ba6bc95484008f6362f93160ef3e563019190565b602483634e487b7160e01b81526032600452fd5b15610c1f57565b606460405162461bcd60e51b815260206004820152601760248201527f43616c6c6572206973206e6f7420746865206f776e65720000000000000000006044820152fd5b67ffffffffffffffff8111610b4b5760051b60200190565b90610c8582610c63565b610c926040519182610b75565b8281528092610ca3601f1991610c63565b0190602036910137565b8051821015610cc15760209160051b010190565b634e487b7160e01b600052603260045260246000fdfea264697066735822122084f900aa8f0e68022a67425861dbe91183327af6ceaf46cef4db1f2061d60ff264736f6c63430008180033",
  "linkReferences": {},
  "deployedLinkReferences": {}
}