{
    "_format": "hh-sol-artifact-1",
    "contractName": "LiquidityLocker",
    "sourceName": "contracts/myLocker.sol",
    "abi": [
        {
            "inputs": [],
            "stateMutability": "nonpayable",
            "type": "constructor"
        },
        {
            "anonymous": false,
            "inputs": [
                {
                    "indexed": true,
                    "internalType": "uint256",
                    "name": "lockId",
                    "type": "uint256"
                },
                {
                    "indexed": true,
                    "internalType": "address",
                    "name": "tokenAddress",
                    "type": "address"
                },
                {
                    "indexed": false,
                    "internalType": "uint256",
                    "name": "tokenId",
                    "type": "uint256"
                },
                {
                    "indexed": false,
                    "internalType": "uint256",
                    "name": "unlockTime",
                    "type": "uint256"
                }
            ],
            "name": "LiquidityLocked",
            "type": "event"
        },
        {
            "anonymous": false,
            "inputs": [
                {
                    "indexed": true,
                    "internalType": "uint256",
                    "name": "lockId",
                    "type": "uint256"
                },
                {
                    "indexed": true,
                    "internalType": "address",
                    "name": "tokenAddress",
                    "type": "address"
                },
                {
                    "indexed": false,
                    "internalType": "uint256",
                    "name": "tokenId",
                    "type": "uint256"
                }
            ],
            "name": "LiquidityUnlocked",
            "type": "event"
        },
        {
            "inputs": [
                {
                    "internalType": "address",
                    "name": "_nftAddress",
                    "type": "address"
                },
                {
                    "internalType": "uint256",
                    "name": "_tokenId",
                    "type": "uint256"
                },
                {
                    "internalType": "uint256",
                    "name": "_duration",
                    "type": "uint256"
                },
                {
                    "internalType": "address",
                    "name": "factory",
                    "type": "address"
                }
            ],
            "name": "lockLiquidity",
            "outputs": [
                {
                    "internalType": "uint256",
                    "name": "lockId",
                    "type": "uint256"
                }
            ],
            "stateMutability": "nonpayable",
            "type": "function"
        },
        {
            "inputs": [
                {
                    "internalType": "uint256",
                    "name": "",
                    "type": "uint256"
                }
            ],
            "name": "locks",
            "outputs": [
                {
                    "internalType": "address",
                    "name": "tokenAddress",
                    "type": "address"
                },
                {
                    "internalType": "uint256",
                    "name": "tokenId",
                    "type": "uint256"
                },
                {
                    "internalType": "uint256",
                    "name": "unlockTime",
                    "type": "uint256"
                }
            ],
            "stateMutability": "view",
            "type": "function"
        },
        {
            "inputs": [],
            "name": "nextLockId",
            "outputs": [
                {
                    "internalType": "uint256",
                    "name": "",
                    "type": "uint256"
                }
            ],
            "stateMutability": "view",
            "type": "function"
        },
        {
            "inputs": [
                {
                    "internalType": "address",
                    "name": "",
                    "type": "address"
                },
                {
                    "internalType": "address",
                    "name": "",
                    "type": "address"
                },
                {
                    "internalType": "uint256",
                    "name": "",
                    "type": "uint256"
                },
                {
                    "internalType": "bytes",
                    "name": "",
                    "type": "bytes"
                }
            ],
            "name": "onERC721Received",
            "outputs": [
                {
                    "internalType": "bytes4",
                    "name": "",
                    "type": "bytes4"
                }
            ],
            "stateMutability": "nonpayable",
            "type": "function"
        },
        {
            "inputs": [],
            "name": "owner",
            "outputs": [
                {
                    "internalType": "address",
                    "name": "",
                    "type": "address"
                }
            ],
            "stateMutability": "view",
            "type": "function"
        },
        {
            "inputs": [
                {
                    "internalType": "address",
                    "name": "newOwner",
                    "type": "address"
                }
            ],
            "name": "transferOwnership",
            "outputs": [],
            "stateMutability": "nonpayable",
            "type": "function"
        },
        {
            "inputs": [
                {
                    "internalType": "uint256",
                    "name": "_lockId",
                    "type": "uint256"
                },
                {
                    "internalType": "address",
                    "name": "factory",
                    "type": "address"
                }
            ],
            "name": "unlockLiquidity",
            "outputs": [],
            "stateMutability": "nonpayable",
            "type": "function"
        }
    ],
    "bytecode": "0x6080806040523461002857600080546001600160a01b0319163317905561068d908161002e8239f35b600080fdfe6080604081815260048036101561001557600080fd5b600092833560e01c908163150b7a02146104e6575080636518a0b3146104c75780637f4d4fa8146102ce5780638da5cb5b146102a4578063c62915c414610157578063f2fde38b146100b95763f4dadc611461007057600080fd5b346100b55760203660031901126100b55760609282913581526001602052206001600160a01b0381541691600260018301549201549181519384526020840152820152f35b8280fd5b50346100b55760203660031901126100b5576100d36105b1565b908354916001600160a01b03906100ed828516331461060c565b1692831561011457505073ffffffffffffffffffffffffffffffffffffffff191617815580f35b906020606492519162461bcd60e51b8352820152601160248201527f496e76616c6964206e6577206f776e65720000000000000000000000000000006044820152fd5b50346100b557816003193601126100b5578035906101736105cc565b926001600160a01b039361018b85875416331461060c565b8386526001602052818620946002860154421061026157906001879287541696015493863b156100b55783516323b872dd60e01b8152309181019182526001600160a01b039092166020820152604081018590528290829081906060010381838a5af180156102575761023f575b5091602091847fdc06eb63ca5d784b588e010a2d11101d6c14f6112ccba7611aadbe0c680c3fb4945260018352866002828220828155826001820155015551908152a380f35b610248906105e2565b6102535784386101f9565b8480fd5b83513d84823e3d90fd5b606484602085519162461bcd60e51b8352820152601960248201527f4c6971756964697479206973207374696c6c206c6f636b6564000000000000006044820152fd5b5050346102ca57816003193601126102ca576001600160a01b0360209254169051908152f35b5080fd5b509190346102ca5760803660031901126102ca576102ea6105b1565b9260243593606435916001600160a01b0391828416840361048057829061031582885416331461060c565b1692831561048457833b156104805784516323b872dd60e01b81526001600160a01b0390911682820190815230602082015260408101889052869082908190606001038183885af1801561047657610463575b50600254946000198614610451576001860160025560443542019283421161043e57855192606084019084821067ffffffffffffffff8311176104295750937f35caa98fef2de84d0d86a8fe9a3965c7604490475581199f5519e0581bac3c0a936002889460209b948b9887528984528c84019086825287808601938785528b81528f600190522094511673ffffffffffffffffffffffffffffffffffffffff1985541617845551600184015551910155825191825288820152a351908152f35b604190634e487b7160e01b6000525260246000fd5b506011602492634e487b7160e01b835252fd5b6011602492634e487b7160e01b835252fd5b61046f909591956105e2565b9338610368565b85513d88823e3d90fd5b8580fd5b606482602087519162461bcd60e51b8352820152601360248201527f496e76616c6964204e46542061646472657373000000000000000000000000006044820152fd5b5050346102ca57816003193601126102ca576020906002549051908152f35b838584346102ca5760803660031901126102ca576105026105b1565b5061050b6105cc565b5060643567ffffffffffffffff8082116105ad57366023830112156105ad57818301359281841161059a57601f8401601f19908116603f011687019182118783101761059a5750845281855236602483830101116100b5579060209481602487940184830137010152517f150b7a02000000000000000000000000000000000000000000000000000000008152f35b846041602492634e487b7160e01b835252fd5b8380fd5b600435906001600160a01b03821682036105c757565b600080fd5b602435906001600160a01b03821682036105c757565b67ffffffffffffffff81116105f657604052565b634e487b7160e01b600052604160045260246000fd5b1561061357565b606460405162461bcd60e51b815260206004820152601760248201527f43616c6c6572206973206e6f7420746865206f776e65720000000000000000006044820152fdfea26469706673582212209b28d5b988fee35cdda6a611c8f93217dc0b046fc4278772bf79585025a0301064736f6c63430008180033",
    "linkReferences": {},
    "deployedLinkReferences": {}
}