{
    "_format": "hh-sol-artifact-1",
    "contractName": "MyFactory",
    "sourceName": "contracts/TestFactory.sol",
    "abi": [
        {
            "inputs": [
                {
                    "internalType": "address",
                    "name": "_positionManager",
                    "type": "address"
                },
                {
                    "internalType": "address",
                    "name": "_weth",
                    "type": "address"
                },
                {
                    "internalType": "address",
                    "name": "_uniswapFactory",
                    "type": "address"
                }
            ],
            "stateMutability": "nonpayable",
            "type": "constructor"
        },
        {
            "anonymous": false,
            "inputs": [
                {
                    "indexed": true,
                    "internalType": "address",
                    "name": "tokenAddress",
                    "type": "address"
                },
                {
                    "indexed": true,
                    "internalType": "address",
                    "name": "poolAddress",
                    "type": "address"
                }
            ],
            "name": "PoolCreated",
            "type": "event"
        },
        {
            "anonymous": false,
            "inputs": [
                {
                    "indexed": true,
                    "internalType": "address",
                    "name": "tokenAddress",
                    "type": "address"
                }
            ],
            "name": "TokenDeployed",
            "type": "event"
        },
        {
            "stateMutability": "payable",
            "type": "fallback"
        },
        {
            "inputs": [
                {
                    "internalType": "address",
                    "name": "_token",
                    "type": "address"
                },
                {
                    "internalType": "address",
                    "name": "_pool",
                    "type": "address"
                }
            ],
            "name": "addInitialLiquidity",
            "outputs": [],
            "stateMutability": "nonpayable",
            "type": "function"
        },
        {
            "inputs": [
                {
                    "internalType": "address",
                    "name": "_token",
                    "type": "address"
                }
            ],
            "name": "createPoolForToken",
            "outputs": [
                {
                    "internalType": "address",
                    "name": "poolAddress",
                    "type": "address"
                }
            ],
            "stateMutability": "nonpayable",
            "type": "function"
        },
        {
            "inputs": [
                {
                    "internalType": "string",
                    "name": "_name",
                    "type": "string"
                },
                {
                    "internalType": "string",
                    "name": "_symbol",
                    "type": "string"
                },
                {
                    "internalType": "uint256",
                    "name": "_supply",
                    "type": "uint256"
                }
            ],
            "name": "deployToken",
            "outputs": [
                {
                    "internalType": "address",
                    "name": "",
                    "type": "address"
                }
            ],
            "stateMutability": "nonpayable",
            "type": "function"
        },
        {
            "inputs": [],
            "name": "positionManager",
            "outputs": [
                {
                    "internalType": "contract INonfungiblePositionManager",
                    "name": "",
                    "type": "address"
                }
            ],
            "stateMutability": "view",
            "type": "function"
        },
        {
            "inputs": [],
            "name": "tokenCount",
            "outputs": [
                {
                    "internalType": "uint256",
                    "name": "",
                    "type": "uint256"
                }
            ],
            "stateMutability": "view",
            "type": "function"
        },
        {
            "inputs": [
                {
                    "internalType": "uint256",
                    "name": "",
                    "type": "uint256"
                }
            ],
            "name": "tokens",
            "outputs": [
                {
                    "internalType": "address",
                    "name": "",
                    "type": "address"
                }
            ],
            "stateMutability": "view",
            "type": "function"
        },
        {
            "inputs": [],
            "name": "uniswapFactory",
            "outputs": [
                {
                    "internalType": "contract IUniswapV3Factory",
                    "name": "",
                    "type": "address"
                }
            ],
            "stateMutability": "view",
            "type": "function"
        },
        {
            "inputs": [],
            "name": "weth",
            "outputs": [
                {
                    "internalType": "address",
                    "name": "",
                    "type": "address"
                }
            ],
            "stateMutability": "view",
            "type": "function"
        },
        {
            "stateMutability": "payable",
            "type": "receive"
        }
    ],
    "bytecode": "0x60806040523480156200001157600080fd5b5060405162002e2738038062002e2783398181016040528101906200003791906200016d565b82600260006101000a81548173ffffffffffffffffffffffffffffffffffffffff021916908373ffffffffffffffffffffffffffffffffffffffff16021790555081600360006101000a81548173ffffffffffffffffffffffffffffffffffffffff021916908373ffffffffffffffffffffffffffffffffffffffff16021790555080600460006101000a81548173ffffffffffffffffffffffffffffffffffffffff021916908373ffffffffffffffffffffffffffffffffffffffff160217905550505050620001c9565b600080fd5b600073ffffffffffffffffffffffffffffffffffffffff82169050919050565b6000620001358262000108565b9050919050565b620001478162000128565b81146200015357600080fd5b50565b60008151905062000167816200013c565b92915050565b60008060006060848603121562000189576200018862000103565b5b6000620001998682870162000156565b9350506020620001ac8682870162000156565b9250506040620001bf8682870162000156565b9150509250925092565b612c4e80620001d96000396000f3fe6080604052600436106200008b5760003560e01c80634f64b2be11620000555780634f64b2be146200017b578063791b98bc14620001bf5780638bdb2afa14620001ef5780639f181b5e146200021f5762000093565b806317d98c5614620000955780633a93babb14620000d95780633d7e1cfc146200011d5780633fc8cef3146200014b5762000093565b366200009357005b005b348015620000a257600080fd5b50620000c16004803603810190620000bb919062000aeb565b6200024f565b604051620000d0919062000b2e565b60405180910390f35b348015620000e657600080fd5b50620001056004803603810190620000ff919062000bf4565b6200047e565b60405162000114919062000b2e565b60405180910390f35b3480156200012a57600080fd5b5062000149600480360381019062000143919062000c98565b62000597565b005b3480156200015857600080fd5b5062000163620009b6565b60405162000172919062000b2e565b60405180910390f35b3480156200018857600080fd5b50620001a76004803603810190620001a1919062000cdf565b620009dc565b604051620001b6919062000b2e565b60405180910390f35b348015620001cc57600080fd5b50620001d762000a1c565b604051620001e6919062000d7c565b60405180910390f35b348015620001fc57600080fd5b506200020762000a42565b60405162000216919062000dbe565b60405180910390f35b3480156200022c57600080fd5b506200023762000a68565b60405162000246919062000dec565b60405180910390f35b6000600460009054906101000a900473ffffffffffffffffffffffffffffffffffffffff1673ffffffffffffffffffffffffffffffffffffffff16631698ee8283600360009054906101000a900473ffffffffffffffffffffffffffffffffffffffff16610bb86040518463ffffffff1660e01b8152600401620002d69392919062000e5b565b602060405180830381865afa158015620002f4573d6000803e3d6000fd5b505050506040513d601f19601f820116820180604052508101906200031a919062000eaf565b9050600073ffffffffffffffffffffffffffffffffffffffff168173ffffffffffffffffffffffffffffffffffffffff16036200047957600460009054906101000a900473ffffffffffffffffffffffffffffffffffffffff1673ffffffffffffffffffffffffffffffffffffffff1663a167129583600360009054906101000a900473ffffffffffffffffffffffffffffffffffffffff16610bb86040518463ffffffff1660e01b8152600401620003d69392919062000e5b565b6020604051808303816000875af1158015620003f6573d6000803e3d6000fd5b505050506040513d601f19601f820116820180604052508101906200041c919062000eaf565b90508073ffffffffffffffffffffffffffffffffffffffff168273ffffffffffffffffffffffffffffffffffffffff167f4f2ce4e40f623ca765fc0167a25cb7842ceaafb8d82d3dec26ca0d0e0d2d489660405160405180910390a35b919050565b6000808686868686604051620004949062000a6e565b620004a495949392919062000f45565b604051809103906000f080158015620004c1573d6000803e3d6000fd5b50905060008190506000819080600181540180825580915050600190039060005260206000200160009091909190916101000a81548173ffffffffffffffffffffffffffffffffffffffff021916908373ffffffffffffffffffffffffffffffffffffffff16021790555060016000815480929190620005419062000fc3565b91905055508073ffffffffffffffffffffffffffffffffffffffff167f91d24864a084ab70b268a1f865e757ca12006cf298d763b6be697302ef86498c60405160405180910390a2809250505095945050505050565b600082905060008173ffffffffffffffffffffffffffffffffffffffff166370a08231306040518263ffffffff1660e01b8152600401620005d9919062000b2e565b602060405180830381865afa158015620005f7573d6000803e3d6000fd5b505050506040513d601f19601f820116820180604052508101906200061d919062001027565b90506000600190508273ffffffffffffffffffffffffffffffffffffffff1663095ea7b3600260009054906101000a900473ffffffffffffffffffffffffffffffffffffffff16846040518363ffffffff1660e01b81526004016200068492919062001059565b6020604051808303816000875af1158015620006a4573d6000803e3d6000fd5b505050506040513d601f19601f82011682018060405250810190620006ca9190620010c3565b50600360009054906101000a900473ffffffffffffffffffffffffffffffffffffffff1673ffffffffffffffffffffffffffffffffffffffff1663d0e30db0826040518263ffffffff1660e01b81526004016000604051808303818588803b1580156200073657600080fd5b505af11580156200074b573d6000803e3d6000fd5b5050505050600360009054906101000a900473ffffffffffffffffffffffffffffffffffffffff1673ffffffffffffffffffffffffffffffffffffffff1663095ea7b3600260009054906101000a900473ffffffffffffffffffffffffffffffffffffffff16836040518363ffffffff1660e01b8152600401620007d192919062001059565b6020604051808303816000875af1158015620007f1573d6000803e3d6000fd5b505050506040513d601f19601f82011682018060405250810190620008179190620010c3565b50600260009054906101000a900473ffffffffffffffffffffffffffffffffffffffff1673ffffffffffffffffffffffffffffffffffffffff1663883164566040518061016001604052808873ffffffffffffffffffffffffffffffffffffffff168152602001600360009054906101000a900473ffffffffffffffffffffffffffffffffffffffff1673ffffffffffffffffffffffffffffffffffffffff168152602001610bb862ffffff1681526020017ffffffffffffffffffffffffffffffffffffffffffffffffffffffffffff2764c60020b8152602001620d89b460020b815260200185815260200184815260200160008152602001600081526020018773ffffffffffffffffffffffffffffffffffffffff16815260200161012c42620009449190620010f5565b8152506040518263ffffffff1660e01b815260040162000965919062001278565b6080604051808303816000875af115801562000985573d6000803e3d6000fd5b505050506040513d601f19601f82011682018060405250810190620009ab9190620012e3565b505050505050505050565b600360009054906101000a900473ffffffffffffffffffffffffffffffffffffffff1681565b60008181548110620009ed57600080fd5b906000526020600020016000915054906101000a900473ffffffffffffffffffffffffffffffffffffffff1681565b600260009054906101000a900473ffffffffffffffffffffffffffffffffffffffff1681565b600460009054906101000a900473ffffffffffffffffffffffffffffffffffffffff1681565b60015481565b6118c3806200135683390190565b600080fd5b600080fd5b600073ffffffffffffffffffffffffffffffffffffffff82169050919050565b600062000ab38262000a86565b9050919050565b62000ac58162000aa6565b811462000ad157600080fd5b50565b60008135905062000ae58162000aba565b92915050565b60006020828403121562000b045762000b0362000a7c565b5b600062000b148482850162000ad4565b91505092915050565b62000b288162000aa6565b82525050565b600060208201905062000b45600083018462000b1d565b92915050565b600080fd5b600080fd5b600080fd5b60008083601f84011262000b735762000b7262000b4b565b5b8235905067ffffffffffffffff81111562000b935762000b9262000b50565b5b60208301915083600182028301111562000bb25762000bb162000b55565b5b9250929050565b6000819050919050565b62000bce8162000bb9565b811462000bda57600080fd5b50565b60008135905062000bee8162000bc3565b92915050565b60008060008060006060868803121562000c135762000c1262000a7c565b5b600086013567ffffffffffffffff81111562000c345762000c3362000a81565b5b62000c428882890162000b5a565b9550955050602086013567ffffffffffffffff81111562000c685762000c6762000a81565b5b62000c768882890162000b5a565b9350935050604062000c8b8882890162000bdd565b9150509295509295909350565b6000806040838503121562000cb25762000cb162000a7c565b5b600062000cc28582860162000ad4565b925050602062000cd58582860162000ad4565b9150509250929050565b60006020828403121562000cf85762000cf762000a7c565b5b600062000d088482850162000bdd565b91505092915050565b6000819050919050565b600062000d3c62000d3662000d308462000a86565b62000d11565b62000a86565b9050919050565b600062000d508262000d1b565b9050919050565b600062000d648262000d43565b9050919050565b62000d768162000d57565b82525050565b600060208201905062000d93600083018462000d6b565b92915050565b600062000da68262000d43565b9050919050565b62000db88162000d99565b82525050565b600060208201905062000dd5600083018462000dad565b92915050565b62000de68162000bb9565b82525050565b600060208201905062000e03600083018462000ddb565b92915050565b6000819050919050565b600062ffffff82169050919050565b600062000e4362000e3d62000e378462000e09565b62000d11565b62000e13565b9050919050565b62000e558162000e22565b82525050565b600060608201905062000e72600083018662000b1d565b62000e81602083018562000b1d565b62000e90604083018462000e4a565b949350505050565b60008151905062000ea98162000aba565b92915050565b60006020828403121562000ec85762000ec762000a7c565b5b600062000ed88482850162000e98565b91505092915050565b600082825260208201905092915050565b82818337600083830152505050565b6000601f19601f8301169050919050565b600062000f20838562000ee1565b935062000f2f83858462000ef2565b62000f3a8362000f01565b840190509392505050565b6000606082019050818103600083015262000f6281878962000f12565b9050818103602083015262000f7981858762000f12565b905062000f8a604083018462000ddb565b9695505050505050565b7f4e487b7100000000000000000000000000000000000000000000000000000000600052601160045260246000fd5b600062000fd08262000bb9565b91507fffffffffffffffffffffffffffffffffffffffffffffffffffffffffffffffff820362001005576200100462000f94565b5b600182019050919050565b600081519050620010218162000bc3565b92915050565b60006020828403121562001040576200103f62000a7c565b5b6000620010508482850162001010565b91505092915050565b600060408201905062001070600083018562000b1d565b6200107f602083018462000ddb565b9392505050565b60008115159050919050565b6200109d8162001086565b8114620010a957600080fd5b50565b600081519050620010bd8162001092565b92915050565b600060208284031215620010dc57620010db62000a7c565b5b6000620010ec84828501620010ac565b91505092915050565b6000620011028262000bb9565b91506200110f8362000bb9565b92508282019050808211156200112a576200112962000f94565b5b92915050565b6200113b8162000aa6565b82525050565b6200114c8162000e13565b82525050565b60008160020b9050919050565b6200116a8162001152565b82525050565b6200117b8162000bb9565b82525050565b610160820160008201516200119a600085018262001130565b506020820151620011af602085018262001130565b506040820151620011c4604085018262001141565b506060820151620011d960608501826200115f565b506080820151620011ee60808501826200115f565b5060a08201516200120360a085018262001170565b5060c08201516200121860c085018262001170565b5060e08201516200122d60e085018262001170565b506101008201516200124461010085018262001170565b506101208201516200125b61012085018262001130565b506101408201516200127261014085018262001170565b50505050565b60006101608201905062001290600083018462001181565b92915050565b60006fffffffffffffffffffffffffffffffff82169050919050565b620012bd8162001296565b8114620012c957600080fd5b50565b600081519050620012dd81620012b2565b92915050565b600080600080608085870312156200130057620012ff62000a7c565b5b6000620013108782880162001010565b94505060206200132387828801620012cc565b9350506040620013368782880162001010565b9250506060620013498782880162001010565b9150509295919450925056fe60806040523480156200001157600080fd5b50604051620018c3380380620018c383398181016040528101906200003791906200051a565b828281600390816200004a9190620007f5565b5080600490816200005c9190620007f5565b5050506200008633670de0b6b3a7640000836200007a91906200090b565b6200008f60201b60201c565b50505062000a5e565b600073ffffffffffffffffffffffffffffffffffffffff168273ffffffffffffffffffffffffffffffffffffffff1603620001045760006040517fec442f05000000000000000000000000000000000000000000000000000000008152600401620000fb91906200099b565b60405180910390fd5b62000118600083836200011c60201b60201c565b5050565b600073ffffffffffffffffffffffffffffffffffffffff168373ffffffffffffffffffffffffffffffffffffffff160362000172578060026000828254620001659190620009b8565b9250508190555062000248565b60008060008573ffffffffffffffffffffffffffffffffffffffff1673ffffffffffffffffffffffffffffffffffffffff1681526020019081526020016000205490508181101562000201578381836040517fe450d38c000000000000000000000000000000000000000000000000000000008152600401620001f89392919062000a04565b60405180910390fd5b8181036000808673ffffffffffffffffffffffffffffffffffffffff1673ffffffffffffffffffffffffffffffffffffffff16815260200190815260200160002081905550505b600073ffffffffffffffffffffffffffffffffffffffff168273ffffffffffffffffffffffffffffffffffffffff1603620002935780600260008282540392505081905550620002e0565b806000808473ffffffffffffffffffffffffffffffffffffffff1673ffffffffffffffffffffffffffffffffffffffff168152602001908152602001600020600082825401925050819055505b8173ffffffffffffffffffffffffffffffffffffffff168373ffffffffffffffffffffffffffffffffffffffff167fddf252ad1be2c89b69c2b068fc378daa952ba7f163c4a11628f55a4df523b3ef836040516200033f919062000a41565b60405180910390a3505050565b6000604051905090565b600080fd5b600080fd5b600080fd5b600080fd5b6000601f19601f8301169050919050565b7f4e487b7100000000000000000000000000000000000000000000000000000000600052604160045260246000fd5b620003b5826200036a565b810181811067ffffffffffffffff82111715620003d757620003d66200037b565b5b80604052505050565b6000620003ec6200034c565b9050620003fa8282620003aa565b919050565b600067ffffffffffffffff8211156200041d576200041c6200037b565b5b62000428826200036a565b9050602081019050919050565b60005b838110156200045557808201518184015260208101905062000438565b60008484015250505050565b6000620004786200047284620003ff565b620003e0565b90508281526020810184848401111562000497576200049662000365565b5b620004a484828562000435565b509392505050565b600082601f830112620004c457620004c362000360565b5b8151620004d684826020860162000461565b91505092915050565b6000819050919050565b620004f481620004df565b81146200050057600080fd5b50565b6000815190506200051481620004e9565b92915050565b60008060006060848603121562000536576200053562000356565b5b600084015167ffffffffffffffff8111156200055757620005566200035b565b5b6200056586828701620004ac565b935050602084015167ffffffffffffffff8111156200058957620005886200035b565b5b6200059786828701620004ac565b9250506040620005aa8682870162000503565b9150509250925092565b600081519050919050565b7f4e487b7100000000000000000000000000000000000000000000000000000000600052602260045260246000fd5b600060028204905060018216806200060757607f821691505b6020821081036200061d576200061c620005bf565b5b50919050565b60008190508160005260206000209050919050565b60006020601f8301049050919050565b600082821b905092915050565b600060088302620006877fffffffffffffffffffffffffffffffffffffffffffffffffffffffffffffffff8262000648565b62000693868362000648565b95508019841693508086168417925050509392505050565b6000819050919050565b6000620006d6620006d0620006ca84620004df565b620006ab565b620004df565b9050919050565b6000819050919050565b620006f283620006b5565b6200070a6200070182620006dd565b84845462000655565b825550505050565b600090565b6200072162000712565b6200072e818484620006e7565b505050565b5b8181101562000756576200074a60008262000717565b60018101905062000734565b5050565b601f821115620007a5576200076f8162000623565b6200077a8462000638565b810160208510156200078a578190505b620007a2620007998562000638565b83018262000733565b50505b505050565b600082821c905092915050565b6000620007ca60001984600802620007aa565b1980831691505092915050565b6000620007e58383620007b7565b9150826002028217905092915050565b6200080082620005b4565b67ffffffffffffffff8111156200081c576200081b6200037b565b5b620008288254620005ee565b620008358282856200075a565b600060209050601f8311600181146200086d576000841562000858578287015190505b620008648582620007d7565b865550620008d4565b601f1984166200087d8662000623565b60005b82811015620008a75784890151825560018201915060208501945060208101905062000880565b86831015620008c75784890151620008c3601f891682620007b7565b8355505b6001600288020188555050505b505050505050565b7f4e487b7100000000000000000000000000000000000000000000000000000000600052601160045260246000fd5b60006200091882620004df565b91506200092583620004df565b92508282026200093581620004df565b915082820484148315176200094f576200094e620008dc565b5b5092915050565b600073ffffffffffffffffffffffffffffffffffffffff82169050919050565b6000620009838262000956565b9050919050565b620009958162000976565b82525050565b6000602082019050620009b260008301846200098a565b92915050565b6000620009c582620004df565b9150620009d283620004df565b9250828201905080821115620009ed57620009ec620008dc565b5b92915050565b620009fe81620004df565b82525050565b600060608201905062000a1b60008301866200098a565b62000a2a6020830185620009f3565b62000a396040830184620009f3565b949350505050565b600060208201905062000a586000830184620009f3565b92915050565b610e558062000a6e6000396000f3fe608060405234801561001057600080fd5b50600436106100935760003560e01c8063313ce56711610066578063313ce5671461013457806370a082311461015257806395d89b4114610182578063a9059cbb146101a0578063dd62ed3e146101d057610093565b806306fdde0314610098578063095ea7b3146100b657806318160ddd146100e657806323b872dd14610104575b600080fd5b6100a0610200565b6040516100ad9190610aa9565b60405180910390f35b6100d060048036038101906100cb9190610b64565b610292565b6040516100dd9190610bbf565b60405180910390f35b6100ee6102b5565b6040516100fb9190610be9565b60405180910390f35b61011e60048036038101906101199190610c04565b6102bf565b60405161012b9190610bbf565b60405180910390f35b61013c6102ee565b6040516101499190610c73565b60405180910390f35b61016c60048036038101906101679190610c8e565b6102f7565b6040516101799190610be9565b60405180910390f35b61018a61033f565b6040516101979190610aa9565b60405180910390f35b6101ba60048036038101906101b59190610b64565b6103d1565b6040516101c79190610bbf565b60405180910390f35b6101ea60048036038101906101e59190610cbb565b6103f4565b6040516101f79190610be9565b60405180910390f35b60606003805461020f90610d2a565b80601f016020809104026020016040519081016040528092919081815260200182805461023b90610d2a565b80156102885780601f1061025d57610100808354040283529160200191610288565b820191906000526020600020905b81548152906001019060200180831161026b57829003601f168201915b5050505050905090565b60008061029d61047b565b90506102aa818585610483565b600191505092915050565b6000600254905090565b6000806102ca61047b565b90506102d7858285610495565b6102e2858585610529565b60019150509392505050565b60006012905090565b60008060008373ffffffffffffffffffffffffffffffffffffffff1673ffffffffffffffffffffffffffffffffffffffff168152602001908152602001600020549050919050565b60606004805461034e90610d2a565b80601f016020809104026020016040519081016040528092919081815260200182805461037a90610d2a565b80156103c75780601f1061039c576101008083540402835291602001916103c7565b820191906000526020600020905b8154815290600101906020018083116103aa57829003601f168201915b5050505050905090565b6000806103dc61047b565b90506103e9818585610529565b600191505092915050565b6000600160008473ffffffffffffffffffffffffffffffffffffffff1673ffffffffffffffffffffffffffffffffffffffff16815260200190815260200160002060008373ffffffffffffffffffffffffffffffffffffffff1673ffffffffffffffffffffffffffffffffffffffff16815260200190815260200160002054905092915050565b600033905090565b610490838383600161061d565b505050565b60006104a184846103f4565b90507fffffffffffffffffffffffffffffffffffffffffffffffffffffffffffffffff81146105235781811015610513578281836040517ffb8f41b200000000000000000000000000000000000000000000000000000000815260040161050a93929190610d6a565b60405180910390fd5b6105228484848403600061061d565b5b50505050565b600073ffffffffffffffffffffffffffffffffffffffff168373ffffffffffffffffffffffffffffffffffffffff160361059b5760006040517f96c6fd1e0000000000000000000000000000000000000000000000000000000081526004016105929190610da1565b60405180910390fd5b600073ffffffffffffffffffffffffffffffffffffffff168273ffffffffffffffffffffffffffffffffffffffff160361060d5760006040517fec442f050000000000000000000000000000000000000000000000000000000081526004016106049190610da1565b60405180910390fd5b6106188383836107f4565b505050565b600073ffffffffffffffffffffffffffffffffffffffff168473ffffffffffffffffffffffffffffffffffffffff160361068f5760006040517fe602df050000000000000000000000000000000000000000000000000000000081526004016106869190610da1565b60405180910390fd5b600073ffffffffffffffffffffffffffffffffffffffff168373ffffffffffffffffffffffffffffffffffffffff16036107015760006040517f94280d620000000000000000000000000000000000000000000000000000000081526004016106f89190610da1565b60405180910390fd5b81600160008673ffffffffffffffffffffffffffffffffffffffff1673ffffffffffffffffffffffffffffffffffffffff16815260200190815260200160002060008573ffffffffffffffffffffffffffffffffffffffff1673ffffffffffffffffffffffffffffffffffffffff1681526020019081526020016000208190555080156107ee578273ffffffffffffffffffffffffffffffffffffffff168473ffffffffffffffffffffffffffffffffffffffff167f8c5be1e5ebec7d5bd14f71427d1e84f3dd0314c0f7b2291e5b200ac8c7c3b925846040516107e59190610be9565b60405180910390a35b50505050565b600073ffffffffffffffffffffffffffffffffffffffff168373ffffffffffffffffffffffffffffffffffffffff160361084657806002600082825461083a9190610deb565b92505081905550610919565b60008060008573ffffffffffffffffffffffffffffffffffffffff1673ffffffffffffffffffffffffffffffffffffffff168152602001908152602001600020549050818110156108d2578381836040517fe450d38c0000000000000000000000000000000000000000000000000000000081526004016108c993929190610d6a565b60405180910390fd5b8181036000808673ffffffffffffffffffffffffffffffffffffffff1673ffffffffffffffffffffffffffffffffffffffff16815260200190815260200160002081905550505b600073ffffffffffffffffffffffffffffffffffffffff168273ffffffffffffffffffffffffffffffffffffffff160361096257806002600082825403925050819055506109af565b806000808473ffffffffffffffffffffffffffffffffffffffff1673ffffffffffffffffffffffffffffffffffffffff168152602001908152602001600020600082825401925050819055505b8173ffffffffffffffffffffffffffffffffffffffff168373ffffffffffffffffffffffffffffffffffffffff167fddf252ad1be2c89b69c2b068fc378daa952ba7f163c4a11628f55a4df523b3ef83604051610a0c9190610be9565b60405180910390a3505050565b600081519050919050565b600082825260208201905092915050565b60005b83811015610a53578082015181840152602081019050610a38565b60008484015250505050565b6000601f19601f8301169050919050565b6000610a7b82610a19565b610a858185610a24565b9350610a95818560208601610a35565b610a9e81610a5f565b840191505092915050565b60006020820190508181036000830152610ac38184610a70565b905092915050565b600080fd5b600073ffffffffffffffffffffffffffffffffffffffff82169050919050565b6000610afb82610ad0565b9050919050565b610b0b81610af0565b8114610b1657600080fd5b50565b600081359050610b2881610b02565b92915050565b6000819050919050565b610b4181610b2e565b8114610b4c57600080fd5b50565b600081359050610b5e81610b38565b92915050565b60008060408385031215610b7b57610b7a610acb565b5b6000610b8985828601610b19565b9250506020610b9a85828601610b4f565b9150509250929050565b60008115159050919050565b610bb981610ba4565b82525050565b6000602082019050610bd46000830184610bb0565b92915050565b610be381610b2e565b82525050565b6000602082019050610bfe6000830184610bda565b92915050565b600080600060608486031215610c1d57610c1c610acb565b5b6000610c2b86828701610b19565b9350506020610c3c86828701610b19565b9250506040610c4d86828701610b4f565b9150509250925092565b600060ff82169050919050565b610c6d81610c57565b82525050565b6000602082019050610c886000830184610c64565b92915050565b600060208284031215610ca457610ca3610acb565b5b6000610cb284828501610b19565b91505092915050565b60008060408385031215610cd257610cd1610acb565b5b6000610ce085828601610b19565b9250506020610cf185828601610b19565b9150509250929050565b7f4e487b7100000000000000000000000000000000000000000000000000000000600052602260045260246000fd5b60006002820490506001821680610d4257607f821691505b602082108103610d5557610d54610cfb565b5b50919050565b610d6481610af0565b82525050565b6000606082019050610d7f6000830186610d5b565b610d8c6020830185610bda565b610d996040830184610bda565b949350505050565b6000602082019050610db66000830184610d5b565b92915050565b7f4e487b7100000000000000000000000000000000000000000000000000000000600052601160045260246000fd5b6000610df682610b2e565b9150610e0183610b2e565b9250828201905080821115610e1957610e18610dbc565b5b9291505056fea2646970667358221220ac53b986a8f3393718507afdf03e62e0ef47462508a87592978d858c0e4051f364736f6c63430008180033a26469706673582212201de535952e66c04d330ffabc877200262df39ca29ddf54cfb253cb8eeca8b72e64736f6c63430008180033",
    "linkReferences": {},
    "deployedLinkReferences": {}
}