{
  "_format": "hh-sol-artifact-1",
  "contractName": "MyFactory",
  "sourceName": "contracts/TestFactory.sol",
  "abi": [
    {
      "inputs": [
        {
          "internalType": "address",
          "name": "_positionManager",
          "type": "address"
        },
        {
          "internalType": "address",
          "name": "_weth",
          "type": "address"
        },
        {
          "internalType": "address",
          "name": "_uniswapFactory",
          "type": "address"
        },
        {
          "internalType": "address",
          "name": "_swapRouter",
          "type": "address"
        }
      ],
      "stateMutability": "nonpayable",
      "type": "constructor"
    },
    {
      "anonymous": false,
      "inputs": [
        {
          "indexed": true,
          "internalType": "address",
          "name": "token",
          "type": "address"
        },
        {
          "indexed": false,
          "internalType": "uint256",
          "name": "amount0",
          "type": "uint256"
        },
        {
          "indexed": false,
          "internalType": "uint256",
          "name": "amount1",
          "type": "uint256"
        }
      ],
      "name": "FeesCollected",
      "type": "event"
    },
    {
      "anonymous": false,
      "inputs": [
        {
          "indexed": true,
          "internalType": "address",
          "name": "token",
          "type": "address"
        },
        {
          "indexed": true,
          "internalType": "address",
          "name": "pool",
          "type": "address"
        },
        {
          "indexed": false,
          "internalType": "uint256",
          "name": "tokenAmount",
          "type": "uint256"
        },
        {
          "indexed": false,
          "internalType": "uint256",
          "name": "wethAmount",
          "type": "uint256"
        },
        {
          "indexed": false,
          "internalType": "uint256",
          "name": "timestamp",
          "type": "uint256"
        }
      ],
      "name": "LiquidityAdded",
      "type": "event"
    },
    {
      "anonymous": false,
      "inputs": [
        {
          "indexed": true,
          "internalType": "address",
          "name": "token",
          "type": "address"
        },
        {
          "indexed": true,
          "internalType": "address",
          "name": "pool",
          "type": "address"
        },
        {
          "indexed": false,
          "internalType": "uint256",
          "name": "tokenAmount",
          "type": "uint256"
        },
        {
          "indexed": false,
          "internalType": "uint256",
          "name": "wethAmount",
          "type": "uint256"
        },
        {
          "indexed": false,
          "internalType": "string",
          "name": "error",
          "type": "string"
        }
      ],
      "name": "LiquidityAdditionFailed",
      "type": "event"
    },
    {
      "anonymous": false,
      "inputs": [
        {
          "indexed": true,
          "internalType": "address",
          "name": "token",
          "type": "address"
        },
        {
          "indexed": false,
          "internalType": "uint256",
          "name": "tokenId",
          "type": "uint256"
        },
        {
          "indexed": false,
          "internalType": "uint256",
          "name": "amount0",
          "type": "uint256"
        },
        {
          "indexed": false,
          "internalType": "uint256",
          "name": "amount1",
          "type": "uint256"
        }
      ],
      "name": "LiquidityRemoved",
      "type": "event"
    },
    {
      "anonymous": false,
      "inputs": [
        {
          "indexed": true,
          "internalType": "address",
          "name": "token0",
          "type": "address"
        },
        {
          "indexed": true,
          "internalType": "address",
          "name": "poolAddress",
          "type": "address"
        }
      ],
      "name": "PoolCreated",
      "type": "event"
    },
    {
      "anonymous": false,
      "inputs": [
        {
          "indexed": true,
          "internalType": "address",
          "name": "poolAddress",
          "type": "address"
        },
        {
          "indexed": false,
          "internalType": "uint160",
          "name": "sqrtPriceX96",
          "type": "uint160"
        }
      ],
      "name": "PoolInitialized",
      "type": "event"
    },
    {
      "anonymous": false,
      "inputs": [
        {
          "indexed": true,
          "internalType": "address",
          "name": "token",
          "type": "address"
        },
        {
          "indexed": false,
          "internalType": "uint256",
          "name": "amountIn",
          "type": "uint256"
        },
        {
          "indexed": false,
          "internalType": "uint256",
          "name": "amountOut",
          "type": "uint256"
        }
      ],
      "name": "SwappedToWETH",
      "type": "event"
    },
    {
      "anonymous": false,
      "inputs": [
        {
          "indexed": true,
          "internalType": "address",
          "name": "tokenAddress",
          "type": "address"
        },
        {
          "indexed": true,
          "internalType": "address",
          "name": "poolAddress",
          "type": "address"
        }
      ],
      "name": "TokenApproved",
      "type": "event"
    },
    {
      "anonymous": false,
      "inputs": [
        {
          "indexed": true,
          "internalType": "address",
          "name": "tokenAddress",
          "type": "address"
        }
      ],
      "name": "TokenDeployed",
      "type": "event"
    },
    {
      "stateMutability": "payable",
      "type": "fallback"
    },
    {
      "inputs": [
        {
          "internalType": "address",
          "name": "_token0",
          "type": "address"
        },
        {
          "internalType": "address",
          "name": "_token1",
          "type": "address"
        },
        {
          "internalType": "address",
          "name": "factory_addy",
          "type": "address"
        },
        {
          "internalType": "uint256",
          "name": "_token0Amount",
          "type": "uint256"
        },
        {
          "internalType": "uint256",
          "name": "_token1Amount",
          "type": "uint256"
        }
      ],
      "name": "addInitialLiquidity",
      "outputs": [],
      "stateMutability": "nonpayable",
      "type": "function"
    },
    {
      "inputs": [
        {
          "internalType": "address",
          "name": "token",
          "type": "address"
        },
        {
          "internalType": "address",
          "name": "spender",
          "type": "address"
        },
        {
          "internalType": "uint256",
          "name": "amount",
          "type": "uint256"
        }
      ],
      "name": "approveToken",
      "outputs": [],
      "stateMutability": "nonpayable",
      "type": "function"
    },
    {
      "inputs": [
        {
          "internalType": "uint256",
          "name": "wethAmountToRemove",
          "type": "uint256"
        },
        {
          "internalType": "uint160",
          "name": "sqrtPriceX96",
          "type": "uint160"
        },
        {
          "internalType": "uint128",
          "name": "totalLiquidity",
          "type": "uint128"
        }
      ],
      "name": "calculateLiquidityToRemove",
      "outputs": [
        {
          "internalType": "uint128",
          "name": "liquidityToRemove",
          "type": "uint128"
        }
      ],
      "stateMutability": "pure",
      "type": "function"
    },
    {
      "inputs": [
        {
          "internalType": "uint256",
          "name": "tokenId",
          "type": "uint256"
        }
      ],
      "name": "collectFees",
      "outputs": [],
      "stateMutability": "nonpayable",
      "type": "function"
    },
    {
      "inputs": [
        {
          "internalType": "address",
          "name": "token0",
          "type": "address"
        },
        {
          "internalType": "address",
          "name": "token1",
          "type": "address"
        },
        {
          "internalType": "uint160",
          "name": "sqrtPriceX96",
          "type": "uint160"
        }
      ],
      "name": "createAndInitializePoolIfNecessary",
      "outputs": [
        {
          "internalType": "address",
          "name": "pool",
          "type": "address"
        }
      ],
      "stateMutability": "nonpayable",
      "type": "function"
    },
    {
      "inputs": [
        {
          "internalType": "address",
          "name": "_token0",
          "type": "address"
        },
        {
          "internalType": "address",
          "name": "_token1",
          "type": "address"
        }
      ],
      "name": "createPoolForToken",
      "outputs": [
        {
          "internalType": "address",
          "name": "poolAddress",
          "type": "address"
        }
      ],
      "stateMutability": "nonpayable",
      "type": "function"
    },
    {
      "inputs": [
        {
          "internalType": "string",
          "name": "_name",
          "type": "string"
        },
        {
          "internalType": "string",
          "name": "_symbol",
          "type": "string"
        },
        {
          "internalType": "uint256",
          "name": "_supply",
          "type": "uint256"
        }
      ],
      "name": "deployToken",
      "outputs": [
        {
          "internalType": "address",
          "name": "",
          "type": "address"
        }
      ],
      "stateMutability": "nonpayable",
      "type": "function"
    },
    {
      "inputs": [
        {
          "internalType": "uint256",
          "name": "tokenId",
          "type": "uint256"
        }
      ],
      "name": "getPosition",
      "outputs": [
        {
          "internalType": "uint96",
          "name": "nonce",
          "type": "uint96"
        },
        {
          "internalType": "address",
          "name": "operator",
          "type": "address"
        },
        {
          "internalType": "address",
          "name": "token0",
          "type": "address"
        },
        {
          "internalType": "address",
          "name": "token1",
          "type": "address"
        },
        {
          "internalType": "uint24",
          "name": "fee",
          "type": "uint24"
        },
        {
          "internalType": "int24",
          "name": "tickLower",
          "type": "int24"
        },
        {
          "internalType": "int24",
          "name": "tickUpper",
          "type": "int24"
        },
        {
          "internalType": "uint128",
          "name": "liquidity",
          "type": "uint128"
        },
        {
          "internalType": "uint256",
          "name": "feeGrowthInside0LastX128",
          "type": "uint256"
        },
        {
          "internalType": "uint256",
          "name": "feeGrowthInside1LastX128",
          "type": "uint256"
        },
        {
          "internalType": "uint128",
          "name": "tokensOwed0",
          "type": "uint128"
        },
        {
          "internalType": "uint128",
          "name": "tokensOwed1",
          "type": "uint128"
        }
      ],
      "stateMutability": "view",
      "type": "function"
    },
    {
      "inputs": [
        {
          "internalType": "address",
          "name": "tokenA",
          "type": "address"
        },
        {
          "internalType": "address",
          "name": "tokenB",
          "type": "address"
        },
        {
          "internalType": "uint24",
          "name": "fee",
          "type": "uint24"
        }
      ],
      "name": "get_Pool",
      "outputs": [
        {
          "internalType": "address",
          "name": "pool",
          "type": "address"
        }
      ],
      "stateMutability": "view",
      "type": "function"
    },
    {
      "inputs": [
        {
          "internalType": "address",
          "name": "poolAddress",
          "type": "address"
        },
        {
          "internalType": "uint160",
          "name": "sqrtPriceX96",
          "type": "uint160"
        }
      ],
      "name": "initializePool",
      "outputs": [],
      "stateMutability": "nonpayable",
      "type": "function"
    },
    {
      "inputs": [
        {
          "internalType": "bytes[]",
          "name": "data",
          "type": "bytes[]"
        }
      ],
      "name": "multicall",
      "outputs": [
        {
          "internalType": "bytes[]",
          "name": "results",
          "type": "bytes[]"
        }
      ],
      "stateMutability": "payable",
      "type": "function"
    },
    {
      "inputs": [
        {
          "internalType": "uint256",
          "name": "amountNeeded",
          "type": "uint256"
        }
      ],
      "name": "notifyFundsNeeded",
      "outputs": [],
      "stateMutability": "nonpayable",
      "type": "function"
    },
    {
      "inputs": [],
      "name": "owner",
      "outputs": [
        {
          "internalType": "address",
          "name": "",
          "type": "address"
        }
      ],
      "stateMutability": "view",
      "type": "function"
    },
    {
      "inputs": [],
      "name": "positionManager",
      "outputs": [
        {
          "internalType": "contract INonfungiblePositionManager",
          "name": "",
          "type": "address"
        }
      ],
      "stateMutability": "view",
      "type": "function"
    },
    {
      "inputs": [
        {
          "internalType": "uint256",
          "name": "tokenId",
          "type": "uint256"
        },
        {
          "internalType": "uint128",
          "name": "liquidityToRemove",
          "type": "uint128"
        }
      ],
      "name": "removeLiquidity",
      "outputs": [],
      "stateMutability": "nonpayable",
      "type": "function"
    },
    {
      "inputs": [
        {
          "internalType": "address",
          "name": "_stakingPoolAddress",
          "type": "address"
        }
      ],
      "name": "setStakingPoolAddress",
      "outputs": [],
      "stateMutability": "nonpayable",
      "type": "function"
    },
    {
      "inputs": [],
      "name": "stakingPoolAddress",
      "outputs": [
        {
          "internalType": "address",
          "name": "",
          "type": "address"
        }
      ],
      "stateMutability": "view",
      "type": "function"
    },
    {
      "inputs": [
        {
          "internalType": "address",
          "name": "tokenOut",
          "type": "address"
        },
        {
          "internalType": "uint256",
          "name": "amount_In",
          "type": "uint256"
        }
      ],
      "name": "swapETHForToken",
      "outputs": [
        {
          "internalType": "uint256",
          "name": "amountOut",
          "type": "uint256"
        }
      ],
      "stateMutability": "payable",
      "type": "function"
    },
    {
      "inputs": [],
      "name": "swapRouter",
      "outputs": [
        {
          "internalType": "contract ISwapRouter",
          "name": "",
          "type": "address"
        }
      ],
      "stateMutability": "view",
      "type": "function"
    },
    {
      "inputs": [],
      "name": "tokenCount",
      "outputs": [
        {
          "internalType": "uint256",
          "name": "",
          "type": "uint256"
        }
      ],
      "stateMutability": "view",
      "type": "function"
    },
    {
      "inputs": [
        {
          "internalType": "uint256",
          "name": "",
          "type": "uint256"
        }
      ],
      "name": "tokens",
      "outputs": [
        {
          "internalType": "address",
          "name": "",
          "type": "address"
        }
      ],
      "stateMutability": "view",
      "type": "function"
    },
    {
      "inputs": [],
      "name": "uniswapFactory",
      "outputs": [
        {
          "internalType": "contract IUniswapV3Factory",
          "name": "",
          "type": "address"
        }
      ],
      "stateMutability": "view",
      "type": "function"
    },
    {
      "inputs": [],
      "name": "weth",
      "outputs": [
        {
          "internalType": "address",
          "name": "",
          "type": "address"
        }
      ],
      "stateMutability": "view",
      "type": "function"
    },
    {
      "inputs": [],
      "name": "wethAddress",
      "outputs": [
        {
          "internalType": "address",
          "name": "",
          "type": "address"
        }
      ],
      "stateMutability": "view",
      "type": "function"
    },
    {
      "stateMutability": "payable",
      "type": "receive"
    }
  ],
  "bytecode": "0x608034620000d057601f62002bbb38819003918201601f19168301916001600160401b03831184841017620000d557808492608094604052833981010312620000d0576200004d81620000eb565b906200005c60208201620000eb565b6200007860606200007060408501620000eb565b9301620000eb565b9060018060a01b03928380928160018060a01b0319971687600254161760025516856003541617600355168360045416176004551681600554161760055533906008541617600855604051612aba9081620001018239f35b600080fd5b634e487b7160e01b600052604160045260246000fd5b51906001600160a01b0382168203620000d05756fe60808060405260043610156200001c575b5036156200001a57005b005b600090813560e01c908163203d81c11462001a7e5750806325b15a0c1462001a555780633a93babb14620018f05780633fc8cef314620018c75780634f0e0ef3146200189e5780634f64b2be146200185757806351246d6e146200173f57806353ebea77146200159c5780635bc30eb014620011af5780636e9551d714620010d457806373e607021462000f23578063791b98bc1462000efa5780638bdb2afa1462000ed15780638c3a65a21462000c795780638da5cb5b1462000c50578063911757ba1462000a495780639f181b5e1462000a29578063ac9650d81462000842578063b17acdcd1462000753578063c31c9c07146200072a578063d196e9c6146200052a578063d21b6ed41462000460578063da3e3397146200035a5763eb02c301036200001057346200033c5760203660031901126200033c576001600160a01b03600254169060405180927f99fbab8800000000000000000000000000000000000000000000000000000000825260043560048301528160246101809586935afa80156200034f578280928180818290839284968599868098819b62000248575b50506040519b6bffffffffffffffffffffffff168c526001600160a01b031660208c01526001600160a01b031660408b01526001600160a01b031660608a015262ffffff16608089015260020b60a088015260020b60c08701526001600160801b03948580941660e08801526101008701526101208601521661014084015216610160820152f35b9b509b50505050505050505050508281813d831162000347575b6200026e818362001c78565b81010312620003435780516bffffffffffffffffffffffff811681036200033f576200029d6020830162001c9b565b92620002ac6040840162001c9b565b91620002bb6060850162001c9b565b9360808101519262ffffff841684036200033c5750620002de60a0820162001e41565b620002ec60c0830162001e41565b620002fa60e0840162001cb0565b916101008401519561012085015198620003276101606200031f610140890162001cb0565b970162001cb0565b969a98909192939497999596983880620001c0565b80fd5b8280fd5b5080fd5b503d62000262565b6040513d84823e3d90fd5b50346200033c5760603660031901126200033c576001600160a01b036020620003c76200038662001b22565b6200039062001b39565b8560405195868095819463095ea7b360e01b83526044359060048401602090939291936001600160a01b0360408201951681520152565b0393165af19081156200034f5782916200042a575b5015620003e65780f35b606460405162461bcd60e51b815260206004820152600f60248201527f417070726f76616c206661696c656400000000000000000000000000000000006044820152fd5b62000451915060203d60201162000458575b62000448818362001c78565b81019062001e27565b38620003dc565b503d6200043c565b50346200033c5760403660031901126200033c576200047e62001b22565b6200048862001b39565b826001600160a01b0380931692833b156200034357604051927ff637731d0000000000000000000000000000000000000000000000000000000084521691826004820152818160248183885af180156200034f5762000512575b505060207f30440fb2e4ce813a3feb1a945fc1c8190ba344a38f64cb33348155d72ab138b291604051908152a280f35b6200051d9062001c46565b6200033f578238620004e2565b5060403660031901126200033c576200054262001b22565b90602435916001600160a01b03928360035416803b1562000726578382916004604051809481937fd0e30db00000000000000000000000000000000000000000000000000000000083525af180156200071b5790849162000703575b5050620005b681856003541686600554169062001e50565b8360035416916040519061010082019382851067ffffffffffffffff861117620006ed5786946040528252602095869381858501931683526040840190612710825260608501903382526080860142815260a087019182528460c08801938b855260e08901958c8752828060055416996040519d8e9c7f414bf389000000000000000000000000000000000000000000000000000000008e52511660048d0152511660248b01525162ffffff1660448a0152511660648801525160848701525160a48601525160c4850152511660e483015281855a9261010493f1918215620006e15791620006a9575b50604051908152f35b90508181813d8311620006d9575b620006c3818362001c78565b81010312620006d4575138620006a0565b600080fd5b503d620006b7565b604051903d90823e3d90fd5b634e487b7160e01b600052604160045260246000fd5b6200070e9062001c46565b6200033f5782386200059e565b6040513d86823e3d90fd5b8380fd5b50346200033c57806003193601126200033c5760206001600160a01b0360055416604051908152f35b50346200033c5760203660031901126200033c57806040620007fb81516200077b8162001c5b565b60043581523060208201526001600160801b03808483015260608201526001600160a01b036002541690835194858094819363fc6f786560e01b83526004830191909160606080820193805183526001600160a01b036020820151166020840152816040820151916001600160801b038093166040860152015116910152565b03925af180156200034f576200080f575080f35b620008359060403d6040116200083a575b6200082c818362001c78565b81019062001dcc565b505080f35b503d62000820565b50602080600319360112620003435760043567ffffffffffffffff808211620007265736602383011215620007265781600401359080821162000a25576024906005923660248260051b8701011162000a215792620008a48497969762001de3565b94620008b4604051968762001c78565b848652620008c28562001de3565b601f1901875b81811062000a11575050368190036042190191875b868110620009485789898960405191838301848452825180915260408401948060408360051b870101940192955b828710620009195785850386f35b90919293828062000937600193603f198a8203018652885162001be3565b96019201960195929190926200090b565b8581839b9a9b1b840101358481121562000a0d5783018a87820135878111620003435760448093019080360382136200033f57829181604051928392833781018381520390305af4906200099b62001d3d565b9115620009cb575090600191620009b3828b62001dfc565b52620009c0818a62001dfc565b5001989798620008dd565b8a7f5472616e73616374696f6e206661696c6564000000000000000000000000000060649260128b6040519462461bcd60e51b86526004860152840152820152fd5b8a80fd5b60608882018b01528901620008c8565b8680fd5b8480fd5b50346200033c57806003193601126200033c576020600154604051908152f35b50346200033c5760403660031901126200033c576004356024356001600160801b03808216809203620006d4576001600160a01b038060025416926040519060a082019082821067ffffffffffffffff831117620006ed5760a4859389809860409586528a83526020830194855285830182815260608401838152608085019142835288519b8c9889977f0c49ccbe000000000000000000000000000000000000000000000000000000008952516004890152511660248701525160448601525160648501525160848401525af19182156200071b5760409362000baa9362000c2f575b50600254169083519062000b418262001c5b565b86825230602083015280858301526060820152835194858094819363fc6f786560e01b83526004830191909160606080820193805183526001600160a01b036020820151166020840152816040820151916001600160801b038093166040860152015116910152565b03925af1801562000c24577f1dc8bb69df2b8e91fbdcbfcf93d951b3f0000f085a95fe3f7946d6161439245d918490859262000bfd575b506040805194855260208501919091528301523391606090a280f35b905062000c1c915060403d6040116200083a576200082c818362001c78565b903862000be1565b6040513d85823e3d90fd5b62000c4990853d87116200083a576200082c818362001c78565b5062000b2d565b50346200033c57806003193601126200033c5760206001600160a01b0360085416604051908152f35b50346200033c57602090816003193601126200033c576004356001600160a01b0380600654169182330362000e8d578160035416906040517f70a082310000000000000000000000000000000000000000000000000000000081523060048201528681602481865afa90811562000e8257869162000e4b575b5081811062000e425750925b8362000d08578480f35b6040517fa9059cbb0000000000000000000000000000000000000000000000000000000081526001600160a01b03919091166004820152602481018490529085908290604490829088905af19081156200071b57849162000e20575b501562000ddc5782935060065416803b1562000dd8576024839260405194859384927f9b5ceb3500000000000000000000000000000000000000000000000000000000845260048401525af180156200034f5762000dc6575b80808084938480f35b62000dd19062001c46565b3862000dbd565b5050fd5b6064846040519062461bcd60e51b82526004820152601360248201527f4661696c656420746f2073656e642057455448000000000000000000000000006044820152fd5b62000e3b9150853d8711620004585762000448818362001c78565b3862000d64565b90509262000cfe565b90508681813d831162000e7a575b62000e65818362001c78565b8101031262000e7657513862000cf2565b8580fd5b503d62000e59565b6040513d88823e3d90fd5b6064856040519062461bcd60e51b82526004820152601e60248201527f43616c6c6572206973206e6f7420746865207374616b696e6720706f6f6c00006044820152fd5b50346200033c57806003193601126200033c5760206001600160a01b0360045416604051908152f35b50346200033c57806003193601126200033c5760206001600160a01b0360025416604051908152f35b50346200033c5760603660031901126200033c576004359062000f4562001b39565b6001600160801b039290604435848116036200033f576001600160a01b0316801562001090578062000f779162001d81565b60c01c908115620010265762000f9262000f99928262001dab565b9062001d81565b9181600384111562001011575082916001908460011c6001810180911162000ffd5791905b84831062000fd757505050602092505b60405191168152f35b919350908362000fe8818762001dab565b90810180911162000ffd57821c919062000fbe565b602482634e487b7160e01b81526011600452fd5b91506020921562000fce576001915062000fce565b608460405162461bcd60e51b815260206004820152602260248201527f50726963652063616c63756c6174696f6e20726573756c74656420696e207a6560448201527f726f0000000000000000000000000000000000000000000000000000000000006064820152fd5b606460405162461bcd60e51b815260206004820152601460248201527f737172745072696365583936206973207a65726f0000000000000000000000006044820152fd5b50346200033c5760603660031901126200033c57620010f262001b22565b90620010fd62001b39565b9160443562ffffff81168091036200033f5760209060646001600160a01b0393849283600454169084604051998a968795630b4c774160e11b875216600486015216602484015260448301525afa918215620006e157809262001168575b6020838360405191168152f35b9091506020833d602011620011a6575b81620011876020938362001c78565b810103126200033c57506200119e60209262001c9b565b90386200115b565b3d915062001178565b50346200033c5760a03660031901126200033c57620011cd62001b22565b620011d762001b39565b620011e162001b50565b90620011fc6064356001600160a01b03600254168562001e50565b620012166084356001600160a01b03600254168362001e50565b6001600160a01b03600254169161012c42014211620015885760405191610160830183811067ffffffffffffffff8211176200157457926001600160a01b03610140938161016494608097604052818a1685521660208401526127106040840152620d899f196060840152620d89a08684015260643560a084015260843560c08401528860e0840152886101008401521661012082015261012c4201838201528660405195869485937f883164560000000000000000000000000000000000000000000000000000000085526001600160a01b0381511660048601526001600160a01b03602082015116602486015262ffffff6040820151166044860152606081015160020b60648601528781015160020b608486015260a081015160a486015260c081015160c486015260e081015160e48601526101008101516101048601526001600160a01b036101208201511661012486015201516101448401525af1908162001530575b50620014cb5760018260033d11620014ba575b6308c379a01462001434575b620013a6575080f35b620013b062001d3d565b506001600160a01b0360025416907fc81aebb20d4ec9089cfa8e56a148aed217ed952594ba4084e64a3e2736d9450660a06001600160a01b03604051936064358552608435602086015260606040860152600f60608601527f4c6f772d6c6576656c206572726f72000000000000000000000000000000000060808601521692a380f35b6200143e62001cc5565b806200144c575b506200139d565b905082906001600160a01b0360025416907fc81aebb20d4ec9089cfa8e56a148aed217ed952594ba4084e64a3e2736d94506604051606435815260843560208201526060604082015280620014b06001600160a01b03881694606083019062001be3565b0390a33862001445565b50600483803e825160e01c62001391565b6001600160a01b0360025416907f4a1a2a6176e9646d9e3157f7c2ab3c499f18337c0b0828cfb28e0a61de4a11f76001600160a01b03604051921691806200152a42608435606435846040919493926060820195825260208201520152565b0390a380f35b6080813d6080116200156b575b816200154c6080938362001c78565b810103126200072657602062001563910162001cb0565b50386200137e565b3d91506200153d565b602487634e487b7160e01b81526041600452fd5b602485634e487b7160e01b81526011600452fd5b50346200033c5760403660031901126200033c57620015ba62001b22565b620015c462001b39565b916001600160a01b0390816004541690828060405195630b4c774160e11b8752169586600487015216948560248601526127108060448701526020968787606481885afa9687156200071b57908892918598620016fd575b508688161562001633575b82888860405191168152f35b8460649293949596985060405198899485937fa1671295000000000000000000000000000000000000000000000000000000008552886004860152602485015260448401525af19384156200034f578294620016be575b507f4f2ce4e40f623ca765fc0167a25cb7842ceaafb8d82d3dec26ca0d0e0d2d48968385169280a338808085818062001627565b9093508481813d8311620016f5575b620016d9818362001c78565b810103126200034357620016ed9062001c9b565b92386200168a565b503d620016cd565b838193949299503d831162001737575b62001719818362001c78565b810103126200072657906200172f889262001c9b565b96386200161c565b503d6200170d565b50346200033c5760603660031901126200033c576200175d62001b22565b906200176862001b39565b8160206200177562001b50565b60846001600160a01b039687948593848060025416916040519b8c9788967f13ead562000000000000000000000000000000000000000000000000000000008852169a8b600488015216602486015261271060448601521660648401525af1801562000c2457839062001815575b602094501680917f4f2ce4e40f623ca765fc0167a25cb7842ceaafb8d82d3dec26ca0d0e0d2d48966040519480a38152f35b506020843d6020116200184e575b81620018326020938362001c78565b810103126200033f576200184860209462001c9b565b620017e3565b3d915062001823565b50346200033c5760203660031901126200033c576004359080548210156200033c5760206001600160a01b036200188e8462001b98565b9190546040519260031b1c168152f35b50346200033c57806003193601126200033c5760206001600160a01b0360075416604051908152f35b50346200033c57806003193601126200033c5760206001600160a01b0360035416604051908152f35b50346200033c5760603660031901126200033c5767ffffffffffffffff6004358181116200033f576200192890369060040162001b67565b919060243582811162000a25576200194590369060040162001b67565b909160405194610b5a808701958787109087111762001a415786959492620019919492620019829262001f2b893960608752606087019162001c25565b91848303602086015262001c25565b906040604435910152039082f0908115620006e1576001600160a01b038092169181546801000000000000000081101562001a2d57806001620019d79201845562001b98565b819291549060031b9185831b921b191617905560015491600019831462000ffd57600160209301600155807f91d24864a084ab70b268a1f865e757ca12006cf298d763b6be697302ef86498c6040519380a28152f35b602483634e487b7160e01b81526041600452fd5b602488634e487b7160e01b81526041600452fd5b50346200033c57806003193601126200033c5760206001600160a01b0360065416604051908152f35b90503462000343576020366003190112620003435762001a9d62001b22565b6001600160a01b03918260085416330362001ae05750167fffffffffffffffffffffffff0000000000000000000000000000000000000000600654161760065580f35b8062461bcd60e51b6064925260206004820152601760248201527f43616c6c6572206973206e6f7420746865206f776e65720000000000000000006044820152fd5b600435906001600160a01b0382168203620006d457565b602435906001600160a01b0382168203620006d457565b604435906001600160a01b0382168203620006d457565b9181601f84011215620006d45782359167ffffffffffffffff8311620006d45760208381860195010111620006d457565b90600091825481101562001bcf578280527f290decd9548b62a8d60345a988386fc84ba6bc95484008f6362f93160ef3e563019190565b602483634e487b7160e01b81526032600452fd5b919082519283825260005b84811062001c10575050826000602080949584010152601f8019910116010190565b60208183018101518483018201520162001bee565b908060209392818452848401376000828201840152601f01601f1916010190565b67ffffffffffffffff8111620006ed57604052565b6080810190811067ffffffffffffffff821117620006ed57604052565b90601f8019910116810190811067ffffffffffffffff821117620006ed57604052565b51906001600160a01b0382168203620006d457565b51906001600160801b0382168203620006d457565b600060443d1062001d2957604051600319913d83016004833e815167ffffffffffffffff918282113d60248401111762001d2c5781840194855193841162001d34573d8501016020848701011162001d2c575062001d299291016020019062001c78565b90565b949350505050565b50949350505050565b3d1562001d7c573d9067ffffffffffffffff8211620006ed576040519162001d70601f8201601f19166020018462001c78565b82523d6000602084013e565b606090565b8181029291811591840414171562001d9557565b634e487b7160e01b600052601160045260246000fd5b811562001db6570490565b634e487b7160e01b600052601260045260246000fd5b9190826040910312620006d4576020825192015190565b67ffffffffffffffff8111620006ed5760051b60200190565b805182101562001e115760209160051b010190565b634e487b7160e01b600052603260045260246000fd5b90816020910312620006d457518015158103620006d45790565b51908160020b8203620006d457565b60405163095ea7b360e01b602082019081526001600160a01b03939093166024820152604480820194909452928352600092839290839062001e9460648262001c78565b51925af162001ea262001d3d565b8162001ef6575b501562001eb257565b606460405162461bcd60e51b815260206004820152600260248201527f53410000000000000000000000000000000000000000000000000000000000006044820152fd5b805180159250821562001f0d575b50503862001ea9565b62001f22925060208091830101910162001e27565b388062001f0456fe60406080815234620003bb5762000b5a803803806200001e81620003c0565b9283398101606082820312620003bb5781516001600160401b039290838111620003bb578262000050918301620003e6565b60209283830151858111620003bb5786916200006e918501620003e6565b920151938151818111620002bb576003908154906001948583811c93168015620003b0575b888410146200039a578190601f9384811162000344575b508890848311600114620002dd57600092620002d1575b505060001982851b1c191690851b1782555b8451928311620002bb5760049485548581811c91168015620002b0575b888210146200029b5782811162000250575b5086918411600114620001e557938394918492600095620001d9575b50501b92600019911b1c19161781555b670de0b6b3a764000092838102938185041490151715620001ad573315620001c25760025490838201809211620001ad57506000917fddf252ad1be2c89b69c2b068fc378daa952ba7f163c4a11628f55a4df523b3ef9160025533835282815284832084815401905584519384523393a3516107019081620004598239f35b601190634e487b7160e01b6000525260246000fd5b602490600085519163ec442f0560e01b8352820152fd5b0151935038806200011e565b9190601f198416928660005284886000209460005b8a898383106200023857505050106200021d575b50505050811b0181556200012e565b01519060f884600019921b161c19169055388080806200020e565b868601518955909701969485019488935001620001fa565b86600052876000208380870160051c8201928a881062000291575b0160051c019086905b8281106200028457505062000102565b6000815501869062000274565b925081926200026b565b602287634e487b7160e01b6000525260246000fd5b90607f1690620000f0565b634e487b7160e01b600052604160045260246000fd5b015190503880620000c1565b90879350601f19831691866000528a6000209260005b8c8282106200032d575050841162000314575b505050811b018255620000d3565b015160001983871b60f8161c1916905538808062000306565b8385015186558b97909501949384019301620002f3565b90915084600052886000208480850160051c8201928b861062000390575b918991869594930160051c01915b82811062000380575050620000aa565b6000815585945089910162000370565b9250819262000362565b634e487b7160e01b600052602260045260246000fd5b92607f169262000093565b600080fd5b6040519190601f01601f191682016001600160401b03811183821017620002bb57604052565b919080601f84011215620003bb5782516001600160401b038111620002bb576020906200041c601f8201601f19168301620003c0565b92818452828287010111620003bb5760005b8181106200044457508260009394955001015290565b85810183015184820184015282016200042e56fe608060408181526004918236101561001657600080fd5b600092833560e01c91826306fdde031461045057508163095ea7b3146103a457816318160ddd1461038557816323b872dd14610276578163313ce5671461025a57816370a082311461022457816395d89b411461010357508063a9059cbb146100d35763dd62ed3e1461008857600080fd5b346100cf57806003193601126100cf57806020926100a4610573565b6100ac61058e565b6001600160a01b0391821683526001865283832091168252845220549051908152f35b5080fd5b50346100cf57806003193601126100cf576020906100fc6100f2610573565b60243590336105a4565b5160018152f35b8383346100cf57816003193601126100cf5780519082845460018160011c906001831692831561021a575b6020938484108114610207578388529081156101eb5750600114610196575b505050829003601f01601f191682019267ffffffffffffffff841183851017610183575082918261017f92528261052a565b0390f35b80604186634e487b7160e01b6024945252fd5b8787529192508591837f8a35acfbc15ff81a39ae7d344fd709f28e8600b4aa8c65c6b64bfe7fe36bd19b5b8385106101d7575050505083010185808061014d565b8054888601830152930192849082016101c1565b60ff1916878501525050151560051b840101905085808061014d565b60248960228c634e487b7160e01b835252fd5b91607f169161012e565b5050346100cf5760203660031901126100cf57806020926001600160a01b0361024b610573565b16815280845220549051908152f35b5050346100cf57816003193601126100cf576020905160128152f35b9050823461038257606036600319011261038257610292610573565b61029a61058e565b91604435936001600160a01b0383168083526001602052868320338452602052868320549160001983036102d7575b6020886100fc8989896105a4565b86831061033d578115610327573315610311575082526001602090815286832033845281529186902090859003905582906100fc876102c9565b60249084895191634a1406b160e11b8352820152fd5b6024908489519163e602df0560e01b8352820152fd5b87517ffb8f41b2000000000000000000000000000000000000000000000000000000008152339181019182526020820193909352604081018790528291506060010390fd5b80fd5b5050346100cf57816003193601126100cf576020906002549051908152f35b90503461044c578160031936011261044c576103be610573565b602435903315610436576001600160a01b031691821561042057508083602095338152600187528181208582528752205582519081527f8c5be1e5ebec7d5bd14f71427d1e84f3dd0314c0f7b2291e5b200ac8c7c3b925843392a35160018152f35b60249085855191634a1406b160e11b8352820152fd5b6024838686519163e602df0560e01b8352820152fd5b8280fd5b8490843461044c578260031936011261044c578260035460018160011c9060018316928315610520575b6020938484108114610207578388529081156101eb57506001146104ca57505050829003601f01601f191682019267ffffffffffffffff841183851017610183575082918261017f92528261052a565b600387529192508591837fc2575a0e9e593c00f959f8c92f12db2869c3395a3b0502d05e2516446f71f85b5b83851061050c575050505083010185808061014d565b8054888601830152930192849082016104f6565b91607f169161047a565b6020808252825181830181905290939260005b82811061055f57505060409293506000838284010152601f8019910116010190565b81810186015184820160400152850161053d565b600435906001600160a01b038216820361058957565b600080fd5b602435906001600160a01b038216820361058957565b916001600160a01b0380841692831561069a5716928315610669576000908382528160205260408220549083821061061e575091604082827fddf252ad1be2c89b69c2b068fc378daa952ba7f163c4a11628f55a4df523b3ef958760209652828652038282205586815220818154019055604051908152a3565b6040517fe450d38c0000000000000000000000000000000000000000000000000000000081526001600160a01b03919091166004820152602481019190915260448101839052606490fd5b60246040517fec442f0500000000000000000000000000000000000000000000000000000000815260006004820152fd5b60246040517f96c6fd1e00000000000000000000000000000000000000000000000000000000815260006004820152fdfea2646970667358221220553bb7fac4df7f9f49f0200e94a540f17df0a2c29cbd34a8c6a387e77983dfbb64736f6c63430008180033a2646970667358221220083a60c3373d4569026daa62e5aa2b565773448c25437c8704a0afc0c940a49864736f6c63430008180033",
  "linkReferences": {},
  "deployedLinkReferences": {}
}