{
  "_format": "hh-sol-artifact-1",
  "contractName": "MyFactory",
  "sourceName": "contracts/TestFactory.sol",
  "abi": [
    {
      "inputs": [
        {
          "internalType": "address",
          "name": "_positionManager",
          "type": "address"
        },
        {
          "internalType": "address",
          "name": "_weth",
          "type": "address"
        },
        {
          "internalType": "address",
          "name": "_uniswapFactory",
          "type": "address"
        },
        {
          "internalType": "address",
          "name": "_swapRouter",
          "type": "address"
        }
      ],
      "stateMutability": "nonpayable",
      "type": "constructor"
    },
    {
      "anonymous": false,
      "inputs": [
        {
          "indexed": true,
          "internalType": "address",
          "name": "token",
          "type": "address"
        },
        {
          "indexed": false,
          "internalType": "uint256",
          "name": "amount0",
          "type": "uint256"
        },
        {
          "indexed": false,
          "internalType": "uint256",
          "name": "amount1",
          "type": "uint256"
        }
      ],
      "name": "FeesCollected",
      "type": "event"
    },
    {
      "anonymous": false,
      "inputs": [
        {
          "indexed": true,
          "internalType": "address",
          "name": "token",
          "type": "address"
        },
        {
          "indexed": true,
          "internalType": "address",
          "name": "pool",
          "type": "address"
        },
        {
          "indexed": false,
          "internalType": "uint256",
          "name": "tokenAmount",
          "type": "uint256"
        },
        {
          "indexed": false,
          "internalType": "uint256",
          "name": "wethAmount",
          "type": "uint256"
        }
      ],
      "name": "LiquidityAdded",
      "type": "event"
    },
    {
      "anonymous": false,
      "inputs": [
        {
          "indexed": true,
          "internalType": "address",
          "name": "token",
          "type": "address"
        },
        {
          "indexed": true,
          "internalType": "address",
          "name": "pool",
          "type": "address"
        },
        {
          "indexed": false,
          "internalType": "uint256",
          "name": "tokenAmount",
          "type": "uint256"
        },
        {
          "indexed": false,
          "internalType": "uint256",
          "name": "wethAmount",
          "type": "uint256"
        },
        {
          "indexed": false,
          "internalType": "string",
          "name": "error",
          "type": "string"
        }
      ],
      "name": "LiquidityAdditionFailed",
      "type": "event"
    },
    {
      "anonymous": false,
      "inputs": [
        {
          "indexed": true,
          "internalType": "address",
          "name": "token",
          "type": "address"
        },
        {
          "indexed": false,
          "internalType": "uint256",
          "name": "tokenId",
          "type": "uint256"
        },
        {
          "indexed": false,
          "internalType": "uint256",
          "name": "amount0",
          "type": "uint256"
        },
        {
          "indexed": false,
          "internalType": "uint256",
          "name": "amount1",
          "type": "uint256"
        }
      ],
      "name": "LiquidityRemoved",
      "type": "event"
    },
    {
      "anonymous": false,
      "inputs": [
        {
          "indexed": true,
          "internalType": "address",
          "name": "token0",
          "type": "address"
        },
        {
          "indexed": true,
          "internalType": "address",
          "name": "poolAddress",
          "type": "address"
        }
      ],
      "name": "PoolCreated",
      "type": "event"
    },
    {
      "anonymous": false,
      "inputs": [
        {
          "indexed": true,
          "internalType": "address",
          "name": "poolAddress",
          "type": "address"
        },
        {
          "indexed": false,
          "internalType": "uint160",
          "name": "sqrtPriceX96",
          "type": "uint160"
        }
      ],
      "name": "PoolInitialized",
      "type": "event"
    },
    {
      "anonymous": false,
      "inputs": [
        {
          "indexed": true,
          "internalType": "address",
          "name": "token",
          "type": "address"
        },
        {
          "indexed": false,
          "internalType": "uint256",
          "name": "amountIn",
          "type": "uint256"
        },
        {
          "indexed": false,
          "internalType": "uint256",
          "name": "amountOut",
          "type": "uint256"
        }
      ],
      "name": "SwappedToWETH",
      "type": "event"
    },
    {
      "anonymous": false,
      "inputs": [
        {
          "indexed": true,
          "internalType": "address",
          "name": "tokenAddress",
          "type": "address"
        },
        {
          "indexed": true,
          "internalType": "address",
          "name": "poolAddress",
          "type": "address"
        }
      ],
      "name": "TokenApproved",
      "type": "event"
    },
    {
      "anonymous": false,
      "inputs": [
        {
          "indexed": true,
          "internalType": "address",
          "name": "tokenAddress",
          "type": "address"
        }
      ],
      "name": "TokenDeployed",
      "type": "event"
    },
    {
      "stateMutability": "payable",
      "type": "fallback"
    },
    {
      "inputs": [
        {
          "internalType": "address",
          "name": "_token0",
          "type": "address"
        },
        {
          "internalType": "address",
          "name": "_token1",
          "type": "address"
        },
        {
          "internalType": "address",
          "name": "factory_addy",
          "type": "address"
        },
        {
          "internalType": "uint256",
          "name": "_token0Amount",
          "type": "uint256"
        },
        {
          "internalType": "uint256",
          "name": "_token1Amount",
          "type": "uint256"
        }
      ],
      "name": "addInitialLiquidity",
      "outputs": [],
      "stateMutability": "nonpayable",
      "type": "function"
    },
    {
      "inputs": [
        {
          "internalType": "address",
          "name": "token",
          "type": "address"
        },
        {
          "internalType": "address",
          "name": "spender",
          "type": "address"
        },
        {
          "internalType": "uint256",
          "name": "amount",
          "type": "uint256"
        }
      ],
      "name": "approveToken",
      "outputs": [],
      "stateMutability": "nonpayable",
      "type": "function"
    },
    {
      "inputs": [
        {
          "internalType": "uint256",
          "name": "tokenId",
          "type": "uint256"
        }
      ],
      "name": "collectFeesAndSwap",
      "outputs": [],
      "stateMutability": "nonpayable",
      "type": "function"
    },
    {
      "inputs": [
        {
          "internalType": "address",
          "name": "_token0",
          "type": "address"
        },
        {
          "internalType": "address",
          "name": "_token1",
          "type": "address"
        }
      ],
      "name": "createPoolForToken",
      "outputs": [
        {
          "internalType": "address",
          "name": "poolAddress",
          "type": "address"
        }
      ],
      "stateMutability": "nonpayable",
      "type": "function"
    },
    {
      "inputs": [
        {
          "internalType": "string",
          "name": "_name",
          "type": "string"
        },
        {
          "internalType": "string",
          "name": "_symbol",
          "type": "string"
        },
        {
          "internalType": "uint256",
          "name": "_supply",
          "type": "uint256"
        }
      ],
      "name": "deployToken",
      "outputs": [
        {
          "internalType": "address",
          "name": "",
          "type": "address"
        }
      ],
      "stateMutability": "nonpayable",
      "type": "function"
    },
    {
      "inputs": [
        {
          "internalType": "uint256",
          "name": "tokenId",
          "type": "uint256"
        }
      ],
      "name": "getPosition",
      "outputs": [
        {
          "internalType": "uint96",
          "name": "nonce",
          "type": "uint96"
        },
        {
          "internalType": "address",
          "name": "operator",
          "type": "address"
        },
        {
          "internalType": "address",
          "name": "token0",
          "type": "address"
        },
        {
          "internalType": "address",
          "name": "token1",
          "type": "address"
        },
        {
          "internalType": "uint24",
          "name": "fee",
          "type": "uint24"
        },
        {
          "internalType": "int24",
          "name": "tickLower",
          "type": "int24"
        },
        {
          "internalType": "int24",
          "name": "tickUpper",
          "type": "int24"
        },
        {
          "internalType": "uint128",
          "name": "liquidity",
          "type": "uint128"
        },
        {
          "internalType": "uint256",
          "name": "feeGrowthInside0LastX128",
          "type": "uint256"
        },
        {
          "internalType": "uint256",
          "name": "feeGrowthInside1LastX128",
          "type": "uint256"
        },
        {
          "internalType": "uint128",
          "name": "tokensOwed0",
          "type": "uint128"
        },
        {
          "internalType": "uint128",
          "name": "tokensOwed1",
          "type": "uint128"
        }
      ],
      "stateMutability": "view",
      "type": "function"
    },
    {
      "inputs": [
        {
          "internalType": "address",
          "name": "tokenA",
          "type": "address"
        },
        {
          "internalType": "address",
          "name": "tokenB",
          "type": "address"
        },
        {
          "internalType": "uint24",
          "name": "fee",
          "type": "uint24"
        }
      ],
      "name": "get_Pool",
      "outputs": [
        {
          "internalType": "address",
          "name": "pool",
          "type": "address"
        }
      ],
      "stateMutability": "view",
      "type": "function"
    },
    {
      "inputs": [
        {
          "internalType": "address",
          "name": "poolAddress",
          "type": "address"
        },
        {
          "internalType": "uint160",
          "name": "sqrtPriceX96",
          "type": "uint160"
        }
      ],
      "name": "initializePool",
      "outputs": [],
      "stateMutability": "nonpayable",
      "type": "function"
    },
    {
      "inputs": [],
      "name": "positionManager",
      "outputs": [
        {
          "internalType": "contract INonfungiblePositionManager",
          "name": "",
          "type": "address"
        }
      ],
      "stateMutability": "view",
      "type": "function"
    },
    {
      "inputs": [
        {
          "internalType": "uint256",
          "name": "tokenId",
          "type": "uint256"
        },
        {
          "internalType": "uint128",
          "name": "liquidityToRemove",
          "type": "uint128"
        }
      ],
      "name": "removeLiquidity",
      "outputs": [],
      "stateMutability": "nonpayable",
      "type": "function"
    },
    {
      "inputs": [
        {
          "internalType": "address",
          "name": "tokenOut",
          "type": "address"
        },
        {
          "internalType": "uint256",
          "name": "amount_In",
          "type": "uint256"
        }
      ],
      "name": "swapETHForToken",
      "outputs": [
        {
          "internalType": "uint256",
          "name": "amountOut",
          "type": "uint256"
        }
      ],
      "stateMutability": "payable",
      "type": "function"
    },
    {
      "inputs": [],
      "name": "swapRouter",
      "outputs": [
        {
          "internalType": "contract ISwapRouter",
          "name": "",
          "type": "address"
        }
      ],
      "stateMutability": "view",
      "type": "function"
    },
    {
      "inputs": [],
      "name": "tokenCount",
      "outputs": [
        {
          "internalType": "uint256",
          "name": "",
          "type": "uint256"
        }
      ],
      "stateMutability": "view",
      "type": "function"
    },
    {
      "inputs": [
        {
          "internalType": "uint256",
          "name": "",
          "type": "uint256"
        }
      ],
      "name": "tokens",
      "outputs": [
        {
          "internalType": "address",
          "name": "",
          "type": "address"
        }
      ],
      "stateMutability": "view",
      "type": "function"
    },
    {
      "inputs": [],
      "name": "uniswapFactory",
      "outputs": [
        {
          "internalType": "contract IUniswapV3Factory",
          "name": "",
          "type": "address"
        }
      ],
      "stateMutability": "view",
      "type": "function"
    },
    {
      "inputs": [],
      "name": "weth",
      "outputs": [
        {
          "internalType": "address",
          "name": "",
          "type": "address"
        }
      ],
      "stateMutability": "view",
      "type": "function"
    },
    {
      "stateMutability": "payable",
      "type": "receive"
    }
  ],
  "bytecode": "0x608034620000c657601f620022ed38819003918201601f19168301916001600160401b03831184841017620000cb57808492608094604052833981010312620000c6576200004d81620000e1565b906200005c60208201620000e1565b6200007860606200007060408501620000e1565b9301620000e1565b9060018060a01b03928380928160018060a01b031997168760025416176002551685600354161760035516836004541617600455169060055416176005556040516121f69081620000f78239f35b600080fd5b634e487b7160e01b600052604160045260246000fd5b51906001600160a01b0382168203620000c65756fe60808060405260043610156200001c575b5036156200001a57005b005b600090813560e01c9081633a93babb14620011d2575080633fc8cef314620011a95780634f64b2be146200116257806353ebea771462000fbf57806354c51e891462000e965780635bc30eb01462000a845780636e9551d714620009a9578063791b98bc14620009805780638bdb2afa1462000957578063911757ba14620007175780639f181b5e14620006f7578063c31c9c0714620006ce578063d196e9c614620004d8578063d21b6ed41462000409578063da3e339714620003035763eb02c30103620000105734620002e5576020366003190112620002e5576001600160a01b03600254169060405180927f99fbab8800000000000000000000000000000000000000000000000000000000825260043560048301528160246101809586935afa8015620002f8578280928180818290839284968599868098819b620001f1575b50506040519b6bffffffffffffffffffffffff168c526001600160a01b031660208c01526001600160a01b031660408b01526001600160a01b031660608a015262ffffff16608089015260020b60a088015260020b60c08701526fffffffffffffffffffffffffffffffff948580941660e08801526101008701526101208601521661014084015216610160820152f35b9b509b50505050505050505050508281813d8311620002f0575b6200021781836200143a565b81010312620002ec5780516bffffffffffffffffffffffff81168103620002e85762000246602083016200145d565b9262000255604084016200145d565b9162000264606085016200145d565b9360808101519262ffffff84168403620002e557506200028760a082016200157d565b6200029560c083016200157d565b620002a360e0840162001489565b916101008401519561012085015198620002d0610160620002c8610140890162001489565b970162001489565b969a9890919293949799959698388062000160565b80fd5b8280fd5b5080fd5b503d6200020b565b6040513d84823e3d90fd5b5034620002e5576060366003190112620002e5576001600160a01b036020620003706200032f620013b9565b62000339620013d0565b8560405195868095819463095ea7b360e01b83526044359060048401602090939291936001600160a01b0360408201951681520152565b0393165af1908115620002f8578291620003d3575b50156200038f5780f35b606460405162461bcd60e51b815260206004820152600f60248201527f417070726f76616c206661696c656400000000000000000000000000000000006044820152fd5b620003fa915060203d60201162000401575b620003f181836200143a565b81019062001563565b3862000385565b503d620003e5565b5034620002e5576040366003190112620002e55762000427620013b9565b602435906001600160a01b0390818316809303620004d4571690813b15620002e857826040517ff637731d000000000000000000000000000000000000000000000000000000008152826004820152818160248183885af18015620002f857620004bc575b505060207f30440fb2e4ce813a3feb1a945fc1c8190ba344a38f64cb33348155d72ab138b291604051908152a280f35b620004c79062001425565b620002e85782386200048c565b8380fd5b506040366003190112620002e557620004f0620013b9565b90602435916001600160a01b03928360035416803b15620004d4578382916004604051809481937fd0e30db00000000000000000000000000000000000000000000000000000000083525af18015620006c357620006ad575b50620005608185600354168660055416906200158c565b8360035416916040519061010082019382851067ffffffffffffffff861117620006975786946040528252602095869381858501931683526040840190612710825260608501903382526080860142815260a087019182528460c08801938b855260e08901958c8752828060055416996040519d8e9c7f414bf389000000000000000000000000000000000000000000000000000000008e52511660048d0152511660248b01525162ffffff1660448a0152511660648801525160848701525160a48601525160c4850152511660e483015281855a9261010493f19182156200068b57809262000655575b5050604051908152f35b9091508282813d831162000683575b6200067081836200143a565b81010312620002e557505138806200064b565b503d62000664565b604051903d90823e3d90fd5b634e487b7160e01b600052604160045260246000fd5b620006bb9093919362001425565b913862000549565b6040513d86823e3d90fd5b5034620002e55780600319360112620002e55760206001600160a01b0360055416604051908152f35b5034620002e55780600319360112620002e5576020600154604051908152f35b5034620002e5576040366003190112620002e5576004356024356fffffffffffffffffffffffffffffffff90818116809103620004d4576001600160a01b039081600254166040519060a0820182811067ffffffffffffffff82111762000943579260a4869594938960409481999686528a83526020830194855285830182815260608401838152608085019142835288519b8c9889977f0c49ccbe000000000000000000000000000000000000000000000000000000008952516004890152511660248701525160448601525160648501525160848401525af1918215620006c3576040936200088e9362000922575b5060025416908351906200081c8262001408565b86825230602083015280858301526060820152835194858094819363fc6f786560e01b83526004830191909160606080820193805183526001600160a01b036020820151166020840152816040820151916fffffffffffffffffffffffffffffffff8093166040860152015116910152565b03925af1908115620009175783908492620008de575b50604051928352602083015260408201527f1dc8bb69df2b8e91fbdcbfcf93d951b3f0000f085a95fe3f7946d6161439245d60603392a280f35b905062000907915060403d6040116200090f575b620008fe81836200143a565b81019062001472565b9038620008a4565b503d620008f2565b6040513d85823e3d90fd5b6200093c90853d87116200090f57620008fe81836200143a565b5062000808565b602488634e487b7160e01b81526041600452fd5b5034620002e55780600319360112620002e55760206001600160a01b0360045416604051908152f35b5034620002e55780600319360112620002e55760206001600160a01b0360025416604051908152f35b5034620002e5576060366003190112620002e557620009c7620013b9565b90620009d2620013d0565b9160443562ffffff8116809103620002e85760209060646001600160a01b0393849283600454169084604051998a968795630b4c774160e11b875216600486015216602484015260448301525afa9182156200068b57809262000a3d575b6020838360405191168152f35b9091506020833d60201162000a7b575b8162000a5c602093836200143a565b81010312620002e5575062000a736020926200145d565b903862000a30565b3d915062000a4d565b5034620002e55760a0366003190112620002e55762000aa2620013b9565b62000aac620013d0565b604435906001600160a01b0382168203620004d45762000adb6064356001600160a01b0360025416856200158c565b62000af56084356001600160a01b0360025416836200158c565b6001600160a01b03600254169161012c4201421162000e825760405191610160830183811067ffffffffffffffff82111762000e6e57926001600160a01b03610140938161016494608097604052818a1685521660208401526127106040840152620d899f196060840152620d89a08684015260643560a084015260843560c08401528860e0840152886101008401521661012082015261012c4201838201528660405195869485937f883164560000000000000000000000000000000000000000000000000000000085526001600160a01b0381511660048601526001600160a01b03602082015116602486015262ffffff6040820151166044860152606081015160020b60648601528781015160020b608486015260a081015160a486015260c081015160c486015260e081015160e48601526101008101516101048601526001600160a01b036101208201511661012486015201516101448401525af1908162000e2a575b5062000ddc5760018260033d1162000dcb575b6308c379a01462000d13575b62000c85575080f35b62000c8f6200151f565b506001600160a01b0360025416907fc81aebb20d4ec9089cfa8e56a148aed217ed952594ba4084e64a3e2736d9450660a06001600160a01b03604051936064358552608435602086015260606040860152600f60608601527f4c6f772d6c6576656c206572726f72000000000000000000000000000000000060808601521692a380f35b62000d1d620014a7565b8062000d2b575b5062000c7c565b905082906001600160a01b0360025416906040516064358152608435602082015260606040820152815191826060830152865b83811062000db457505080866080847fc81aebb20d4ec9089cfa8e56a148aed217ed952594ba4084e64a3e2736d94506940101526080816001600160a01b03881694601f80199101168101030190a33862000d24565b806020809284010151608082860101520162000d5e565b50600483803e825160e01c62000c70565b6001600160a01b0360025416907f36f3b2e1a21c19137dd82ec243b0708a1d26b3d1fa1dc49c44c4c366a587813860406001600160a01b03815193606435855260843560208601521692a380f35b6080813d60801162000e65575b8162000e46608093836200143a565b81010312620004d457602062000e5d910162001489565b503862000c5d565b3d915062000e37565b602487634e487b7160e01b81526041600452fd5b602485634e487b7160e01b81526011600452fd5b5034620002e5576020366003190112620002e55780604062000f4f6001600160a01b0360025416825162000eca8162001408565b60043581523060208201526fffffffffffffffffffffffffffffffff80858301526060820152835194858094819363fc6f786560e01b83526004830191909160606080820193805183526001600160a01b036020820151166020840152816040820151916fffffffffffffffffffffffffffffffff8093166040860152015116910152565b03925af18015620002f8578291839162000f99575b5060405191825260208201527f2e4fb6077d4acf86e12bb7411fb82b2b3eaa6a49787f4b1e17b423e7ea84116960403092a280f35b905062000fb8915060403d6040116200090f57620008fe81836200143a565b3862000f64565b5034620002e5576040366003190112620002e55762000fdd620013b9565b62000fe7620013d0565b916001600160a01b0390816004541690828060405195630b4c774160e11b8752169586600487015216948560248601526127108060448701526020968787606481885afa968715620006c35790889291859862001120575b508688161562001056575b82888860405191168152f35b8460649293949596985060405198899485937fa1671295000000000000000000000000000000000000000000000000000000008552886004860152602485015260448401525af1938415620002f8578294620010e1575b507f4f2ce4e40f623ca765fc0167a25cb7842ceaafb8d82d3dec26ca0d0e0d2d48968385169280a33880808581806200104a565b9093508481813d831162001118575b620010fc81836200143a565b81010312620002ec5762001110906200145d565b9238620010ad565b503d620010f0565b838193949299503d83116200115a575b6200113c81836200143a565b81010312620004d457906200115288926200145d565b96386200103f565b503d62001130565b5034620002e5576020366003190112620002e557600435908054821015620002e55760206001600160a01b0362001199846200136e565b9190546040519260031b1c168152f35b5034620002e55780600319360112620002e55760206001600160a01b0360035416604051908152f35b905034620002ec576060366003190112620002ec5767ffffffffffffffff600435818111620004d4576200120b90369060040162001338565b9060243583811162001334576200122790369060040162001338565b919092610b5a80870195878710908711176200094357869594926200127094926200126192620016678939606087526060870191620013e7565b918483036020860152620013e7565b906040604435910152039082f09081156200068b576001600160a01b03809216918154680100000000000000008110156200132057806001620012b6920184556200136e565b819291549060031b9185831b921b19161790556001549160001983146200130c57600160209301600155807f91d24864a084ab70b268a1f865e757ca12006cf298d763b6be697302ef86498c6040519380a28152f35b602482634e487b7160e01b81526011600452fd5b602483634e487b7160e01b81526041600452fd5b8580fd5b9181601f84011215620013695782359167ffffffffffffffff83116200136957602083818601950101116200136957565b600080fd5b906000918254811015620013a5578280527f290decd9548b62a8d60345a988386fc84ba6bc95484008f6362f93160ef3e563019190565b602483634e487b7160e01b81526032600452fd5b600435906001600160a01b03821682036200136957565b602435906001600160a01b03821682036200136957565b908060209392818452848401376000828201840152601f01601f1916010190565b6080810190811067ffffffffffffffff8211176200069757604052565b67ffffffffffffffff81116200069757604052565b90601f8019910116810190811067ffffffffffffffff8211176200069757604052565b51906001600160a01b03821682036200136957565b919082604091031262001369576020825192015190565b51906fffffffffffffffffffffffffffffffff821682036200136957565b600060443d106200150b57604051600319913d83016004833e815167ffffffffffffffff918282113d6024840111176200150e5781840194855193841162001516573d850101602084870101116200150e57506200150b929101602001906200143a565b90565b949350505050565b50949350505050565b3d156200155e573d9067ffffffffffffffff821162000697576040519162001552601f8201601f1916602001846200143a565b82523d6000602084013e565b606090565b908160209103126200136957518015158103620013695790565b51908160020b82036200136957565b60405163095ea7b360e01b602082019081526001600160a01b039390931660248201526044808201949094529283526000928392908390620015d06064826200143a565b51925af1620015de6200151f565b8162001632575b5015620015ee57565b606460405162461bcd60e51b815260206004820152600260248201527f53410000000000000000000000000000000000000000000000000000000000006044820152fd5b805180159250821562001649575b505038620015e5565b6200165e925060208091830101910162001563565b38806200164056fe60406080815234620003bb5762000b5a803803806200001e81620003c0565b9283398101606082820312620003bb5781516001600160401b039290838111620003bb578262000050918301620003e6565b60209283830151858111620003bb5786916200006e918501620003e6565b920151938151818111620002bb576003908154906001948583811c93168015620003b0575b888410146200039a578190601f9384811162000344575b508890848311600114620002dd57600092620002d1575b505060001982851b1c191690851b1782555b8451928311620002bb5760049485548581811c91168015620002b0575b888210146200029b5782811162000250575b5086918411600114620001e557938394918492600095620001d9575b50501b92600019911b1c19161781555b670de0b6b3a764000092838102938185041490151715620001ad573315620001c25760025490838201809211620001ad57506000917fddf252ad1be2c89b69c2b068fc378daa952ba7f163c4a11628f55a4df523b3ef9160025533835282815284832084815401905584519384523393a3516107019081620004598239f35b601190634e487b7160e01b6000525260246000fd5b602490600085519163ec442f0560e01b8352820152fd5b0151935038806200011e565b9190601f198416928660005284886000209460005b8a898383106200023857505050106200021d575b50505050811b0181556200012e565b01519060f884600019921b161c19169055388080806200020e565b868601518955909701969485019488935001620001fa565b86600052876000208380870160051c8201928a881062000291575b0160051c019086905b8281106200028457505062000102565b6000815501869062000274565b925081926200026b565b602287634e487b7160e01b6000525260246000fd5b90607f1690620000f0565b634e487b7160e01b600052604160045260246000fd5b015190503880620000c1565b90879350601f19831691866000528a6000209260005b8c8282106200032d575050841162000314575b505050811b018255620000d3565b015160001983871b60f8161c1916905538808062000306565b8385015186558b97909501949384019301620002f3565b90915084600052886000208480850160051c8201928b861062000390575b918991869594930160051c01915b82811062000380575050620000aa565b6000815585945089910162000370565b9250819262000362565b634e487b7160e01b600052602260045260246000fd5b92607f169262000093565b600080fd5b6040519190601f01601f191682016001600160401b03811183821017620002bb57604052565b919080601f84011215620003bb5782516001600160401b038111620002bb576020906200041c601f8201601f19168301620003c0565b92818452828287010111620003bb5760005b8181106200044457508260009394955001015290565b85810183015184820184015282016200042e56fe608060408181526004918236101561001657600080fd5b600092833560e01c91826306fdde031461045057508163095ea7b3146103a457816318160ddd1461038557816323b872dd14610276578163313ce5671461025a57816370a082311461022457816395d89b411461010357508063a9059cbb146100d35763dd62ed3e1461008857600080fd5b346100cf57806003193601126100cf57806020926100a4610573565b6100ac61058e565b6001600160a01b0391821683526001865283832091168252845220549051908152f35b5080fd5b50346100cf57806003193601126100cf576020906100fc6100f2610573565b60243590336105a4565b5160018152f35b8383346100cf57816003193601126100cf5780519082845460018160011c906001831692831561021a575b6020938484108114610207578388529081156101eb5750600114610196575b505050829003601f01601f191682019267ffffffffffffffff841183851017610183575082918261017f92528261052a565b0390f35b80604186634e487b7160e01b6024945252fd5b8787529192508591837f8a35acfbc15ff81a39ae7d344fd709f28e8600b4aa8c65c6b64bfe7fe36bd19b5b8385106101d7575050505083010185808061014d565b8054888601830152930192849082016101c1565b60ff1916878501525050151560051b840101905085808061014d565b60248960228c634e487b7160e01b835252fd5b91607f169161012e565b5050346100cf5760203660031901126100cf57806020926001600160a01b0361024b610573565b16815280845220549051908152f35b5050346100cf57816003193601126100cf576020905160128152f35b9050823461038257606036600319011261038257610292610573565b61029a61058e565b91604435936001600160a01b0383168083526001602052868320338452602052868320549160001983036102d7575b6020886100fc8989896105a4565b86831061033d578115610327573315610311575082526001602090815286832033845281529186902090859003905582906100fc876102c9565b60249084895191634a1406b160e11b8352820152fd5b6024908489519163e602df0560e01b8352820152fd5b87517ffb8f41b2000000000000000000000000000000000000000000000000000000008152339181019182526020820193909352604081018790528291506060010390fd5b80fd5b5050346100cf57816003193601126100cf576020906002549051908152f35b90503461044c578160031936011261044c576103be610573565b602435903315610436576001600160a01b031691821561042057508083602095338152600187528181208582528752205582519081527f8c5be1e5ebec7d5bd14f71427d1e84f3dd0314c0f7b2291e5b200ac8c7c3b925843392a35160018152f35b60249085855191634a1406b160e11b8352820152fd5b6024838686519163e602df0560e01b8352820152fd5b8280fd5b8490843461044c578260031936011261044c578260035460018160011c9060018316928315610520575b6020938484108114610207578388529081156101eb57506001146104ca57505050829003601f01601f191682019267ffffffffffffffff841183851017610183575082918261017f92528261052a565b600387529192508591837fc2575a0e9e593c00f959f8c92f12db2869c3395a3b0502d05e2516446f71f85b5b83851061050c575050505083010185808061014d565b8054888601830152930192849082016104f6565b91607f169161047a565b6020808252825181830181905290939260005b82811061055f57505060409293506000838284010152601f8019910116010190565b81810186015184820160400152850161053d565b600435906001600160a01b038216820361058957565b600080fd5b602435906001600160a01b038216820361058957565b916001600160a01b0380841692831561069a5716928315610669576000908382528160205260408220549083821061061e575091604082827fddf252ad1be2c89b69c2b068fc378daa952ba7f163c4a11628f55a4df523b3ef958760209652828652038282205586815220818154019055604051908152a3565b6040517fe450d38c0000000000000000000000000000000000000000000000000000000081526001600160a01b03919091166004820152602481019190915260448101839052606490fd5b60246040517fec442f0500000000000000000000000000000000000000000000000000000000815260006004820152fd5b60246040517f96c6fd1e00000000000000000000000000000000000000000000000000000000815260006004820152fdfea264697066735822122073d9174dc2cd478ad93a7069ddab0ea8623ec20aa6df1dd19fa3ebf5ff5d3e3364736f6c63430008180033a2646970667358221220d36e8f929c903b663aad7ad2d33f866d12f3ccff68a2fcb2cda964b1edc254ca64736f6c63430008180033",
  "linkReferences": {},
  "deployedLinkReferences": {}
}