{
  "_format": "hh-sol-artifact-1",
  "contractName": "MyFactory",
  "sourceName": "contracts/TestFactory.sol",
  "abi": [
    {
      "inputs": [
        {
          "internalType": "address",
          "name": "_positionManager",
          "type": "address"
        },
        {
          "internalType": "address",
          "name": "_weth",
          "type": "address"
        },
        {
          "internalType": "address",
          "name": "_uniswapFactory",
          "type": "address"
        },
        {
          "internalType": "address",
          "name": "_swapRouter",
          "type": "address"
        }
      ],
      "stateMutability": "nonpayable",
      "type": "constructor"
    },
    {
      "anonymous": false,
      "inputs": [
        {
          "indexed": false,
          "internalType": "uint256",
          "name": "tokenId",
          "type": "uint256"
        },
        {
          "indexed": false,
          "internalType": "uint256",
          "name": "amount0",
          "type": "uint256"
        },
        {
          "indexed": false,
          "internalType": "uint256",
          "name": "amount1",
          "type": "uint256"
        }
      ],
      "name": "FeesCollected",
      "type": "event"
    },
    {
      "anonymous": false,
      "inputs": [
        {
          "indexed": false,
          "internalType": "uint256",
          "name": "tokenId",
          "type": "uint256"
        },
        {
          "indexed": true,
          "internalType": "address",
          "name": "token",
          "type": "address"
        },
        {
          "indexed": true,
          "internalType": "address",
          "name": "pool",
          "type": "address"
        },
        {
          "indexed": false,
          "internalType": "uint256",
          "name": "tokenAmount",
          "type": "uint256"
        },
        {
          "indexed": false,
          "internalType": "uint256",
          "name": "wethAmount",
          "type": "uint256"
        }
      ],
      "name": "LiquidityAdded",
      "type": "event"
    },
    {
      "anonymous": false,
      "inputs": [
        {
          "indexed": true,
          "internalType": "address",
          "name": "token",
          "type": "address"
        },
        {
          "indexed": true,
          "internalType": "address",
          "name": "pool",
          "type": "address"
        },
        {
          "indexed": false,
          "internalType": "uint256",
          "name": "tokenAmount",
          "type": "uint256"
        },
        {
          "indexed": false,
          "internalType": "uint256",
          "name": "wethAmount",
          "type": "uint256"
        },
        {
          "indexed": false,
          "internalType": "string",
          "name": "error",
          "type": "string"
        }
      ],
      "name": "LiquidityAdditionFailed",
      "type": "event"
    },
    {
      "anonymous": false,
      "inputs": [
        {
          "indexed": true,
          "internalType": "address",
          "name": "token",
          "type": "address"
        },
        {
          "indexed": false,
          "internalType": "uint256",
          "name": "tokenId",
          "type": "uint256"
        },
        {
          "indexed": false,
          "internalType": "uint256",
          "name": "amount0",
          "type": "uint256"
        },
        {
          "indexed": false,
          "internalType": "uint256",
          "name": "amount1",
          "type": "uint256"
        }
      ],
      "name": "LiquidityRemoved",
      "type": "event"
    },
    {
      "anonymous": false,
      "inputs": [
        {
          "indexed": true,
          "internalType": "address",
          "name": "token0",
          "type": "address"
        },
        {
          "indexed": true,
          "internalType": "address",
          "name": "poolAddress",
          "type": "address"
        }
      ],
      "name": "PoolCreated",
      "type": "event"
    },
    {
      "anonymous": false,
      "inputs": [
        {
          "indexed": true,
          "internalType": "address",
          "name": "poolAddress",
          "type": "address"
        },
        {
          "indexed": false,
          "internalType": "uint160",
          "name": "sqrtPriceX96",
          "type": "uint160"
        }
      ],
      "name": "PoolInitialized",
      "type": "event"
    },
    {
      "anonymous": false,
      "inputs": [
        {
          "indexed": false,
          "internalType": "uint256",
          "name": "tokenId",
          "type": "uint256"
        },
        {
          "indexed": false,
          "internalType": "bool",
          "name": "isTokenDead",
          "type": "bool"
        }
      ],
      "name": "ResetFeesDays",
      "type": "event"
    },
    {
      "anonymous": false,
      "inputs": [
        {
          "indexed": true,
          "internalType": "address",
          "name": "token",
          "type": "address"
        },
        {
          "indexed": false,
          "internalType": "uint256",
          "name": "amountIn",
          "type": "uint256"
        },
        {
          "indexed": false,
          "internalType": "uint256",
          "name": "amountOut",
          "type": "uint256"
        }
      ],
      "name": "SwappedToWETH",
      "type": "event"
    },
    {
      "anonymous": false,
      "inputs": [
        {
          "indexed": true,
          "internalType": "address",
          "name": "tokenAddress",
          "type": "address"
        },
        {
          "indexed": true,
          "internalType": "address",
          "name": "poolAddress",
          "type": "address"
        }
      ],
      "name": "TokenApproved",
      "type": "event"
    },
    {
      "anonymous": false,
      "inputs": [
        {
          "indexed": true,
          "internalType": "address",
          "name": "tokenAddress",
          "type": "address"
        }
      ],
      "name": "TokenDeployed",
      "type": "event"
    },
    {
      "anonymous": false,
      "inputs": [
        {
          "indexed": false,
          "internalType": "uint256",
          "name": "amount",
          "type": "uint256"
        }
      ],
      "name": "TokensSwapped",
      "type": "event"
    },
    {
      "anonymous": false,
      "inputs": [
        {
          "indexed": false,
          "internalType": "uint256",
          "name": "tokenId",
          "type": "uint256"
        },
        {
          "indexed": false,
          "internalType": "bool",
          "name": "isTokenDead",
          "type": "bool"
        }
      ],
      "name": "ZeroFeesDays",
      "type": "event"
    },
    {
      "stateMutability": "payable",
      "type": "fallback"
    },
    {
      "inputs": [
        {
          "internalType": "address",
          "name": "_token0",
          "type": "address"
        },
        {
          "internalType": "address",
          "name": "_token1",
          "type": "address"
        },
        {
          "internalType": "address",
          "name": "tokenAddress",
          "type": "address"
        },
        {
          "internalType": "uint256",
          "name": "_token0Amount",
          "type": "uint256"
        },
        {
          "internalType": "uint256",
          "name": "_token1Amount",
          "type": "uint256"
        }
      ],
      "name": "addInitialLiquidity",
      "outputs": [
        {
          "internalType": "uint256",
          "name": "tokenId",
          "type": "uint256"
        }
      ],
      "stateMutability": "nonpayable",
      "type": "function"
    },
    {
      "inputs": [
        {
          "internalType": "uint256",
          "name": "",
          "type": "uint256"
        }
      ],
      "name": "allTokens",
      "outputs": [
        {
          "internalType": "address",
          "name": "tokenAddress",
          "type": "address"
        },
        {
          "internalType": "uint256",
          "name": "timeStamp",
          "type": "uint256"
        },
        {
          "internalType": "uint256",
          "name": "tokenId",
          "type": "uint256"
        },
        {
          "internalType": "bool",
          "name": "liquidityRemoved",
          "type": "bool"
        },
        {
          "internalType": "uint256",
          "name": "zerofeedays",
          "type": "uint256"
        },
        {
          "internalType": "bool",
          "name": "isTokenDEAD",
          "type": "bool"
        }
      ],
      "stateMutability": "view",
      "type": "function"
    },
    {
      "inputs": [
        {
          "internalType": "address",
          "name": "nftAddress",
          "type": "address"
        },
        {
          "internalType": "uint256",
          "name": "tokenId",
          "type": "uint256"
        },
        {
          "internalType": "address",
          "name": "spender",
          "type": "address"
        }
      ],
      "name": "approveNFT",
      "outputs": [],
      "stateMutability": "nonpayable",
      "type": "function"
    },
    {
      "inputs": [
        {
          "internalType": "uint256",
          "name": "amount",
          "type": "uint256"
        }
      ],
      "name": "callAddRewards",
      "outputs": [],
      "stateMutability": "payable",
      "type": "function"
    },
    {
      "inputs": [
        {
          "internalType": "uint256",
          "name": "tokenId",
          "type": "uint256"
        }
      ],
      "name": "collectFees",
      "outputs": [],
      "stateMutability": "nonpayable",
      "type": "function"
    },
    {
      "inputs": [
        {
          "internalType": "uint256",
          "name": "amount",
          "type": "uint256"
        }
      ],
      "name": "convertWETHToETH",
      "outputs": [],
      "stateMutability": "nonpayable",
      "type": "function"
    },
    {
      "inputs": [
        {
          "internalType": "address",
          "name": "token0",
          "type": "address"
        },
        {
          "internalType": "address",
          "name": "token1",
          "type": "address"
        },
        {
          "internalType": "uint160",
          "name": "sqrtPriceX96",
          "type": "uint160"
        }
      ],
      "name": "createAndInitializePoolIfNecessary",
      "outputs": [
        {
          "internalType": "address",
          "name": "pool",
          "type": "address"
        }
      ],
      "stateMutability": "nonpayable",
      "type": "function"
    },
    {
      "inputs": [
        {
          "internalType": "string",
          "name": "_name",
          "type": "string"
        },
        {
          "internalType": "string",
          "name": "_symbol",
          "type": "string"
        },
        {
          "internalType": "uint256",
          "name": "_supply",
          "type": "uint256"
        }
      ],
      "name": "deployToken",
      "outputs": [
        {
          "internalType": "address",
          "name": "",
          "type": "address"
        }
      ],
      "stateMutability": "nonpayable",
      "type": "function"
    },
    {
      "inputs": [],
      "name": "getAllTokens",
      "outputs": [
        {
          "internalType": "address[]",
          "name": "addresses",
          "type": "address[]"
        },
        {
          "internalType": "uint256[]",
          "name": "tokenIds",
          "type": "uint256[]"
        },
        {
          "internalType": "uint256[]",
          "name": "timestamps",
          "type": "uint256[]"
        },
        {
          "internalType": "bool[]",
          "name": "liquidityRemovedStatus",
          "type": "bool[]"
        },
        {
          "internalType": "uint256[]",
          "name": "zerofeesdays",
          "type": "uint256[]"
        },
        {
          "internalType": "bool[]",
          "name": "isTokenDead",
          "type": "bool[]"
        }
      ],
      "stateMutability": "view",
      "type": "function"
    },
    {
      "inputs": [
        {
          "internalType": "uint256",
          "name": "tokenId",
          "type": "uint256"
        }
      ],
      "name": "getPosition",
      "outputs": [
        {
          "internalType": "uint96",
          "name": "nonce",
          "type": "uint96"
        },
        {
          "internalType": "address",
          "name": "operator",
          "type": "address"
        },
        {
          "internalType": "address",
          "name": "token0",
          "type": "address"
        },
        {
          "internalType": "address",
          "name": "token1",
          "type": "address"
        },
        {
          "internalType": "uint24",
          "name": "fee",
          "type": "uint24"
        },
        {
          "internalType": "int24",
          "name": "tickLower",
          "type": "int24"
        },
        {
          "internalType": "int24",
          "name": "tickUpper",
          "type": "int24"
        },
        {
          "internalType": "uint128",
          "name": "liquidity",
          "type": "uint128"
        },
        {
          "internalType": "uint256",
          "name": "feeGrowthInside0LastX128",
          "type": "uint256"
        },
        {
          "internalType": "uint256",
          "name": "feeGrowthInside1LastX128",
          "type": "uint256"
        },
        {
          "internalType": "uint128",
          "name": "tokensOwed0",
          "type": "uint128"
        },
        {
          "internalType": "uint128",
          "name": "tokensOwed1",
          "type": "uint128"
        }
      ],
      "stateMutability": "view",
      "type": "function"
    },
    {
      "inputs": [
        {
          "internalType": "address",
          "name": "tokenA",
          "type": "address"
        },
        {
          "internalType": "address",
          "name": "tokenB",
          "type": "address"
        },
        {
          "internalType": "uint24",
          "name": "fee",
          "type": "uint24"
        }
      ],
      "name": "get_Pool",
      "outputs": [
        {
          "internalType": "address",
          "name": "pool",
          "type": "address"
        }
      ],
      "stateMutability": "view",
      "type": "function"
    },
    {
      "inputs": [
        {
          "internalType": "bytes[]",
          "name": "data",
          "type": "bytes[]"
        }
      ],
      "name": "multicall",
      "outputs": [],
      "stateMutability": "payable",
      "type": "function"
    },
    {
      "inputs": [],
      "name": "owner",
      "outputs": [
        {
          "internalType": "address",
          "name": "",
          "type": "address"
        }
      ],
      "stateMutability": "view",
      "type": "function"
    },
    {
      "inputs": [],
      "name": "positionManager",
      "outputs": [
        {
          "internalType": "contract INonfungiblePositionManager",
          "name": "",
          "type": "address"
        }
      ],
      "stateMutability": "view",
      "type": "function"
    },
    {
      "inputs": [
        {
          "internalType": "uint256",
          "name": "tokenId",
          "type": "uint256"
        },
        {
          "internalType": "uint128",
          "name": "liquidityToRemove",
          "type": "uint128"
        }
      ],
      "name": "removeLiquidity",
      "outputs": [],
      "stateMutability": "nonpayable",
      "type": "function"
    },
    {
      "inputs": [
        {
          "internalType": "uint256",
          "name": "tokenId",
          "type": "uint256"
        }
      ],
      "name": "resetNoFeeDays",
      "outputs": [],
      "stateMutability": "nonpayable",
      "type": "function"
    },
    {
      "inputs": [
        {
          "internalType": "address payable",
          "name": "_stakingAddress",
          "type": "address"
        }
      ],
      "name": "setStakingAddress",
      "outputs": [],
      "stateMutability": "nonpayable",
      "type": "function"
    },
    {
      "inputs": [],
      "name": "stakingAddress",
      "outputs": [
        {
          "internalType": "address payable",
          "name": "",
          "type": "address"
        }
      ],
      "stateMutability": "view",
      "type": "function"
    },
    {
      "inputs": [
        {
          "internalType": "uint256",
          "name": "amountIn",
          "type": "uint256"
        },
        {
          "internalType": "address",
          "name": "tokenAddress",
          "type": "address"
        }
      ],
      "name": "swapETHforTokens",
      "outputs": [
        {
          "internalType": "uint256",
          "name": "amountOut",
          "type": "uint256"
        }
      ],
      "stateMutability": "payable",
      "type": "function"
    },
    {
      "inputs": [],
      "name": "swapRouter",
      "outputs": [
        {
          "internalType": "contract ISwapRouter",
          "name": "",
          "type": "address"
        }
      ],
      "stateMutability": "view",
      "type": "function"
    },
    {
      "inputs": [
        {
          "internalType": "uint256",
          "name": "amountIn",
          "type": "uint256"
        },
        {
          "internalType": "address",
          "name": "tokenAddress",
          "type": "address"
        }
      ],
      "name": "swapTokensForWETH",
      "outputs": [
        {
          "internalType": "uint256",
          "name": "amountOut",
          "type": "uint256"
        }
      ],
      "stateMutability": "payable",
      "type": "function"
    },
    {
      "inputs": [],
      "name": "tokenCount",
      "outputs": [
        {
          "internalType": "uint256",
          "name": "",
          "type": "uint256"
        }
      ],
      "stateMutability": "view",
      "type": "function"
    },
    {
      "inputs": [
        {
          "internalType": "address",
          "name": "tokenAddress",
          "type": "address"
        },
        {
          "internalType": "address",
          "name": "to",
          "type": "address"
        },
        {
          "internalType": "uint256",
          "name": "amount",
          "type": "uint256"
        }
      ],
      "name": "transferTokens",
      "outputs": [],
      "stateMutability": "nonpayable",
      "type": "function"
    },
    {
      "inputs": [],
      "name": "uniswapFactory",
      "outputs": [
        {
          "internalType": "contract IUniswapV3Factory",
          "name": "",
          "type": "address"
        }
      ],
      "stateMutability": "view",
      "type": "function"
    },
    {
      "inputs": [
        {
          "internalType": "uint256",
          "name": "tokenId",
          "type": "uint256"
        }
      ],
      "name": "updateNoFeeDays",
      "outputs": [],
      "stateMutability": "nonpayable",
      "type": "function"
    },
    {
      "inputs": [],
      "name": "weth",
      "outputs": [
        {
          "internalType": "address",
          "name": "",
          "type": "address"
        }
      ],
      "stateMutability": "view",
      "type": "function"
    },
    {
      "stateMutability": "payable",
      "type": "receive"
    }
  ],
  "bytecode": "0x608034620000da57601f62002fac38819003918201601f19168301916001600160401b03831184841017620000df57808492608094604052833981010312620000da576200004d81620000f5565b906200005c60208201620000f5565b6200007860606200007060408501620000f5565b9301620000f5565b90655af3107a400060075560018060a01b03928380928160018060a01b0319971687600154161760015516856002541617600255168360035416176003551681600454161760045533906005541617600555604051612ea190816200010b8239f35b600080fd5b634e487b7160e01b600052604160045260246000fd5b51906001600160a01b0382168203620000da5756fe608060405260043610156200001a575b36156200001857005b005b6000803560e01c8063247932be1462001dd55780632855d76a1462001d425780632a5c792a1462001b185780633a93babb1462001a095780633fc8cef314620019e057806351246d6e14620018c55780635bc30eb014620013f3578063634282af146200136f5780636e9551d7146200127b578063791b98bc14620012525780638bdb2afa14620012295780638da5cb5b1462001200578063911757ba1462000f385780639f181b5e1462000f19578063a64b6e5f1462000e3f578063ac9650d81462000cee578063ad1b9e321462000b97578063b17acdcd1462000a39578063c31c9c071462000a10578063cbf0ed6b1462000966578063d10b6e0c14620008d2578063d7b4be2414620008a9578063eb02c301146200068b578063f4e0d9ac146200062b578063fde16ed314620004b95763ffc5baf9146200015f57506200000f565b6040366003190112620004b657600435906200017a62001f6f565b916001600160a01b03808060055416331494620001978662001fef565b620001a48415156200217e565b1691604051946370a0823160e01b86523060048701526020958681602481885afa908115620004ab57908391879162000474575b50106200040a5785826200022792620001f686600454169162001fef565b604051938492839263095ea7b360e01b845260048401602090939291936001600160a01b0360408201951681520152565b038188885af1908115620003ff578591620003cb575b501562000387579181620002fc938693600254166040519362000260856200206d565b845284840152612710604084015230606084015260808301528460a08301528460c08301526004541660405180809581946304e45aaf60e01b83526004830191909160c060e0820193816001600160a01b039182815116855282602082015116602086015262ffffff60408201511660408601528260608201511660608601526080810151608086015260a081015160a0860152015116910152565b039134905af19182156200037b579162000343575b507fdb04c7a6d4758fd55d738ebc67e7f3010ac922be00771ef29521a4090d1eb13f82604051838152a1604051908152f35b90508181813d831162000373575b6200035d81836200208a565b810103126200036e57513862000311565b600080fd5b503d62000351565b604051903d90823e3d90fd5b6064856040519062461bcd60e51b82526004820152600f60248201527f417070726f76616c206661696c656400000000000000000000000000000000006044820152fd5b620003f09150863d8811620003f7575b620003e781836200208a565b810190620021ca565b386200023d565b503d620003db565b6040513d87823e3d90fd5b6084866040519062461bcd60e51b82526004820152603260248201527f496e73756666696369656e7420746f6b656e2062616c616e636520696e20746860448201527f6520666163746f727920636f6e747261637400000000000000000000000000006064820152fd5b809250888092503d8311620004a3575b6200049081836200208a565b810103126200036e5782905138620001d8565b503d62000484565b6040513d88823e3d90fd5b80fd5b506040366003190112620004b65760043590620004d562001f6f565b6001600160a01b038381600254168260045416620004f98460055416331462001fef565b604051809263095ea7b360e01b82528188816200053360209c8d9760048401602090939291936001600160a01b0360408201951681520152565b03925af1908115620003ff57859162000609575b501562000387579181620002fc938187946002541693604051946200056c866200206d565b85521684840152612710604084015233606084015260808301528460a08301528460c08301526004541660405180809581946304e45aaf60e01b83526004830191909160c060e0820193816001600160a01b039182815116855282602082015116602086015262ffffff60408201511660408601528260608201511660608601526080810151608086015260a081015160a0860152015116910152565b620006249150863d8811620003f757620003e781836200208a565b3862000547565b5034620004b6576020366003190112620004b6576004356001600160a01b038082168092036200068757620006669060055416331462001fef565b73ffffffffffffffffffffffffffffffffffffffff19600654161760065580f35b8280fd5b5034620004b6576020366003190112620004b6576001600160a01b0390620006b98260055416331462001fef565b8160015416906040519283927f99fbab8800000000000000000000000000000000000000000000000000000000845260043560048501528360246101809687935afa9081156200089e578280948192829083849185938697879a889789809c6200079d575b5050908391826040519e8f926bffffffffffffffffffffffff1683521690602001521660408c01521660608a015262ffffff16608089015260020b60a088015260020b60c08701526fffffffffffffffffffffffffffffffff948580941660e08801526101008701526101208601521661014084015216610160820152f35b9b509c5050505097505050505050508383813d831162000896575b620007c481836200208a565b81010312620004b6578251906bffffffffffffffffffffffff82168203620004b657620007f46020850162002134565b91620008036040860162002134565b94620008126060820162002134565b9460808201519362ffffff85168503620004b657506200083560a0830162002228565b6200084360c0840162002228565b906200085260e0850162002149565b9261010085015196816101208701519a62000880610160620008786101408b0162002149565b990162002149565b989a9c9092949596999b97989a9091386200071e565b503d620007b8565b6040513d84823e3d90fd5b5034620004b65780600319360112620004b65760206001600160a01b0360065416604051908152f35b5034620004b6576060366003190112620004b65780620008f162001f58565b6001600160a01b036200090362001f86565b9116803b15620009625760405163095ea7b360e01b81526001600160a01b03929092166004830152602480359083015282908290604490829084905af180156200089e576200094f5750f35b6200095a906200203b565b620004b65780f35b5050fd5b5034620004b6576020366003190112620004b657620009926001600160a01b0360055416331462001fef565b600435815260096020527f6f3e068cb934f31cfea69b2f72e697abfe27982d58fe7fcabb327c96c89cd33a6040822054826004620009d08362001f9d565b50015560ff6005620009f26004620009e88562001f9d565b5001549362001f9d565b50015460408051938452911615156020830152819081015b0390a180f35b5034620004b65780600319360112620004b65760206001600160a01b0360045416604051908152f35b5034620004b6576020366003190112620004b65760043581604062000af46001600160a01b0362000a708160055416331462001fef565b82519062000a7e8262002050565b85825230602083019081526fffffffffffffffffffffffffffffffff85840181905260608401818152600154875163fc6f786560e01b81528651600482015293516001600160a01b0316602485015260409095015182166044840152511660648201529485939190921691839182906084820190565b03925af191821562000b8c577fa54e6c2fc0861aa9c991b26891d71059d517983b9e84b91020f42609c452eb9d928492859162000b4f575b5062000a0a90604051938493846040919493926060820195825260208201520152565b62000a0a935062000b7c915060403d60401162000b84575b62000b7381836200208a565b81019062002167565b909262000b2c565b503d62000b67565b6040513d85823e3d90fd5b506020366003190112620004b6576004356001600160a01b039062000c136020828460055416331462000bca8162001fef565b85600254169062000be087600654169162001fef565b8760405180968195829463095ea7b360e01b845260048401602090939291936001600160a01b0360408201951681520152565b03925af190811562000ce357849162000cbf575b501562000c7b57829160065416803b15620009625782906004604051809481937f14d6aed00000000000000000000000000000000000000000000000000000000083525af180156200089e576200094f5750f35b606460405162461bcd60e51b815260206004820152600f60248201527f417070726f76616c206661696c656400000000000000000000000000000000006044820152fd5b62000cdc915060203d602011620003f757620003e781836200208a565b3862000c27565b6040513d86823e3d90fd5b5060208060031936011262000e19576004359067ffffffffffffffff80831162000e15573660238401121562000e1557826004013581811162000e3b576024906005903660248260051b8801011162000e3757943681900360421901906000198701878111895b89811062000d61578a80f35b8162000e245780830362000e1d57345b8b8883891b870101358781121562000e195786019189830135908b82116200068757604480940191803603831362000e1557839281604051928392833781018481520391305af162000dc2620021e4565b501562000dd3575060010162000d55565b897f4d756c746963616c6c20657865637574696f6e206661696c6564000000000000606492601a8b6040519462461bcd60e51b86526004860152840152820152fd5b8380fd5b5080fd5b8a62000d71565b868b634e487b7160e01b81526011600452fd5b8680fd5b8480fd5b5034620004b6576060366003190112620004b65762000ee4602062000e6362001f58565b62000e6d62001f6f565b9060443591856001600160a01b0362000e8c8160055416331462001fef565b62000e998515156200217e565b6040518097819682957fa9059cbb00000000000000000000000000000000000000000000000000000000845260048401602090939291936001600160a01b0360408201951681520152565b0393165af180156200089e5762000ef9575080f35b62000f159060203d602011620003f757620003e781836200208a565b5080f35b5034620004b65780600319360112620004b65760209054604051908152f35b5034620004b6576040366003190112620004b6576004356024356fffffffffffffffffffffffffffffffff9081811680910362000e15576001600160a01b039162000f898360055416331462001fef565b838552600960205260408520549260ff600362000fa68662001f9d565b50015416620011bc578060015416926040519060a082019082821067ffffffffffffffff831117620011a65760a485938a809860409586528b83526020830194855285830182815260608401838152608085019142835288519b8c9889977f0c49ccbe000000000000000000000000000000000000000000000000000000008952516004890152511660248701525160448601525160648501525160848401525af191821562000ce357604093620010e49362001185575b506001541690835190620010728262002050565b87825230602083015280858301526060820152835194858094819363fc6f786560e01b83526004830191909160606080820193805183526001600160a01b036020820151166020840152816040820151916fffffffffffffffffffffffffffffffff8093166040860152015116910152565b03925af190811562000ce3577f1dc8bb69df2b8e91fbdcbfcf93d951b3f0000f085a95fe3f7946d6161439245d928591869362001152575b506200112a60039162001f9d565b5001805460ff191660011790556040805194855260208501919091528301523391606090a280f35b60039193506200112a9250620011799060403d60401162000b845762000b7381836200208a565b9290929391506200111c565b6200119f90853d871162000b845762000b7381836200208a565b506200105e565b634e487b7160e01b600052604160045260246000fd5b606460405162461bcd60e51b815260206004820152601960248201527f4c697175696469747920616c72656164792072656d6f766564000000000000006044820152fd5b5034620004b65780600319360112620004b65760206001600160a01b0360055416604051908152f35b5034620004b65780600319360112620004b65760206001600160a01b0360035416604051908152f35b5034620004b65780600319360112620004b65760206001600160a01b0360015416604051908152f35b5034620004b6576060366003190112620004b6576200129962001f58565b90620012a462001f6f565b9160443562ffffff8116809103620006875760209060646001600160a01b0393849283600354169084604051998a9687957f1698ee8200000000000000000000000000000000000000000000000000000000875216600486015216602484015260448301525afa9182156200037b57809262001328575b6020838360405191168152f35b9091506020833d60201162001366575b8162001347602093836200208a565b81010312620004b657506200135e60209262002134565b90386200131b565b3d915062001338565b5034620004b6576020366003190112620004b65760043590600854821015620004b65760c06200139f8362001f9d565b506001600160a01b0381541690600181015490600281015460ff6003830154169060ff60056004850154940154169360405195865260208601526040850152151560608401526080830152151560a0820152f35b5034620004b65760a0366003190112620004b6576200141162001f58565b6200141b62001f6f565b906200142662001f86565b91602460206001600160a01b0360025416604051928380926370a0823160e01b82523060048301525afa908115620003ff5785916200188d575b50600754116200182357620014846064356001600160a01b03600154168462002237565b6200149e6084356001600160a01b03600154168362002237565b61012c420142116200180f5760405192610160840184811067ffffffffffffffff821117620011a6576040526001600160a01b03831684526001600160a01b03821660208501526127106040850152620d899f196060850152620d89a0608085015260643560a085015260843560c08501528460e0850152846101008501523061012085015261012c420161014085015260806101406101646001600160a01b0360015416968860405198899485937f883164560000000000000000000000000000000000000000000000000000000085526001600160a01b0381511660048601526001600160a01b03602082015116602486015262ffffff6040820151166044860152606081015160020b60648601528781015160020b608486015260a081015160a486015260c081015160c486015260e081015160e48601526101008101516101048601526001600160a01b036101208201511661012486015201516101448401525af1938415620003ff578594620017c5575b506040519060c082019082821067ffffffffffffffff831117620011a6576001600160a01b0391604052168152602081014281526040820185815260608301878152608084019188835260a085019389855260085468010000000000000000811015620017b1578060016200168d920160085562001f9d565b9690966200179e579260059492620016f0926001600160a01b036200170c999896511673ffffffffffffffffffffffffffffffffffffffff19895416178855516001880155516002870155511515600386019060ff801983541691151516179055565b51600484015551151591019060ff801983541691151516179055565b60085460001981019081116200178a5760408585602097526009875220557fcdcffdd59a718d70f177abd94c0e661d1b2d1199ea4bb008b01ba902c1db10a26001600160a01b03806040519316931691806200177f60843560643588846040919493926060820195825260208201520152565b0390a3604051908152f35b602485634e487b7160e01b81526011600452fd5b60248b634e487b7160e01b815280600452fd5b60248b634e487b7160e01b81526041600452fd5b9093506080813d60801162001806575b81620017e4608093836200208a565b8101031262000e3b57620017fd60208251920162002149565b50923862001614565b3d9150620017d5565b602484634e487b7160e01b81526011600452fd5b608460405162461bcd60e51b815260206004820152602760248201527f4e6f7420656e6f756768205745544820696e2074686520666163746f7279206360448201527f6f6e7472616374000000000000000000000000000000000000000000000000006064820152fd5b90506020813d602011620018bc575b81620018ab602093836200208a565b810103126200036e57513862001460565b3d91506200189c565b5034620004b6576060366003190112620004b657620018e362001f58565b90620018ee62001f6f565b604435926001600160a01b039384811680910362000e15578460848193866020948460015416906040519a8b9687957f13ead56200000000000000000000000000000000000000000000000000000000875216998a6004870152166024850152612710604485015260648401525af1801562000b8c5783906200199e575b602094501680917f4f2ce4e40f623ca765fc0167a25cb7842ceaafb8d82d3dec26ca0d0e0d2d48966040519480a38152f35b506020843d602011620019d7575b81620019bb602093836200208a565b810103126200068757620019d160209462002134565b6200196c565b3d9150620019ac565b5034620004b65780600319360112620004b65760206001600160a01b0360025416604051908152f35b5034620004b6576060366003190112620004b65767ffffffffffffffff600435818111620006875762001a4190369060040162001f27565b919060243582811162000e3b5762001a5e90369060040162001f27565b909160405194610b5a808701958787109087111762001b04578695949262001aaa949262001a9b9262002312893960608752606087019162002113565b91848303602086015262002113565b906040604435910152039082f0801562001af757906001600160a01b0360209216807f91d24864a084ab70b268a1f865e757ca12006cf298d763b6be697302ef86498c6040519380a28152f35b50604051903d90823e3d90fd5b602488634e487b7160e01b81526041600452fd5b5034620004b65780600319360112620004b6576001600160a01b03600562001b468260055416331462001fef565b60085462001b5481620020ad565b62001b6360405191826200208a565b81815262001b7182620020ad565b6020959082870190601f190136823762001b8b84620020c6565b62001b9685620020c6565b9262001ba286620020c6565b9462001bae87620020c6565b9662001bba81620020c6565b98835b82811062001c7657505050604051998a9960c08b019260c08c525180935260e08b019593905b83821062001c585750505050509262001c2762001c5496959362001c188462001c45978b62001c36970360208d015262001eb9565b9089820360408b015262001eb9565b90878203606089015262001eef565b90858203608087015262001eb9565b9083820360a085015262001eef565b0390f35b8451811687528c9b5095820195938201936001919091019062001be3565b808b62001d2b8e9f979698999a9b9c9d9e9360038f8f8f8e8e62001cac8760019c62001ca28262001f9d565b50541692620020fe565b5262001cc986600262001cbf8262001f9d565b50015492620020fe565b5262001cdb858a62001cbf8262001f9d565b5262001cfc8462001cec8162001f9d565b5060ff95869101541692620020fe565b901515905262001d1383600462001cbf8262001f9d565b528662001d208362001f9d565b5001541692620020fe565b9015159052019b9a99989796959492939b62001bbd565b5034620004b6576020366003190112620004b657806001600160a01b0362001d708160055416331462001fef565b60025416803b1562001dd25781906024604051809481937f2e1a7d4d00000000000000000000000000000000000000000000000000000000835260043560048401525af180156200089e5762001dc4575080f35b62001dcf906200203b565b80f35b50fd5b5034620004b6576020366003190112620004b65762001e016001600160a01b0360055416331462001fef565b60043581526009602052604081205490600462001e1e8362001f9d565b500180549290600019841462001ea55760017f5b5116a6a7ed7078e6da121ce407eb49b9da5715f14154c54556529f996a4fb093940190556003600462001e658362001f9d565b500154101562001e85575b60ff6005620009f26004620009e88562001f9d565b600562001e928262001f9d565b5001805460ff1916600117905562001e70565b602483634e487b7160e01b81526011600452fd5b90815180825260208080930193019160005b82811062001eda575050505090565b83518552938101939281019260010162001ecb565b90815180825260208080930193019160005b82811062001f10575050505090565b835115158552938101939281019260010162001f01565b9181601f840112156200036e5782359167ffffffffffffffff83116200036e57602083818601950101116200036e57565b600435906001600160a01b03821682036200036e57565b602435906001600160a01b03821682036200036e57565b604435906001600160a01b03821682036200036e57565b60085481101562001fd9576006906008600052027ff3f7a9fe364faab93b216da50a3214154f22a0a2b415b23a84c8169e8b636ee30190600090565b634e487b7160e01b600052603260045260246000fd5b1562001ff757565b606460405162461bcd60e51b815260206004820152601760248201527f43616c6c6572206973206e6f7420746865206f776e65720000000000000000006044820152fd5b67ffffffffffffffff8111620011a657604052565b6080810190811067ffffffffffffffff821117620011a657604052565b60e0810190811067ffffffffffffffff821117620011a657604052565b90601f8019910116810190811067ffffffffffffffff821117620011a657604052565b67ffffffffffffffff8111620011a65760051b60200190565b90620020d282620020ad565b620020e160405191826200208a565b8281528092620020f4601f1991620020ad565b0190602036910137565b805182101562001fd95760209160051b010190565b908060209392818452848401376000828201840152601f01601f1916010190565b51906001600160a01b03821682036200036e57565b51906fffffffffffffffffffffffffffffffff821682036200036e57565b91908260409103126200036e576020825192015190565b156200218657565b606460405162461bcd60e51b815260206004820152602060248201527f416d6f756e74206d7573742062652067726561746572207468616e207a65726f6044820152fd5b908160209103126200036e575180151581036200036e5790565b3d1562002223573d9067ffffffffffffffff8211620011a6576040519162002217601f8201601f1916602001846200208a565b82523d6000602084013e565b606090565b51908160020b82036200036e57565b60405163095ea7b360e01b602082019081526001600160a01b0393909316602482015260448082019490945292835260009283929083906200227b6064826200208a565b51925af162002289620021e4565b81620022dd575b50156200229957565b606460405162461bcd60e51b815260206004820152600260248201527f53410000000000000000000000000000000000000000000000000000000000006044820152fd5b8051801592508215620022f4575b50503862002290565b620023099250602080918301019101620021ca565b3880620022eb56fe60406080815234620003bb5762000b5a803803806200001e81620003c0565b9283398101606082820312620003bb5781516001600160401b039290838111620003bb578262000050918301620003e6565b60209283830151858111620003bb5786916200006e918501620003e6565b920151938151818111620002bb576003908154906001948583811c93168015620003b0575b888410146200039a578190601f9384811162000344575b508890848311600114620002dd57600092620002d1575b505060001982851b1c191690851b1782555b8451928311620002bb5760049485548581811c91168015620002b0575b888210146200029b5782811162000250575b5086918411600114620001e557938394918492600095620001d9575b50501b92600019911b1c19161781555b670de0b6b3a764000092838102938185041490151715620001ad573315620001c25760025490838201809211620001ad57506000917fddf252ad1be2c89b69c2b068fc378daa952ba7f163c4a11628f55a4df523b3ef9160025533835282815284832084815401905584519384523393a3516107019081620004598239f35b601190634e487b7160e01b6000525260246000fd5b602490600085519163ec442f0560e01b8352820152fd5b0151935038806200011e565b9190601f198416928660005284886000209460005b8a898383106200023857505050106200021d575b50505050811b0181556200012e565b01519060f884600019921b161c19169055388080806200020e565b868601518955909701969485019488935001620001fa565b86600052876000208380870160051c8201928a881062000291575b0160051c019086905b8281106200028457505062000102565b6000815501869062000274565b925081926200026b565b602287634e487b7160e01b6000525260246000fd5b90607f1690620000f0565b634e487b7160e01b600052604160045260246000fd5b015190503880620000c1565b90879350601f19831691866000528a6000209260005b8c8282106200032d575050841162000314575b505050811b018255620000d3565b015160001983871b60f8161c1916905538808062000306565b8385015186558b97909501949384019301620002f3565b90915084600052886000208480850160051c8201928b861062000390575b918991869594930160051c01915b82811062000380575050620000aa565b6000815585945089910162000370565b9250819262000362565b634e487b7160e01b600052602260045260246000fd5b92607f169262000093565b600080fd5b6040519190601f01601f191682016001600160401b03811183821017620002bb57604052565b919080601f84011215620003bb5782516001600160401b038111620002bb576020906200041c601f8201601f19168301620003c0565b92818452828287010111620003bb5760005b8181106200044457508260009394955001015290565b85810183015184820184015282016200042e56fe608060408181526004918236101561001657600080fd5b600092833560e01c91826306fdde031461045057508163095ea7b3146103a457816318160ddd1461038557816323b872dd14610276578163313ce5671461025a57816370a082311461022457816395d89b411461010357508063a9059cbb146100d35763dd62ed3e1461008857600080fd5b346100cf57806003193601126100cf57806020926100a4610573565b6100ac61058e565b6001600160a01b0391821683526001865283832091168252845220549051908152f35b5080fd5b50346100cf57806003193601126100cf576020906100fc6100f2610573565b60243590336105a4565b5160018152f35b8383346100cf57816003193601126100cf5780519082845460018160011c906001831692831561021a575b6020938484108114610207578388529081156101eb5750600114610196575b505050829003601f01601f191682019267ffffffffffffffff841183851017610183575082918261017f92528261052a565b0390f35b80604186634e487b7160e01b6024945252fd5b8787529192508591837f8a35acfbc15ff81a39ae7d344fd709f28e8600b4aa8c65c6b64bfe7fe36bd19b5b8385106101d7575050505083010185808061014d565b8054888601830152930192849082016101c1565b60ff1916878501525050151560051b840101905085808061014d565b60248960228c634e487b7160e01b835252fd5b91607f169161012e565b5050346100cf5760203660031901126100cf57806020926001600160a01b0361024b610573565b16815280845220549051908152f35b5050346100cf57816003193601126100cf576020905160128152f35b9050823461038257606036600319011261038257610292610573565b61029a61058e565b91604435936001600160a01b0383168083526001602052868320338452602052868320549160001983036102d7575b6020886100fc8989896105a4565b86831061033d578115610327573315610311575082526001602090815286832033845281529186902090859003905582906100fc876102c9565b60249084895191634a1406b160e11b8352820152fd5b6024908489519163e602df0560e01b8352820152fd5b87517ffb8f41b2000000000000000000000000000000000000000000000000000000008152339181019182526020820193909352604081018790528291506060010390fd5b80fd5b5050346100cf57816003193601126100cf576020906002549051908152f35b90503461044c578160031936011261044c576103be610573565b602435903315610436576001600160a01b031691821561042057508083602095338152600187528181208582528752205582519081527f8c5be1e5ebec7d5bd14f71427d1e84f3dd0314c0f7b2291e5b200ac8c7c3b925843392a35160018152f35b60249085855191634a1406b160e11b8352820152fd5b6024838686519163e602df0560e01b8352820152fd5b8280fd5b8490843461044c578260031936011261044c578260035460018160011c9060018316928315610520575b6020938484108114610207578388529081156101eb57506001146104ca57505050829003601f01601f191682019267ffffffffffffffff841183851017610183575082918261017f92528261052a565b600387529192508591837fc2575a0e9e593c00f959f8c92f12db2869c3395a3b0502d05e2516446f71f85b5b83851061050c575050505083010185808061014d565b8054888601830152930192849082016104f6565b91607f169161047a565b6020808252825181830181905290939260005b82811061055f57505060409293506000838284010152601f8019910116010190565b81810186015184820160400152850161053d565b600435906001600160a01b038216820361058957565b600080fd5b602435906001600160a01b038216820361058957565b916001600160a01b0380841692831561069a5716928315610669576000908382528160205260408220549083821061061e575091604082827fddf252ad1be2c89b69c2b068fc378daa952ba7f163c4a11628f55a4df523b3ef958760209652828652038282205586815220818154019055604051908152a3565b6040517fe450d38c0000000000000000000000000000000000000000000000000000000081526001600160a01b03919091166004820152602481019190915260448101839052606490fd5b60246040517fec442f0500000000000000000000000000000000000000000000000000000000815260006004820152fd5b60246040517f96c6fd1e00000000000000000000000000000000000000000000000000000000815260006004820152fdfea264697066735822122071141cd8941acfe7cb4244534d7054e4905ef3f448c2b0ce5e04255737c428b464736f6c63430008180033a264697066735822122064a77bef0838a61a849d28868b3e7b41da97743a9f25cdd473a04ffb5d41da3064736f6c63430008180033",
  "linkReferences": {},
  "deployedLinkReferences": {}
}