{
  "_format": "hh-sol-artifact-1",
  "contractName": "MyFactory",
  "sourceName": "contracts/TestFactory.sol",
  "abi": [
    {
      "inputs": [
        {
          "internalType": "address",
          "name": "_positionManager",
          "type": "address"
        },
        {
          "internalType": "address",
          "name": "_weth",
          "type": "address"
        },
        {
          "internalType": "address",
          "name": "_uniswapFactory",
          "type": "address"
        },
        {
          "internalType": "address",
          "name": "_swapRouter",
          "type": "address"
        },
        {
          "internalType": "address",
          "name": "_lockerAddress",
          "type": "address"
        }
      ],
      "stateMutability": "nonpayable",
      "type": "constructor"
    },
    {
      "anonymous": false,
      "inputs": [
        {
          "indexed": false,
          "internalType": "uint256",
          "name": "tokenId",
          "type": "uint256"
        },
        {
          "indexed": false,
          "internalType": "uint256",
          "name": "amount0",
          "type": "uint256"
        },
        {
          "indexed": false,
          "internalType": "uint256",
          "name": "amount1",
          "type": "uint256"
        }
      ],
      "name": "FeesCollected",
      "type": "event"
    },
    {
      "anonymous": false,
      "inputs": [
        {
          "indexed": false,
          "internalType": "uint256",
          "name": "amountNeeded",
          "type": "uint256"
        }
      ],
      "name": "FundsRequested",
      "type": "event"
    },
    {
      "anonymous": false,
      "inputs": [
        {
          "indexed": false,
          "internalType": "uint256",
          "name": "amount",
          "type": "uint256"
        }
      ],
      "name": "FundsSent",
      "type": "event"
    },
    {
      "anonymous": false,
      "inputs": [
        {
          "indexed": false,
          "internalType": "uint256",
          "name": "tokenId",
          "type": "uint256"
        }
      ],
      "name": "LiquidityAdded",
      "type": "event"
    },
    {
      "anonymous": false,
      "inputs": [
        {
          "indexed": true,
          "internalType": "address",
          "name": "token",
          "type": "address"
        },
        {
          "indexed": true,
          "internalType": "address",
          "name": "pool",
          "type": "address"
        },
        {
          "indexed": false,
          "internalType": "uint256",
          "name": "tokenAmount",
          "type": "uint256"
        },
        {
          "indexed": false,
          "internalType": "uint256",
          "name": "wethAmount",
          "type": "uint256"
        },
        {
          "indexed": false,
          "internalType": "string",
          "name": "error",
          "type": "string"
        }
      ],
      "name": "LiquidityAdditionFailed",
      "type": "event"
    },
    {
      "anonymous": false,
      "inputs": [
        {
          "indexed": true,
          "internalType": "address",
          "name": "token",
          "type": "address"
        },
        {
          "indexed": false,
          "internalType": "uint256",
          "name": "tokenId",
          "type": "uint256"
        },
        {
          "indexed": false,
          "internalType": "uint256",
          "name": "amount0",
          "type": "uint256"
        },
        {
          "indexed": false,
          "internalType": "uint256",
          "name": "amount1",
          "type": "uint256"
        }
      ],
      "name": "LiquidityRemoved",
      "type": "event"
    },
    {
      "anonymous": false,
      "inputs": [
        {
          "indexed": true,
          "internalType": "address",
          "name": "token0",
          "type": "address"
        },
        {
          "indexed": true,
          "internalType": "address",
          "name": "poolAddress",
          "type": "address"
        }
      ],
      "name": "PoolCreated",
      "type": "event"
    },
    {
      "anonymous": false,
      "inputs": [
        {
          "indexed": true,
          "internalType": "address",
          "name": "poolAddress",
          "type": "address"
        },
        {
          "indexed": false,
          "internalType": "uint160",
          "name": "sqrtPriceX96",
          "type": "uint160"
        }
      ],
      "name": "PoolInitialized",
      "type": "event"
    },
    {
      "anonymous": false,
      "inputs": [
        {
          "indexed": false,
          "internalType": "uint256",
          "name": "yesOrNo",
          "type": "uint256"
        }
      ],
      "name": "RemoveTime",
      "type": "event"
    },
    {
      "anonymous": false,
      "inputs": [
        {
          "indexed": false,
          "internalType": "uint256",
          "name": "tokenId",
          "type": "uint256"
        },
        {
          "indexed": false,
          "internalType": "bool",
          "name": "isTokenDead",
          "type": "bool"
        }
      ],
      "name": "ResetFeesDays",
      "type": "event"
    },
    {
      "anonymous": false,
      "inputs": [
        {
          "indexed": true,
          "internalType": "address",
          "name": "token",
          "type": "address"
        },
        {
          "indexed": false,
          "internalType": "uint256",
          "name": "amountIn",
          "type": "uint256"
        },
        {
          "indexed": false,
          "internalType": "uint256",
          "name": "amountOut",
          "type": "uint256"
        }
      ],
      "name": "SwappedToWETH",
      "type": "event"
    },
    {
      "anonymous": false,
      "inputs": [
        {
          "indexed": true,
          "internalType": "address",
          "name": "tokenAddress",
          "type": "address"
        },
        {
          "indexed": true,
          "internalType": "address",
          "name": "poolAddress",
          "type": "address"
        }
      ],
      "name": "TokenApproved",
      "type": "event"
    },
    {
      "anonymous": false,
      "inputs": [
        {
          "indexed": true,
          "internalType": "address",
          "name": "tokenAddress",
          "type": "address"
        }
      ],
      "name": "TokenDeployed",
      "type": "event"
    },
    {
      "anonymous": false,
      "inputs": [
        {
          "indexed": false,
          "internalType": "uint256",
          "name": "amount",
          "type": "uint256"
        }
      ],
      "name": "TokensSwapped",
      "type": "event"
    },
    {
      "anonymous": false,
      "inputs": [
        {
          "indexed": false,
          "internalType": "uint256",
          "name": "tokenId",
          "type": "uint256"
        },
        {
          "indexed": false,
          "internalType": "bool",
          "name": "isTokenDead",
          "type": "bool"
        }
      ],
      "name": "ZeroFeesDays",
      "type": "event"
    },
    {
      "stateMutability": "payable",
      "type": "fallback"
    },
    {
      "inputs": [
        {
          "internalType": "address",
          "name": "_token0",
          "type": "address"
        },
        {
          "internalType": "address",
          "name": "_token1",
          "type": "address"
        },
        {
          "internalType": "address",
          "name": "tokenAddress",
          "type": "address"
        },
        {
          "internalType": "uint256",
          "name": "_token0Amount",
          "type": "uint256"
        },
        {
          "internalType": "uint256",
          "name": "_token1Amount",
          "type": "uint256"
        },
        {
          "internalType": "uint160",
          "name": "sqrtPriceX96",
          "type": "uint160"
        },
        {
          "internalType": "uint256",
          "name": "amountToBuy",
          "type": "uint256"
        }
      ],
      "name": "addLiquidityLockSwap",
      "outputs": [
        {
          "internalType": "uint256",
          "name": "tokenId",
          "type": "uint256"
        }
      ],
      "stateMutability": "payable",
      "type": "function"
    },
    {
      "inputs": [
        {
          "internalType": "uint256",
          "name": "",
          "type": "uint256"
        }
      ],
      "name": "allTokens",
      "outputs": [
        {
          "internalType": "address",
          "name": "tokenAddress",
          "type": "address"
        },
        {
          "internalType": "uint256",
          "name": "timeStamp",
          "type": "uint256"
        },
        {
          "internalType": "uint256",
          "name": "tokenId",
          "type": "uint256"
        },
        {
          "internalType": "bool",
          "name": "liquidityRemoved",
          "type": "bool"
        },
        {
          "internalType": "uint256",
          "name": "zerofeedays",
          "type": "uint256"
        },
        {
          "internalType": "bool",
          "name": "isTokenDEAD",
          "type": "bool"
        },
        {
          "internalType": "uint256",
          "name": "feeFromSwap",
          "type": "uint256"
        },
        {
          "internalType": "uint256",
          "name": "lockId",
          "type": "uint256"
        },
        {
          "internalType": "bool",
          "name": "isLocked",
          "type": "bool"
        },
        {
          "internalType": "uint256",
          "name": "unlockTime",
          "type": "uint256"
        }
      ],
      "stateMutability": "view",
      "type": "function"
    },
    {
      "inputs": [
        {
          "internalType": "uint256",
          "name": "tokenId",
          "type": "uint256"
        },
        {
          "internalType": "address",
          "name": "spender",
          "type": "address"
        }
      ],
      "name": "approveNFT",
      "outputs": [],
      "stateMutability": "nonpayable",
      "type": "function"
    },
    {
      "inputs": [
        {
          "internalType": "uint256",
          "name": "tokenId",
          "type": "uint256"
        }
      ],
      "name": "burnPositionNFT",
      "outputs": [],
      "stateMutability": "nonpayable",
      "type": "function"
    },
    {
      "inputs": [
        {
          "internalType": "uint256",
          "name": "amount",
          "type": "uint256"
        }
      ],
      "name": "callAddRewards",
      "outputs": [],
      "stateMutability": "payable",
      "type": "function"
    },
    {
      "inputs": [
        {
          "internalType": "uint256",
          "name": "tokenId",
          "type": "uint256"
        }
      ],
      "name": "collectFees",
      "outputs": [],
      "stateMutability": "nonpayable",
      "type": "function"
    },
    {
      "inputs": [
        {
          "internalType": "uint256",
          "name": "amount",
          "type": "uint256"
        }
      ],
      "name": "convertWETHToETH",
      "outputs": [],
      "stateMutability": "nonpayable",
      "type": "function"
    },
    {
      "inputs": [
        {
          "internalType": "address",
          "name": "token0",
          "type": "address"
        },
        {
          "internalType": "address",
          "name": "token1",
          "type": "address"
        },
        {
          "internalType": "uint160",
          "name": "sqrtPriceX96",
          "type": "uint160"
        }
      ],
      "name": "createAndInitializePoolIfNecessary",
      "outputs": [
        {
          "internalType": "address",
          "name": "pool",
          "type": "address"
        }
      ],
      "stateMutability": "nonpayable",
      "type": "function"
    },
    {
      "inputs": [
        {
          "internalType": "string",
          "name": "_name",
          "type": "string"
        },
        {
          "internalType": "string",
          "name": "_symbol",
          "type": "string"
        },
        {
          "internalType": "uint256",
          "name": "_supply",
          "type": "uint256"
        }
      ],
      "name": "deployToken",
      "outputs": [
        {
          "internalType": "address",
          "name": "",
          "type": "address"
        }
      ],
      "stateMutability": "nonpayable",
      "type": "function"
    },
    {
      "inputs": [],
      "name": "getAllTokens",
      "outputs": [
        {
          "internalType": "address[]",
          "name": "addresses",
          "type": "address[]"
        },
        {
          "internalType": "uint256[]",
          "name": "tokenIds",
          "type": "uint256[]"
        },
        {
          "internalType": "uint256[]",
          "name": "timestamps",
          "type": "uint256[]"
        },
        {
          "internalType": "bool[]",
          "name": "liquidityRemovedStatus",
          "type": "bool[]"
        },
        {
          "internalType": "uint256[]",
          "name": "zerofeesdays",
          "type": "uint256[]"
        },
        {
          "internalType": "bool[]",
          "name": "isTokenDead",
          "type": "bool[]"
        },
        {
          "internalType": "uint256[]",
          "name": "feefromswap",
          "type": "uint256[]"
        },
        {
          "internalType": "uint256[]",
          "name": "lockIds",
          "type": "uint256[]"
        },
        {
          "internalType": "bool[]",
          "name": "isTokenLocked",
          "type": "bool[]"
        },
        {
          "internalType": "uint256[]",
          "name": "unlockTimes",
          "type": "uint256[]"
        }
      ],
      "stateMutability": "view",
      "type": "function"
    },
    {
      "inputs": [
        {
          "internalType": "uint256",
          "name": "tokenId",
          "type": "uint256"
        }
      ],
      "name": "getPosition",
      "outputs": [
        {
          "internalType": "uint96",
          "name": "nonce",
          "type": "uint96"
        },
        {
          "internalType": "address",
          "name": "operator",
          "type": "address"
        },
        {
          "internalType": "address",
          "name": "token0",
          "type": "address"
        },
        {
          "internalType": "address",
          "name": "token1",
          "type": "address"
        },
        {
          "internalType": "uint24",
          "name": "fee",
          "type": "uint24"
        },
        {
          "internalType": "int24",
          "name": "tickLower",
          "type": "int24"
        },
        {
          "internalType": "int24",
          "name": "tickUpper",
          "type": "int24"
        },
        {
          "internalType": "uint128",
          "name": "liquidity",
          "type": "uint128"
        },
        {
          "internalType": "uint256",
          "name": "feeGrowthInside0LastX128",
          "type": "uint256"
        },
        {
          "internalType": "uint256",
          "name": "feeGrowthInside1LastX128",
          "type": "uint256"
        },
        {
          "internalType": "uint128",
          "name": "tokensOwed0",
          "type": "uint128"
        },
        {
          "internalType": "uint128",
          "name": "tokensOwed1",
          "type": "uint128"
        }
      ],
      "stateMutability": "view",
      "type": "function"
    },
    {
      "inputs": [
        {
          "internalType": "address",
          "name": "tokenA",
          "type": "address"
        },
        {
          "internalType": "address",
          "name": "tokenB",
          "type": "address"
        },
        {
          "internalType": "uint24",
          "name": "fee",
          "type": "uint24"
        }
      ],
      "name": "get_Pool",
      "outputs": [
        {
          "internalType": "address",
          "name": "pool",
          "type": "address"
        }
      ],
      "stateMutability": "view",
      "type": "function"
    },
    {
      "inputs": [],
      "name": "locker",
      "outputs": [
        {
          "internalType": "contract ILocker",
          "name": "",
          "type": "address"
        }
      ],
      "stateMutability": "view",
      "type": "function"
    },
    {
      "inputs": [],
      "name": "lockerAddress",
      "outputs": [
        {
          "internalType": "address",
          "name": "",
          "type": "address"
        }
      ],
      "stateMutability": "view",
      "type": "function"
    },
    {
      "inputs": [
        {
          "internalType": "bytes[]",
          "name": "data",
          "type": "bytes[]"
        }
      ],
      "name": "multicall",
      "outputs": [],
      "stateMutability": "payable",
      "type": "function"
    },
    {
      "inputs": [
        {
          "internalType": "uint256",
          "name": "amount",
          "type": "uint256"
        }
      ],
      "name": "notifyFundsNeeded",
      "outputs": [],
      "stateMutability": "nonpayable",
      "type": "function"
    },
    {
      "inputs": [],
      "name": "owner",
      "outputs": [
        {
          "internalType": "address",
          "name": "",
          "type": "address"
        }
      ],
      "stateMutability": "view",
      "type": "function"
    },
    {
      "inputs": [],
      "name": "pendingFunds",
      "outputs": [
        {
          "internalType": "uint256",
          "name": "",
          "type": "uint256"
        }
      ],
      "stateMutability": "view",
      "type": "function"
    },
    {
      "inputs": [],
      "name": "positionManager",
      "outputs": [
        {
          "internalType": "contract INonfungiblePositionManager",
          "name": "",
          "type": "address"
        }
      ],
      "stateMutability": "view",
      "type": "function"
    },
    {
      "inputs": [
        {
          "internalType": "address",
          "name": "_stakingContract",
          "type": "address"
        },
        {
          "internalType": "uint256",
          "name": "amountRequested",
          "type": "uint256"
        }
      ],
      "name": "provideFundsIfNeeded",
      "outputs": [],
      "stateMutability": "nonpayable",
      "type": "function"
    },
    {
      "inputs": [
        {
          "internalType": "uint256",
          "name": "tokenId",
          "type": "uint256"
        },
        {
          "internalType": "uint128",
          "name": "liquidityToRemove",
          "type": "uint128"
        }
      ],
      "name": "removeLiquidity",
      "outputs": [],
      "stateMutability": "nonpayable",
      "type": "function"
    },
    {
      "inputs": [
        {
          "internalType": "uint256",
          "name": "tokenId",
          "type": "uint256"
        }
      ],
      "name": "resetNoFeeDays",
      "outputs": [],
      "stateMutability": "nonpayable",
      "type": "function"
    },
    {
      "inputs": [
        {
          "internalType": "address payable",
          "name": "_stakingAddress",
          "type": "address"
        }
      ],
      "name": "setStakingAddress",
      "outputs": [],
      "stateMutability": "nonpayable",
      "type": "function"
    },
    {
      "inputs": [],
      "name": "stakingAddress",
      "outputs": [
        {
          "internalType": "address payable",
          "name": "",
          "type": "address"
        }
      ],
      "stateMutability": "view",
      "type": "function"
    },
    {
      "inputs": [
        {
          "internalType": "uint256",
          "name": "tokenId",
          "type": "uint256"
        },
        {
          "internalType": "uint256",
          "name": "_lockId",
          "type": "uint256"
        },
        {
          "internalType": "bool",
          "name": "locked",
          "type": "bool"
        },
        {
          "internalType": "uint256",
          "name": "unlockDate",
          "type": "uint256"
        }
      ],
      "name": "storeLockID",
      "outputs": [],
      "stateMutability": "nonpayable",
      "type": "function"
    },
    {
      "inputs": [
        {
          "internalType": "uint256",
          "name": "amountIn",
          "type": "uint256"
        },
        {
          "internalType": "address",
          "name": "tokenAddress",
          "type": "address"
        }
      ],
      "name": "swapETHforTokens",
      "outputs": [
        {
          "internalType": "uint256",
          "name": "amountOut",
          "type": "uint256"
        }
      ],
      "stateMutability": "payable",
      "type": "function"
    },
    {
      "inputs": [],
      "name": "swapRouter",
      "outputs": [
        {
          "internalType": "contract ISwapRouter",
          "name": "",
          "type": "address"
        }
      ],
      "stateMutability": "view",
      "type": "function"
    },
    {
      "inputs": [
        {
          "internalType": "uint256",
          "name": "amountIn",
          "type": "uint256"
        },
        {
          "internalType": "address",
          "name": "tokenAddress",
          "type": "address"
        },
        {
          "internalType": "uint256",
          "name": "tokenId",
          "type": "uint256"
        }
      ],
      "name": "swapTokensForWETH",
      "outputs": [
        {
          "internalType": "uint256",
          "name": "amountOut",
          "type": "uint256"
        }
      ],
      "stateMutability": "payable",
      "type": "function"
    },
    {
      "inputs": [],
      "name": "tokenCount",
      "outputs": [
        {
          "internalType": "uint256",
          "name": "",
          "type": "uint256"
        }
      ],
      "stateMutability": "view",
      "type": "function"
    },
    {
      "inputs": [
        {
          "internalType": "address",
          "name": "tokenAddress",
          "type": "address"
        },
        {
          "internalType": "address",
          "name": "to",
          "type": "address"
        },
        {
          "internalType": "uint256",
          "name": "amount",
          "type": "uint256"
        }
      ],
      "name": "transferTokens",
      "outputs": [],
      "stateMutability": "nonpayable",
      "type": "function"
    },
    {
      "inputs": [],
      "name": "tryToSendFunds",
      "outputs": [],
      "stateMutability": "nonpayable",
      "type": "function"
    },
    {
      "inputs": [],
      "name": "uniswapFactory",
      "outputs": [
        {
          "internalType": "contract IUniswapV3Factory",
          "name": "",
          "type": "address"
        }
      ],
      "stateMutability": "view",
      "type": "function"
    },
    {
      "inputs": [
        {
          "internalType": "uint256",
          "name": "tokenId",
          "type": "uint256"
        }
      ],
      "name": "updateNoFeeDays",
      "outputs": [],
      "stateMutability": "nonpayable",
      "type": "function"
    },
    {
      "inputs": [],
      "name": "weth",
      "outputs": [
        {
          "internalType": "address",
          "name": "",
          "type": "address"
        }
      ],
      "stateMutability": "view",
      "type": "function"
    },
    {
      "stateMutability": "payable",
      "type": "receive"
    }
  ],
  "bytecode": "0x6080346200010957601f62003a7c38819003918201601f19168301916001600160401b038311848410176200010e5780849260a09460405283398101031262000109576200004d8162000124565b6200005b6020830162000124565b916200006a6040820162000124565b916200008760806200007f6060850162000124565b930162000124565b91655af3107a4000600a5560018060a01b03809481808095169760018060a01b031998808a600154161760015589600954161760095516876002541617600255168560035416176003551683600454161760045533836005541617600555169081816007541617600755600854161760085560405161394290816200013a8239f35b600080fd5b634e487b7160e01b600052604160045260246000fd5b51906001600160a01b0382168203620001095756fe608060405260043610156200001a575b36156200001857005b005b6000803560e01c8063247932be146200270b5780632855d76a146200267e5780632a5c792a14620023735780633675f29b146200234a5780633a93babb14620022485780633fc8cef3146200221f5780634280dd5e1462001fc557806351246d6e1462001e89578063634282af1462001dd35780636e9551d71462001cdf578063791b98bc1462001cb6578063795a41de1462001c3f5780637abac5041462001bcb5780637c6bc9be1462001bab5780638bdb2afa1462001b825780638c3a65a21462001a915780638da5cb5b1462001a68578063911757ba146200180b5780639f181b5e14620017ec578063a64b6e5f146200172b578063ac9650d814620015e2578063ad1b9e3214620014c7578063ae3b05d414620014a7578063b17acdcd146200134e578063b8bd169714620009c3578063bbda52ba1462000943578063be5ef17614620007cb578063c31c9c0714620007a2578063cbf0ed6b1462000701578063d7b4be2414620006d8578063d7b96d4e14620006af578063eb02c301146200047f578063f4e0d9ac146200041f5763fde16ed314620001bf57506200000f565b60403660031901126200041c5760043590620001da6200283f565b6001600160a01b038381600254168260045416620001fe84600554163314620028d6565b604051809263095ea7b360e01b82528188816200023860209c8d9760048401602090939291936001600160a01b0360408201951681520152565b03925af190811562000411578591620003dd575b5015620003995791816200030e93818794600254169360405194620002718662002937565b85521684840152612710604084015233606084015260808301528460a08301528460c08301526004541660405180809581946304e45aaf60e01b83526004830191909160c060e0820193816001600160a01b039182815116855282602082015116602086015262ffffff60408201511660408601528260608201511660608601526080810151608086015260a081015160a0860152015116910152565b039134905af19182156200038d579162000355575b507fdb04c7a6d4758fd55d738ebc67e7f3010ac922be00771ef29521a4090d1eb13f82604051838152a1604051908152f35b90508181813d831162000385575b6200036f818362002971565b810103126200038057513862000323565b600080fd5b503d62000363565b604051903d90823e3d90fd5b6064856040519062461bcd60e51b82526004820152600f60248201527f417070726f76616c206661696c656400000000000000000000000000000000006044820152fd5b620004029150863d881162000409575b620003f9818362002971565b81019062002a93565b386200024c565b503d620003ed565b6040513d87823e3d90fd5b80fd5b50346200041c5760203660031901126200041c576004356001600160a01b038082168092036200047b576200045a90600554163314620028d6565b73ffffffffffffffffffffffffffffffffffffffff19600654161760065580f35b8280fd5b50346200041c5760203660031901126200041c57620004ab6001600160a01b03600554163314620028d6565b6001600160a01b03600154169060405180927f99fbab8800000000000000000000000000000000000000000000000000000000825260043560048301528160246101809586935afa8015620006a4578280928180818290839284968599868098819b620005a4575b50506040519b6bffffffffffffffffffffffff168c526001600160a01b031660208c01526001600160a01b031660408b01526001600160a01b031660608a015262ffffff16608089015260020b60a088015260020b60c08701526fffffffffffffffffffffffffffffffff948580941660e08801526101008701526101208601521661014084015216610160820152f35b9b509b50505050505050505050508281813d83116200069c575b620005ca818362002971565b81010312620006985780516bffffffffffffffffffffffff811681036200047b57620005f96020830162002a67565b92620006086040840162002a67565b91620006176060850162002a67565b9360808101519262ffffff841684036200041c57506200063a60a0820162002cc9565b6200064860c0830162002cc9565b6200065660e0840162002cab565b916101008401519561012085015198620006836101606200067b610140890162002cab565b970162002cab565b969a9890919293949799959698388062000513565b5080fd5b503d620005be565b6040513d84823e3d90fd5b50346200041c57806003193601126200041c5760206001600160a01b0360085416604051908152f35b50346200041c57806003193601126200041c5760206001600160a01b0360065416604051908152f35b50346200041c5760203660031901126200041c576200072d6001600160a01b03600554163314620028d6565b6004358152600d6020527f6f3e068cb934f31cfea69b2f72e697abfe27982d58fe7fcabb327c96c89cd33a6040808320548360046200076c8362002884565b50015560ff60056200078e6004620007848562002884565b5001549362002884565b50015416825191825215156020820152a180f35b50346200041c57806003193601126200041c5760206001600160a01b0360045416604051908152f35b50346200041c5760403660031901126200041c5780620007ea62002856565b602435906001600160a01b03908160025416604051906370a0823160e01b82523060048301526020918281602481855afa9081156200093857879162000900575b5085111562000838578580f35b60405163a9059cbb60e01b81526001600160a01b038416600482015260248101869052908290829060449082908a905af18015620008f557620008d2575b50501690813b15620008ce578291602483926040519485938492639b5ceb3560e01b845260048401525af18015620006a457620008b6575b808080808580f35b620008c19062002922565b6200041c578038620008ae565b5050fd5b81620008ec92903d106200040957620003f9818362002971565b50388062000876565b6040513d88823e3d90fd5b809750838092503d831162000930575b6200091c818362002971565b81010312620003805784879651906200082b565b503d62000910565b6040513d89823e3d90fd5b50346200041c5760803660031901126200041c5760443580151581036200069857620009b7906004358352600d602052620009b1604084205491620009888362002884565b50600760243591015560086200099e8462002884565b50019060ff801983541691151516179055565b62002884565b50600960643591015580f35b5060e03660031901126200041c57620009db62002856565b620009e56200283f565b90620009f06200286d565b906001600160a01b0360a4351660a435036200038057602460206001600160a01b0360025416604051928380926370a0823160e01b82523060048301525afa9081156200041157859162001316575b50600a5411620012ac576001546040516309f56ab160e11b81526001600160a01b0383811660048301528581166024830152612710604483015260a435811660648301529091602091839160849183918a91165af180156200041157859062001260575b6001600160a01b039150166001600160a01b0382167f4f2ce4e40f623ca765fc0167a25cb7842ceaafb8d82d3dec26ca0d0e0d2d48968680a362000af66064356001600160a01b03600154168362002cd8565b62000b106084356001600160a01b03600154168562002cd8565b61012c420142116200124c57604051928361016081011067ffffffffffffffff6101608601111762000f4c576001600160a01b03809261016086016040521684521660208301526127106040830152620d899f196060830152620d89a0608083015260643560a083015260843560c08301528260e0830152826101008301523061012083015261012c420161014083015260806101406101646001600160a01b0360015416948660405196879485937f883164560000000000000000000000000000000000000000000000000000000085526001600160a01b0381511660048601526001600160a01b03602082015116602486015262ffffff6040820151166044860152606081015160020b60648601528781015160020b608486015260a081015160a486015260c081015160c486015260e081015160e48601526101008101516101048601526001600160a01b036101208201511661012486015201516101448401525af191821562001241578392620011f7575b507ffdb748c915e4e67b4bb23287bf4295a4595ce48b50343214369f72ccfb974cfa6020604051848152a1826001600160a01b03600154166001600160a01b036007541690803b156200047b5760405163095ea7b360e01b81526001600160a01b039290921660048301526024820185905282908290604490829084905af18015620006a457620011df575b5060206001600160a01b036007541660846001600160a01b036001541660405194859384927f7f4d4fa80000000000000000000000000000000000000000000000000000000084526004840152886024840152600660448401523060648401525af180156200113b57620011ae575b5060c43562000f62575b60064201421162000f1157604051908161014081011067ffffffffffffffff6101408401111762000f4c576001600160a01b039061014083016040521681526020810142815260408201838152606083018581526080840186815260a0850187815260c086019188835260e087019389855261010088019560018752610120890197600642018952600c546801000000000000000081101562000f385780600162000e3a9201600c5562002884565b9a909a62000f255762000ec39362000ee79896938c600160099d9c9a98956001600160a01b0362000ea596511673ffffffffffffffffffffffffffffffffffffffff19845416178355519101555160028d015551151560038c019060ff801983541691151516179055565b5160048a0155511515600589019060ff801983541691151516179055565b516006870155516007860155511515600885019060ff801983541691151516179055565b51910155600c54600019810190811162000f11576040838360209552600d85522055604051908152f35b602483634e487b7160e01b81526011600452fd5b60248d634e487b7160e01b815280600452fd5b60248d634e487b7160e01b81526041600452fd5b634e487b7160e01b600052604160045260246000fd5b82602062000fcd6001600160a01b03600254166001600160a01b036004541662000f996001600160a01b03600554163314620028d6565b60405163095ea7b360e01b81526001600160a01b03909116600482015260c435602482015293849283919082906044820190565b03925af19081156200113b5784916200118a575b50156200114657620010ba60206001600160a01b036002541660405190620010098262002937565b81526001600160a01b03841682820152612710604082015233606082015260c43560808201528560a08201528560c08201526001600160a01b036004541660405180809581946304e45aaf60e01b83526004830191909160c060e0820193816001600160a01b039182815116855282602082015116602086015262ffffff60408201511660408601528260608201511660608601526080810151608086015260a081015160a0860152015116910152565b039134905af19081156200113b57849162001102575b5060207fdb04c7a6d4758fd55d738ebc67e7f3010ac922be00771ef29521a4090d1eb13f91604051908152a162000d8b565b90506020813d60201162001132575b81620011206020938362002971565b810103126200038057516020620010d0565b3d915062001111565b6040513d86823e3d90fd5b606460405162461bcd60e51b815260206004820152600f60248201527f417070726f76616c206661696c656400000000000000000000000000000000006044820152fd5b620011a7915060203d6020116200040957620003f9818362002971565b3862000fe1565b602090813d8311620011d7575b620011c7818362002971565b8101031262000380573862000d81565b503d620011bb565b620011ea9062002922565b6200047b57823862000d12565b9091506080813d60801162001238575b81620012166080938362002971565b810103126200047b576200122f60208251920162002cab565b50903862000c86565b3d915062001207565b6040513d85823e3d90fd5b602484634e487b7160e01b81526011600452fd5b506020813d602011620012a3575b816200127d6020938362002971565b810103126200129f57620012996001600160a01b039162002a67565b62000aa3565b8480fd5b3d91506200126e565b608460405162461bcd60e51b815260206004820152602760248201527f4e6f7420656e6f756768205745544820696e2074686520666163746f7279206360448201527f6f6e7472616374000000000000000000000000000000000000000000000000006064820152fd5b90506020813d60201162001345575b81620013346020938362002971565b810103126200038057513862000a3f565b3d915062001325565b50346200041c5760203660031901126200041c57600435816040620014096001600160a01b036200138581600554163314620028d6565b825190620013938262002954565b85825230602083019081526fffffffffffffffffffffffffffffffff85840181905260608401818152600154875163fc6f786560e01b81528651600482015293516001600160a01b0316602485015260409095015182166044840152511660648201529485939190921691839182906084820190565b03925af191821562001241577fa54e6c2fc0861aa9c991b26891d71059d517983b9e84b91020f42609c452eb9d92849285916200146a575b506200146490604051938493846040919493926060820195825260208201520152565b0390a180f35b62001464935062001497915060403d6040116200149f575b6200148e818362002971565b81019062002a7c565b909262001441565b503d62001482565b50346200041c57806003193601126200041c57620014c462002af1565b80f35b5060203660031901126200041c576004356001600160a01b03906200154360208284600554163314620014fa81620028d6565b85600254169062001510876006541691620028d6565b8760405180968195829463095ea7b360e01b845260048401602090939291936001600160a01b0360408201951681520152565b03925af19081156200113b578491620015be575b50156200114657829160065416803b15620008ce5782906004604051809481937f14d6aed00000000000000000000000000000000000000000000000000000000083525af18015620006a457620015ab5750f35b620015b69062002922565b6200041c5780f35b620015db915060203d6020116200040957620003f9818362002971565b3862001557565b5060208060031936011262000698576004359067ffffffffffffffff808311620017095736602384011215620017095782600401358181116200129f576024906005903660248260051b880101116200172757943681900360421901906000198701878111895b89811062001655578a80f35b8162001714578083036200170d57345b8b8883891b8701013587811215620006985786019189830135908b82116200047b5760448094019180360383136200170957839281604051928392833781018481520391305af1620016b662002aad565b5015620016c7575060010162001649565b897f4d756c746963616c6c20657865637574696f6e206661696c6564000000000000606492601a8b6040519462461bcd60e51b86526004860152840152820152fd5b8380fd5b8a62001665565b868b634e487b7160e01b81526011600452fd5b8680fd5b50346200041c5760603660031901126200041c57620017b760206200174f62002856565b620017596200283f565b9060443591856001600160a01b036200177881600554163314620028d6565b6200178585151562002a1b565b60405180978196829563a9059cbb60e01b845260048401602090939291936001600160a01b0360408201951681520152565b0393165af18015620006a457620017cc575080f35b620017e89060203d6020116200040957620003f9818362002971565b5080f35b50346200041c57806003193601126200041c5760209054604051908152f35b50346200041c5760403660031901126200041c576004356024356fffffffffffffffffffffffffffffffff9081811680910362001709576001600160a01b03916200185c83600554163314620028d6565b838552600d6020526040852054928060015416926040519060a082019082821067ffffffffffffffff83111762000f4c5760a485938a809860409586528b83526020830194855285830182815260608401838152608085019142835288519b8c9889977f0c49ccbe000000000000000000000000000000000000000000000000000000008952516004890152511660248701525160448601525160648501525160848401525af19182156200113b576040936200199f9362001a47575b5060015416908351906200192d8262002954565b87825230602083015280858301526060820152835194858094819363fc6f786560e01b83526004830191909160606080820193805183526001600160a01b036020820151166020840152816040820151916fffffffffffffffffffffffffffffffff8093166040860152015116910152565b03925af19081156200113b577f1dc8bb69df2b8e91fbdcbfcf93d951b3f0000f085a95fe3f7946d6161439245d928591869362001a14575b50620019e560039162002884565b5001805460ff191660011790556040805194855260208501919091528301523391606090a2620014c462002af1565b6003919350620019e5925062001a3b9060403d6040116200149f576200148e818362002971565b929092939150620019d7565b62001a6190853d87116200149f576200148e818362002971565b5062001919565b50346200041c57806003193601126200041c5760206001600160a01b0360055416604051908152f35b50346200041c5760203660031901126200041c576004356001600160a01b0360065416330362001b1857600e5481810180911162001b02577fd5e85995d9bdcdafb72531ec59faef29167c16780583ca2068587fe896170c4791602091600e55604051908152a1620014c462002af1565b634e487b7160e01b600052601160045260246000fd5b608460405162461bcd60e51b815260206004820152602160248201527f4f6e6c79207374616b696e6720636f6e74726163742063616e206e6f7469667960448201527f2e000000000000000000000000000000000000000000000000000000000000006064820152fd5b50346200041c57806003193601126200041c5760206001600160a01b0360035416604051908152f35b50346200041c57806003193601126200041c576020600e54604051908152f35b50346200041c5760203660031901126200041c57806001600160a01b0360015416803b1562001c3c578180916024604051809481937f42966c6800000000000000000000000000000000000000000000000000000000835260043560048401525af18015620006a457620015ab5750f35b50fd5b50346200041c5760403660031901126200041c578062001c5e6200283f565b6001600160a01b0360095416803b15620008ce5760405163095ea7b360e01b81526001600160a01b039290921660048084019190915235602483015282908290604490829084905af18015620006a457620015ab5750f35b50346200041c57806003193601126200041c5760206001600160a01b0360015416604051908152f35b50346200041c5760603660031901126200041c5762001cfd62002856565b9062001d086200283f565b9160443562ffffff81168091036200047b5760209060646001600160a01b0393849283600354169084604051998a9687957f1698ee8200000000000000000000000000000000000000000000000000000000875216600486015216602484015260448301525afa9182156200038d57809262001d8c575b6020838360405191168152f35b9091506020833d60201162001dca575b8162001dab6020938362002971565b810103126200041c575062001dc260209262002a67565b903862001d7f565b3d915062001d9c565b50346200041c5760203660031901126200041c5760043590600c548210156200041c5761014062001e048362002884565b506001600160a01b0381541690600181015490600281015460ff600383015416600483015460ff60058501541690600685015492600786015494600960ff60088901541697015497604051998a5260208a01526040890152151560608801526080870152151560a086015260c085015260e08401521515610100830152610120820152f35b50346200041c5760603660031901126200041c5762001ea762002856565b62001eb16200283f565b62001f0d602062001ec16200286d565b6001546040516309f56ab160e11b81526001600160a01b038781166004830152958616602482015261271060448201529185166064830152909283918516908290889082906084820190565b03925af19081156200113b57849162001f59575b5090602093817f4f2ce4e40f623ca765fc0167a25cb7842ceaafb8d82d3dec26ca0d0e0d2d4896931692839260405195169180a38152f35b90506020813d60201162001fbc575b8162001f776020938362002971565b810103126200170957906020938162001fb17f4f2ce4e40f623ca765fc0167a25cb7842ceaafb8d82d3dec26ca0d0e0d2d48969462002a67565b925092509362001f21565b3d915062001f68565b5060603660031901126200041c576004358062001fe16200283f565b6001600160a01b0393846005541633149462001ffd86620028d6565b808415936200200d851562002a1b565b6200201d826004541698620028d6565b16956040519063095ea7b360e01b82528180620020576020998a9460048401602090939291936001600160a01b0360408201951681520152565b0381868b5af190811562001241578391620021fd575b50156200039957938095856200212d966002541660405192620020908462002937565b83528383015261271060408301523060608301528560808301528360a08301528360c08301526004541660405180809881946304e45aaf60e01b83526004830191909160c060e0820193816001600160a01b039182815116855282602082015116602086015262ffffff60408201511660408601528260608201511660608601526080810151608086015260a081015160a0860152015116910152565b039134905af1938415620021f0578194620021bb575b506044358152600d85526040812054918380046001141715620021a7575060646200217060069262002884565b5092049101557fdb04c7a6d4758fd55d738ebc67e7f3010ac922be00771ef29521a4090d1eb13f82604051838152a1604051908152f35b80634e487b7160e01b602492526011600452fd5b9093508481813d8311620021e8575b620021d6818362002971565b81010312620003805751923862002143565b503d620021ca565b50604051903d90823e3d90fd5b620022189150863d88116200040957620003f9818362002971565b386200206d565b50346200041c57806003193601126200041c5760206001600160a01b0360025416604051908152f35b50346200041c5760603660031901126200041c5767ffffffffffffffff6004358181116200047b57620022809036906004016200280e565b91906024358281116200129f576200229d9036906004016200280e565b909160405194610b5a8087019587871090871117620023365786959492620022e99492620022da9262002db38939606087526060870191620029fa565b918483036020860152620029fa565b906040604435910152039082f08015620021f057906001600160a01b0360209216807f91d24864a084ab70b268a1f865e757ca12006cf298d763b6be697302ef86498c6040519380a28152f35b602488634e487b7160e01b81526041600452fd5b50346200041c57806003193601126200041c5760206001600160a01b0360075416604051908152f35b50346200041c57806003193601126200041c576200239e6001600160a01b03600554163314620028d6565b600c5490620023ad8262002994565b91620023bd604051938462002971565b808352620023cb8162002994565b601f1901366020850137620023e081620029ad565b92620023ec82620029ad565b620023f783620029ad565b6200240284620029ad565b6200240d85620029ad565b906200241986620029ad565b926200242587620029ad565b946200243188620029ad565b966200243d89620029ad565b988a5b818110620025535750506040519a8b9a8b6020610160610140928381019381528651809452019401915b818110620025305750505094620024df6200251c9895620024d08d620024fd97620024c16200252c9f9e9c98620024b2896200250c9e86620024ee9c036020880152620027a0565b908482036040860152620027a0565b916060818403910152620027d6565b8d810360808f015290620027a0565b908b820360a08d0152620027d6565b9089820360c08b0152620027a0565b9087820360e0890152620027a0565b90858203610100870152620027d6565b90838203610120850152620027a0565b0390f35b82516001600160a01b031685528e9d50602094850194909201916001016200246a565b808a620026528b9c9d9e9f95969798999a9b9360036001958e8e8e8e8e8e62002593896001600160a01b03620025898262002884565b50541692620029e5565b528d620025b1896002620025a78262002884565b50015492620029e5565b52620025c3888d620025a78262002884565b52620025e487620025d48162002884565b5060ff98899101541692620029e5565b9015159052620025fb866004620025a78262002884565b526200261a858560056200260f8362002884565b5001541692620029e5565b901515905262002631846006620025a78262002884565b5262002644836007620025a78262002884565b5260086200260f8362002884565b90151590528c6200266a826009620025a78262002884565b52019b9a9998979695949392919b62002440565b50346200041c5760203660031901126200041c57806001600160a01b03620026ac81600554163314620028d6565b60025416803b1562001c3c5781906024604051809481937f2e1a7d4d00000000000000000000000000000000000000000000000000000000835260043560048401525af18015620006a45762002700575080f35b620014c49062002922565b50346200041c5760203660031901126200041c57620027376001600160a01b03600554163314620028d6565b6004358152600d60205260046200276a60408320546002836200275a8362002884565b5001541015620027805762002884565b50018054600019811462000f1157600101905580f35b60056200278d8262002884565b5001805460ff1916600117905562002884565b90815180825260208080930193019160005b828110620027c1575050505090565b835185529381019392810192600101620027b2565b90815180825260208080930193019160005b828110620027f7575050505090565b8351151585529381019392810192600101620027e8565b9181601f84011215620003805782359167ffffffffffffffff83116200038057602083818601950101116200038057565b602435906001600160a01b03821682036200038057565b600435906001600160a01b03821682036200038057565b604435906001600160a01b03821682036200038057565b600c54811015620028c057600a90600c600052027fdf6966c971051c3d54ec59162606531493a51404a002842f56009d7e5cf4a8c70190600090565b634e487b7160e01b600052603260045260246000fd5b15620028de57565b606460405162461bcd60e51b815260206004820152601760248201527f43616c6c6572206973206e6f7420746865206f776e65720000000000000000006044820152fd5b67ffffffffffffffff811162000f4c57604052565b60e0810190811067ffffffffffffffff82111762000f4c57604052565b6080810190811067ffffffffffffffff82111762000f4c57604052565b90601f8019910116810190811067ffffffffffffffff82111762000f4c57604052565b67ffffffffffffffff811162000f4c5760051b60200190565b90620029b98262002994565b620029c8604051918262002971565b8281528092620029db601f199162002994565b0190602036910137565b8051821015620028c05760209160051b010190565b908060209392818452848401376000828201840152601f01601f1916010190565b1562002a2357565b606460405162461bcd60e51b815260206004820152602060248201527f416d6f756e74206d7573742062652067726561746572207468616e207a65726f6044820152fd5b51906001600160a01b03821682036200038057565b919082604091031262000380576020825192015190565b908160209103126200038057518015158103620003805790565b3d1562002aec573d9067ffffffffffffffff821162000f4c576040519162002ae0601f8201601f19166020018462002971565b82523d6000602084013e565b606090565b60025460006001600160a01b038092166040928351916370a0823160e01b83523060048401526020928381602481855afa90811562002ca157859162002c6e575b50600e54809110158062002c64575b62002b4f575b505050505050565b839060448460065416878951958694859363a9059cbb60e01b8552600485015260248401525af1801562002c5a5762002c38575b5060065416600e54813b15620017095783916024839287519485938492639b5ceb3560e01b845260048401525af1801562002c2e5762002bfa575b507f8ff98a7f9bedb57df86769d07998b067fba595272053e3690d3412aff560a82c9192600e549051908152a1600e5538808080808062002b47565b9162002c277f8ff98a7f9bedb57df86769d07998b067fba595272053e3690d3412aff560a82c9362002922565b9162002bbe565b84513d85823e3d90fd5b62002c5290833d85116200040957620003f9818362002971565b503862002b83565b85513d86823e3d90fd5b5080151562002b41565b90508381813d831162002c99575b62002c88818362002971565b810103126200129f57513862002b32565b503d62002c7c565b86513d87823e3d90fd5b51906fffffffffffffffffffffffffffffffff821682036200038057565b51908160020b82036200038057565b60405163095ea7b360e01b602082019081526001600160a01b03939093166024820152604480820194909452928352600092839290839062002d1c60648262002971565b51925af162002d2a62002aad565b8162002d7e575b501562002d3a57565b606460405162461bcd60e51b815260206004820152600260248201527f53410000000000000000000000000000000000000000000000000000000000006044820152fd5b805180159250821562002d95575b50503862002d31565b62002daa925060208091830101910162002a93565b388062002d8c56fe60406080815234620003bb5762000b5a803803806200001e81620003c0565b9283398101606082820312620003bb5781516001600160401b039290838111620003bb578262000050918301620003e6565b60209283830151858111620003bb5786916200006e918501620003e6565b920151938151818111620002bb576003908154906001948583811c93168015620003b0575b888410146200039a578190601f9384811162000344575b508890848311600114620002dd57600092620002d1575b505060001982851b1c191690851b1782555b8451928311620002bb5760049485548581811c91168015620002b0575b888210146200029b5782811162000250575b5086918411600114620001e557938394918492600095620001d9575b50501b92600019911b1c19161781555b670de0b6b3a764000092838102938185041490151715620001ad573315620001c25760025490838201809211620001ad57506000917fddf252ad1be2c89b69c2b068fc378daa952ba7f163c4a11628f55a4df523b3ef9160025533835282815284832084815401905584519384523393a3516107019081620004598239f35b601190634e487b7160e01b6000525260246000fd5b602490600085519163ec442f0560e01b8352820152fd5b0151935038806200011e565b9190601f198416928660005284886000209460005b8a898383106200023857505050106200021d575b50505050811b0181556200012e565b01519060f884600019921b161c19169055388080806200020e565b868601518955909701969485019488935001620001fa565b86600052876000208380870160051c8201928a881062000291575b0160051c019086905b8281106200028457505062000102565b6000815501869062000274565b925081926200026b565b602287634e487b7160e01b6000525260246000fd5b90607f1690620000f0565b634e487b7160e01b600052604160045260246000fd5b015190503880620000c1565b90879350601f19831691866000528a6000209260005b8c8282106200032d575050841162000314575b505050811b018255620000d3565b015160001983871b60f8161c1916905538808062000306565b8385015186558b97909501949384019301620002f3565b90915084600052886000208480850160051c8201928b861062000390575b918991869594930160051c01915b82811062000380575050620000aa565b6000815585945089910162000370565b9250819262000362565b634e487b7160e01b600052602260045260246000fd5b92607f169262000093565b600080fd5b6040519190601f01601f191682016001600160401b03811183821017620002bb57604052565b919080601f84011215620003bb5782516001600160401b038111620002bb576020906200041c601f8201601f19168301620003c0565b92818452828287010111620003bb5760005b8181106200044457508260009394955001015290565b85810183015184820184015282016200042e56fe608060408181526004918236101561001657600080fd5b600092833560e01c91826306fdde031461045057508163095ea7b3146103a457816318160ddd1461038557816323b872dd14610276578163313ce5671461025a57816370a082311461022457816395d89b411461010357508063a9059cbb146100d35763dd62ed3e1461008857600080fd5b346100cf57806003193601126100cf57806020926100a4610573565b6100ac61058e565b6001600160a01b0391821683526001865283832091168252845220549051908152f35b5080fd5b50346100cf57806003193601126100cf576020906100fc6100f2610573565b60243590336105a4565b5160018152f35b8383346100cf57816003193601126100cf5780519082845460018160011c906001831692831561021a575b6020938484108114610207578388529081156101eb5750600114610196575b505050829003601f01601f191682019267ffffffffffffffff841183851017610183575082918261017f92528261052a565b0390f35b80604186634e487b7160e01b6024945252fd5b8787529192508591837f8a35acfbc15ff81a39ae7d344fd709f28e8600b4aa8c65c6b64bfe7fe36bd19b5b8385106101d7575050505083010185808061014d565b8054888601830152930192849082016101c1565b60ff1916878501525050151560051b840101905085808061014d565b60248960228c634e487b7160e01b835252fd5b91607f169161012e565b5050346100cf5760203660031901126100cf57806020926001600160a01b0361024b610573565b16815280845220549051908152f35b5050346100cf57816003193601126100cf576020905160128152f35b9050823461038257606036600319011261038257610292610573565b61029a61058e565b91604435936001600160a01b0383168083526001602052868320338452602052868320549160001983036102d7575b6020886100fc8989896105a4565b86831061033d578115610327573315610311575082526001602090815286832033845281529186902090859003905582906100fc876102c9565b60249084895191634a1406b160e11b8352820152fd5b6024908489519163e602df0560e01b8352820152fd5b87517ffb8f41b2000000000000000000000000000000000000000000000000000000008152339181019182526020820193909352604081018790528291506060010390fd5b80fd5b5050346100cf57816003193601126100cf576020906002549051908152f35b90503461044c578160031936011261044c576103be610573565b602435903315610436576001600160a01b031691821561042057508083602095338152600187528181208582528752205582519081527f8c5be1e5ebec7d5bd14f71427d1e84f3dd0314c0f7b2291e5b200ac8c7c3b925843392a35160018152f35b60249085855191634a1406b160e11b8352820152fd5b6024838686519163e602df0560e01b8352820152fd5b8280fd5b8490843461044c578260031936011261044c578260035460018160011c9060018316928315610520575b6020938484108114610207578388529081156101eb57506001146104ca57505050829003601f01601f191682019267ffffffffffffffff841183851017610183575082918261017f92528261052a565b600387529192508591837fc2575a0e9e593c00f959f8c92f12db2869c3395a3b0502d05e2516446f71f85b5b83851061050c575050505083010185808061014d565b8054888601830152930192849082016104f6565b91607f169161047a565b6020808252825181830181905290939260005b82811061055f57505060409293506000838284010152601f8019910116010190565b81810186015184820160400152850161053d565b600435906001600160a01b038216820361058957565b600080fd5b602435906001600160a01b038216820361058957565b916001600160a01b0380841692831561069a5716928315610669576000908382528160205260408220549083821061061e575091604082827fddf252ad1be2c89b69c2b068fc378daa952ba7f163c4a11628f55a4df523b3ef958760209652828652038282205586815220818154019055604051908152a3565b6040517fe450d38c0000000000000000000000000000000000000000000000000000000081526001600160a01b03919091166004820152602481019190915260448101839052606490fd5b60246040517fec442f0500000000000000000000000000000000000000000000000000000000815260006004820152fd5b60246040517f96c6fd1e00000000000000000000000000000000000000000000000000000000815260006004820152fdfea26469706673582212202e0e435eeb92b7cd9ec181792d496b767fab31a47cbcc7af072467151794edc664736f6c63430008180033a2646970667358221220a148cef70376ef5e2c8f9acf603fcddb1f78681fb9d087d86a4913ea3d29753564736f6c63430008180033",
  "linkReferences": {},
  "deployedLinkReferences": {}
}