{
  "_format": "hh-sol-artifact-1",
  "contractName": "MyFactory",
  "sourceName": "contracts/TestFactory.sol",
  "abi": [
    {
      "inputs": [
        {
          "internalType": "address",
          "name": "_positionManager",
          "type": "address"
        },
        {
          "internalType": "address",
          "name": "_weth",
          "type": "address"
        },
        {
          "internalType": "address",
          "name": "_uniswapFactory",
          "type": "address"
        },
        {
          "internalType": "address",
          "name": "_swapRouter",
          "type": "address"
        }
      ],
      "stateMutability": "nonpayable",
      "type": "constructor"
    },
    {
      "anonymous": false,
      "inputs": [
        {
          "indexed": true,
          "internalType": "uint256",
          "name": "tokenId",
          "type": "uint256"
        },
        {
          "indexed": false,
          "internalType": "uint256",
          "name": "amount0",
          "type": "uint256"
        },
        {
          "indexed": false,
          "internalType": "uint256",
          "name": "amount1",
          "type": "uint256"
        }
      ],
      "name": "FeesCollected",
      "type": "event"
    },
    {
      "anonymous": false,
      "inputs": [
        {
          "indexed": true,
          "internalType": "address",
          "name": "token",
          "type": "address"
        },
        {
          "indexed": true,
          "internalType": "address",
          "name": "pool",
          "type": "address"
        },
        {
          "indexed": false,
          "internalType": "uint256",
          "name": "tokenAmount",
          "type": "uint256"
        },
        {
          "indexed": false,
          "internalType": "uint256",
          "name": "wethAmount",
          "type": "uint256"
        },
        {
          "indexed": false,
          "internalType": "uint256",
          "name": "timestamp",
          "type": "uint256"
        }
      ],
      "name": "LiquidityAdded",
      "type": "event"
    },
    {
      "anonymous": false,
      "inputs": [
        {
          "indexed": true,
          "internalType": "address",
          "name": "token",
          "type": "address"
        },
        {
          "indexed": true,
          "internalType": "address",
          "name": "pool",
          "type": "address"
        },
        {
          "indexed": false,
          "internalType": "uint256",
          "name": "tokenAmount",
          "type": "uint256"
        },
        {
          "indexed": false,
          "internalType": "uint256",
          "name": "wethAmount",
          "type": "uint256"
        },
        {
          "indexed": false,
          "internalType": "string",
          "name": "error",
          "type": "string"
        }
      ],
      "name": "LiquidityAdditionFailed",
      "type": "event"
    },
    {
      "anonymous": false,
      "inputs": [
        {
          "indexed": true,
          "internalType": "address",
          "name": "token",
          "type": "address"
        },
        {
          "indexed": false,
          "internalType": "uint256",
          "name": "tokenId",
          "type": "uint256"
        },
        {
          "indexed": false,
          "internalType": "uint256",
          "name": "amount0",
          "type": "uint256"
        },
        {
          "indexed": false,
          "internalType": "uint256",
          "name": "amount1",
          "type": "uint256"
        }
      ],
      "name": "LiquidityRemoved",
      "type": "event"
    },
    {
      "anonymous": false,
      "inputs": [
        {
          "indexed": true,
          "internalType": "address",
          "name": "token0",
          "type": "address"
        },
        {
          "indexed": true,
          "internalType": "address",
          "name": "poolAddress",
          "type": "address"
        }
      ],
      "name": "PoolCreated",
      "type": "event"
    },
    {
      "anonymous": false,
      "inputs": [
        {
          "indexed": true,
          "internalType": "address",
          "name": "poolAddress",
          "type": "address"
        },
        {
          "indexed": false,
          "internalType": "uint160",
          "name": "sqrtPriceX96",
          "type": "uint160"
        }
      ],
      "name": "PoolInitialized",
      "type": "event"
    },
    {
      "anonymous": false,
      "inputs": [
        {
          "indexed": false,
          "internalType": "uint256",
          "name": "tokenId",
          "type": "uint256"
        },
        {
          "indexed": false,
          "internalType": "bool",
          "name": "isTokenDead",
          "type": "bool"
        }
      ],
      "name": "ResetFeesDays",
      "type": "event"
    },
    {
      "anonymous": false,
      "inputs": [
        {
          "indexed": true,
          "internalType": "address",
          "name": "token",
          "type": "address"
        },
        {
          "indexed": false,
          "internalType": "uint256",
          "name": "amountIn",
          "type": "uint256"
        },
        {
          "indexed": false,
          "internalType": "uint256",
          "name": "amountOut",
          "type": "uint256"
        }
      ],
      "name": "SwappedToWETH",
      "type": "event"
    },
    {
      "anonymous": false,
      "inputs": [
        {
          "indexed": true,
          "internalType": "address",
          "name": "tokenAddress",
          "type": "address"
        },
        {
          "indexed": true,
          "internalType": "address",
          "name": "poolAddress",
          "type": "address"
        }
      ],
      "name": "TokenApproved",
      "type": "event"
    },
    {
      "anonymous": false,
      "inputs": [
        {
          "indexed": true,
          "internalType": "address",
          "name": "tokenAddress",
          "type": "address"
        }
      ],
      "name": "TokenDeployed",
      "type": "event"
    },
    {
      "anonymous": false,
      "inputs": [
        {
          "indexed": false,
          "internalType": "uint256",
          "name": "tokenId",
          "type": "uint256"
        },
        {
          "indexed": false,
          "internalType": "bool",
          "name": "isTokenDead",
          "type": "bool"
        }
      ],
      "name": "ZeroFeesDays",
      "type": "event"
    },
    {
      "stateMutability": "payable",
      "type": "fallback"
    },
    {
      "inputs": [
        {
          "internalType": "address",
          "name": "_token0",
          "type": "address"
        },
        {
          "internalType": "address",
          "name": "_token1",
          "type": "address"
        },
        {
          "internalType": "address",
          "name": "tokenAddress",
          "type": "address"
        },
        {
          "internalType": "uint256",
          "name": "_token0Amount",
          "type": "uint256"
        },
        {
          "internalType": "uint256",
          "name": "_token1Amount",
          "type": "uint256"
        }
      ],
      "name": "addInitialLiquidity",
      "outputs": [
        {
          "internalType": "uint256",
          "name": "tokenId",
          "type": "uint256"
        }
      ],
      "stateMutability": "nonpayable",
      "type": "function"
    },
    {
      "inputs": [
        {
          "internalType": "uint256",
          "name": "",
          "type": "uint256"
        }
      ],
      "name": "allTokens",
      "outputs": [
        {
          "internalType": "address",
          "name": "tokenAddress",
          "type": "address"
        },
        {
          "internalType": "uint256",
          "name": "timeStamp",
          "type": "uint256"
        },
        {
          "internalType": "uint256",
          "name": "tokenId",
          "type": "uint256"
        },
        {
          "internalType": "bool",
          "name": "liquidityRemoved",
          "type": "bool"
        },
        {
          "internalType": "uint256",
          "name": "zerofeedays",
          "type": "uint256"
        },
        {
          "internalType": "bool",
          "name": "isTokenDEAD",
          "type": "bool"
        }
      ],
      "stateMutability": "view",
      "type": "function"
    },
    {
      "inputs": [
        {
          "internalType": "address",
          "name": "token",
          "type": "address"
        },
        {
          "internalType": "address",
          "name": "spender",
          "type": "address"
        },
        {
          "internalType": "uint256",
          "name": "amount",
          "type": "uint256"
        }
      ],
      "name": "approveToken",
      "outputs": [],
      "stateMutability": "nonpayable",
      "type": "function"
    },
    {
      "inputs": [
        {
          "internalType": "uint256",
          "name": "wethAmountToRemove",
          "type": "uint256"
        },
        {
          "internalType": "uint160",
          "name": "sqrtPriceX96",
          "type": "uint160"
        },
        {
          "internalType": "uint128",
          "name": "totalLiquidity",
          "type": "uint128"
        }
      ],
      "name": "calculateLiquidityToRemove",
      "outputs": [
        {
          "internalType": "uint128",
          "name": "liquidityToRemove",
          "type": "uint128"
        }
      ],
      "stateMutability": "pure",
      "type": "function"
    },
    {
      "inputs": [
        {
          "internalType": "uint256",
          "name": "tokenId",
          "type": "uint256"
        }
      ],
      "name": "collectFees",
      "outputs": [],
      "stateMutability": "nonpayable",
      "type": "function"
    },
    {
      "inputs": [
        {
          "internalType": "address",
          "name": "token0",
          "type": "address"
        },
        {
          "internalType": "address",
          "name": "token1",
          "type": "address"
        },
        {
          "internalType": "uint160",
          "name": "sqrtPriceX96",
          "type": "uint160"
        }
      ],
      "name": "createAndInitializePoolIfNecessary",
      "outputs": [
        {
          "internalType": "address",
          "name": "pool",
          "type": "address"
        }
      ],
      "stateMutability": "nonpayable",
      "type": "function"
    },
    {
      "inputs": [
        {
          "internalType": "address",
          "name": "_token0",
          "type": "address"
        },
        {
          "internalType": "address",
          "name": "_token1",
          "type": "address"
        }
      ],
      "name": "createPoolForToken",
      "outputs": [
        {
          "internalType": "address",
          "name": "poolAddress",
          "type": "address"
        }
      ],
      "stateMutability": "nonpayable",
      "type": "function"
    },
    {
      "inputs": [
        {
          "internalType": "string",
          "name": "_name",
          "type": "string"
        },
        {
          "internalType": "string",
          "name": "_symbol",
          "type": "string"
        },
        {
          "internalType": "uint256",
          "name": "_supply",
          "type": "uint256"
        }
      ],
      "name": "deployToken",
      "outputs": [
        {
          "internalType": "address",
          "name": "",
          "type": "address"
        }
      ],
      "stateMutability": "nonpayable",
      "type": "function"
    },
    {
      "inputs": [
        {
          "internalType": "uint256",
          "name": "tokenId",
          "type": "uint256"
        }
      ],
      "name": "getPosition",
      "outputs": [
        {
          "internalType": "uint96",
          "name": "nonce",
          "type": "uint96"
        },
        {
          "internalType": "address",
          "name": "operator",
          "type": "address"
        },
        {
          "internalType": "address",
          "name": "token0",
          "type": "address"
        },
        {
          "internalType": "address",
          "name": "token1",
          "type": "address"
        },
        {
          "internalType": "uint24",
          "name": "fee",
          "type": "uint24"
        },
        {
          "internalType": "int24",
          "name": "tickLower",
          "type": "int24"
        },
        {
          "internalType": "int24",
          "name": "tickUpper",
          "type": "int24"
        },
        {
          "internalType": "uint128",
          "name": "liquidity",
          "type": "uint128"
        },
        {
          "internalType": "uint256",
          "name": "feeGrowthInside0LastX128",
          "type": "uint256"
        },
        {
          "internalType": "uint256",
          "name": "feeGrowthInside1LastX128",
          "type": "uint256"
        },
        {
          "internalType": "uint128",
          "name": "tokensOwed0",
          "type": "uint128"
        },
        {
          "internalType": "uint128",
          "name": "tokensOwed1",
          "type": "uint128"
        }
      ],
      "stateMutability": "view",
      "type": "function"
    },
    {
      "inputs": [
        {
          "internalType": "address",
          "name": "tokenA",
          "type": "address"
        },
        {
          "internalType": "address",
          "name": "tokenB",
          "type": "address"
        },
        {
          "internalType": "uint24",
          "name": "fee",
          "type": "uint24"
        }
      ],
      "name": "get_Pool",
      "outputs": [
        {
          "internalType": "address",
          "name": "pool",
          "type": "address"
        }
      ],
      "stateMutability": "view",
      "type": "function"
    },
    {
      "inputs": [
        {
          "internalType": "address",
          "name": "poolAddress",
          "type": "address"
        },
        {
          "internalType": "uint160",
          "name": "sqrtPriceX96",
          "type": "uint160"
        }
      ],
      "name": "initializePool",
      "outputs": [],
      "stateMutability": "nonpayable",
      "type": "function"
    },
    {
      "inputs": [
        {
          "internalType": "bytes[]",
          "name": "data",
          "type": "bytes[]"
        }
      ],
      "name": "multicall",
      "outputs": [
        {
          "internalType": "bytes[]",
          "name": "results",
          "type": "bytes[]"
        }
      ],
      "stateMutability": "payable",
      "type": "function"
    },
    {
      "inputs": [
        {
          "internalType": "uint256",
          "name": "amountNeeded",
          "type": "uint256"
        }
      ],
      "name": "notifyFundsNeeded",
      "outputs": [],
      "stateMutability": "nonpayable",
      "type": "function"
    },
    {
      "inputs": [],
      "name": "owner",
      "outputs": [
        {
          "internalType": "address",
          "name": "",
          "type": "address"
        }
      ],
      "stateMutability": "view",
      "type": "function"
    },
    {
      "inputs": [],
      "name": "positionManager",
      "outputs": [
        {
          "internalType": "contract INonfungiblePositionManager",
          "name": "",
          "type": "address"
        }
      ],
      "stateMutability": "view",
      "type": "function"
    },
    {
      "inputs": [
        {
          "internalType": "uint256",
          "name": "tokenId",
          "type": "uint256"
        },
        {
          "internalType": "uint128",
          "name": "liquidityToRemove",
          "type": "uint128"
        },
        {
          "internalType": "address",
          "name": "tokenAddress",
          "type": "address"
        }
      ],
      "name": "removeLiquidity",
      "outputs": [],
      "stateMutability": "nonpayable",
      "type": "function"
    },
    {
      "inputs": [
        {
          "internalType": "uint256",
          "name": "tokenId",
          "type": "uint256"
        }
      ],
      "name": "resetNoFeeDays",
      "outputs": [],
      "stateMutability": "nonpayable",
      "type": "function"
    },
    {
      "inputs": [
        {
          "internalType": "address",
          "name": "_stakingPoolAddress",
          "type": "address"
        }
      ],
      "name": "setStakingPoolAddress",
      "outputs": [],
      "stateMutability": "nonpayable",
      "type": "function"
    },
    {
      "inputs": [],
      "name": "stakingPoolAddress",
      "outputs": [
        {
          "internalType": "address",
          "name": "",
          "type": "address"
        }
      ],
      "stateMutability": "view",
      "type": "function"
    },
    {
      "inputs": [
        {
          "internalType": "address",
          "name": "tokenOut",
          "type": "address"
        },
        {
          "internalType": "uint256",
          "name": "amount_In",
          "type": "uint256"
        }
      ],
      "name": "swapETHForToken",
      "outputs": [
        {
          "internalType": "uint256",
          "name": "amountOut",
          "type": "uint256"
        }
      ],
      "stateMutability": "payable",
      "type": "function"
    },
    {
      "inputs": [],
      "name": "swapRouter",
      "outputs": [
        {
          "internalType": "contract ISwapRouter",
          "name": "",
          "type": "address"
        }
      ],
      "stateMutability": "view",
      "type": "function"
    },
    {
      "inputs": [],
      "name": "tokenCount",
      "outputs": [
        {
          "internalType": "uint256",
          "name": "",
          "type": "uint256"
        }
      ],
      "stateMutability": "view",
      "type": "function"
    },
    {
      "inputs": [
        {
          "internalType": "uint256",
          "name": "",
          "type": "uint256"
        }
      ],
      "name": "tokens",
      "outputs": [
        {
          "internalType": "address",
          "name": "",
          "type": "address"
        }
      ],
      "stateMutability": "view",
      "type": "function"
    },
    {
      "inputs": [],
      "name": "uniswapFactory",
      "outputs": [
        {
          "internalType": "contract IUniswapV3Factory",
          "name": "",
          "type": "address"
        }
      ],
      "stateMutability": "view",
      "type": "function"
    },
    {
      "inputs": [
        {
          "internalType": "uint256",
          "name": "tokenId",
          "type": "uint256"
        }
      ],
      "name": "updateNoFeeDays",
      "outputs": [],
      "stateMutability": "nonpayable",
      "type": "function"
    },
    {
      "inputs": [],
      "name": "weth",
      "outputs": [
        {
          "internalType": "address",
          "name": "",
          "type": "address"
        }
      ],
      "stateMutability": "view",
      "type": "function"
    },
    {
      "inputs": [],
      "name": "wethAddress",
      "outputs": [
        {
          "internalType": "address",
          "name": "",
          "type": "address"
        }
      ],
      "stateMutability": "view",
      "type": "function"
    },
    {
      "stateMutability": "payable",
      "type": "receive"
    }
  ],
  "bytecode": "0x608034620000d057601f62002e4138819003918201601f19168301916001600160401b03831184841017620000d557808492608094604052833981010312620000d0576200004d81620000eb565b906200005c60208201620000eb565b6200007860606200007060408501620000eb565b9301620000eb565b9060018060a01b03928380928160018060a01b031997168760025416176002551685600354161760035516836004541617600455168160055416176005553390600a541617600a55604051612d409081620001018239f35b600080fd5b634e487b7160e01b600052604160045260246000fd5b51906001600160a01b0382168203620000d05756fe608060405260043610156200001a575b36156200001857005b005b6000803560e01c806301a667b01462001b4c578063203d81c11462001af2578063247932be1462001a2657806325b15a0c14620019fd5780633a93babb14620018ee5780633fc8cef314620018c55780634f0e0ef3146200189c5780634f64b2be146200184157806351246d6e146200172957806353ebea7714620015865780635bc30eb01462001172578063634282af14620010ee5780636e9551d7146200101357806373e607021462000e59578063791b98bc1462000e305780638bdb2afa1462000e075780638c3a65a21462000baf5780638da5cb5b1462000b865780639f181b5e1462000b66578063ac9650d8146200094c578063b17acdcd1462000807578063c31c9c0714620007de578063cbf0ed6b1462000752578063d196e9c61462000552578063d21b6ed41462000480578063da3e3397146200037a5763eb02c301146200016b57506200000f565b346200036457602036600319011262000364576001600160a01b03908160025416906040519283927f99fbab8800000000000000000000000000000000000000000000000000000000845260043560048501528360246101809687935afa9081156200036f578280948192829083849185938697879a889789809c6200026b575b5050908391826040519e8f926bffffffffffffffffffffffff1683521690602001521660408c01521660608a015262ffffff16608089015260020b60a088015260020b60c08701526fffffffffffffffffffffffffffffffff948580941660e08801526101008701526101208601521661014084015216610160820152f35b9b509c5050505097505050505050508383813d831162000367575b62000292818362001f62565b8101031262000364578251906bffffffffffffffffffffffff821682036200036457620002c26020850162001fbd565b91620002d16040860162001fbd565b94620002e06060820162001fbd565b9460808201519362ffffff851685036200036457506200030360a08301620020c7565b6200031160c08401620020c7565b906200032060e0850162001fd2565b9261010085015196816101208701519a6200034e610160620003466101408b0162001fd2565b990162001fd2565b989a9c9092949596999b97989a909138620001ec565b80fd5b503d62000286565b6040513d84823e3d90fd5b50346200036457606036600319011262000364576001600160a01b036020620003e7620003a662001e34565b620003b062001e4b565b8560405195868095819463095ea7b360e01b83526044359060048401602090939291936001600160a01b0360408201951681520152565b0393165af19081156200036f5782916200044a575b5015620004065780f35b606460405162461bcd60e51b815260206004820152600f60248201527f417070726f76616c206661696c656400000000000000000000000000000000006044820152fd5b62000471915060203d60201162000478575b62000468818362001f62565b810190620020ad565b38620003fc565b503d6200045c565b50346200036457604036600319011262000364576200049e62001e34565b620004a862001e4b565b826001600160a01b0380931692833b156200054e57604051927ff637731d0000000000000000000000000000000000000000000000000000000084521691826004820152818160248183885af180156200036f5762000532575b505060207f30440fb2e4ce813a3feb1a945fc1c8190ba344a38f64cb33348155d72ab138b291604051908152a280f35b6200053d9062001f4d565b6200054a57823862000502565b8280fd5b5080fd5b50604036600319011262000364576200056a62001e34565b90602435916001600160a01b03928360035416803b156200074e578382916004604051809481937fd0e30db00000000000000000000000000000000000000000000000000000000083525af1801562000743579084916200072b575b5050620005de818560035416866005541690620020d6565b8360035416916040519061010082019382851067ffffffffffffffff861117620007155786946040528252602095869381858501931683526040840190612710825260608501903382526080860142815260a087019182528460c08801938b855260e08901958c8752828060055416996040519d8e9c7f414bf389000000000000000000000000000000000000000000000000000000008e52511660048d0152511660248b01525162ffffff1660448a0152511660648801525160848701525160a48601525160c4850152511660e483015281855a9261010493f1918215620007095791620006d1575b50604051908152f35b90508181813d831162000701575b620006eb818362001f62565b81010312620006fc575138620006c8565b600080fd5b503d620006df565b604051903d90823e3d90fd5b634e487b7160e01b600052604160045260246000fd5b620007369062001f4d565b6200054a578238620005c6565b6040513d86823e3d90fd5b8380fd5b5034620003645760203660031901126200036457600435815260076020527f6f3e068cb934f31cfea69b2f72e697abfe27982d58fe7fcabb327c96c89cd33a6040822054826004620007a48362001e93565b50015560ff6005620007c66004620007bc8562001e93565b5001549362001e93565b5001546040805193845291161515602083015290a180f35b5034620003645780600319360112620003645760206001600160a01b0360055416604051908152f35b5034620003645760203660031901126200036457600435816040620008c26001600160a01b036200083e81600a5416331462001ee4565b8251906200084c8262001f30565b85825230602083019081526fffffffffffffffffffffffffffffffff85840181905260608401818152600254875163fc6f786560e01b81528651600482015293516001600160a01b0316602485015260409095015182166044840152511660648201529485939190921691839182906084820190565b03925af1801562000941577fa54e6c2fc0861aa9c991b26891d71059d517983b9e84b91020f42609c452eb9d91604091859186916200090b575b5082519182526020820152a280f35b9050620009329150823d841162000939575b62000929818362001f62565b81019062001f85565b38620008fc565b503d6200091d565b6040513d85823e3d90fd5b506020806003193601126200054e5767ffffffffffffffff6004358181116200074e57366023820112156200074e5780600401359180831162000b625760246005913660248660051b8601011162000b5e57620009ab8593956200203b565b94620009bb604051968762001f62565b838652620009c9846200203b565b601f1995908601888a5b82811062000b4d57505050368190036042190191895b86811062000a8a578a8a8a8a6040519280840190808552835180925260408501928160408460051b88010195019387915b84831062000a285787870388f35b909192939495603f19888203018352848288518b815191828652815b83811062000a6f575050818501840152601f0116909101810196810195949360010192019062000a1a565b8082018601518782018701528a958895508f93500162000a44565b8581831b840101358481121562000b495783018b878201358781116200054e5760448093019080360382136200054a57829181604051928392833781018381520390305af49062000ada62002054565b911562000b0757509060019162000af2828c62002098565b5262000aff818b62002098565b5001620009e9565b8b7f5472616e73616374696f6e206661696c6564000000000000000000000000000060649260128b6040519462461bcd60e51b86526004860152840152820152fd5b8b80fd5b60608a82018301528a9101620009d3565b8680fd5b8480fd5b503462000364578060031936011262000364576020600154604051908152f35b5034620003645780600319360112620003645760206001600160a01b03600a5416604051908152f35b503462000364576020908160031936011262000364576004356001600160a01b0380600854169182330362000dc3578160035416906040517f70a082310000000000000000000000000000000000000000000000000000000081523060048201528681602481865afa90811562000db857869162000d81575b5081811062000d785750925b8362000c3e578480f35b6040517fa9059cbb0000000000000000000000000000000000000000000000000000000081526001600160a01b03919091166004820152602481018490529085908290604490829088905af19081156200074357849162000d56575b501562000d125782935060085416803b1562000d0e576024839260405194859384927f9b5ceb3500000000000000000000000000000000000000000000000000000000845260048401525af180156200036f5762000cfc575b80808084938480f35b62000d079062001f4d565b3862000cf3565b5050fd5b6064846040519062461bcd60e51b82526004820152601360248201527f4661696c656420746f2073656e642057455448000000000000000000000000006044820152fd5b62000d719150853d8711620004785762000468818362001f62565b3862000c9a565b90509262000c34565b90508681813d831162000db0575b62000d9b818362001f62565b8101031262000dac57513862000c28565b8580fd5b503d62000d8f565b6040513d88823e3d90fd5b6064856040519062461bcd60e51b82526004820152601e60248201527f43616c6c6572206973206e6f7420746865207374616b696e6720706f6f6c00006044820152fd5b5034620003645780600319360112620003645760206001600160a01b0360045416604051908152f35b5034620003645780600319360112620003645760206001600160a01b0360025416604051908152f35b50346200036457606036600319011262000364576004359062000e7b62001e4b565b6fffffffffffffffffffffffffffffffff9290604435848116036200054a576001600160a01b0316801562000fcf578062000eb69162001ff0565b60c01c90811562000f655762000ed162000ed892826200201a565b9062001ff0565b9181600384111562000f50575082916001908460011c6001810180911162000f3c5791905b84831062000f1657505050602092505b60405191168152f35b919350908362000f2781876200201a565b90810180911162000f3c57821c919062000efd565b602482634e487b7160e01b81526011600452fd5b91506020921562000f0d576001915062000f0d565b608460405162461bcd60e51b815260206004820152602260248201527f50726963652063616c63756c6174696f6e20726573756c74656420696e207a6560448201527f726f0000000000000000000000000000000000000000000000000000000000006064820152fd5b606460405162461bcd60e51b815260206004820152601460248201527f737172745072696365583936206973207a65726f0000000000000000000000006044820152fd5b50346200036457606036600319011262000364576200103162001e34565b906200103c62001e4b565b9160443562ffffff81168091036200054a5760209060646001600160a01b0393849283600454169084604051998a968795630b4c774160e11b875216600486015216602484015260448301525afa91821562000709578092620010a7575b6020838360405191168152f35b9091506020833d602011620010e5575b81620010c66020938362001f62565b81010312620003645750620010dd60209262001fbd565b90386200109a565b3d9150620010b7565b503462000364576020366003190112620003645760043590600654821015620003645760c06200111e8362001e93565b506001600160a01b0381541690600181015490600281015460ff6003830154169060ff60056004850154940154169360405195865260208601526040850152151560608401526080830152151560a0820152f35b5034620003645760a036600319011262000364576200119062001e34565b6200119a62001e4b565b90620011a562001e1d565b620011bf6064356001600160a01b036002541684620020d6565b620011d96084356001600160a01b036002541685620020d6565b61012c4201804211620015725760405193610160850185811067ffffffffffffffff8211176200155e57906001600160a01b039160405281851686521660208501526127106040850152620d899f196060850152620d89a0608085015260643560a085015260843560c08501528460e0850152846101008501523061012085015261014084015260806101406101646001600160a01b0360025416958760405197889485937f883164560000000000000000000000000000000000000000000000000000000085526001600160a01b0381511660048601526001600160a01b03602082015116602486015262ffffff6040820151166044860152606081015160020b60648601528781015160020b608486015260a081015160a486015260c081015160c486015260e081015160e48601526101008101516101048601526001600160a01b036101208201511661012486015201516101448401525af19283156200074357849362001514575b506040519060c0820182811067ffffffffffffffff8211176200150057906001600160a01b0391604052168152602081014281526040820184815260608301868152608084019187835260a085019388855260065468010000000000000000811015620014ec57806001620013be920160065562001e93565b969096620014d957926005949262001421926001600160a01b036200143d999896511673ffffffffffffffffffffffffffffffffffffffff19895416178855516001880155516002870155511515600386019060ff801983541691151516179055565b51600484015551151591019060ff801983541691151516179055565b6006546000198101908111620014c55760408484602096526007865220556001600160a01b0360025416907f4a1a2a6176e9646d9e3157f7c2ab3c499f18337c0b0828cfb28e0a61de4a11f76001600160a01b0360405192169180620014ba42608435606435846040919493926060820195825260208201520152565b0390a3604051908152f35b602484634e487b7160e01b81526011600452fd5b60248a634e487b7160e01b815280600452fd5b60248a634e487b7160e01b81526041600452fd5b602486634e487b7160e01b81526041600452fd5b9092506080813d60801162001555575b81620015336080938362001f62565b810103126200074e576200154c60208251920162001fd2565b50913862001345565b3d915062001524565b602487634e487b7160e01b81526041600452fd5b602485634e487b7160e01b81526011600452fd5b5034620003645760403660031901126200036457620015a462001e34565b620015ae62001e4b565b916001600160a01b0390816004541690828060405195630b4c774160e11b8752169586600487015216948560248601526127108060448701526020968787606481885afa9687156200074357908892918598620016e7575b50868816156200161d575b82888860405191168152f35b8460649293949596985060405198899485937fa1671295000000000000000000000000000000000000000000000000000000008552886004860152602485015260448401525af19384156200036f578294620016a8575b507f4f2ce4e40f623ca765fc0167a25cb7842ceaafb8d82d3dec26ca0d0e0d2d48968385169280a338808085818062001611565b9093508481813d8311620016df575b620016c3818362001f62565b810103126200054e57620016d79062001fbd565b923862001674565b503d620016b7565b838193949299503d831162001721575b62001703818362001f62565b810103126200074e579062001719889262001fbd565b963862001606565b503d620016f7565b50346200036457606036600319011262000364576200174762001e34565b906200175262001e4b565b8160206200175f62001e1d565b60846001600160a01b039687948593848060025416916040519b8c9788967f13ead562000000000000000000000000000000000000000000000000000000008852169a8b600488015216602486015261271060448601521660648401525af1801562000941578390620017ff575b602094501680917f4f2ce4e40f623ca765fc0167a25cb7842ceaafb8d82d3dec26ca0d0e0d2d48966040519480a38152f35b506020843d60201162001838575b816200181c6020938362001f62565b810103126200054a576200183260209462001fbd565b620017cd565b3d91506200180d565b503462000364576020366003190112620003645760043581548110156200054e576001600160a01b039082602093527f290decd9548b62a8d60345a988386fc84ba6bc95484008f6362f93160ef3e563015416604051908152f35b5034620003645780600319360112620003645760206001600160a01b0360095416604051908152f35b5034620003645780600319360112620003645760206001600160a01b0360035416604051908152f35b503462000364576060366003190112620003645767ffffffffffffffff6004358181116200054a576200192690369060040162001e62565b919060243582811162000b62576200194390369060040162001e62565b909160405194610b5a8087019587871090871117620019e957869594926200198f94926200198092620021b1893960608752606087019162001f9c565b91848303602086015262001f9c565b906040604435910152039082f08015620019dc57906001600160a01b0360209216807f91d24864a084ab70b268a1f865e757ca12006cf298d763b6be697302ef86498c6040519380a28152f35b50604051903d90823e3d90fd5b602488634e487b7160e01b81526041600452fd5b5034620003645780600319360112620003645760206001600160a01b0360085416604051908152f35b503462000364576020366003190112620003645760043581526007602052604081205490600462001a578362001e93565b500180549290600019841462001ade5760017f5b5116a6a7ed7078e6da121ce407eb49b9da5715f14154c54556529f996a4fb093940190556003600462001a9e8362001e93565b500154101562001abe575b60ff6005620007c66004620007bc8562001e93565b600562001acb8262001e93565b5001805460ff1916600117905562001aa9565b602483634e487b7160e01b81526011600452fd5b503462000364576020366003190112620003645762001b1062001e34565b6001600160a01b039062001b2a82600a5416331462001ee4565b1673ffffffffffffffffffffffffffffffffffffffff19600854161760085580f35b50346200036457606036600319011262000364576004356024356fffffffffffffffffffffffffffffffff8082168092036200074e5762001b8c62001e1d565b506001600160a01b0362001ba681600a5416331462001ee4565b838552600760205260408520549260ff600362001bc38662001e93565b5001541662001dd95781600254166040519060a0820182811067ffffffffffffffff82111762001dc5579260a4869594938a60409481999686528b83526020830194855285830182815260608401838152608085019142835288519b8c9889977f0c49ccbe000000000000000000000000000000000000000000000000000000008952516004890152511660248701525160448601525160648501525160848401525af1918215620007435760409362001d039362001da4575b50600254169083519062001c918262001f30565b87825230602083015280858301526060820152835194858094819363fc6f786560e01b83526004830191909160606080820193805183526001600160a01b036020820151166020840152816040820151916fffffffffffffffffffffffffffffffff8093166040860152015116910152565b03925af190811562000743577f1dc8bb69df2b8e91fbdcbfcf93d951b3f0000f085a95fe3f7946d6161439245d928591869362001d71575b5062001d4960039162001e93565b5001805460ff191660011790556040805194855260208501919091528301523391606090a280f35b600391935062001d49925062001d989060403d604011620009395762000929818362001f62565b92909293915062001d3b565b62001dbe90853d8711620009395762000929818362001f62565b5062001c7d565b602489634e487b7160e01b81526041600452fd5b606460405162461bcd60e51b815260206004820152601960248201527f4c697175696469747920616c72656164792072656d6f766564000000000000006044820152fd5b604435906001600160a01b0382168203620006fc57565b600435906001600160a01b0382168203620006fc57565b602435906001600160a01b0382168203620006fc57565b9181601f84011215620006fc5782359167ffffffffffffffff8311620006fc5760208381860195010111620006fc57565b60065481101562001ece5760069081600052027ff652222313e28459528d920b65115c16c04f3efc82aaedc97be59f3f377c0d3f0190600090565b634e487b7160e01b600052603260045260246000fd5b1562001eec57565b606460405162461bcd60e51b815260206004820152601760248201527f43616c6c6572206973206e6f7420746865206f776e65720000000000000000006044820152fd5b6080810190811067ffffffffffffffff8211176200071557604052565b67ffffffffffffffff81116200071557604052565b90601f8019910116810190811067ffffffffffffffff8211176200071557604052565b9190826040910312620006fc576020825192015190565b908060209392818452848401376000828201840152601f01601f1916010190565b51906001600160a01b0382168203620006fc57565b51906fffffffffffffffffffffffffffffffff82168203620006fc57565b818102929181159184041417156200200457565b634e487b7160e01b600052601160045260246000fd5b811562002025570490565b634e487b7160e01b600052601260045260246000fd5b67ffffffffffffffff8111620007155760051b60200190565b3d1562002093573d9067ffffffffffffffff821162000715576040519162002087601f8201601f19166020018462001f62565b82523d6000602084013e565b606090565b805182101562001ece5760209160051b010190565b90816020910312620006fc57518015158103620006fc5790565b51908160020b8203620006fc57565b60405163095ea7b360e01b602082019081526001600160a01b0393909316602482015260448082019490945292835260009283929083906200211a60648262001f62565b51925af16200212862002054565b816200217c575b50156200213857565b606460405162461bcd60e51b815260206004820152600260248201527f53410000000000000000000000000000000000000000000000000000000000006044820152fd5b805180159250821562002193575b5050386200212f565b620021a89250602080918301019101620020ad565b38806200218a56fe60406080815234620003bb5762000b5a803803806200001e81620003c0565b9283398101606082820312620003bb5781516001600160401b039290838111620003bb578262000050918301620003e6565b60209283830151858111620003bb5786916200006e918501620003e6565b920151938151818111620002bb576003908154906001948583811c93168015620003b0575b888410146200039a578190601f9384811162000344575b508890848311600114620002dd57600092620002d1575b505060001982851b1c191690851b1782555b8451928311620002bb5760049485548581811c91168015620002b0575b888210146200029b5782811162000250575b5086918411600114620001e557938394918492600095620001d9575b50501b92600019911b1c19161781555b670de0b6b3a764000092838102938185041490151715620001ad573315620001c25760025490838201809211620001ad57506000917fddf252ad1be2c89b69c2b068fc378daa952ba7f163c4a11628f55a4df523b3ef9160025533835282815284832084815401905584519384523393a3516107019081620004598239f35b601190634e487b7160e01b6000525260246000fd5b602490600085519163ec442f0560e01b8352820152fd5b0151935038806200011e565b9190601f198416928660005284886000209460005b8a898383106200023857505050106200021d575b50505050811b0181556200012e565b01519060f884600019921b161c19169055388080806200020e565b868601518955909701969485019488935001620001fa565b86600052876000208380870160051c8201928a881062000291575b0160051c019086905b8281106200028457505062000102565b6000815501869062000274565b925081926200026b565b602287634e487b7160e01b6000525260246000fd5b90607f1690620000f0565b634e487b7160e01b600052604160045260246000fd5b015190503880620000c1565b90879350601f19831691866000528a6000209260005b8c8282106200032d575050841162000314575b505050811b018255620000d3565b015160001983871b60f8161c1916905538808062000306565b8385015186558b97909501949384019301620002f3565b90915084600052886000208480850160051c8201928b861062000390575b918991869594930160051c01915b82811062000380575050620000aa565b6000815585945089910162000370565b9250819262000362565b634e487b7160e01b600052602260045260246000fd5b92607f169262000093565b600080fd5b6040519190601f01601f191682016001600160401b03811183821017620002bb57604052565b919080601f84011215620003bb5782516001600160401b038111620002bb576020906200041c601f8201601f19168301620003c0565b92818452828287010111620003bb5760005b8181106200044457508260009394955001015290565b85810183015184820184015282016200042e56fe608060408181526004918236101561001657600080fd5b600092833560e01c91826306fdde031461045057508163095ea7b3146103a457816318160ddd1461038557816323b872dd14610276578163313ce5671461025a57816370a082311461022457816395d89b411461010357508063a9059cbb146100d35763dd62ed3e1461008857600080fd5b346100cf57806003193601126100cf57806020926100a4610573565b6100ac61058e565b6001600160a01b0391821683526001865283832091168252845220549051908152f35b5080fd5b50346100cf57806003193601126100cf576020906100fc6100f2610573565b60243590336105a4565b5160018152f35b8383346100cf57816003193601126100cf5780519082845460018160011c906001831692831561021a575b6020938484108114610207578388529081156101eb5750600114610196575b505050829003601f01601f191682019267ffffffffffffffff841183851017610183575082918261017f92528261052a565b0390f35b80604186634e487b7160e01b6024945252fd5b8787529192508591837f8a35acfbc15ff81a39ae7d344fd709f28e8600b4aa8c65c6b64bfe7fe36bd19b5b8385106101d7575050505083010185808061014d565b8054888601830152930192849082016101c1565b60ff1916878501525050151560051b840101905085808061014d565b60248960228c634e487b7160e01b835252fd5b91607f169161012e565b5050346100cf5760203660031901126100cf57806020926001600160a01b0361024b610573565b16815280845220549051908152f35b5050346100cf57816003193601126100cf576020905160128152f35b9050823461038257606036600319011261038257610292610573565b61029a61058e565b91604435936001600160a01b0383168083526001602052868320338452602052868320549160001983036102d7575b6020886100fc8989896105a4565b86831061033d578115610327573315610311575082526001602090815286832033845281529186902090859003905582906100fc876102c9565b60249084895191634a1406b160e11b8352820152fd5b6024908489519163e602df0560e01b8352820152fd5b87517ffb8f41b2000000000000000000000000000000000000000000000000000000008152339181019182526020820193909352604081018790528291506060010390fd5b80fd5b5050346100cf57816003193601126100cf576020906002549051908152f35b90503461044c578160031936011261044c576103be610573565b602435903315610436576001600160a01b031691821561042057508083602095338152600187528181208582528752205582519081527f8c5be1e5ebec7d5bd14f71427d1e84f3dd0314c0f7b2291e5b200ac8c7c3b925843392a35160018152f35b60249085855191634a1406b160e11b8352820152fd5b6024838686519163e602df0560e01b8352820152fd5b8280fd5b8490843461044c578260031936011261044c578260035460018160011c9060018316928315610520575b6020938484108114610207578388529081156101eb57506001146104ca57505050829003601f01601f191682019267ffffffffffffffff841183851017610183575082918261017f92528261052a565b600387529192508591837fc2575a0e9e593c00f959f8c92f12db2869c3395a3b0502d05e2516446f71f85b5b83851061050c575050505083010185808061014d565b8054888601830152930192849082016104f6565b91607f169161047a565b6020808252825181830181905290939260005b82811061055f57505060409293506000838284010152601f8019910116010190565b81810186015184820160400152850161053d565b600435906001600160a01b038216820361058957565b600080fd5b602435906001600160a01b038216820361058957565b916001600160a01b0380841692831561069a5716928315610669576000908382528160205260408220549083821061061e575091604082827fddf252ad1be2c89b69c2b068fc378daa952ba7f163c4a11628f55a4df523b3ef958760209652828652038282205586815220818154019055604051908152a3565b6040517fe450d38c0000000000000000000000000000000000000000000000000000000081526001600160a01b03919091166004820152602481019190915260448101839052606490fd5b60246040517fec442f0500000000000000000000000000000000000000000000000000000000815260006004820152fd5b60246040517f96c6fd1e00000000000000000000000000000000000000000000000000000000815260006004820152fdfea264697066735822122041717a3a3441c12701713f09630fc2d42932dc3353afed6087f6d4ada3a6132264736f6c63430008180033a26469706673582212203c3cb32127336dbbf9b03f52f1e545c86ac786beb271c4e381af725903e3819064736f6c63430008180033",
  "linkReferences": {},
  "deployedLinkReferences": {}
}