{
  "_format": "hh-sol-artifact-1",
  "contractName": "MyFactory",
  "sourceName": "contracts/TestFactory.sol",
  "abi": [
    {
      "inputs": [
        {
          "internalType": "address",
          "name": "_positionManager",
          "type": "address"
        },
        {
          "internalType": "address",
          "name": "_weth",
          "type": "address"
        },
        {
          "internalType": "address",
          "name": "_uniswapFactory",
          "type": "address"
        },
        {
          "internalType": "address",
          "name": "_swapRouter",
          "type": "address"
        },
        {
          "internalType": "address",
          "name": "_lockerAddress",
          "type": "address"
        },
        {
          "internalType": "address",
          "name": "_teamWallet",
          "type": "address"
        }
      ],
      "stateMutability": "nonpayable",
      "type": "constructor"
    },
    {
      "anonymous": false,
      "inputs": [
        {
          "indexed": false,
          "internalType": "uint256",
          "name": "tokenId",
          "type": "uint256"
        },
        {
          "indexed": false,
          "internalType": "uint256",
          "name": "amount0",
          "type": "uint256"
        },
        {
          "indexed": false,
          "internalType": "uint256",
          "name": "amount1",
          "type": "uint256"
        }
      ],
      "name": "FeesCollected",
      "type": "event"
    },
    {
      "anonymous": false,
      "inputs": [
        {
          "indexed": false,
          "internalType": "uint256",
          "name": "amountNeeded",
          "type": "uint256"
        }
      ],
      "name": "FundsRequested",
      "type": "event"
    },
    {
      "anonymous": false,
      "inputs": [
        {
          "indexed": false,
          "internalType": "uint256",
          "name": "amount",
          "type": "uint256"
        }
      ],
      "name": "FundsSent",
      "type": "event"
    },
    {
      "anonymous": false,
      "inputs": [
        {
          "indexed": false,
          "internalType": "uint256",
          "name": "tokenId",
          "type": "uint256"
        }
      ],
      "name": "LiquidityAdded",
      "type": "event"
    },
    {
      "anonymous": false,
      "inputs": [
        {
          "indexed": true,
          "internalType": "address",
          "name": "token",
          "type": "address"
        },
        {
          "indexed": true,
          "internalType": "address",
          "name": "pool",
          "type": "address"
        },
        {
          "indexed": false,
          "internalType": "uint256",
          "name": "tokenAmount",
          "type": "uint256"
        },
        {
          "indexed": false,
          "internalType": "uint256",
          "name": "wethAmount",
          "type": "uint256"
        },
        {
          "indexed": false,
          "internalType": "string",
          "name": "error",
          "type": "string"
        }
      ],
      "name": "LiquidityAdditionFailed",
      "type": "event"
    },
    {
      "anonymous": false,
      "inputs": [
        {
          "indexed": true,
          "internalType": "address",
          "name": "token",
          "type": "address"
        },
        {
          "indexed": false,
          "internalType": "uint256",
          "name": "tokenId",
          "type": "uint256"
        },
        {
          "indexed": false,
          "internalType": "uint256",
          "name": "amount0",
          "type": "uint256"
        },
        {
          "indexed": false,
          "internalType": "uint256",
          "name": "amount1",
          "type": "uint256"
        }
      ],
      "name": "LiquidityRemoved",
      "type": "event"
    },
    {
      "anonymous": false,
      "inputs": [
        {
          "indexed": true,
          "internalType": "address",
          "name": "token0",
          "type": "address"
        },
        {
          "indexed": true,
          "internalType": "address",
          "name": "poolAddress",
          "type": "address"
        }
      ],
      "name": "PoolCreated",
      "type": "event"
    },
    {
      "anonymous": false,
      "inputs": [
        {
          "indexed": true,
          "internalType": "address",
          "name": "poolAddress",
          "type": "address"
        },
        {
          "indexed": false,
          "internalType": "uint160",
          "name": "sqrtPriceX96",
          "type": "uint160"
        }
      ],
      "name": "PoolInitialized",
      "type": "event"
    },
    {
      "anonymous": false,
      "inputs": [
        {
          "indexed": false,
          "internalType": "uint256",
          "name": "tokenId",
          "type": "uint256"
        },
        {
          "indexed": false,
          "internalType": "bool",
          "name": "isTokenDead",
          "type": "bool"
        }
      ],
      "name": "ResetFeesDays",
      "type": "event"
    },
    {
      "anonymous": false,
      "inputs": [
        {
          "indexed": true,
          "internalType": "address",
          "name": "stakingAddress",
          "type": "address"
        },
        {
          "indexed": false,
          "internalType": "uint256",
          "name": "amount",
          "type": "uint256"
        }
      ],
      "name": "RewardsSent",
      "type": "event"
    },
    {
      "anonymous": false,
      "inputs": [
        {
          "indexed": true,
          "internalType": "address",
          "name": "token",
          "type": "address"
        },
        {
          "indexed": false,
          "internalType": "uint256",
          "name": "amountIn",
          "type": "uint256"
        },
        {
          "indexed": false,
          "internalType": "uint256",
          "name": "amountOut",
          "type": "uint256"
        }
      ],
      "name": "SwappedToWETH",
      "type": "event"
    },
    {
      "anonymous": false,
      "inputs": [
        {
          "indexed": true,
          "internalType": "address",
          "name": "teamWallet",
          "type": "address"
        },
        {
          "indexed": false,
          "internalType": "uint256",
          "name": "amount",
          "type": "uint256"
        }
      ],
      "name": "TeamFunded",
      "type": "event"
    },
    {
      "anonymous": false,
      "inputs": [
        {
          "indexed": true,
          "internalType": "address",
          "name": "tokenAddress",
          "type": "address"
        },
        {
          "indexed": true,
          "internalType": "address",
          "name": "poolAddress",
          "type": "address"
        }
      ],
      "name": "TokenApproved",
      "type": "event"
    },
    {
      "anonymous": false,
      "inputs": [
        {
          "indexed": true,
          "internalType": "address",
          "name": "tokenAddress",
          "type": "address"
        }
      ],
      "name": "TokenDeployed",
      "type": "event"
    },
    {
      "anonymous": false,
      "inputs": [
        {
          "indexed": false,
          "internalType": "uint256",
          "name": "amount",
          "type": "uint256"
        }
      ],
      "name": "TokensSwapped",
      "type": "event"
    },
    {
      "anonymous": false,
      "inputs": [
        {
          "indexed": true,
          "internalType": "address",
          "name": "treasuryAddress",
          "type": "address"
        },
        {
          "indexed": false,
          "internalType": "uint256",
          "name": "amount",
          "type": "uint256"
        }
      ],
      "name": "TreasuryFunded",
      "type": "event"
    },
    {
      "anonymous": false,
      "inputs": [
        {
          "indexed": false,
          "internalType": "uint256",
          "name": "rewardAmount",
          "type": "uint256"
        }
      ],
      "name": "VortexEvent",
      "type": "event"
    },
    {
      "anonymous": false,
      "inputs": [
        {
          "indexed": false,
          "internalType": "uint256",
          "name": "tokenId",
          "type": "uint256"
        },
        {
          "indexed": false,
          "internalType": "bool",
          "name": "isTokenDead",
          "type": "bool"
        }
      ],
      "name": "ZeroFeesDays",
      "type": "event"
    },
    {
      "stateMutability": "payable",
      "type": "fallback"
    },
    {
      "inputs": [
        {
          "internalType": "address",
          "name": "tokenAddress",
          "type": "address"
        },
        {
          "internalType": "uint256",
          "name": "amountToBuy",
          "type": "uint256"
        }
      ],
      "name": "addLiquidityLockSwap",
      "outputs": [
        {
          "internalType": "uint256",
          "name": "tokenId",
          "type": "uint256"
        }
      ],
      "stateMutability": "payable",
      "type": "function"
    },
    {
      "inputs": [
        {
          "internalType": "uint256",
          "name": "",
          "type": "uint256"
        }
      ],
      "name": "allTokens",
      "outputs": [
        {
          "internalType": "address",
          "name": "tokenAddress",
          "type": "address"
        },
        {
          "internalType": "uint256",
          "name": "timeStamp",
          "type": "uint256"
        },
        {
          "internalType": "uint256",
          "name": "tokenId",
          "type": "uint256"
        },
        {
          "internalType": "bool",
          "name": "liquidityRemoved",
          "type": "bool"
        },
        {
          "internalType": "uint256",
          "name": "zerofeedays",
          "type": "uint256"
        },
        {
          "internalType": "bool",
          "name": "isInactive",
          "type": "bool"
        },
        {
          "internalType": "uint256",
          "name": "feeFromSwap",
          "type": "uint256"
        },
        {
          "internalType": "uint256",
          "name": "lockId",
          "type": "uint256"
        },
        {
          "internalType": "bool",
          "name": "isLocked",
          "type": "bool"
        },
        {
          "internalType": "uint256",
          "name": "unlockTime",
          "type": "uint256"
        },
        {
          "internalType": "bool",
          "name": "isDEAD",
          "type": "bool"
        }
      ],
      "stateMutability": "view",
      "type": "function"
    },
    {
      "inputs": [
        {
          "internalType": "uint256",
          "name": "tokenId",
          "type": "uint256"
        }
      ],
      "name": "burnPositionNFT",
      "outputs": [],
      "stateMutability": "nonpayable",
      "type": "function"
    },
    {
      "inputs": [
        {
          "internalType": "uint256",
          "name": "amount",
          "type": "uint256"
        }
      ],
      "name": "callAddRewards",
      "outputs": [],
      "stateMutability": "payable",
      "type": "function"
    },
    {
      "inputs": [
        {
          "internalType": "uint256",
          "name": "tokenId",
          "type": "uint256"
        },
        {
          "internalType": "address",
          "name": "tokenAddress",
          "type": "address"
        }
      ],
      "name": "collectFromFactoryAndSwap",
      "outputs": [],
      "stateMutability": "nonpayable",
      "type": "function"
    },
    {
      "inputs": [
        {
          "internalType": "uint256",
          "name": "tokenId",
          "type": "uint256"
        },
        {
          "internalType": "address",
          "name": "tokenAddress",
          "type": "address"
        }
      ],
      "name": "collectFromLockerAndSwap",
      "outputs": [],
      "stateMutability": "nonpayable",
      "type": "function"
    },
    {
      "inputs": [
        {
          "internalType": "uint256",
          "name": "amount",
          "type": "uint256"
        }
      ],
      "name": "convertWETHToETH",
      "outputs": [],
      "stateMutability": "nonpayable",
      "type": "function"
    },
    {
      "inputs": [
        {
          "internalType": "address",
          "name": "token0",
          "type": "address"
        },
        {
          "internalType": "address",
          "name": "token1",
          "type": "address"
        },
        {
          "internalType": "uint160",
          "name": "sqrtPriceX96",
          "type": "uint160"
        }
      ],
      "name": "createAndInitializePoolIfNecessary",
      "outputs": [
        {
          "internalType": "address",
          "name": "pool",
          "type": "address"
        }
      ],
      "stateMutability": "nonpayable",
      "type": "function"
    },
    {
      "inputs": [
        {
          "internalType": "string",
          "name": "_name",
          "type": "string"
        },
        {
          "internalType": "string",
          "name": "_symbol",
          "type": "string"
        },
        {
          "internalType": "uint256",
          "name": "_supply",
          "type": "uint256"
        }
      ],
      "name": "deployToken",
      "outputs": [
        {
          "internalType": "address",
          "name": "",
          "type": "address"
        }
      ],
      "stateMutability": "nonpayable",
      "type": "function"
    },
    {
      "inputs": [
        {
          "internalType": "uint256",
          "name": "totalFeesCollected",
          "type": "uint256"
        }
      ],
      "name": "distributeFees",
      "outputs": [],
      "stateMutability": "nonpayable",
      "type": "function"
    },
    {
      "inputs": [],
      "name": "getAllTokens",
      "outputs": [
        {
          "internalType": "address[]",
          "name": "addresses",
          "type": "address[]"
        },
        {
          "internalType": "uint256[]",
          "name": "tokenIds",
          "type": "uint256[]"
        },
        {
          "internalType": "uint256[]",
          "name": "timestamps",
          "type": "uint256[]"
        },
        {
          "internalType": "bool[]",
          "name": "liquidityRemovedStatus",
          "type": "bool[]"
        },
        {
          "internalType": "uint256[]",
          "name": "zerofeesdays",
          "type": "uint256[]"
        },
        {
          "internalType": "bool[]",
          "name": "inactive",
          "type": "bool[]"
        },
        {
          "internalType": "uint256[]",
          "name": "feefromswap",
          "type": "uint256[]"
        },
        {
          "internalType": "uint256[]",
          "name": "lockIds",
          "type": "uint256[]"
        },
        {
          "internalType": "bool[]",
          "name": "isTokenLocked",
          "type": "bool[]"
        },
        {
          "internalType": "uint256[]",
          "name": "unlockTimes",
          "type": "uint256[]"
        },
        {
          "internalType": "bool[]",
          "name": "isDead",
          "type": "bool[]"
        }
      ],
      "stateMutability": "view",
      "type": "function"
    },
    {
      "inputs": [
        {
          "internalType": "uint256",
          "name": "tokenId",
          "type": "uint256"
        }
      ],
      "name": "getPosition",
      "outputs": [
        {
          "internalType": "uint96",
          "name": "nonce",
          "type": "uint96"
        },
        {
          "internalType": "address",
          "name": "operator",
          "type": "address"
        },
        {
          "internalType": "address",
          "name": "token0",
          "type": "address"
        },
        {
          "internalType": "address",
          "name": "token1",
          "type": "address"
        },
        {
          "internalType": "uint24",
          "name": "fee",
          "type": "uint24"
        },
        {
          "internalType": "int24",
          "name": "tickLower",
          "type": "int24"
        },
        {
          "internalType": "int24",
          "name": "tickUpper",
          "type": "int24"
        },
        {
          "internalType": "uint128",
          "name": "liquidity",
          "type": "uint128"
        },
        {
          "internalType": "uint256",
          "name": "feeGrowthInside0LastX128",
          "type": "uint256"
        },
        {
          "internalType": "uint256",
          "name": "feeGrowthInside1LastX128",
          "type": "uint256"
        },
        {
          "internalType": "uint128",
          "name": "tokensOwed0",
          "type": "uint128"
        },
        {
          "internalType": "uint128",
          "name": "tokensOwed1",
          "type": "uint128"
        }
      ],
      "stateMutability": "view",
      "type": "function"
    },
    {
      "inputs": [
        {
          "internalType": "address",
          "name": "tokenA",
          "type": "address"
        },
        {
          "internalType": "address",
          "name": "tokenB",
          "type": "address"
        },
        {
          "internalType": "uint24",
          "name": "fee",
          "type": "uint24"
        }
      ],
      "name": "get_Pool",
      "outputs": [
        {
          "internalType": "address",
          "name": "pool",
          "type": "address"
        }
      ],
      "stateMutability": "view",
      "type": "function"
    },
    {
      "inputs": [],
      "name": "locker",
      "outputs": [
        {
          "internalType": "contract ILocker",
          "name": "",
          "type": "address"
        }
      ],
      "stateMutability": "view",
      "type": "function"
    },
    {
      "inputs": [],
      "name": "lockerAddress",
      "outputs": [
        {
          "internalType": "address",
          "name": "",
          "type": "address"
        }
      ],
      "stateMutability": "view",
      "type": "function"
    },
    {
      "inputs": [
        {
          "internalType": "bytes[]",
          "name": "data",
          "type": "bytes[]"
        }
      ],
      "name": "multicall",
      "outputs": [],
      "stateMutability": "payable",
      "type": "function"
    },
    {
      "inputs": [
        {
          "internalType": "uint256",
          "name": "amount",
          "type": "uint256"
        }
      ],
      "name": "notifyFundsNeeded",
      "outputs": [],
      "stateMutability": "nonpayable",
      "type": "function"
    },
    {
      "inputs": [],
      "name": "owner",
      "outputs": [
        {
          "internalType": "address",
          "name": "",
          "type": "address"
        }
      ],
      "stateMutability": "view",
      "type": "function"
    },
    {
      "inputs": [],
      "name": "pendingFunds",
      "outputs": [
        {
          "internalType": "uint256",
          "name": "",
          "type": "uint256"
        }
      ],
      "stateMutability": "view",
      "type": "function"
    },
    {
      "inputs": [],
      "name": "positionManager",
      "outputs": [
        {
          "internalType": "contract INonfungiblePositionManager",
          "name": "",
          "type": "address"
        }
      ],
      "stateMutability": "view",
      "type": "function"
    },
    {
      "inputs": [
        {
          "internalType": "address",
          "name": "_stakingContract",
          "type": "address"
        },
        {
          "internalType": "uint256",
          "name": "amountRequested",
          "type": "uint256"
        }
      ],
      "name": "provideFundsIfNeeded",
      "outputs": [],
      "stateMutability": "nonpayable",
      "type": "function"
    },
    {
      "inputs": [
        {
          "internalType": "uint256",
          "name": "_tokenId",
          "type": "uint256"
        },
        {
          "internalType": "uint256",
          "name": "_lockID",
          "type": "uint256"
        },
        {
          "internalType": "uint256",
          "name": "_duration",
          "type": "uint256"
        }
      ],
      "name": "relock",
      "outputs": [
        {
          "internalType": "uint256",
          "name": "lockID",
          "type": "uint256"
        }
      ],
      "stateMutability": "nonpayable",
      "type": "function"
    },
    {
      "inputs": [
        {
          "internalType": "uint256",
          "name": "tokenId",
          "type": "uint256"
        },
        {
          "internalType": "uint256",
          "name": "lockId",
          "type": "uint256"
        }
      ],
      "name": "removeDeadLiquidity",
      "outputs": [],
      "stateMutability": "nonpayable",
      "type": "function"
    },
    {
      "inputs": [
        {
          "internalType": "uint256",
          "name": "tokenId",
          "type": "uint256"
        },
        {
          "internalType": "uint256",
          "name": "lockId",
          "type": "uint256"
        }
      ],
      "name": "removeInitialLiquidity",
      "outputs": [],
      "stateMutability": "nonpayable",
      "type": "function"
    },
    {
      "inputs": [
        {
          "internalType": "address payable",
          "name": "_stakingAddress",
          "type": "address"
        },
        {
          "internalType": "address",
          "name": "_treasuryAddress",
          "type": "address"
        }
      ],
      "name": "setStakingAndTreasuryAddress",
      "outputs": [],
      "stateMutability": "nonpayable",
      "type": "function"
    },
    {
      "inputs": [],
      "name": "stakingAddress",
      "outputs": [
        {
          "internalType": "address payable",
          "name": "",
          "type": "address"
        }
      ],
      "stateMutability": "view",
      "type": "function"
    },
    {
      "inputs": [
        {
          "internalType": "uint256",
          "name": "amountIn",
          "type": "uint256"
        },
        {
          "internalType": "address",
          "name": "tokenAddress",
          "type": "address"
        }
      ],
      "name": "swapETHforTokens",
      "outputs": [
        {
          "internalType": "uint256",
          "name": "amountOut",
          "type": "uint256"
        }
      ],
      "stateMutability": "payable",
      "type": "function"
    },
    {
      "inputs": [],
      "name": "swapRouter",
      "outputs": [
        {
          "internalType": "contract ISwapRouter",
          "name": "",
          "type": "address"
        }
      ],
      "stateMutability": "view",
      "type": "function"
    },
    {
      "inputs": [],
      "name": "tokenCount",
      "outputs": [
        {
          "internalType": "uint256",
          "name": "",
          "type": "uint256"
        }
      ],
      "stateMutability": "view",
      "type": "function"
    },
    {
      "inputs": [
        {
          "internalType": "address",
          "name": "tokenAddress",
          "type": "address"
        },
        {
          "internalType": "address",
          "name": "to",
          "type": "address"
        },
        {
          "internalType": "uint256",
          "name": "amount",
          "type": "uint256"
        }
      ],
      "name": "transferTokens",
      "outputs": [],
      "stateMutability": "nonpayable",
      "type": "function"
    },
    {
      "inputs": [
        {
          "internalType": "uint256",
          "name": "amount",
          "type": "uint256"
        }
      ],
      "name": "transferWETHToFactory",
      "outputs": [],
      "stateMutability": "nonpayable",
      "type": "function"
    },
    {
      "inputs": [],
      "name": "tryToSendFunds",
      "outputs": [],
      "stateMutability": "nonpayable",
      "type": "function"
    },
    {
      "inputs": [],
      "name": "uniswapFactory",
      "outputs": [
        {
          "internalType": "contract IUniswapV3Factory",
          "name": "",
          "type": "address"
        }
      ],
      "stateMutability": "view",
      "type": "function"
    },
    {
      "inputs": [],
      "name": "weth",
      "outputs": [
        {
          "internalType": "address",
          "name": "",
          "type": "address"
        }
      ],
      "stateMutability": "view",
      "type": "function"
    },
    {
      "stateMutability": "payable",
      "type": "receive"
    }
  ],
  "bytecode": "0x6080346200012457601f6200522938819003918201601f19168301916001600160401b03831184841017620001295780849260c09460405283398101031262000124576200004d816200013f565b906200005c602082016200013f565b916200006b604083016200013f565b62000079606084016200013f565b926200009660a06200008e608084016200013f565b92016200013f565b92655af3107a4000600e5560018060a01b039485809481808095169960018060a01b03199a808c60015416176001558b60095416176009551689600254161760025516876003541617600355168560045416176004553385600554161760055516808460075416176007558360085416176008551690600b541617600b556040516150d49081620001558239f35b600080fd5b634e487b7160e01b600052604160045260246000fd5b51906001600160a01b0382168203620001245756fe608060405260043610156200001a575b36156200001857005b005b6000803560e01c80632855d76a14620039645780632a5c792a14620035e85780633675f29b14620035bf5780633a93babb14620034bd5780633fc8cef3146200349457806351246d6e14620033595780636029bf9f1462002f25578063634282af1462002e5f5780636e9551d71462002d7c5780637153fc331462002b48578063791b98bc1462002b1f5780637abac5041462002aab5780637c6bc9be1462002a8b5780638a7eb91a1462002a195780638bdb2afa14620029f05780638c3a65a214620029165780638da5cb5b14620028ed5780639f181b5e14620028ce578063a64b6e5f14620027f0578063ac9650d814620026af578063ad1b9e321462002586578063ae3b05d41462002566578063b2a78804146200223c578063be5ef17614620020c2578063c31c9c071462002099578063cbf66d351462001cc0578063d32cb3a21462001304578063d7b4be2414620012db578063d7b96d4e14620012b2578063db69bdd81462000b49578063eb02c30114620009fc578063fbcc3fcc1462000694578063fde16ed3146200045a5763fe9655fc14620001bf57506200000f565b34620004575760208060031936011262000453576004356001600160a01b0390620001f08260055416331462003b0e565b620001fd81151562003d8e565b8160025416916040516370a0823160e01b81523360048201528481602481875afa80156200044857839187916200040c575b5010620003c85760405163095ea7b360e01b81523060048201526024810183905285939092919085908490604490829088905af18015620003bd578593859162000371575b50906200028360649262004160565b600254169160405194859384927f23b872dd00000000000000000000000000000000000000000000000000000000845233600485015230602485015260448401525af19081156200036657839162000325575b5015620002e1575080f35b6064906040519062461bcd60e51b82526004820152600f60248201527f5472616e73666572206661696c656400000000000000000000000000000000006044820152fd5b90508181813d83116200035e575b6200033f818362003bfa565b810103126200035a57620003539062003dda565b38620002d6565b8280fd5b503d62000333565b6040513d85823e3d90fd5b8481939592503d8311620003b5575b6200038c818362003bfa565b81010312620003b157849262000283620003a860649362003dda565b91925062000274565b8380fd5b503d62000380565b6040513d86823e3d90fd5b6064846040519062461bcd60e51b82526004820152601960248201527f496e73756666696369656e7420574554482062616c616e6365000000000000006044820152fd5b809250868092503d831162000440575b62000428818362003bfa565b810103126200043b57829051386200022f565b600080fd5b503d6200041c565b6040513d88823e3d90fd5b5080fd5b80fd5b5060403660031901126200045757600435906200047662003a8e565b6001600160a01b03908160025416918481600454166200049c8360055416331462003b0e565b604051809563095ea7b360e01b8252818881620004d660209c8d9760048401602090939291936001600160a01b0360408201951681520152565b03925af193841562000689579086939291869562000638575b50620004ff620005b29562004160565b8180600254169360405194620005158662003bc0565b85521684840152612710604084015233606084015260808301528460a08301528460c08301526004541660405180809581946304e45aaf60e01b83526004830191909160c060e0820193816001600160a01b039182815116855282602082015116602086015262ffffff60408201511660408601528260608201511660608601526080810151608086015260a081015160a0860152015116910152565b039134905af19182156200062c5791620005f9575b507fdb04c7a6d4758fd55d738ebc67e7f3010ac922be00771ef29521a4090d1eb13f82604051838152a1604051908152f35b90508181813d831162000624575b62000613818362003bfa565b810103126200043b575138620005c7565b503d62000607565b604051903d90823e3d90fd5b84819395929496503d831162000681575b62000655818362003bfa565b810103126200067d5791620005b29391620004ff62000675889562003dda565b9550620004ef565b8480fd5b503d62000649565b6040513d87823e3d90fd5b50346200045757620006a63662003af7565b90826001600160a01b0392620006c28460055416331462003b0e565b8360075416803b156200035a5760405163318a457160e21b8152600481019290925230602483015282908290604490829084905af18015620009f157620009d9575b5082600154166040519363133f757160e31b8552836004860152610180948581602481865afa958615620003bd57849662000997575b50506200074d8160055416331462003b0e565b8383526011602052604083205494604080516200076a8162003bdd565b86815260a46020820191876001600160801b039788809716855285830182815260608401838152608085019142835288519b8c988997630624e65f60e11b8952516004890152511660248701525160448601525160648501525160848401525af1918215620003bd576040936200085e9362000976575b506001541690835190620007f58262003b85565b86825230602083015280858301526060820152835194858094819363fc6f786560e01b83526004830191909160606080820193805183526001600160a01b036020820151166020840152816040820151916001600160801b038093166040860152015116910152565b03925af1928315620003bd57849185946200090a575b50620008d76003620008a77f1dc8bb69df2b8e91fbdcbfcf93d951b3f0000f085a95fe3f7946d6161439245d9362003aa5565b50019460ff1995600187825416179055604051918291339587846040919493926060820195825260208201520152565b0390a2620008e462003de8565b825260116020526001600a620008fe604085205462003aa5565b50019182541617905580f35b7f1dc8bb69df2b8e91fbdcbfcf93d951b3f0000f085a95fe3f7946d6161439245d919450620008a79250600362000960620008d79260403d6040116200096e575b62000957818362003bfa565b81019062003fbc565b949094969350505062000874565b503d6200094b565b6200099090853d87116200096e5762000957818362003bfa565b50620007e1565b620009bc929650803d10620009d1575b620009b3818362003bfa565b81019062003ff7565b5050505096505050505050509338806200073a565b503d620009a7565b620009e49062003b5a565b6200035a57823862000704565b6040513d84823e3d90fd5b503462000457576020366003190112620004575762000a286001600160a01b0360055416331462003b0e565b6001600160a01b036001541660405191829163133f757160e31b835260043560048401528260246101809586935afa801562000b3c578192828091818283908492859686998796889a62000afe575b506040519b6bffffffffffffffffffffffff168c526001600160a01b031660208c01526001600160a01b031660408b01526001600160a01b031660608a015262ffffff16608089015260020b60a088015260020b60c08701526001600160801b03948580941660e08801526101008701526101208601521661014084015216610160820152f35b9a505050505050505050505062000b259150823d8411620009d157620009b3818362003bfa565b929992989397909691959391929091903862000a77565b50604051903d90823e3d90fd5b5034620004575762000b5b3662003af7565b6001600160a01b0392919290816005541633148015620012a8575b62000b819062003d1e565b8160075416803b15620003b15760405163318a457160e21b8152600481018390523060248201529084908290604490829084905af18015620003bd5790849162001290575b5050836000526011602081815260406000205492600762000be78562003aa5565b5001556000600962000c12600862000bff8762003aa5565b50019560ff199687815416905562003aa5565b5001558360015416956040519463133f757160e31b8652816004870152610180602496818189818d5afa9081156200112e5785908a8b8c928d9562001254575b50600354604051630b4c774160e11b81526001600160a01b03938416600482015292909116602483015262ffffff9092166044820152929350829085168180606481015b03915afa9081156200112e579083918a9162001212575b5060e0906004604051809481937f3850c7bd000000000000000000000000000000000000000000000000000000008352165afa80156200112e5783908a9062001168575b62000cfe925016620040ca565b670de0b6b3a764000090818102918183041490151715620011415760c01c801562001153576d04ee2d6d415b85acef81000000000490655af3107a4000918083029283040362001141579862000d679160408a9b6001600160801b039b9a9b8095819462004402565b168184168111156200113957505b62000d868660055416331462003b0e565b868b5288885260a48c8c848120549685519262000da38462003bdd565b8b8452878d8501961686528684018381526060850190848252608086019242845289519a8b998a98630624e65f60e11b8a525160048a01525116908701525160448601525160648501525160848401525af180156200112e57899360409262000e89926200110d575b5085600154169083519062000e218262003b85565b888252308a83015280858301526060820152835195868094819363fc6f786560e01b83526004830191909160606080820193805183526001600160a01b036020820151166020840152816040820151916001600160801b038093166040860152015116910152565b03925af1908115620011025788928992620010a8575b507f1dc8bb69df2b8e91fbdcbfcf93d951b3f0000f085a95fe3f7946d6161439245d91600362000ed362000efc9362003aa5565b500180548a16600117905560408051878152602081019590955284015233929081906060820190565b0390a262000f0962003de8565b8060075416908060055416331480156200109e575b62000f299062003d1e565b8060095416803b156200109a5760405163095ea7b360e01b81526001600160a01b039390931660048401526024830184905287908390604490829084905af180156200106e578492889162001079575b5050600854600154604051630fe9a9f560e31b81529083166001600160a01b031660048201526024810185905260066044820152306064820152978892608492849291165af19485156200106e57879562001039575b506006420195864211620010285750916200102293916009959360005252604060002054916007620010018462003aa5565b50015560016008620010138462003aa5565b50019182541617905562003aa5565b50015580f35b8784634e487b7160e01b8252600452fd5b9094508181813d831162001066575b62001054818362003bfa565b810103126200043b5751933862000fcf565b503d62001048565b6040513d89823e3d90fd5b620010879192935062003b5a565b62001096578290863862000f79565b8580fd5b8780fd5b5033301462000f1e565b62000ed393507f1dc8bb69df2b8e91fbdcbfcf93d951b3f0000f085a95fe3f7946d6161439245d9250906003620010f462000efc9360403d6040116200096e5762000957818362003bfa565b959095945050509062000e9f565b6040513d8a823e3d90fd5b6200112790843d86116200096e5762000957818362003bfa565b5062000e0c565b6040513d8b823e3d90fd5b905062000d75565b878987634e487b7160e01b8252600452fd5b87634e487b7160e01b60005260126004526000fd5b505060e0813d60e01162001209575b816200118660e0938362003bfa565b81010312620012055780519083821682036200120157620011a986820162003fe8565b50620011b860408201620040ba565b50620011c760608201620040ba565b50620011d660808201620040ba565b5060a081015160ff811603620012015762000cfe91620011fa60c086930162003dda565b5062000cf1565b8980fd5b8880fd5b3d915062001177565b809250868092503d83116200124c575b6200122e818362003bfa565b81010312620012055760e062001245849262003ca4565b9062000cad565b503d62001222565b9250505062000c96925083620012799294903d10620009d157620009b3818362003bfa565b505050509550505095935094919350843862000c52565b6200129b9062003b5a565b6200035a57823862000bc6565b5033301462000b76565b5034620004575780600319360112620004575760206001600160a01b0360085416604051908152f35b5034620004575780600319360112620004575760206001600160a01b0360065416604051908152f35b50604036600319011262000457576200131c62003a77565b6001600160a01b0360025416906040516370a0823160e01b90818152306004820152602081602481875afa9081156200068957859162001c88575b506040519182523060048301526020826024816001600160a01b0387165afa9182156200068957859262001c4e575b50600e5480911062001bfa57836001600160a01b0384161060001462001bf35782939190915b670de0b6b3a764000080840290848204148415171562001bdf57620013d683620013dc9262003cb9565b62004402565b808060601b046c01000000000000000000000000148115171562001bdf576001546040516309f56ab160e11b81526001600160a01b03888116600483015284811660248301526127106044830152633b9aca0060609490941b939093048316606482015291602091839160849183918c91165af180156200106e5762001b9a575b5062001476826001600160a01b03600154168762004461565b6200148e836001600160a01b03600154168362004461565b61012c4201421162001b86576001600160a01b03908160405196620014b38862003ba2565b1686521660208501526127106040850152620d899f196060850152620d89a0608085015260a084015260c08301528260e0830152826101008301523061012083015261012c420161014083015260806101406101646001600160a01b0360015416948660405196879485937f883164560000000000000000000000000000000000000000000000000000000085526001600160a01b0381511660048601526001600160a01b03602082015116602486015262ffffff6040820151166044860152606081015160020b60648601528781015160020b608486015260a081015160a486015260c081015160c486015260e081015160e48601526101008101516101048601526001600160a01b036101208201511661012486015201516101448401525af19182156200036657839262001b3c575b50826001600160a01b03600154166001600160a01b036007541690803b156200035a5760405163095ea7b360e01b81526001600160a01b039290921660048301526024820185905282908290604490829084905af18015620009f15762001b24575b50600754600154604051630fe9a9f560e31b81526001600160a01b039182166004820152602481018690526006604482015230606482015292602092849260849284929091165af1908115620003bd57849162001aec575b50836024356200189b575b60064201421162001887576001600160a01b0360405193620016cc8562003ba2565b1683524260208401528360408401528460608401528460808401528460a084015260c083015260e08201526001610100820152600642016101208201528261014082015260105468010000000000000000811015620018735780600162001737920160105562003aa5565b919091620018605790600a610140836001600160a01b036200182695511673ffffffffffffffffffffffffffffffffffffffff198554161784556020810151600185015560408101516002850155620017a560608201511515600386019060ff801983541691151516179055565b60808101516004850155620017cf60a08201511515600586019060ff801983541691151516179055565b60c0810151600685015560e08101516007850155620018046101008201511515600886019060ff801983541691151516179055565b61012081015160098501550151151591019060ff801983541691151516179055565b60105460001981019081116200184c576040838360209552601185522055604051908152f35b602483634e487b7160e01b81526011600452fd5b602484634e487b7160e01b815280600452fd5b602484634e487b7160e01b81526041600452fd5b602485634e487b7160e01b81526011600452fd5b50836020620019076001600160a01b03600254166001600160a01b0360045416620018d36001600160a01b0360055416331462003b0e565b60405163095ea7b360e01b81526001600160a01b039091166004820152602480359082015293849283919082906044820190565b03925af180156200068957859062001aa8575b62001926915062004160565b620019f860206001600160a01b036002541660405190620019478262003bc0565b81526001600160a01b03851682820152612710604082015233606082015260243560808201528660a08201528660c08201526001600160a01b036004541660405180809581946304e45aaf60e01b83526004830191909160c060e0820193816001600160a01b039182815116855282602082015116602086015262ffffff60408201511660408601528260608201511660608601526080810151608086015260a081015160a0860152015116910152565b039134905af19081156200068957859162001a6f575b5060207fdb04c7a6d4758fd55d738ebc67e7f3010ac922be00771ef29521a4090d1eb13f91604051908152a16024356024350460011460243515171562001a5b57606460243504620016aa565b602484634e487b7160e01b81526011600452fd5b90506020813d60201162001a9f575b8162001a8d6020938362003bfa565b810103126200043b5751602062001a0e565b3d915062001a7e565b506020813d60201162001ae3575b8162001ac56020938362003bfa565b810103126200067d5762001add620019269162003dda565b6200191a565b3d915062001ab6565b90506020813d60201162001b1b575b8162001b0a6020938362003bfa565b810103126200043b5751386200169f565b3d915062001afb565b62001b2f9062003b5a565b6200035a57823862001647565b9091506080813d60801162001b7d575b8162001b5b6080938362003bfa565b810103126200035a5762001b7460208251920162003fd3565b509038620015e5565b3d915062001b4c565b602486634e487b7160e01b81526011600452fd5b6020813d60201162001bd6575b8162001bb66020938362003bfa565b8101031262001bd25762001bca9062003ca4565b50386200145d565b8680fd5b3d915062001ba7565b602487634e487b7160e01b81526011600452fd5b82620013ac565b608460405162461bcd60e51b815260206004820152602760248201527f4e6f7420656e6f756768205745544820696e2074686520666163746f727920636044820152661bdb9d1c9858dd60ca1b6064820152fd5b9091506020813d60201162001c7f575b8162001c6d6020938362003bfa565b810103126200043b5751903862001386565b3d915062001c5e565b90506020813d60201162001cb7575b8162001ca66020938362003bfa565b810103126200043b57513862001357565b3d915062001c97565b50346200045757604036600319011262000457576004359062001ce262003a8e565b6001600160a01b0392836005541633149362001cfe8562003b0e565b838093600c9682885580156200208f575b62001d1a9062003d1e565b6040519462001d298662003b85565b8486523060208088019182526001600160801b036040808a0182815260608b01838152600154835163fc6f786560e01b81529c5160048e015295516001600160a01b031660248d01529051831660448c01525190911660648a01529097949091859160849183919089165af19182156200106e578793889362002063575b5060408051878152602081018690529081018490527fa54e6c2fc0861aa9c991b26891d71059d517983b9e84b91020f42609c452eb9d90606090a16002548516818616101562001fe957831562001faf5762001e417f455a40491d912862d7d0e0f06f4b988a4ecbfcb2e134b41b9600c81a782860ed9262001e378562001e318a8c968a620041ac565b62003d6a565b90818c5562003d6a565b985b54604051908152a183865260118552604086205491600662001e658462003aa5565b5001541015918262001f92575b50501562001f05579062001e8f6011939260055416331462003b0e565b835252600462001eba604083205460018362001eab8362003aa5565b5001541162001ee55762003aa5565b50018054929060001984146200184c57600162001edf93940190555b600a5462003d6a565b600a5580f35b600562001ef28262003aa5565b5001805460ff1916600117905562003aa5565b62001edf9394927f6f3e068cb934f31cfea69b2f72e697abfe27982d58fe7fcabb327c96c89cd33a9262001f4160409360055416331462003b0e565b865260118152818620549086600462001f5a8462003aa5565b50015560ff600562001f7c600462001f728662003aa5565b5001549462003aa5565b500154168351928352151590820152a162001ed6565b600691925062001fa29062003aa5565b5001541015388062001e72565b5096858162001fe1847f455a40491d912862d7d0e0f06f4b988a4ecbfcb2e134b41b9600c81a782860ed945462003d6a565b815562001e43565b90821562002030575085620020268462001e31887f455a40491d912862d7d0e0f06f4b988a4ecbfcb2e134b41b9600c81a782860ed9587620041ac565b808a559862001e43565b977f455a40491d912862d7d0e0f06f4b988a4ecbfcb2e134b41b9600c81a782860ed91508062001fe18589935462003d6a565b9092506200208491935060403d6040116200096e5762000957818362003bfa565b929092913862001da7565b5033301462001d0f565b5034620004575780600319360112620004575760206001600160a01b0360045416604051908152f35b503462000457576040366003190112620004575780620020e162003a77565b602435906001600160a01b039081600254166040516370a0823160e01b81523060048201526020908181602481865afa9081156200106e57879162002204575b508511156200212e578580f35b60405163a9059cbb60e01b81526001600160a01b038416600482015260248101869052918190839060449082908a905af180156200044857620021c8575b50501690813b15620021c4578291602483926040519485938492639b5ceb3560e01b845260048401525af18015620009f157620021ac575b808080808580f35b620021b79062003b5a565b62000457578038620021a4565b5050fd5b81813d8311620021fc575b620021df818362003bfa565b810103126200067d57620021f39062003dda565b5038806200216c565b503d620021d3565b809750828092503d831162002234575b62002220818362003bfa565b810103126200043b57848796519062002121565b503d62002214565b5034620004575760403660031901126200045757600435906200225e62003a8e565b916001600160a01b03620022788160055416331462003b0e565b600c838155600754604080517f51f3b4bd0000000000000000000000000000000000000000000000000000000081526004810186905230602482015292969186919084906044908290859089165af19182156200044857869387936200253a575b5060408051878152602081018690529081018490527fa54e6c2fc0861aa9c991b26891d71059d517983b9e84b91020f42609c452eb9d90606090a160025485168186161015620024be57831562002483576200236e7f455a40491d912862d7d0e0f06f4b988a4ecbfcb2e134b41b9600c81a782860ed92620023648562001e318a6020968a620041ac565b90818b5562003d6a565b975b54604051908152a183855260116020526040852054916006620023938462003aa5565b5001541015918262002466575b505015620023d957620023b99060055416331462003b0e565b81526011602052600462001eba604083205460018362001eab8362003aa5565b90620023f162001edf93949260055416331462003b0e565b835260116020527f6f3e068cb934f31cfea69b2f72e697abfe27982d58fe7fcabb327c96c89cd33a6040808520548560046200242d8362003aa5565b50015560ff60056200244f6004620024458562003aa5565b5001549362003aa5565b50015416825191825215156020820152a162001ed6565b6006919250620024769062003aa5565b50015410153880620023a0565b5095602081620024b6847f455a40491d912862d7d0e0f06f4b988a4ecbfcb2e134b41b9600c81a782860ed945462003d6a565b815562002370565b9082156200250657506020620024fc8462001e31887f455a40491d912862d7d0e0f06f4b988a4ecbfcb2e134b41b9600c81a782860ed9587620041ac565b8089559762002370565b967f455a40491d912862d7d0e0f06f4b988a4ecbfcb2e134b41b9600c81a782860ed915080620024b6856020935462003d6a565b9092506200255b91935060403d6040116200096e5762000957818362003bfa565b9290929138620022d9565b503462000457578060031936011262000457576200258362003de8565b80f35b5060203660031901126200045757806004356001600160a01b036200260260208383600554163314620025b98162003b0e565b846002541690620025cf86600654169162003b0e565b8760405180968195829463095ea7b360e01b845260048401602090939291936001600160a01b0360408201951681520152565b03925af18015620003bd57849062002666575b62002621915062004160565b60065416803b15620021c457829060046040518094819363014d6aed60e41b83525af18015620009f157620026535750f35b6200265e9062003b5a565b620004575780f35b506020813d602011620026a6575b81620026836020938362003bfa565b81010312620026a1576200269b620026219162003dda565b62002615565b505050fd5b3d915062002674565b5060208060031936011262000453576004359067ffffffffffffffff808311620003b15736602384011215620003b15782600401358181116200067d576024906005903660248260051b8801011162001bd257943681900360421901906000198701878111895b89811062002722578a80f35b81620027dd57808303620027d657345b8b8883891b8701013587811215620004535786019189830135908b82116200035a576044809401918036038313620003b157839281604051928392833781018481520391305af16200278362003cda565b501562002794575060010162002716565b897f4d756c746963616c6c20657865637574696f6e206661696c6564000000000000606492601a8b6040519462461bcd60e51b86526004860152840152820152fd5b8a62002732565b868b634e487b7160e01b81526011600452fd5b50346200045757606036600319011262000457576200287c60206200281462003a77565b6200281e62003a8e565b9060443591856001600160a01b036200283d8160055416331462003b0e565b6200284a85151562003d8e565b60405180978196829563a9059cbb60e01b845260048401602090939291936001600160a01b0360408201951681520152565b0393165af18015620009f15762002891575080f35b6020813d602011620028c5575b81620028ad6020938362003bfa565b810103126200045357620028c19062003dda565b5080f35b3d91506200289e565b5034620004575780600319360112620004575760209054604051908152f35b5034620004575780600319360112620004575760206001600160a01b0360055416604051908152f35b50346200045757602036600319011262000457576004356001600160a01b036006541633036200298657602081620029727fd5e85995d9bdcdafb72531ec59faef29167c16780583ca2068587fe896170c479360125462003d6a565b601255604051908152a16200258362003de8565b608460405162461bcd60e51b815260206004820152602160248201527f4f6e6c79207374616b696e6720636f6e74726163742063616e206e6f7469667960448201527f2e000000000000000000000000000000000000000000000000000000000000006064820152fd5b5034620004575780600319360112620004575760206001600160a01b0360035416604051908152f35b50346200045757604036600319011262000457576004356001600160a01b038082168092036200035a5762002a4d62003a8e565b62002a5e8260055416331462003b0e565b73ffffffffffffffffffffffffffffffffffffffff19928360065416176006551690600d541617600d5580f35b503462000457578060031936011262000457576020601254604051908152f35b5034620004575760203660031901126200045757806001600160a01b0360015416803b1562002b1c578180916024604051809481937f42966c6800000000000000000000000000000000000000000000000000000000835260043560048401525af18015620009f157620026535750f35b50fd5b5034620004575780600319360112620004575760206001600160a01b0360015416604051908152f35b5034620004575760603660031901126200045757600435906001600160a01b039081600554163314801562002d72575b62002b839062003d1e565b828152602092601184526040822054908360075416803b15620003b15760405163318a457160e21b815260248035600483015230908201529084908290604490829084905af18015620003bd5790849162002d5a575b5050836007541684600554163314801562002d50575b62002bfa9062003d1e565b846009541690813b156200067d5760405163095ea7b360e01b81526001600160a01b03919091166004820152602481018390529084908290604490829084905af18015620003bd57869291859162002d33575b5050608485600754169560015416856040519788948593630fe9a9f560e31b85526004850152602484015260443560448401523060648401525af1928315620009f157829362002cfe575b5082600762002ca78362003aa5565b500155600862002cb78262003aa5565b5001600160ff19825416179055600642019182421162002cea575062002cdf60099162003aa5565b500155604051908152f35b80634e487b7160e01b602492526011600452fd5b9092508381813d831162002d2b575b62002d19818362003bfa565b810103126200043b5751913862002c98565b503d62002d0d565b62002d419192935062003b5a565b6200035a578490833862002c4d565b5033301462002bef565b62002d659062003b5a565b6200035a57823862002bd9565b5033301462002b78565b503462000457576060366003190112620004575762002d9a62003a77565b9062002da562003a8e565b6044359262ffffff841684036200035a57600354604051630b4c774160e11b81526001600160a01b039283166004820152928216602484015262ffffff94909416604483015290926020908490606490829085165afa9182156200062c57809262002e18575b6020838360405191168152f35b9091506020833d60201162002e56575b8162002e376020938362003bfa565b8101031262000457575062002e4e60209262003ca4565b903862002e0b565b3d915062002e28565b503462000457576020366003190112620004575760043590601054821015620004575761016062002e908362003aa5565b506001600160a01b0381541690600181015490600281015460ff600383015416600483015460ff60058501541660068501549160078601549360ff6008880154169560ff600a60098a015499015416986040519a8b5260208b015260408a0152151560608901526080880152151560a087015260c086015260e085015215156101008401526101208301521515610140820152f35b50346200045757602090600319828136011262000453576001600160a01b039262002f568460055416331462003b0e565b8360025416936040516370a0823160e01b9586825230600483015260249684838981855afa9283156200106e57879362003324575b508215620032e15760405190815230600482015284818981855afa9081156200106e579083918891620032aa575b50106200324157803b1562001096578580918860405180948193632e1a7d4d60e01b83528760048401525af18015620004485790869162003229575b50508060011c9360068502908515918681046006148317156200321657600a90049260011b169085820460041417156200320357600a9004938260065416803b1562001bd25786829160046040518094819363014d6aed60e41b83525af180156200106e57908791620031eb575b50507f2cdd0b9dc1e55aa7be2d768970ec6e398da88b8e440c2798c748247ab578ddd784846006541692604051908152a2848080808486600d54165af1620030aa62003cda565b501562003198577fda1785fe1dec267c363b06ae3e02c3e086123f9d611399f7a1cc98492518372e8383600d541692604051908152a2838080808685600b54165af1620030f662003cda565b50156200312f57907fe796088bab50c1e26d1237e3d746703ee1c21ad8b81837918f122a7c08b4654091600b541692604051908152a280f35b6084826021876040519262461bcd60e51b845260048401528201527f4661696c656420746f2073656e642045544820746f207465616d2077616c6c6560448201527f74000000000000000000000000000000000000000000000000000000000000006064820152fd5b6084836027886040519262461bcd60e51b845260048401528201527f4661696c656420746f2073656e642045544820746f20747265617375727920636044820152661bdb9d1c9858dd60ca1b6064820152fd5b620031f69062003b5a565b6200109657853862003063565b8686634e487b7160e01b81526011600452fd5b8888634e487b7160e01b81526011600452fd5b620032349062003b5a565b6200067d57843862002ff5565b6084846022896040519262461bcd60e51b845260048401528201527f496e737566696369656e742062616c616e6365206f6e2074686520666163746f60448201527f72790000000000000000000000000000000000000000000000000000000000006064820152fd5b809250868092503d8311620032d9575b620032c6818362003bfa565b810103126200043b578290513862002fb9565b503d620032ba565b60648560158a6040519262461bcd60e51b845260048401528201527f4e6f205745544820746f206469737472696275746500000000000000000000006044820152fd5b9092508481813d831162003351575b6200333f818362003bfa565b810103126200043b5751913862002f8b565b503d62003333565b50346200045757606036600319011262000457576200337762003a77565b6200338162003a8e565b6044356001600160a01b039182821682036200067d576001546040516309f56ab160e11b81526001600160a01b0386811660048301529283166024820152612710604482015292909116606483015260209082906084908290889087165af1908115620003bd57849162003428575b5090602093817f4f2ce4e40f623ca765fc0167a25cb7842ceaafb8d82d3dec26ca0d0e0d2d4896931692839260405195169180a38152f35b90506020813d6020116200348b575b81620034466020938362003bfa565b81010312620003b1579060209381620034807f4f2ce4e40f623ca765fc0167a25cb7842ceaafb8d82d3dec26ca0d0e0d2d48969462003ca4565b9250925093620033f0565b3d915062003437565b5034620004575780600319360112620004575760206001600160a01b0360025416604051908152f35b503462000457576060366003190112620004575767ffffffffffffffff6004358181116200035a57620034f590369060040162003a46565b91906024358281116200067d576200351290369060040162003a46565b909160405194610b5a8087019587871090871117620035ab57869594926200355e94926200354f9262004545893960608752606087019162003c83565b91848303602086015262003c83565b906040604435910152039082f0801562000b3c57906001600160a01b0360209216807f91d24864a084ab70b268a1f865e757ca12006cf298d763b6be697302ef86498c6040519380a28152f35b602488634e487b7160e01b81526041600452fd5b5034620004575780600319360112620004575760206001600160a01b0360075416604051908152f35b50346200045757806003193601126200045757620036136001600160a01b0360055416331462003b0e565b60105490620036228262003c1d565b9162003632604051938462003bfa565b808352620036408162003c1d565b601f1901366020850137620036558162003c36565b92620036618262003c36565b6200366c8362003c36565b620036778462003c36565b620036828562003c36565b6200368d8662003c36565b91620036998762003c36565b93620036a58862003c36565b95620036b18962003c36565b97620036bd8a62003c36565b998b5b818110620037e85750506040519b8c9b8c6020610180610160928381019381528651809452019401915b818110620037c557505050620037b19895620037648d620037919762003755620037c19f9e9c9862003746620037829962003737620037a19f9a620037739a88820360208a0152620039d8565b908682036040880152620039d8565b90848203606086015262003a0e565b916080818403910152620039d8565b8d810360a08f01529062003a0e565b908b820360c08d0152620039d8565b9089820360e08b0152620039d8565b9087820361010089015262003a0e565b90858203610120870152620039d8565b9083820361014085015262003a0e565b0390f35b82516001600160a01b031685528f9e5060209485019490920191600101620036ea565b806001600160a01b039d9e939495969798999a9b9c9d6200380b60019362003aa5565b5054166200381a828762003c6e565b526002620038288262003aa5565b50015462003837828662003c6e565b5281620038448262003aa5565b50015462003853828862003c6e565b5260ff6003620038638362003aa5565b5001541662003873828962003c6e565b90151590526004620038858262003aa5565b50015462003894828a62003c6e565b5260ff6005620038a48362003aa5565b50015416620038b4828b62003c6e565b90151590526006620038c68262003aa5565b500154620038d5828c62003c6e565b526007620038e38262003aa5565b500154620038f2828d62003c6e565b528b620039138260ff6008620039088362003aa5565b500154169262003c6e565b90151590528c620039358260096200392b8262003aa5565b5001549262003c6e565b528d6200394b8260ff600a620039088362003aa5565b9015159052019c9b9a9998979695949392919c620036c0565b5034620004575760203660031901126200045757806001600160a01b03620039928160055416331462003b0e565b60025416803b1562002b1c578190602460405180948193632e1a7d4d60e01b835260043560048401525af18015620009f157620039cd575080f35b620025839062003b5a565b90815180825260208080930193019160005b828110620039f9575050505090565b835185529381019392810192600101620039ea565b90815180825260208080930193019160005b82811062003a2f575050505090565b835115158552938101939281019260010162003a20565b9181601f840112156200043b5782359167ffffffffffffffff83116200043b57602083818601950101116200043b57565b600435906001600160a01b03821682036200043b57565b602435906001600160a01b03821682036200043b57565b60105481101562003ae157600b906010600052027f1b6847dc741a1b0cd08d278845f9d819d87b734759afb55fe2de5cb82a9ae6720190600090565b634e487b7160e01b600052603260045260246000fd5b60409060031901126200043b576004359060243590565b1562003b1657565b606460405162461bcd60e51b815260206004820152601760248201527f43616c6c6572206973206e6f7420746865206f776e65720000000000000000006044820152fd5b67ffffffffffffffff811162003b6f57604052565b634e487b7160e01b600052604160045260246000fd5b6080810190811067ffffffffffffffff82111762003b6f57604052565b610160810190811067ffffffffffffffff82111762003b6f57604052565b60e0810190811067ffffffffffffffff82111762003b6f57604052565b60a0810190811067ffffffffffffffff82111762003b6f57604052565b90601f8019910116810190811067ffffffffffffffff82111762003b6f57604052565b67ffffffffffffffff811162003b6f5760051b60200190565b9062003c428262003c1d565b62003c51604051918262003bfa565b828152809262003c64601f199162003c1d565b0190602036910137565b805182101562003ae15760209160051b010190565b908060209392818452848401376000828201840152601f01601f1916010190565b51906001600160a01b03821682036200043b57565b811562003cc4570490565b634e487b7160e01b600052601260045260246000fd5b3d1562003d19573d9067ffffffffffffffff821162003b6f576040519162003d0d601f8201601f19166020018462003bfa565b82523d6000602084013e565b606090565b1562003d2657565b606460405162461bcd60e51b815260206004820152601860248201527f43616c6c6572206973206e6f7420617574686f72697a656400000000000000006044820152fd5b9190820180921162003d7857565b634e487b7160e01b600052601160045260246000fd5b1562003d9657565b606460405162461bcd60e51b815260206004820152602060248201527f416d6f756e74206d7573742062652067726561746572207468616e207a65726f6044820152fd5b519081151582036200043b57565b60025460006001600160a01b038092166040928351916370a0823160e01b83523060048401526020928381602481855afa90811562003fb257859162003f7f575b50601254809110158062003f75575b62003e46575b505050505050565b839060448460065416878951958694859363a9059cbb60e01b8552600485015260248401525af1801562003f6b5762003f2f575b5060065416601254813b15620003b15783916024839287519485938492639b5ceb3560e01b845260048401525af1801562003f255762003ef1575b507f8ff98a7f9bedb57df86769d07998b067fba595272053e3690d3412aff560a82c91926012549051908152a160125538808080808062003e3e565b9162003f1e7f8ff98a7f9bedb57df86769d07998b067fba595272053e3690d3412aff560a82c9362003b5a565b9162003eb5565b84513d85823e3d90fd5b8281813d831162003f63575b62003f47818362003bfa565b81010312620003b15762003f5b9062003dda565b503862003e7a565b503d62003f3b565b85513d86823e3d90fd5b5080151562003e38565b90508381813d831162003faa575b62003f99818362003bfa565b810103126200067d57513862003e29565b503d62003f8d565b86513d87823e3d90fd5b91908260409103126200043b576020825192015190565b51906001600160801b03821682036200043b57565b51908160020b82036200043b57565b9190826101809103126200043b5781516bffffffffffffffffffffffff811681036200043b57916200402c6020820162003ca4565b916200403b6040830162003ca4565b916200404a6060820162003ca4565b91608082015162ffffff811681036200043b57916200406c60a0820162003fe8565b916200407b60c0830162003fe8565b916200408a60e0820162003fd3565b916101008201519161012081015191620040b7610160620040af610140850162003fd3565b930162003fd3565b90565b519061ffff821682036200043b57565b80156200415a57808060011462004153576002146200414d576001908161013382101682600b831016176200414557906002815b808211620041185750508160001904811162003d78570290565b90928060001904811162003d78578184166200413b575b800292811c90620040fe565b809202916200412f565b600291500a90565b50600490565b5050600190565b50600090565b156200416857565b606460405162461bcd60e51b815260206004820152600f60248201527f417070726f76616c206661696c656400000000000000000000000000000000006044820152fd5b929091926001600160a01b03818160055416331491620041cc8362003b0e565b80821596620041dc881562003d8e565b620041ec82600454169562003b0e565b6040805163095ea7b360e01b81526001600160a01b039690961660048701526024860196909652169660209493600092908681604481878e5af1908115620043f8578491620043a8575b509886916200424b620042f9999a9b62004160565b80600254168751926200425e8462003bc0565b835283830152612710878301523060608301528560808301528460a08301528460c083015260045416865180809a81946304e45aaf60e01b83526004830191909160c060e0820193816001600160a01b039182815116855282602082015116602086015262ffffff60408201511660408601528260608201511660608601526080810151608086015260a081015160a0860152015116910152565b039134905af19586156200439e57829662004369575b508152601184528281205496828004600114171562002cea5750600660646200435b7fdb04c7a6d4758fd55d738ebc67e7f3010ac922be00771ef29521a4090d1eb13f96979862003aa5565b50920491015551838152a190565b9095508481813d831162004396575b62004384818362003bfa565b8101031262000453575194386200430f565b503d62004378565b84513d84823e3d90fd5b90508681813d8311620043f0575b620043c2818362003bfa565b81010312620003b1579886916200424b620043e3620042f99a9b9c62003dda565b929b9a9950509162004236565b503d620043b6565b86513d86823e3d90fd5b9060006003831115620044535750816001908060011c6001810180911162003d785791905b8483106200443457505050565b90919350620044498462001e31818462003cb9565b821c919062004427565b916200445b57565b60019150565b60405163095ea7b360e01b602082019081526001600160a01b039390931660248201526044808201949094529283526000928392908390620044a560648262003bfa565b51925af1620044b362003cda565b8162004507575b5015620044c357565b606460405162461bcd60e51b815260206004820152600260248201527f53410000000000000000000000000000000000000000000000000000000000006044820152fd5b80518015925082156200451e575b505038620044ba565b81925090602091810103126200043b5760206200453c910162003dda565b38806200451556fe60406080815234620003bb5762000b5a803803806200001e81620003c0565b9283398101606082820312620003bb5781516001600160401b039290838111620003bb578262000050918301620003e6565b60209283830151858111620003bb5786916200006e918501620003e6565b920151938151818111620002bb576003908154906001948583811c93168015620003b0575b888410146200039a578190601f9384811162000344575b508890848311600114620002dd57600092620002d1575b505060001982851b1c191690851b1782555b8451928311620002bb5760049485548581811c91168015620002b0575b888210146200029b5782811162000250575b5086918411600114620001e557938394918492600095620001d9575b50501b92600019911b1c19161781555b670de0b6b3a764000092838102938185041490151715620001ad573315620001c25760025490838201809211620001ad57506000917fddf252ad1be2c89b69c2b068fc378daa952ba7f163c4a11628f55a4df523b3ef9160025533835282815284832084815401905584519384523393a3516107019081620004598239f35b601190634e487b7160e01b6000525260246000fd5b602490600085519163ec442f0560e01b8352820152fd5b0151935038806200011e565b9190601f198416928660005284886000209460005b8a898383106200023857505050106200021d575b50505050811b0181556200012e565b01519060f884600019921b161c19169055388080806200020e565b868601518955909701969485019488935001620001fa565b86600052876000208380870160051c8201928a881062000291575b0160051c019086905b8281106200028457505062000102565b6000815501869062000274565b925081926200026b565b602287634e487b7160e01b6000525260246000fd5b90607f1690620000f0565b634e487b7160e01b600052604160045260246000fd5b015190503880620000c1565b90879350601f19831691866000528a6000209260005b8c8282106200032d575050841162000314575b505050811b018255620000d3565b015160001983871b60f8161c1916905538808062000306565b8385015186558b97909501949384019301620002f3565b90915084600052886000208480850160051c8201928b861062000390575b918991869594930160051c01915b82811062000380575050620000aa565b6000815585945089910162000370565b9250819262000362565b634e487b7160e01b600052602260045260246000fd5b92607f169262000093565b600080fd5b6040519190601f01601f191682016001600160401b03811183821017620002bb57604052565b919080601f84011215620003bb5782516001600160401b038111620002bb576020906200041c601f8201601f19168301620003c0565b92818452828287010111620003bb5760005b8181106200044457508260009394955001015290565b85810183015184820184015282016200042e56fe608060408181526004918236101561001657600080fd5b600092833560e01c91826306fdde031461045057508163095ea7b3146103a457816318160ddd1461038557816323b872dd14610276578163313ce5671461025a57816370a082311461022457816395d89b411461010357508063a9059cbb146100d35763dd62ed3e1461008857600080fd5b346100cf57806003193601126100cf57806020926100a4610573565b6100ac61058e565b6001600160a01b0391821683526001865283832091168252845220549051908152f35b5080fd5b50346100cf57806003193601126100cf576020906100fc6100f2610573565b60243590336105a4565b5160018152f35b8383346100cf57816003193601126100cf5780519082845460018160011c906001831692831561021a575b6020938484108114610207578388529081156101eb5750600114610196575b505050829003601f01601f191682019267ffffffffffffffff841183851017610183575082918261017f92528261052a565b0390f35b80604186634e487b7160e01b6024945252fd5b8787529192508591837f8a35acfbc15ff81a39ae7d344fd709f28e8600b4aa8c65c6b64bfe7fe36bd19b5b8385106101d7575050505083010185808061014d565b8054888601830152930192849082016101c1565b60ff1916878501525050151560051b840101905085808061014d565b60248960228c634e487b7160e01b835252fd5b91607f169161012e565b5050346100cf5760203660031901126100cf57806020926001600160a01b0361024b610573565b16815280845220549051908152f35b5050346100cf57816003193601126100cf576020905160128152f35b9050823461038257606036600319011261038257610292610573565b61029a61058e565b91604435936001600160a01b0383168083526001602052868320338452602052868320549160001983036102d7575b6020886100fc8989896105a4565b86831061033d578115610327573315610311575082526001602090815286832033845281529186902090859003905582906100fc876102c9565b60249084895191634a1406b160e11b8352820152fd5b6024908489519163e602df0560e01b8352820152fd5b87517ffb8f41b2000000000000000000000000000000000000000000000000000000008152339181019182526020820193909352604081018790528291506060010390fd5b80fd5b5050346100cf57816003193601126100cf576020906002549051908152f35b90503461044c578160031936011261044c576103be610573565b602435903315610436576001600160a01b031691821561042057508083602095338152600187528181208582528752205582519081527f8c5be1e5ebec7d5bd14f71427d1e84f3dd0314c0f7b2291e5b200ac8c7c3b925843392a35160018152f35b60249085855191634a1406b160e11b8352820152fd5b6024838686519163e602df0560e01b8352820152fd5b8280fd5b8490843461044c578260031936011261044c578260035460018160011c9060018316928315610520575b6020938484108114610207578388529081156101eb57506001146104ca57505050829003601f01601f191682019267ffffffffffffffff841183851017610183575082918261017f92528261052a565b600387529192508591837fc2575a0e9e593c00f959f8c92f12db2869c3395a3b0502d05e2516446f71f85b5b83851061050c575050505083010185808061014d565b8054888601830152930192849082016104f6565b91607f169161047a565b6020808252825181830181905290939260005b82811061055f57505060409293506000838284010152601f8019910116010190565b81810186015184820160400152850161053d565b600435906001600160a01b038216820361058957565b600080fd5b602435906001600160a01b038216820361058957565b916001600160a01b0380841692831561069a5716928315610669576000908382528160205260408220549083821061061e575091604082827fddf252ad1be2c89b69c2b068fc378daa952ba7f163c4a11628f55a4df523b3ef958760209652828652038282205586815220818154019055604051908152a3565b6040517fe450d38c0000000000000000000000000000000000000000000000000000000081526001600160a01b03919091166004820152602481019190915260448101839052606490fd5b60246040517fec442f0500000000000000000000000000000000000000000000000000000000815260006004820152fd5b60246040517f96c6fd1e00000000000000000000000000000000000000000000000000000000815260006004820152fdfea26469706673582212209a4442c20b10bc50c93b0a5c5ed18a2c0e0fdcca4f38c3479a8b4d6005159a5564736f6c63430008180033a2646970667358221220f30c0937694f4299c839d2003c79e8a00c50f33dd5b25b8a12e4b42f94b6721e64736f6c63430008180033",
  "linkReferences": {},
  "deployedLinkReferences": {}
}