{
  "_format": "hh-sol-artifact-1",
  "contractName": "MyFactory",
  "sourceName": "contracts/TestFactory.sol",
  "abi": [
    {
      "inputs": [
        {
          "internalType": "address",
          "name": "_positionManager",
          "type": "address"
        },
        {
          "internalType": "address",
          "name": "_weth",
          "type": "address"
        },
        {
          "internalType": "address",
          "name": "_uniswapFactory",
          "type": "address"
        },
        {
          "internalType": "address",
          "name": "_swapRouter",
          "type": "address"
        }
      ],
      "stateMutability": "nonpayable",
      "type": "constructor"
    },
    {
      "anonymous": false,
      "inputs": [
        {
          "indexed": false,
          "internalType": "uint256",
          "name": "tokenId",
          "type": "uint256"
        },
        {
          "indexed": false,
          "internalType": "uint256",
          "name": "amount0",
          "type": "uint256"
        },
        {
          "indexed": false,
          "internalType": "uint256",
          "name": "amount1",
          "type": "uint256"
        }
      ],
      "name": "FeesCollected",
      "type": "event"
    },
    {
      "anonymous": false,
      "inputs": [
        {
          "indexed": false,
          "internalType": "uint256",
          "name": "amountNeeded",
          "type": "uint256"
        }
      ],
      "name": "FundsRequested",
      "type": "event"
    },
    {
      "anonymous": false,
      "inputs": [
        {
          "indexed": false,
          "internalType": "uint256",
          "name": "amount",
          "type": "uint256"
        }
      ],
      "name": "FundsSent",
      "type": "event"
    },
    {
      "anonymous": false,
      "inputs": [
        {
          "indexed": false,
          "internalType": "uint256",
          "name": "tokenId",
          "type": "uint256"
        },
        {
          "indexed": true,
          "internalType": "address",
          "name": "token",
          "type": "address"
        },
        {
          "indexed": true,
          "internalType": "address",
          "name": "pool",
          "type": "address"
        },
        {
          "indexed": false,
          "internalType": "uint256",
          "name": "tokenAmount",
          "type": "uint256"
        },
        {
          "indexed": false,
          "internalType": "uint256",
          "name": "wethAmount",
          "type": "uint256"
        }
      ],
      "name": "LiquidityAdded",
      "type": "event"
    },
    {
      "anonymous": false,
      "inputs": [
        {
          "indexed": true,
          "internalType": "address",
          "name": "token",
          "type": "address"
        },
        {
          "indexed": true,
          "internalType": "address",
          "name": "pool",
          "type": "address"
        },
        {
          "indexed": false,
          "internalType": "uint256",
          "name": "tokenAmount",
          "type": "uint256"
        },
        {
          "indexed": false,
          "internalType": "uint256",
          "name": "wethAmount",
          "type": "uint256"
        },
        {
          "indexed": false,
          "internalType": "string",
          "name": "error",
          "type": "string"
        }
      ],
      "name": "LiquidityAdditionFailed",
      "type": "event"
    },
    {
      "anonymous": false,
      "inputs": [
        {
          "indexed": true,
          "internalType": "address",
          "name": "token",
          "type": "address"
        },
        {
          "indexed": false,
          "internalType": "uint256",
          "name": "tokenId",
          "type": "uint256"
        },
        {
          "indexed": false,
          "internalType": "uint256",
          "name": "amount0",
          "type": "uint256"
        },
        {
          "indexed": false,
          "internalType": "uint256",
          "name": "amount1",
          "type": "uint256"
        }
      ],
      "name": "LiquidityRemoved",
      "type": "event"
    },
    {
      "anonymous": false,
      "inputs": [
        {
          "indexed": true,
          "internalType": "address",
          "name": "token0",
          "type": "address"
        },
        {
          "indexed": true,
          "internalType": "address",
          "name": "poolAddress",
          "type": "address"
        }
      ],
      "name": "PoolCreated",
      "type": "event"
    },
    {
      "anonymous": false,
      "inputs": [
        {
          "indexed": true,
          "internalType": "address",
          "name": "poolAddress",
          "type": "address"
        },
        {
          "indexed": false,
          "internalType": "uint160",
          "name": "sqrtPriceX96",
          "type": "uint160"
        }
      ],
      "name": "PoolInitialized",
      "type": "event"
    },
    {
      "anonymous": false,
      "inputs": [
        {
          "indexed": false,
          "internalType": "uint256",
          "name": "tokenId",
          "type": "uint256"
        },
        {
          "indexed": false,
          "internalType": "bool",
          "name": "isTokenDead",
          "type": "bool"
        }
      ],
      "name": "ResetFeesDays",
      "type": "event"
    },
    {
      "anonymous": false,
      "inputs": [
        {
          "indexed": true,
          "internalType": "address",
          "name": "token",
          "type": "address"
        },
        {
          "indexed": false,
          "internalType": "uint256",
          "name": "amountIn",
          "type": "uint256"
        },
        {
          "indexed": false,
          "internalType": "uint256",
          "name": "amountOut",
          "type": "uint256"
        }
      ],
      "name": "SwappedToWETH",
      "type": "event"
    },
    {
      "anonymous": false,
      "inputs": [
        {
          "indexed": true,
          "internalType": "address",
          "name": "tokenAddress",
          "type": "address"
        },
        {
          "indexed": true,
          "internalType": "address",
          "name": "poolAddress",
          "type": "address"
        }
      ],
      "name": "TokenApproved",
      "type": "event"
    },
    {
      "anonymous": false,
      "inputs": [
        {
          "indexed": true,
          "internalType": "address",
          "name": "tokenAddress",
          "type": "address"
        }
      ],
      "name": "TokenDeployed",
      "type": "event"
    },
    {
      "anonymous": false,
      "inputs": [
        {
          "indexed": false,
          "internalType": "uint256",
          "name": "amount",
          "type": "uint256"
        }
      ],
      "name": "TokensSwapped",
      "type": "event"
    },
    {
      "anonymous": false,
      "inputs": [
        {
          "indexed": false,
          "internalType": "uint256",
          "name": "tokenId",
          "type": "uint256"
        },
        {
          "indexed": false,
          "internalType": "bool",
          "name": "isTokenDead",
          "type": "bool"
        }
      ],
      "name": "ZeroFeesDays",
      "type": "event"
    },
    {
      "stateMutability": "payable",
      "type": "fallback"
    },
    {
      "inputs": [
        {
          "internalType": "address",
          "name": "_token0",
          "type": "address"
        },
        {
          "internalType": "address",
          "name": "_token1",
          "type": "address"
        },
        {
          "internalType": "address",
          "name": "tokenAddress",
          "type": "address"
        },
        {
          "internalType": "uint256",
          "name": "_token0Amount",
          "type": "uint256"
        },
        {
          "internalType": "uint256",
          "name": "_token1Amount",
          "type": "uint256"
        }
      ],
      "name": "addInitialLiquidity",
      "outputs": [
        {
          "internalType": "uint256",
          "name": "tokenId",
          "type": "uint256"
        }
      ],
      "stateMutability": "nonpayable",
      "type": "function"
    },
    {
      "inputs": [
        {
          "internalType": "uint256",
          "name": "",
          "type": "uint256"
        }
      ],
      "name": "allTokens",
      "outputs": [
        {
          "internalType": "address",
          "name": "tokenAddress",
          "type": "address"
        },
        {
          "internalType": "uint256",
          "name": "timeStamp",
          "type": "uint256"
        },
        {
          "internalType": "uint256",
          "name": "tokenId",
          "type": "uint256"
        },
        {
          "internalType": "bool",
          "name": "liquidityRemoved",
          "type": "bool"
        },
        {
          "internalType": "uint256",
          "name": "zerofeedays",
          "type": "uint256"
        },
        {
          "internalType": "bool",
          "name": "isTokenDEAD",
          "type": "bool"
        }
      ],
      "stateMutability": "view",
      "type": "function"
    },
    {
      "inputs": [
        {
          "internalType": "address",
          "name": "nftAddress",
          "type": "address"
        },
        {
          "internalType": "uint256",
          "name": "tokenId",
          "type": "uint256"
        },
        {
          "internalType": "address",
          "name": "spender",
          "type": "address"
        }
      ],
      "name": "approveNFT",
      "outputs": [],
      "stateMutability": "nonpayable",
      "type": "function"
    },
    {
      "inputs": [
        {
          "internalType": "uint256",
          "name": "amount",
          "type": "uint256"
        }
      ],
      "name": "callAddRewards",
      "outputs": [],
      "stateMutability": "payable",
      "type": "function"
    },
    {
      "inputs": [
        {
          "internalType": "uint256",
          "name": "tokenId",
          "type": "uint256"
        }
      ],
      "name": "collectFees",
      "outputs": [],
      "stateMutability": "nonpayable",
      "type": "function"
    },
    {
      "inputs": [
        {
          "internalType": "uint256",
          "name": "amount",
          "type": "uint256"
        }
      ],
      "name": "convertWETHToETH",
      "outputs": [],
      "stateMutability": "nonpayable",
      "type": "function"
    },
    {
      "inputs": [
        {
          "internalType": "address",
          "name": "token0",
          "type": "address"
        },
        {
          "internalType": "address",
          "name": "token1",
          "type": "address"
        },
        {
          "internalType": "uint160",
          "name": "sqrtPriceX96",
          "type": "uint160"
        }
      ],
      "name": "createAndInitializePoolIfNecessary",
      "outputs": [
        {
          "internalType": "address",
          "name": "pool",
          "type": "address"
        }
      ],
      "stateMutability": "nonpayable",
      "type": "function"
    },
    {
      "inputs": [
        {
          "internalType": "string",
          "name": "_name",
          "type": "string"
        },
        {
          "internalType": "string",
          "name": "_symbol",
          "type": "string"
        },
        {
          "internalType": "uint256",
          "name": "_supply",
          "type": "uint256"
        }
      ],
      "name": "deployToken",
      "outputs": [
        {
          "internalType": "address",
          "name": "",
          "type": "address"
        }
      ],
      "stateMutability": "nonpayable",
      "type": "function"
    },
    {
      "inputs": [],
      "name": "getAllTokens",
      "outputs": [
        {
          "internalType": "address[]",
          "name": "addresses",
          "type": "address[]"
        },
        {
          "internalType": "uint256[]",
          "name": "tokenIds",
          "type": "uint256[]"
        },
        {
          "internalType": "uint256[]",
          "name": "timestamps",
          "type": "uint256[]"
        },
        {
          "internalType": "bool[]",
          "name": "liquidityRemovedStatus",
          "type": "bool[]"
        },
        {
          "internalType": "uint256[]",
          "name": "zerofeesdays",
          "type": "uint256[]"
        },
        {
          "internalType": "bool[]",
          "name": "isTokenDead",
          "type": "bool[]"
        }
      ],
      "stateMutability": "view",
      "type": "function"
    },
    {
      "inputs": [
        {
          "internalType": "uint256",
          "name": "tokenId",
          "type": "uint256"
        }
      ],
      "name": "getPosition",
      "outputs": [
        {
          "internalType": "uint96",
          "name": "nonce",
          "type": "uint96"
        },
        {
          "internalType": "address",
          "name": "operator",
          "type": "address"
        },
        {
          "internalType": "address",
          "name": "token0",
          "type": "address"
        },
        {
          "internalType": "address",
          "name": "token1",
          "type": "address"
        },
        {
          "internalType": "uint24",
          "name": "fee",
          "type": "uint24"
        },
        {
          "internalType": "int24",
          "name": "tickLower",
          "type": "int24"
        },
        {
          "internalType": "int24",
          "name": "tickUpper",
          "type": "int24"
        },
        {
          "internalType": "uint128",
          "name": "liquidity",
          "type": "uint128"
        },
        {
          "internalType": "uint256",
          "name": "feeGrowthInside0LastX128",
          "type": "uint256"
        },
        {
          "internalType": "uint256",
          "name": "feeGrowthInside1LastX128",
          "type": "uint256"
        },
        {
          "internalType": "uint128",
          "name": "tokensOwed0",
          "type": "uint128"
        },
        {
          "internalType": "uint128",
          "name": "tokensOwed1",
          "type": "uint128"
        }
      ],
      "stateMutability": "view",
      "type": "function"
    },
    {
      "inputs": [
        {
          "internalType": "address",
          "name": "tokenA",
          "type": "address"
        },
        {
          "internalType": "address",
          "name": "tokenB",
          "type": "address"
        },
        {
          "internalType": "uint24",
          "name": "fee",
          "type": "uint24"
        }
      ],
      "name": "get_Pool",
      "outputs": [
        {
          "internalType": "address",
          "name": "pool",
          "type": "address"
        }
      ],
      "stateMutability": "view",
      "type": "function"
    },
    {
      "inputs": [
        {
          "internalType": "bytes[]",
          "name": "data",
          "type": "bytes[]"
        }
      ],
      "name": "multicall",
      "outputs": [],
      "stateMutability": "payable",
      "type": "function"
    },
    {
      "inputs": [
        {
          "internalType": "uint256",
          "name": "amount",
          "type": "uint256"
        }
      ],
      "name": "notifyFundsNeeded",
      "outputs": [],
      "stateMutability": "nonpayable",
      "type": "function"
    },
    {
      "inputs": [],
      "name": "owner",
      "outputs": [
        {
          "internalType": "address",
          "name": "",
          "type": "address"
        }
      ],
      "stateMutability": "view",
      "type": "function"
    },
    {
      "inputs": [],
      "name": "pendingFunds",
      "outputs": [
        {
          "internalType": "uint256",
          "name": "",
          "type": "uint256"
        }
      ],
      "stateMutability": "view",
      "type": "function"
    },
    {
      "inputs": [],
      "name": "positionManager",
      "outputs": [
        {
          "internalType": "contract INonfungiblePositionManager",
          "name": "",
          "type": "address"
        }
      ],
      "stateMutability": "view",
      "type": "function"
    },
    {
      "inputs": [
        {
          "internalType": "address",
          "name": "_stakingContract",
          "type": "address"
        },
        {
          "internalType": "uint256",
          "name": "amountRequested",
          "type": "uint256"
        }
      ],
      "name": "provideFundsIfNeeded",
      "outputs": [],
      "stateMutability": "nonpayable",
      "type": "function"
    },
    {
      "inputs": [
        {
          "internalType": "uint256",
          "name": "tokenId",
          "type": "uint256"
        },
        {
          "internalType": "uint128",
          "name": "liquidityToRemove",
          "type": "uint128"
        }
      ],
      "name": "removeLiquidity",
      "outputs": [],
      "stateMutability": "nonpayable",
      "type": "function"
    },
    {
      "inputs": [
        {
          "internalType": "uint256",
          "name": "tokenId",
          "type": "uint256"
        }
      ],
      "name": "resetNoFeeDays",
      "outputs": [],
      "stateMutability": "nonpayable",
      "type": "function"
    },
    {
      "inputs": [
        {
          "internalType": "address payable",
          "name": "_stakingAddress",
          "type": "address"
        }
      ],
      "name": "setStakingAddress",
      "outputs": [],
      "stateMutability": "nonpayable",
      "type": "function"
    },
    {
      "inputs": [],
      "name": "stakingAddress",
      "outputs": [
        {
          "internalType": "address payable",
          "name": "",
          "type": "address"
        }
      ],
      "stateMutability": "view",
      "type": "function"
    },
    {
      "inputs": [
        {
          "internalType": "uint256",
          "name": "amountIn",
          "type": "uint256"
        },
        {
          "internalType": "address",
          "name": "tokenAddress",
          "type": "address"
        }
      ],
      "name": "swapETHforTokens",
      "outputs": [
        {
          "internalType": "uint256",
          "name": "amountOut",
          "type": "uint256"
        }
      ],
      "stateMutability": "payable",
      "type": "function"
    },
    {
      "inputs": [],
      "name": "swapRouter",
      "outputs": [
        {
          "internalType": "contract ISwapRouter",
          "name": "",
          "type": "address"
        }
      ],
      "stateMutability": "view",
      "type": "function"
    },
    {
      "inputs": [
        {
          "internalType": "uint256",
          "name": "amountIn",
          "type": "uint256"
        },
        {
          "internalType": "address",
          "name": "tokenAddress",
          "type": "address"
        }
      ],
      "name": "swapTokensForWETH",
      "outputs": [
        {
          "internalType": "uint256",
          "name": "amountOut",
          "type": "uint256"
        }
      ],
      "stateMutability": "payable",
      "type": "function"
    },
    {
      "inputs": [],
      "name": "tokenCount",
      "outputs": [
        {
          "internalType": "uint256",
          "name": "",
          "type": "uint256"
        }
      ],
      "stateMutability": "view",
      "type": "function"
    },
    {
      "inputs": [
        {
          "internalType": "address",
          "name": "tokenAddress",
          "type": "address"
        },
        {
          "internalType": "address",
          "name": "to",
          "type": "address"
        },
        {
          "internalType": "uint256",
          "name": "amount",
          "type": "uint256"
        }
      ],
      "name": "transferTokens",
      "outputs": [],
      "stateMutability": "nonpayable",
      "type": "function"
    },
    {
      "inputs": [],
      "name": "tryToSendFunds",
      "outputs": [],
      "stateMutability": "nonpayable",
      "type": "function"
    },
    {
      "inputs": [],
      "name": "uniswapFactory",
      "outputs": [
        {
          "internalType": "contract IUniswapV3Factory",
          "name": "",
          "type": "address"
        }
      ],
      "stateMutability": "view",
      "type": "function"
    },
    {
      "inputs": [
        {
          "internalType": "uint256",
          "name": "tokenId",
          "type": "uint256"
        }
      ],
      "name": "updateNoFeeDays",
      "outputs": [],
      "stateMutability": "nonpayable",
      "type": "function"
    },
    {
      "inputs": [],
      "name": "weth",
      "outputs": [
        {
          "internalType": "address",
          "name": "",
          "type": "address"
        }
      ],
      "stateMutability": "view",
      "type": "function"
    },
    {
      "stateMutability": "payable",
      "type": "receive"
    }
  ],
  "bytecode": "0x608034620000da57601f6200341438819003918201601f19168301916001600160401b03831184841017620000df57808492608094604052833981010312620000da576200004d81620000f5565b906200005c60208201620000f5565b6200007860606200007060408501620000f5565b9301620000f5565b90655af3107a400060075560018060a01b03928380928160018060a01b031997168760015416176001551685600254161760025516836003541617600355168160045416176004553390600554161760055560405161330990816200010b8239f35b600080fd5b634e487b7160e01b600052604160045260246000fd5b51906001600160a01b0382168203620000da5756fe608060405260043610156200001a575b36156200001857005b005b6000803560e01c8063247932be14620020835780632855d76a1462001ff35780632a5c792a1462001dc95780633a93babb1462001cba5780633fc8cef31462001c9157806351246d6e1462001b765780635bc30eb014620016a4578063634282af14620016205780636e9551d7146200152c578063791b98bc14620015035780637c6bc9be14620014e35780638bdb2afa14620014ba5780638c3a65a214620013c95780638da5cb5b14620013a0578063911757ba14620010d85780639f181b5e14620010b9578063a64b6e5f1462000ff8578063ac9650d81462000ea7578063ad1b9e321462000d50578063ae3b05d41462000d30578063b17acdcd1462000bd2578063be5ef1761462000a69578063c31c9c071462000a40578063cbf0ed6b1462000996578063d10b6e0c1462000902578063d7b4be2414620008d9578063eb02c30114620006bb578063f4e0d9ac146200065b578063fde16ed314620004e95763ffc5baf9146200018f57506200000f565b6040366003190112620004e65760043590620001aa6200221d565b916001600160a01b03808060055416331494620001c7866200229d565b620001d48415156200242c565b1691604051946370a0823160e01b86523060048701526020958681602481885afa908115620004db579083918791620004a4575b50106200043a5785826200025792620002268660045416916200229d565b604051938492839263095ea7b360e01b845260048401602090939291936001600160a01b0360408201951681520152565b038188885af19081156200042f578591620003fb575b5015620003b75791816200032c938693600254166040519362000290856200231b565b845284840152612710604084015230606084015260808301528460a08301528460c08301526004541660405180809581946304e45aaf60e01b83526004830191909160c060e0820193816001600160a01b039182815116855282602082015116602086015262ffffff60408201511660408601528260608201511660608601526080810151608086015260a081015160a0860152015116910152565b039134905af1918215620003ab579162000373575b507fdb04c7a6d4758fd55d738ebc67e7f3010ac922be00771ef29521a4090d1eb13f82604051838152a1604051908152f35b90508181813d8311620003a3575b6200038d818362002338565b810103126200039e57513862000341565b600080fd5b503d62000381565b604051903d90823e3d90fd5b6064856040519062461bcd60e51b82526004820152600f60248201527f417070726f76616c206661696c656400000000000000000000000000000000006044820152fd5b620004209150863d881162000427575b62000417818362002338565b81019062002478565b386200026d565b503d6200040b565b6040513d87823e3d90fd5b6084866040519062461bcd60e51b82526004820152603260248201527f496e73756666696369656e7420746f6b656e2062616c616e636520696e20746860448201527f6520666163746f727920636f6e747261637400000000000000000000000000006064820152fd5b809250888092503d8311620004d3575b620004c0818362002338565b810103126200039e578290513862000208565b503d620004b4565b6040513d88823e3d90fd5b80fd5b506040366003190112620004e65760043590620005056200221d565b6001600160a01b03838160025416826004541662000529846005541633146200229d565b604051809263095ea7b360e01b82528188816200056360209c8d9760048401602090939291936001600160a01b0360408201951681520152565b03925af19081156200042f57859162000639575b5015620003b75791816200032c938187946002541693604051946200059c866200231b565b85521684840152612710604084015233606084015260808301528460a08301528460c08301526004541660405180809581946304e45aaf60e01b83526004830191909160c060e0820193816001600160a01b039182815116855282602082015116602086015262ffffff60408201511660408601528260608201511660608601526080810151608086015260a081015160a0860152015116910152565b620006549150863d8811620004275762000417818362002338565b3862000577565b5034620004e6576020366003190112620004e6576004356001600160a01b03808216809203620006b75762000696906005541633146200229d565b73ffffffffffffffffffffffffffffffffffffffff19600654161760065580f35b8280fd5b5034620004e6576020366003190112620004e6576001600160a01b0390620006e9826005541633146200229d565b8160015416906040519283927f99fbab8800000000000000000000000000000000000000000000000000000000845260043560048501528360246101809687935afa908115620008ce578280948192829083849185938697879a889789809c620007cd575b5050908391826040519e8f926bffffffffffffffffffffffff1683521690602001521660408c01521660608a015262ffffff16608089015260020b60a088015260020b60c08701526fffffffffffffffffffffffffffffffff948580941660e08801526101008701526101208601521661014084015216610160820152f35b9b509c5050505097505050505050508383813d8311620008c6575b620007f4818362002338565b81010312620004e6578251906bffffffffffffffffffffffff82168203620004e6576200082460208501620023e2565b916200083360408601620023e2565b946200084260608201620023e2565b9460808201519362ffffff85168503620004e657506200086560a0830162002690565b6200087360c0840162002690565b906200088260e08501620023f7565b9261010085015196816101208701519a620008b0610160620008a86101408b01620023f7565b9901620023f7565b989a9c9092949596999b97989a9091386200074e565b503d620007e8565b6040513d84823e3d90fd5b5034620004e65780600319360112620004e65760206001600160a01b0360065416604051908152f35b5034620004e6576060366003190112620004e657806200092162002206565b6001600160a01b036200093362002234565b9116803b15620009925760405163095ea7b360e01b81526001600160a01b03929092166004830152602480359083015282908290604490829084905af18015620008ce576200097f5750f35b6200098a90620022e9565b620004e65780f35b5050fd5b5034620004e6576020366003190112620004e657620009c26001600160a01b036005541633146200229d565b600435815260096020527f6f3e068cb934f31cfea69b2f72e697abfe27982d58fe7fcabb327c96c89cd33a604082205482600462000a00836200224b565b50015560ff600562000a22600462000a18856200224b565b500154936200224b565b50015460408051938452911615156020830152819081015b0390a180f35b5034620004e65780600319360112620004e65760206001600160a01b0360045416604051908152f35b5034620004e6576040366003190112620004e6578062000a8862002206565b602435906001600160a01b03908160025416604051906370a0823160e01b82523060048301526020918281602481855afa90811562000bc757879162000b8f575b5085111562000ad6578580f35b60405163a9059cbb60e01b81526001600160a01b038416600482015260248101869052908290829060449082908a905af18015620004db5762000b6c575b50501690813b1562000992578291602483926040519485938492639b5ceb3560e01b845260048401525af18015620008ce5762000b54575b808080808580f35b62000b5f90620022e9565b620004e657803862000b4c565b8162000b8692903d10620004275762000417818362002338565b50388062000b14565b809750838092503d831162000bbf575b62000bab818362002338565b810103126200039e57848796519062000ac9565b503d62000b9f565b6040513d89823e3d90fd5b5034620004e6576020366003190112620004e65760043581604062000c8d6001600160a01b0362000c09816005541633146200229d565b82519062000c1782620022fe565b85825230602083019081526fffffffffffffffffffffffffffffffff85840181905260608401818152600154875163fc6f786560e01b81528651600482015293516001600160a01b0316602485015260409095015182166044840152511660648201529485939190921691839182906084820190565b03925af191821562000d25577fa54e6c2fc0861aa9c991b26891d71059d517983b9e84b91020f42609c452eb9d928492859162000ce8575b5062000a3a90604051938493846040919493926060820195825260208201520152565b62000a3a935062000d15915060403d60401162000d1d575b62000d0c818362002338565b81019062002415565b909262000cc5565b503d62000d00565b6040513d85823e3d90fd5b5034620004e65780600319360112620004e65762000d4d620024d6565b80f35b506020366003190112620004e6576004356001600160a01b039062000dcc6020828460055416331462000d83816200229d565b85600254169062000d998760065416916200229d565b8760405180968195829463095ea7b360e01b845260048401602090939291936001600160a01b0360408201951681520152565b03925af190811562000e9c57849162000e78575b501562000e3457829160065416803b15620009925782906004604051809481937f14d6aed00000000000000000000000000000000000000000000000000000000083525af18015620008ce576200097f5750f35b606460405162461bcd60e51b815260206004820152600f60248201527f417070726f76616c206661696c656400000000000000000000000000000000006044820152fd5b62000e95915060203d602011620004275762000417818362002338565b3862000de0565b6040513d86823e3d90fd5b5060208060031936011262000fd2576004359067ffffffffffffffff80831162000fce573660238401121562000fce57826004013581811162000ff4576024906005903660248260051b8801011162000ff057943681900360421901906000198701878111895b89811062000f1a578a80f35b8162000fdd5780830362000fd657345b8b8883891b870101358781121562000fd25786019189830135908b8211620006b757604480940191803603831362000fce57839281604051928392833781018481520391305af162000f7b62002492565b501562000f8c575060010162000f0e565b897f4d756c746963616c6c20657865637574696f6e206661696c6564000000000000606492601a8b6040519462461bcd60e51b86526004860152840152820152fd5b8380fd5b5080fd5b8a62000f2a565b868b634e487b7160e01b81526011600452fd5b8680fd5b8480fd5b5034620004e6576060366003190112620004e6576200108460206200101c62002206565b620010266200221d565b9060443591856001600160a01b0362001045816005541633146200229d565b620010528515156200242c565b60405180978196829563a9059cbb60e01b845260048401602090939291936001600160a01b0360408201951681520152565b0393165af18015620008ce5762001099575080f35b620010b59060203d602011620004275762000417818362002338565b5080f35b5034620004e65780600319360112620004e65760209054604051908152f35b5034620004e6576040366003190112620004e6576004356024356fffffffffffffffffffffffffffffffff9081811680910362000fce576001600160a01b039162001129836005541633146200229d565b838552600960205260408520549260ff600362001146866200224b565b500154166200135c578060015416926040519060a082019082821067ffffffffffffffff831117620013465760a485938a809860409586528b83526020830194855285830182815260608401838152608085019142835288519b8c9889977f0c49ccbe000000000000000000000000000000000000000000000000000000008952516004890152511660248701525160448601525160648501525160848401525af191821562000e9c57604093620012849362001325575b5060015416908351906200121282620022fe565b87825230602083015280858301526060820152835194858094819363fc6f786560e01b83526004830191909160606080820193805183526001600160a01b036020820151166020840152816040820151916fffffffffffffffffffffffffffffffff8093166040860152015116910152565b03925af190811562000e9c577f1dc8bb69df2b8e91fbdcbfcf93d951b3f0000f085a95fe3f7946d6161439245d9285918693620012f2575b50620012ca6003916200224b565b5001805460ff191660011790556040805194855260208501919091528301523391606090a280f35b6003919350620012ca9250620013199060403d60401162000d1d5762000d0c818362002338565b929092939150620012bc565b6200133f90853d871162000d1d5762000d0c818362002338565b50620011fe565b634e487b7160e01b600052604160045260246000fd5b606460405162461bcd60e51b815260206004820152601960248201527f4c697175696469747920616c72656164792072656d6f766564000000000000006044820152fd5b5034620004e65780600319360112620004e65760206001600160a01b0360055416604051908152f35b5034620004e6576020366003190112620004e6576004356001600160a01b036006541633036200145057600a548181018091116200143a577fd5e85995d9bdcdafb72531ec59faef29167c16780583ca2068587fe896170c4791602091600a55604051908152a162000d4d620024d6565b634e487b7160e01b600052601160045260246000fd5b608460405162461bcd60e51b815260206004820152602160248201527f4f6e6c79207374616b696e6720636f6e74726163742063616e206e6f7469667960448201527f2e000000000000000000000000000000000000000000000000000000000000006064820152fd5b5034620004e65780600319360112620004e65760206001600160a01b0360035416604051908152f35b5034620004e65780600319360112620004e6576020600a54604051908152f35b5034620004e65780600319360112620004e65760206001600160a01b0360015416604051908152f35b5034620004e6576060366003190112620004e6576200154a62002206565b90620015556200221d565b9160443562ffffff8116809103620006b75760209060646001600160a01b0393849283600354169084604051998a9687957f1698ee8200000000000000000000000000000000000000000000000000000000875216600486015216602484015260448301525afa918215620003ab578092620015d9575b6020838360405191168152f35b9091506020833d60201162001617575b81620015f86020938362002338565b81010312620004e657506200160f602092620023e2565b9038620015cc565b3d9150620015e9565b5034620004e6576020366003190112620004e65760043590600854821015620004e65760c062001650836200224b565b506001600160a01b0381541690600181015490600281015460ff6003830154169060ff60056004850154940154169360405195865260208601526040850152151560608401526080830152151560a0820152f35b5034620004e65760a0366003190112620004e657620016c262002206565b620016cc6200221d565b90620016d762002234565b91602460206001600160a01b0360025416604051928380926370a0823160e01b82523060048301525afa9081156200042f57859162001b3e575b506007541162001ad457620017356064356001600160a01b0360015416846200269f565b6200174f6084356001600160a01b0360015416836200269f565b61012c4201421162001ac05760405192610160840184811067ffffffffffffffff82111762001346576040526001600160a01b03831684526001600160a01b03821660208501526127106040850152620d899f196060850152620d89a0608085015260643560a085015260843560c08501528460e0850152846101008501523061012085015261012c420161014085015260806101406101646001600160a01b0360015416968860405198899485937f883164560000000000000000000000000000000000000000000000000000000085526001600160a01b0381511660048601526001600160a01b03602082015116602486015262ffffff6040820151166044860152606081015160020b60648601528781015160020b608486015260a081015160a486015260c081015160c486015260e081015160e48601526101008101516101048601526001600160a01b036101208201511661012486015201516101448401525af19384156200042f57859462001a76575b506040519060c082019082821067ffffffffffffffff83111762001346576001600160a01b0391604052168152602081014281526040820185815260608301878152608084019188835260a08501938985526008546801000000000000000081101562001a62578060016200193e92016008556200224b565b96909662001a4f579260059492620019a1926001600160a01b03620019bd999896511673ffffffffffffffffffffffffffffffffffffffff19895416178855516001880155516002870155511515600386019060ff801983541691151516179055565b51600484015551151591019060ff801983541691151516179055565b600854600019810190811162001a3b5760408585602097526009875220557fcdcffdd59a718d70f177abd94c0e661d1b2d1199ea4bb008b01ba902c1db10a26001600160a01b038060405193169316918062001a3060843560643588846040919493926060820195825260208201520152565b0390a3604051908152f35b602485634e487b7160e01b81526011600452fd5b60248b634e487b7160e01b815280600452fd5b60248b634e487b7160e01b81526041600452fd5b9093506080813d60801162001ab7575b8162001a956080938362002338565b8101031262000ff45762001aae602082519201620023f7565b509238620018c5565b3d915062001a86565b602484634e487b7160e01b81526011600452fd5b608460405162461bcd60e51b815260206004820152602760248201527f4e6f7420656e6f756768205745544820696e2074686520666163746f7279206360448201527f6f6e7472616374000000000000000000000000000000000000000000000000006064820152fd5b90506020813d60201162001b6d575b8162001b5c6020938362002338565b810103126200039e57513862001711565b3d915062001b4d565b5034620004e6576060366003190112620004e65762001b9462002206565b9062001b9f6200221d565b604435926001600160a01b039384811680910362000fce578460848193866020948460015416906040519a8b9687957f13ead56200000000000000000000000000000000000000000000000000000000875216998a6004870152166024850152612710604485015260648401525af1801562000d2557839062001c4f575b602094501680917f4f2ce4e40f623ca765fc0167a25cb7842ceaafb8d82d3dec26ca0d0e0d2d48966040519480a38152f35b506020843d60201162001c88575b8162001c6c6020938362002338565b81010312620006b75762001c82602094620023e2565b62001c1d565b3d915062001c5d565b5034620004e65780600319360112620004e65760206001600160a01b0360025416604051908152f35b5034620004e6576060366003190112620004e65767ffffffffffffffff600435818111620006b75762001cf2903690600401620021d5565b919060243582811162000ff45762001d0f903690600401620021d5565b909160405194610b5a808701958787109087111762001db5578695949262001d5b949262001d4c926200277a8939606087526060870191620023c1565b918483036020860152620023c1565b906040604435910152039082f0801562001da857906001600160a01b0360209216807f91d24864a084ab70b268a1f865e757ca12006cf298d763b6be697302ef86498c6040519380a28152f35b50604051903d90823e3d90fd5b602488634e487b7160e01b81526041600452fd5b5034620004e65780600319360112620004e6576001600160a01b03600562001df7826005541633146200229d565b60085462001e05816200235b565b62001e14604051918262002338565b81815262001e22826200235b565b6020959082870190601f190136823762001e3c8462002374565b62001e478562002374565b9262001e538662002374565b9462001e5f8762002374565b9662001e6b8162002374565b98835b82811062001f2757505050604051998a9960c08b019260c08c525180935260e08b019593905b83821062001f095750505050509262001ed862001f0596959362001ec98462001ef6978b62001ee7970360208d015262002167565b9089820360408b015262002167565b9087820360608901526200219d565b90858203608087015262002167565b9083820360a08501526200219d565b0390f35b8451811687528c9b5095820195938201936001919091019062001e94565b808b62001fdc8e9f979698999a9b9c9d9e9360038f8f8f8e8e62001f5d8760019c62001f53826200224b565b50541692620023ac565b5262001f7a86600262001f70826200224b565b50015492620023ac565b5262001f8c858a62001f70826200224b565b5262001fad8462001f9d816200224b565b5060ff95869101541692620023ac565b901515905262001fc483600462001f70826200224b565b528662001fd1836200224b565b5001541692620023ac565b9015159052019b9a99989796959492939b62001e6e565b5034620004e6576020366003190112620004e657806001600160a01b0362002021816005541633146200229d565b60025416803b15620020805781906024604051809481937f2e1a7d4d00000000000000000000000000000000000000000000000000000000835260043560048401525af18015620008ce5762002075575080f35b62000d4d90620022e9565b50fd5b5034620004e6576020366003190112620004e657620020af6001600160a01b036005541633146200229d565b600435815260096020526040812054906004620020cc836200224b565b5001805492906000198414620021535760017f5b5116a6a7ed7078e6da121ce407eb49b9da5715f14154c54556529f996a4fb093940190556003600462002113836200224b565b500154101562002133575b60ff600562000a22600462000a18856200224b565b600562002140826200224b565b5001805460ff191660011790556200211e565b602483634e487b7160e01b81526011600452fd5b90815180825260208080930193019160005b82811062002188575050505090565b83518552938101939281019260010162002179565b90815180825260208080930193019160005b828110620021be575050505090565b8351151585529381019392810192600101620021af565b9181601f840112156200039e5782359167ffffffffffffffff83116200039e57602083818601950101116200039e57565b600435906001600160a01b03821682036200039e57565b602435906001600160a01b03821682036200039e57565b604435906001600160a01b03821682036200039e57565b60085481101562002287576006906008600052027ff3f7a9fe364faab93b216da50a3214154f22a0a2b415b23a84c8169e8b636ee30190600090565b634e487b7160e01b600052603260045260246000fd5b15620022a557565b606460405162461bcd60e51b815260206004820152601760248201527f43616c6c6572206973206e6f7420746865206f776e65720000000000000000006044820152fd5b67ffffffffffffffff81116200134657604052565b6080810190811067ffffffffffffffff8211176200134657604052565b60e0810190811067ffffffffffffffff8211176200134657604052565b90601f8019910116810190811067ffffffffffffffff8211176200134657604052565b67ffffffffffffffff8111620013465760051b60200190565b9062002380826200235b565b6200238f604051918262002338565b8281528092620023a2601f19916200235b565b0190602036910137565b8051821015620022875760209160051b010190565b908060209392818452848401376000828201840152601f01601f1916010190565b51906001600160a01b03821682036200039e57565b51906fffffffffffffffffffffffffffffffff821682036200039e57565b91908260409103126200039e576020825192015190565b156200243457565b606460405162461bcd60e51b815260206004820152602060248201527f416d6f756e74206d7573742062652067726561746572207468616e207a65726f6044820152fd5b908160209103126200039e575180151581036200039e5790565b3d15620024d1573d9067ffffffffffffffff8211620013465760405191620024c5601f8201601f19166020018462002338565b82523d6000602084013e565b606090565b60025460006001600160a01b038092166040928351916370a0823160e01b83523060048401526020928381602481855afa9081156200268657859162002653575b50600a54809110158062002649575b62002534575b505050505050565b839060448460065416878951958694859363a9059cbb60e01b8552600485015260248401525af180156200263f576200261d575b5060065416600a54813b1562000fce5783916024839287519485938492639b5ceb3560e01b845260048401525af180156200261357620025df575b507f8ff98a7f9bedb57df86769d07998b067fba595272053e3690d3412aff560a82c9192600a549051908152a1600a553880808080806200252c565b916200260c7f8ff98a7f9bedb57df86769d07998b067fba595272053e3690d3412aff560a82c93620022e9565b91620025a3565b84513d85823e3d90fd5b6200263790833d8511620004275762000417818362002338565b503862002568565b85513d86823e3d90fd5b5080151562002526565b90508381813d83116200267e575b6200266d818362002338565b8101031262000ff457513862002517565b503d62002661565b86513d87823e3d90fd5b51908160020b82036200039e57565b60405163095ea7b360e01b602082019081526001600160a01b039390931660248201526044808201949094529283526000928392908390620026e360648262002338565b51925af1620026f162002492565b8162002745575b50156200270157565b606460405162461bcd60e51b815260206004820152600260248201527f53410000000000000000000000000000000000000000000000000000000000006044820152fd5b80518015925082156200275c575b505038620026f8565b62002771925060208091830101910162002478565b38806200275356fe60406080815234620003bb5762000b5a803803806200001e81620003c0565b9283398101606082820312620003bb5781516001600160401b039290838111620003bb578262000050918301620003e6565b60209283830151858111620003bb5786916200006e918501620003e6565b920151938151818111620002bb576003908154906001948583811c93168015620003b0575b888410146200039a578190601f9384811162000344575b508890848311600114620002dd57600092620002d1575b505060001982851b1c191690851b1782555b8451928311620002bb5760049485548581811c91168015620002b0575b888210146200029b5782811162000250575b5086918411600114620001e557938394918492600095620001d9575b50501b92600019911b1c19161781555b670de0b6b3a764000092838102938185041490151715620001ad573315620001c25760025490838201809211620001ad57506000917fddf252ad1be2c89b69c2b068fc378daa952ba7f163c4a11628f55a4df523b3ef9160025533835282815284832084815401905584519384523393a3516107019081620004598239f35b601190634e487b7160e01b6000525260246000fd5b602490600085519163ec442f0560e01b8352820152fd5b0151935038806200011e565b9190601f198416928660005284886000209460005b8a898383106200023857505050106200021d575b50505050811b0181556200012e565b01519060f884600019921b161c19169055388080806200020e565b868601518955909701969485019488935001620001fa565b86600052876000208380870160051c8201928a881062000291575b0160051c019086905b8281106200028457505062000102565b6000815501869062000274565b925081926200026b565b602287634e487b7160e01b6000525260246000fd5b90607f1690620000f0565b634e487b7160e01b600052604160045260246000fd5b015190503880620000c1565b90879350601f19831691866000528a6000209260005b8c8282106200032d575050841162000314575b505050811b018255620000d3565b015160001983871b60f8161c1916905538808062000306565b8385015186558b97909501949384019301620002f3565b90915084600052886000208480850160051c8201928b861062000390575b918991869594930160051c01915b82811062000380575050620000aa565b6000815585945089910162000370565b9250819262000362565b634e487b7160e01b600052602260045260246000fd5b92607f169262000093565b600080fd5b6040519190601f01601f191682016001600160401b03811183821017620002bb57604052565b919080601f84011215620003bb5782516001600160401b038111620002bb576020906200041c601f8201601f19168301620003c0565b92818452828287010111620003bb5760005b8181106200044457508260009394955001015290565b85810183015184820184015282016200042e56fe608060408181526004918236101561001657600080fd5b600092833560e01c91826306fdde031461045057508163095ea7b3146103a457816318160ddd1461038557816323b872dd14610276578163313ce5671461025a57816370a082311461022457816395d89b411461010357508063a9059cbb146100d35763dd62ed3e1461008857600080fd5b346100cf57806003193601126100cf57806020926100a4610573565b6100ac61058e565b6001600160a01b0391821683526001865283832091168252845220549051908152f35b5080fd5b50346100cf57806003193601126100cf576020906100fc6100f2610573565b60243590336105a4565b5160018152f35b8383346100cf57816003193601126100cf5780519082845460018160011c906001831692831561021a575b6020938484108114610207578388529081156101eb5750600114610196575b505050829003601f01601f191682019267ffffffffffffffff841183851017610183575082918261017f92528261052a565b0390f35b80604186634e487b7160e01b6024945252fd5b8787529192508591837f8a35acfbc15ff81a39ae7d344fd709f28e8600b4aa8c65c6b64bfe7fe36bd19b5b8385106101d7575050505083010185808061014d565b8054888601830152930192849082016101c1565b60ff1916878501525050151560051b840101905085808061014d565b60248960228c634e487b7160e01b835252fd5b91607f169161012e565b5050346100cf5760203660031901126100cf57806020926001600160a01b0361024b610573565b16815280845220549051908152f35b5050346100cf57816003193601126100cf576020905160128152f35b9050823461038257606036600319011261038257610292610573565b61029a61058e565b91604435936001600160a01b0383168083526001602052868320338452602052868320549160001983036102d7575b6020886100fc8989896105a4565b86831061033d578115610327573315610311575082526001602090815286832033845281529186902090859003905582906100fc876102c9565b60249084895191634a1406b160e11b8352820152fd5b6024908489519163e602df0560e01b8352820152fd5b87517ffb8f41b2000000000000000000000000000000000000000000000000000000008152339181019182526020820193909352604081018790528291506060010390fd5b80fd5b5050346100cf57816003193601126100cf576020906002549051908152f35b90503461044c578160031936011261044c576103be610573565b602435903315610436576001600160a01b031691821561042057508083602095338152600187528181208582528752205582519081527f8c5be1e5ebec7d5bd14f71427d1e84f3dd0314c0f7b2291e5b200ac8c7c3b925843392a35160018152f35b60249085855191634a1406b160e11b8352820152fd5b6024838686519163e602df0560e01b8352820152fd5b8280fd5b8490843461044c578260031936011261044c578260035460018160011c9060018316928315610520575b6020938484108114610207578388529081156101eb57506001146104ca57505050829003601f01601f191682019267ffffffffffffffff841183851017610183575082918261017f92528261052a565b600387529192508591837fc2575a0e9e593c00f959f8c92f12db2869c3395a3b0502d05e2516446f71f85b5b83851061050c575050505083010185808061014d565b8054888601830152930192849082016104f6565b91607f169161047a565b6020808252825181830181905290939260005b82811061055f57505060409293506000838284010152601f8019910116010190565b81810186015184820160400152850161053d565b600435906001600160a01b038216820361058957565b600080fd5b602435906001600160a01b038216820361058957565b916001600160a01b0380841692831561069a5716928315610669576000908382528160205260408220549083821061061e575091604082827fddf252ad1be2c89b69c2b068fc378daa952ba7f163c4a11628f55a4df523b3ef958760209652828652038282205586815220818154019055604051908152a3565b6040517fe450d38c0000000000000000000000000000000000000000000000000000000081526001600160a01b03919091166004820152602481019190915260448101839052606490fd5b60246040517fec442f0500000000000000000000000000000000000000000000000000000000815260006004820152fd5b60246040517f96c6fd1e00000000000000000000000000000000000000000000000000000000815260006004820152fdfea264697066735822122006047a143288438e23c7e7d2436fe6ef1e8e4aa6000c25c30cc890bdae0945de64736f6c63430008180033a264697066735822122074dc9622ec1a781eea455b387001a6f1856d1610b223ff1ab01c1957d6f8127d64736f6c63430008180033",
  "linkReferences": {},
  "deployedLinkReferences": {}
}