{
  "_format": "hh-sol-artifact-1",
  "contractName": "MyFactory",
  "sourceName": "contracts/TestFactory.sol",
  "abi": [
    {
      "inputs": [
        {
          "internalType": "address",
          "name": "_positionManager",
          "type": "address"
        },
        {
          "internalType": "address",
          "name": "_weth",
          "type": "address"
        },
        {
          "internalType": "address",
          "name": "_uniswapFactory",
          "type": "address"
        },
        {
          "internalType": "address",
          "name": "_swapRouter",
          "type": "address"
        },
        {
          "internalType": "address",
          "name": "_lockerAddress",
          "type": "address"
        },
        {
          "internalType": "address",
          "name": "_teamWallet",
          "type": "address"
        }
      ],
      "stateMutability": "nonpayable",
      "type": "constructor"
    },
    {
      "anonymous": false,
      "inputs": [
        {
          "indexed": false,
          "internalType": "uint256",
          "name": "tokenId",
          "type": "uint256"
        },
        {
          "indexed": false,
          "internalType": "uint256",
          "name": "amount0",
          "type": "uint256"
        },
        {
          "indexed": false,
          "internalType": "uint256",
          "name": "amount1",
          "type": "uint256"
        }
      ],
      "name": "FeesCollected",
      "type": "event"
    },
    {
      "anonymous": false,
      "inputs": [
        {
          "indexed": false,
          "internalType": "uint256",
          "name": "amountNeeded",
          "type": "uint256"
        }
      ],
      "name": "FundsRequested",
      "type": "event"
    },
    {
      "anonymous": false,
      "inputs": [
        {
          "indexed": false,
          "internalType": "uint256",
          "name": "amount",
          "type": "uint256"
        }
      ],
      "name": "FundsSent",
      "type": "event"
    },
    {
      "anonymous": false,
      "inputs": [
        {
          "indexed": false,
          "internalType": "uint256",
          "name": "tokenId",
          "type": "uint256"
        }
      ],
      "name": "LiquidityAdded",
      "type": "event"
    },
    {
      "anonymous": false,
      "inputs": [
        {
          "indexed": true,
          "internalType": "address",
          "name": "token",
          "type": "address"
        },
        {
          "indexed": true,
          "internalType": "address",
          "name": "pool",
          "type": "address"
        },
        {
          "indexed": false,
          "internalType": "uint256",
          "name": "tokenAmount",
          "type": "uint256"
        },
        {
          "indexed": false,
          "internalType": "uint256",
          "name": "wethAmount",
          "type": "uint256"
        },
        {
          "indexed": false,
          "internalType": "string",
          "name": "error",
          "type": "string"
        }
      ],
      "name": "LiquidityAdditionFailed",
      "type": "event"
    },
    {
      "anonymous": false,
      "inputs": [
        {
          "indexed": true,
          "internalType": "address",
          "name": "token",
          "type": "address"
        },
        {
          "indexed": false,
          "internalType": "uint256",
          "name": "tokenId",
          "type": "uint256"
        },
        {
          "indexed": false,
          "internalType": "uint256",
          "name": "amount0",
          "type": "uint256"
        },
        {
          "indexed": false,
          "internalType": "uint256",
          "name": "amount1",
          "type": "uint256"
        }
      ],
      "name": "LiquidityRemoved",
      "type": "event"
    },
    {
      "anonymous": false,
      "inputs": [
        {
          "indexed": true,
          "internalType": "address",
          "name": "token0",
          "type": "address"
        },
        {
          "indexed": true,
          "internalType": "address",
          "name": "poolAddress",
          "type": "address"
        }
      ],
      "name": "PoolCreated",
      "type": "event"
    },
    {
      "anonymous": false,
      "inputs": [
        {
          "indexed": true,
          "internalType": "address",
          "name": "poolAddress",
          "type": "address"
        },
        {
          "indexed": false,
          "internalType": "uint160",
          "name": "sqrtPriceX96",
          "type": "uint160"
        }
      ],
      "name": "PoolInitialized",
      "type": "event"
    },
    {
      "anonymous": false,
      "inputs": [
        {
          "indexed": false,
          "internalType": "uint256",
          "name": "tokenId",
          "type": "uint256"
        },
        {
          "indexed": false,
          "internalType": "bool",
          "name": "isTokenDead",
          "type": "bool"
        }
      ],
      "name": "ResetFeesDays",
      "type": "event"
    },
    {
      "anonymous": false,
      "inputs": [
        {
          "indexed": true,
          "internalType": "address",
          "name": "stakingAddress",
          "type": "address"
        },
        {
          "indexed": false,
          "internalType": "uint256",
          "name": "amount",
          "type": "uint256"
        }
      ],
      "name": "RewardsSent",
      "type": "event"
    },
    {
      "anonymous": false,
      "inputs": [
        {
          "indexed": true,
          "internalType": "address",
          "name": "token",
          "type": "address"
        },
        {
          "indexed": false,
          "internalType": "uint256",
          "name": "amountIn",
          "type": "uint256"
        },
        {
          "indexed": false,
          "internalType": "uint256",
          "name": "amountOut",
          "type": "uint256"
        }
      ],
      "name": "SwappedToWETH",
      "type": "event"
    },
    {
      "anonymous": false,
      "inputs": [
        {
          "indexed": true,
          "internalType": "address",
          "name": "teamWallet",
          "type": "address"
        },
        {
          "indexed": false,
          "internalType": "uint256",
          "name": "amount",
          "type": "uint256"
        }
      ],
      "name": "TeamFunded",
      "type": "event"
    },
    {
      "anonymous": false,
      "inputs": [
        {
          "indexed": true,
          "internalType": "address",
          "name": "tokenAddress",
          "type": "address"
        },
        {
          "indexed": true,
          "internalType": "address",
          "name": "poolAddress",
          "type": "address"
        }
      ],
      "name": "TokenApproved",
      "type": "event"
    },
    {
      "anonymous": false,
      "inputs": [
        {
          "indexed": true,
          "internalType": "address",
          "name": "tokenAddress",
          "type": "address"
        }
      ],
      "name": "TokenDeployed",
      "type": "event"
    },
    {
      "anonymous": false,
      "inputs": [
        {
          "indexed": false,
          "internalType": "uint256",
          "name": "amount",
          "type": "uint256"
        }
      ],
      "name": "TokensSwapped",
      "type": "event"
    },
    {
      "anonymous": false,
      "inputs": [
        {
          "indexed": true,
          "internalType": "address",
          "name": "treasuryAddress",
          "type": "address"
        },
        {
          "indexed": false,
          "internalType": "uint256",
          "name": "amount",
          "type": "uint256"
        }
      ],
      "name": "TreasuryFunded",
      "type": "event"
    },
    {
      "anonymous": false,
      "inputs": [
        {
          "indexed": false,
          "internalType": "uint256",
          "name": "rewardAmount",
          "type": "uint256"
        }
      ],
      "name": "VortexEvent",
      "type": "event"
    },
    {
      "anonymous": false,
      "inputs": [
        {
          "indexed": false,
          "internalType": "uint256",
          "name": "tokenId",
          "type": "uint256"
        },
        {
          "indexed": false,
          "internalType": "bool",
          "name": "isTokenDead",
          "type": "bool"
        }
      ],
      "name": "ZeroFeesDays",
      "type": "event"
    },
    {
      "stateMutability": "payable",
      "type": "fallback"
    },
    {
      "inputs": [],
      "name": "activeTokenCount",
      "outputs": [
        {
          "internalType": "uint256",
          "name": "",
          "type": "uint256"
        }
      ],
      "stateMutability": "view",
      "type": "function"
    },
    {
      "inputs": [
        {
          "internalType": "address",
          "name": "tokenAddress",
          "type": "address"
        },
        {
          "internalType": "uint256",
          "name": "amountToBuy",
          "type": "uint256"
        }
      ],
      "name": "addLiquidityLockSwap",
      "outputs": [
        {
          "internalType": "uint256",
          "name": "tokenId",
          "type": "uint256"
        }
      ],
      "stateMutability": "payable",
      "type": "function"
    },
    {
      "inputs": [
        {
          "internalType": "uint256",
          "name": "",
          "type": "uint256"
        }
      ],
      "name": "allTokens",
      "outputs": [
        {
          "internalType": "address",
          "name": "tokenAddress",
          "type": "address"
        },
        {
          "internalType": "address",
          "name": "poolAddress",
          "type": "address"
        },
        {
          "internalType": "uint256",
          "name": "timeStamp",
          "type": "uint256"
        },
        {
          "internalType": "uint256",
          "name": "tokenId",
          "type": "uint256"
        },
        {
          "internalType": "bool",
          "name": "liquidityRemoved",
          "type": "bool"
        },
        {
          "internalType": "uint256",
          "name": "zerofeedays",
          "type": "uint256"
        },
        {
          "internalType": "bool",
          "name": "isInactive",
          "type": "bool"
        },
        {
          "internalType": "uint256",
          "name": "feeFromSwap",
          "type": "uint256"
        },
        {
          "internalType": "uint256",
          "name": "lockId",
          "type": "uint256"
        },
        {
          "internalType": "bool",
          "name": "isLocked",
          "type": "bool"
        },
        {
          "internalType": "uint256",
          "name": "unlockTime",
          "type": "uint256"
        },
        {
          "internalType": "bool",
          "name": "isDEAD",
          "type": "bool"
        },
        {
          "internalType": "bool",
          "name": "maxWalletEnabled",
          "type": "bool"
        }
      ],
      "stateMutability": "view",
      "type": "function"
    },
    {
      "inputs": [
        {
          "internalType": "uint256",
          "name": "tokenId",
          "type": "uint256"
        }
      ],
      "name": "burnPositionNFT",
      "outputs": [],
      "stateMutability": "nonpayable",
      "type": "function"
    },
    {
      "inputs": [
        {
          "internalType": "uint256",
          "name": "amount",
          "type": "uint256"
        }
      ],
      "name": "callAddRewards",
      "outputs": [],
      "stateMutability": "payable",
      "type": "function"
    },
    {
      "inputs": [
        {
          "internalType": "uint256",
          "name": "tokenId",
          "type": "uint256"
        },
        {
          "internalType": "address",
          "name": "tokenAddress",
          "type": "address"
        }
      ],
      "name": "collectFromFactoryAndSwap",
      "outputs": [],
      "stateMutability": "nonpayable",
      "type": "function"
    },
    {
      "inputs": [
        {
          "internalType": "uint256",
          "name": "tokenId",
          "type": "uint256"
        },
        {
          "internalType": "address",
          "name": "tokenAddress",
          "type": "address"
        }
      ],
      "name": "collectFromLockerAndSwap",
      "outputs": [],
      "stateMutability": "nonpayable",
      "type": "function"
    },
    {
      "inputs": [
        {
          "internalType": "uint256",
          "name": "amount",
          "type": "uint256"
        }
      ],
      "name": "convertWETHToETH",
      "outputs": [],
      "stateMutability": "nonpayable",
      "type": "function"
    },
    {
      "inputs": [],
      "name": "deadAddress",
      "outputs": [
        {
          "internalType": "address",
          "name": "",
          "type": "address"
        }
      ],
      "stateMutability": "view",
      "type": "function"
    },
    {
      "inputs": [
        {
          "internalType": "string",
          "name": "_name",
          "type": "string"
        },
        {
          "internalType": "string",
          "name": "_symbol",
          "type": "string"
        },
        {
          "internalType": "uint256",
          "name": "_supply",
          "type": "uint256"
        }
      ],
      "name": "deployToken",
      "outputs": [
        {
          "internalType": "address",
          "name": "",
          "type": "address"
        }
      ],
      "stateMutability": "nonpayable",
      "type": "function"
    },
    {
      "inputs": [],
      "name": "getAllTokens",
      "outputs": [
        {
          "internalType": "address[]",
          "name": "addresses",
          "type": "address[]"
        },
        {
          "internalType": "address[]",
          "name": "poolAddresses",
          "type": "address[]"
        },
        {
          "internalType": "uint256[]",
          "name": "tokenIds",
          "type": "uint256[]"
        },
        {
          "internalType": "uint256[]",
          "name": "timestamps",
          "type": "uint256[]"
        },
        {
          "internalType": "bool[]",
          "name": "liquidityRemovedStatus",
          "type": "bool[]"
        },
        {
          "internalType": "uint256[]",
          "name": "zerofeesdays",
          "type": "uint256[]"
        },
        {
          "internalType": "bool[]",
          "name": "inactive",
          "type": "bool[]"
        },
        {
          "internalType": "uint256[]",
          "name": "feefromswap",
          "type": "uint256[]"
        },
        {
          "internalType": "uint256[]",
          "name": "lockIds",
          "type": "uint256[]"
        },
        {
          "internalType": "bool[]",
          "name": "isTokenLocked",
          "type": "bool[]"
        },
        {
          "internalType": "uint256[]",
          "name": "unlockTimes",
          "type": "uint256[]"
        },
        {
          "internalType": "bool[]",
          "name": "isDead",
          "type": "bool[]"
        },
        {
          "internalType": "bool[]",
          "name": "maxWallet",
          "type": "bool[]"
        }
      ],
      "stateMutability": "view",
      "type": "function"
    },
    {
      "inputs": [],
      "name": "getMetrics",
      "outputs": [
        {
          "internalType": "uint256",
          "name": "alltokens",
          "type": "uint256"
        },
        {
          "internalType": "uint256",
          "name": "allactivetokens",
          "type": "uint256"
        }
      ],
      "stateMutability": "view",
      "type": "function"
    },
    {
      "inputs": [
        {
          "internalType": "uint256",
          "name": "tokenId",
          "type": "uint256"
        }
      ],
      "name": "getPosition",
      "outputs": [
        {
          "internalType": "uint96",
          "name": "nonce",
          "type": "uint96"
        },
        {
          "internalType": "address",
          "name": "operator",
          "type": "address"
        },
        {
          "internalType": "address",
          "name": "token0",
          "type": "address"
        },
        {
          "internalType": "address",
          "name": "token1",
          "type": "address"
        },
        {
          "internalType": "uint24",
          "name": "fee",
          "type": "uint24"
        },
        {
          "internalType": "int24",
          "name": "tickLower",
          "type": "int24"
        },
        {
          "internalType": "int24",
          "name": "tickUpper",
          "type": "int24"
        },
        {
          "internalType": "uint128",
          "name": "liquidity",
          "type": "uint128"
        },
        {
          "internalType": "uint256",
          "name": "feeGrowthInside0LastX128",
          "type": "uint256"
        },
        {
          "internalType": "uint256",
          "name": "feeGrowthInside1LastX128",
          "type": "uint256"
        },
        {
          "internalType": "uint128",
          "name": "tokensOwed0",
          "type": "uint128"
        },
        {
          "internalType": "uint128",
          "name": "tokensOwed1",
          "type": "uint128"
        }
      ],
      "stateMutability": "view",
      "type": "function"
    },
    {
      "inputs": [
        {
          "internalType": "address",
          "name": "tokenA",
          "type": "address"
        },
        {
          "internalType": "address",
          "name": "tokenB",
          "type": "address"
        },
        {
          "internalType": "uint24",
          "name": "fee",
          "type": "uint24"
        }
      ],
      "name": "get_Pool",
      "outputs": [
        {
          "internalType": "address",
          "name": "pool",
          "type": "address"
        }
      ],
      "stateMutability": "view",
      "type": "function"
    },
    {
      "inputs": [],
      "name": "locker",
      "outputs": [
        {
          "internalType": "contract ILocker",
          "name": "",
          "type": "address"
        }
      ],
      "stateMutability": "view",
      "type": "function"
    },
    {
      "inputs": [],
      "name": "lockerAddress",
      "outputs": [
        {
          "internalType": "address",
          "name": "",
          "type": "address"
        }
      ],
      "stateMutability": "view",
      "type": "function"
    },
    {
      "inputs": [
        {
          "internalType": "bytes[]",
          "name": "data",
          "type": "bytes[]"
        }
      ],
      "name": "multicall",
      "outputs": [],
      "stateMutability": "payable",
      "type": "function"
    },
    {
      "inputs": [
        {
          "internalType": "uint256",
          "name": "amount",
          "type": "uint256"
        }
      ],
      "name": "notifyFundsNeeded",
      "outputs": [],
      "stateMutability": "nonpayable",
      "type": "function"
    },
    {
      "inputs": [],
      "name": "owner",
      "outputs": [
        {
          "internalType": "address",
          "name": "",
          "type": "address"
        }
      ],
      "stateMutability": "view",
      "type": "function"
    },
    {
      "inputs": [],
      "name": "pendingFunds",
      "outputs": [
        {
          "internalType": "uint256",
          "name": "",
          "type": "uint256"
        }
      ],
      "stateMutability": "view",
      "type": "function"
    },
    {
      "inputs": [],
      "name": "positionManager",
      "outputs": [
        {
          "internalType": "contract INonfungiblePositionManager",
          "name": "",
          "type": "address"
        }
      ],
      "stateMutability": "view",
      "type": "function"
    },
    {
      "inputs": [
        {
          "internalType": "address",
          "name": "_stakingContract",
          "type": "address"
        },
        {
          "internalType": "uint256",
          "name": "amountRequested",
          "type": "uint256"
        }
      ],
      "name": "provideFundsIfNeeded",
      "outputs": [],
      "stateMutability": "nonpayable",
      "type": "function"
    },
    {
      "inputs": [
        {
          "internalType": "uint256",
          "name": "_tokenId",
          "type": "uint256"
        },
        {
          "internalType": "uint256",
          "name": "_lockID",
          "type": "uint256"
        },
        {
          "internalType": "uint256",
          "name": "_duration",
          "type": "uint256"
        }
      ],
      "name": "relock",
      "outputs": [
        {
          "internalType": "uint256",
          "name": "lockID",
          "type": "uint256"
        }
      ],
      "stateMutability": "nonpayable",
      "type": "function"
    },
    {
      "inputs": [
        {
          "internalType": "uint256",
          "name": "tokenId",
          "type": "uint256"
        },
        {
          "internalType": "uint256",
          "name": "lockId",
          "type": "uint256"
        }
      ],
      "name": "removeDeadLiquidity",
      "outputs": [],
      "stateMutability": "nonpayable",
      "type": "function"
    },
    {
      "inputs": [
        {
          "internalType": "uint256",
          "name": "tokenId",
          "type": "uint256"
        },
        {
          "internalType": "uint256",
          "name": "lockId",
          "type": "uint256"
        }
      ],
      "name": "removeInitialLiquidity",
      "outputs": [],
      "stateMutability": "nonpayable",
      "type": "function"
    },
    {
      "inputs": [
        {
          "internalType": "address payable",
          "name": "_stakingAddress",
          "type": "address"
        },
        {
          "internalType": "address",
          "name": "_treasuryAddress",
          "type": "address"
        }
      ],
      "name": "setStakingAndTreasuryAddress",
      "outputs": [],
      "stateMutability": "nonpayable",
      "type": "function"
    },
    {
      "inputs": [],
      "name": "stakingAddress",
      "outputs": [
        {
          "internalType": "address payable",
          "name": "",
          "type": "address"
        }
      ],
      "stateMutability": "view",
      "type": "function"
    },
    {
      "inputs": [
        {
          "internalType": "uint256",
          "name": "amountIn",
          "type": "uint256"
        },
        {
          "internalType": "address",
          "name": "tokenAddress",
          "type": "address"
        }
      ],
      "name": "swapETHforTokens",
      "outputs": [
        {
          "internalType": "uint256",
          "name": "amountOut",
          "type": "uint256"
        }
      ],
      "stateMutability": "payable",
      "type": "function"
    },
    {
      "inputs": [],
      "name": "swapRouter",
      "outputs": [
        {
          "internalType": "contract ISwapRouter",
          "name": "",
          "type": "address"
        }
      ],
      "stateMutability": "view",
      "type": "function"
    },
    {
      "inputs": [],
      "name": "tokenCount",
      "outputs": [
        {
          "internalType": "uint256",
          "name": "",
          "type": "uint256"
        }
      ],
      "stateMutability": "view",
      "type": "function"
    },
    {
      "inputs": [
        {
          "internalType": "address",
          "name": "tokenAddress",
          "type": "address"
        },
        {
          "internalType": "address",
          "name": "to",
          "type": "address"
        },
        {
          "internalType": "uint256",
          "name": "amount",
          "type": "uint256"
        }
      ],
      "name": "transferTokens",
      "outputs": [],
      "stateMutability": "nonpayable",
      "type": "function"
    },
    {
      "inputs": [
        {
          "internalType": "uint256",
          "name": "amount",
          "type": "uint256"
        }
      ],
      "name": "transferWETHToFactory",
      "outputs": [],
      "stateMutability": "nonpayable",
      "type": "function"
    },
    {
      "inputs": [],
      "name": "tryToSendFunds",
      "outputs": [],
      "stateMutability": "nonpayable",
      "type": "function"
    },
    {
      "inputs": [],
      "name": "uniswapFactory",
      "outputs": [
        {
          "internalType": "contract IUniswapV3Factory",
          "name": "",
          "type": "address"
        }
      ],
      "stateMutability": "view",
      "type": "function"
    },
    {
      "inputs": [],
      "name": "weth",
      "outputs": [
        {
          "internalType": "address",
          "name": "",
          "type": "address"
        }
      ],
      "stateMutability": "view",
      "type": "function"
    },
    {
      "stateMutability": "payable",
      "type": "receive"
    }
  ],
  "bytecode": "0x6080346200013857601f62005e3438819003918201601f19168301916001600160401b038311848410176200013d5780849260c09460405283398101031262000138576200004d8162000153565b906200005c6020820162000153565b6200006a6040830162000153565b620000786060840162000153565b6200009460a06200008c6080870162000153565b950162000153565b9260008055600060015560018060a01b03199561dead876003541617600355655af3107a400060105560018060a01b0395868094818080951697888c6004541617600455168a60055416176005551688600654161760065516928387600754161760075586600b541617600b55168460025416176002553384600854161760085583600a541617600a551690600d541617600d55604051615ccb9081620001698239f35b600080fd5b634e487b7160e01b600052604160045260246000fd5b51906001600160a01b0382168203620001385756fe6101c08060405260043610156200001d575b5036156200001b57005b005b600090813560e01c90816327c8f8351462003afa575080632855d76a1462003a865780632a5c792a14620036935780633675f29b146200366a5780633a93babb14620035555780633fc8cef3146200352c578063634282af146200344c5780636e9551d714620033695780637153fc3314620031355780637606f781146200310f578063791b98bc14620030e65780637abac50414620030725780637c6bc9be14620030525780638a7eb91a1462002fe05780638b68e0381462002fc05780638bdb2afa1462002f975780638c3a65a21462002ebd5780638da5cb5b1462002e945780639f181b5e1462002e75578063a64b6e5f1462002d97578063ac9650d81462002c56578063ad1b9e321462002b83578063ae3b05d41462002b66578063b2a78804146200262c578063be5ef17614620024b2578063c31c9c071462002489578063cbf66d351462001e53578063d32cb3a214620013d0578063d7b4be2414620013a7578063d7b96d4e146200137e578063db69bdd81462000bcc578063eb02c3011462000a9c578063fbcc3fcc14620005e0578063fde16ed314620004635763fe9655fc0362000011573462000460576020806003193601126200045c576004356001600160a01b0390620001fb8260085416331462003c96565b6200020881151562003e7d565b8160025416906040516370a0823160e01b81523360048201528481602481865afa801562000451578291879162000415575b5010620003d15760405163095ea7b360e01b81523060048201526024810182905285939290919085908390604490829088905af18015620003c6578592859162000378575b509262000291620002c99394620042c4565b6002546040516323b872dd60e01b81523360048201523060248201526044810193909352919485939190921691839182906064820190565b03925af19081156200036d5783916200032c575b5015620002e8575080f35b6064906040519062461bcd60e51b82526004820152600f60248201527f5472616e73666572206661696c656400000000000000000000000000000000006044820152fd5b90508181813d831162000365575b62000346818362003d4e565b8101031262000361576200035a9062003ec9565b38620002dd565b8280fd5b503d6200033a565b6040513d85823e3d90fd5b83819492503d8311620003be575b62000392818362003d4e565b81010312620003ba57849262000291620003b0620002c99462003ec9565b919493506200027f565b8380fd5b503d62000386565b6040513d86823e3d90fd5b6064846040519062461bcd60e51b82526004820152601960248201527f496e73756666696369656e7420574554482062616c616e6365000000000000006044820152fd5b809250868092503d831162000449575b62000431818362003d4e565b810103126200044457819051386200023a565b600080fd5b503d62000425565b6040513d88823e3d90fd5b5080fd5b80fd5b5060403660031901126200046057600435906200055a6200048362003c68565b6001600160a01b0393620004a281866002541687600654169062004310565b8480600254169160405192620004b88462003d14565b835260209687941684840152612710604084015233606084015260808301528460a08301528460c08301526006541660405180809581946304e45aaf60e01b83526004830191909160c060e0820193816001600160a01b039182815116855282602082015116602086015262ffffff60408201511660408601528260608201511660608601526080810151608086015260a081015160a0860152015116910152565b039134905af1918215620005d45791620005a1575b507fdb04c7a6d4758fd55d738ebc67e7f3010ac922be00771ef29521a4090d1eb13f82604051838152a1604051908152f35b90508181813d8311620005cc575b620005bb818362003d4e565b81010312620004445751386200056f565b503d620005af565b604051903d90823e3d90fd5b50346200046057620005f23662003c7f565b826001600160a01b03916200060d8360085416331462003c96565b82600a5416803b15620003615760405163318a457160e21b8152600481019290925230602483015282908290604490829084905af1801562000a915762000a79575b505080600454166040519263133f757160e31b84528060048501526101808085602481865afa938415620004515786958792889662000a30575b50506200069c8160085416331462003c96565b828752866020946012865260408220549660408051620006bc8162003d31565b87815260a489820191866001600160801b039687809716855285830182815260608401838152608085019142835288519a8b988997630624e65f60e11b8952516004890152511660248701525160448601525160648501525160848401525af19081156200036d57604092620007af9262000a0f575b50846004541690835190620007478262003cf7565b888252308a83015280858301526060820152835194858094819363fc6f786560e01b83526004830191909160606080820193805183526001600160a01b036020820151166020840152816040820151916001600160801b038093166040860152015116910152565b03925af195861562000a045788918997620009bf575b50620007d360049162003bff565b50019660ff19976001898254161790556040517f1dc8bb69df2b8e91fbdcbfcf93d951b3f0000f085a95fe3f7946d6161439245d339180620008288b878b846040919493926060820195825260208201520152565b0390a26200083562003f1b565b60025490831690831681036200092a5750506003546040516323b872dd60e01b81523060048201529082166001600160a01b0316602482015260448101959095528391859160649183918a91165af180156200091f57620008de575b601292505b84525260408220546001548015620008ca57620008be600192600b9260001901845562003bff565b50019182541617905580f35b602484634e487b7160e01b81526011600452fd5b8183813d831162000917575b620008f6818362003d4e565b8101031262000913576200090c60129362003ec9565b5062000891565b8480fd5b503d620008ea565b6040513d87823e3d90fd5b6003546040516323b872dd60e01b815230600482015293166001600160a01b03166024840152604483019190915290945083915084908188816064810103925af180156200091f5762000982575b6012925062000896565b8183813d8311620009b7575b6200099a818362003d4e565b810103126200091357620009b060129362003ec9565b5062000978565b503d6200098e565b6004919750620007d39250620009f09060403d604011620009fc575b620009e7818362003d4e565b810190620040ef565b929092979150620007c5565b503d620009db565b6040513d8a823e3d90fd5b62000a2990843d8611620009fc57620009e7818362003d4e565b5062000732565b919550915062000a5a929550803d1062000a71575b62000a51818362003d4e565b8101906200415b565b505050509550505050959250949093388062000689565b503d62000a45565b62000a849062003ce2565b620003615782386200064f565b6040513d84823e3d90fd5b50346200046057602036600319011262000460576001600160a01b039062000aca8260085416331462003c96565b81600454169060405192839263133f757160e31b845260043560048501528360246101809687935afa90811562000a91578280948192829083849185938697879a8897899b62000b8a575b50908391826040519e8f926bffffffffffffffffffffffff1683521690602001521660408c01521660608a015262ffffff16608089015260020b60a088015260020b60c08701526001600160801b03948580941660e08801526101008701526101208601521661014084015216610160820152f35b99505050509850505050505083925062000bb49150843d861162000a715762000a51818362003d4e565b999c929b999a93999098919794969492939062000b15565b5034620004605762000bde3662003c7f565b91906001600160a01b039283600854163314801562001374575b62000c039062003e0d565b83600a5416803b15620003ba5760405163318a457160e21b8152600481018390523060248201529084908290604490829084905af18015620003c6579084916200135c575b50508160005260206012815260406000205491600862000c688462003bff565b5001556000600a62000c93600962000c808662003bff565b50019460ff199586815416905562003bff565b5001558460045416926040519563133f757160e31b875281600488015261018060249581898881845afa90811562000a04578892899a8a918b946200131d575b5050600554604051630b4c774160e11b81526001600160a01b0380871660048301528d16602482015262ffffff90921660448301528790829087168180606481015b03915afa908115620012d0579085918b91620012db575b5060e0906004604051809481937f3850c7bd000000000000000000000000000000000000000000000000000000008352165afa8015620012d05785908b9062001226575b62000d7d9250166200422e565b670de0b6b3a764000090818102918183041490151715620011fe5760c01c801562001211576d04ee2d6d415b85acef81000000000490655af3107a40009180830292830403620011fe5792888a9b93889360408860a48f9e9f8c9062000df39b62000e116001600160801b03809e8199620048ae565b898b169a91168a811115620011f55750955b60085416331462003c96565b82825260128b5286868320549b87519462000e2c8662003d31565b855284019516988986528684018381526060850190848252608086019242845289519a8b998a98630624e65f60e11b8a525160048a01525116908701525160448601525160648501525160848401525af18015620011ea578c9760409262000f1192620011c9575b5089600454169083519062000ea98262003cf7565b8c8252308e83015284820181905260608201908152845163fc6f786560e01b81528251600482015260208301516001600160a01b031660248201526040909201516001600160801b039081166044840152905116606482015298899283919082906084820190565b03925af1938415620011be578b968c956200118b575b5062000f3560049162003bff565b500180548b166001179055604080518981526020810188905290810185905233907f1dc8bb69df2b8e91fbdcbfcf93d951b3f0000f085a95fe3f7946d6161439245d90606090a262000f8662003f1b565b1162001137575b5050505080600a5416908060085416331480156200112d575b62000fb19062003e0d565b80600b5416803b15620011295760405163095ea7b360e01b81526001600160a01b039390931660048401526024830184905286908390604490829084905af180156200045157849287916200110c575b5050806200105791600754169060045416604051978880948193630fe9a9f560e31b8352883091600485019193929060609160808401956001600160a01b03809316855260208501526006604085015216910152565b03925af193841562000451578694620010d7575b506006420194854211620010c55750916012600a9492620010bf94600052526040600020549160086200109e8462003bff565b50015560016009620010b08462003bff565b50019182541617905562003bff565b50015580f35b86634e487b7160e01b81526011600452fd5b9093508181813d831162001104575b620010f2818362003d4e565b8101031262000444575192386200106b565b503d620010e6565b6200111a9192935062003ce2565b62000913578290853862001001565b8680fd5b5033301462000fa6565b60025485168582811682036200116257505050620011569250620043b3565b505b3880808062000f8d565b9193909250161462001177575b505062001158565b6200118291620043b3565b5038806200116f565b62000f3597506004919550620011b29060403d604011620009fc57620009e7818362003d4e565b97909795915062000f27565b6040513d8d823e3d90fd5b620011e390843d8611620009fc57620009e7818362003d4e565b5062000e94565b6040513d8e823e3d90fd5b90509562000e05565b888a634e487b7160e01b81526011600452fd5b88634e487b7160e01b60005260126004526000fd5b505060e0813d60e011620012c7575b816200124460e0938362003d4e565b81010312620012c3578051908582168203620012bf57620012678882016200414c565b5062001276604082016200421e565b5062001285606082016200421e565b5062001294608082016200421e565b5060a081015160ff811603620012bf5762000d7d91620012b860c088930162003ec9565b5062000d70565b8a80fd5b8980fd5b3d915062001235565b6040513d8c823e3d90fd5b809250888092503d831162001315575b620012f7818362003d4e565b81010312620012c35760e06200130e869262003df8565b9062000d2c565b503d620012eb565b62000d159c508895506200134593945080919250903d1062000a715762000a51818362003d4e565b5050505097965050509c92509490949b9162000cd3565b620013679062003ce2565b6200036157823862000c48565b5033301462000bf8565b5034620004605780600319360112620004605760206001600160a01b0360075416604051908152f35b5034620004605780600319360112620004605760206001600160a01b0360095416604051908152f35b5060403660031901126200046057620013e862003c51565b6001600160a01b036002541690604051916370a0823160e01b92838152306004820152602081602481855afa9081156200091f57859162001e1b575b506040519384523060048501526020846024816001600160a01b0387165afa9384156200091f57859462001de1575b5060105480911062001d8d57816001600160a01b0384161060001462001d84578291935b670de0b6b3a764000080830290838204148315171562001d2157620014a182620014a79262004106565b620048ae565b92838060601b046c01000000000000000000000000148415171562001d215760206001600160a01b036084888a836004541684633b9aca006040519b8c9788967f13ead562000000000000000000000000000000000000000000000000000000008852818c166004890152166024870152612710604487015260601b041660648401525af193841562001d7957879462001d35575b506001600160a01b0384166001600160a01b0382167f4f2ce4e40f623ca765fc0167a25cb7842ceaafb8d82d3dec26ca0d0e0d2d48968980a36200158d826001600160a01b0360045416836200490d565b620015a5836001600160a01b0360045416886200490d565b61012c4201421162001d2157604051958661016081011067ffffffffffffffff6101608901111762001ac1576001600160a01b03809261016089016040521687521660208601526127106040860152620d899f196060860152620d89a0608086015260a085015260c08401528360e0840152836101008401523061012084015261012c420161014084015260806101406101646001600160a01b0360045416958760405197889485937f883164560000000000000000000000000000000000000000000000000000000085526001600160a01b0381511660048601526001600160a01b03602082015116602486015262ffffff6040820151166044860152606081015160020b60648601528781015160020b608486015260a081015160a486015260c081015160c486015260e081015160e48601526101008101516101048601526001600160a01b036101208201511661012486015201516101448401525af1928315620003c657849362001cd7575b50836001600160a01b03600454166001600160a01b03600a541690803b15620003615760405163095ea7b360e01b81526001600160a01b039290921660048301526024820186905282908290604490829084905af1801562000a915762001cbf575b50600a5460048054604051630fe9a9f560e31b81526001600160a01b039182169281019290925260248201879052600660448301523060648301529092602092849260849284929091165af19081156200091f57859162001c87575b5060243562001aeb575b60064201421162001ad75760405191826101a081011067ffffffffffffffff6101a08501111762001ac1576001600160a01b03906101a0840160405281851684521660208301524260408301528360608301528460808301528460a08301528460c08301528460e083015261010082015260016101208201526006420161014082015283610160820152836101808201526011546801000000000000000081101562001aad5780600162001895920160115562003bff565b62001a9a57600b610180916001600160a01b0384511673ffffffffffffffffffffffffffffffffffffffff19908183541617825560018201906001600160a01b036020870151169082541617905560408401516002820155606084015160038201556200191760808501511515600483019060ff801983541691151516179055565b60a084015160058201556200194160c08501511515600683019060ff801983541691151516179055565b60e084015160078201556101008401516008820155620019776101208501511515600983019060ff801983541691151516179055565b610140840151600a8201550191620019a26101608201511515849060ff801983541691151516179055565b0151815461ff00191690151560081b61ff00161790556011546000198101908111620008ca5782845260126020526040842055620019e183546200413c565b8355620019f06001546200413c565b6001558183526012602052826001600160a01b03600162001a15604084205462003bff565b50015416916001600160a01b0381163b156200045c5760246001600160a01b03938360405195869485937f5edfd7ce0000000000000000000000000000000000000000000000000000000085526004850152165af180156200036d5762001a82575b602082604051908152f35b62001a8e839162003ce2565b6200045c578162001a77565b602485634e487b7160e01b815280600452fd5b602485634e487b7160e01b81526041600452fd5b634e487b7160e01b600052604160045260246000fd5b602485634e487b7160e01b81526011600452fd5b62001b126001600160a01b0360025416602435906001600160a01b03600654169062004310565b62001be460206001600160a01b03600254166040519062001b338262003d14565b81526001600160a01b03861682820152612710604082015233606082015260243560808201528760a08201528760c08201526001600160a01b036006541660405180809581946304e45aaf60e01b83526004830191909160c060e0820193816001600160a01b039182815116855282602082015116602086015262ffffff60408201511660408601528260608201511660608601526080810151608086015260a081015160a0860152015116910152565b039134905af19081156200045157869162001c4e575b5060207fdb04c7a6d4758fd55d738ebc67e7f3010ac922be00771ef29521a4090d1eb13f91604051908152a1602435602435046001146024351517620017dd57602485634e487b7160e01b81526011600452fd5b90506020813d60201162001c7e575b8162001c6c6020938362003d4e565b81010312620004445751602062001bfa565b3d915062001c5d565b90506020813d60201162001cb6575b8162001ca56020938362003d4e565b8101031262000444575138620017d3565b3d915062001c96565b62001cca9062003ce2565b620003ba57833862001777565b9092506080813d60801162001d18575b8162001cf66080938362003d4e565b81010312620003ba5762001d0f60208251920162004127565b50913862001715565b3d915062001ce7565b602487634e487b7160e01b81526011600452fd5b9093506020813d60201162001d70575b8162001d546020938362003d4e565b81010312620011295762001d689062003df8565b92386200153c565b3d915062001d45565b6040513d89823e3d90fd5b92829362001477565b608460405162461bcd60e51b815260206004820152602760248201527f4e6f7420656e6f756768205745544820696e2074686520666163746f727920636044820152661bdb9d1c9858dd60ca1b6064820152fd5b9093506020813d60201162001e12575b8162001e006020938362003d4e565b81010312620004445751923862001453565b3d915062001df1565b90506020813d60201162001e4a575b8162001e396020938362003d4e565b810103126200044457513862001424565b3d915062001e2a565b50346200046057604036600319011262000460576004359062001e7562003c68565b6001600160a01b0392600891838584541633149162001e948362003c96565b81600e9383855580156200247f575b62001eae9062003e0d565b6040519462001ebd8662003cf7565b808652604062001f3c60209730898201526001600160801b03808483015260608201528b6004541690835197888094819363fc6f786560e01b83526004830191909160606080820193805183526001600160a01b036020820151166020840152816040820151916001600160801b038093166040860152015116910152565b03925af198891562000a04578894899a62002453575b5060408051838152602081018790529081018b90527fa54e6c2fc0861aa9c991b26891d71059d517983b9e84b91020f42609c452eb9d90606090a181895260129283885260408a20549a826002541683871610600014620022d95786159586620021a75762001fdc929162001fcc62001fd2928a620043b3565b62003e59565b9081895562003e59565b97600762001fea8c62003bff565b50015486116200212257926200200c6200207a93926005955416331462003c96565b818a5287527f5b5116a6a7ed7078e6da121ce407eb49b9da5715f14154c54556529f996a4fb060408a205491600185620020468562003bff565b5001541162002102575b60ff60066200205f8562003bff565b5001546040805193845291161515602083015290a162003bff565b50016200208881546200413c565b90555b818004600114171562001ad75760076064620020ca7f455a40491d912862d7d0e0f06f4b988a4ecbfcb2e134b41b9600c81a782860ed96979862003bff565b5092049101555b54604051908152a1620020e781600c5462003e59565b600c5580620020f4575080f35b620020ff9062004535565b80f35b60066200210f8462003bff565b5001805460ff1916600117905562002050565b9062002132915416331462003c96565b875284527f6f3e068cb934f31cfea69b2f72e697abfe27982d58fe7fcabb327c96c89cd33a60408720548760056200216a8362003bff565b50015560ff60066200218c6005620021828562003bff565b5001549362003bff565b5001546040805193845291161515602083015290a16200208b565b50999a50620021ef919395507f455a40491d912862d7d0e0f06f4b988a4ecbfcb2e134b41b9600c81a782860ed98929450620021e58a885462003e59565b9081885562003e59565b971562002271579062002206915416331462003c96565b865282527f6f3e068cb934f31cfea69b2f72e697abfe27982d58fe7fcabb327c96c89cd33a60408620548660056200223e8362003bff565b50015560ff6006620022566005620021828562003bff565b5001546040805193845291161515602083015290a1620020d1565b9262002289620022c393926005955416331462003c96565b81895285527f5b5116a6a7ed7078e6da121ce407eb49b9da5715f14154c54556529f996a4fb0604089205491600185620020468562003bff565b5001620022d181546200413c565b9055620020d1565b95861595866200240057620022f9929162001fcc62001fd2928a620043b3565b976007620023078c62003bff565b50015486116200238557926200200c6200232993926005955416331462003c96565b50016200233781546200413c565b90555b818004600114171562001ad75760076064620023797f455a40491d912862d7d0e0f06f4b988a4ecbfcb2e134b41b9600c81a782860ed96979862003bff565b509204910155620020d1565b9062002395915416331462003c96565b875284527f6f3e068cb934f31cfea69b2f72e697abfe27982d58fe7fcabb327c96c89cd33a6040872054876005620023cd8362003bff565b50015560ff6006620023e56005620021828562003bff565b5001546040805193845291161515602083015290a16200233a565b50999a505091935091507f455a40491d912862d7d0e0f06f4b988a4ecbfcb2e134b41b9600c81a782860ed956200243988865462003e59565b808655971562002271579062002206915416331462003c96565b9099506200247491945060403d604011620009fc57620009e7818362003d4e565b939093983862001f52565b5033301462001ea3565b5034620004605780600319360112620004605760206001600160a01b0360065416604051908152f35b503462000460576040366003190112620004605780620024d162003c51565b602435906001600160a01b039081600254166040516370a0823160e01b81523060048201526020908181602481865afa90811562001d79578791620025f4575b508511156200251e578580f35b60405163a9059cbb60e01b81526001600160a01b038416600482015260248101869052918190839060449082908a905af180156200045157620025b8575b50501690813b15620025b4578291602483926040519485938492639b5ceb3560e01b845260048401525af1801562000a91576200259c575b808080808580f35b620025a79062003ce2565b6200046057803862002594565b5050fd5b81813d8311620025ec575b620025cf818362003d4e565b810103126200091357620025e39062003ec9565b5038806200255c565b503d620025c3565b809750828092503d831162002624575b62002610818362003d4e565b810103126200044457848796519062002511565b503d62002604565b50346200046057604036600319011262000460576004356200264d62003c68565b6001600160a01b03906008926200266983855416331462003c96565b600e85815581865260126020818152604080892054600a5482517f51f3b4bd0000000000000000000000000000000000000000000000000000000081526004810188905230602482015293989397919691959193928b9189906044908290859088165af18015620011be578b988c9162002b3c575b5060408051868152602081018b90529081018290527fa54e6c2fc0861aa9c991b26891d71059d517983b9e84b91020f42609c452eb9d90606090a160025484168785161015620029b4578815968762002886576200275193929162001fcc62002748928c620043b3565b80925562003e59565b9760076200275f8762003bff565b50015487116200280b57926200200c6200278193926005955416331462003c96565b50016200278f81546200413c565b90555b828004600114171562001ad757917f455a40491d912862d7d0e0f06f4b988a4ecbfcb2e134b41b9600c81a782860ed9160076064620027d6620027f4979662003bff565b5092049101555b604051838152a180620027fa575b600c5462003e59565b600c5580f35b620028058162004535565b620027eb565b906200281b915416331462003c96565b875284527f6f3e068cb934f31cfea69b2f72e697abfe27982d58fe7fcabb327c96c89cd33a6040872054876005620028538362003bff565b50015560ff60066200286b6005620021828562003bff565b5001546040805193845291161515602083015290a162002792565b509896507f455a40491d912862d7d0e0f06f4b988a4ecbfcb2e134b41b9600c81a782860ed9750620027f499929394955090620028ca91620027488a835462003e59565b96156200294c5790620028e1915416331462003c96565b865281527f6f3e068cb934f31cfea69b2f72e697abfe27982d58fe7fcabb327c96c89cd33a6040862054866005620029198362003bff565b50015560ff6006620029316005620021828562003bff565b5001546040805193845291161515602083015290a1620027dd565b92620029646200299e93926005955416331462003c96565b81895284527f5b5116a6a7ed7078e6da121ce407eb49b9da5715f14154c54556529f996a4fb0604089205491600185620020468562003bff565b5001620029ac81546200413c565b9055620027dd565b978815968762002ae157620029d593929162001fcc62002748928c620043b3565b976007620029e38762003bff565b500154871162002a6657926200200c62002a0593926005955416331462003c96565b500162002a1381546200413c565b90555b828004600114171562001ad757917f455a40491d912862d7d0e0f06f4b988a4ecbfcb2e134b41b9600c81a782860ed916007606462002a5a620027f4979662003bff565b509204910155620027dd565b9062002a76915416331462003c96565b875284527f6f3e068cb934f31cfea69b2f72e697abfe27982d58fe7fcabb327c96c89cd33a604087205487600562002aae8362003bff565b50015560ff600662002ac66005620021828562003bff565b5001546040805193845291161515602083015290a162002a16565b507f455a40491d912862d7d0e0f06f4b988a4ecbfcb2e134b41b9600c81a782860ed985080999750620027f49a939495965062002b219150825462003e59565b9081905596156200294c5790620028e1915416331462003c96565b905062002b5c91985060403d604011620009fc57620009e7818362003d4e565b97909738620026de565b50346200046057806003193601126200046057620020ff62003f1b565b50602036600319011262000460576004356001600160a01b039062002bae8260085416331462003c96565b341562002c12578162002bcd8285946002541683600954169062004310565b60095416803b15620025b457829060046040518094819363014d6aed60e41b83525af1801562000a915762002bff5750f35b62002c0a9062003ce2565b620004605780f35b606460405162461bcd60e51b815260206004820152601160248201527f4e6f207265776172647320746f206164640000000000000000000000000000006044820152fd5b506020806003193601126200045c576004359067ffffffffffffffff808311620003ba5736602384011215620003ba57826004013581811162000913576024906005903660248260051b880101116200112957943681900360421901906000198701878111895b89811062002cc9578a80f35b8162002d845780830362002d7d57345b8b8883891b87010135878112156200045c5786019189830135908b821162000361576044809401918036038313620003ba57839281604051928392833781018481520391305af162002d2a62003ed7565b501562002d3b575060010162002cbd565b897f4d756c746963616c6c20657865637574696f6e206661696c6564000000000000606492601a8b6040519462461bcd60e51b86526004860152840152820152fd5b8a62002cd9565b868b634e487b7160e01b81526011600452fd5b503462000460576060366003190112620004605762002e23602062002dbb62003c51565b62002dc562003c68565b9060443591856001600160a01b0362002de48160085416331462003c96565b62002df185151562003e7d565b60405180978196829563a9059cbb60e01b845260048401602090939291936001600160a01b0360408201951681520152565b0393165af1801562000a915762002e38575080f35b6020813d60201162002e6c575b8162002e546020938362003d4e565b810103126200045c5762002e689062003ec9565b5080f35b3d915062002e45565b5034620004605780600319360112620004605760209054604051908152f35b5034620004605780600319360112620004605760206001600160a01b0360085416604051908152f35b50346200046057602036600319011262000460576004356001600160a01b0360095416330362002f2d5760208162002f197fd5e85995d9bdcdafb72531ec59faef29167c16780583ca2068587fe896170c479360135462003e59565b601355604051908152a1620020ff62003f1b565b608460405162461bcd60e51b815260206004820152602160248201527f4f6e6c79207374616b696e6720636f6e74726163742063616e206e6f7469667960448201527f2e000000000000000000000000000000000000000000000000000000000000006064820152fd5b5034620004605780600319360112620004605760206001600160a01b0360055416604051908152f35b503462000460578060031936011262000460576020600154604051908152f35b50346200046057604036600319011262000460576004356001600160a01b0380821680920362000361576200301462003c68565b620030258260085416331462003c96565b73ffffffffffffffffffffffffffffffffffffffff19928360095416176009551690600f541617600f5580f35b503462000460578060031936011262000460576020601354604051908152f35b5034620004605760203660031901126200046057806001600160a01b0360045416803b15620030e3578180916024604051809481937f42966c6800000000000000000000000000000000000000000000000000000000835260043560048401525af1801562000a915762002bff5750f35b50fd5b5034620004605780600319360112620004605760206001600160a01b0360045416604051908152f35b503462000460578060031936011262000460576040905460015482519182526020820152f35b5034620004605760603660031901126200046057600435906001600160a01b03908160085416331480156200335f575b620031709062003e0d565b8281526020926012845260408220549083600a5416803b15620003ba5760405163318a457160e21b815260248035600483015230908201529084908290604490829084905af18015620003c65790849162003347575b505083600a54168460085416331480156200333d575b620031e79062003e0d565b84600b541690813b15620009135760405163095ea7b360e01b81526001600160a01b03919091166004820152602481018390529084908290604490829084905af18015620003c657869291859162003320575b5050608485600a54169560045416856040519788948593630fe9a9f560e31b85526004850152602484015260443560448401523060648401525af192831562000a91578293620032eb575b50826008620032948362003bff565b5001556009620032a48262003bff565b5001600160ff198254161790556006420191824211620032d75750620032cc600a9162003bff565b500155604051908152f35b80634e487b7160e01b602492526011600452fd5b9092508381813d831162003318575b62003306818362003d4e565b81010312620004445751913862003285565b503d620032fa565b6200332e9192935062003ce2565b6200036157849083386200323a565b50333014620031dc565b620033529062003ce2565b62000361578238620031c6565b5033301462003165565b50346200046057606036600319011262000460576200338762003c51565b906200339262003c68565b6044359262ffffff841684036200036157600554604051630b4c774160e11b81526001600160a01b039283166004820152928216602484015262ffffff94909416604483015290926020908490606490829085165afa918215620005d457809262003405575b6020838360405191168152f35b9091506020833d60201162003443575b81620034246020938362003d4e565b810103126200046057506200343b60209262003df8565b9038620033f8565b3d915062003415565b50346200046057602036600319011262000460576004359060115482101562000460576101a06200347d8362003bff565b5060ff6001600160a01b03918281541692600182015416906002810154600382015484600484015416600584015486600686015416906007860154926008870154948960098901541696600b600a8a0154990154996040519c8d5260208d015260408c015260608b0152151560808a015260a0890152151560c088015260e08701526101008601521515610120850152610140840152818116151561016084015260081c161515610180820152f35b5034620004605780600319360112620004605760206001600160a01b0360025416604051908152f35b503462000460576060366003190112620004605767ffffffffffffffff60043581811162000361576200358d90369060040162003bce565b91906024358281116200091357620035aa90369060040162003bce565b9091604051946112a58087019587871090871117620036565786959492620035f69492620035e792620049f1893960808752608087019162003dd7565b91848303602086015262003dd7565b906044356040820152606030910152039082f080156200364957906001600160a01b0360209216807f91d24864a084ab70b268a1f865e757ca12006cf298d763b6be697302ef86498c6040519380a28152f35b50604051903d90823e3d90fd5b602488634e487b7160e01b81526041600452fd5b5034620004605780600319360112620004605760206001600160a01b03600a5416604051908152f35b50346200046057806003193601126200046057620036be6001600160a01b0360085416331462003c96565b60115490620036cd8262003d8a565b90620036d98362003d8a565b92620036e58162003d8a565b91620036f18262003d8a565b60a052620036ff8262003d8a565b60c0526200370d8262003d8a565b610100526200371c8262003d8a565b610120526200372b8262003d8a565b610160526200373a8262003d8a565b61018052620037498262003d8a565b6101a052620037588262003d8a565b61014052620037678262003d8a565b60e052620037758262003d8a565b6080525b818110620038b75750506040519283926101a080855284016200379c9162003b21565b8381036020850152620037af9162003b21565b8281036040840152620037c29162003b60565b818103606083015260a05190620037d99162003b60565b818103608083015260c05190620037f09162003b96565b81810360a08301526101005190620038089162003b60565b81810360c08301526101205190620038209162003b96565b81810360e08301526101605190620038389162003b60565b8181036101008301526101805190620038519162003b60565b8181036101208301526101a051906200386a9162003b96565b8181036101408301526101405190620038839162003b60565b81810361016083015260e051906200389b9162003b96565b81810361018083015260805190620038b39162003b96565b0390f35b806001600160a01b03620038cd60019362003bff565b505416620038dc828762003dc2565b526001600160a01b0382620038f18362003bff565b5001541662003901828862003dc2565b5260036200390f8262003bff565b5001546200391e828662003dc2565b5260026200392c8262003bff565b5001546200393d8260a05162003dc2565b5260046200394b8262003bff565b5060ff918291015416620039628360c05162003dc2565b90151590526005620039748362003bff565b50015462003986836101005162003dc2565b52806006620039958462003bff565b50015416620039a8836101205162003dc2565b90151590526007620039ba8362003bff565b500154620039cc836101605162003dc2565b526008620039da8362003bff565b500154620039ec836101805162003dc2565b52806009620039fb8462003bff565b5001541662003a0e836101a05162003dc2565b9015159052600a62003a208362003bff565b50015462003a32836101405162003dc2565b5262003a3e8262003bff565b5081600b809201541662003a558460e05162003dc2565b901515905262003a658362003bff565b50015460081c1662003a7a8260805162003dc2565b90151590520162003779565b5034620004605760203660031901126200046057806001600160a01b0362003ab48160085416331462003c96565b60025416803b15620030e3578190602460405180948193632e1a7d4d60e01b835260043560048401525af1801562000a915762003aef575080f35b620020ff9062003ce2565b9050346200045c57816003193601126200045c576020906001600160a01b03600354168152f35b90815180825260208080930193019160005b82811062003b42575050505090565b83516001600160a01b03168552938101939281019260010162003b33565b90815180825260208080930193019160005b82811062003b81575050505090565b83518552938101939281019260010162003b72565b90815180825260208080930193019160005b82811062003bb7575050505090565b835115158552938101939281019260010162003ba8565b9181601f84011215620004445782359167ffffffffffffffff83116200044457602083818601950101116200044457565b60115481101562003c3b57600c906011600052027f31ecc21a745e3968a04e9570e4425bc18fa8019c68028196b546d1669c200c680190600090565b634e487b7160e01b600052603260045260246000fd5b600435906001600160a01b03821682036200044457565b602435906001600160a01b03821682036200044457565b604090600319011262000444576004359060243590565b1562003c9e57565b606460405162461bcd60e51b815260206004820152601760248201527f43616c6c6572206973206e6f7420746865206f776e65720000000000000000006044820152fd5b67ffffffffffffffff811162001ac157604052565b6080810190811067ffffffffffffffff82111762001ac157604052565b60e0810190811067ffffffffffffffff82111762001ac157604052565b60a0810190811067ffffffffffffffff82111762001ac157604052565b90601f8019910116810190811067ffffffffffffffff82111762001ac157604052565b67ffffffffffffffff811162001ac15760051b60200190565b9062003d968262003d71565b62003da5604051918262003d4e565b828152809262003db8601f199162003d71565b0190602036910137565b805182101562003c3b5760209160051b010190565b908060209392818452848401376000828201840152601f01601f1916010190565b51906001600160a01b03821682036200044457565b1562003e1557565b606460405162461bcd60e51b815260206004820152601860248201527f43616c6c6572206973206e6f7420617574686f72697a656400000000000000006044820152fd5b9190820180921162003e6757565b634e487b7160e01b600052601160045260246000fd5b1562003e8557565b606460405162461bcd60e51b815260206004820152602060248201527f416d6f756e74206d7573742062652067726561746572207468616e207a65726f6044820152fd5b519081151582036200044457565b3d1562003f16573d9067ffffffffffffffff821162001ac1576040519162003f0a601f8201601f19166020018462003d4e565b82523d6000602084013e565b606090565b60025460006001600160a01b038092166040928351916370a0823160e01b83523060048401526020928381602481855afa908115620040e5578591620040b2575b506013548091101580620040a8575b62003f79575b505050505050565b839060448460095416878951958694859363a9059cbb60e01b8552600485015260248401525af180156200409e5762004062575b5060095416601354813b15620003ba5783916024839287519485938492639b5ceb3560e01b845260048401525af18015620040585762004024575b507f8ff98a7f9bedb57df86769d07998b067fba595272053e3690d3412aff560a82c91926013549051908152a160135538808080808062003f71565b91620040517f8ff98a7f9bedb57df86769d07998b067fba595272053e3690d3412aff560a82c9362003ce2565b9162003fe8565b84513d85823e3d90fd5b8281813d831162004096575b6200407a818362003d4e565b81010312620003ba576200408e9062003ec9565b503862003fad565b503d6200406e565b85513d86823e3d90fd5b5080151562003f6b565b90508381813d8311620040dd575b620040cc818362003d4e565b810103126200091357513862003f5c565b503d620040c0565b86513d87823e3d90fd5b919082604091031262000444576020825192015190565b811562004111570490565b634e487b7160e01b600052601260045260246000fd5b51906001600160801b03821682036200044457565b600019811462003e675760010190565b51908160020b82036200044457565b919082610180910312620004445781516bffffffffffffffffffffffff81168103620004445791620041906020820162003df8565b916200419f6040830162003df8565b91620041ae6060820162003df8565b91608082015162ffffff81168103620004445791620041d060a082016200414c565b91620041df60c083016200414c565b91620041ee60e0820162004127565b9161010082015191610120810151916200421b61016062004213610140850162004127565b930162004127565b90565b519061ffff821682036200044457565b8015620042be578080600114620042b757600214620042b1576001908161013382101682600b83101617620042a957906002815b8082116200427c5750508160001904811162003e67570290565b90928060001904811162003e67578184166200429f575b800292811c9062004262565b8092029162004293565b600291500a90565b50600490565b5050600190565b50600090565b15620042cc57565b606460405162461bcd60e51b815260206004820152600f60248201527f417070726f76616c206661696c656400000000000000000000000000000000006044820152fd5b60405163095ea7b360e01b81526001600160a01b039283166004820152602481019390935260209183916044918391600091165af18015620043a75760009062004363575b620043619150620042c4565b565b506020813d6020116200439e575b81620043806020938362003d4e565b81010312620004445762004398620043619162003ec9565b62004355565b3d915062004371565b6040513d6000823e3d90fd5b6001600160a01b03620043cc8160085416331462003c96565b620043d982151562003e7d565b620043ea8282600654168562004310565b8060025416918160405194620044008662003d14565b16845260208085019384526127106040808701918252306060880190815260808801948552600060a0890181815260c08a0182815260065494516304e45aaf60e01b81529a516001600160a01b0390811660048d015299518a1660248c0152945162ffffff1660448b01529151881660648a0152945160848901525160a4880152905190941660c48601529093909290918391839160e49183918891165af1928315620005d4578093620044dd575b50507fdb04c7a6d4758fd55d738ebc67e7f3010ac922be00771ef29521a4090d1eb13f90604051838152a190565b909180935082813d83116200452d575b620044f9818362003d4e565b8101031262000460575051907fdb04c7a6d4758fd55d738ebc67e7f3010ac922be00771ef29521a4090d1eb13f38620044af565b503d620044ed565b906002546000926001600160a01b03809216906040928351956370a0823160e01b8752600490308289015260209460249886818b81855afa908115620048a45790869184916200486d575b50106200480657803b156200045c578180918a895180948193632e1a7d4d60e01b83528a898401525af18015620047fc57620047ea575b508360011c9360068502851590868104600614821715620047d857600a90049160011b600319169086820485141715620047c657600a9004948460095416803b15620003ba57838291868b518094819363014d6aed60e41b83525af18015620047bc57908491620047a4575b50507f2cdd0b9dc1e55aa7be2d768970ec6e398da88b8e440c2798c748247ab578ddd7878660095416928a51908152a2818080808488600f54165af16200466962003ed7565b501562004753577fda1785fe1dec267c363b06ae3e02c3e086123f9d611399f7a1cc98492518372e8685600f5416928951908152a28080808686600d54165af1620046b362003ed7565b5015620046ec57507fe796088bab50c1e26d1237e3d746703ee1c21ad8b81837918f122a7c08b4654093949550600d54169351908152a2565b6084906021888688519362461bcd60e51b85528401528201527f4661696c656420746f2073656e642045544820746f207465616d2077616c6c6560448201527f74000000000000000000000000000000000000000000000000000000000000006064820152fd5b60848360278b898b519362461bcd60e51b85528401528201527f4661696c656420746f2073656e642045544820746f20747265617375727920636044820152661bdb9d1c9858dd60ca1b6064820152fd5b620047af9062003ce2565b6200036157823862004623565b89513d86823e3d90fd5b8983601186634e487b7160e01b835252fd5b8a84601187634e487b7160e01b835252fd5b620047f59062003ce2565b38620045b7565b87513d84823e3d90fd5b60848360228b898b519362461bcd60e51b85528401528201527f496e737566696369656e742062616c616e6365206f6e2074686520666163746f60448201527f72790000000000000000000000000000000000000000000000000000000000006064820152fd5b809250888092503d83116200489c575b62004889818362003d4e565b8101031262000361578590513862004580565b503d6200487d565b88513d85823e3d90fd5b9060006003831115620048ff5750816001908060011c6001810180911162003e675791905b848310620048e057505050565b90919350620048f58462001fcc818462004106565b821c9190620048d3565b916200490757565b60019150565b60405163095ea7b360e01b602082019081526001600160a01b0393909316602482015260448082019490945292835260009283929083906200495160648262003d4e565b51925af16200495f62003ed7565b81620049b3575b50156200496f57565b606460405162461bcd60e51b815260206004820152600260248201527f53410000000000000000000000000000000000000000000000000000000000006044820152fd5b8051801592508215620049ca575b50503862004966565b819250906020918101031262000444576020620049e8910162003ec9565b3880620049c156fe604060808152346200066557620012a5803803806200001e816200066a565b9283398101608082820312620006655781516001600160401b03908181116200066557826200004f91850162000690565b602092838501519083821162000665576200006c91860162000690565b8585015160609095015190926001600160a01b03918281169081900362000665578351828111620005655760038054916001968784811c941680156200065a575b8a85101462000644578190601f94858111620005ee575b508a9085831160011462000587576000926200057b575b505060001982841b1c191690871b1781555b865191848311620005655760049788548881811c911680156200055a575b8b82101462000545579081838695949311620004eb575b508a918411600114620004805760009362000474575b505082871b92600019911b1c19161785555b60ff19600a5416600a55670de0b6b3a7640000968781029781890414811517156200045f57674563918244f4000002878104600514881517156200045f5760649004600555600780546001600160a01b0319908116909217905587519160608301908111838210176200044a578852308252858201916000835288810192308452600b546801000000000000000081101562000435578087620001f19201600b5562000702565b929092620004215751825491516001600160a81b03199092169086161790151560a01b60ff60a01b1617815591519184018054909116918316919091179055600b5460001981019081116200040c5730600052600c855286600020553315620003f55730600052600c84528560002054918060ff620002708562000702565b505460a01c161515149283620003e4575b83620003d8575b83620003ce575b83620003b0575b505050620002fa575b507fddf252ad1be2c89b69c2b068fc378daa952ba7f163c4a11628f55a4df523b3ef600091620002d28460025462000738565b60025533835282815284832084815401905584519384523393a351610b4890816200075d8239f35b6002546005810290808204600514901517156200039b576064903360005260008452046200032d84866000205462000738565b11156200029f5760849184519162461bcd60e51b8352820152603660248201527f4d79546f6b656e3a205472616e7366657220616d6f756e74206578636565647360448201527f20746865206d617820686f6c64696e67206c696d6974000000000000000000006064820152fd5b601182634e487b7160e01b6000525260246000fd5b620003be9192935062000702565b5001541633141538808062000296565b925080926200028f565b33301415935062000288565b925081600754163314159262000281565b855163ec442f0560e01b8152600081850152602490fd5b601184634e487b7160e01b6000525260246000fd5b600088634e487b7160e01b82525260246000fd5b604188634e487b7160e01b6000525260246000fd5b604186634e487b7160e01b6000525260246000fd5b601186634e487b7160e01b6000525260246000fd5b01519150388062000138565b9190889450601f198416928a6000528b6000209360005b8d828210620004d45750508511620004b9575b50505050811b0185556200014a565b01519060f884600019921b161c1916905538808080620004aa565b8385015187558c9890960195938401930162000497565b9091929350896000528a6000208380870160051c8201928d88106200053b575b918b918897969594930160051c01915b8281106200052b57505062000122565b600081558796508b91016200051b565b925081926200050b565b60228a634e487b7160e01b6000525260246000fd5b90607f16906200010b565b634e487b7160e01b600052604160045260246000fd5b015190503880620000db565b60008581528c81208b9550929190601f198516908e5b828210620005d65750508411620005bd575b505050811b018155620000ed565b015160001983861b60f8161c19169055388080620005af565b8385015186558d979095019493840193018e6200059d565b909150836000528a6000208580850160051c8201928d86106200063a575b918b91869594930160051c01915b8281106200062a575050620000c4565b600081558594508b91016200061a565b925081926200060c565b634e487b7160e01b600052602260045260246000fd5b93607f1693620000ad565b600080fd5b6040519190601f01601f191682016001600160401b038111838210176200056557604052565b919080601f84011215620006655782516001600160401b0381116200056557602090620006c6601f8201601f191683016200066a565b92818452828287010111620006655760005b818110620006ee57508260009394955001015290565b8581018301518482018401528201620006d8565b600b548110156200072257600b60005260206000209060011b0190600090565b634e487b7160e01b600052603260045260246000fd5b919082018092116200074657565b634e487b7160e01b600052601160045260246000fdfe608060408181526004918236101561001657600080fd5b600092833560e01c91826306647125146107bb5750816306fdde03146106df578163095ea7b31461063357816318160ddd1461061457816323b872dd14610508578163313ce567146104ec578163333e6f06146104cd5781635edfd7ce1461036d578163634282af1461030f57816370a08231146102d957816395d89b41146101b857508063966dae0e14610191578063a9059cbb14610161578063aa4bde2814610143578063d045a329146101205763dd62ed3e146100d557600080fd5b3461011c578060031936011261011c57806020926100f161081f565b6100f961083a565b6001600160a01b0391821683526001865283832091168252845220549051908152f35b5080fd5b503461011c578160031936011261011c5760209060ff600a541690519015158152f35b503461011c578160031936011261011c576020906009549051908152f35b503461011c578060031936011261011c5760209061018a61018061081f565b60243590336108a0565b5160018152f35b503461011c578160031936011261011c576020906001600160a01b03600754169051908152f35b83833461011c578160031936011261011c5780519082845460018160011c90600183169283156102cf575b60209384841081146102bc578388529081156102a0575060011461024b575b505050829003601f01601f191682019267ffffffffffffffff84118385101761023857508291826102349252826107d6565b0390f35b80604186634e487b7160e01b6024945252fd5b8787529192508591837f8a35acfbc15ff81a39ae7d344fd709f28e8600b4aa8c65c6b64bfe7fe36bd19b5b83851061028c5750505050830101858080610202565b805488860183015293019284908201610276565b60ff1916878501525050151560051b8401019050858080610202565b60248960228c634e487b7160e01b835252fd5b91607f16916101e3565b50503461011c57602036600319011261011c57806020926001600160a01b0361030061081f565b16815280845220549051908152f35b8391503461011c57602036600319011261011c573590600b5482101561036a57606060018461033d85610850565b509060ff8254926001600160a01b03948591015416928251948116855260a01c1615156020840152820152f35b80fd5b83833461011c57602036600319011261011c5761038861081f565b906001600160a01b039081600754163303610465576103fa600191308652600c6020528520546103b781610850565b50740100000000000000000000000000000000000000007fffffffffffffffffffffff00ffffffffffffffffffffffffffffffffffffffff825416179055610850565b500191167fffffffffffffffffffffffff00000000000000000000000000000000000000008254161790556002546005810290808204600514901517156104525760649004600955600160ff19600a541617600a5580f35b506011602492634e487b7160e01b835252fd5b5162461bcd60e51b8152602081860152602d60248201527f43616c6c6572206973206e6f7420617574686f72697a656420746f20656e616260448201527f6c65206d61782077616c6c6574000000000000000000000000000000000000006064820152608490fd5b50503461011c578160031936011261011c576020906005549051908152f35b50503461011c578160031936011261011c576020905160128152f35b9050823461036a57606036600319011261036a5761052461081f565b61052c61083a565b91604435936001600160a01b038316808352600160205286832033845260205286832054916000198303610569575b60208861018a8989896108a0565b8683106105cf5781156105b95733156105a35750825260016020908152868320338452815291869020908590039055829061018a8761055b565b60249084895191634a1406b160e11b8352820152fd5b6024908489519163e602df0560e01b8352820152fd5b87517ffb8f41b2000000000000000000000000000000000000000000000000000000008152339181019182526020820193909352604081018790528291506060010390fd5b50503461011c578160031936011261011c576020906002549051908152f35b9050346106db57816003193601126106db5761064d61081f565b6024359033156106c5576001600160a01b03169182156106af57508083602095338152600187528181208582528752205582519081527f8c5be1e5ebec7d5bd14f71427d1e84f3dd0314c0f7b2291e5b200ac8c7c3b925843392a35160018152f35b60249085855191634a1406b160e11b8352820152fd5b6024838686519163e602df0560e01b8352820152fd5b8280fd5b83833461011c578160031936011261011c578051908260035460018160011c90600183169283156107b1575b60209384841081146102bc578388529081156102a0575060011461075b57505050829003601f01601f191682019267ffffffffffffffff84118385101761023857508291826102349252826107d6565b600387529192508591837fc2575a0e9e593c00f959f8c92f12db2869c3395a3b0502d05e2516446f71f85b5b83851061079d5750505050830101858080610202565b805488860183015293019284908201610787565b91607f169161070b565b84903461011c578160031936011261011c5780600560209252f35b6020808252825181830181905290939260005b82811061080b57505060409293506000838284010152601f8019910116010190565b8181018601518482016040015285016107e9565b600435906001600160a01b038216820361083557565b600080fd5b602435906001600160a01b038216820361083557565b600b5481101561088a57600b60005260011b7f0175b7a638427703f0dbe7bb9bbf987a2551717b34e79f33b5b1008d1fa01db90190600090565b634e487b7160e01b600052603260045260246000fd5b9291906001600160a01b03808516918215610ae1578116928315610ab057600091308352602092600c84526040918282205490600160ff6108e084610850565b505460a01c161515149182610aa1575b82610a96575b82610a8b575b82610a6f575b50506109a9575b848152808452818120549783891061096057508083869798997fddf252ad1be2c89b69c2b068fc378daa952ba7f163c4a11628f55a4df523b3ef9785945282875203828220558781522082815401905551908152a3565b82517fe450d38c0000000000000000000000000000000000000000000000000000000081526001600160a01b039190911660048201526024810189905260448101849052606490fd5b600254600581029080820460051490151715610a5b578682528185528282205490848201809211610a47576064900410156109095760848483519062461bcd60e51b82526004820152603660248201527f4d79546f6b656e3a205472616e7366657220616d6f756e74206578636565647360448201527f20746865206d617820686f6c64696e67206c696d6974000000000000000000006064820152fd5b602483634e487b7160e01b81526011600452fd5b602482634e487b7160e01b81526011600452fd5b6001919250610a7d90610850565b500154168614153880610902565b8789141592506108fc565b3089141592506108f6565b600754821689141592506108f0565b60246040517fec442f0500000000000000000000000000000000000000000000000000000000815260006004820152fd5b60246040517f96c6fd1e00000000000000000000000000000000000000000000000000000000815260006004820152fdfea26469706673582212202913edf78443669d0e3a4bfab28a4f1a1aefbe5ed9444186abf5ba853e49e79664736f6c63430008180033a2646970667358221220d57448f88e2ae6e7ec29aff4c618319ac4e075f04b15dd7303f40375b988bb9c64736f6c63430008180033",
  "linkReferences": {},
  "deployedLinkReferences": {}
}