{
  "_format": "hh-sol-artifact-1",
  "contractName": "MyFactory",
  "sourceName": "contracts/TestFactory.sol",
  "abi": [
    {
      "inputs": [
        {
          "internalType": "address",
          "name": "_positionManager",
          "type": "address"
        },
        {
          "internalType": "address",
          "name": "_weth",
          "type": "address"
        },
        {
          "internalType": "address",
          "name": "_uniswapFactory",
          "type": "address"
        }
      ],
      "stateMutability": "nonpayable",
      "type": "constructor"
    },
    {
      "anonymous": false,
      "inputs": [
        {
          "indexed": true,
          "internalType": "address",
          "name": "token",
          "type": "address"
        },
        {
          "indexed": true,
          "internalType": "address",
          "name": "pool",
          "type": "address"
        },
        {
          "indexed": false,
          "internalType": "uint256",
          "name": "tokenAmount",
          "type": "uint256"
        },
        {
          "indexed": false,
          "internalType": "uint256",
          "name": "wethAmount",
          "type": "uint256"
        }
      ],
      "name": "LiquidityAdded",
      "type": "event"
    },
    {
      "anonymous": false,
      "inputs": [
        {
          "indexed": true,
          "internalType": "address",
          "name": "token",
          "type": "address"
        },
        {
          "indexed": true,
          "internalType": "address",
          "name": "pool",
          "type": "address"
        },
        {
          "indexed": false,
          "internalType": "uint256",
          "name": "tokenAmount",
          "type": "uint256"
        },
        {
          "indexed": false,
          "internalType": "uint256",
          "name": "wethAmount",
          "type": "uint256"
        },
        {
          "indexed": false,
          "internalType": "string",
          "name": "error",
          "type": "string"
        }
      ],
      "name": "LiquidityAdditionFailed",
      "type": "event"
    },
    {
      "anonymous": false,
      "inputs": [
        {
          "indexed": true,
          "internalType": "address",
          "name": "tokenAddress",
          "type": "address"
        },
        {
          "indexed": true,
          "internalType": "address",
          "name": "poolAddress",
          "type": "address"
        }
      ],
      "name": "PoolCreated",
      "type": "event"
    },
    {
      "anonymous": false,
      "inputs": [
        {
          "indexed": true,
          "internalType": "address",
          "name": "poolAddress",
          "type": "address"
        },
        {
          "indexed": false,
          "internalType": "uint160",
          "name": "sqrtPriceX96",
          "type": "uint160"
        }
      ],
      "name": "PoolInitialized",
      "type": "event"
    },
    {
      "anonymous": false,
      "inputs": [
        {
          "indexed": true,
          "internalType": "address",
          "name": "tokenAddress",
          "type": "address"
        },
        {
          "indexed": true,
          "internalType": "address",
          "name": "poolAddress",
          "type": "address"
        }
      ],
      "name": "TokenApproved",
      "type": "event"
    },
    {
      "anonymous": false,
      "inputs": [
        {
          "indexed": true,
          "internalType": "address",
          "name": "tokenAddress",
          "type": "address"
        }
      ],
      "name": "TokenDeployed",
      "type": "event"
    },
    {
      "stateMutability": "payable",
      "type": "fallback"
    },
    {
      "inputs": [
        {
          "internalType": "address",
          "name": "_token",
          "type": "address"
        },
        {
          "internalType": "address",
          "name": "_pool",
          "type": "address"
        },
        {
          "internalType": "address",
          "name": "factory_addy",
          "type": "address"
        },
        {
          "internalType": "uint256",
          "name": "_tokenAmount",
          "type": "uint256"
        },
        {
          "internalType": "uint256",
          "name": "_wethAmount",
          "type": "uint256"
        }
      ],
      "name": "addInitialLiquidity",
      "outputs": [],
      "stateMutability": "nonpayable",
      "type": "function"
    },
    {
      "inputs": [
        {
          "internalType": "address",
          "name": "token",
          "type": "address"
        },
        {
          "internalType": "address",
          "name": "spender",
          "type": "address"
        },
        {
          "internalType": "uint256",
          "name": "amount",
          "type": "uint256"
        }
      ],
      "name": "approveToken",
      "outputs": [],
      "stateMutability": "nonpayable",
      "type": "function"
    },
    {
      "inputs": [
        {
          "internalType": "address",
          "name": "_token",
          "type": "address"
        }
      ],
      "name": "createPoolForToken",
      "outputs": [
        {
          "internalType": "address",
          "name": "poolAddress",
          "type": "address"
        }
      ],
      "stateMutability": "nonpayable",
      "type": "function"
    },
    {
      "inputs": [
        {
          "internalType": "string",
          "name": "_name",
          "type": "string"
        },
        {
          "internalType": "string",
          "name": "_symbol",
          "type": "string"
        },
        {
          "internalType": "uint256",
          "name": "_supply",
          "type": "uint256"
        }
      ],
      "name": "deployToken",
      "outputs": [
        {
          "internalType": "address",
          "name": "",
          "type": "address"
        }
      ],
      "stateMutability": "nonpayable",
      "type": "function"
    },
    {
      "inputs": [
        {
          "internalType": "address",
          "name": "poolAddress",
          "type": "address"
        },
        {
          "internalType": "uint160",
          "name": "sqrtPriceX96",
          "type": "uint160"
        }
      ],
      "name": "initializePool",
      "outputs": [],
      "stateMutability": "nonpayable",
      "type": "function"
    },
    {
      "inputs": [],
      "name": "positionManager",
      "outputs": [
        {
          "internalType": "contract INonfungiblePositionManager",
          "name": "",
          "type": "address"
        }
      ],
      "stateMutability": "view",
      "type": "function"
    },
    {
      "inputs": [],
      "name": "tokenCount",
      "outputs": [
        {
          "internalType": "uint256",
          "name": "",
          "type": "uint256"
        }
      ],
      "stateMutability": "view",
      "type": "function"
    },
    {
      "inputs": [
        {
          "internalType": "uint256",
          "name": "",
          "type": "uint256"
        }
      ],
      "name": "tokens",
      "outputs": [
        {
          "internalType": "address",
          "name": "",
          "type": "address"
        }
      ],
      "stateMutability": "view",
      "type": "function"
    },
    {
      "inputs": [],
      "name": "uniswapFactory",
      "outputs": [
        {
          "internalType": "contract IUniswapV3Factory",
          "name": "",
          "type": "address"
        }
      ],
      "stateMutability": "view",
      "type": "function"
    },
    {
      "inputs": [],
      "name": "weth",
      "outputs": [
        {
          "internalType": "address",
          "name": "",
          "type": "address"
        }
      ],
      "stateMutability": "view",
      "type": "function"
    },
    {
      "stateMutability": "payable",
      "type": "receive"
    }
  ],
  "bytecode": "0x60806040523480156200001157600080fd5b5060405162003a3338038062003a3383398181016040528101906200003791906200016d565b82600260006101000a81548173ffffffffffffffffffffffffffffffffffffffff021916908373ffffffffffffffffffffffffffffffffffffffff16021790555081600360006101000a81548173ffffffffffffffffffffffffffffffffffffffff021916908373ffffffffffffffffffffffffffffffffffffffff16021790555080600460006101000a81548173ffffffffffffffffffffffffffffffffffffffff021916908373ffffffffffffffffffffffffffffffffffffffff160217905550505050620001c9565b600080fd5b600073ffffffffffffffffffffffffffffffffffffffff82169050919050565b6000620001358262000108565b9050919050565b620001478162000128565b81146200015357600080fd5b50565b60008151905062000167816200013c565b92915050565b60008060006060848603121562000189576200018862000103565b5b6000620001998682870162000156565b9350506020620001ac8682870162000156565b9250506040620001bf8682870162000156565b9150509250925092565b61385a80620001d96000396000f3fe608060405260043610620000a35760003560e01c8063791b98bc1162000061578063791b98bc14620001d75780638bdb2afa14620002075780639f181b5e1462000237578063d21b6ed41462000267578063da3e3397146200029557620000ab565b806317d98c5614620000ad5780633a93babb14620000f15780633fc8cef314620001355780634f64b2be14620001655780635bc30eb014620001a957620000ab565b36620000ab57005b005b348015620000ba57600080fd5b50620000d96004803603810190620000d39190620010d9565b620002c3565b604051620000e891906200111c565b60405180910390f35b348015620000fe57600080fd5b506200011d6004803603810190620001179190620011e2565b620004f2565b6040516200012c91906200111c565b60405180910390f35b3480156200014257600080fd5b506200014d6200060b565b6040516200015c91906200111c565b60405180910390f35b3480156200017257600080fd5b506200019160048036038101906200018b919062001286565b62000631565b604051620001a091906200111c565b60405180910390f35b348015620001b657600080fd5b50620001d56004803603810190620001cf9190620012b8565b62000671565b005b348015620001e457600080fd5b50620001ef62000d11565b604051620001fe9190620013ab565b60405180910390f35b3480156200021457600080fd5b506200021f62000d37565b6040516200022e9190620013ed565b60405180910390f35b3480156200024457600080fd5b506200024f62000d5d565b6040516200025e91906200141b565b60405180910390f35b3480156200027457600080fd5b506200029360048036038101906200028d919062001469565b62000d63565b005b348015620002a257600080fd5b50620002c16004803603810190620002bb9190620014b0565b62000e26565b005b6000600460009054906101000a900473ffffffffffffffffffffffffffffffffffffffff1673ffffffffffffffffffffffffffffffffffffffff16631698ee8283600360009054906101000a900473ffffffffffffffffffffffffffffffffffffffff16610bb86040518463ffffffff1660e01b81526004016200034a939291906200155e565b602060405180830381865afa15801562000368573d6000803e3d6000fd5b505050506040513d601f19601f820116820180604052508101906200038e9190620015b2565b9050600073ffffffffffffffffffffffffffffffffffffffff168173ffffffffffffffffffffffffffffffffffffffff1603620004ed57600460009054906101000a900473ffffffffffffffffffffffffffffffffffffffff1673ffffffffffffffffffffffffffffffffffffffff1663a167129583600360009054906101000a900473ffffffffffffffffffffffffffffffffffffffff16610bb86040518463ffffffff1660e01b81526004016200044a939291906200155e565b6020604051808303816000875af11580156200046a573d6000803e3d6000fd5b505050506040513d601f19601f82011682018060405250810190620004909190620015b2565b90508073ffffffffffffffffffffffffffffffffffffffff168273ffffffffffffffffffffffffffffffffffffffff167f4f2ce4e40f623ca765fc0167a25cb7842ceaafb8d82d3dec26ca0d0e0d2d489660405160405180910390a35b919050565b6000808686868686604051620005089062001052565b6200051895949392919062001648565b604051809103906000f08015801562000535573d6000803e3d6000fd5b50905060008190506000819080600181540180825580915050600190039060005260206000200160009091909190916101000a81548173ffffffffffffffffffffffffffffffffffffffff021916908373ffffffffffffffffffffffffffffffffffffffff16021790555060016000815480929190620005b590620016c6565b91905055508073ffffffffffffffffffffffffffffffffffffffff167f91d24864a084ab70b268a1f865e757ca12006cf298d763b6be697302ef86498c60405160405180910390a2809250505095945050505050565b600360009054906101000a900473ffffffffffffffffffffffffffffffffffffffff1681565b600081815481106200064257600080fd5b906000526020600020016000915054906101000a900473ffffffffffffffffffffffffffffffffffffffff1681565b8373ffffffffffffffffffffffffffffffffffffffff168573ffffffffffffffffffffffffffffffffffffffff167f95ac6a9243eb257624256f38389a079659c62030e9153331cd38ef4ed8bfa00e60405160405180910390a3818573ffffffffffffffffffffffffffffffffffffffff166370a08231306040518263ffffffff1660e01b81526004016200070791906200111c565b602060405180830381865afa15801562000725573d6000803e3d6000fd5b505050506040513d601f19601f820116820180604052508101906200074b91906200172a565b10156200078f576040517f08c379a00000000000000000000000000000000000000000000000000000000081526004016200078690620017ac565b60405180910390fd5b80600360009054906101000a900473ffffffffffffffffffffffffffffffffffffffff1673ffffffffffffffffffffffffffffffffffffffff166370a08231306040518263ffffffff1660e01b8152600401620007ed91906200111c565b602060405180830381865afa1580156200080b573d6000803e3d6000fd5b505050506040513d601f19601f820116820180604052508101906200083191906200172a565b101562000875576040517f08c379a00000000000000000000000000000000000000000000000000000000081526004016200086c906200181e565b60405180910390fd5b620008a485600260009054906101000a900473ffffffffffffffffffffffffffffffffffffffff168462000ef0565b620008f5600360009054906101000a900473ffffffffffffffffffffffffffffffffffffffff16600260009054906101000a900473ffffffffffffffffffffffffffffffffffffffff168362000ef0565b8373ffffffffffffffffffffffffffffffffffffffff168573ffffffffffffffffffffffffffffffffffffffff167f36f3b2e1a21c19137dd82ec243b0708a1d26b3d1fa1dc49c44c4c366a587813884846040516200095692919062001840565b60405180910390a3600260009054906101000a900473ffffffffffffffffffffffffffffffffffffffff1673ffffffffffffffffffffffffffffffffffffffff1663883164566040518061016001604052808873ffffffffffffffffffffffffffffffffffffffff168152602001600360009054906101000a900473ffffffffffffffffffffffffffffffffffffffff1673ffffffffffffffffffffffffffffffffffffffff168152602001610bb862ffffff1681526020017ffffffffffffffffffffffffffffffffffffffffffffffffffffffffffff2764c60020b8152602001620d89b460020b815260200185815260200184815260200160008152602001600081526020018673ffffffffffffffffffffffffffffffffffffffff16815260200161012c4262000a8a91906200186d565b8152506040518263ffffffff1660e01b815260040162000aab9190620019f0565b6080604051808303816000875af192505050801562000aea57506040513d601f19601f8201168201806040525081019062000ae7919062001a5b565b60015b62000c7a5762000af962001ada565b806308c379a00362000bb1575062000b1062001b64565b8062000b1d575062000bb3565b600260009054906101000a900473ffffffffffffffffffffffffffffffffffffffff1673ffffffffffffffffffffffffffffffffffffffff168673ffffffffffffffffffffffffffffffffffffffff167fc81aebb20d4ec9089cfa8e56a148aed217ed952594ba4084e64a3e2736d9450685858560405162000ba29392919062001c77565b60405180910390a35062000c74565b505b3d806000811462000be1576040519150601f19603f3d011682016040523d82523d6000602084013e62000be6565b606091505b50600260009054906101000a900473ffffffffffffffffffffffffffffffffffffffff1673ffffffffffffffffffffffffffffffffffffffff168673ffffffffffffffffffffffffffffffffffffffff167fc81aebb20d4ec9089cfa8e56a148aed217ed952594ba4084e64a3e2736d94506858560405162000c6a92919062001d0b565b60405180910390a3505b62000d0a565b600260009054906101000a900473ffffffffffffffffffffffffffffffffffffffff1673ffffffffffffffffffffffffffffffffffffffff168973ffffffffffffffffffffffffffffffffffffffff167f36f3b2e1a21c19137dd82ec243b0708a1d26b3d1fa1dc49c44c4c366a5878138888860405162000cfd92919062001840565b60405180910390a3505050505b5050505050565b600260009054906101000a900473ffffffffffffffffffffffffffffffffffffffff1681565b600460009054906101000a900473ffffffffffffffffffffffffffffffffffffffff1681565b60015481565b8173ffffffffffffffffffffffffffffffffffffffff1663f637731d826040518263ffffffff1660e01b815260040162000d9e919062001d5e565b600060405180830381600087803b15801562000db957600080fd5b505af115801562000dce573d6000803e3d6000fd5b505050508173ffffffffffffffffffffffffffffffffffffffff167f30440fb2e4ce813a3feb1a945fc1c8190ba344a38f64cb33348155d72ab138b28260405162000e1a919062001d5e565b60405180910390a25050565b8273ffffffffffffffffffffffffffffffffffffffff1663095ea7b383836040518363ffffffff1660e01b815260040162000e6392919062001d7b565b6020604051808303816000875af115801562000e83573d6000803e3d6000fd5b505050506040513d601f19601f8201168201806040525081019062000ea9919062001de5565b62000eeb576040517f08c379a000000000000000000000000000000000000000000000000000000000815260040162000ee29062001e67565b60405180910390fd5b505050565b6000808473ffffffffffffffffffffffffffffffffffffffff1663095ea7b360e01b858560405160240162000f2792919062001d7b565b604051602081830303815290604052907bffffffffffffffffffffffffffffffffffffffffffffffffffffffff19166020820180517bffffffffffffffffffffffffffffffffffffffffffffffffffffffff838183161783525050505060405162000f93919062001ed6565b6000604051808303816000865af19150503d806000811462000fd2576040519150601f19603f3d011682016040523d82523d6000602084013e62000fd7565b606091505b50915091508180156200100957506000815114806200100857508080602001905181019062001007919062001de5565b5b5b6200104b576040517f08c379a0000000000000000000000000000000000000000000000000000000008152600401620010429062001f3f565b60405180910390fd5b5050505050565b6118c38062001f6283390190565b6000604051905090565b600080fd5b600080fd5b600073ffffffffffffffffffffffffffffffffffffffff82169050919050565b6000620010a18262001074565b9050919050565b620010b38162001094565b8114620010bf57600080fd5b50565b600081359050620010d381620010a8565b92915050565b600060208284031215620010f257620010f16200106a565b5b60006200110284828501620010c2565b91505092915050565b620011168162001094565b82525050565b60006020820190506200113360008301846200110b565b92915050565b600080fd5b600080fd5b600080fd5b60008083601f84011262001161576200116062001139565b5b8235905067ffffffffffffffff8111156200118157620011806200113e565b5b602083019150836001820283011115620011a0576200119f62001143565b5b9250929050565b6000819050919050565b620011bc81620011a7565b8114620011c857600080fd5b50565b600081359050620011dc81620011b1565b92915050565b6000806000806000606086880312156200120157620012006200106a565b5b600086013567ffffffffffffffff8111156200122257620012216200106f565b5b620012308882890162001148565b9550955050602086013567ffffffffffffffff8111156200125657620012556200106f565b5b620012648882890162001148565b935093505060406200127988828901620011cb565b9150509295509295909350565b6000602082840312156200129f576200129e6200106a565b5b6000620012af84828501620011cb565b91505092915050565b600080600080600060a08688031215620012d757620012d66200106a565b5b6000620012e788828901620010c2565b9550506020620012fa88828901620010c2565b94505060406200130d88828901620010c2565b93505060606200132088828901620011cb565b92505060806200133388828901620011cb565b9150509295509295909350565b6000819050919050565b60006200136b620013656200135f8462001074565b62001340565b62001074565b9050919050565b60006200137f826200134a565b9050919050565b6000620013938262001372565b9050919050565b620013a58162001386565b82525050565b6000602082019050620013c260008301846200139a565b92915050565b6000620013d58262001372565b9050919050565b620013e781620013c8565b82525050565b6000602082019050620014046000830184620013dc565b92915050565b6200141581620011a7565b82525050565b60006020820190506200143260008301846200140a565b92915050565b620014438162001074565b81146200144f57600080fd5b50565b600081359050620014638162001438565b92915050565b600080604083850312156200148357620014826200106a565b5b60006200149385828601620010c2565b9250506020620014a68582860162001452565b9150509250929050565b600080600060608486031215620014cc57620014cb6200106a565b5b6000620014dc86828701620010c2565b9350506020620014ef86828701620010c2565b92505060406200150286828701620011cb565b9150509250925092565b6000819050919050565b600062ffffff82169050919050565b600062001546620015406200153a846200150c565b62001340565b62001516565b9050919050565b620015588162001525565b82525050565b60006060820190506200157560008301866200110b565b6200158460208301856200110b565b6200159360408301846200154d565b949350505050565b600081519050620015ac81620010a8565b92915050565b600060208284031215620015cb57620015ca6200106a565b5b6000620015db848285016200159b565b91505092915050565b600082825260208201905092915050565b82818337600083830152505050565b6000601f19601f8301169050919050565b6000620016238385620015e4565b935062001632838584620015f5565b6200163d8362001604565b840190509392505050565b600060608201905081810360008301526200166581878962001615565b905081810360208301526200167c81858762001615565b90506200168d60408301846200140a565b9695505050505050565b7f4e487b7100000000000000000000000000000000000000000000000000000000600052601160045260246000fd5b6000620016d382620011a7565b91507fffffffffffffffffffffffffffffffffffffffffffffffffffffffffffffffff820362001708576200170762001697565b5b600182019050919050565b6000815190506200172481620011b1565b92915050565b6000602082840312156200174357620017426200106a565b5b6000620017538482850162001713565b91505092915050565b7f4e6f7420656e6f75676820746f6b656e2062616c616e63650000000000000000600082015250565b600062001794601883620015e4565b9150620017a1826200175c565b602082019050919050565b60006020820190508181036000830152620017c78162001785565b9050919050565b7f4e6f7420656e6f75676820574554482062616c616e6365000000000000000000600082015250565b600062001806601783620015e4565b91506200181382620017ce565b602082019050919050565b600060208201905081810360008301526200183981620017f7565b9050919050565b60006040820190506200185760008301856200140a565b6200186660208301846200140a565b9392505050565b60006200187a82620011a7565b91506200188783620011a7565b9250828201905080821115620018a257620018a162001697565b5b92915050565b620018b38162001094565b82525050565b620018c48162001516565b82525050565b60008160020b9050919050565b620018e281620018ca565b82525050565b620018f381620011a7565b82525050565b61016082016000820151620019126000850182620018a8565b506020820151620019276020850182620018a8565b5060408201516200193c6040850182620018b9565b506060820151620019516060850182620018d7565b506080820151620019666080850182620018d7565b5060a08201516200197b60a0850182620018e8565b5060c08201516200199060c0850182620018e8565b5060e0820151620019a560e0850182620018e8565b50610100820151620019bc610100850182620018e8565b50610120820151620019d3610120850182620018a8565b50610140820151620019ea610140850182620018e8565b50505050565b60006101608201905062001a086000830184620018f9565b92915050565b60006fffffffffffffffffffffffffffffffff82169050919050565b62001a358162001a0e565b811462001a4157600080fd5b50565b60008151905062001a558162001a2a565b92915050565b6000806000806080858703121562001a785762001a776200106a565b5b600062001a888782880162001713565b945050602062001a9b8782880162001a44565b935050604062001aae8782880162001713565b925050606062001ac18782880162001713565b91505092959194509250565b60008160e01c9050919050565b600060033d111562001afc5760046000803e62001af960005162001acd565b90505b90565b7f4e487b7100000000000000000000000000000000000000000000000000000000600052604160045260246000fd5b62001b398262001604565b810181811067ffffffffffffffff8211171562001b5b5762001b5a62001aff565b5b80604052505050565b600060443d1062001bfc5762001b7962001060565b60043d036004823e80513d602482011167ffffffffffffffff8211171562001ba357505062001bfc565b808201805167ffffffffffffffff81111562001bc3575050505062001bfc565b80602083010160043d03850181111562001be257505050505062001bfc565b62001bf38260200185018662001b2e565b82955050505050505b90565b600081519050919050565b60005b8381101562001c2a57808201518184015260208101905062001c0d565b60008484015250505050565b600062001c438262001bff565b62001c4f8185620015e4565b935062001c6181856020860162001c0a565b62001c6c8162001604565b840191505092915050565b600060608201905062001c8e60008301866200140a565b62001c9d60208301856200140a565b818103604083015262001cb1818462001c36565b9050949350505050565b7f4c6f772d6c6576656c206572726f720000000000000000000000000000000000600082015250565b600062001cf3600f83620015e4565b915062001d008262001cbb565b602082019050919050565b600060608201905062001d2260008301856200140a565b62001d3160208301846200140a565b818103604083015262001d448162001ce4565b90509392505050565b62001d588162001074565b82525050565b600060208201905062001d75600083018462001d4d565b92915050565b600060408201905062001d9260008301856200110b565b62001da160208301846200140a565b9392505050565b60008115159050919050565b62001dbf8162001da8565b811462001dcb57600080fd5b50565b60008151905062001ddf8162001db4565b92915050565b60006020828403121562001dfe5762001dfd6200106a565b5b600062001e0e8482850162001dce565b91505092915050565b7f417070726f76616c206661696c65640000000000000000000000000000000000600082015250565b600062001e4f600f83620015e4565b915062001e5c8262001e17565b602082019050919050565b6000602082019050818103600083015262001e828162001e40565b9050919050565b600081519050919050565b600081905092915050565b600062001eac8262001e89565b62001eb8818562001e94565b935062001eca81856020860162001c0a565b80840191505092915050565b600062001ee4828462001e9f565b915081905092915050565b7f5341000000000000000000000000000000000000000000000000000000000000600082015250565b600062001f27600283620015e4565b915062001f348262001eef565b602082019050919050565b6000602082019050818103600083015262001f5a8162001f18565b905091905056fe60806040523480156200001157600080fd5b50604051620018c3380380620018c383398181016040528101906200003791906200051a565b828281600390816200004a9190620007f5565b5080600490816200005c9190620007f5565b5050506200008633670de0b6b3a7640000836200007a91906200090b565b6200008f60201b60201c565b50505062000a5e565b600073ffffffffffffffffffffffffffffffffffffffff168273ffffffffffffffffffffffffffffffffffffffff1603620001045760006040517fec442f05000000000000000000000000000000000000000000000000000000008152600401620000fb91906200099b565b60405180910390fd5b62000118600083836200011c60201b60201c565b5050565b600073ffffffffffffffffffffffffffffffffffffffff168373ffffffffffffffffffffffffffffffffffffffff160362000172578060026000828254620001659190620009b8565b9250508190555062000248565b60008060008573ffffffffffffffffffffffffffffffffffffffff1673ffffffffffffffffffffffffffffffffffffffff1681526020019081526020016000205490508181101562000201578381836040517fe450d38c000000000000000000000000000000000000000000000000000000008152600401620001f89392919062000a04565b60405180910390fd5b8181036000808673ffffffffffffffffffffffffffffffffffffffff1673ffffffffffffffffffffffffffffffffffffffff16815260200190815260200160002081905550505b600073ffffffffffffffffffffffffffffffffffffffff168273ffffffffffffffffffffffffffffffffffffffff1603620002935780600260008282540392505081905550620002e0565b806000808473ffffffffffffffffffffffffffffffffffffffff1673ffffffffffffffffffffffffffffffffffffffff168152602001908152602001600020600082825401925050819055505b8173ffffffffffffffffffffffffffffffffffffffff168373ffffffffffffffffffffffffffffffffffffffff167fddf252ad1be2c89b69c2b068fc378daa952ba7f163c4a11628f55a4df523b3ef836040516200033f919062000a41565b60405180910390a3505050565b6000604051905090565b600080fd5b600080fd5b600080fd5b600080fd5b6000601f19601f8301169050919050565b7f4e487b7100000000000000000000000000000000000000000000000000000000600052604160045260246000fd5b620003b5826200036a565b810181811067ffffffffffffffff82111715620003d757620003d66200037b565b5b80604052505050565b6000620003ec6200034c565b9050620003fa8282620003aa565b919050565b600067ffffffffffffffff8211156200041d576200041c6200037b565b5b62000428826200036a565b9050602081019050919050565b60005b838110156200045557808201518184015260208101905062000438565b60008484015250505050565b6000620004786200047284620003ff565b620003e0565b90508281526020810184848401111562000497576200049662000365565b5b620004a484828562000435565b509392505050565b600082601f830112620004c457620004c362000360565b5b8151620004d684826020860162000461565b91505092915050565b6000819050919050565b620004f481620004df565b81146200050057600080fd5b50565b6000815190506200051481620004e9565b92915050565b60008060006060848603121562000536576200053562000356565b5b600084015167ffffffffffffffff8111156200055757620005566200035b565b5b6200056586828701620004ac565b935050602084015167ffffffffffffffff8111156200058957620005886200035b565b5b6200059786828701620004ac565b9250506040620005aa8682870162000503565b9150509250925092565b600081519050919050565b7f4e487b7100000000000000000000000000000000000000000000000000000000600052602260045260246000fd5b600060028204905060018216806200060757607f821691505b6020821081036200061d576200061c620005bf565b5b50919050565b60008190508160005260206000209050919050565b60006020601f8301049050919050565b600082821b905092915050565b600060088302620006877fffffffffffffffffffffffffffffffffffffffffffffffffffffffffffffffff8262000648565b62000693868362000648565b95508019841693508086168417925050509392505050565b6000819050919050565b6000620006d6620006d0620006ca84620004df565b620006ab565b620004df565b9050919050565b6000819050919050565b620006f283620006b5565b6200070a6200070182620006dd565b84845462000655565b825550505050565b600090565b6200072162000712565b6200072e818484620006e7565b505050565b5b8181101562000756576200074a60008262000717565b60018101905062000734565b5050565b601f821115620007a5576200076f8162000623565b6200077a8462000638565b810160208510156200078a578190505b620007a2620007998562000638565b83018262000733565b50505b505050565b600082821c905092915050565b6000620007ca60001984600802620007aa565b1980831691505092915050565b6000620007e58383620007b7565b9150826002028217905092915050565b6200080082620005b4565b67ffffffffffffffff8111156200081c576200081b6200037b565b5b620008288254620005ee565b620008358282856200075a565b600060209050601f8311600181146200086d576000841562000858578287015190505b620008648582620007d7565b865550620008d4565b601f1984166200087d8662000623565b60005b82811015620008a75784890151825560018201915060208501945060208101905062000880565b86831015620008c75784890151620008c3601f891682620007b7565b8355505b6001600288020188555050505b505050505050565b7f4e487b7100000000000000000000000000000000000000000000000000000000600052601160045260246000fd5b60006200091882620004df565b91506200092583620004df565b92508282026200093581620004df565b915082820484148315176200094f576200094e620008dc565b5b5092915050565b600073ffffffffffffffffffffffffffffffffffffffff82169050919050565b6000620009838262000956565b9050919050565b620009958162000976565b82525050565b6000602082019050620009b260008301846200098a565b92915050565b6000620009c582620004df565b9150620009d283620004df565b9250828201905080821115620009ed57620009ec620008dc565b5b92915050565b620009fe81620004df565b82525050565b600060608201905062000a1b60008301866200098a565b62000a2a6020830185620009f3565b62000a396040830184620009f3565b949350505050565b600060208201905062000a586000830184620009f3565b92915050565b610e558062000a6e6000396000f3fe608060405234801561001057600080fd5b50600436106100935760003560e01c8063313ce56711610066578063313ce5671461013457806370a082311461015257806395d89b4114610182578063a9059cbb146101a0578063dd62ed3e146101d057610093565b806306fdde0314610098578063095ea7b3146100b657806318160ddd146100e657806323b872dd14610104575b600080fd5b6100a0610200565b6040516100ad9190610aa9565b60405180910390f35b6100d060048036038101906100cb9190610b64565b610292565b6040516100dd9190610bbf565b60405180910390f35b6100ee6102b5565b6040516100fb9190610be9565b60405180910390f35b61011e60048036038101906101199190610c04565b6102bf565b60405161012b9190610bbf565b60405180910390f35b61013c6102ee565b6040516101499190610c73565b60405180910390f35b61016c60048036038101906101679190610c8e565b6102f7565b6040516101799190610be9565b60405180910390f35b61018a61033f565b6040516101979190610aa9565b60405180910390f35b6101ba60048036038101906101b59190610b64565b6103d1565b6040516101c79190610bbf565b60405180910390f35b6101ea60048036038101906101e59190610cbb565b6103f4565b6040516101f79190610be9565b60405180910390f35b60606003805461020f90610d2a565b80601f016020809104026020016040519081016040528092919081815260200182805461023b90610d2a565b80156102885780601f1061025d57610100808354040283529160200191610288565b820191906000526020600020905b81548152906001019060200180831161026b57829003601f168201915b5050505050905090565b60008061029d61047b565b90506102aa818585610483565b600191505092915050565b6000600254905090565b6000806102ca61047b565b90506102d7858285610495565b6102e2858585610529565b60019150509392505050565b60006012905090565b60008060008373ffffffffffffffffffffffffffffffffffffffff1673ffffffffffffffffffffffffffffffffffffffff168152602001908152602001600020549050919050565b60606004805461034e90610d2a565b80601f016020809104026020016040519081016040528092919081815260200182805461037a90610d2a565b80156103c75780601f1061039c576101008083540402835291602001916103c7565b820191906000526020600020905b8154815290600101906020018083116103aa57829003601f168201915b5050505050905090565b6000806103dc61047b565b90506103e9818585610529565b600191505092915050565b6000600160008473ffffffffffffffffffffffffffffffffffffffff1673ffffffffffffffffffffffffffffffffffffffff16815260200190815260200160002060008373ffffffffffffffffffffffffffffffffffffffff1673ffffffffffffffffffffffffffffffffffffffff16815260200190815260200160002054905092915050565b600033905090565b610490838383600161061d565b505050565b60006104a184846103f4565b90507fffffffffffffffffffffffffffffffffffffffffffffffffffffffffffffffff81146105235781811015610513578281836040517ffb8f41b200000000000000000000000000000000000000000000000000000000815260040161050a93929190610d6a565b60405180910390fd5b6105228484848403600061061d565b5b50505050565b600073ffffffffffffffffffffffffffffffffffffffff168373ffffffffffffffffffffffffffffffffffffffff160361059b5760006040517f96c6fd1e0000000000000000000000000000000000000000000000000000000081526004016105929190610da1565b60405180910390fd5b600073ffffffffffffffffffffffffffffffffffffffff168273ffffffffffffffffffffffffffffffffffffffff160361060d5760006040517fec442f050000000000000000000000000000000000000000000000000000000081526004016106049190610da1565b60405180910390fd5b6106188383836107f4565b505050565b600073ffffffffffffffffffffffffffffffffffffffff168473ffffffffffffffffffffffffffffffffffffffff160361068f5760006040517fe602df050000000000000000000000000000000000000000000000000000000081526004016106869190610da1565b60405180910390fd5b600073ffffffffffffffffffffffffffffffffffffffff168373ffffffffffffffffffffffffffffffffffffffff16036107015760006040517f94280d620000000000000000000000000000000000000000000000000000000081526004016106f89190610da1565b60405180910390fd5b81600160008673ffffffffffffffffffffffffffffffffffffffff1673ffffffffffffffffffffffffffffffffffffffff16815260200190815260200160002060008573ffffffffffffffffffffffffffffffffffffffff1673ffffffffffffffffffffffffffffffffffffffff1681526020019081526020016000208190555080156107ee578273ffffffffffffffffffffffffffffffffffffffff168473ffffffffffffffffffffffffffffffffffffffff167f8c5be1e5ebec7d5bd14f71427d1e84f3dd0314c0f7b2291e5b200ac8c7c3b925846040516107e59190610be9565b60405180910390a35b50505050565b600073ffffffffffffffffffffffffffffffffffffffff168373ffffffffffffffffffffffffffffffffffffffff160361084657806002600082825461083a9190610deb565b92505081905550610919565b60008060008573ffffffffffffffffffffffffffffffffffffffff1673ffffffffffffffffffffffffffffffffffffffff168152602001908152602001600020549050818110156108d2578381836040517fe450d38c0000000000000000000000000000000000000000000000000000000081526004016108c993929190610d6a565b60405180910390fd5b8181036000808673ffffffffffffffffffffffffffffffffffffffff1673ffffffffffffffffffffffffffffffffffffffff16815260200190815260200160002081905550505b600073ffffffffffffffffffffffffffffffffffffffff168273ffffffffffffffffffffffffffffffffffffffff160361096257806002600082825403925050819055506109af565b806000808473ffffffffffffffffffffffffffffffffffffffff1673ffffffffffffffffffffffffffffffffffffffff168152602001908152602001600020600082825401925050819055505b8173ffffffffffffffffffffffffffffffffffffffff168373ffffffffffffffffffffffffffffffffffffffff167fddf252ad1be2c89b69c2b068fc378daa952ba7f163c4a11628f55a4df523b3ef83604051610a0c9190610be9565b60405180910390a3505050565b600081519050919050565b600082825260208201905092915050565b60005b83811015610a53578082015181840152602081019050610a38565b60008484015250505050565b6000601f19601f8301169050919050565b6000610a7b82610a19565b610a858185610a24565b9350610a95818560208601610a35565b610a9e81610a5f565b840191505092915050565b60006020820190508181036000830152610ac38184610a70565b905092915050565b600080fd5b600073ffffffffffffffffffffffffffffffffffffffff82169050919050565b6000610afb82610ad0565b9050919050565b610b0b81610af0565b8114610b1657600080fd5b50565b600081359050610b2881610b02565b92915050565b6000819050919050565b610b4181610b2e565b8114610b4c57600080fd5b50565b600081359050610b5e81610b38565b92915050565b60008060408385031215610b7b57610b7a610acb565b5b6000610b8985828601610b19565b9250506020610b9a85828601610b4f565b9150509250929050565b60008115159050919050565b610bb981610ba4565b82525050565b6000602082019050610bd46000830184610bb0565b92915050565b610be381610b2e565b82525050565b6000602082019050610bfe6000830184610bda565b92915050565b600080600060608486031215610c1d57610c1c610acb565b5b6000610c2b86828701610b19565b9350506020610c3c86828701610b19565b9250506040610c4d86828701610b4f565b9150509250925092565b600060ff82169050919050565b610c6d81610c57565b82525050565b6000602082019050610c886000830184610c64565b92915050565b600060208284031215610ca457610ca3610acb565b5b6000610cb284828501610b19565b91505092915050565b60008060408385031215610cd257610cd1610acb565b5b6000610ce085828601610b19565b9250506020610cf185828601610b19565b9150509250929050565b7f4e487b7100000000000000000000000000000000000000000000000000000000600052602260045260246000fd5b60006002820490506001821680610d4257607f821691505b602082108103610d5557610d54610cfb565b5b50919050565b610d6481610af0565b82525050565b6000606082019050610d7f6000830186610d5b565b610d8c6020830185610bda565b610d996040830184610bda565b949350505050565b6000602082019050610db66000830184610d5b565b92915050565b7f4e487b7100000000000000000000000000000000000000000000000000000000600052601160045260246000fd5b6000610df682610b2e565b9150610e0183610b2e565b9250828201905080821115610e1957610e18610dbc565b5b9291505056fea2646970667358221220f1edca9504f86674f9d64d76cf2ed4e1697456e083cb636bdb29dddbd445c61a64736f6c63430008180033a26469706673582212203544b1ee1f6acf660e205e5bc431e628e885484f1bddee0d5d52444e5c1f9bdc64736f6c63430008180033",
  "linkReferences": {},
  "deployedLinkReferences": {}
}