{
  "_format": "hh-sol-artifact-1",
  "contractName": "MyFactory",
  "sourceName": "contracts/TestFactory.sol",
  "abi": [
    {
      "inputs": [
        {
          "internalType": "address",
          "name": "_positionManager",
          "type": "address"
        },
        {
          "internalType": "address",
          "name": "_weth",
          "type": "address"
        },
        {
          "internalType": "address",
          "name": "_uniswapFactory",
          "type": "address"
        },
        {
          "internalType": "address",
          "name": "_swapRouter",
          "type": "address"
        }
      ],
      "stateMutability": "nonpayable",
      "type": "constructor"
    },
    {
      "anonymous": false,
      "inputs": [
        {
          "indexed": true,
          "internalType": "address",
          "name": "token",
          "type": "address"
        },
        {
          "indexed": false,
          "internalType": "uint256",
          "name": "amount0",
          "type": "uint256"
        },
        {
          "indexed": false,
          "internalType": "uint256",
          "name": "amount1",
          "type": "uint256"
        }
      ],
      "name": "FeesCollected",
      "type": "event"
    },
    {
      "anonymous": false,
      "inputs": [
        {
          "indexed": true,
          "internalType": "address",
          "name": "token",
          "type": "address"
        },
        {
          "indexed": true,
          "internalType": "address",
          "name": "pool",
          "type": "address"
        },
        {
          "indexed": false,
          "internalType": "uint256",
          "name": "tokenAmount",
          "type": "uint256"
        },
        {
          "indexed": false,
          "internalType": "uint256",
          "name": "wethAmount",
          "type": "uint256"
        }
      ],
      "name": "LiquidityAdded",
      "type": "event"
    },
    {
      "anonymous": false,
      "inputs": [
        {
          "indexed": true,
          "internalType": "address",
          "name": "token",
          "type": "address"
        },
        {
          "indexed": true,
          "internalType": "address",
          "name": "pool",
          "type": "address"
        },
        {
          "indexed": false,
          "internalType": "uint256",
          "name": "tokenAmount",
          "type": "uint256"
        },
        {
          "indexed": false,
          "internalType": "uint256",
          "name": "wethAmount",
          "type": "uint256"
        },
        {
          "indexed": false,
          "internalType": "string",
          "name": "error",
          "type": "string"
        }
      ],
      "name": "LiquidityAdditionFailed",
      "type": "event"
    },
    {
      "anonymous": false,
      "inputs": [
        {
          "indexed": true,
          "internalType": "address",
          "name": "token",
          "type": "address"
        },
        {
          "indexed": false,
          "internalType": "uint256",
          "name": "tokenId",
          "type": "uint256"
        },
        {
          "indexed": false,
          "internalType": "uint256",
          "name": "amount0",
          "type": "uint256"
        },
        {
          "indexed": false,
          "internalType": "uint256",
          "name": "amount1",
          "type": "uint256"
        }
      ],
      "name": "LiquidityRemoved",
      "type": "event"
    },
    {
      "anonymous": false,
      "inputs": [
        {
          "indexed": true,
          "internalType": "address",
          "name": "token0",
          "type": "address"
        },
        {
          "indexed": true,
          "internalType": "address",
          "name": "poolAddress",
          "type": "address"
        }
      ],
      "name": "PoolCreated",
      "type": "event"
    },
    {
      "anonymous": false,
      "inputs": [
        {
          "indexed": true,
          "internalType": "address",
          "name": "poolAddress",
          "type": "address"
        },
        {
          "indexed": false,
          "internalType": "uint160",
          "name": "sqrtPriceX96",
          "type": "uint160"
        }
      ],
      "name": "PoolInitialized",
      "type": "event"
    },
    {
      "anonymous": false,
      "inputs": [
        {
          "indexed": true,
          "internalType": "address",
          "name": "token",
          "type": "address"
        },
        {
          "indexed": false,
          "internalType": "uint256",
          "name": "amountIn",
          "type": "uint256"
        },
        {
          "indexed": false,
          "internalType": "uint256",
          "name": "amountOut",
          "type": "uint256"
        }
      ],
      "name": "SwappedToWETH",
      "type": "event"
    },
    {
      "anonymous": false,
      "inputs": [
        {
          "indexed": true,
          "internalType": "address",
          "name": "tokenAddress",
          "type": "address"
        },
        {
          "indexed": true,
          "internalType": "address",
          "name": "poolAddress",
          "type": "address"
        }
      ],
      "name": "TokenApproved",
      "type": "event"
    },
    {
      "anonymous": false,
      "inputs": [
        {
          "indexed": true,
          "internalType": "address",
          "name": "tokenAddress",
          "type": "address"
        }
      ],
      "name": "TokenDeployed",
      "type": "event"
    },
    {
      "stateMutability": "payable",
      "type": "fallback"
    },
    {
      "inputs": [
        {
          "internalType": "address",
          "name": "_token0",
          "type": "address"
        },
        {
          "internalType": "address",
          "name": "_token1",
          "type": "address"
        },
        {
          "internalType": "address",
          "name": "factory_addy",
          "type": "address"
        },
        {
          "internalType": "uint256",
          "name": "_token0Amount",
          "type": "uint256"
        },
        {
          "internalType": "uint256",
          "name": "_token1Amount",
          "type": "uint256"
        }
      ],
      "name": "addInitialLiquidity",
      "outputs": [],
      "stateMutability": "nonpayable",
      "type": "function"
    },
    {
      "inputs": [
        {
          "internalType": "address",
          "name": "token",
          "type": "address"
        },
        {
          "internalType": "address",
          "name": "spender",
          "type": "address"
        },
        {
          "internalType": "uint256",
          "name": "amount",
          "type": "uint256"
        }
      ],
      "name": "approveToken",
      "outputs": [],
      "stateMutability": "nonpayable",
      "type": "function"
    },
    {
      "inputs": [
        {
          "internalType": "uint256",
          "name": "tokenId",
          "type": "uint256"
        }
      ],
      "name": "collectFeesAndSwap",
      "outputs": [],
      "stateMutability": "nonpayable",
      "type": "function"
    },
    {
      "inputs": [
        {
          "internalType": "address",
          "name": "_token0",
          "type": "address"
        },
        {
          "internalType": "address",
          "name": "_token1",
          "type": "address"
        }
      ],
      "name": "createPoolForToken",
      "outputs": [
        {
          "internalType": "address",
          "name": "poolAddress",
          "type": "address"
        }
      ],
      "stateMutability": "nonpayable",
      "type": "function"
    },
    {
      "inputs": [
        {
          "internalType": "string",
          "name": "_name",
          "type": "string"
        },
        {
          "internalType": "string",
          "name": "_symbol",
          "type": "string"
        },
        {
          "internalType": "uint256",
          "name": "_supply",
          "type": "uint256"
        }
      ],
      "name": "deployToken",
      "outputs": [
        {
          "internalType": "address",
          "name": "",
          "type": "address"
        }
      ],
      "stateMutability": "nonpayable",
      "type": "function"
    },
    {
      "inputs": [
        {
          "internalType": "uint256",
          "name": "tokenId",
          "type": "uint256"
        }
      ],
      "name": "getPosition",
      "outputs": [
        {
          "internalType": "uint96",
          "name": "nonce",
          "type": "uint96"
        },
        {
          "internalType": "address",
          "name": "operator",
          "type": "address"
        },
        {
          "internalType": "address",
          "name": "token0",
          "type": "address"
        },
        {
          "internalType": "address",
          "name": "token1",
          "type": "address"
        },
        {
          "internalType": "uint24",
          "name": "fee",
          "type": "uint24"
        },
        {
          "internalType": "int24",
          "name": "tickLower",
          "type": "int24"
        },
        {
          "internalType": "int24",
          "name": "tickUpper",
          "type": "int24"
        },
        {
          "internalType": "uint128",
          "name": "liquidity",
          "type": "uint128"
        },
        {
          "internalType": "uint256",
          "name": "feeGrowthInside0LastX128",
          "type": "uint256"
        },
        {
          "internalType": "uint256",
          "name": "feeGrowthInside1LastX128",
          "type": "uint256"
        },
        {
          "internalType": "uint128",
          "name": "tokensOwed0",
          "type": "uint128"
        },
        {
          "internalType": "uint128",
          "name": "tokensOwed1",
          "type": "uint128"
        }
      ],
      "stateMutability": "view",
      "type": "function"
    },
    {
      "inputs": [
        {
          "internalType": "address",
          "name": "tokenA",
          "type": "address"
        },
        {
          "internalType": "address",
          "name": "tokenB",
          "type": "address"
        },
        {
          "internalType": "uint24",
          "name": "fee",
          "type": "uint24"
        }
      ],
      "name": "get_Pool",
      "outputs": [
        {
          "internalType": "address",
          "name": "pool",
          "type": "address"
        }
      ],
      "stateMutability": "view",
      "type": "function"
    },
    {
      "inputs": [
        {
          "internalType": "address",
          "name": "poolAddress",
          "type": "address"
        },
        {
          "internalType": "uint160",
          "name": "sqrtPriceX96",
          "type": "uint160"
        }
      ],
      "name": "initializePool",
      "outputs": [],
      "stateMutability": "nonpayable",
      "type": "function"
    },
    {
      "inputs": [
        {
          "internalType": "uint256",
          "name": "amountNeeded",
          "type": "uint256"
        }
      ],
      "name": "notifyFundsNeeded",
      "outputs": [],
      "stateMutability": "nonpayable",
      "type": "function"
    },
    {
      "inputs": [],
      "name": "owner",
      "outputs": [
        {
          "internalType": "address",
          "name": "",
          "type": "address"
        }
      ],
      "stateMutability": "view",
      "type": "function"
    },
    {
      "inputs": [],
      "name": "positionManager",
      "outputs": [
        {
          "internalType": "contract INonfungiblePositionManager",
          "name": "",
          "type": "address"
        }
      ],
      "stateMutability": "view",
      "type": "function"
    },
    {
      "inputs": [
        {
          "internalType": "uint256",
          "name": "tokenId",
          "type": "uint256"
        },
        {
          "internalType": "uint128",
          "name": "liquidityToRemove",
          "type": "uint128"
        }
      ],
      "name": "removeLiquidity",
      "outputs": [],
      "stateMutability": "nonpayable",
      "type": "function"
    },
    {
      "inputs": [
        {
          "internalType": "address",
          "name": "_stakingPoolAddress",
          "type": "address"
        }
      ],
      "name": "setStakingPoolAddress",
      "outputs": [],
      "stateMutability": "nonpayable",
      "type": "function"
    },
    {
      "inputs": [],
      "name": "stakingPoolAddress",
      "outputs": [
        {
          "internalType": "address",
          "name": "",
          "type": "address"
        }
      ],
      "stateMutability": "view",
      "type": "function"
    },
    {
      "inputs": [
        {
          "internalType": "address",
          "name": "tokenOut",
          "type": "address"
        },
        {
          "internalType": "uint256",
          "name": "amount_In",
          "type": "uint256"
        }
      ],
      "name": "swapETHForToken",
      "outputs": [
        {
          "internalType": "uint256",
          "name": "amountOut",
          "type": "uint256"
        }
      ],
      "stateMutability": "payable",
      "type": "function"
    },
    {
      "inputs": [],
      "name": "swapRouter",
      "outputs": [
        {
          "internalType": "contract ISwapRouter",
          "name": "",
          "type": "address"
        }
      ],
      "stateMutability": "view",
      "type": "function"
    },
    {
      "inputs": [],
      "name": "tokenCount",
      "outputs": [
        {
          "internalType": "uint256",
          "name": "",
          "type": "uint256"
        }
      ],
      "stateMutability": "view",
      "type": "function"
    },
    {
      "inputs": [
        {
          "internalType": "uint256",
          "name": "",
          "type": "uint256"
        }
      ],
      "name": "tokens",
      "outputs": [
        {
          "internalType": "address",
          "name": "",
          "type": "address"
        }
      ],
      "stateMutability": "view",
      "type": "function"
    },
    {
      "inputs": [],
      "name": "uniswapFactory",
      "outputs": [
        {
          "internalType": "contract IUniswapV3Factory",
          "name": "",
          "type": "address"
        }
      ],
      "stateMutability": "view",
      "type": "function"
    },
    {
      "inputs": [],
      "name": "weth",
      "outputs": [
        {
          "internalType": "address",
          "name": "",
          "type": "address"
        }
      ],
      "stateMutability": "view",
      "type": "function"
    },
    {
      "inputs": [],
      "name": "wethAddress",
      "outputs": [
        {
          "internalType": "address",
          "name": "",
          "type": "address"
        }
      ],
      "stateMutability": "view",
      "type": "function"
    },
    {
      "stateMutability": "payable",
      "type": "receive"
    }
  ],
  "bytecode": "0x608034620000d057601f6200263838819003918201601f19168301916001600160401b03831184841017620000d557808492608094604052833981010312620000d0576200004d81620000eb565b906200005c60208201620000eb565b6200007860606200007060408501620000eb565b9301620000eb565b9060018060a01b03928380928160018060a01b03199716876002541617600255168560035416176003551683600454161760045516816005541617600555339060085416176008556040516125379081620001018239f35b600080fd5b634e487b7160e01b600052604160045260246000fd5b51906001600160a01b0382168203620000d05756fe60808060405260043610156200001c575b5036156200001a57005b005b600090813560e01c908163203d81c114620015da5750806325b15a0c14620015b15780633a93babb14620014485780633fc8cef3146200141f5780634f0e0ef314620013f65780634f64b2be14620013af57806353ebea77146200120c57806354c51e8914620010e35780635bc30eb01462000cd15780636e9551d71462000bf6578063791b98bc1462000bcd5780638bdb2afa1462000ba45780638c3a65a214620009bc5780638da5cb5b1462000993578063911757ba14620007535780639f181b5e1462000733578063c31c9c07146200070a578063d196e9c61462000514578063d21b6ed41462000445578063da3e3397146200033f5763eb02c301036200001057346200032157602036600319011262000321576001600160a01b03600254169060405180927f99fbab8800000000000000000000000000000000000000000000000000000000825260043560048301528160246101809586935afa801562000334578280928180818290839284968599868098819b6200022d575b50506040519b6bffffffffffffffffffffffff168c526001600160a01b031660208c01526001600160a01b031660408b01526001600160a01b031660608a015262ffffff16608089015260020b60a088015260020b60c08701526fffffffffffffffffffffffffffffffff948580941660e08801526101008701526101208601521661014084015216610160820152f35b9b509b50505050505050505050508281813d83116200032c575b6200025381836200177b565b81010312620003285780516bffffffffffffffffffffffff81168103620003245762000282602083016200179e565b9262000291604084016200179e565b91620002a0606085016200179e565b9360808101519262ffffff84168403620003215750620002c360a08201620018be565b620002d160c08301620018be565b620002df60e08401620017ca565b9161010084015195610120850151986200030c610160620003046101408901620017ca565b9701620017ca565b969a989091929394979995969838806200019c565b80fd5b8280fd5b5080fd5b503d62000247565b6040513d84823e3d90fd5b50346200032157606036600319011262000321576001600160a01b036020620003ac6200036b6200167e565b6200037562001695565b8560405195868095819463095ea7b360e01b83526044359060048401602090939291936001600160a01b0360408201951681520152565b0393165af1908115620003345782916200040f575b5015620003cb5780f35b606460405162461bcd60e51b815260206004820152600f60248201527f417070726f76616c206661696c656400000000000000000000000000000000006044820152fd5b62000436915060203d6020116200043d575b6200042d81836200177b565b810190620018a4565b38620003c1565b503d62000421565b5034620003215760403660031901126200032157620004636200167e565b602435906001600160a01b039081831680930362000510571690813b156200032457826040517ff637731d000000000000000000000000000000000000000000000000000000008152826004820152818160248183885af180156200033457620004f8575b505060207f30440fb2e4ce813a3feb1a945fc1c8190ba344a38f64cb33348155d72ab138b291604051908152a280f35b620005039062001766565b62000324578238620004c8565b8380fd5b50604036600319011262000321576200052c6200167e565b90602435916001600160a01b03928360035416803b1562000510578382916004604051809481937fd0e30db00000000000000000000000000000000000000000000000000000000083525af18015620006ff57620006e9575b506200059c818560035416866005541690620018cd565b8360035416916040519061010082019382851067ffffffffffffffff861117620006d35786946040528252602095869381858501931683526040840190612710825260608501903382526080860142815260a087019182528460c08801938b855260e08901958c8752828060055416996040519d8e9c7f414bf389000000000000000000000000000000000000000000000000000000008e52511660048d0152511660248b01525162ffffff1660448a0152511660648801525160848701525160a48601525160c4850152511660e483015281855a9261010493f1918215620006c757916200068f575b50604051908152f35b90508181813d8311620006bf575b620006a981836200177b565b81010312620006ba57513862000686565b600080fd5b503d6200069d565b604051903d90823e3d90fd5b634e487b7160e01b600052604160045260246000fd5b620006f79093919362001766565b913862000585565b6040513d86823e3d90fd5b5034620003215780600319360112620003215760206001600160a01b0360055416604051908152f35b503462000321578060031936011262000321576020600154604051908152f35b50346200032157604036600319011262000321576004356024356fffffffffffffffffffffffffffffffff9081811680910362000510576001600160a01b039081600254166040519060a0820182811067ffffffffffffffff8211176200097f579260a4869594938960409481999686528a83526020830194855285830182815260608401838152608085019142835288519b8c9889977f0c49ccbe000000000000000000000000000000000000000000000000000000008952516004890152511660248701525160448601525160648501525160848401525af1918215620006ff57604093620008ca936200095e575b506002541690835190620008588262001749565b86825230602083015280858301526060820152835194858094819363fc6f786560e01b83526004830191909160606080820193805183526001600160a01b036020820151166020840152816040820151916fffffffffffffffffffffffffffffffff8093166040860152015116910152565b03925af19081156200095357839084926200091a575b50604051928352602083015260408201527f1dc8bb69df2b8e91fbdcbfcf93d951b3f0000f085a95fe3f7946d6161439245d60603392a280f35b905062000943915060403d6040116200094b575b6200093a81836200177b565b810190620017b3565b9038620008e0565b503d6200092e565b6040513d85823e3d90fd5b6200097890853d87116200094b576200093a81836200177b565b5062000844565b602488634e487b7160e01b81526041600452fd5b5034620003215780600319360112620003215760206001600160a01b0360085416604051908152f35b5034620003215760208060031936011262000328576004356001600160a01b0380600654169081330362000b605760035416916040517f70a082310000000000000000000000000000000000000000000000000000000081523060048201528481602481875afa90811562000b5557869162000b1e575b5081811062000b1657505b8062000a48578480f35b6040517fa9059cbb0000000000000000000000000000000000000000000000000000000081526001600160a01b0392909216600483015260248201529082908290604490829087905af19081156200095357839162000af4575b501562000ab0578080808480f35b6064906040519062461bcd60e51b82526004820152601360248201527f4661696c656420746f2073656e642057455448000000000000000000000000006044820152fd5b62000b0f9150823d84116200043d576200042d81836200177b565b3862000aa2565b905062000a3e565b90508481813d831162000b4d575b62000b3881836200177b565b8101031262000b4957513862000a33565b8580fd5b503d62000b2c565b6040513d88823e3d90fd5b6064846040519062461bcd60e51b82526004820152601e60248201527f43616c6c6572206973206e6f7420746865207374616b696e6720706f6f6c00006044820152fd5b5034620003215780600319360112620003215760206001600160a01b0360045416604051908152f35b5034620003215780600319360112620003215760206001600160a01b0360025416604051908152f35b503462000321576060366003190112620003215762000c146200167e565b9062000c1f62001695565b9160443562ffffff8116809103620003245760209060646001600160a01b0393849283600454169084604051998a968795630b4c774160e11b875216600486015216602484015260448301525afa918215620006c757809262000c8a575b6020838360405191168152f35b9091506020833d60201162000cc8575b8162000ca9602093836200177b565b8101031262000321575062000cc06020926200179e565b903862000c7d565b3d915062000c9a565b5034620003215760a0366003190112620003215762000cef6200167e565b62000cf962001695565b604435906001600160a01b0382168203620005105762000d286064356001600160a01b036002541685620018cd565b62000d426084356001600160a01b036002541683620018cd565b6001600160a01b03600254169161012c42014211620010cf5760405191610160830183811067ffffffffffffffff821117620010bb57926001600160a01b03610140938161016494608097604052818a1685521660208401526127106040840152620d899f196060840152620d89a08684015260643560a084015260843560c08401528860e0840152886101008401521661012082015261012c4201838201528660405195869485937f883164560000000000000000000000000000000000000000000000000000000085526001600160a01b0381511660048601526001600160a01b03602082015116602486015262ffffff6040820151166044860152606081015160020b60648601528781015160020b608486015260a081015160a486015260c081015160c486015260e081015160e48601526101008101516101048601526001600160a01b036101208201511661012486015201516101448401525af1908162001077575b50620010295760018260033d1162001018575b6308c379a01462000f60575b62000ed2575080f35b62000edc62001860565b506001600160a01b0360025416907fc81aebb20d4ec9089cfa8e56a148aed217ed952594ba4084e64a3e2736d9450660a06001600160a01b03604051936064358552608435602086015260606040860152600f60608601527f4c6f772d6c6576656c206572726f72000000000000000000000000000000000060808601521692a380f35b62000f6a620017e8565b8062000f78575b5062000ec9565b905082906001600160a01b0360025416906040516064358152608435602082015260606040820152815191826060830152865b8381106200100157505080866080847fc81aebb20d4ec9089cfa8e56a148aed217ed952594ba4084e64a3e2736d94506940101526080816001600160a01b03881694601f80199101168101030190a33862000f71565b806020809284010151608082860101520162000fab565b50600483803e825160e01c62000ebd565b6001600160a01b0360025416907f36f3b2e1a21c19137dd82ec243b0708a1d26b3d1fa1dc49c44c4c366a587813860406001600160a01b03815193606435855260843560208601521692a380f35b6080813d608011620010b2575b8162001093608093836200177b565b8101031262000510576020620010aa9101620017ca565b503862000eaa565b3d915062001084565b602487634e487b7160e01b81526041600452fd5b602485634e487b7160e01b81526011600452fd5b50346200032157602036600319011262000321578060406200119c6001600160a01b03600254168251620011178162001749565b60043581523060208201526fffffffffffffffffffffffffffffffff80858301526060820152835194858094819363fc6f786560e01b83526004830191909160606080820193805183526001600160a01b036020820151166020840152816040820151916fffffffffffffffffffffffffffffffff8093166040860152015116910152565b03925af18015620003345782918391620011e6575b5060405191825260208201527f2e4fb6077d4acf86e12bb7411fb82b2b3eaa6a49787f4b1e17b423e7ea84116960403092a280f35b905062001205915060403d6040116200094b576200093a81836200177b565b38620011b1565b50346200032157604036600319011262000321576200122a6200167e565b6200123462001695565b916001600160a01b0390816004541690828060405195630b4c774160e11b8752169586600487015216948560248601526127108060448701526020968787606481885afa968715620006ff579088929185986200136d575b5086881615620012a3575b82888860405191168152f35b8460649293949596985060405198899485937fa1671295000000000000000000000000000000000000000000000000000000008552886004860152602485015260448401525af1938415620003345782946200132e575b507f4f2ce4e40f623ca765fc0167a25cb7842ceaafb8d82d3dec26ca0d0e0d2d48968385169280a338808085818062001297565b9093508481813d831162001365575b6200134981836200177b565b8101031262000328576200135d906200179e565b9238620012fa565b503d6200133d565b838193949299503d8311620013a7575b6200138981836200177b565b810103126200051057906200139f88926200179e565b96386200128c565b503d6200137d565b5034620003215760203660031901126200032157600435908054821015620003215760206001600160a01b03620013e684620016dd565b9190546040519260031b1c168152f35b5034620003215780600319360112620003215760206001600160a01b0360075416604051908152f35b5034620003215780600319360112620003215760206001600160a01b0360035416604051908152f35b503462000321576060366003190112620003215767ffffffffffffffff600435818111620003245762001480903690600401620016ac565b9190602435828111620015ad576200149d903690600401620016ac565b909160405194610b5a80870195878710908711176200097f5786959492620014e99492620014da92620019a8893960608752606087019162001728565b91848303602086015262001728565b906040604435910152039082f0908115620006c7576001600160a01b038092169181546801000000000000000081101562001599578060016200152f92018455620016dd565b819291549060031b9185831b921b19161790556001549160001983146200158557600160209301600155807f91d24864a084ab70b268a1f865e757ca12006cf298d763b6be697302ef86498c6040519380a28152f35b602482634e487b7160e01b81526011600452fd5b602483634e487b7160e01b81526041600452fd5b8480fd5b5034620003215780600319360112620003215760206001600160a01b0360065416604051908152f35b905034620003285760203660031901126200032857620015f96200167e565b6001600160a01b0391826008541633036200163c5750167fffffffffffffffffffffffff0000000000000000000000000000000000000000600654161760065580f35b8062461bcd60e51b6064925260206004820152601760248201527f43616c6c6572206973206e6f7420746865206f776e65720000000000000000006044820152fd5b600435906001600160a01b0382168203620006ba57565b602435906001600160a01b0382168203620006ba57565b9181601f84011215620006ba5782359167ffffffffffffffff8311620006ba5760208381860195010111620006ba57565b90600091825481101562001714578280527f290decd9548b62a8d60345a988386fc84ba6bc95484008f6362f93160ef3e563019190565b602483634e487b7160e01b81526032600452fd5b908060209392818452848401376000828201840152601f01601f1916010190565b6080810190811067ffffffffffffffff821117620006d357604052565b67ffffffffffffffff8111620006d357604052565b90601f8019910116810190811067ffffffffffffffff821117620006d357604052565b51906001600160a01b0382168203620006ba57565b9190826040910312620006ba576020825192015190565b51906fffffffffffffffffffffffffffffffff82168203620006ba57565b600060443d106200184c57604051600319913d83016004833e815167ffffffffffffffff918282113d6024840111176200184f5781840194855193841162001857573d850101602084870101116200184f57506200184c929101602001906200177b565b90565b949350505050565b50949350505050565b3d156200189f573d9067ffffffffffffffff8211620006d3576040519162001893601f8201601f1916602001846200177b565b82523d6000602084013e565b606090565b90816020910312620006ba57518015158103620006ba5790565b51908160020b8203620006ba57565b60405163095ea7b360e01b602082019081526001600160a01b039390931660248201526044808201949094529283526000928392908390620019116064826200177b565b51925af16200191f62001860565b8162001973575b50156200192f57565b606460405162461bcd60e51b815260206004820152600260248201527f53410000000000000000000000000000000000000000000000000000000000006044820152fd5b80518015925082156200198a575b50503862001926565b6200199f9250602080918301019101620018a4565b38806200198156fe60406080815234620003bb5762000b5a803803806200001e81620003c0565b9283398101606082820312620003bb5781516001600160401b039290838111620003bb578262000050918301620003e6565b60209283830151858111620003bb5786916200006e918501620003e6565b920151938151818111620002bb576003908154906001948583811c93168015620003b0575b888410146200039a578190601f9384811162000344575b508890848311600114620002dd57600092620002d1575b505060001982851b1c191690851b1782555b8451928311620002bb5760049485548581811c91168015620002b0575b888210146200029b5782811162000250575b5086918411600114620001e557938394918492600095620001d9575b50501b92600019911b1c19161781555b670de0b6b3a764000092838102938185041490151715620001ad573315620001c25760025490838201809211620001ad57506000917fddf252ad1be2c89b69c2b068fc378daa952ba7f163c4a11628f55a4df523b3ef9160025533835282815284832084815401905584519384523393a3516107019081620004598239f35b601190634e487b7160e01b6000525260246000fd5b602490600085519163ec442f0560e01b8352820152fd5b0151935038806200011e565b9190601f198416928660005284886000209460005b8a898383106200023857505050106200021d575b50505050811b0181556200012e565b01519060f884600019921b161c19169055388080806200020e565b868601518955909701969485019488935001620001fa565b86600052876000208380870160051c8201928a881062000291575b0160051c019086905b8281106200028457505062000102565b6000815501869062000274565b925081926200026b565b602287634e487b7160e01b6000525260246000fd5b90607f1690620000f0565b634e487b7160e01b600052604160045260246000fd5b015190503880620000c1565b90879350601f19831691866000528a6000209260005b8c8282106200032d575050841162000314575b505050811b018255620000d3565b015160001983871b60f8161c1916905538808062000306565b8385015186558b97909501949384019301620002f3565b90915084600052886000208480850160051c8201928b861062000390575b918991869594930160051c01915b82811062000380575050620000aa565b6000815585945089910162000370565b9250819262000362565b634e487b7160e01b600052602260045260246000fd5b92607f169262000093565b600080fd5b6040519190601f01601f191682016001600160401b03811183821017620002bb57604052565b919080601f84011215620003bb5782516001600160401b038111620002bb576020906200041c601f8201601f19168301620003c0565b92818452828287010111620003bb5760005b8181106200044457508260009394955001015290565b85810183015184820184015282016200042e56fe608060408181526004918236101561001657600080fd5b600092833560e01c91826306fdde031461045057508163095ea7b3146103a457816318160ddd1461038557816323b872dd14610276578163313ce5671461025a57816370a082311461022457816395d89b411461010357508063a9059cbb146100d35763dd62ed3e1461008857600080fd5b346100cf57806003193601126100cf57806020926100a4610573565b6100ac61058e565b6001600160a01b0391821683526001865283832091168252845220549051908152f35b5080fd5b50346100cf57806003193601126100cf576020906100fc6100f2610573565b60243590336105a4565b5160018152f35b8383346100cf57816003193601126100cf5780519082845460018160011c906001831692831561021a575b6020938484108114610207578388529081156101eb5750600114610196575b505050829003601f01601f191682019267ffffffffffffffff841183851017610183575082918261017f92528261052a565b0390f35b80604186634e487b7160e01b6024945252fd5b8787529192508591837f8a35acfbc15ff81a39ae7d344fd709f28e8600b4aa8c65c6b64bfe7fe36bd19b5b8385106101d7575050505083010185808061014d565b8054888601830152930192849082016101c1565b60ff1916878501525050151560051b840101905085808061014d565b60248960228c634e487b7160e01b835252fd5b91607f169161012e565b5050346100cf5760203660031901126100cf57806020926001600160a01b0361024b610573565b16815280845220549051908152f35b5050346100cf57816003193601126100cf576020905160128152f35b9050823461038257606036600319011261038257610292610573565b61029a61058e565b91604435936001600160a01b0383168083526001602052868320338452602052868320549160001983036102d7575b6020886100fc8989896105a4565b86831061033d578115610327573315610311575082526001602090815286832033845281529186902090859003905582906100fc876102c9565b60249084895191634a1406b160e11b8352820152fd5b6024908489519163e602df0560e01b8352820152fd5b87517ffb8f41b2000000000000000000000000000000000000000000000000000000008152339181019182526020820193909352604081018790528291506060010390fd5b80fd5b5050346100cf57816003193601126100cf576020906002549051908152f35b90503461044c578160031936011261044c576103be610573565b602435903315610436576001600160a01b031691821561042057508083602095338152600187528181208582528752205582519081527f8c5be1e5ebec7d5bd14f71427d1e84f3dd0314c0f7b2291e5b200ac8c7c3b925843392a35160018152f35b60249085855191634a1406b160e11b8352820152fd5b6024838686519163e602df0560e01b8352820152fd5b8280fd5b8490843461044c578260031936011261044c578260035460018160011c9060018316928315610520575b6020938484108114610207578388529081156101eb57506001146104ca57505050829003601f01601f191682019267ffffffffffffffff841183851017610183575082918261017f92528261052a565b600387529192508591837fc2575a0e9e593c00f959f8c92f12db2869c3395a3b0502d05e2516446f71f85b5b83851061050c575050505083010185808061014d565b8054888601830152930192849082016104f6565b91607f169161047a565b6020808252825181830181905290939260005b82811061055f57505060409293506000838284010152601f8019910116010190565b81810186015184820160400152850161053d565b600435906001600160a01b038216820361058957565b600080fd5b602435906001600160a01b038216820361058957565b916001600160a01b0380841692831561069a5716928315610669576000908382528160205260408220549083821061061e575091604082827fddf252ad1be2c89b69c2b068fc378daa952ba7f163c4a11628f55a4df523b3ef958760209652828652038282205586815220818154019055604051908152a3565b6040517fe450d38c0000000000000000000000000000000000000000000000000000000081526001600160a01b03919091166004820152602481019190915260448101839052606490fd5b60246040517fec442f0500000000000000000000000000000000000000000000000000000000815260006004820152fd5b60246040517f96c6fd1e00000000000000000000000000000000000000000000000000000000815260006004820152fdfea2646970667358221220e47a92a2ba208a383515911c24857c3d6ff5933294be32cdd9b916ec2f5fec2b64736f6c63430008180033a2646970667358221220d8e7c554688e3fc09deabd102fe49bbdb4b641e55b0e86de2cf7cedc33ce01ad64736f6c63430008180033",
  "linkReferences": {},
  "deployedLinkReferences": {}
}