{
  "_format": "hh-sol-artifact-1",
  "contractName": "MyFactory",
  "sourceName": "contracts/TestFactory.sol",
  "abi": [
    {
      "inputs": [
        {
          "internalType": "address",
          "name": "_positionManager",
          "type": "address"
        },
        {
          "internalType": "address",
          "name": "_weth",
          "type": "address"
        },
        {
          "internalType": "address",
          "name": "_uniswapFactory",
          "type": "address"
        },
        {
          "internalType": "address",
          "name": "_swapRouter",
          "type": "address"
        }
      ],
      "stateMutability": "nonpayable",
      "type": "constructor"
    },
    {
      "anonymous": false,
      "inputs": [
        {
          "indexed": false,
          "internalType": "uint256",
          "name": "tokenId",
          "type": "uint256"
        },
        {
          "indexed": false,
          "internalType": "uint256",
          "name": "amount0",
          "type": "uint256"
        },
        {
          "indexed": false,
          "internalType": "uint256",
          "name": "amount1",
          "type": "uint256"
        }
      ],
      "name": "FeesCollected",
      "type": "event"
    },
    {
      "anonymous": false,
      "inputs": [
        {
          "indexed": false,
          "internalType": "uint256",
          "name": "amount",
          "type": "uint256"
        }
      ],
      "name": "FundsNeeded",
      "type": "event"
    },
    {
      "anonymous": false,
      "inputs": [
        {
          "indexed": false,
          "internalType": "uint256",
          "name": "amount",
          "type": "uint256"
        }
      ],
      "name": "FundsSent",
      "type": "event"
    },
    {
      "anonymous": false,
      "inputs": [
        {
          "indexed": false,
          "internalType": "uint256",
          "name": "tokenId",
          "type": "uint256"
        },
        {
          "indexed": true,
          "internalType": "address",
          "name": "token",
          "type": "address"
        },
        {
          "indexed": true,
          "internalType": "address",
          "name": "pool",
          "type": "address"
        },
        {
          "indexed": false,
          "internalType": "uint256",
          "name": "tokenAmount",
          "type": "uint256"
        },
        {
          "indexed": false,
          "internalType": "uint256",
          "name": "wethAmount",
          "type": "uint256"
        }
      ],
      "name": "LiquidityAdded",
      "type": "event"
    },
    {
      "anonymous": false,
      "inputs": [
        {
          "indexed": true,
          "internalType": "address",
          "name": "token",
          "type": "address"
        },
        {
          "indexed": true,
          "internalType": "address",
          "name": "pool",
          "type": "address"
        },
        {
          "indexed": false,
          "internalType": "uint256",
          "name": "tokenAmount",
          "type": "uint256"
        },
        {
          "indexed": false,
          "internalType": "uint256",
          "name": "wethAmount",
          "type": "uint256"
        },
        {
          "indexed": false,
          "internalType": "string",
          "name": "error",
          "type": "string"
        }
      ],
      "name": "LiquidityAdditionFailed",
      "type": "event"
    },
    {
      "anonymous": false,
      "inputs": [
        {
          "indexed": true,
          "internalType": "address",
          "name": "token",
          "type": "address"
        },
        {
          "indexed": false,
          "internalType": "uint256",
          "name": "tokenId",
          "type": "uint256"
        },
        {
          "indexed": false,
          "internalType": "uint256",
          "name": "amount0",
          "type": "uint256"
        },
        {
          "indexed": false,
          "internalType": "uint256",
          "name": "amount1",
          "type": "uint256"
        }
      ],
      "name": "LiquidityRemoved",
      "type": "event"
    },
    {
      "anonymous": false,
      "inputs": [
        {
          "indexed": true,
          "internalType": "address",
          "name": "token0",
          "type": "address"
        },
        {
          "indexed": true,
          "internalType": "address",
          "name": "poolAddress",
          "type": "address"
        }
      ],
      "name": "PoolCreated",
      "type": "event"
    },
    {
      "anonymous": false,
      "inputs": [
        {
          "indexed": true,
          "internalType": "address",
          "name": "poolAddress",
          "type": "address"
        },
        {
          "indexed": false,
          "internalType": "uint160",
          "name": "sqrtPriceX96",
          "type": "uint160"
        }
      ],
      "name": "PoolInitialized",
      "type": "event"
    },
    {
      "anonymous": false,
      "inputs": [
        {
          "indexed": false,
          "internalType": "uint256",
          "name": "tokenId",
          "type": "uint256"
        },
        {
          "indexed": false,
          "internalType": "bool",
          "name": "isTokenDead",
          "type": "bool"
        }
      ],
      "name": "ResetFeesDays",
      "type": "event"
    },
    {
      "anonymous": false,
      "inputs": [
        {
          "indexed": true,
          "internalType": "address",
          "name": "token",
          "type": "address"
        },
        {
          "indexed": false,
          "internalType": "uint256",
          "name": "amountIn",
          "type": "uint256"
        },
        {
          "indexed": false,
          "internalType": "uint256",
          "name": "amountOut",
          "type": "uint256"
        }
      ],
      "name": "SwappedToWETH",
      "type": "event"
    },
    {
      "anonymous": false,
      "inputs": [
        {
          "indexed": true,
          "internalType": "address",
          "name": "tokenAddress",
          "type": "address"
        },
        {
          "indexed": true,
          "internalType": "address",
          "name": "poolAddress",
          "type": "address"
        }
      ],
      "name": "TokenApproved",
      "type": "event"
    },
    {
      "anonymous": false,
      "inputs": [
        {
          "indexed": true,
          "internalType": "address",
          "name": "tokenAddress",
          "type": "address"
        }
      ],
      "name": "TokenDeployed",
      "type": "event"
    },
    {
      "anonymous": false,
      "inputs": [
        {
          "indexed": false,
          "internalType": "uint256",
          "name": "amount",
          "type": "uint256"
        }
      ],
      "name": "TokensSwapped",
      "type": "event"
    },
    {
      "anonymous": false,
      "inputs": [
        {
          "indexed": false,
          "internalType": "uint256",
          "name": "tokenId",
          "type": "uint256"
        },
        {
          "indexed": false,
          "internalType": "bool",
          "name": "isTokenDead",
          "type": "bool"
        }
      ],
      "name": "ZeroFeesDays",
      "type": "event"
    },
    {
      "stateMutability": "payable",
      "type": "fallback"
    },
    {
      "inputs": [
        {
          "internalType": "address",
          "name": "_token0",
          "type": "address"
        },
        {
          "internalType": "address",
          "name": "_token1",
          "type": "address"
        },
        {
          "internalType": "address",
          "name": "tokenAddress",
          "type": "address"
        },
        {
          "internalType": "uint256",
          "name": "_token0Amount",
          "type": "uint256"
        },
        {
          "internalType": "uint256",
          "name": "_token1Amount",
          "type": "uint256"
        }
      ],
      "name": "addInitialLiquidity",
      "outputs": [
        {
          "internalType": "uint256",
          "name": "tokenId",
          "type": "uint256"
        }
      ],
      "stateMutability": "nonpayable",
      "type": "function"
    },
    {
      "inputs": [
        {
          "internalType": "uint256",
          "name": "",
          "type": "uint256"
        }
      ],
      "name": "allTokens",
      "outputs": [
        {
          "internalType": "address",
          "name": "tokenAddress",
          "type": "address"
        },
        {
          "internalType": "uint256",
          "name": "timeStamp",
          "type": "uint256"
        },
        {
          "internalType": "uint256",
          "name": "tokenId",
          "type": "uint256"
        },
        {
          "internalType": "bool",
          "name": "liquidityRemoved",
          "type": "bool"
        },
        {
          "internalType": "uint256",
          "name": "zerofeedays",
          "type": "uint256"
        },
        {
          "internalType": "bool",
          "name": "isTokenDEAD",
          "type": "bool"
        }
      ],
      "stateMutability": "view",
      "type": "function"
    },
    {
      "inputs": [
        {
          "internalType": "address",
          "name": "nftAddress",
          "type": "address"
        },
        {
          "internalType": "uint256",
          "name": "tokenId",
          "type": "uint256"
        },
        {
          "internalType": "address",
          "name": "spender",
          "type": "address"
        }
      ],
      "name": "approveNFT",
      "outputs": [],
      "stateMutability": "nonpayable",
      "type": "function"
    },
    {
      "inputs": [
        {
          "internalType": "uint256",
          "name": "amount",
          "type": "uint256"
        }
      ],
      "name": "callAddRewards",
      "outputs": [],
      "stateMutability": "payable",
      "type": "function"
    },
    {
      "inputs": [
        {
          "internalType": "uint256",
          "name": "tokenId",
          "type": "uint256"
        }
      ],
      "name": "collectFees",
      "outputs": [],
      "stateMutability": "nonpayable",
      "type": "function"
    },
    {
      "inputs": [
        {
          "internalType": "uint256",
          "name": "amount",
          "type": "uint256"
        }
      ],
      "name": "convertWETHToETH",
      "outputs": [],
      "stateMutability": "nonpayable",
      "type": "function"
    },
    {
      "inputs": [
        {
          "internalType": "address",
          "name": "token0",
          "type": "address"
        },
        {
          "internalType": "address",
          "name": "token1",
          "type": "address"
        },
        {
          "internalType": "uint160",
          "name": "sqrtPriceX96",
          "type": "uint160"
        }
      ],
      "name": "createAndInitializePoolIfNecessary",
      "outputs": [
        {
          "internalType": "address",
          "name": "pool",
          "type": "address"
        }
      ],
      "stateMutability": "nonpayable",
      "type": "function"
    },
    {
      "inputs": [
        {
          "internalType": "string",
          "name": "_name",
          "type": "string"
        },
        {
          "internalType": "string",
          "name": "_symbol",
          "type": "string"
        },
        {
          "internalType": "uint256",
          "name": "_supply",
          "type": "uint256"
        }
      ],
      "name": "deployToken",
      "outputs": [
        {
          "internalType": "address",
          "name": "",
          "type": "address"
        }
      ],
      "stateMutability": "nonpayable",
      "type": "function"
    },
    {
      "inputs": [],
      "name": "getAllTokens",
      "outputs": [
        {
          "internalType": "address[]",
          "name": "addresses",
          "type": "address[]"
        },
        {
          "internalType": "uint256[]",
          "name": "tokenIds",
          "type": "uint256[]"
        },
        {
          "internalType": "uint256[]",
          "name": "timestamps",
          "type": "uint256[]"
        },
        {
          "internalType": "bool[]",
          "name": "liquidityRemovedStatus",
          "type": "bool[]"
        },
        {
          "internalType": "uint256[]",
          "name": "zerofeesdays",
          "type": "uint256[]"
        },
        {
          "internalType": "bool[]",
          "name": "isTokenDead",
          "type": "bool[]"
        }
      ],
      "stateMutability": "view",
      "type": "function"
    },
    {
      "inputs": [
        {
          "internalType": "uint256",
          "name": "tokenId",
          "type": "uint256"
        }
      ],
      "name": "getPosition",
      "outputs": [
        {
          "internalType": "uint96",
          "name": "nonce",
          "type": "uint96"
        },
        {
          "internalType": "address",
          "name": "operator",
          "type": "address"
        },
        {
          "internalType": "address",
          "name": "token0",
          "type": "address"
        },
        {
          "internalType": "address",
          "name": "token1",
          "type": "address"
        },
        {
          "internalType": "uint24",
          "name": "fee",
          "type": "uint24"
        },
        {
          "internalType": "int24",
          "name": "tickLower",
          "type": "int24"
        },
        {
          "internalType": "int24",
          "name": "tickUpper",
          "type": "int24"
        },
        {
          "internalType": "uint128",
          "name": "liquidity",
          "type": "uint128"
        },
        {
          "internalType": "uint256",
          "name": "feeGrowthInside0LastX128",
          "type": "uint256"
        },
        {
          "internalType": "uint256",
          "name": "feeGrowthInside1LastX128",
          "type": "uint256"
        },
        {
          "internalType": "uint128",
          "name": "tokensOwed0",
          "type": "uint128"
        },
        {
          "internalType": "uint128",
          "name": "tokensOwed1",
          "type": "uint128"
        }
      ],
      "stateMutability": "view",
      "type": "function"
    },
    {
      "inputs": [
        {
          "internalType": "address",
          "name": "tokenA",
          "type": "address"
        },
        {
          "internalType": "address",
          "name": "tokenB",
          "type": "address"
        },
        {
          "internalType": "uint24",
          "name": "fee",
          "type": "uint24"
        }
      ],
      "name": "get_Pool",
      "outputs": [
        {
          "internalType": "address",
          "name": "pool",
          "type": "address"
        }
      ],
      "stateMutability": "view",
      "type": "function"
    },
    {
      "inputs": [
        {
          "internalType": "bytes[]",
          "name": "data",
          "type": "bytes[]"
        }
      ],
      "name": "multicall",
      "outputs": [],
      "stateMutability": "payable",
      "type": "function"
    },
    {
      "inputs": [
        {
          "internalType": "uint256",
          "name": "amount",
          "type": "uint256"
        }
      ],
      "name": "notifyFundsNeeded",
      "outputs": [],
      "stateMutability": "nonpayable",
      "type": "function"
    },
    {
      "inputs": [],
      "name": "owner",
      "outputs": [
        {
          "internalType": "address",
          "name": "",
          "type": "address"
        }
      ],
      "stateMutability": "view",
      "type": "function"
    },
    {
      "inputs": [],
      "name": "pendingFunds",
      "outputs": [
        {
          "internalType": "uint256",
          "name": "",
          "type": "uint256"
        }
      ],
      "stateMutability": "view",
      "type": "function"
    },
    {
      "inputs": [],
      "name": "positionManager",
      "outputs": [
        {
          "internalType": "contract INonfungiblePositionManager",
          "name": "",
          "type": "address"
        }
      ],
      "stateMutability": "view",
      "type": "function"
    },
    {
      "inputs": [
        {
          "internalType": "uint256",
          "name": "tokenId",
          "type": "uint256"
        },
        {
          "internalType": "uint128",
          "name": "liquidityToRemove",
          "type": "uint128"
        }
      ],
      "name": "removeLiquidity",
      "outputs": [],
      "stateMutability": "nonpayable",
      "type": "function"
    },
    {
      "inputs": [
        {
          "internalType": "uint256",
          "name": "tokenId",
          "type": "uint256"
        }
      ],
      "name": "resetNoFeeDays",
      "outputs": [],
      "stateMutability": "nonpayable",
      "type": "function"
    },
    {
      "inputs": [
        {
          "internalType": "address payable",
          "name": "_stakingAddress",
          "type": "address"
        }
      ],
      "name": "setStakingAddress",
      "outputs": [],
      "stateMutability": "nonpayable",
      "type": "function"
    },
    {
      "inputs": [],
      "name": "stakingAddress",
      "outputs": [
        {
          "internalType": "address payable",
          "name": "",
          "type": "address"
        }
      ],
      "stateMutability": "view",
      "type": "function"
    },
    {
      "inputs": [
        {
          "internalType": "uint256",
          "name": "amountIn",
          "type": "uint256"
        },
        {
          "internalType": "address",
          "name": "tokenAddress",
          "type": "address"
        }
      ],
      "name": "swapETHforTokens",
      "outputs": [
        {
          "internalType": "uint256",
          "name": "amountOut",
          "type": "uint256"
        }
      ],
      "stateMutability": "payable",
      "type": "function"
    },
    {
      "inputs": [],
      "name": "swapRouter",
      "outputs": [
        {
          "internalType": "contract ISwapRouter",
          "name": "",
          "type": "address"
        }
      ],
      "stateMutability": "view",
      "type": "function"
    },
    {
      "inputs": [
        {
          "internalType": "uint256",
          "name": "amountIn",
          "type": "uint256"
        },
        {
          "internalType": "address",
          "name": "tokenAddress",
          "type": "address"
        }
      ],
      "name": "swapTokensForWETH",
      "outputs": [
        {
          "internalType": "uint256",
          "name": "amountOut",
          "type": "uint256"
        }
      ],
      "stateMutability": "payable",
      "type": "function"
    },
    {
      "inputs": [],
      "name": "tokenCount",
      "outputs": [
        {
          "internalType": "uint256",
          "name": "",
          "type": "uint256"
        }
      ],
      "stateMutability": "view",
      "type": "function"
    },
    {
      "inputs": [
        {
          "internalType": "address",
          "name": "tokenAddress",
          "type": "address"
        },
        {
          "internalType": "address",
          "name": "to",
          "type": "address"
        },
        {
          "internalType": "uint256",
          "name": "amount",
          "type": "uint256"
        }
      ],
      "name": "transferTokens",
      "outputs": [],
      "stateMutability": "nonpayable",
      "type": "function"
    },
    {
      "inputs": [],
      "name": "tryToSendFunds",
      "outputs": [],
      "stateMutability": "nonpayable",
      "type": "function"
    },
    {
      "inputs": [],
      "name": "uniswapFactory",
      "outputs": [
        {
          "internalType": "contract IUniswapV3Factory",
          "name": "",
          "type": "address"
        }
      ],
      "stateMutability": "view",
      "type": "function"
    },
    {
      "inputs": [
        {
          "internalType": "uint256",
          "name": "tokenId",
          "type": "uint256"
        }
      ],
      "name": "updateNoFeeDays",
      "outputs": [],
      "stateMutability": "nonpayable",
      "type": "function"
    },
    {
      "inputs": [],
      "name": "weth",
      "outputs": [
        {
          "internalType": "address",
          "name": "",
          "type": "address"
        }
      ],
      "stateMutability": "view",
      "type": "function"
    },
    {
      "stateMutability": "payable",
      "type": "receive"
    }
  ],
  "bytecode": "0x608034620000da57601f620032c238819003918201601f19168301916001600160401b03831184841017620000df57808492608094604052833981010312620000da576200004d81620000f5565b906200005c60208201620000f5565b6200007860606200007060408501620000f5565b9301620000f5565b90655af3107a400060075560018060a01b03928380928160018060a01b03199716876001541617600155168560025416176002551683600354161760035516816004541617600455339060055416176005556040516131b790816200010b8239f35b600080fd5b634e487b7160e01b600052604160045260246000fd5b51906001600160a01b0382168203620000da5756fe6080604052600436101562000024575b36156200001857005b620000226200236b565b005b6000803560e01c8063247932be1462001f185780632855d76a1462001e885780632a5c792a1462001c5e5780633a93babb1462001b4f5780633fc8cef31462001b2657806351246d6e1462001a0b5780635bc30eb01462001539578063634282af14620014b55780636e9551d714620013c1578063791b98bc14620013985780637c6bc9be14620013785780638bdb2afa146200134f5780638c3a65a2146200125e5780638da5cb5b1462001235578063911757ba1462000f6d5780639f181b5e1462000f4e578063a64b6e5f1462000e8d578063ac9650d81462000d3c578063ad1b9e321462000be5578063ae3b05d41462000bc5578063b17acdcd1462000a67578063c31c9c071462000a3e578063cbf0ed6b1462000994578063d10b6e0c1462000900578063d7b4be2414620008d7578063eb02c30114620006b9578063f4e0d9ac1462000659578063fde16ed314620004e75763ffc5baf9146200018d57506200000f565b6040366003190112620004e45760043590620001a8620020b2565b916001600160a01b03808060055416331494620001c58662002132565b620001d2841515620022c1565b1691604051946370a0823160e01b86523060048701526020958681602481885afa908115620004d9579083918791620004a2575b50106200043857858262000255926200022486600454169162002132565b604051938492839263095ea7b360e01b845260048401602090939291936001600160a01b0360408201951681520152565b038188885af19081156200042d578591620003f9575b5015620003b55791816200032a93869360025416604051936200028e85620021b0565b845284840152612710604084015230606084015260808301528460a08301528460c08301526004541660405180809581946304e45aaf60e01b83526004830191909160c060e0820193816001600160a01b039182815116855282602082015116602086015262ffffff60408201511660408601528260608201511660608601526080810151608086015260a081015160a0860152015116910152565b039134905af1918215620003a9579162000371575b507fdb04c7a6d4758fd55d738ebc67e7f3010ac922be00771ef29521a4090d1eb13f82604051838152a1604051908152f35b90508181813d8311620003a1575b6200038b8183620021cd565b810103126200039c5751386200033f565b600080fd5b503d6200037f565b604051903d90823e3d90fd5b6064856040519062461bcd60e51b82526004820152600f60248201527f417070726f76616c206661696c656400000000000000000000000000000000006044820152fd5b6200041e9150863d881162000425575b620004158183620021cd565b8101906200230d565b386200026b565b503d62000409565b6040513d87823e3d90fd5b6084866040519062461bcd60e51b82526004820152603260248201527f496e73756666696369656e7420746f6b656e2062616c616e636520696e20746860448201527f6520666163746f727920636f6e747261637400000000000000000000000000006064820152fd5b809250888092503d8311620004d1575b620004be8183620021cd565b810103126200039c578290513862000206565b503d620004b2565b6040513d88823e3d90fd5b80fd5b506040366003190112620004e4576004359062000503620020b2565b6001600160a01b038381600254168260045416620005278460055416331462002132565b604051809263095ea7b360e01b82528188816200056160209c8d9760048401602090939291936001600160a01b0360408201951681520152565b03925af19081156200042d57859162000637575b5015620003b55791816200032a938187946002541693604051946200059a86620021b0565b85521684840152612710604084015233606084015260808301528460a08301528460c08301526004541660405180809581946304e45aaf60e01b83526004830191909160c060e0820193816001600160a01b039182815116855282602082015116602086015262ffffff60408201511660408601528260608201511660608601526080810151608086015260a081015160a0860152015116910152565b620006529150863d88116200042557620004158183620021cd565b3862000575565b5034620004e4576020366003190112620004e4576004356001600160a01b03808216809203620006b557620006949060055416331462002132565b73ffffffffffffffffffffffffffffffffffffffff19600654161760065580f35b8280fd5b5034620004e4576020366003190112620004e4576001600160a01b0390620006e78260055416331462002132565b8160015416906040519283927f99fbab8800000000000000000000000000000000000000000000000000000000845260043560048501528360246101809687935afa908115620008cc578280948192829083849185938697879a889789809c620007cb575b5050908391826040519e8f926bffffffffffffffffffffffff1683521690602001521660408c01521660608a015262ffffff16608089015260020b60a088015260020b60c08701526fffffffffffffffffffffffffffffffff948580941660e08801526101008701526101208601521661014084015216610160820152f35b9b509c5050505097505050505050508383813d8311620008c4575b620007f28183620021cd565b81010312620004e4578251906bffffffffffffffffffffffff82168203620004e457620008226020850162002277565b91620008316040860162002277565b94620008406060820162002277565b9460808201519362ffffff85168503620004e457506200086360a083016200253e565b6200087160c084016200253e565b906200088060e085016200228c565b9261010085015196816101208701519a620008ae610160620008a66101408b016200228c565b99016200228c565b989a9c9092949596999b97989a9091386200074c565b503d620007e6565b6040513d84823e3d90fd5b5034620004e45780600319360112620004e45760206001600160a01b0360065416604051908152f35b5034620004e4576060366003190112620004e457806200091f6200209b565b6001600160a01b0362000931620020c9565b9116803b15620009905760405163095ea7b360e01b81526001600160a01b03929092166004830152602480359083015282908290604490829084905af18015620008cc576200097d5750f35b62000988906200217e565b620004e45780f35b5050fd5b5034620004e4576020366003190112620004e457620009c06001600160a01b0360055416331462002132565b600435815260096020527f6f3e068cb934f31cfea69b2f72e697abfe27982d58fe7fcabb327c96c89cd33a6040822054826004620009fe83620020e0565b50015560ff600562000a20600462000a1685620020e0565b50015493620020e0565b50015460408051938452911615156020830152819081015b0390a180f35b5034620004e45780600319360112620004e45760206001600160a01b0360045416604051908152f35b5034620004e4576020366003190112620004e45760043581604062000b226001600160a01b0362000a9e8160055416331462002132565b82519062000aac8262002193565b85825230602083019081526fffffffffffffffffffffffffffffffff85840181905260608401818152600154875163fc6f786560e01b81528651600482015293516001600160a01b0316602485015260409095015182166044840152511660648201529485939190921691839182906084820190565b03925af191821562000bba577fa54e6c2fc0861aa9c991b26891d71059d517983b9e84b91020f42609c452eb9d928492859162000b7d575b5062000a3890604051938493846040919493926060820195825260208201520152565b62000a38935062000baa915060403d60401162000bb2575b62000ba18183620021cd565b810190620022aa565b909262000b5a565b503d62000b95565b6040513d85823e3d90fd5b5034620004e45780600319360112620004e45762000be26200236b565b80f35b506020366003190112620004e4576004356001600160a01b039062000c616020828460055416331462000c188162002132565b85600254169062000c2e87600654169162002132565b8760405180968195829463095ea7b360e01b845260048401602090939291936001600160a01b0360408201951681520152565b03925af190811562000d3157849162000d0d575b501562000cc957829160065416803b15620009905782906004604051809481937f14d6aed00000000000000000000000000000000000000000000000000000000083525af18015620008cc576200097d5750f35b606460405162461bcd60e51b815260206004820152600f60248201527f417070726f76616c206661696c656400000000000000000000000000000000006044820152fd5b62000d2a915060203d6020116200042557620004158183620021cd565b3862000c75565b6040513d86823e3d90fd5b5060208060031936011262000e67576004359067ffffffffffffffff80831162000e63573660238401121562000e6357826004013581811162000e89576024906005903660248260051b8801011162000e8557943681900360421901906000198701878111895b89811062000daf578a80f35b8162000e725780830362000e6b57345b8b8883891b870101358781121562000e675786019189830135908b8211620006b557604480940191803603831362000e6357839281604051928392833781018481520391305af162000e1062002327565b501562000e21575060010162000da3565b897f4d756c746963616c6c20657865637574696f6e206661696c6564000000000000606492601a8b6040519462461bcd60e51b86526004860152840152820152fd5b8380fd5b5080fd5b8a62000dbf565b868b634e487b7160e01b81526011600452fd5b8680fd5b8480fd5b5034620004e4576060366003190112620004e45762000f19602062000eb16200209b565b62000ebb620020b2565b9060443591856001600160a01b0362000eda8160055416331462002132565b62000ee7851515620022c1565b60405180978196829563a9059cbb60e01b845260048401602090939291936001600160a01b0360408201951681520152565b0393165af18015620008cc5762000f2e575080f35b62000f4a9060203d6020116200042557620004158183620021cd565b5080f35b5034620004e45780600319360112620004e45760209054604051908152f35b5034620004e4576040366003190112620004e4576004356024356fffffffffffffffffffffffffffffffff9081811680910362000e63576001600160a01b039162000fbe8360055416331462002132565b838552600960205260408520549260ff600362000fdb86620020e0565b50015416620011f1578060015416926040519060a082019082821067ffffffffffffffff831117620011db5760a485938a809860409586528b83526020830194855285830182815260608401838152608085019142835288519b8c9889977f0c49ccbe000000000000000000000000000000000000000000000000000000008952516004890152511660248701525160448601525160648501525160848401525af191821562000d31576040936200111993620011ba575b506001541690835190620010a78262002193565b87825230602083015280858301526060820152835194858094819363fc6f786560e01b83526004830191909160606080820193805183526001600160a01b036020820151166020840152816040820151916fffffffffffffffffffffffffffffffff8093166040860152015116910152565b03925af190811562000d31577f1dc8bb69df2b8e91fbdcbfcf93d951b3f0000f085a95fe3f7946d6161439245d928591869362001187575b506200115f600391620020e0565b5001805460ff191660011790556040805194855260208501919091528301523391606090a280f35b60039193506200115f9250620011ae9060403d60401162000bb25762000ba18183620021cd565b92909293915062001151565b620011d490853d871162000bb25762000ba18183620021cd565b5062001093565b634e487b7160e01b600052604160045260246000fd5b606460405162461bcd60e51b815260206004820152601960248201527f4c697175696469747920616c72656164792072656d6f766564000000000000006044820152fd5b5034620004e45780600319360112620004e45760206001600160a01b0360055416604051908152f35b5034620004e4576020366003190112620004e4576004356001600160a01b03600654163303620012e557600a54818101809111620012cf577f04705381fc60aa59df5095fc9ac43f37266f766e6785eac6c6641f1e15fba54b91602091600a55604051908152a162000be26200236b565b634e487b7160e01b600052601160045260246000fd5b608460405162461bcd60e51b815260206004820152602160248201527f4f6e6c79207374616b696e6720636f6e74726163742063616e206e6f7469667960448201527f2e000000000000000000000000000000000000000000000000000000000000006064820152fd5b5034620004e45780600319360112620004e45760206001600160a01b0360035416604051908152f35b5034620004e45780600319360112620004e4576020600a54604051908152f35b5034620004e45780600319360112620004e45760206001600160a01b0360015416604051908152f35b5034620004e4576060366003190112620004e457620013df6200209b565b90620013ea620020b2565b9160443562ffffff8116809103620006b55760209060646001600160a01b0393849283600354169084604051998a9687957f1698ee8200000000000000000000000000000000000000000000000000000000875216600486015216602484015260448301525afa918215620003a95780926200146e575b6020838360405191168152f35b9091506020833d602011620014ac575b816200148d60209383620021cd565b81010312620004e45750620014a460209262002277565b903862001461565b3d91506200147e565b5034620004e4576020366003190112620004e45760043590600854821015620004e45760c0620014e583620020e0565b506001600160a01b0381541690600181015490600281015460ff6003830154169060ff60056004850154940154169360405195865260208601526040850152151560608401526080830152151560a0820152f35b5034620004e45760a0366003190112620004e457620015576200209b565b62001561620020b2565b906200156c620020c9565b91602460206001600160a01b0360025416604051928380926370a0823160e01b82523060048301525afa9081156200042d578591620019d3575b50600754116200196957620015ca6064356001600160a01b0360015416846200254d565b620015e46084356001600160a01b0360015416836200254d565b61012c42014211620019555760405192610160840184811067ffffffffffffffff821117620011db576040526001600160a01b03831684526001600160a01b03821660208501526127106040850152620d899f196060850152620d89a0608085015260643560a085015260843560c08501528460e0850152846101008501523061012085015261012c420161014085015260806101406101646001600160a01b0360015416968860405198899485937f883164560000000000000000000000000000000000000000000000000000000085526001600160a01b0381511660048601526001600160a01b03602082015116602486015262ffffff6040820151166044860152606081015160020b60648601528781015160020b608486015260a081015160a486015260c081015160c486015260e081015160e48601526101008101516101048601526001600160a01b036101208201511661012486015201516101448401525af19384156200042d5785946200190b575b506040519060c082019082821067ffffffffffffffff831117620011db576001600160a01b0391604052168152602081014281526040820185815260608301878152608084019188835260a085019389855260085468010000000000000000811015620018f757806001620017d39201600855620020e0565b969096620018e457926005949262001836926001600160a01b0362001852999896511673ffffffffffffffffffffffffffffffffffffffff19895416178855516001880155516002870155511515600386019060ff801983541691151516179055565b51600484015551151591019060ff801983541691151516179055565b6008546000198101908111620018d05760408585602097526009875220557fcdcffdd59a718d70f177abd94c0e661d1b2d1199ea4bb008b01ba902c1db10a26001600160a01b0380604051931693169180620018c560843560643588846040919493926060820195825260208201520152565b0390a3604051908152f35b602485634e487b7160e01b81526011600452fd5b60248b634e487b7160e01b815280600452fd5b60248b634e487b7160e01b81526041600452fd5b9093506080813d6080116200194c575b816200192a60809383620021cd565b8101031262000e8957620019436020825192016200228c565b5092386200175a565b3d91506200191b565b602484634e487b7160e01b81526011600452fd5b608460405162461bcd60e51b815260206004820152602760248201527f4e6f7420656e6f756768205745544820696e2074686520666163746f7279206360448201527f6f6e7472616374000000000000000000000000000000000000000000000000006064820152fd5b90506020813d60201162001a02575b81620019f160209383620021cd565b810103126200039c575138620015a6565b3d9150620019e2565b5034620004e4576060366003190112620004e45762001a296200209b565b9062001a34620020b2565b604435926001600160a01b039384811680910362000e63578460848193866020948460015416906040519a8b9687957f13ead56200000000000000000000000000000000000000000000000000000000875216998a6004870152166024850152612710604485015260648401525af1801562000bba57839062001ae4575b602094501680917f4f2ce4e40f623ca765fc0167a25cb7842ceaafb8d82d3dec26ca0d0e0d2d48966040519480a38152f35b506020843d60201162001b1d575b8162001b0160209383620021cd565b81010312620006b55762001b1760209462002277565b62001ab2565b3d915062001af2565b5034620004e45780600319360112620004e45760206001600160a01b0360025416604051908152f35b5034620004e4576060366003190112620004e45767ffffffffffffffff600435818111620006b55762001b879036906004016200206a565b919060243582811162000e895762001ba49036906004016200206a565b909160405194610b5a808701958787109087111762001c4a578695949262001bf0949262001be19262002628893960608752606087019162002256565b91848303602086015262002256565b906040604435910152039082f0801562001c3d57906001600160a01b0360209216807f91d24864a084ab70b268a1f865e757ca12006cf298d763b6be697302ef86498c6040519380a28152f35b50604051903d90823e3d90fd5b602488634e487b7160e01b81526041600452fd5b5034620004e45780600319360112620004e4576001600160a01b03600562001c8c8260055416331462002132565b60085462001c9a81620021f0565b62001ca96040519182620021cd565b81815262001cb782620021f0565b6020959082870190601f190136823762001cd18462002209565b62001cdc8562002209565b9262001ce88662002209565b9462001cf48762002209565b9662001d008162002209565b98835b82811062001dbc57505050604051998a9960c08b019260c08c525180935260e08b019593905b83821062001d9e5750505050509262001d6d62001d9a96959362001d5e8462001d8b978b62001d7c970360208d015262001ffc565b9089820360408b015262001ffc565b90878203606089015262002032565b90858203608087015262001ffc565b9083820360a085015262002032565b0390f35b8451811687528c9b5095820195938201936001919091019062001d29565b808b62001e718e9f979698999a9b9c9d9e9360038f8f8f8e8e62001df28760019c62001de882620020e0565b5054169262002241565b5262001e0f86600262001e0582620020e0565b5001549262002241565b5262001e21858a62001e0582620020e0565b5262001e428462001e3281620020e0565b5060ff9586910154169262002241565b901515905262001e5983600462001e0582620020e0565b528662001e6683620020e0565b500154169262002241565b9015159052019b9a99989796959492939b62001d03565b5034620004e4576020366003190112620004e457806001600160a01b0362001eb68160055416331462002132565b60025416803b1562001f155781906024604051809481937f2e1a7d4d00000000000000000000000000000000000000000000000000000000835260043560048401525af18015620008cc5762001f0a575080f35b62000be2906200217e565b50fd5b5034620004e4576020366003190112620004e45762001f446001600160a01b0360055416331462002132565b60043581526009602052604081205490600462001f6183620020e0565b500180549290600019841462001fe85760017f5b5116a6a7ed7078e6da121ce407eb49b9da5715f14154c54556529f996a4fb093940190556003600462001fa883620020e0565b500154101562001fc8575b60ff600562000a20600462000a1685620020e0565b600562001fd582620020e0565b5001805460ff1916600117905562001fb3565b602483634e487b7160e01b81526011600452fd5b90815180825260208080930193019160005b8281106200201d575050505090565b8351855293810193928101926001016200200e565b90815180825260208080930193019160005b82811062002053575050505090565b835115158552938101939281019260010162002044565b9181601f840112156200039c5782359167ffffffffffffffff83116200039c57602083818601950101116200039c57565b600435906001600160a01b03821682036200039c57565b602435906001600160a01b03821682036200039c57565b604435906001600160a01b03821682036200039c57565b6008548110156200211c576006906008600052027ff3f7a9fe364faab93b216da50a3214154f22a0a2b415b23a84c8169e8b636ee30190600090565b634e487b7160e01b600052603260045260246000fd5b156200213a57565b606460405162461bcd60e51b815260206004820152601760248201527f43616c6c6572206973206e6f7420746865206f776e65720000000000000000006044820152fd5b67ffffffffffffffff8111620011db57604052565b6080810190811067ffffffffffffffff821117620011db57604052565b60e0810190811067ffffffffffffffff821117620011db57604052565b90601f8019910116810190811067ffffffffffffffff821117620011db57604052565b67ffffffffffffffff8111620011db5760051b60200190565b906200221582620021f0565b620022246040519182620021cd565b828152809262002237601f1991620021f0565b0190602036910137565b80518210156200211c5760209160051b010190565b908060209392818452848401376000828201840152601f01601f1916010190565b51906001600160a01b03821682036200039c57565b51906fffffffffffffffffffffffffffffffff821682036200039c57565b91908260409103126200039c576020825192015190565b15620022c957565b606460405162461bcd60e51b815260206004820152602060248201527f416d6f756e74206d7573742062652067726561746572207468616e207a65726f6044820152fd5b908160209103126200039c575180151581036200039c5790565b3d1562002366573d9067ffffffffffffffff8211620011db57604051916200235a601f8201601f191660200184620021cd565b82523d6000602084013e565b606090565b60025460006001600160a01b038092166040928351916370a0823160e01b83523060048401526020928381602481855afa9081156200253457859162002501575b50600a548091101580620024f7575b620023c9575b505050505050565b839060448460065416878951958694859363a9059cbb60e01b8552600485015260248401525af18015620024ed57620024cb575b5060065416600a54813b1562000e6357839160248392875194859384927f9b5ceb3500000000000000000000000000000000000000000000000000000000845260048401525af18015620024c1576200248d575b507f8ff98a7f9bedb57df86769d07998b067fba595272053e3690d3412aff560a82c9192600a549051908152a1600a55388080808080620023c1565b91620024ba7f8ff98a7f9bedb57df86769d07998b067fba595272053e3690d3412aff560a82c936200217e565b9162002451565b84513d85823e3d90fd5b620024e590833d85116200042557620004158183620021cd565b5038620023fd565b85513d86823e3d90fd5b50801515620023bb565b90508381813d83116200252c575b6200251b8183620021cd565b8101031262000e89575138620023ac565b503d6200250f565b86513d87823e3d90fd5b51908160020b82036200039c57565b60405163095ea7b360e01b602082019081526001600160a01b03939093166024820152604480820194909452928352600092839290839062002591606482620021cd565b51925af16200259f62002327565b81620025f3575b5015620025af57565b606460405162461bcd60e51b815260206004820152600260248201527f53410000000000000000000000000000000000000000000000000000000000006044820152fd5b80518015925082156200260a575b505038620025a6565b6200261f92506020809183010191016200230d565b38806200260156fe60406080815234620003bb5762000b5a803803806200001e81620003c0565b9283398101606082820312620003bb5781516001600160401b039290838111620003bb578262000050918301620003e6565b60209283830151858111620003bb5786916200006e918501620003e6565b920151938151818111620002bb576003908154906001948583811c93168015620003b0575b888410146200039a578190601f9384811162000344575b508890848311600114620002dd57600092620002d1575b505060001982851b1c191690851b1782555b8451928311620002bb5760049485548581811c91168015620002b0575b888210146200029b5782811162000250575b5086918411600114620001e557938394918492600095620001d9575b50501b92600019911b1c19161781555b670de0b6b3a764000092838102938185041490151715620001ad573315620001c25760025490838201809211620001ad57506000917fddf252ad1be2c89b69c2b068fc378daa952ba7f163c4a11628f55a4df523b3ef9160025533835282815284832084815401905584519384523393a3516107019081620004598239f35b601190634e487b7160e01b6000525260246000fd5b602490600085519163ec442f0560e01b8352820152fd5b0151935038806200011e565b9190601f198416928660005284886000209460005b8a898383106200023857505050106200021d575b50505050811b0181556200012e565b01519060f884600019921b161c19169055388080806200020e565b868601518955909701969485019488935001620001fa565b86600052876000208380870160051c8201928a881062000291575b0160051c019086905b8281106200028457505062000102565b6000815501869062000274565b925081926200026b565b602287634e487b7160e01b6000525260246000fd5b90607f1690620000f0565b634e487b7160e01b600052604160045260246000fd5b015190503880620000c1565b90879350601f19831691866000528a6000209260005b8c8282106200032d575050841162000314575b505050811b018255620000d3565b015160001983871b60f8161c1916905538808062000306565b8385015186558b97909501949384019301620002f3565b90915084600052886000208480850160051c8201928b861062000390575b918991869594930160051c01915b82811062000380575050620000aa565b6000815585945089910162000370565b9250819262000362565b634e487b7160e01b600052602260045260246000fd5b92607f169262000093565b600080fd5b6040519190601f01601f191682016001600160401b03811183821017620002bb57604052565b919080601f84011215620003bb5782516001600160401b038111620002bb576020906200041c601f8201601f19168301620003c0565b92818452828287010111620003bb5760005b8181106200044457508260009394955001015290565b85810183015184820184015282016200042e56fe608060408181526004918236101561001657600080fd5b600092833560e01c91826306fdde031461045057508163095ea7b3146103a457816318160ddd1461038557816323b872dd14610276578163313ce5671461025a57816370a082311461022457816395d89b411461010357508063a9059cbb146100d35763dd62ed3e1461008857600080fd5b346100cf57806003193601126100cf57806020926100a4610573565b6100ac61058e565b6001600160a01b0391821683526001865283832091168252845220549051908152f35b5080fd5b50346100cf57806003193601126100cf576020906100fc6100f2610573565b60243590336105a4565b5160018152f35b8383346100cf57816003193601126100cf5780519082845460018160011c906001831692831561021a575b6020938484108114610207578388529081156101eb5750600114610196575b505050829003601f01601f191682019267ffffffffffffffff841183851017610183575082918261017f92528261052a565b0390f35b80604186634e487b7160e01b6024945252fd5b8787529192508591837f8a35acfbc15ff81a39ae7d344fd709f28e8600b4aa8c65c6b64bfe7fe36bd19b5b8385106101d7575050505083010185808061014d565b8054888601830152930192849082016101c1565b60ff1916878501525050151560051b840101905085808061014d565b60248960228c634e487b7160e01b835252fd5b91607f169161012e565b5050346100cf5760203660031901126100cf57806020926001600160a01b0361024b610573565b16815280845220549051908152f35b5050346100cf57816003193601126100cf576020905160128152f35b9050823461038257606036600319011261038257610292610573565b61029a61058e565b91604435936001600160a01b0383168083526001602052868320338452602052868320549160001983036102d7575b6020886100fc8989896105a4565b86831061033d578115610327573315610311575082526001602090815286832033845281529186902090859003905582906100fc876102c9565b60249084895191634a1406b160e11b8352820152fd5b6024908489519163e602df0560e01b8352820152fd5b87517ffb8f41b2000000000000000000000000000000000000000000000000000000008152339181019182526020820193909352604081018790528291506060010390fd5b80fd5b5050346100cf57816003193601126100cf576020906002549051908152f35b90503461044c578160031936011261044c576103be610573565b602435903315610436576001600160a01b031691821561042057508083602095338152600187528181208582528752205582519081527f8c5be1e5ebec7d5bd14f71427d1e84f3dd0314c0f7b2291e5b200ac8c7c3b925843392a35160018152f35b60249085855191634a1406b160e11b8352820152fd5b6024838686519163e602df0560e01b8352820152fd5b8280fd5b8490843461044c578260031936011261044c578260035460018160011c9060018316928315610520575b6020938484108114610207578388529081156101eb57506001146104ca57505050829003601f01601f191682019267ffffffffffffffff841183851017610183575082918261017f92528261052a565b600387529192508591837fc2575a0e9e593c00f959f8c92f12db2869c3395a3b0502d05e2516446f71f85b5b83851061050c575050505083010185808061014d565b8054888601830152930192849082016104f6565b91607f169161047a565b6020808252825181830181905290939260005b82811061055f57505060409293506000838284010152601f8019910116010190565b81810186015184820160400152850161053d565b600435906001600160a01b038216820361058957565b600080fd5b602435906001600160a01b038216820361058957565b916001600160a01b0380841692831561069a5716928315610669576000908382528160205260408220549083821061061e575091604082827fddf252ad1be2c89b69c2b068fc378daa952ba7f163c4a11628f55a4df523b3ef958760209652828652038282205586815220818154019055604051908152a3565b6040517fe450d38c0000000000000000000000000000000000000000000000000000000081526001600160a01b03919091166004820152602481019190915260448101839052606490fd5b60246040517fec442f0500000000000000000000000000000000000000000000000000000000815260006004820152fd5b60246040517f96c6fd1e00000000000000000000000000000000000000000000000000000000815260006004820152fdfea264697066735822122028234fe1e9f7b7ba87e6166de51afb5952e05b8b6f7b8801852fc40881a690d364736f6c63430008180033a264697066735822122087f4d52d862f920c02c40c7c992017574bee709bf619caba3ea72279b1766b3964736f6c63430008180033",
  "linkReferences": {},
  "deployedLinkReferences": {}
}