{
  "_format": "hh-sol-artifact-1",
  "contractName": "MyToken",
  "sourceName": "contracts/MyToken.sol",
  "abi": [
    {
      "inputs": [
        {
          "internalType": "string",
          "name": "name",
          "type": "string"
        },
        {
          "internalType": "string",
          "name": "symbol",
          "type": "string"
        },
        {
          "internalType": "uint256",
          "name": "totalSupply",
          "type": "uint256"
        },
        {
          "internalType": "address",
          "name": "factory",
          "type": "address"
        }
      ],
      "stateMutability": "nonpayable",
      "type": "constructor"
    },
    {
      "inputs": [
        {
          "internalType": "address",
          "name": "spender",
          "type": "address"
        },
        {
          "internalType": "uint256",
          "name": "allowance",
          "type": "uint256"
        },
        {
          "internalType": "uint256",
          "name": "needed",
          "type": "uint256"
        }
      ],
      "name": "ERC20InsufficientAllowance",
      "type": "error"
    },
    {
      "inputs": [
        {
          "internalType": "address",
          "name": "sender",
          "type": "address"
        },
        {
          "internalType": "uint256",
          "name": "balance",
          "type": "uint256"
        },
        {
          "internalType": "uint256",
          "name": "needed",
          "type": "uint256"
        }
      ],
      "name": "ERC20InsufficientBalance",
      "type": "error"
    },
    {
      "inputs": [
        {
          "internalType": "address",
          "name": "approver",
          "type": "address"
        }
      ],
      "name": "ERC20InvalidApprover",
      "type": "error"
    },
    {
      "inputs": [
        {
          "internalType": "address",
          "name": "receiver",
          "type": "address"
        }
      ],
      "name": "ERC20InvalidReceiver",
      "type": "error"
    },
    {
      "inputs": [
        {
          "internalType": "address",
          "name": "sender",
          "type": "address"
        }
      ],
      "name": "ERC20InvalidSender",
      "type": "error"
    },
    {
      "inputs": [
        {
          "internalType": "address",
          "name": "spender",
          "type": "address"
        }
      ],
      "name": "ERC20InvalidSpender",
      "type": "error"
    },
    {
      "anonymous": false,
      "inputs": [
        {
          "indexed": true,
          "internalType": "address",
          "name": "owner",
          "type": "address"
        },
        {
          "indexed": true,
          "internalType": "address",
          "name": "spender",
          "type": "address"
        },
        {
          "indexed": false,
          "internalType": "uint256",
          "name": "value",
          "type": "uint256"
        }
      ],
      "name": "Approval",
      "type": "event"
    },
    {
      "anonymous": false,
      "inputs": [
        {
          "indexed": true,
          "internalType": "address",
          "name": "from",
          "type": "address"
        },
        {
          "indexed": true,
          "internalType": "address",
          "name": "to",
          "type": "address"
        },
        {
          "indexed": false,
          "internalType": "uint256",
          "name": "value",
          "type": "uint256"
        }
      ],
      "name": "Transfer",
      "type": "event"
    },
    {
      "inputs": [],
      "name": "MAX_WALLET_PERCENTAGE",
      "outputs": [
        {
          "internalType": "uint256",
          "name": "",
          "type": "uint256"
        }
      ],
      "stateMutability": "view",
      "type": "function"
    },
    {
      "inputs": [
        {
          "internalType": "uint256",
          "name": "",
          "type": "uint256"
        }
      ],
      "name": "allTokens",
      "outputs": [
        {
          "internalType": "address",
          "name": "tokenAddress",
          "type": "address"
        },
        {
          "internalType": "bool",
          "name": "maxWalletEnabled",
          "type": "bool"
        },
        {
          "internalType": "address",
          "name": "poolAddress",
          "type": "address"
        }
      ],
      "stateMutability": "view",
      "type": "function"
    },
    {
      "inputs": [
        {
          "internalType": "address",
          "name": "owner",
          "type": "address"
        },
        {
          "internalType": "address",
          "name": "spender",
          "type": "address"
        }
      ],
      "name": "allowance",
      "outputs": [
        {
          "internalType": "uint256",
          "name": "",
          "type": "uint256"
        }
      ],
      "stateMutability": "view",
      "type": "function"
    },
    {
      "inputs": [
        {
          "internalType": "address",
          "name": "spender",
          "type": "address"
        },
        {
          "internalType": "uint256",
          "name": "value",
          "type": "uint256"
        }
      ],
      "name": "approve",
      "outputs": [
        {
          "internalType": "bool",
          "name": "",
          "type": "bool"
        }
      ],
      "stateMutability": "nonpayable",
      "type": "function"
    },
    {
      "inputs": [
        {
          "internalType": "address",
          "name": "account",
          "type": "address"
        }
      ],
      "name": "balanceOf",
      "outputs": [
        {
          "internalType": "uint256",
          "name": "",
          "type": "uint256"
        }
      ],
      "stateMutability": "view",
      "type": "function"
    },
    {
      "inputs": [],
      "name": "decimals",
      "outputs": [
        {
          "internalType": "uint8",
          "name": "",
          "type": "uint8"
        }
      ],
      "stateMutability": "view",
      "type": "function"
    },
    {
      "inputs": [
        {
          "internalType": "address",
          "name": "poolAddress",
          "type": "address"
        }
      ],
      "name": "enableMaxWalletLimit",
      "outputs": [],
      "stateMutability": "nonpayable",
      "type": "function"
    },
    {
      "inputs": [],
      "name": "factoryAddress",
      "outputs": [
        {
          "internalType": "address",
          "name": "",
          "type": "address"
        }
      ],
      "stateMutability": "view",
      "type": "function"
    },
    {
      "inputs": [],
      "name": "maxHolding",
      "outputs": [
        {
          "internalType": "uint256",
          "name": "",
          "type": "uint256"
        }
      ],
      "stateMutability": "view",
      "type": "function"
    },
    {
      "inputs": [],
      "name": "maxWalletAmount",
      "outputs": [
        {
          "internalType": "uint256",
          "name": "",
          "type": "uint256"
        }
      ],
      "stateMutability": "view",
      "type": "function"
    },
    {
      "inputs": [],
      "name": "maxWalletEnabled",
      "outputs": [
        {
          "internalType": "bool",
          "name": "",
          "type": "bool"
        }
      ],
      "stateMutability": "view",
      "type": "function"
    },
    {
      "inputs": [],
      "name": "name",
      "outputs": [
        {
          "internalType": "string",
          "name": "",
          "type": "string"
        }
      ],
      "stateMutability": "view",
      "type": "function"
    },
    {
      "inputs": [],
      "name": "symbol",
      "outputs": [
        {
          "internalType": "string",
          "name": "",
          "type": "string"
        }
      ],
      "stateMutability": "view",
      "type": "function"
    },
    {
      "inputs": [],
      "name": "totalSupply",
      "outputs": [
        {
          "internalType": "uint256",
          "name": "",
          "type": "uint256"
        }
      ],
      "stateMutability": "view",
      "type": "function"
    },
    {
      "inputs": [
        {
          "internalType": "address",
          "name": "to",
          "type": "address"
        },
        {
          "internalType": "uint256",
          "name": "value",
          "type": "uint256"
        }
      ],
      "name": "transfer",
      "outputs": [
        {
          "internalType": "bool",
          "name": "",
          "type": "bool"
        }
      ],
      "stateMutability": "nonpayable",
      "type": "function"
    },
    {
      "inputs": [
        {
          "internalType": "address",
          "name": "from",
          "type": "address"
        },
        {
          "internalType": "address",
          "name": "to",
          "type": "address"
        },
        {
          "internalType": "uint256",
          "name": "value",
          "type": "uint256"
        }
      ],
      "name": "transferFrom",
      "outputs": [
        {
          "internalType": "bool",
          "name": "",
          "type": "bool"
        }
      ],
      "stateMutability": "nonpayable",
      "type": "function"
    }
  ],
  "bytecode": "0x604060808152346200066557620012a5803803806200001e816200066a565b9283398101608082820312620006655781516001600160401b03908181116200066557826200004f91850162000690565b602092838501519083821162000665576200006c91860162000690565b8585015160609095015190926001600160a01b03918281169081900362000665578351828111620005655760038054916001968784811c941680156200065a575b8a85101462000644578190601f94858111620005ee575b508a9085831160011462000587576000926200057b575b505060001982841b1c191690871b1781555b865191848311620005655760049788548881811c911680156200055a575b8b82101462000545579081838695949311620004eb575b508a918411600114620004805760009362000474575b505082871b92600019911b1c19161785555b60ff19600a5416600a55670de0b6b3a7640000968781029781890414811517156200045f57674563918244f4000002878104600514881517156200045f5760649004600555600780546001600160a01b0319908116909217905587519160608301908111838210176200044a578852308252858201916000835288810192308452600b546801000000000000000081101562000435578087620001f19201600b5562000702565b929092620004215751825491516001600160a81b03199092169086161790151560a01b60ff60a01b1617815591519184018054909116918316919091179055600b5460001981019081116200040c5730600052600c855286600020553315620003f55730600052600c84528560002054918060ff620002708562000702565b505460a01c161515149283620003e4575b83620003d8575b83620003ce575b83620003b0575b505050620002fa575b507fddf252ad1be2c89b69c2b068fc378daa952ba7f163c4a11628f55a4df523b3ef600091620002d28460025462000738565b60025533835282815284832084815401905584519384523393a351610b4890816200075d8239f35b6002546005810290808204600514901517156200039b576064903360005260008452046200032d84866000205462000738565b11156200029f5760849184519162461bcd60e51b8352820152603660248201527f4d79546f6b656e3a205472616e7366657220616d6f756e74206578636565647360448201527f20746865206d617820686f6c64696e67206c696d6974000000000000000000006064820152fd5b601182634e487b7160e01b6000525260246000fd5b620003be9192935062000702565b5001541633141538808062000296565b925080926200028f565b33301415935062000288565b925081600754163314159262000281565b855163ec442f0560e01b8152600081850152602490fd5b601184634e487b7160e01b6000525260246000fd5b600088634e487b7160e01b82525260246000fd5b604188634e487b7160e01b6000525260246000fd5b604186634e487b7160e01b6000525260246000fd5b601186634e487b7160e01b6000525260246000fd5b01519150388062000138565b9190889450601f198416928a6000528b6000209360005b8d828210620004d45750508511620004b9575b50505050811b0185556200014a565b01519060f884600019921b161c1916905538808080620004aa565b8385015187558c9890960195938401930162000497565b9091929350896000528a6000208380870160051c8201928d88106200053b575b918b918897969594930160051c01915b8281106200052b57505062000122565b600081558796508b91016200051b565b925081926200050b565b60228a634e487b7160e01b6000525260246000fd5b90607f16906200010b565b634e487b7160e01b600052604160045260246000fd5b015190503880620000db565b60008581528c81208b9550929190601f198516908e5b828210620005d65750508411620005bd575b505050811b018155620000ed565b015160001983861b60f8161c19169055388080620005af565b8385015186558d979095019493840193018e6200059d565b909150836000528a6000208580850160051c8201928d86106200063a575b918b91869594930160051c01915b8281106200062a575050620000c4565b600081558594508b91016200061a565b925081926200060c565b634e487b7160e01b600052602260045260246000fd5b93607f1693620000ad565b600080fd5b6040519190601f01601f191682016001600160401b038111838210176200056557604052565b919080601f84011215620006655782516001600160401b0381116200056557602090620006c6601f8201601f191683016200066a565b92818452828287010111620006655760005b818110620006ee57508260009394955001015290565b8581018301518482018401528201620006d8565b600b548110156200072257600b60005260206000209060011b0190600090565b634e487b7160e01b600052603260045260246000fd5b919082018092116200074657565b634e487b7160e01b600052601160045260246000fdfe608060408181526004918236101561001657600080fd5b600092833560e01c91826306647125146107bb5750816306fdde03146106df578163095ea7b31461063357816318160ddd1461061457816323b872dd14610508578163313ce567146104ec578163333e6f06146104cd5781635edfd7ce1461036d578163634282af1461030f57816370a08231146102d957816395d89b41146101b857508063966dae0e14610191578063a9059cbb14610161578063aa4bde2814610143578063d045a329146101205763dd62ed3e146100d557600080fd5b3461011c578060031936011261011c57806020926100f161081f565b6100f961083a565b6001600160a01b0391821683526001865283832091168252845220549051908152f35b5080fd5b503461011c578160031936011261011c5760209060ff600a541690519015158152f35b503461011c578160031936011261011c576020906009549051908152f35b503461011c578060031936011261011c5760209061018a61018061081f565b60243590336108a0565b5160018152f35b503461011c578160031936011261011c576020906001600160a01b03600754169051908152f35b83833461011c578160031936011261011c5780519082845460018160011c90600183169283156102cf575b60209384841081146102bc578388529081156102a0575060011461024b575b505050829003601f01601f191682019267ffffffffffffffff84118385101761023857508291826102349252826107d6565b0390f35b80604186634e487b7160e01b6024945252fd5b8787529192508591837f8a35acfbc15ff81a39ae7d344fd709f28e8600b4aa8c65c6b64bfe7fe36bd19b5b83851061028c5750505050830101858080610202565b805488860183015293019284908201610276565b60ff1916878501525050151560051b8401019050858080610202565b60248960228c634e487b7160e01b835252fd5b91607f16916101e3565b50503461011c57602036600319011261011c57806020926001600160a01b0361030061081f565b16815280845220549051908152f35b8391503461011c57602036600319011261011c573590600b5482101561036a57606060018461033d85610850565b509060ff8254926001600160a01b03948591015416928251948116855260a01c1615156020840152820152f35b80fd5b83833461011c57602036600319011261011c5761038861081f565b906001600160a01b039081600754163303610465576103fa600191308652600c6020528520546103b781610850565b50740100000000000000000000000000000000000000007fffffffffffffffffffffff00ffffffffffffffffffffffffffffffffffffffff825416179055610850565b500191167fffffffffffffffffffffffff00000000000000000000000000000000000000008254161790556002546005810290808204600514901517156104525760649004600955600160ff19600a541617600a5580f35b506011602492634e487b7160e01b835252fd5b5162461bcd60e51b8152602081860152602d60248201527f43616c6c6572206973206e6f7420617574686f72697a656420746f20656e616260448201527f6c65206d61782077616c6c6574000000000000000000000000000000000000006064820152608490fd5b50503461011c578160031936011261011c576020906005549051908152f35b50503461011c578160031936011261011c576020905160128152f35b9050823461036a57606036600319011261036a5761052461081f565b61052c61083a565b91604435936001600160a01b038316808352600160205286832033845260205286832054916000198303610569575b60208861018a8989896108a0565b8683106105cf5781156105b95733156105a35750825260016020908152868320338452815291869020908590039055829061018a8761055b565b60249084895191634a1406b160e11b8352820152fd5b6024908489519163e602df0560e01b8352820152fd5b87517ffb8f41b2000000000000000000000000000000000000000000000000000000008152339181019182526020820193909352604081018790528291506060010390fd5b50503461011c578160031936011261011c576020906002549051908152f35b9050346106db57816003193601126106db5761064d61081f565b6024359033156106c5576001600160a01b03169182156106af57508083602095338152600187528181208582528752205582519081527f8c5be1e5ebec7d5bd14f71427d1e84f3dd0314c0f7b2291e5b200ac8c7c3b925843392a35160018152f35b60249085855191634a1406b160e11b8352820152fd5b6024838686519163e602df0560e01b8352820152fd5b8280fd5b83833461011c578160031936011261011c578051908260035460018160011c90600183169283156107b1575b60209384841081146102bc578388529081156102a0575060011461075b57505050829003601f01601f191682019267ffffffffffffffff84118385101761023857508291826102349252826107d6565b600387529192508591837fc2575a0e9e593c00f959f8c92f12db2869c3395a3b0502d05e2516446f71f85b5b83851061079d5750505050830101858080610202565b805488860183015293019284908201610787565b91607f169161070b565b84903461011c578160031936011261011c5780600560209252f35b6020808252825181830181905290939260005b82811061080b57505060409293506000838284010152601f8019910116010190565b8181018601518482016040015285016107e9565b600435906001600160a01b038216820361083557565b600080fd5b602435906001600160a01b038216820361083557565b600b5481101561088a57600b60005260011b7f0175b7a638427703f0dbe7bb9bbf987a2551717b34e79f33b5b1008d1fa01db90190600090565b634e487b7160e01b600052603260045260246000fd5b9291906001600160a01b03808516918215610ae1578116928315610ab057600091308352602092600c84526040918282205490600160ff6108e084610850565b505460a01c161515149182610aa1575b82610a96575b82610a8b575b82610a6f575b50506109a9575b848152808452818120549783891061096057508083869798997fddf252ad1be2c89b69c2b068fc378daa952ba7f163c4a11628f55a4df523b3ef9785945282875203828220558781522082815401905551908152a3565b82517fe450d38c0000000000000000000000000000000000000000000000000000000081526001600160a01b039190911660048201526024810189905260448101849052606490fd5b600254600581029080820460051490151715610a5b578682528185528282205490848201809211610a47576064900410156109095760848483519062461bcd60e51b82526004820152603660248201527f4d79546f6b656e3a205472616e7366657220616d6f756e74206578636565647360448201527f20746865206d617820686f6c64696e67206c696d6974000000000000000000006064820152fd5b602483634e487b7160e01b81526011600452fd5b602482634e487b7160e01b81526011600452fd5b6001919250610a7d90610850565b500154168614153880610902565b8789141592506108fc565b3089141592506108f6565b600754821689141592506108f0565b60246040517fec442f0500000000000000000000000000000000000000000000000000000000815260006004820152fd5b60246040517f96c6fd1e00000000000000000000000000000000000000000000000000000000815260006004820152fdfea264697066735822122021a8ac2f20c925948d74f940dee4c29ce095f9a1524329a59d2e7448d49e00e664736f6c63430008180033",
  "linkReferences": {},
  "deployedLinkReferences": {}
}