{
  "_format": "hh-sol-artifact-1",
  "contractName": "SimpleStaking",
  "sourceName": "contracts/Staking.sol",
  "abi": [
    {
      "inputs": [
        {
          "internalType": "address",
          "name": "_weth",
          "type": "address"
        }
      ],
      "stateMutability": "nonpayable",
      "type": "constructor"
    },
    {
      "inputs": [],
      "name": "ReentrancyGuardReentrantCall",
      "type": "error"
    },
    {
      "anonymous": false,
      "inputs": [
        {
          "indexed": true,
          "internalType": "address",
          "name": "user",
          "type": "address"
        },
        {
          "indexed": false,
          "internalType": "uint256",
          "name": "amount",
          "type": "uint256"
        }
      ],
      "name": "RewardClaimed",
      "type": "event"
    },
    {
      "anonymous": false,
      "inputs": [
        {
          "indexed": false,
          "internalType": "uint256",
          "name": "amount",
          "type": "uint256"
        }
      ],
      "name": "RewardsAdded",
      "type": "event"
    },
    {
      "anonymous": false,
      "inputs": [
        {
          "indexed": true,
          "internalType": "address",
          "name": "user",
          "type": "address"
        },
        {
          "indexed": false,
          "internalType": "uint256",
          "name": "amount",
          "type": "uint256"
        }
      ],
      "name": "Stake",
      "type": "event"
    },
    {
      "anonymous": false,
      "inputs": [
        {
          "indexed": true,
          "internalType": "address",
          "name": "user",
          "type": "address"
        },
        {
          "indexed": false,
          "internalType": "uint256",
          "name": "amount",
          "type": "uint256"
        }
      ],
      "name": "Unstake",
      "type": "event"
    },
    {
      "anonymous": false,
      "inputs": [
        {
          "indexed": true,
          "internalType": "address",
          "name": "user",
          "type": "address"
        },
        {
          "indexed": false,
          "internalType": "uint256",
          "name": "amount",
          "type": "uint256"
        },
        {
          "indexed": false,
          "internalType": "uint256",
          "name": "pendingAmount",
          "type": "uint256"
        }
      ],
      "name": "UnstakeProcessed",
      "type": "event"
    },
    {
      "anonymous": false,
      "inputs": [
        {
          "indexed": true,
          "internalType": "address",
          "name": "user",
          "type": "address"
        },
        {
          "indexed": false,
          "internalType": "uint256",
          "name": "amount",
          "type": "uint256"
        },
        {
          "indexed": false,
          "internalType": "uint256",
          "name": "timestamp",
          "type": "uint256"
        }
      ],
      "name": "UnstakeQueued",
      "type": "event"
    },
    {
      "anonymous": false,
      "inputs": [
        {
          "indexed": true,
          "internalType": "address",
          "name": "user",
          "type": "address"
        },
        {
          "indexed": false,
          "internalType": "uint256",
          "name": "amount",
          "type": "uint256"
        },
        {
          "indexed": false,
          "internalType": "uint256",
          "name": "pendingAmount",
          "type": "uint256"
        }
      ],
      "name": "UnstakeRequested",
      "type": "event"
    },
    {
      "stateMutability": "payable",
      "type": "fallback"
    },
    {
      "inputs": [],
      "name": "REWARD_INTERVAL",
      "outputs": [
        {
          "internalType": "uint256",
          "name": "",
          "type": "uint256"
        }
      ],
      "stateMutability": "view",
      "type": "function"
    },
    {
      "inputs": [],
      "name": "accRewardPerShare",
      "outputs": [
        {
          "internalType": "uint256",
          "name": "",
          "type": "uint256"
        }
      ],
      "stateMutability": "view",
      "type": "function"
    },
    {
      "inputs": [],
      "name": "addRewards",
      "outputs": [],
      "stateMutability": "payable",
      "type": "function"
    },
    {
      "inputs": [],
      "name": "factoryAddress",
      "outputs": [
        {
          "internalType": "address",
          "name": "",
          "type": "address"
        }
      ],
      "stateMutability": "view",
      "type": "function"
    },
    {
      "inputs": [
        {
          "internalType": "address",
          "name": "staker",
          "type": "address"
        }
      ],
      "name": "getStake",
      "outputs": [
        {
          "internalType": "uint256",
          "name": "",
          "type": "uint256"
        }
      ],
      "stateMutability": "view",
      "type": "function"
    },
    {
      "inputs": [],
      "name": "getUnstakeQueueLength",
      "outputs": [
        {
          "internalType": "uint256",
          "name": "",
          "type": "uint256"
        }
      ],
      "stateMutability": "view",
      "type": "function"
    },
    {
      "inputs": [
        {
          "internalType": "uint256",
          "name": "index",
          "type": "uint256"
        }
      ],
      "name": "getUnstakeRequest",
      "outputs": [
        {
          "internalType": "address",
          "name": "user",
          "type": "address"
        },
        {
          "internalType": "uint256",
          "name": "amount",
          "type": "uint256"
        },
        {
          "internalType": "uint256",
          "name": "timestamp",
          "type": "uint256"
        }
      ],
      "stateMutability": "view",
      "type": "function"
    },
    {
      "inputs": [],
      "name": "handleReceivedWETH",
      "outputs": [],
      "stateMutability": "nonpayable",
      "type": "function"
    },
    {
      "inputs": [],
      "name": "lastRewardTime",
      "outputs": [
        {
          "internalType": "uint256",
          "name": "",
          "type": "uint256"
        }
      ],
      "stateMutability": "view",
      "type": "function"
    },
    {
      "inputs": [],
      "name": "owner",
      "outputs": [
        {
          "internalType": "address",
          "name": "",
          "type": "address"
        }
      ],
      "stateMutability": "view",
      "type": "function"
    },
    {
      "inputs": [
        {
          "internalType": "address",
          "name": "_user",
          "type": "address"
        }
      ],
      "name": "pendingReward",
      "outputs": [
        {
          "internalType": "uint256",
          "name": "",
          "type": "uint256"
        }
      ],
      "stateMutability": "view",
      "type": "function"
    },
    {
      "inputs": [
        {
          "internalType": "address",
          "name": "",
          "type": "address"
        }
      ],
      "name": "pendingUnstakes",
      "outputs": [
        {
          "internalType": "uint256",
          "name": "",
          "type": "uint256"
        }
      ],
      "stateMutability": "view",
      "type": "function"
    },
    {
      "inputs": [
        {
          "internalType": "uint256",
          "name": "amount",
          "type": "uint256"
        }
      ],
      "name": "requestUnstake",
      "outputs": [],
      "stateMutability": "nonpayable",
      "type": "function"
    },
    {
      "inputs": [
        {
          "internalType": "address",
          "name": "",
          "type": "address"
        }
      ],
      "name": "rewardDebt",
      "outputs": [
        {
          "internalType": "uint256",
          "name": "",
          "type": "uint256"
        }
      ],
      "stateMutability": "view",
      "type": "function"
    },
    {
      "inputs": [
        {
          "internalType": "address",
          "name": "_factoryAddress",
          "type": "address"
        }
      ],
      "name": "setFactoryAddress",
      "outputs": [],
      "stateMutability": "nonpayable",
      "type": "function"
    },
    {
      "inputs": [],
      "name": "stake",
      "outputs": [],
      "stateMutability": "payable",
      "type": "function"
    },
    {
      "inputs": [
        {
          "internalType": "address",
          "name": "",
          "type": "address"
        }
      ],
      "name": "stakes",
      "outputs": [
        {
          "internalType": "uint256",
          "name": "",
          "type": "uint256"
        }
      ],
      "stateMutability": "view",
      "type": "function"
    },
    {
      "inputs": [],
      "name": "totalRewards",
      "outputs": [
        {
          "internalType": "uint256",
          "name": "",
          "type": "uint256"
        }
      ],
      "stateMutability": "view",
      "type": "function"
    },
    {
      "inputs": [],
      "name": "totalStaked",
      "outputs": [
        {
          "internalType": "uint256",
          "name": "",
          "type": "uint256"
        }
      ],
      "stateMutability": "view",
      "type": "function"
    },
    {
      "inputs": [
        {
          "internalType": "uint256",
          "name": "amount",
          "type": "uint256"
        }
      ],
      "name": "unstake",
      "outputs": [],
      "stateMutability": "nonpayable",
      "type": "function"
    },
    {
      "inputs": [
        {
          "internalType": "uint256",
          "name": "",
          "type": "uint256"
        }
      ],
      "name": "unstakeQueue",
      "outputs": [
        {
          "internalType": "address",
          "name": "user",
          "type": "address"
        },
        {
          "internalType": "uint256",
          "name": "amount",
          "type": "uint256"
        },
        {
          "internalType": "uint256",
          "name": "timestamp",
          "type": "uint256"
        }
      ],
      "stateMutability": "view",
      "type": "function"
    },
    {
      "inputs": [],
      "name": "weth",
      "outputs": [
        {
          "internalType": "address",
          "name": "",
          "type": "address"
        }
      ],
      "stateMutability": "view",
      "type": "function"
    },
    {
      "stateMutability": "payable",
      "type": "receive"
    }
  ],
  "bytecode": "0x60803461008357601f61161838819003918201601f19168301916001600160401b038311848410176100885780849260209460405283398101031261008357516001600160a01b0381169081900361008357600160005560018060a01b03193381600654161760065542600a556005541617600555604051611579908161009f8239f35b600080fd5b634e487b7160e01b600052604160045260246000fdfe608060408181526004918236101561001f575b505050361561001d57005b005b600090813560e01c9081630e15561a14610ddf5750806314d6aed014610d4657806316934fc4146105915780632309572114610bea5780632e17de78146109fb5780633a4b66f1146106685780633bac9c99146106495780633fc8cef3146106215780635873eb9b146105e85780635dbdda69146105ca5780637a76646014610591578063817b1cd21461057257806383c17c55146104d95780638da5cb5b146104b15780639231cf7414610492578063939d623714610473578063966dae0e1461044d578063afa5807014610420578063c4ebe088146102f3578063d6b6b23f146102b6578063ddb59e13146102155763f40f0f52036100125734610212576020366003190112610212578235906001600160a01b03821680920361021257600954600a5480421180610207575b61018d575b60208561018686828764e8d4a51000610176898584526001895284842054610f84565b0492815260028652205490610eba565b9051908152f35b6101a761019e620151809242610eba565b60085490610f84565b0464e8d4a51000908181029181830414901517156101f457602095509164e8d4a510006101766101e987946101e3610186989760075490610f97565b90610e4c565b935050509192610153565b602483601188634e487b7160e01b835252fd5b50600754151561014e565b80fd5b508290346102125760203660031901126102125750803590600b54821015610273575061024190610dfb565b508054600182015460029092015492516001600160a01b03909116815260208101919091526040810191909152606090f35b606490602084519162461bcd60e51b8352820152601360248201527f496e646578206f7574206f6620626f756e6473000000000000000000000000006044820152fd5b5091346102ef5760203660031901126102ef57356001600160a01b0381168091036102ef57828291602094526003845220549051908152f35b8280fd5b509190346102ef57826003193601126102ef576001600160a01b038060055416928251906370a0823160e01b8252309082015260208160248183975afa9081156104165785916103df575b50845b600b548110806103d6575b156103d2578261035b82610dfb565b506001810154801515806103bb575b610380575b50505061037b90610fb7565b610341565b929361037b936103a693926103a1918084106103b1579384915b541661107d565b610eba565b91905082388061036f565b508293849161039a565b508282541689526003885280878a2054101561036a565b8580f35b5081151561034c565b90506020813d60201161040e575b816103fa60209383610f62565b8101031261040957513861033e565b600080fd5b3d91506103ed565b83513d87823e3d90fd5b508234610449576020366003190112610449573590600b54821015610212575061024190610dfb565b5080fd5b5034610212578060031936011261021257506001600160a01b0360209254169051908152f35b5090346104495781600319360112610449576020906009549051908152f35b509034610449578160031936011261044957602090600a549051908152f35b5090346104495781600319360112610449576020906001600160a01b03600654169051908152f35b509190346102ef5760203660031901126102ef578135906001600160a01b0380831680930361056e5760065416330361052c575073ffffffffffffffffffffffffffffffffffffffff1982541617905580f35b5162461bcd60e51b8152602081840152601760248201527f43616c6c6572206973206e6f7420746865206f776e65720000000000000000006044820152606490fd5b8480fd5b5090346104495781600319360112610449576020906007549051908152f35b5091346102ef5760203660031901126102ef57356001600160a01b0381168091036102ef57828291602094526001845220549051908152f35b50903461044957816003193601126104495760209051620151808152f35b5091346102ef5760203660031901126102ef57356001600160a01b0381168091036102ef57828291602094526002845220549051908152f35b5090346104495781600319360112610449576020906001600160a01b03600554169051908152f35b509034610449578160031936011261044957602090600b549051908152f35b5090816003193601126104495761067d611042565b34156109b95761068b610fc6565b6001600160a01b03928360055416803b156108fb578382918451928380927fd0e30db000000000000000000000000000000000000000000000000000000000825234905af180156109ac57908491610998575b505060463402933485046046036109855760648495046106fe8134610eba565b50816005541682845416918551927fa9059cbb0000000000000000000000000000000000000000000000000000000084528584015260248301528160448160209889945af190811561097b578691610941575b50156108ff5784903382526001855283822054806107ec575b82867febedb8b3c678666e7f36970bc8f57abf6d8fa2e828c0da91ea5b75bf68ed101a87338452600183528084206107a3348254610e4c565b90556107b134600754610e4c565b6007553384526001835264e8d4a510006107d18286205460095490610f84565b04338552600284528185205551913483523392a26001815580f35b64e8d4a510006108026108149260095490610f84565b04338452600287528584205490610eba565b928315918215610825575b5061076a565b6005541690813b156108fb5784602485928389519586948593632e1a7d4d60e01b85528401525af180156108f1579083916108dd575b508390916108d3575b8280929181923390f1156108c957907febedb8b3c678666e7f36970bc8f57abf6d8fa2e828c0da91ea5b75bf68ed101a9181519081527f106f923f993c2149d49b4255ff723acafa1f2d94393f561d3eda32ae348f7241843392a2908338808061081f565b81513d85823e3d90fd5b6108fc9150610864565b6108e690610f38565b61044957813861085b565b85513d85823e3d90fd5b8380fd5b5082606492519162461bcd60e51b8352820152601e60248201527f4661696c656420746f2073656e64205745544820746f20666163746f727900006044820152fd5b90508481813d8311610974575b6109588183610f62565b81010312610970575180151581036109705738610751565b8580fd5b503d61094e565b84513d88823e3d90fd5b602484601184634e487b7160e01b835252fd5b6109a190610f38565b6102ef5782386106de565b50505051903d90823e3d90fd5b5162461bcd60e51b8152602081840152601260248201527f43616e6e6f74207374616b6520302045544800000000000000000000000000006044820152606490fd5b5091346102ef576020806003193601126108fb57813591610a1a611042565b33855260018252610a3083858720541015610e6f565b33855260018252610a5783610a5086882054600386528789205490610eba565b1015610ec7565b610a5f610fc6565b846001600160a01b0360248482600554168851928380926370a0823160e01b825230898301525afa8015610be05786918491610baf575b5010610b9b576005541691823b1561044957602485918388519586948593632e1a7d4d60e01b85528401525af18015610b9157610b7e575b508380838015610b74575b8280929181923390f115610b68577f85082129d87b2fe11527cb1b3b7a520aeb5aa6913f88a3d8757fe40d1db02fdd919233855260018252808520610b1f858254610eba565b9055610b2d84600754610eba565b6007553385526001825264e8d4a51000610b4d8287205460095490610f84565b043386526002835281862055519283523392a25b6001815580f35b505051903d90823e3d90fd5b6108fc9150610ad9565b610b8a90949194610f38565b9238610ace565b84513d87823e3d90fd5b50505050610baa915033611467565b610b61565b809250868092503d8311610bd9575b610bc88183610f62565b810103126102ef5785905138610a96565b503d610bbe565b87513d85823e3d90fd5b5091346102ef57602091826003193601126108fb57813592610c0a611042565b33855260018152610c2084838720541015610e6f565b33855260018152610c4084610a5084882054600385528589205490610eba565b33855260038152818520610c55858254610e4c565b9055806001600160a01b03600554169360248451809681936370a0823160e01b835230908301525afa8015610d3c5784908690610ced575b7f57e41df54512c76148b5ba9b643d149752b0d35e493b969bd017d0a3fe5228cf94501015610cde57610cc08433611467565b33855260038152818520549082519485528401523392a26001815580f35b610ce8843361107d565b610cc0565b50508083813d8311610d35575b610d048183610f62565b8101031261056e57837f57e41df54512c76148b5ba9b643d149752b0d35e493b969bd017d0a3fe5228cf9351610c8d565b503d610cfa565b82513d87823e3d90fd5b5091826003193601126102ef573415610d9d575060207ff8fad42e780bfa5459be3fe691e8ba1aec70342250112139c5771c3fd155f31291610d86610fc6565b610d9234600854610e4c565b60085551348152a180f35b6020606492519162461bcd60e51b8352820152601160248201527f4e6f207265776172647320746f206164640000000000000000000000000000006044820152fd5b9050346104495781600319360112610449576020906008548152f35b600b54811015610e3657600390600b600052027f0175b7a638427703f0dbe7bb9bbf987a2551717b34e79f33b5b1008d1fa01db90190600090565b634e487b7160e01b600052603260045260246000fd5b91908201809211610e5957565b634e487b7160e01b600052601160045260246000fd5b15610e7657565b606460405162461bcd60e51b815260206004820152601b60248201527f496e73756666696369656e74207374616b65642062616c616e636500000000006044820152fd5b91908203918211610e5957565b15610ece57565b608460405162461bcd60e51b815260206004820152602860248201527f556e7374616b6520616d6f756e74206578636565647320617661696c61626c6560448201527f2062616c616e63650000000000000000000000000000000000000000000000006064820152fd5b67ffffffffffffffff8111610f4c57604052565b634e487b7160e01b600052604160045260246000fd5b90601f8019910116810190811067ffffffffffffffff821117610f4c57604052565b81810292918115918404141715610e5957565b8115610fa1570490565b634e487b7160e01b600052601260045260246000fd5b6000198114610e595760010190565b600a5442111561104057600754801561103957610fe5600a5442610eba565b61100162015180610ff96008548094610f84565b048092610eba565b60085564e8d4a5100090818102918183041490151715610e59576110309161102891610f97565b600954610e4c565b60095542600a55565b5042600a55565b565b600260005414611053576002600055565b60046040517f3ee5aeb5000000000000000000000000000000000000000000000000000000008152fd5b9190916001600160a01b03809116926000918483526003602091600383526040928484872054106113fe578493865b600b80548210806113f5575b1561139a578a856110c884610dfb565b5054161480611384575b6110e6575b506110e190610fb7565b6110ac565b906110f6819b9a9998979b610dfb565b506001908101548c1061137d578061110d83610dfb565b500154905b866005541691823b1561137957908a92918651632e1a7d4d60e01b8152848160049584878301528160249889925af1801561136f578f8e848194928294938394611360575b50828215611357575bf11561134d579c7f8afe5678fa641d4c7b1e0e9f5c781e370d85a57d57e7aca780178762158d6243819f8d9e9f898d9e9f6111b5838395896111a18e610dfb565b50016111ae838254610eba565b9055610eba565b9f8682528d52205482519182528b820152a2806111d185610dfb565b500154156111e3575b505050906110d7565b845484101561130c5783815b61126e575b50845494851561125c576000199586019161120e83610dfb565b91909161124b57818f60029281809555820155015555821561123a575050906110e191013880806111da565b60118b91634e487b7160e01b835252fd5b858f8087634e487b7160e01b825252fd5b838d603185634e487b7160e01b835252fd5b855460001981019081116112f557811015611307578181018082116112f55761129690610dfb565b506112a082610dfb565b91909161124b5791818385948594036112bd575b505001906111ef565b8c81541673ffffffffffffffffffffffffffffffffffffffff19835416178255838101548483015560028091015491015538806112b4565b848e601186634e487b7160e01b835252fd5b6111f4565b5060146064928787519362461bcd60e51b85528401528201527f496e646578206f7574206f6620626f756e64732e0000000000000000000000006044820152fd5b86513d8d823e3d90fd5b506108fc611160565b61136990610f38565b38611157565b88513d8f823e3d90fd5b8a80fd5b8b90611112565b50600161139083610dfb565b50015415156110d2565b50509594909250600293506113cc9150969596868552600383528585206113c2828254610eba565b9055600754610eba565b6007558483526001815264e8d4a510006113ec8585205460095490610f84565b04948352522055565b508615156110b8565b60849084519062461bcd60e51b82526004820152602a60248201527f52657175657374656420616d6f756e7420657863656564732070656e64696e6760448201527f20756e7374616b65732e000000000000000000000000000000000000000000006064820152fd5b604051906060820182811067ffffffffffffffff821117610f4c576040526001600160a01b038091169283835260208301928184526040810190428252600b5468010000000000000000811015610f4c578060016114c89201600b55610dfb565b92909261152d577ff24ceb8901eaecb633a833076ec1a09f317122e81bd3bc200d811e0c9bb0814695604095600293511673ffffffffffffffffffffffffffffffffffffffff19855416178455516001840155519101558151908152426020820152a2565b634e487b7160e01b600052600060045260246000fdfea264697066735822122030c8c922a1213021c13d0a667bdb484e571d86bd44bb346aa3042af544817bd764736f6c63430008180033",
  "linkReferences": {},
  "deployedLinkReferences": {}
}