{
  "_format": "hh-sol-artifact-1",
  "contractName": "SimpleStaking",
  "sourceName": "contracts/Staking.sol",
  "abi": [
    {
      "inputs": [
        {
          "internalType": "address",
          "name": "_weth",
          "type": "address"
        },
        {
          "internalType": "address",
          "name": "factory",
          "type": "address"
        }
      ],
      "stateMutability": "nonpayable",
      "type": "constructor"
    },
    {
      "inputs": [],
      "name": "ReentrancyGuardReentrantCall",
      "type": "error"
    },
    {
      "anonymous": false,
      "inputs": [
        {
          "indexed": false,
          "internalType": "uint256",
          "name": "availableWETH",
          "type": "uint256"
        }
      ],
      "name": "DebugAvailableWETH",
      "type": "event"
    },
    {
      "anonymous": false,
      "inputs": [
        {
          "indexed": false,
          "internalType": "address",
          "name": "user",
          "type": "address"
        },
        {
          "indexed": false,
          "internalType": "uint256",
          "name": "amountToProcess",
          "type": "uint256"
        }
      ],
      "name": "DebugProcessAttempt",
      "type": "event"
    },
    {
      "anonymous": false,
      "inputs": [
        {
          "indexed": false,
          "internalType": "address",
          "name": "user",
          "type": "address"
        },
        {
          "indexed": false,
          "internalType": "uint256",
          "name": "amount",
          "type": "uint256"
        }
      ],
      "name": "FailedToProcessUnstake",
      "type": "event"
    },
    {
      "anonymous": false,
      "inputs": [
        {
          "indexed": false,
          "internalType": "uint256",
          "name": "amount",
          "type": "uint256"
        },
        {
          "indexed": false,
          "internalType": "uint256",
          "name": "timestamp",
          "type": "uint256"
        }
      ],
      "name": "FundsReceived",
      "type": "event"
    },
    {
      "anonymous": false,
      "inputs": [
        {
          "indexed": false,
          "internalType": "uint256",
          "name": "amount",
          "type": "uint256"
        }
      ],
      "name": "FundsRequested",
      "type": "event"
    },
    {
      "anonymous": false,
      "inputs": [
        {
          "indexed": false,
          "internalType": "uint256",
          "name": "amountNeeded",
          "type": "uint256"
        }
      ],
      "name": "NotifyFactoryForFunds",
      "type": "event"
    },
    {
      "anonymous": false,
      "inputs": [
        {
          "indexed": false,
          "internalType": "address",
          "name": "user",
          "type": "address"
        },
        {
          "indexed": false,
          "internalType": "uint256",
          "name": "requestedAmount",
          "type": "uint256"
        },
        {
          "indexed": false,
          "internalType": "string",
          "name": "error",
          "type": "string"
        }
      ],
      "name": "ProcessUnstakeError",
      "type": "event"
    },
    {
      "anonymous": false,
      "inputs": [
        {
          "indexed": true,
          "internalType": "address",
          "name": "user",
          "type": "address"
        },
        {
          "indexed": false,
          "internalType": "uint256",
          "name": "amount",
          "type": "uint256"
        }
      ],
      "name": "RewardClaimed",
      "type": "event"
    },
    {
      "anonymous": false,
      "inputs": [
        {
          "indexed": false,
          "internalType": "uint256",
          "name": "amount",
          "type": "uint256"
        }
      ],
      "name": "RewardsAdded",
      "type": "event"
    },
    {
      "anonymous": false,
      "inputs": [
        {
          "indexed": true,
          "internalType": "address",
          "name": "user",
          "type": "address"
        },
        {
          "indexed": false,
          "internalType": "uint256",
          "name": "amount",
          "type": "uint256"
        }
      ],
      "name": "Stake",
      "type": "event"
    },
    {
      "anonymous": false,
      "inputs": [
        {
          "indexed": false,
          "internalType": "uint256",
          "name": "newTotalRewards",
          "type": "uint256"
        }
      ],
      "name": "TotalRewardsUpdated",
      "type": "event"
    },
    {
      "anonymous": false,
      "inputs": [
        {
          "indexed": true,
          "internalType": "address",
          "name": "user",
          "type": "address"
        },
        {
          "indexed": false,
          "internalType": "uint256",
          "name": "amount",
          "type": "uint256"
        }
      ],
      "name": "Unstake",
      "type": "event"
    },
    {
      "anonymous": false,
      "inputs": [
        {
          "indexed": true,
          "internalType": "address",
          "name": "user",
          "type": "address"
        },
        {
          "indexed": false,
          "internalType": "uint256",
          "name": "amount",
          "type": "uint256"
        },
        {
          "indexed": false,
          "internalType": "uint256",
          "name": "pendingAmount",
          "type": "uint256"
        }
      ],
      "name": "UnstakeProcessed",
      "type": "event"
    },
    {
      "anonymous": false,
      "inputs": [
        {
          "indexed": true,
          "internalType": "address",
          "name": "user",
          "type": "address"
        },
        {
          "indexed": false,
          "internalType": "uint256",
          "name": "amount",
          "type": "uint256"
        },
        {
          "indexed": false,
          "internalType": "uint256",
          "name": "timestamp",
          "type": "uint256"
        }
      ],
      "name": "UnstakeQueued",
      "type": "event"
    },
    {
      "anonymous": false,
      "inputs": [
        {
          "indexed": false,
          "internalType": "uint256",
          "name": "index",
          "type": "uint256"
        },
        {
          "indexed": false,
          "internalType": "address",
          "name": "user",
          "type": "address"
        },
        {
          "indexed": false,
          "internalType": "uint256",
          "name": "amount",
          "type": "uint256"
        },
        {
          "indexed": false,
          "internalType": "uint256",
          "name": "pendingUnstakes",
          "type": "uint256"
        }
      ],
      "name": "UnstakeRequestDetails",
      "type": "event"
    },
    {
      "anonymous": false,
      "inputs": [
        {
          "indexed": true,
          "internalType": "address",
          "name": "user",
          "type": "address"
        },
        {
          "indexed": false,
          "internalType": "uint256",
          "name": "amount",
          "type": "uint256"
        },
        {
          "indexed": false,
          "internalType": "uint256",
          "name": "pendingAmount",
          "type": "uint256"
        }
      ],
      "name": "UnstakeRequested",
      "type": "event"
    },
    {
      "anonymous": false,
      "inputs": [
        {
          "indexed": false,
          "internalType": "address",
          "name": "user",
          "type": "address"
        },
        {
          "indexed": false,
          "internalType": "uint256",
          "name": "processedAmount",
          "type": "uint256"
        },
        {
          "indexed": false,
          "internalType": "uint256",
          "name": "remainingWETH",
          "type": "uint256"
        }
      ],
      "name": "WETHProcessed",
      "type": "event"
    },
    {
      "stateMutability": "payable",
      "type": "fallback"
    },
    {
      "inputs": [],
      "name": "REWARD_INTERVAL",
      "outputs": [
        {
          "internalType": "uint256",
          "name": "",
          "type": "uint256"
        }
      ],
      "stateMutability": "view",
      "type": "function"
    },
    {
      "inputs": [],
      "name": "accRewardPerShare",
      "outputs": [
        {
          "internalType": "uint256",
          "name": "",
          "type": "uint256"
        }
      ],
      "stateMutability": "view",
      "type": "function"
    },
    {
      "inputs": [],
      "name": "addRewards",
      "outputs": [],
      "stateMutability": "payable",
      "type": "function"
    },
    {
      "inputs": [],
      "name": "claimRewards",
      "outputs": [],
      "stateMutability": "nonpayable",
      "type": "function"
    },
    {
      "inputs": [],
      "name": "factoryAddress",
      "outputs": [
        {
          "internalType": "address",
          "name": "",
          "type": "address"
        }
      ],
      "stateMutability": "view",
      "type": "function"
    },
    {
      "inputs": [
        {
          "internalType": "address",
          "name": "staker",
          "type": "address"
        }
      ],
      "name": "getStake",
      "outputs": [
        {
          "internalType": "uint256",
          "name": "",
          "type": "uint256"
        }
      ],
      "stateMutability": "view",
      "type": "function"
    },
    {
      "inputs": [],
      "name": "getTotalRewards",
      "outputs": [
        {
          "internalType": "uint256",
          "name": "",
          "type": "uint256"
        }
      ],
      "stateMutability": "view",
      "type": "function"
    },
    {
      "inputs": [],
      "name": "getTotalStaked",
      "outputs": [
        {
          "internalType": "uint256",
          "name": "",
          "type": "uint256"
        }
      ],
      "stateMutability": "view",
      "type": "function"
    },
    {
      "inputs": [],
      "name": "getTotalUnstakeQueueAmount",
      "outputs": [
        {
          "internalType": "uint256",
          "name": "totalAmount",
          "type": "uint256"
        }
      ],
      "stateMutability": "view",
      "type": "function"
    },
    {
      "inputs": [],
      "name": "getUnstakeQueueLength",
      "outputs": [
        {
          "internalType": "uint256",
          "name": "",
          "type": "uint256"
        }
      ],
      "stateMutability": "view",
      "type": "function"
    },
    {
      "inputs": [
        {
          "internalType": "uint256",
          "name": "index",
          "type": "uint256"
        }
      ],
      "name": "getUnstakeRequest",
      "outputs": [
        {
          "internalType": "address",
          "name": "user",
          "type": "address"
        },
        {
          "internalType": "uint256",
          "name": "amount",
          "type": "uint256"
        },
        {
          "internalType": "uint256",
          "name": "timestamp",
          "type": "uint256"
        }
      ],
      "stateMutability": "view",
      "type": "function"
    },
    {
      "inputs": [],
      "name": "handleReceivedWETHFromScript",
      "outputs": [],
      "stateMutability": "nonpayable",
      "type": "function"
    },
    {
      "inputs": [],
      "name": "lastRewardTime",
      "outputs": [
        {
          "internalType": "uint256",
          "name": "",
          "type": "uint256"
        }
      ],
      "stateMutability": "view",
      "type": "function"
    },
    {
      "inputs": [
        {
          "internalType": "uint256",
          "name": "amount",
          "type": "uint256"
        }
      ],
      "name": "notifyFundsReceived",
      "outputs": [],
      "stateMutability": "nonpayable",
      "type": "function"
    },
    {
      "inputs": [],
      "name": "owner",
      "outputs": [
        {
          "internalType": "address",
          "name": "",
          "type": "address"
        }
      ],
      "stateMutability": "view",
      "type": "function"
    },
    {
      "inputs": [
        {
          "internalType": "address",
          "name": "_user",
          "type": "address"
        }
      ],
      "name": "pendingReward",
      "outputs": [
        {
          "internalType": "uint256",
          "name": "",
          "type": "uint256"
        }
      ],
      "stateMutability": "view",
      "type": "function"
    },
    {
      "inputs": [
        {
          "internalType": "address",
          "name": "",
          "type": "address"
        }
      ],
      "name": "pendingUnstakes",
      "outputs": [
        {
          "internalType": "uint256",
          "name": "",
          "type": "uint256"
        }
      ],
      "stateMutability": "view",
      "type": "function"
    },
    {
      "inputs": [
        {
          "internalType": "uint256",
          "name": "amount",
          "type": "uint256"
        }
      ],
      "name": "requestUnstake",
      "outputs": [],
      "stateMutability": "nonpayable",
      "type": "function"
    },
    {
      "inputs": [
        {
          "internalType": "address",
          "name": "",
          "type": "address"
        }
      ],
      "name": "rewardDebt",
      "outputs": [
        {
          "internalType": "uint256",
          "name": "",
          "type": "uint256"
        }
      ],
      "stateMutability": "view",
      "type": "function"
    },
    {
      "inputs": [],
      "name": "rewardRate",
      "outputs": [
        {
          "internalType": "uint256",
          "name": "",
          "type": "uint256"
        }
      ],
      "stateMutability": "view",
      "type": "function"
    },
    {
      "inputs": [
        {
          "internalType": "address",
          "name": "_factoryAddress",
          "type": "address"
        }
      ],
      "name": "setFactoryAddress",
      "outputs": [],
      "stateMutability": "nonpayable",
      "type": "function"
    },
    {
      "inputs": [],
      "name": "stake",
      "outputs": [],
      "stateMutability": "payable",
      "type": "function"
    },
    {
      "inputs": [
        {
          "internalType": "address",
          "name": "",
          "type": "address"
        }
      ],
      "name": "stakes",
      "outputs": [
        {
          "internalType": "uint256",
          "name": "",
          "type": "uint256"
        }
      ],
      "stateMutability": "view",
      "type": "function"
    },
    {
      "inputs": [],
      "name": "totalFundsNeeded",
      "outputs": [
        {
          "internalType": "uint256",
          "name": "",
          "type": "uint256"
        }
      ],
      "stateMutability": "view",
      "type": "function"
    },
    {
      "inputs": [],
      "name": "totalRewards",
      "outputs": [
        {
          "internalType": "uint256",
          "name": "",
          "type": "uint256"
        }
      ],
      "stateMutability": "view",
      "type": "function"
    },
    {
      "inputs": [],
      "name": "totalStaked",
      "outputs": [
        {
          "internalType": "uint256",
          "name": "",
          "type": "uint256"
        }
      ],
      "stateMutability": "view",
      "type": "function"
    },
    {
      "inputs": [
        {
          "internalType": "uint256",
          "name": "",
          "type": "uint256"
        }
      ],
      "name": "unstakeQueue",
      "outputs": [
        {
          "internalType": "address",
          "name": "user",
          "type": "address"
        },
        {
          "internalType": "uint256",
          "name": "amount",
          "type": "uint256"
        },
        {
          "internalType": "uint256",
          "name": "timestamp",
          "type": "uint256"
        }
      ],
      "stateMutability": "view",
      "type": "function"
    },
    {
      "inputs": [],
      "name": "weth",
      "outputs": [
        {
          "internalType": "address",
          "name": "",
          "type": "address"
        }
      ],
      "stateMutability": "view",
      "type": "function"
    },
    {
      "stateMutability": "payable",
      "type": "receive"
    }
  ],
  "bytecode": "0x60803461009d57601f62001aa638819003918201601f19168301916001600160401b038311848410176100a257808492604094855283398101031261009d57610053602061004c836100b8565b92016100b8565b90600160005560018060a01b0319913383600654161760065542600a5560018060a01b03809216836005541617600555169060045416176004556040516119d99081620000cd8239f35b600080fd5b634e487b7160e01b600052604160045260246000fd5b51906001600160a01b038216820361009d5756fe608060408181526004918236101561001f575b505050361561001d57005b005b600090813560e01c9081630917e77614611521575080630e15561a1461028957806314d6aed0146113de57806316934fc414610766578063230957211461105a578063372500ab14610dc95780633a4b66f114610a3a5780633bac9c9914610a1b5780633fc8cef3146109f35780635873eb9b146109ba5780635dbdda691461099c578063743432051461079f5780637a766460146107665780637b0a47ee14610747578063817b1cd21461072857806383c17c551461068f5780638da5cb5b146106675780639231cf7414610648578063939d623714610629578063966dae0e146106035780639b5ceb35146103cc578063afa58070146103a3578063b8e347df14610386578063d6b6b23f14610349578063ddb59e13146102a8578063e627f2db14610289578063f3385ace146102665763f40f0f52036100125734610263576020366003190112610263578235906001600160a01b03821680920361026357600954600a5480421180610258575b6101cf575b6020856101c886828764e8d4a510006101b8898584526001895284842054611651565b0492815260028652205490611664565b9051908152f35b6101dc6101e59142611664565b600b5490611651565b600854808211610250575b5064e8d4a510009081810291818304149015171561023d57602095509164e8d4a510006101b8610232879461022c6101c8989760075490611631565b9061160e565b935050509192610195565b602483601188634e487b7160e01b835252fd5b9050386101f0565b506007541515610190565b80fd5b509034610285578160031936011261028557602090600d549051908152f35b5080fd5b5090346102855781600319360112610285576020906008549051908152f35b508290346102635760203660031901126102635750803590600c5482101561030657506102d49061153d565b508054600182015460029092015492516001600160a01b03909116815260208101919091526040810191909152606090f35b606490602084519162461bcd60e51b8352820152601360248201527f496e646578206f7574206f6620626f756e6473000000000000000000000000006044820152fd5b50913461038257602036600319011261038257356001600160a01b03811680910361038257828291602094526003845220549051908152f35b8280fd5b5090346102855781600319360112610285576020906101c8611671565b508234610285576020366003190112610285573590600c5482101561026357506102d49061153d565b50346102635760209081600319360112610263576001600160a01b03918285541633036105c1577f063d07ee72a7483b8e07ca09054bb686775c5c030f945dde3823a5257a0a93eb848051873581524284820152a18260055416928451906370a0823160e01b82523087830152828260248181985afa9182156105b7578492610583575b507f264b03945932e4bc51e688f9f27dbb1f5faba7660d11abdbf7e7f41ed87928ba83838851908152a18384965b600c93845489108061057a575b15610536576104998961153d565b50600181810180549092909182851061050f57506104c6939291876104bf925416611760565b5490611664565b935460001981019081116104fd576104e06104f09161153d565b506104ea8a61153d565b906118fb565b6104f861195e565b61047e565b878760118c634e487b7160e01b835252fd5b949b959250508261052593975061022c91611664565b9160001981146104fd57019661047e565b5084869280610543578380f35b7fd5e85995d9bdcdafb72531ec59faef29167c16780583ca2068587fe896170c479261056e82611862565b51908152a18180808380f35b5080151561048b565b9091508281813d83116105b0575b61059b81836115ec565b810103126105ab57519038610450565b600080fd5b503d610591565b86513d86823e3d90fd5b8460649185519162461bcd60e51b8352820152601760248201527f4f6e6c7920666163746f72792063616e206e6f746966790000000000000000006044820152fd5b5034610263578060031936011261026357506001600160a01b0360209254169051908152f35b5090346102855781600319360112610285576020906009549051908152f35b509034610285578160031936011261028557602090600a549051908152f35b5090346102855781600319360112610285576020906001600160a01b03600654169051908152f35b50919034610382576020366003190112610382578135906001600160a01b03808316809303610724576006541633036106e2575073ffffffffffffffffffffffffffffffffffffffff1982541617905580f35b5162461bcd60e51b8152602081840152601760248201527f43616c6c6572206973206e6f7420746865206f776e65720000000000000000006044820152606490fd5b8480fd5b5090346102855781600319360112610285576020906007549051908152f35b509034610285578160031936011261028557602090600b549051908152f35b50913461038257602036600319011261038257356001600160a01b03811680910361038257828291602094526001845220549051908152f35b5091346103825782600319360112610382576001600160a01b03806005541683519182916370a0823160e01b8352308584015282602460209586935afa918215610992578692610963575b507f264b03945932e4bc51e688f9f27dbb1f5faba7660d11abdbf7e7f41ed87928ba838651848152a1600c5461081e578580f35b61082661158e565b50818154169260018201937faeadbfc8febf10d119916528ecb37175473490279c943963f050330e4c90e959608086549260028601548b51918d83528a830152848c8301526060820152a180821061091c57505054915461088992909116611760565b600c549283156108db57505060001982019182116108c857506108ae6108b79161153d565b506104ea61158e565b6108bf61195e565b38808080808580f35b826011602492634e487b7160e01b835252fd5b60649350519162461bcd60e51b8352820152601460248201527f496e646578206f7574206f6620626f756e64732e0000000000000000000000006044820152fd5b915091507fd5e85995d9bdcdafb72531ec59faef29167c16780583ca2068587fe896170c479593945061094f9250611664565b9061095982611862565b51908152a16108bf565b9091508281813d831161098b575b61097b81836115ec565b810103126105ab575190386107ea565b503d610971565b85513d88823e3d90fd5b5090346102855781600319360112610285576020905162093a808152f35b50913461038257602036600319011261038257356001600160a01b03811680910361038257828291602094526002845220549051908152f35b5090346102855781600319360112610285576020906001600160a01b03600554169051908152f35b509034610285578160031936011261028557602090600c549051908152f35b5091908260031936011261038257610a50611725565b3415610d8657610a5e6116a7565b6001600160a01b0391838360055416803b1561028557818391855192838092630d0e30db60e41b825234905af18015610d7c57610d68575b505060463402348104604603610d55576064900492610ab58434611664565b50806005541681835416845180927fa9059cbb000000000000000000000000000000000000000000000000000000008252818981610b0f60209b8c978b8401602090939291936001600160a01b0360408201951681520152565b03925af1908115610d4b578691610d11575b5015610ccf578490338252600185528382205480610bbc575b82867febedb8b3c678666e7f36970bc8f57abf6d8fa2e828c0da91ea5b75bf68ed101a8733845260018352808420610b7334825461160e565b9055610b813460075461160e565b6007553384526001835264e8d4a51000610ba18286205460095490611651565b04338552600284528185205551913483523392a26001815580f35b64e8d4a51000610bd2610be49260095490611651565b04338452600287528584205490611664565b928315918215610bf5575b50610b3a565b6005541690813b15610ccb5784602485928389519586948593632e1a7d4d60e01b85528401525af18015610cc157908391610cad575b50839091610ca3575b8280929181923390f115610c9957907febedb8b3c678666e7f36970bc8f57abf6d8fa2e828c0da91ea5b75bf68ed101a9181519081527f106f923f993c2149d49b4255ff723acafa1f2d94393f561d3eda32ae348f7241843392a29083388080610bef565b81513d85823e3d90fd5b6108fc9150610c34565b610cb6906115c2565b610285578138610c2b565b85513d85823e3d90fd5b8380fd5b5082606492519162461bcd60e51b8352820152601e60248201527f4661696c656420746f2073656e64205745544820746f20666163746f727900006044820152fd5b90508481813d8311610d44575b610d2881836115ec565b81010312610d4057518015158103610d405738610b21565b8580fd5b503d610d1e565b84513d88823e3d90fd5b602485601184634e487b7160e01b835252fd5b610d71906115c2565b610ccb578338610a96565b84513d84823e3d90fd5b906020606492519162461bcd60e51b8352820152601260248201527f43616e6e6f74207374616b6520302045544800000000000000000000000000006044820152fd5b50919034610382578260031936011261038257610de4611725565b610dec6116a7565b33835260209060018252808420548015610ff257610e1364e8d4a510009160095490611651565b049233855260028352610e298286205485611664565b938415610fb057600854858110610f6e5785610e4491611664565b6008553386526002845282862055846001600160a01b0360055416803b15610285578180916024865180948193632e1a7d4d60e01b83528b898401525af18015610d7c57610f5a575b5080808087335af13d15610f55573d67ffffffffffffffff8111610f4257835190610ec1601f8201601f19168701836115ec565b815286853d92013e5b15610f015750907f106f923f993c2149d49b4255ff723acafa1f2d94393f561d3eda32ae348f724191519283523392a26001815580f35b82606492519162461bcd60e51b8352820152601260248201527f4661696c656420746f2073656e642045544800000000000000000000000000006044820152fd5b602487604185634e487b7160e01b835252fd5b610eca565b610f63906115c2565b610724578438610e8d565b6064838686519162461bcd60e51b8352820152601a60248201527f4e6f7420656e6f756768207265776172647320696e20706f6f6c0000000000006044820152fd5b5082606492519162461bcd60e51b8352820152601360248201527f4e6f207265776172647320746f20636c61696d000000000000000000000000006044820152fd5b5060849350519162461bcd60e51b8352820152602560248201527f4e6f207374616b656420616d6f756e7420746f20636c61696d2072657761726460448201527f7320666f720000000000000000000000000000000000000000000000000000006064820152fd5b50903461028557602090816003193601126103825783359161107a611725565b3384526001815282828520541061139c576001600160a01b038060055416835183816024816370a0823160e01b95868252308d8301525afa90811561135d57908691889161136b575b5010611118575050829394506110fa7f57e41df54512c76148b5ba9b643d149752b0d35e493b969bd017d0a3fe5228cf9333611760565b33855260038152818520549082519485528401523392a26001815580f35b81875416803b156113675784517fbe5ef17600000000000000000000000000000000000000000000000000000000815230818a01908152602081018890529091889183919082908490829060400103925af1801561135d57908791611349575b50508282600554169160248651809481938252308c8301525afa908115610d4b579085918791611318575b50106111de5750829394506111d97f57e41df54512c76148b5ba9b643d149752b0d35e493b969bd017d0a3fe5228cf9333611760565b6110fa565b338552600382528285206111f385825461160e565b90558251906060820182811067ffffffffffffffff82111761130357845233825282820185815284830191428352600c54680100000000000000008110156112f0578060016112459201600c5561153d565b9490946112de577f57e41df54512c76148b5ba9b643d149752b0d35e493b969bd017d0a3fe5228cf97989950906002939291511673ffffffffffffffffffffffffffffffffffffffff1985541617845551600184015551910155815184815242828201527ff24ceb8901eaecb633a833076ec1a09f317122e81bd3bc200d811e0c9bb08146833392a26111d96112d9611671565b611862565b602489808c634e487b7160e01b825252fd5b60248960418c634e487b7160e01b835252fd5b604188634e487b7160e01b6000525260246000fd5b809250848092503d8311611342575b61133181836115ec565b810103126105ab57849051386111a3565b503d611327565b611352906115c2565b610d40578538611178565b85513d89823e3d90fd5b8680fd5b809250858092503d8311611395575b61138481836115ec565b810103126105ab57859051386110c3565b503d61137a565b8490606492519162461bcd60e51b8352820152601b60248201527f496e73756666696369656e74207374616b65642062616c616e636500000000006044820152fd5b5091826003193601126103825734156114df57826001600160a01b0360055416803b1561028557835192838092630d0e30db60e41b825234905af180156114d35761149d575b5060207ff8fad42e780bfa5459be3fe691e8ba1aec70342250112139c5771c3fd155f3129162093a806114593460085461160e565b806008557f8629690313970e9e42939fc905246bd1ff3a69dae5efc961f8b40a91a838dffe848451838152a104600b5542600a556114956116a7565b51348152a180f35b7ff8fad42e780bfa5459be3fe691e8ba1aec70342250112139c5771c3fd155f31291926114cb6020926115c2565b929150611424565b505051903d90823e3d90fd5b6020606492519162461bcd60e51b8352820152601160248201527f4e6f207265776172647320746f206164640000000000000000000000000000006044820152fd5b9050346102855781600319360112610285576020906007548152f35b600c5481101561157857600390600c600052027fdf6966c971051c3d54ec59162606531493a51404a002842f56009d7e5cf4a8c70190600090565b634e487b7160e01b600052603260045260246000fd5b600c541561157857600c6000527fdf6966c971051c3d54ec59162606531493a51404a002842f56009d7e5cf4a8c790600090565b67ffffffffffffffff81116115d657604052565b634e487b7160e01b600052604160045260246000fd5b90601f8019910116810190811067ffffffffffffffff8211176115d657604052565b9190820180921161161b57565b634e487b7160e01b600052601160045260246000fd5b811561163b570490565b634e487b7160e01b600052601260045260246000fd5b8181029291811591840414171561161b57565b9190820391821161161b57565b600080600c545b80821061168457505090565b909161169f600191826116968661153d565b5001549061160e565b920190611678565b600a5442111561172357600754801561171c576116c96101dc600a5442611664565b600854808211611714575b64e8d4a510009283830293838504148315171561161b576116fb6117039161170b95611631565b60095461160e565b600955611664565b60085542600a55565b9050806116d4565b5042600a55565b565b600260005414611736576002600055565b60046040517f3ee5aeb5000000000000000000000000000000000000000000000000000000008152fd5b90600554916000926001600160a01b0380911691823b156107245784806040946024865180948193632e1a7d4d60e01b83528a60048401525af18015610d4b5761184f575b501692808385828215611846575b839283928392f11561183b579160209183857f85082129d87b2fe11527cb1b3b7a520aeb5aa6913f88a3d8757fe40d1db02fdd9552600184528181206117fa848254611664565b905561180883600754611664565b600755858152600184528164e8d4a510006118298284205460095490611651565b049187815260028652205551908152a2565b9051903d90823e3d90fd5b506108fc6117b3565b61185b909591956115c2565b93386117a5565b7fac0a36a73050720c3fa0d6988cca2309ef4472b3b09fafa8e713f434ff33a05b6020604051838152a16001600160a01b036004541690813b156105ab576000916024839260405194859384927f8c3a65a200000000000000000000000000000000000000000000000000000000845260048401525af180156118ef576118e65750565b611723906115c2565b6040513d6000823e3d90fd5b91906119485780820361190c575050565b6002816001600160a01b038293541673ffffffffffffffffffffffffffffffffffffffff19855416178455600181015460018501550154910155565b634e487b7160e01b600052600060045260246000fd5b600c54801561198d57600019016119748161153d565b6119485760028160008093558260018201550155600c55565b634e487b7160e01b600052603160045260246000fdfea2646970667358221220315bdb25ac80331e57d4a2fd65e11b0054d60d53e56565ae6d93874ea5e068fa64736f6c63430008180033",
  "linkReferences": {},
  "deployedLinkReferences": {}
}