{
  "_format": "hh-sol-artifact-1",
  "contractName": "SimpleStaking",
  "sourceName": "contracts/Staking.sol",
  "abi": [
    {
      "inputs": [
        {
          "internalType": "address",
          "name": "_weth",
          "type": "address"
        },
        {
          "internalType": "address",
          "name": "factory",
          "type": "address"
        }
      ],
      "stateMutability": "nonpayable",
      "type": "constructor"
    },
    {
      "inputs": [],
      "name": "ReentrancyGuardReentrantCall",
      "type": "error"
    },
    {
      "anonymous": false,
      "inputs": [
        {
          "indexed": false,
          "internalType": "uint256",
          "name": "availableWETH",
          "type": "uint256"
        }
      ],
      "name": "DebugAvailableWETH",
      "type": "event"
    },
    {
      "anonymous": false,
      "inputs": [
        {
          "indexed": false,
          "internalType": "address",
          "name": "user",
          "type": "address"
        },
        {
          "indexed": false,
          "internalType": "uint256",
          "name": "amountToProcess",
          "type": "uint256"
        }
      ],
      "name": "DebugProcessAttempt",
      "type": "event"
    },
    {
      "anonymous": false,
      "inputs": [
        {
          "indexed": false,
          "internalType": "address",
          "name": "user",
          "type": "address"
        },
        {
          "indexed": false,
          "internalType": "uint256",
          "name": "amount",
          "type": "uint256"
        }
      ],
      "name": "FailedToProcessUnstake",
      "type": "event"
    },
    {
      "anonymous": false,
      "inputs": [
        {
          "indexed": false,
          "internalType": "uint256",
          "name": "amount",
          "type": "uint256"
        },
        {
          "indexed": false,
          "internalType": "uint256",
          "name": "timestamp",
          "type": "uint256"
        }
      ],
      "name": "FundsReceived",
      "type": "event"
    },
    {
      "anonymous": false,
      "inputs": [
        {
          "indexed": false,
          "internalType": "uint256",
          "name": "amount",
          "type": "uint256"
        }
      ],
      "name": "FundsRequested",
      "type": "event"
    },
    {
      "anonymous": false,
      "inputs": [
        {
          "indexed": false,
          "internalType": "uint256",
          "name": "amountNeeded",
          "type": "uint256"
        }
      ],
      "name": "NotifyFactoryForFunds",
      "type": "event"
    },
    {
      "anonymous": false,
      "inputs": [
        {
          "indexed": false,
          "internalType": "address",
          "name": "user",
          "type": "address"
        },
        {
          "indexed": false,
          "internalType": "uint256",
          "name": "requestedAmount",
          "type": "uint256"
        },
        {
          "indexed": false,
          "internalType": "string",
          "name": "error",
          "type": "string"
        }
      ],
      "name": "ProcessUnstakeError",
      "type": "event"
    },
    {
      "anonymous": false,
      "inputs": [
        {
          "indexed": true,
          "internalType": "address",
          "name": "user",
          "type": "address"
        },
        {
          "indexed": false,
          "internalType": "uint256",
          "name": "amount",
          "type": "uint256"
        }
      ],
      "name": "RewardClaimed",
      "type": "event"
    },
    {
      "anonymous": false,
      "inputs": [
        {
          "indexed": false,
          "internalType": "uint256",
          "name": "amount",
          "type": "uint256"
        }
      ],
      "name": "RewardsAdded",
      "type": "event"
    },
    {
      "anonymous": false,
      "inputs": [
        {
          "indexed": true,
          "internalType": "address",
          "name": "user",
          "type": "address"
        },
        {
          "indexed": false,
          "internalType": "uint256",
          "name": "amount",
          "type": "uint256"
        }
      ],
      "name": "Stake",
      "type": "event"
    },
    {
      "anonymous": false,
      "inputs": [
        {
          "indexed": false,
          "internalType": "uint256",
          "name": "newTotalRewards",
          "type": "uint256"
        }
      ],
      "name": "TotalRewardsUpdated",
      "type": "event"
    },
    {
      "anonymous": false,
      "inputs": [
        {
          "indexed": true,
          "internalType": "address",
          "name": "user",
          "type": "address"
        },
        {
          "indexed": false,
          "internalType": "uint256",
          "name": "amount",
          "type": "uint256"
        }
      ],
      "name": "Unstake",
      "type": "event"
    },
    {
      "anonymous": false,
      "inputs": [
        {
          "indexed": true,
          "internalType": "address",
          "name": "user",
          "type": "address"
        },
        {
          "indexed": false,
          "internalType": "uint256",
          "name": "amount",
          "type": "uint256"
        },
        {
          "indexed": false,
          "internalType": "uint256",
          "name": "pendingAmount",
          "type": "uint256"
        }
      ],
      "name": "UnstakeProcessed",
      "type": "event"
    },
    {
      "anonymous": false,
      "inputs": [
        {
          "indexed": true,
          "internalType": "address",
          "name": "user",
          "type": "address"
        },
        {
          "indexed": false,
          "internalType": "uint256",
          "name": "amount",
          "type": "uint256"
        },
        {
          "indexed": false,
          "internalType": "uint256",
          "name": "timestamp",
          "type": "uint256"
        }
      ],
      "name": "UnstakeQueued",
      "type": "event"
    },
    {
      "anonymous": false,
      "inputs": [
        {
          "indexed": false,
          "internalType": "uint256",
          "name": "index",
          "type": "uint256"
        },
        {
          "indexed": false,
          "internalType": "address",
          "name": "user",
          "type": "address"
        },
        {
          "indexed": false,
          "internalType": "uint256",
          "name": "amount",
          "type": "uint256"
        },
        {
          "indexed": false,
          "internalType": "uint256",
          "name": "pendingUnstakes",
          "type": "uint256"
        }
      ],
      "name": "UnstakeRequestDetails",
      "type": "event"
    },
    {
      "anonymous": false,
      "inputs": [
        {
          "indexed": true,
          "internalType": "address",
          "name": "user",
          "type": "address"
        },
        {
          "indexed": false,
          "internalType": "uint256",
          "name": "amount",
          "type": "uint256"
        },
        {
          "indexed": false,
          "internalType": "uint256",
          "name": "pendingAmount",
          "type": "uint256"
        }
      ],
      "name": "UnstakeRequested",
      "type": "event"
    },
    {
      "anonymous": false,
      "inputs": [
        {
          "indexed": false,
          "internalType": "address",
          "name": "user",
          "type": "address"
        },
        {
          "indexed": false,
          "internalType": "uint256",
          "name": "processedAmount",
          "type": "uint256"
        },
        {
          "indexed": false,
          "internalType": "uint256",
          "name": "remainingWETH",
          "type": "uint256"
        }
      ],
      "name": "WETHProcessed",
      "type": "event"
    },
    {
      "stateMutability": "payable",
      "type": "fallback"
    },
    {
      "inputs": [],
      "name": "REWARD_INTERVAL",
      "outputs": [
        {
          "internalType": "uint256",
          "name": "",
          "type": "uint256"
        }
      ],
      "stateMutability": "view",
      "type": "function"
    },
    {
      "inputs": [],
      "name": "accRewardPerShare",
      "outputs": [
        {
          "internalType": "uint256",
          "name": "",
          "type": "uint256"
        }
      ],
      "stateMutability": "view",
      "type": "function"
    },
    {
      "inputs": [],
      "name": "addRewards",
      "outputs": [],
      "stateMutability": "payable",
      "type": "function"
    },
    {
      "inputs": [],
      "name": "claimRewards",
      "outputs": [],
      "stateMutability": "nonpayable",
      "type": "function"
    },
    {
      "inputs": [],
      "name": "factoryAddress",
      "outputs": [
        {
          "internalType": "address",
          "name": "",
          "type": "address"
        }
      ],
      "stateMutability": "view",
      "type": "function"
    },
    {
      "inputs": [
        {
          "internalType": "address",
          "name": "staker",
          "type": "address"
        }
      ],
      "name": "getStake",
      "outputs": [
        {
          "internalType": "uint256",
          "name": "",
          "type": "uint256"
        }
      ],
      "stateMutability": "view",
      "type": "function"
    },
    {
      "inputs": [],
      "name": "getTotalRewards",
      "outputs": [
        {
          "internalType": "uint256",
          "name": "",
          "type": "uint256"
        }
      ],
      "stateMutability": "view",
      "type": "function"
    },
    {
      "inputs": [],
      "name": "getTotalStaked",
      "outputs": [
        {
          "internalType": "uint256",
          "name": "",
          "type": "uint256"
        }
      ],
      "stateMutability": "view",
      "type": "function"
    },
    {
      "inputs": [],
      "name": "getTotalUnstakeQueueAmount",
      "outputs": [
        {
          "internalType": "uint256",
          "name": "totalAmount",
          "type": "uint256"
        }
      ],
      "stateMutability": "view",
      "type": "function"
    },
    {
      "inputs": [],
      "name": "getUnstakeQueueLength",
      "outputs": [
        {
          "internalType": "uint256",
          "name": "",
          "type": "uint256"
        }
      ],
      "stateMutability": "view",
      "type": "function"
    },
    {
      "inputs": [
        {
          "internalType": "uint256",
          "name": "index",
          "type": "uint256"
        }
      ],
      "name": "getUnstakeRequest",
      "outputs": [
        {
          "internalType": "address",
          "name": "user",
          "type": "address"
        },
        {
          "internalType": "uint256",
          "name": "amount",
          "type": "uint256"
        },
        {
          "internalType": "uint256",
          "name": "timestamp",
          "type": "uint256"
        }
      ],
      "stateMutability": "view",
      "type": "function"
    },
    {
      "inputs": [],
      "name": "handleReceivedWETH",
      "outputs": [],
      "stateMutability": "nonpayable",
      "type": "function"
    },
    {
      "inputs": [],
      "name": "lastRewardTime",
      "outputs": [
        {
          "internalType": "uint256",
          "name": "",
          "type": "uint256"
        }
      ],
      "stateMutability": "view",
      "type": "function"
    },
    {
      "inputs": [
        {
          "internalType": "uint256",
          "name": "amount",
          "type": "uint256"
        }
      ],
      "name": "notifyFundsReceived",
      "outputs": [],
      "stateMutability": "nonpayable",
      "type": "function"
    },
    {
      "inputs": [],
      "name": "owner",
      "outputs": [
        {
          "internalType": "address",
          "name": "",
          "type": "address"
        }
      ],
      "stateMutability": "view",
      "type": "function"
    },
    {
      "inputs": [
        {
          "internalType": "address",
          "name": "_user",
          "type": "address"
        }
      ],
      "name": "pendingReward",
      "outputs": [
        {
          "internalType": "uint256",
          "name": "",
          "type": "uint256"
        }
      ],
      "stateMutability": "view",
      "type": "function"
    },
    {
      "inputs": [
        {
          "internalType": "address",
          "name": "",
          "type": "address"
        }
      ],
      "name": "pendingUnstakes",
      "outputs": [
        {
          "internalType": "uint256",
          "name": "",
          "type": "uint256"
        }
      ],
      "stateMutability": "view",
      "type": "function"
    },
    {
      "inputs": [
        {
          "internalType": "uint256",
          "name": "amount",
          "type": "uint256"
        }
      ],
      "name": "requestUnstake",
      "outputs": [],
      "stateMutability": "nonpayable",
      "type": "function"
    },
    {
      "inputs": [
        {
          "internalType": "address",
          "name": "",
          "type": "address"
        }
      ],
      "name": "rewardDebt",
      "outputs": [
        {
          "internalType": "uint256",
          "name": "",
          "type": "uint256"
        }
      ],
      "stateMutability": "view",
      "type": "function"
    },
    {
      "inputs": [],
      "name": "rewardRate",
      "outputs": [
        {
          "internalType": "uint256",
          "name": "",
          "type": "uint256"
        }
      ],
      "stateMutability": "view",
      "type": "function"
    },
    {
      "inputs": [
        {
          "internalType": "address",
          "name": "_factoryAddress",
          "type": "address"
        }
      ],
      "name": "setFactoryAddress",
      "outputs": [],
      "stateMutability": "nonpayable",
      "type": "function"
    },
    {
      "inputs": [],
      "name": "stake",
      "outputs": [],
      "stateMutability": "payable",
      "type": "function"
    },
    {
      "inputs": [
        {
          "internalType": "address",
          "name": "",
          "type": "address"
        }
      ],
      "name": "stakes",
      "outputs": [
        {
          "internalType": "uint256",
          "name": "",
          "type": "uint256"
        }
      ],
      "stateMutability": "view",
      "type": "function"
    },
    {
      "inputs": [],
      "name": "totalFundsNeeded",
      "outputs": [
        {
          "internalType": "uint256",
          "name": "",
          "type": "uint256"
        }
      ],
      "stateMutability": "view",
      "type": "function"
    },
    {
      "inputs": [],
      "name": "totalRewards",
      "outputs": [
        {
          "internalType": "uint256",
          "name": "",
          "type": "uint256"
        }
      ],
      "stateMutability": "view",
      "type": "function"
    },
    {
      "inputs": [],
      "name": "totalStaked",
      "outputs": [
        {
          "internalType": "uint256",
          "name": "",
          "type": "uint256"
        }
      ],
      "stateMutability": "view",
      "type": "function"
    },
    {
      "inputs": [
        {
          "internalType": "uint256",
          "name": "",
          "type": "uint256"
        }
      ],
      "name": "unstakeQueue",
      "outputs": [
        {
          "internalType": "address",
          "name": "user",
          "type": "address"
        },
        {
          "internalType": "uint256",
          "name": "amount",
          "type": "uint256"
        },
        {
          "internalType": "uint256",
          "name": "timestamp",
          "type": "uint256"
        }
      ],
      "stateMutability": "view",
      "type": "function"
    },
    {
      "inputs": [],
      "name": "weth",
      "outputs": [
        {
          "internalType": "address",
          "name": "",
          "type": "address"
        }
      ],
      "stateMutability": "view",
      "type": "function"
    },
    {
      "stateMutability": "payable",
      "type": "receive"
    }
  ],
  "bytecode": "0x60803461009b57601f6118c638819003918201601f19168301916001600160401b038311848410176100a057808492604094855283398101031261009b57610052602061004b836100b6565b92016100b6565b90600160005560018060a01b0319913383600654161760065542600a5560018060a01b03809216836005541617600555169060045416176004556040516117fb90816100cb8239f35b600080fd5b634e487b7160e01b600052604160045260246000fd5b51906001600160a01b038216820361009b5756fe608060408181526004918236101561001f575b505050361561001d57005b005b600090813560e01c9081630917e776146111c0575080630e15561a1461028957806314d6aed01461107d57806316934fc4146105f85780632309572114610cef578063372500ab14610a5e5780633a4b66f1146106cf5780633bac9c99146106b05780633fc8cef3146106885780635873eb9b1461064f5780635dbdda69146106315780637a766460146105f85780637b0a47ee146105d9578063817b1cd2146105ba57806383c17c55146105215780638da5cb5b146104f95780639231cf74146104da578063939d6237146104bb578063966dae0e146104955780639b5ceb35146103f4578063afa58070146103cb578063b8e347df146103ae578063c4ebe08814610386578063d6b6b23f14610349578063ddb59e13146102a8578063e627f2db14610289578063f3385ace146102665763f40f0f52036100125734610263576020366003190112610263578235906001600160a01b03821680920361026357600954600a5480421180610258575b6101cf575b6020856101c886828764e8d4a510006101b88985845260018952848420546112c9565b04928152600286522054906112bc565b9051908152f35b6101dc6101e591426112bc565b600b54906112c9565b600854808211610250575b5064e8d4a510009081810291818304149015171561023d57602095509164e8d4a510006101b8610232879461022c6101c898976007549061129c565b90611279565b935050509192610195565b602483601188634e487b7160e01b835252fd5b9050386101f0565b506007541515610190565b80fd5b509034610285578160031936011261028557602090600d549051908152f35b5080fd5b5090346102855781600319360112610285576020906008549051908152f35b508290346102635760203660031901126102635750803590600c5482101561030657506102d4906111dc565b508054600182015460029092015492516001600160a01b03909116815260208101919091526040810191909152606090f35b606490602084519162461bcd60e51b8352820152601360248201527f496e646578206f7574206f6620626f756e6473000000000000000000000000006044820152fd5b50913461038257602036600319011261038257356001600160a01b03811680910361038257828291602094526003845220549051908152f35b8280fd5b503461026357806003193601126102635761039f6115fb565b6103a7611312565b6001815580f35b5090346102855781600319360112610285576020906101c86112dc565b508234610285576020366003190112610285573590600c5482101561026357506102d4906111dc565b509134610382576020366003190112610382576001600160a01b03815416330361045357907f063d07ee72a7483b8e07ca09054bb686775c5c030f945dde3823a5257a0a93eb91815190358152426020820152a1610450611312565b80f35b6020606492519162461bcd60e51b8352820152601760248201527f4f6e6c7920666163746f72792063616e206e6f746966790000000000000000006044820152fd5b5034610263578060031936011261026357506001600160a01b0360209254169051908152f35b5090346102855781600319360112610285576020906009549051908152f35b509034610285578160031936011261028557602090600a549051908152f35b5090346102855781600319360112610285576020906001600160a01b03600654169051908152f35b50919034610382576020366003190112610382578135906001600160a01b038083168093036105b657600654163303610574575073ffffffffffffffffffffffffffffffffffffffff1982541617905580f35b5162461bcd60e51b8152602081840152601760248201527f43616c6c6572206973206e6f7420746865206f776e65720000000000000000006044820152606490fd5b8480fd5b5090346102855781600319360112610285576020906007549051908152f35b509034610285578160031936011261028557602090600b549051908152f35b50913461038257602036600319011261038257356001600160a01b03811680910361038257828291602094526001845220549051908152f35b5090346102855781600319360112610285576020905162093a808152f35b50913461038257602036600319011261038257356001600160a01b03811680910361038257828291602094526002845220549051908152f35b5090346102855781600319360112610285576020906001600160a01b03600554169051908152f35b509034610285578160031936011261028557602090600c549051908152f35b50919082600319360112610382576106e56115fb565b3415610a1b576106f361157d565b6001600160a01b0391838360055416803b1561028557818391855192838092630d0e30db60e41b825234905af18015610a11576109fd575b5050604634023481046046036109ea57606490049261074a84346112bc565b50806005541681835416845180927fa9059cbb0000000000000000000000000000000000000000000000000000000082528189816107a460209b8c978b8401602090939291936001600160a01b0360408201951681520152565b03925af19081156109e05786916109a6575b5015610964578490338252600185528382205480610851575b82867febedb8b3c678666e7f36970bc8f57abf6d8fa2e828c0da91ea5b75bf68ed101a8733845260018352808420610808348254611279565b905561081634600754611279565b6007553384526001835264e8d4a5100061083682862054600954906112c9565b04338552600284528185205551913483523392a26001815580f35b64e8d4a5100061086761087992600954906112c9565b043384526002875285842054906112bc565b92831591821561088a575b506107cf565b6005541690813b156109605784602485928389519586948593632e1a7d4d60e01b85528401525af1801561095657908391610942575b50839091610938575b8280929181923390f11561092e57907febedb8b3c678666e7f36970bc8f57abf6d8fa2e828c0da91ea5b75bf68ed101a9181519081527f106f923f993c2149d49b4255ff723acafa1f2d94393f561d3eda32ae348f7241843392a29083388080610884565b81513d85823e3d90fd5b6108fc91506108c9565b61094b9061122d565b6102855781386108c0565b85513d85823e3d90fd5b8380fd5b5082606492519162461bcd60e51b8352820152601e60248201527f4661696c656420746f2073656e64205745544820746f20666163746f727900006044820152fd5b90508481813d83116109d9575b6109bd8183611257565b810103126109d5575180151581036109d557386107b6565b8580fd5b503d6109b3565b84513d88823e3d90fd5b602485601184634e487b7160e01b835252fd5b610a069061122d565b61096057833861072b565b84513d84823e3d90fd5b906020606492519162461bcd60e51b8352820152601260248201527f43616e6e6f74207374616b6520302045544800000000000000000000000000006044820152fd5b50919034610382578260031936011261038257610a796115fb565b610a8161157d565b33835260209060018252808420548015610c8757610aa864e8d4a5100091600954906112c9565b049233855260028352610abe82862054856112bc565b938415610c4557600854858110610c035785610ad9916112bc565b6008553386526002845282862055846001600160a01b0360055416803b15610285578180916024865180948193632e1a7d4d60e01b83528b898401525af18015610a1157610bef575b5080808087335af13d15610bea573d67ffffffffffffffff8111610bd757835190610b56601f8201601f1916870183611257565b815286853d92013e5b15610b965750907f106f923f993c2149d49b4255ff723acafa1f2d94393f561d3eda32ae348f724191519283523392a26001815580f35b82606492519162461bcd60e51b8352820152601260248201527f4661696c656420746f2073656e642045544800000000000000000000000000006044820152fd5b602487604185634e487b7160e01b835252fd5b610b5f565b610bf89061122d565b6105b6578438610b22565b6064838686519162461bcd60e51b8352820152601a60248201527f4e6f7420656e6f756768207265776172647320696e20706f6f6c0000000000006044820152fd5b5082606492519162461bcd60e51b8352820152601360248201527f4e6f207265776172647320746f20636c61696d000000000000000000000000006044820152fd5b5060849350519162461bcd60e51b8352820152602560248201527f4e6f207374616b656420616d6f756e7420746f20636c61696d2072657761726460448201527f7320666f720000000000000000000000000000000000000000000000000000006064820152fd5b509034610285576020908160031936011261038257833591610d0f6115fb565b3384526001815282828520541061103b576001600160a01b038060055416835183816024816370a0823160e01b95868252308d8301525afa90811561100057879161100e575b50858110610dad5750505082939450610d8f7f57e41df54512c76148b5ba9b643d149752b0d35e493b969bd017d0a3fe5228cf9333611636565b33855260038152818520549082519485528401523392a26001815580f35b610db790866112bc565b82885416803b1561100a5785517fbe5ef17600000000000000000000000000000000000000000000000000000000815230818b019081526020810193909352918891839182908490829060400103925af1801561100057908791610fec575b50508282600554169160248651809481938252308c8301525afa9081156109e0579085918791610fb6575b5010610e7c575082939450610e777f57e41df54512c76148b5ba9b643d149752b0d35e493b969bd017d0a3fe5228cf9333611636565b610d8f565b33855260038252828520610e91858254611279565b90558251906060820182811067ffffffffffffffff821117610fa157845233825282820185815284830191428352600c5468010000000000000000811015610f8e57806001610ee39201600c556111dc565b949094610f7c577f57e41df54512c76148b5ba9b643d149752b0d35e493b969bd017d0a3fe5228cf97989950906002939291511673ffffffffffffffffffffffffffffffffffffffff1985541617845551600184015551910155815184815242828201527ff24ceb8901eaecb633a833076ec1a09f317122e81bd3bc200d811e0c9bb08146833392a2610e77610f776112dc565b611738565b602489808c634e487b7160e01b825252fd5b60248960418c634e487b7160e01b835252fd5b604188634e487b7160e01b6000525260246000fd5b809250848092503d8311610fe5575b610fcf8183611257565b81010312610fe05784905138610e41565b600080fd5b503d610fc5565b610ff59061122d565b6109d5578538610e16565b85513d89823e3d90fd5b8780fd5b90508381813d8311611034575b6110258183611257565b81010312610fe0575138610d55565b503d61101b565b8490606492519162461bcd60e51b8352820152601b60248201527f496e73756666696369656e74207374616b65642062616c616e636500000000006044820152fd5b50918260031936011261038257341561117e57826001600160a01b0360055416803b1561028557835192838092630d0e30db60e41b825234905af180156111725761113c575b5060207ff8fad42e780bfa5459be3fe691e8ba1aec70342250112139c5771c3fd155f3129162093a806110f834600854611279565b806008557f8629690313970e9e42939fc905246bd1ff3a69dae5efc961f8b40a91a838dffe848451838152a104600b5542600a5561113461157d565b51348152a180f35b7ff8fad42e780bfa5459be3fe691e8ba1aec70342250112139c5771c3fd155f312919261116a60209261122d565b9291506110c3565b505051903d90823e3d90fd5b6020606492519162461bcd60e51b8352820152601160248201527f4e6f207265776172647320746f206164640000000000000000000000000000006044820152fd5b9050346102855781600319360112610285576020906007548152f35b600c5481101561121757600390600c600052027fdf6966c971051c3d54ec59162606531493a51404a002842f56009d7e5cf4a8c70190600090565b634e487b7160e01b600052603260045260246000fd5b67ffffffffffffffff811161124157604052565b634e487b7160e01b600052604160045260246000fd5b90601f8019910116810190811067ffffffffffffffff82111761124157604052565b9190820180921161128657565b634e487b7160e01b600052601160045260246000fd5b81156112a6570490565b634e487b7160e01b600052601260045260246000fd5b9190820391821161128657565b8181029291811591840414171561128657565b600080600c545b8082106112ef57505090565b909161130a60019182611301866111dc565b50015490611279565b9201906112e3565b6001600160a01b038060055416604051809381936370a0823160e01b83526004933085850152602095869160249889915afa92831561157157600093611542575b507f264b03945932e4bc51e688f9f27dbb1f5faba7660d11abdbf7e7f41ed87928ba8584604051908152a160009283925b600c918254851080611539575b156114f35761139f856111dc565b50600180820180549193929091908184106114b7576113cd939291886113c6925416611636565b54906112bc565b928054600019908181019081116114a3576113e7906111dc565b506113f1886111dc565b91909161149057808203611458575b505081548015611444570191611415836111dc565b9190916114315781600060029281809555820155015555611384565b8b60008b634e487b7160e01b8252526000fd5b8b60318b634e487b7160e01b600052526000fd5b8781541673ffffffffffffffffffffffffffffffffffffffff1983541617825584810154858301556002809101549101553880611400565b8c60008c634e487b7160e01b8252526000fd5b8b60118b634e487b7160e01b600052526000fd5b5082955061022c9150916114ce93949798926112bc565b9460001981146114df570192611384565b88601188634e487b7160e01b600052526000fd5b50965050505091905081611505575050565b816115307fd5e85995d9bdcdafb72531ec59faef29167c16780583ca2068587fe896170c4793611738565b604051908152a1565b50801515611391565b9092508481813d831161156a575b61155a8183611257565b81010312610fe057519138611353565b503d611550565b6040513d6000823e3d90fd5b600a544211156115f95760075480156115f25761159f6101dc600a54426112bc565b6008548082116115ea575b64e8d4a5100092838302938385041483151715611286576115d16115d9916115e19561129c565b600954611279565b6009556112bc565b60085542600a55565b9050806115aa565b5042600a55565b565b60026000541461160c576002600055565b60046040517f3ee5aeb5000000000000000000000000000000000000000000000000000000008152fd5b90600554916000926001600160a01b0380911691823b156105b65784806040946024865180948193632e1a7d4d60e01b83528a60048401525af180156109e057611725575b50169280838582821561171c575b839283928392f115611711579160209183857f85082129d87b2fe11527cb1b3b7a520aeb5aa6913f88a3d8757fe40d1db02fdd9552600184528181206116d08482546112bc565b90556116de836007546112bc565b600755858152600184528164e8d4a510006116ff82842054600954906112c9565b049187815260028652205551908152a2565b9051903d90823e3d90fd5b506108fc611689565b6117319095919561122d565b933861167b565b7fac0a36a73050720c3fa0d6988cca2309ef4472b3b09fafa8e713f434ff33a05b6020604051838152a16001600160a01b036004541690813b15610fe0576000916024839260405194859384927f8c3a65a200000000000000000000000000000000000000000000000000000000845260048401525af18015611571576117bc5750565b6115f99061122d56fea2646970667358221220eca7b0d1ad124a464db5a9e725120f2e289f868a50d99eba94d6a43a6af2811a64736f6c63430008180033",
  "linkReferences": {},
  "deployedLinkReferences": {}
}