{
  "_format": "hh-sol-artifact-1",
  "contractName": "SimpleStaking",
  "sourceName": "contracts/Staking.sol",
  "abi": [
    {
      "inputs": [
        {
          "internalType": "address",
          "name": "_weth",
          "type": "address"
        }
      ],
      "stateMutability": "nonpayable",
      "type": "constructor"
    },
    {
      "inputs": [],
      "name": "ReentrancyGuardReentrantCall",
      "type": "error"
    },
    {
      "anonymous": false,
      "inputs": [
        {
          "indexed": false,
          "internalType": "uint256",
          "name": "availableWETH",
          "type": "uint256"
        }
      ],
      "name": "DebugAvailableWETH",
      "type": "event"
    },
    {
      "anonymous": false,
      "inputs": [
        {
          "indexed": false,
          "internalType": "address",
          "name": "user",
          "type": "address"
        },
        {
          "indexed": false,
          "internalType": "uint256",
          "name": "amountToProcess",
          "type": "uint256"
        }
      ],
      "name": "DebugProcessAttempt",
      "type": "event"
    },
    {
      "anonymous": false,
      "inputs": [
        {
          "indexed": false,
          "internalType": "address",
          "name": "user",
          "type": "address"
        },
        {
          "indexed": false,
          "internalType": "uint256",
          "name": "amount",
          "type": "uint256"
        }
      ],
      "name": "FailedToProcessUnstake",
      "type": "event"
    },
    {
      "anonymous": false,
      "inputs": [
        {
          "indexed": false,
          "internalType": "uint256",
          "name": "amount",
          "type": "uint256"
        },
        {
          "indexed": false,
          "internalType": "uint256",
          "name": "timestamp",
          "type": "uint256"
        }
      ],
      "name": "FundsReceived",
      "type": "event"
    },
    {
      "anonymous": false,
      "inputs": [
        {
          "indexed": false,
          "internalType": "uint256",
          "name": "amount",
          "type": "uint256"
        }
      ],
      "name": "FundsRequested",
      "type": "event"
    },
    {
      "anonymous": false,
      "inputs": [
        {
          "indexed": false,
          "internalType": "address",
          "name": "user",
          "type": "address"
        },
        {
          "indexed": false,
          "internalType": "uint256",
          "name": "requestedAmount",
          "type": "uint256"
        },
        {
          "indexed": false,
          "internalType": "string",
          "name": "error",
          "type": "string"
        }
      ],
      "name": "ProcessUnstakeError",
      "type": "event"
    },
    {
      "anonymous": false,
      "inputs": [
        {
          "indexed": true,
          "internalType": "address",
          "name": "user",
          "type": "address"
        },
        {
          "indexed": false,
          "internalType": "uint256",
          "name": "amount",
          "type": "uint256"
        }
      ],
      "name": "RewardClaimed",
      "type": "event"
    },
    {
      "anonymous": false,
      "inputs": [
        {
          "indexed": false,
          "internalType": "uint256",
          "name": "amount",
          "type": "uint256"
        }
      ],
      "name": "RewardsAdded",
      "type": "event"
    },
    {
      "anonymous": false,
      "inputs": [
        {
          "indexed": true,
          "internalType": "address",
          "name": "user",
          "type": "address"
        },
        {
          "indexed": false,
          "internalType": "uint256",
          "name": "amount",
          "type": "uint256"
        }
      ],
      "name": "Stake",
      "type": "event"
    },
    {
      "anonymous": false,
      "inputs": [
        {
          "indexed": true,
          "internalType": "address",
          "name": "user",
          "type": "address"
        },
        {
          "indexed": false,
          "internalType": "uint256",
          "name": "amount",
          "type": "uint256"
        }
      ],
      "name": "Unstake",
      "type": "event"
    },
    {
      "anonymous": false,
      "inputs": [
        {
          "indexed": true,
          "internalType": "address",
          "name": "user",
          "type": "address"
        },
        {
          "indexed": false,
          "internalType": "uint256",
          "name": "amount",
          "type": "uint256"
        },
        {
          "indexed": false,
          "internalType": "uint256",
          "name": "pendingAmount",
          "type": "uint256"
        }
      ],
      "name": "UnstakeProcessed",
      "type": "event"
    },
    {
      "anonymous": false,
      "inputs": [
        {
          "indexed": true,
          "internalType": "address",
          "name": "user",
          "type": "address"
        },
        {
          "indexed": false,
          "internalType": "uint256",
          "name": "amount",
          "type": "uint256"
        },
        {
          "indexed": false,
          "internalType": "uint256",
          "name": "timestamp",
          "type": "uint256"
        }
      ],
      "name": "UnstakeQueued",
      "type": "event"
    },
    {
      "anonymous": false,
      "inputs": [
        {
          "indexed": false,
          "internalType": "uint256",
          "name": "index",
          "type": "uint256"
        },
        {
          "indexed": false,
          "internalType": "address",
          "name": "user",
          "type": "address"
        },
        {
          "indexed": false,
          "internalType": "uint256",
          "name": "amount",
          "type": "uint256"
        },
        {
          "indexed": false,
          "internalType": "uint256",
          "name": "pendingUnstakes",
          "type": "uint256"
        }
      ],
      "name": "UnstakeRequestDetails",
      "type": "event"
    },
    {
      "anonymous": false,
      "inputs": [
        {
          "indexed": true,
          "internalType": "address",
          "name": "user",
          "type": "address"
        },
        {
          "indexed": false,
          "internalType": "uint256",
          "name": "amount",
          "type": "uint256"
        },
        {
          "indexed": false,
          "internalType": "uint256",
          "name": "pendingAmount",
          "type": "uint256"
        }
      ],
      "name": "UnstakeRequested",
      "type": "event"
    },
    {
      "anonymous": false,
      "inputs": [
        {
          "indexed": false,
          "internalType": "address",
          "name": "user",
          "type": "address"
        },
        {
          "indexed": false,
          "internalType": "uint256",
          "name": "processedAmount",
          "type": "uint256"
        },
        {
          "indexed": false,
          "internalType": "uint256",
          "name": "remainingWETH",
          "type": "uint256"
        }
      ],
      "name": "WETHProcessed",
      "type": "event"
    },
    {
      "stateMutability": "payable",
      "type": "fallback"
    },
    {
      "inputs": [],
      "name": "REWARD_INTERVAL",
      "outputs": [
        {
          "internalType": "uint256",
          "name": "",
          "type": "uint256"
        }
      ],
      "stateMutability": "view",
      "type": "function"
    },
    {
      "inputs": [],
      "name": "accRewardPerShare",
      "outputs": [
        {
          "internalType": "uint256",
          "name": "",
          "type": "uint256"
        }
      ],
      "stateMutability": "view",
      "type": "function"
    },
    {
      "inputs": [],
      "name": "addRewards",
      "outputs": [],
      "stateMutability": "payable",
      "type": "function"
    },
    {
      "inputs": [],
      "name": "claimRewards",
      "outputs": [],
      "stateMutability": "nonpayable",
      "type": "function"
    },
    {
      "inputs": [],
      "name": "factoryAddress",
      "outputs": [
        {
          "internalType": "address",
          "name": "",
          "type": "address"
        }
      ],
      "stateMutability": "view",
      "type": "function"
    },
    {
      "inputs": [],
      "name": "getCurrentAPY",
      "outputs": [
        {
          "internalType": "uint256",
          "name": "",
          "type": "uint256"
        }
      ],
      "stateMutability": "view",
      "type": "function"
    },
    {
      "inputs": [
        {
          "internalType": "address",
          "name": "staker",
          "type": "address"
        }
      ],
      "name": "getStake",
      "outputs": [
        {
          "internalType": "uint256",
          "name": "",
          "type": "uint256"
        }
      ],
      "stateMutability": "view",
      "type": "function"
    },
    {
      "inputs": [],
      "name": "getUnstakeQueueLength",
      "outputs": [
        {
          "internalType": "uint256",
          "name": "",
          "type": "uint256"
        }
      ],
      "stateMutability": "view",
      "type": "function"
    },
    {
      "inputs": [
        {
          "internalType": "uint256",
          "name": "index",
          "type": "uint256"
        }
      ],
      "name": "getUnstakeRequest",
      "outputs": [
        {
          "internalType": "address",
          "name": "user",
          "type": "address"
        },
        {
          "internalType": "uint256",
          "name": "amount",
          "type": "uint256"
        },
        {
          "internalType": "uint256",
          "name": "timestamp",
          "type": "uint256"
        }
      ],
      "stateMutability": "view",
      "type": "function"
    },
    {
      "inputs": [],
      "name": "lastRewardTime",
      "outputs": [
        {
          "internalType": "uint256",
          "name": "",
          "type": "uint256"
        }
      ],
      "stateMutability": "view",
      "type": "function"
    },
    {
      "inputs": [
        {
          "internalType": "uint256",
          "name": "amount",
          "type": "uint256"
        }
      ],
      "name": "notifyFundsReceived",
      "outputs": [],
      "stateMutability": "nonpayable",
      "type": "function"
    },
    {
      "inputs": [],
      "name": "owner",
      "outputs": [
        {
          "internalType": "address",
          "name": "",
          "type": "address"
        }
      ],
      "stateMutability": "view",
      "type": "function"
    },
    {
      "inputs": [
        {
          "internalType": "address",
          "name": "_user",
          "type": "address"
        }
      ],
      "name": "pendingReward",
      "outputs": [
        {
          "internalType": "uint256",
          "name": "",
          "type": "uint256"
        }
      ],
      "stateMutability": "view",
      "type": "function"
    },
    {
      "inputs": [
        {
          "internalType": "address",
          "name": "",
          "type": "address"
        }
      ],
      "name": "pendingUnstakes",
      "outputs": [
        {
          "internalType": "uint256",
          "name": "",
          "type": "uint256"
        }
      ],
      "stateMutability": "view",
      "type": "function"
    },
    {
      "inputs": [
        {
          "internalType": "uint256",
          "name": "amount",
          "type": "uint256"
        }
      ],
      "name": "requestUnstake",
      "outputs": [],
      "stateMutability": "nonpayable",
      "type": "function"
    },
    {
      "inputs": [
        {
          "internalType": "address",
          "name": "",
          "type": "address"
        }
      ],
      "name": "rewardDebt",
      "outputs": [
        {
          "internalType": "uint256",
          "name": "",
          "type": "uint256"
        }
      ],
      "stateMutability": "view",
      "type": "function"
    },
    {
      "inputs": [
        {
          "internalType": "address",
          "name": "_factoryAddress",
          "type": "address"
        }
      ],
      "name": "setFactoryAddress",
      "outputs": [],
      "stateMutability": "nonpayable",
      "type": "function"
    },
    {
      "inputs": [],
      "name": "stake",
      "outputs": [],
      "stateMutability": "payable",
      "type": "function"
    },
    {
      "inputs": [
        {
          "internalType": "address",
          "name": "",
          "type": "address"
        }
      ],
      "name": "stakes",
      "outputs": [
        {
          "internalType": "uint256",
          "name": "",
          "type": "uint256"
        }
      ],
      "stateMutability": "view",
      "type": "function"
    },
    {
      "inputs": [],
      "name": "totalRewards",
      "outputs": [
        {
          "internalType": "uint256",
          "name": "",
          "type": "uint256"
        }
      ],
      "stateMutability": "view",
      "type": "function"
    },
    {
      "inputs": [],
      "name": "totalStaked",
      "outputs": [
        {
          "internalType": "uint256",
          "name": "",
          "type": "uint256"
        }
      ],
      "stateMutability": "view",
      "type": "function"
    },
    {
      "inputs": [
        {
          "internalType": "uint256",
          "name": "amount",
          "type": "uint256"
        }
      ],
      "name": "unstake",
      "outputs": [],
      "stateMutability": "nonpayable",
      "type": "function"
    },
    {
      "inputs": [
        {
          "internalType": "uint256",
          "name": "",
          "type": "uint256"
        }
      ],
      "name": "unstakeQueue",
      "outputs": [
        {
          "internalType": "address",
          "name": "user",
          "type": "address"
        },
        {
          "internalType": "uint256",
          "name": "amount",
          "type": "uint256"
        },
        {
          "internalType": "uint256",
          "name": "timestamp",
          "type": "uint256"
        }
      ],
      "stateMutability": "view",
      "type": "function"
    },
    {
      "inputs": [
        {
          "internalType": "uint256",
          "name": "rewardAmount",
          "type": "uint256"
        }
      ],
      "name": "updateRewards",
      "outputs": [],
      "stateMutability": "nonpayable",
      "type": "function"
    },
    {
      "inputs": [],
      "name": "weth",
      "outputs": [
        {
          "internalType": "address",
          "name": "",
          "type": "address"
        }
      ],
      "stateMutability": "view",
      "type": "function"
    },
    {
      "stateMutability": "payable",
      "type": "receive"
    }
  ],
  "bytecode": "0x60803461008357601f6119b238819003918201601f19168301916001600160401b038311848410176100885780849260209460405283398101031261008357516001600160a01b0381169081900361008357600160005560018060a01b03193381600654161760065542600a556005541617600555604051611913908161009f8239f35b600080fd5b634e487b7160e01b600052604160045260246000fdfe608060408181526004918236101561001f575b505050361561001d57005b005b600090813560e01c9081630e15561a146113305750806314d6aed01461129757806316934fc4146108fb578063230957211461113b5780632e17de781461103d578063372500ab14610d435780633a4b66f1146109d15780633bac9c99146109b25780633fc8cef31461098a5780635873eb9b146109515780635dbdda69146109345780637a766460146108fb578063817b1cd2146108dc57806383c17c55146108435780638da5cb5b1461081b5780639231cf74146107fc578063939d6237146107dd578063962ca496146107c0578063966dae0e1461079a5780639b5ceb3514610473578063afa580701461044a578063b1e95e9414610313578063d6b6b23f146102d6578063ddb59e13146102355763f40f0f52036100125734610232576020366003190112610232578235906001600160a01b03821680920361023257600954600a5480421180610227575b6101ae575b6020856101a786828764e8d4a51000610197898584526001895284842054611509565b049281526002865220549061143f565b9051908152f35b6101c76101be61012c924261143f565b60085490611509565b0464e8d4a510009081810291818304149015171561021457602095509164e8d4a5100061019761020987946102036101a798976007549061151c565b906113d1565b935050509192610174565b602483601188634e487b7160e01b835252fd5b50600754151561016f565b80fd5b508290346102325760203660031901126102325750803590600b54821015610293575061026190611396565b508054600182015460029092015492516001600160a01b03909116815260208101919091526040810191909152606090f35b606490602084519162461bcd60e51b8352820152601360248201527f496e646578206f7574206f6620626f756e6473000000000000000000000000006044820152fd5b50913461030f57602036600319011261030f57356001600160a01b03811680910361030f57828291602094526003845220549051908152f35b8280fd5b508234610446576020908160031936011261030f578035906001600160a01b038060065416330361040457849591606485926005541691845197889384927f23b872dd00000000000000000000000000000000000000000000000000000000845233908401523060248401528760448401525af19384156103fa577ff8fad42e780bfa5459be3fe691e8ba1aec70342250112139c5771c3fd155f312946103cd575b506103c2826008546113d1565b60085551908152a180f35b6103ec90843d86116103f3575b6103e481836114e7565b81019061153c565b50856103b5565b503d6103da565b81513d87823e3d90fd5b6064828588519162461bcd60e51b8352820152600c60248201527f556e617574686f72697a656400000000000000000000000000000000000000006044820152fd5b5080fd5b508234610446576020366003190112610446573590600b54821015610232575061026190611396565b50913461030f5760209182600319360112610796576001600160a01b03808354163303610754577f063d07ee72a7483b8e07ca09054bb686775c5c030f945dde3823a5257a0a93eb828051853581524287820152a18381600554168351958680926370a0823160e01b8252308883015260249889915afa90811561074a578791610718575b507f264b03945932e4bc51e688f9f27dbb1f5faba7660d11abdbf7e7f41ed87928ba828551838152a1600b5461052c578680f35b61053461134c565b50838154169160018201927faeadbfc8febf10d119916528ecb37175473490279c943963f050330e4c90e95960808b8654936002870154908b5192835289830152848b8301526060820152a18082106106d1575050549054610597918416611676565b600b549283156106905750600019928084019150811161067e576105ba90611396565b506105c361134c565b92909261066d57818303610631575b505050600b54801561061f5701916105e983611396565b92909261060f575050600281848093558260018201550155600b555b3880808080808680f35b848091634e487b7160e01b825252fd5b8385603185634e487b7160e01b835252fd5b81600292918392541673ffffffffffffffffffffffffffffffffffffffff198554161784556001810154600185015501549101553880806105d2565b85878087634e487b7160e01b825252fd5b8486601186634e487b7160e01b835252fd5b6014866064938793519362461bcd60e51b85528401528201527f496e646578206f7574206f6620626f756e64732e0000000000000000000000006044820152fd5b9250929550507fd5e85995d9bdcdafb72531ec59faef29167c16780583ca2068587fe896170c479550610704925061143f565b9061070e8261186e565b51908152a1610605565b90508181813d8311610743575b61072f81836114e7565b8101031261073e5751386104f8565b600080fd5b503d610725565b84513d89823e3d90fd5b5091606492519162461bcd60e51b8352820152601760248201527f4f6e6c7920666163746f72792063616e206e6f746966790000000000000000006044820152fd5b8380fd5b5034610232578060031936011261023257506001600160a01b0360209254169051908152f35b5090346104465781600319360112610446576020906101a7611554565b5090346104465781600319360112610446576020906009549051908152f35b509034610446578160031936011261044657602090600a549051908152f35b5090346104465781600319360112610446576020906001600160a01b03600654169051908152f35b5091903461030f57602036600319011261030f578135906001600160a01b038083168093036108d857600654163303610896575073ffffffffffffffffffffffffffffffffffffffff1982541617905580f35b5162461bcd60e51b8152602081840152601760248201527f43616c6c6572206973206e6f7420746865206f776e65720000000000000000006044820152606490fd5b8480fd5b5090346104465781600319360112610446576020906007549051908152f35b50913461030f57602036600319011261030f57356001600160a01b03811680910361030f57828291602094526001845220549051908152f35b5090346104465781600319360112610446576020905161012c8152f35b50913461030f57602036600319011261030f57356001600160a01b03811680910361030f57828291602094526002845220549051908152f35b5090346104465781600319360112610446576020906001600160a01b03600554169051908152f35b509034610446578160031936011261044657602090600b549051908152f35b509081600319360112610446576109e661163b565b3415610d01576109f461159c565b6001600160a01b03928360055416803b15610796578382918451928380927fd0e30db000000000000000000000000000000000000000000000000000000000825234905af18015610cf457908491610ce0575b50506046340293348504604603610ccd576064849504610a67813461143f565b50816005541682845416918551927fa9059cbb0000000000000000000000000000000000000000000000000000000084528584015260248301528160448160209889945af1908115610cc3578691610ca6575b5015610c64578490338252600185528382205480610b55575b82867febedb8b3c678666e7f36970bc8f57abf6d8fa2e828c0da91ea5b75bf68ed101a8733845260018352808420610b0c3482546113d1565b9055610b1a346007546113d1565b6007553384526001835264e8d4a51000610b3a8286205460095490611509565b04338552600284528185205551913483523392a26001815580f35b64e8d4a51000610b6b610b7d9260095490611509565b0433845260028752858420549061143f565b928315918215610b8e575b50610ad3565b6005541690813b156107965784602485928389519586948593632e1a7d4d60e01b85528401525af18015610c5a57908391610c46575b50839091610c3c575b8280929181923390f115610c3257907febedb8b3c678666e7f36970bc8f57abf6d8fa2e828c0da91ea5b75bf68ed101a9181519081527f106f923f993c2149d49b4255ff723acafa1f2d94393f561d3eda32ae348f7241843392a29083388080610b88565b81513d85823e3d90fd5b6108fc9150610bcd565b610c4f906114bd565b610446578138610bc4565b85513d85823e3d90fd5b5082606492519162461bcd60e51b8352820152601e60248201527f4661696c656420746f2073656e64205745544820746f20666163746f727900006044820152fd5b610cbd9150853d87116103f3576103e481836114e7565b38610aba565b84513d88823e3d90fd5b602484601184634e487b7160e01b835252fd5b610ce9906114bd565b61030f578238610a47565b50505051903d90823e3d90fd5b5162461bcd60e51b8152602081840152601260248201527f43616e6e6f74207374616b6520302045544800000000000000000000000000006044820152606490fd5b5091903461030f578260031936011261030f57610d5e61163b565b33835260209060018252808420548015610fd557610d8d64e8d4a5100091610d8461159c565b60095490611509565b049233855260028352610da3828620548561143f565b938415610f93576001600160a01b039060248583600554168651928380926370a0823160e01b825230898301525afa908115610f89579087918991610f54575b5010610f12573387526002855283872055600554869116803b156104465781906024855180948193632e1a7d4d60e01b83528a888401525af18015610f0857610ef5575b508480808087335af13d15610ef0573d67ffffffffffffffff8111610edd57835190610e5c601f8201601f19168701836114e7565b815286853d92013e5b15610e9c5750907f106f923f993c2149d49b4255ff723acafa1f2d94393f561d3eda32ae348f724191519283523392a26001815580f35b82606492519162461bcd60e51b8352820152601260248201527f4661696c656420746f2073656e642045544800000000000000000000000000006044820152fd5b602487604185634e487b7160e01b835252fd5b610e65565b610f01909591956114bd565b9338610e27565b83513d88823e3d90fd5b6064838686519162461bcd60e51b8352820152601b60248201527f4e6f7420656e6f756768205745544820696e20636f6e747261637400000000006044820152fd5b809250878092503d8311610f82575b610f6d81836114e7565b81010312610f7e5786905138610de3565b8780fd5b503d610f63565b85513d8a823e3d90fd5b5082606492519162461bcd60e51b8352820152601360248201527f4e6f207265776172647320746f20636c61696d000000000000000000000000006044820152fd5b5060849350519162461bcd60e51b8352820152602560248201527f4e6f207374616b656420616d6f756e7420746f20636c61696d2072657761726460448201527f7320666f720000000000000000000000000000000000000000000000000000006064820152fd5b50913461030f576020806003193601126107965781359161105c61163b565b33855260018252611072838587205410156113f4565b33855260018252611099836110928688205460038652878920549061143f565b101561144c565b6110a161159c565b816001600160a01b03600554169160248651809481936370a0823160e01b835230908301525afa918215611131578394508592611100575b5050106110f1576110ea9033611676565b6001815580f35b6110fb9033611778565b6110ea565b8193508092503d831161112a575b61111881836114e7565b8101031261030f5781905138806110d9565b503d61110e565b84513d87823e3d90fd5b50913461030f57602091826003193601126107965781359261115b61163b565b33855260018152611171848387205410156113f4565b33855260018152611191846110928488205460038552858920549061143f565b338552600381528185206111a68582546113d1565b9055806001600160a01b03600554169360248451809681936370a0823160e01b835230908301525afa801561128d578490869061123e575b7f57e41df54512c76148b5ba9b643d149752b0d35e493b969bd017d0a3fe5228cf9450101561122f576112118433611778565b33855260038152818520549082519485528401523392a26001815580f35b6112398433611676565b611211565b50508083813d8311611286575b61125581836114e7565b810103126108d857837f57e41df54512c76148b5ba9b643d149752b0d35e493b969bd017d0a3fe5228cf93516111de565b503d61124b565b82513d87823e3d90fd5b50918260031936011261030f5734156112ee575060207ff8fad42e780bfa5459be3fe691e8ba1aec70342250112139c5771c3fd155f312916112db346008546113d1565b6008556112e661159c565b51348152a180f35b6020606492519162461bcd60e51b8352820152601160248201527f4e6f207265776172647320746f206164640000000000000000000000000000006044820152fd5b9050346104465781600319360112610446576020906008548152f35b600b541561138057600b6000527f0175b7a638427703f0dbe7bb9bbf987a2551717b34e79f33b5b1008d1fa01db990600090565b634e487b7160e01b600052603260045260246000fd5b600b5481101561138057600390600b600052027f0175b7a638427703f0dbe7bb9bbf987a2551717b34e79f33b5b1008d1fa01db90190600090565b919082018092116113de57565b634e487b7160e01b600052601160045260246000fd5b156113fb57565b606460405162461bcd60e51b815260206004820152601b60248201527f496e73756666696369656e74207374616b65642062616c616e636500000000006044820152fd5b919082039182116113de57565b1561145357565b608460405162461bcd60e51b815260206004820152602860248201527f556e7374616b6520616d6f756e74206578636565647320617661696c61626c6560448201527f2062616c616e63650000000000000000000000000000000000000000000000006064820152fd5b67ffffffffffffffff81116114d157604052565b634e487b7160e01b600052604160045260246000fd5b90601f8019910116810190811067ffffffffffffffff8211176114d157604052565b818102929181159184041417156113de57565b8115611526570490565b634e487b7160e01b600052601260045260246000fd5b9081602091031261073e5751801515810361073e5790565b6007548015611596576008549062019aa0918281029281840414811517156113de5762a066800291808304606414901517156113de576115939161151c565b90565b50600090565b600a54421115611639576007548015611632576115bb600a544261143f565b60085490816115ce575b50505042600a55565b6115db8261012c92611509565b04908180821115611629576115ef9161143f565b60085564e8d4a51000908181029181830414901517156113de5761161e916116169161151c565b6009546113d1565b6009553880806115c5565b505060006115ef565b5042600a55565b565b60026000541461164c576002600055565b60046040517f3ee5aeb5000000000000000000000000000000000000000000000000000000008152fd5b90600554916000926001600160a01b0380911691823b156108d85784806040946024865180948193632e1a7d4d60e01b83528a60048401525af18015610cc357611765575b50169280838582821561175c575b839283928392f115611751579160209183857f85082129d87b2fe11527cb1b3b7a520aeb5aa6913f88a3d8757fe40d1db02fdd95526001845281812061171084825461143f565b905561171e8360075461143f565b600755858152600184528164e8d4a5100061173f8284205460095490611509565b049187815260028652205551908152a2565b9051903d90823e3d90fd5b506108fc6116c9565b611771909591956114bd565b93386116bb565b604051906060820182811067ffffffffffffffff8211176114d1576040526001600160a01b0380911691828152602081018481526040820190428252600b54680100000000000000008110156114d1578060016117d89201600b55611396565b94909461185857600293511673ffffffffffffffffffffffffffffffffffffffff19855416178455516001840155519101557ff24ceb8901eaecb633a833076ec1a09f317122e81bd3bc200d811e0c9bb0814660408051848152426020820152a26046810290808204604614901517156113de576064611639910461186e565b634e487b7160e01b600052600060045260246000fd5b6001600160a01b036004541690813b1561073e576000916024839260405194859384927f8c3a65a200000000000000000000000000000000000000000000000000000000845260048401525af180156118d1576118c85750565b611639906114bd565b6040513d6000823e3d90fdfea2646970667358221220d1fc754c76ddc02552482486ef36add94d64d1c20048fbb5f54e898e0fd2c91564736f6c63430008180033",
  "linkReferences": {},
  "deployedLinkReferences": {}
}