{
  "_format": "hh-sol-artifact-1",
  "contractName": "SimpleStaking",
  "sourceName": "contracts/Staking.sol",
  "abi": [
    {
      "inputs": [
        {
          "internalType": "address",
          "name": "_weth",
          "type": "address"
        }
      ],
      "stateMutability": "nonpayable",
      "type": "constructor"
    },
    {
      "inputs": [],
      "name": "ReentrancyGuardReentrantCall",
      "type": "error"
    },
    {
      "anonymous": false,
      "inputs": [
        {
          "indexed": false,
          "internalType": "uint256",
          "name": "availableWETH",
          "type": "uint256"
        }
      ],
      "name": "DebugAvailableWETH",
      "type": "event"
    },
    {
      "anonymous": false,
      "inputs": [
        {
          "indexed": false,
          "internalType": "address",
          "name": "user",
          "type": "address"
        },
        {
          "indexed": false,
          "internalType": "uint256",
          "name": "amountToProcess",
          "type": "uint256"
        }
      ],
      "name": "DebugProcessAttempt",
      "type": "event"
    },
    {
      "anonymous": false,
      "inputs": [
        {
          "indexed": false,
          "internalType": "address",
          "name": "user",
          "type": "address"
        },
        {
          "indexed": false,
          "internalType": "uint256",
          "name": "amount",
          "type": "uint256"
        }
      ],
      "name": "FailedToProcessUnstake",
      "type": "event"
    },
    {
      "anonymous": false,
      "inputs": [
        {
          "indexed": false,
          "internalType": "uint256",
          "name": "amount",
          "type": "uint256"
        },
        {
          "indexed": false,
          "internalType": "uint256",
          "name": "timestamp",
          "type": "uint256"
        }
      ],
      "name": "FundsReceived",
      "type": "event"
    },
    {
      "anonymous": false,
      "inputs": [
        {
          "indexed": false,
          "internalType": "uint256",
          "name": "amount",
          "type": "uint256"
        }
      ],
      "name": "FundsRequested",
      "type": "event"
    },
    {
      "anonymous": false,
      "inputs": [
        {
          "indexed": false,
          "internalType": "address",
          "name": "user",
          "type": "address"
        },
        {
          "indexed": false,
          "internalType": "uint256",
          "name": "requestedAmount",
          "type": "uint256"
        },
        {
          "indexed": false,
          "internalType": "string",
          "name": "error",
          "type": "string"
        }
      ],
      "name": "ProcessUnstakeError",
      "type": "event"
    },
    {
      "anonymous": false,
      "inputs": [
        {
          "indexed": true,
          "internalType": "address",
          "name": "user",
          "type": "address"
        },
        {
          "indexed": false,
          "internalType": "uint256",
          "name": "amount",
          "type": "uint256"
        }
      ],
      "name": "RewardClaimed",
      "type": "event"
    },
    {
      "anonymous": false,
      "inputs": [
        {
          "indexed": false,
          "internalType": "uint256",
          "name": "amount",
          "type": "uint256"
        }
      ],
      "name": "RewardsAdded",
      "type": "event"
    },
    {
      "anonymous": false,
      "inputs": [
        {
          "indexed": true,
          "internalType": "address",
          "name": "user",
          "type": "address"
        },
        {
          "indexed": false,
          "internalType": "uint256",
          "name": "amount",
          "type": "uint256"
        }
      ],
      "name": "Stake",
      "type": "event"
    },
    {
      "anonymous": false,
      "inputs": [
        {
          "indexed": true,
          "internalType": "address",
          "name": "user",
          "type": "address"
        },
        {
          "indexed": false,
          "internalType": "uint256",
          "name": "amount",
          "type": "uint256"
        }
      ],
      "name": "Unstake",
      "type": "event"
    },
    {
      "anonymous": false,
      "inputs": [
        {
          "indexed": true,
          "internalType": "address",
          "name": "user",
          "type": "address"
        },
        {
          "indexed": false,
          "internalType": "uint256",
          "name": "amount",
          "type": "uint256"
        },
        {
          "indexed": false,
          "internalType": "uint256",
          "name": "pendingAmount",
          "type": "uint256"
        }
      ],
      "name": "UnstakeProcessed",
      "type": "event"
    },
    {
      "anonymous": false,
      "inputs": [
        {
          "indexed": true,
          "internalType": "address",
          "name": "user",
          "type": "address"
        },
        {
          "indexed": false,
          "internalType": "uint256",
          "name": "amount",
          "type": "uint256"
        },
        {
          "indexed": false,
          "internalType": "uint256",
          "name": "timestamp",
          "type": "uint256"
        }
      ],
      "name": "UnstakeQueued",
      "type": "event"
    },
    {
      "anonymous": false,
      "inputs": [
        {
          "indexed": false,
          "internalType": "uint256",
          "name": "index",
          "type": "uint256"
        },
        {
          "indexed": false,
          "internalType": "address",
          "name": "user",
          "type": "address"
        },
        {
          "indexed": false,
          "internalType": "uint256",
          "name": "amount",
          "type": "uint256"
        },
        {
          "indexed": false,
          "internalType": "uint256",
          "name": "pendingUnstakes",
          "type": "uint256"
        }
      ],
      "name": "UnstakeRequestDetails",
      "type": "event"
    },
    {
      "anonymous": false,
      "inputs": [
        {
          "indexed": true,
          "internalType": "address",
          "name": "user",
          "type": "address"
        },
        {
          "indexed": false,
          "internalType": "uint256",
          "name": "amount",
          "type": "uint256"
        },
        {
          "indexed": false,
          "internalType": "uint256",
          "name": "pendingAmount",
          "type": "uint256"
        }
      ],
      "name": "UnstakeRequested",
      "type": "event"
    },
    {
      "anonymous": false,
      "inputs": [
        {
          "indexed": false,
          "internalType": "address",
          "name": "user",
          "type": "address"
        },
        {
          "indexed": false,
          "internalType": "uint256",
          "name": "processedAmount",
          "type": "uint256"
        },
        {
          "indexed": false,
          "internalType": "uint256",
          "name": "remainingWETH",
          "type": "uint256"
        }
      ],
      "name": "WETHProcessed",
      "type": "event"
    },
    {
      "stateMutability": "payable",
      "type": "fallback"
    },
    {
      "inputs": [],
      "name": "REWARD_INTERVAL",
      "outputs": [
        {
          "internalType": "uint256",
          "name": "",
          "type": "uint256"
        }
      ],
      "stateMutability": "view",
      "type": "function"
    },
    {
      "inputs": [],
      "name": "accRewardPerShare",
      "outputs": [
        {
          "internalType": "uint256",
          "name": "",
          "type": "uint256"
        }
      ],
      "stateMutability": "view",
      "type": "function"
    },
    {
      "inputs": [],
      "name": "addRewards",
      "outputs": [],
      "stateMutability": "payable",
      "type": "function"
    },
    {
      "inputs": [],
      "name": "claimRewards",
      "outputs": [],
      "stateMutability": "nonpayable",
      "type": "function"
    },
    {
      "inputs": [],
      "name": "factoryAddress",
      "outputs": [
        {
          "internalType": "address",
          "name": "",
          "type": "address"
        }
      ],
      "stateMutability": "view",
      "type": "function"
    },
    {
      "inputs": [
        {
          "internalType": "address",
          "name": "staker",
          "type": "address"
        }
      ],
      "name": "getStake",
      "outputs": [
        {
          "internalType": "uint256",
          "name": "",
          "type": "uint256"
        }
      ],
      "stateMutability": "view",
      "type": "function"
    },
    {
      "inputs": [],
      "name": "getUnstakeQueueLength",
      "outputs": [
        {
          "internalType": "uint256",
          "name": "",
          "type": "uint256"
        }
      ],
      "stateMutability": "view",
      "type": "function"
    },
    {
      "inputs": [
        {
          "internalType": "uint256",
          "name": "index",
          "type": "uint256"
        }
      ],
      "name": "getUnstakeRequest",
      "outputs": [
        {
          "internalType": "address",
          "name": "user",
          "type": "address"
        },
        {
          "internalType": "uint256",
          "name": "amount",
          "type": "uint256"
        },
        {
          "internalType": "uint256",
          "name": "timestamp",
          "type": "uint256"
        }
      ],
      "stateMutability": "view",
      "type": "function"
    },
    {
      "inputs": [],
      "name": "handleReceivedWETHDELETE",
      "outputs": [],
      "stateMutability": "nonpayable",
      "type": "function"
    },
    {
      "inputs": [],
      "name": "lastRewardTime",
      "outputs": [
        {
          "internalType": "uint256",
          "name": "",
          "type": "uint256"
        }
      ],
      "stateMutability": "view",
      "type": "function"
    },
    {
      "inputs": [
        {
          "internalType": "uint256",
          "name": "amount",
          "type": "uint256"
        }
      ],
      "name": "notifyFundsReceived",
      "outputs": [],
      "stateMutability": "nonpayable",
      "type": "function"
    },
    {
      "inputs": [],
      "name": "owner",
      "outputs": [
        {
          "internalType": "address",
          "name": "",
          "type": "address"
        }
      ],
      "stateMutability": "view",
      "type": "function"
    },
    {
      "inputs": [
        {
          "internalType": "address",
          "name": "_user",
          "type": "address"
        }
      ],
      "name": "pendingReward",
      "outputs": [
        {
          "internalType": "uint256",
          "name": "",
          "type": "uint256"
        }
      ],
      "stateMutability": "view",
      "type": "function"
    },
    {
      "inputs": [
        {
          "internalType": "address",
          "name": "",
          "type": "address"
        }
      ],
      "name": "pendingUnstakes",
      "outputs": [
        {
          "internalType": "uint256",
          "name": "",
          "type": "uint256"
        }
      ],
      "stateMutability": "view",
      "type": "function"
    },
    {
      "inputs": [
        {
          "internalType": "uint256",
          "name": "amount",
          "type": "uint256"
        }
      ],
      "name": "requestUnstake",
      "outputs": [],
      "stateMutability": "nonpayable",
      "type": "function"
    },
    {
      "inputs": [
        {
          "internalType": "address",
          "name": "",
          "type": "address"
        }
      ],
      "name": "rewardDebt",
      "outputs": [
        {
          "internalType": "uint256",
          "name": "",
          "type": "uint256"
        }
      ],
      "stateMutability": "view",
      "type": "function"
    },
    {
      "inputs": [
        {
          "internalType": "address",
          "name": "_factoryAddress",
          "type": "address"
        }
      ],
      "name": "setFactoryAddress",
      "outputs": [],
      "stateMutability": "nonpayable",
      "type": "function"
    },
    {
      "inputs": [],
      "name": "stake",
      "outputs": [],
      "stateMutability": "payable",
      "type": "function"
    },
    {
      "inputs": [
        {
          "internalType": "address",
          "name": "",
          "type": "address"
        }
      ],
      "name": "stakes",
      "outputs": [
        {
          "internalType": "uint256",
          "name": "",
          "type": "uint256"
        }
      ],
      "stateMutability": "view",
      "type": "function"
    },
    {
      "inputs": [],
      "name": "totalFundsNeeded",
      "outputs": [
        {
          "internalType": "uint256",
          "name": "",
          "type": "uint256"
        }
      ],
      "stateMutability": "view",
      "type": "function"
    },
    {
      "inputs": [],
      "name": "totalRewards",
      "outputs": [
        {
          "internalType": "uint256",
          "name": "",
          "type": "uint256"
        }
      ],
      "stateMutability": "view",
      "type": "function"
    },
    {
      "inputs": [],
      "name": "totalStaked",
      "outputs": [
        {
          "internalType": "uint256",
          "name": "",
          "type": "uint256"
        }
      ],
      "stateMutability": "view",
      "type": "function"
    },
    {
      "inputs": [
        {
          "internalType": "uint256",
          "name": "",
          "type": "uint256"
        }
      ],
      "name": "unstakeQueue",
      "outputs": [
        {
          "internalType": "address",
          "name": "user",
          "type": "address"
        },
        {
          "internalType": "uint256",
          "name": "amount",
          "type": "uint256"
        },
        {
          "internalType": "uint256",
          "name": "timestamp",
          "type": "uint256"
        }
      ],
      "stateMutability": "view",
      "type": "function"
    },
    {
      "inputs": [],
      "name": "weth",
      "outputs": [
        {
          "internalType": "address",
          "name": "",
          "type": "address"
        }
      ],
      "stateMutability": "view",
      "type": "function"
    },
    {
      "stateMutability": "payable",
      "type": "receive"
    }
  ],
  "bytecode": "0x60803461008357601f611a0e38819003918201601f19168301916001600160401b038311848410176100885780849260209460405283398101031261008357516001600160a01b0381169081900361008357600160005560018060a01b03193381600654161760065542600a55600554161760055560405161196f908161009f8239f35b600080fd5b634e487b7160e01b600052604160045260246000fdfe6080604081815260048036101561001e575b505050361561001c57005b005b600092833560e01c9081630e15561a146114595750806314d6aed0146113c157806316934fc4146108a25780632309572114611005578063372500ab14610d195780633a4b66f1146109765780633bac9c99146109575780633fc8cef31461092f5780635873eb9b146108f75780635dbdda69146108da5780637a766460146108a2578063817b1cd21461088357806383c17c55146107eb5780638da5cb5b146107c35780639231cf74146107a4578063939d623714610785578063966dae0e1461075e5780639b5ceb35146104d2578063afa58070146104a8578063d6b6b23f14610470578063ddb59e13146103d0578063f3385ace146103ad578063f40f0f52146102b15763f67a25e80361001157346102ad57826003193601126102ad576001600160a01b0380600554169183519283916370a0823160e01b8352309083015281602460209384935afa9283156102a357859361026f575b507f264b03945932e4bc51e688f9f27dbb1f5faba7660d11abdbf7e7f41ed87928ba818551858152a1600b546101ad578480f35b6101b56114c6565b5090828254169460018301947faeadbfc8febf10d119916528ecb37175473490279c943963f050330e4c90e959608087549860028701548551918c8352878301528a868301526060820152a186811061022a5750505061021a93505416905490611683565b6102226117f4565b388080808480f35b919450925061025b91507fd5e85995d9bdcdafb72531ec59faef29167c16780583ca2068587fe896170c479461159c565b9061026582611785565b51908152a1610222565b9080935081813d831161029c575b6102878183611547565b8101031261029757519138610179565b600080fd5b503d61027d565b84513d87823e3d90fd5b8280fd5b5091346103aa5760203660031901126103aa578235906001600160a01b0382168092036103aa57600954600a548042118061039f575b610326575b60208561031f86828764e8d4a5100061030f898584526001895284842054611569565b049281526002865220549061159c565b9051908152f35b61033f61033661012c924261159c565b60085490611569565b0464e8d4a510009081810291818304149015171561038c57602095509164e8d4a5100061030f610381879461037b61031f98976007549061157c565b906114fa565b9350505091926102ec565b602483601188634e487b7160e01b835252fd5b5060075415156102e7565b80fd5b5050346103cc57816003193601126103cc57602090600c549051908152f35b5080fd5b5082346103aa5760203660031901126103aa5750803590600b5482101561042d57506103fb90611475565b508054600182015460029092015492516001600160a01b03909116815260208101919091526040810191909152606090f35b606490602084519162461bcd60e51b8352820152601360248201527f496e646578206f7574206f6620626f756e6473000000000000000000000000006044820152fd5b50346102ad5760203660031901126102ad57356001600160a01b0381168091036102ad57828291602094526003845220549051908152f35b508290346103cc5760203660031901126103cc573590600b548210156103aa57506103fb90611475565b50346102ad576020918260031936011261075a576001600160a01b0391828154163303610719577f063d07ee72a7483b8e07ca09054bb686775c5c030f945dde3823a5257a0a93eb828051833581524287820152a1826005541692825185816024816370a0823160e01b9889825230888301525afa90811561070f5787916106e2575b507f264b03945932e4bc51e688f9f27dbb1f5faba7660d11abdbf7e7f41ed87928ba868551838152a1600b54610589578680f35b6105916114c6565b50828154169160018201927faeadbfc8febf10d119916528ecb37175473490279c943963f050330e4c90e95960808b8654936002870154908b519283528d830152848b8301526060820152a180821061069b5750505481546105f4918416611683565b6105fc6117f4565b5460468102908082046046149015171561068857859291610624606460249304600c5461159c565b600c55600554169484519586938492835230908301525afa90811561067f5750610656575b50505b3880808080808680f35b813d8311610678575b6106698183611547565b81010312610297573880610649565b503d61065f565b513d85823e3d90fd5b602487601185634e487b7160e01b835252fd5b92509250507fd5e85995d9bdcdafb72531ec59faef29167c16780583ca2068587fe896170c479594506106ce925061159c565b906106d882611785565b51908152a161064c565b90508581813d8311610708575b6106f98183611547565b81010312610297575138610555565b503d6106ef565b84513d89823e3d90fd5b83606492519162461bcd60e51b8352820152601760248201527f4f6e6c7920666163746f72792063616e206e6f746966790000000000000000006044820152fd5b8380fd5b5091346103aa57806003193601126103aa57506001600160a01b0360209254169051908152f35b5050346103cc57816003193601126103cc576020906009549051908152f35b5050346103cc57816003193601126103cc57602090600a549051908152f35b5050346103cc57816003193601126103cc576020906001600160a01b03600654169051908152f35b5090346102ad5760203660031901126102ad578135906001600160a01b0380831680930361087f5760065416330361083d575073ffffffffffffffffffffffffffffffffffffffff1982541617905580f35b5162461bcd60e51b8152602081840152601760248201527f43616c6c6572206973206e6f7420746865206f776e65720000000000000000006044820152606490fd5b8480fd5b5050346103cc57816003193601126103cc576020906007549051908152f35b50346102ad5760203660031901126102ad57356001600160a01b0381168091036102ad57828291602094526001845220549051908152f35b5050346103cc57816003193601126103cc576020905161012c8152f35b50346102ad5760203660031901126102ad57356001600160a01b0381168091036102ad57828291602094526002845220549051908152f35b5050346103cc57816003193601126103cc576020906001600160a01b03600554169051908152f35b5050346103cc57816003193601126103cc57602090600b549051908152f35b5090826003193601126102ad5761098b611648565b3415610cd6576109996115a9565b6001600160a01b0391838360055416803b156103cc578183918551928380927fd0e30db000000000000000000000000000000000000000000000000000000000825234905af18015610ccc57610cb8575b505060463402348104604603610ca5576064900492610a09843461159c565b50806005541681835416845180927fa9059cbb000000000000000000000000000000000000000000000000000000008252818981610a6360209b8c978b8401602090939291936001600160a01b0360408201951681520152565b03925af1908115610c9b578691610c61575b5015610c1f578490338252600185528382205480610b10575b82867febedb8b3c678666e7f36970bc8f57abf6d8fa2e828c0da91ea5b75bf68ed101a8733845260018352808420610ac73482546114fa565b9055610ad5346007546114fa565b6007553384526001835264e8d4a51000610af58286205460095490611569565b04338552600284528185205551913483523392a26001815580f35b64e8d4a51000610b26610b389260095490611569565b0433845260028752858420549061159c565b928315918215610b49575b50610a8e565b6005541690813b1561075a5784602485928389519586948593632e1a7d4d60e01b85528401525af18015610c1557908391610c01575b50839091610bf7575b8280929181923390f115610bed57907febedb8b3c678666e7f36970bc8f57abf6d8fa2e828c0da91ea5b75bf68ed101a9181519081527f106f923f993c2149d49b4255ff723acafa1f2d94393f561d3eda32ae348f7241843392a29083388080610b43565b81513d85823e3d90fd5b6108fc9150610b88565b610c0a9061151d565b6103cc578138610b7f565b85513d85823e3d90fd5b5082606492519162461bcd60e51b8352820152601e60248201527f4661696c656420746f2073656e64205745544820746f20666163746f727900006044820152fd5b90508481813d8311610c94575b610c788183611547565b81010312610c9057518015158103610c905738610a75565b8580fd5b503d610c6e565b84513d88823e3d90fd5b602485601184634e487b7160e01b835252fd5b610cc19061151d565b61075a5783386109ea565b84513d84823e3d90fd5b906020606492519162461bcd60e51b8352820152601260248201527f43616e6e6f74207374616b6520302045544800000000000000000000000000006044820152fd5b5090346102ad57826003193601126102ad57610d33611648565b33835260209060018252808420548015610f9d57610d6264e8d4a5100091610d596115a9565b60095490611569565b049233855260028352610d78828620548561159c565b938415610f5b576001600160a01b039060248583600554168651928380926370a0823160e01b825230898301525afa908115610f51579087918991610f20575b5010610ede573387526002855283872055600554869116803b156103cc578180916024865180948193632e1a7d4d60e01b83528b898401525af18015610ccc57610eca575b5080808087335af13d15610ec5573d67ffffffffffffffff8111610eb257835190610e31601f8201601f1916870183611547565b815286853d92013e5b15610e715750907f106f923f993c2149d49b4255ff723acafa1f2d94393f561d3eda32ae348f724191519283523392a26001815580f35b82606492519162461bcd60e51b8352820152601260248201527f4661696c656420746f2073656e642045544800000000000000000000000000006044820152fd5b602487604185634e487b7160e01b835252fd5b610e3a565b610ed39061151d565b61087f578438610dfd565b6064838686519162461bcd60e51b8352820152601b60248201527f4e6f7420656e6f756768205745544820696e20636f6e747261637400000000006044820152fd5b809250878092503d8311610f4a575b610f398183611547565b810103126102975786905138610db8565b503d610f2f565b85513d8a823e3d90fd5b5082606492519162461bcd60e51b8352820152601360248201527f4e6f207265776172647320746f20636c61696d000000000000000000000000006044820152fd5b5060849350519162461bcd60e51b8352820152602560248201527f4e6f207374616b656420616d6f756e7420746f20636c61696d2072657761726460448201527f7320666f720000000000000000000000000000000000000000000000000000006064820152fd5b509190346103cc57602090816003193601126102ad57833591611026611648565b3384526001815282828520541061137f576001600160a01b038060055416908351918284816370a0823160e01b93848252308c83015260249687915afa90811561134057908791899161134e575b50106110ca57505050829394506110ac7f57e41df54512c76148b5ba9b643d149752b0d35e493b969bd017d0a3fe5228cf9333611683565b33855260038152818520549082519485528401523392a26001815580f35b81885416803b1561134a5785517fbe5ef17600000000000000000000000000000000000000000000000000000000815230818b01908152602081018990529091899183919082908490829060400103925af180156113405761132d575b5083826005541691848751809481938252308d8301525afa9081156113235790869188916112f2575b501061118c575050829394506111877f57e41df54512c76148b5ba9b643d149752b0d35e493b969bd017d0a3fe5228cf9333611683565b6110ac565b338652600383528386206111a18682546114fa565b90558351906060820182811067ffffffffffffffff8211176112de57855233825283820186815285830191428352600b54680100000000000000008110156112cc578060016111f39201600b55611475565b9490946112bb57906002939291511673ffffffffffffffffffffffffffffffffffffffff1985541617845551600184015551910155825184815242838201527ff24ceb8901eaecb633a833076ec1a09f317122e81bd3bc200d811e0c9bb08146843392a26046840295848704604614851517156112aa5750506111876112a160647f57e41df54512c76148b5ba9b643d149752b0d35e493b969bd017d0a3fe5228cf95969704600c546114fa565b80600c55611785565b60118691634e487b7160e01b835252fd5b858a808d634e487b7160e01b825252fd5b858a60418d634e487b7160e01b835252fd5b8360418a634e487b7160e01b600052526000fd5b809250858092503d831161131c575b61130b8183611547565b810103126102975785905138611150565b503d611301565b85513d89823e3d90fd5b6113399097919761151d565b9538611127565b86513d8a823e3d90fd5b8780fd5b809250868092503d8311611378575b6113678183611547565b8101031261134a5786905138611074565b503d61135d565b8490606492519162461bcd60e51b8352820152601b60248201527f496e73756666696369656e74207374616b65642062616c616e636500000000006044820152fd5b50826003193601126102ad573415611417575060207ff8fad42e780bfa5459be3fe691e8ba1aec70342250112139c5771c3fd155f31291611404346008546114fa565b60085561140f6115a9565b51348152a180f35b6020606492519162461bcd60e51b8352820152601160248201527f4e6f207265776172647320746f206164640000000000000000000000000000006044820152fd5b8490346103cc57816003193601126103cc576020906008548152f35b600b548110156114b057600390600b600052027f0175b7a638427703f0dbe7bb9bbf987a2551717b34e79f33b5b1008d1fa01db90190600090565b634e487b7160e01b600052603260045260246000fd5b600b54156114b057600b6000527f0175b7a638427703f0dbe7bb9bbf987a2551717b34e79f33b5b1008d1fa01db990600090565b9190820180921161150757565b634e487b7160e01b600052601160045260246000fd5b67ffffffffffffffff811161153157604052565b634e487b7160e01b600052604160045260246000fd5b90601f8019910116810190811067ffffffffffffffff82111761153157604052565b8181029291811591840414171561150757565b8115611586570490565b634e487b7160e01b600052601260045260246000fd5b9190820391821161150757565b600a5442111561164657600754801561163f576115c8600a544261159c565b60085490816115db575b50505042600a55565b6115e88261012c92611569565b04908180821115611636576115fc9161159c565b60085564e8d4a51000908181029181830414901517156115075761162b916116239161157c565b6009546114fa565b6009553880806115d2565b505060006115fc565b5042600a55565b565b600260005414611659576002600055565b60046040517f3ee5aeb5000000000000000000000000000000000000000000000000000000008152fd5b90600554916000926001600160a01b0380911691823b1561087f5784806040946024865180948193632e1a7d4d60e01b83528a60048401525af18015610c9b57611772575b501692808385828215611769575b839283928392f11561175e579160209183857f85082129d87b2fe11527cb1b3b7a520aeb5aa6913f88a3d8757fe40d1db02fdd95526001845281812061171d84825461159c565b905561172b8360075461159c565b600755858152600184528164e8d4a5100061174c8284205460095490611569565b049187815260028652205551908152a2565b9051903d90823e3d90fd5b506108fc6116d6565b61177e9095919561151d565b93386116c8565b6001600160a01b036004541690813b15610297576000916024839260405194859384927f8c3a65a200000000000000000000000000000000000000000000000000000000845260048401525af180156117e8576117df5750565b6116469061151d565b6040513d6000823e3d90fd5b600b5480156118f55760001981019081116115075761181281611475565b50600090600b82527f0175b7a638427703f0dbe7bb9bbf987a2551717b34e79f33b5b1008d1fa01db990808203611879575b505061184f82611475565b611866578082600292558260018201550155600b55565b602482634e487b7160e01b815280600452fd5b6002916001600160a01b0382541673ffffffffffffffffffffffffffffffffffffffff1982541617905560018101547f0175b7a638427703f0dbe7bb9bbf987a2551717b34e79f33b5b1008d1fa01dba5501547f0175b7a638427703f0dbe7bb9bbf987a2551717b34e79f33b5b1008d1fa01dbb553880611844565b606460405162461bcd60e51b815260206004820152601460248201527f496e646578206f7574206f6620626f756e64732e0000000000000000000000006044820152fdfea2646970667358221220fe5ae766f514a6d7b9d12902138fca909cab159023ed54cc7febd3a77186bdc664736f6c63430008180033",
  "linkReferences": {},
  "deployedLinkReferences": {}
}