{
  "_format": "hh-sol-artifact-1",
  "contractName": "SimpleStaking",
  "sourceName": "contracts/Staking.sol",
  "abi": [
    {
      "inputs": [
        {
          "internalType": "address",
          "name": "_weth",
          "type": "address"
        }
      ],
      "stateMutability": "nonpayable",
      "type": "constructor"
    },
    {
      "inputs": [],
      "name": "ReentrancyGuardReentrantCall",
      "type": "error"
    },
    {
      "anonymous": false,
      "inputs": [
        {
          "indexed": false,
          "internalType": "uint256",
          "name": "availableWETH",
          "type": "uint256"
        }
      ],
      "name": "DebugAvailableWETH",
      "type": "event"
    },
    {
      "anonymous": false,
      "inputs": [
        {
          "indexed": false,
          "internalType": "address",
          "name": "user",
          "type": "address"
        },
        {
          "indexed": false,
          "internalType": "uint256",
          "name": "amountToProcess",
          "type": "uint256"
        }
      ],
      "name": "DebugProcessAttempt",
      "type": "event"
    },
    {
      "anonymous": false,
      "inputs": [
        {
          "indexed": false,
          "internalType": "address",
          "name": "user",
          "type": "address"
        },
        {
          "indexed": false,
          "internalType": "uint256",
          "name": "amount",
          "type": "uint256"
        }
      ],
      "name": "FailedToProcessUnstake",
      "type": "event"
    },
    {
      "anonymous": false,
      "inputs": [
        {
          "indexed": false,
          "internalType": "uint256",
          "name": "amount",
          "type": "uint256"
        },
        {
          "indexed": false,
          "internalType": "uint256",
          "name": "timestamp",
          "type": "uint256"
        }
      ],
      "name": "FundsReceived",
      "type": "event"
    },
    {
      "anonymous": false,
      "inputs": [
        {
          "indexed": false,
          "internalType": "uint256",
          "name": "amount",
          "type": "uint256"
        }
      ],
      "name": "FundsRequested",
      "type": "event"
    },
    {
      "anonymous": false,
      "inputs": [
        {
          "indexed": false,
          "internalType": "uint256",
          "name": "amountNeeded",
          "type": "uint256"
        }
      ],
      "name": "NotifyFactoryForFunds",
      "type": "event"
    },
    {
      "anonymous": false,
      "inputs": [
        {
          "indexed": false,
          "internalType": "address",
          "name": "user",
          "type": "address"
        },
        {
          "indexed": false,
          "internalType": "uint256",
          "name": "requestedAmount",
          "type": "uint256"
        },
        {
          "indexed": false,
          "internalType": "string",
          "name": "error",
          "type": "string"
        }
      ],
      "name": "ProcessUnstakeError",
      "type": "event"
    },
    {
      "anonymous": false,
      "inputs": [
        {
          "indexed": true,
          "internalType": "address",
          "name": "user",
          "type": "address"
        },
        {
          "indexed": false,
          "internalType": "uint256",
          "name": "amount",
          "type": "uint256"
        }
      ],
      "name": "RewardClaimed",
      "type": "event"
    },
    {
      "anonymous": false,
      "inputs": [
        {
          "indexed": false,
          "internalType": "uint256",
          "name": "amount",
          "type": "uint256"
        }
      ],
      "name": "RewardsAdded",
      "type": "event"
    },
    {
      "anonymous": false,
      "inputs": [
        {
          "indexed": true,
          "internalType": "address",
          "name": "user",
          "type": "address"
        },
        {
          "indexed": false,
          "internalType": "uint256",
          "name": "amount",
          "type": "uint256"
        }
      ],
      "name": "Stake",
      "type": "event"
    },
    {
      "anonymous": false,
      "inputs": [
        {
          "indexed": true,
          "internalType": "address",
          "name": "user",
          "type": "address"
        },
        {
          "indexed": false,
          "internalType": "uint256",
          "name": "amount",
          "type": "uint256"
        }
      ],
      "name": "Unstake",
      "type": "event"
    },
    {
      "anonymous": false,
      "inputs": [
        {
          "indexed": true,
          "internalType": "address",
          "name": "user",
          "type": "address"
        },
        {
          "indexed": false,
          "internalType": "uint256",
          "name": "amount",
          "type": "uint256"
        },
        {
          "indexed": false,
          "internalType": "uint256",
          "name": "pendingAmount",
          "type": "uint256"
        }
      ],
      "name": "UnstakeProcessed",
      "type": "event"
    },
    {
      "anonymous": false,
      "inputs": [
        {
          "indexed": true,
          "internalType": "address",
          "name": "user",
          "type": "address"
        },
        {
          "indexed": false,
          "internalType": "uint256",
          "name": "amount",
          "type": "uint256"
        },
        {
          "indexed": false,
          "internalType": "uint256",
          "name": "timestamp",
          "type": "uint256"
        }
      ],
      "name": "UnstakeQueued",
      "type": "event"
    },
    {
      "anonymous": false,
      "inputs": [
        {
          "indexed": false,
          "internalType": "uint256",
          "name": "index",
          "type": "uint256"
        },
        {
          "indexed": false,
          "internalType": "address",
          "name": "user",
          "type": "address"
        },
        {
          "indexed": false,
          "internalType": "uint256",
          "name": "amount",
          "type": "uint256"
        },
        {
          "indexed": false,
          "internalType": "uint256",
          "name": "pendingUnstakes",
          "type": "uint256"
        }
      ],
      "name": "UnstakeRequestDetails",
      "type": "event"
    },
    {
      "anonymous": false,
      "inputs": [
        {
          "indexed": true,
          "internalType": "address",
          "name": "user",
          "type": "address"
        },
        {
          "indexed": false,
          "internalType": "uint256",
          "name": "amount",
          "type": "uint256"
        },
        {
          "indexed": false,
          "internalType": "uint256",
          "name": "pendingAmount",
          "type": "uint256"
        }
      ],
      "name": "UnstakeRequested",
      "type": "event"
    },
    {
      "anonymous": false,
      "inputs": [
        {
          "indexed": false,
          "internalType": "address",
          "name": "user",
          "type": "address"
        },
        {
          "indexed": false,
          "internalType": "uint256",
          "name": "processedAmount",
          "type": "uint256"
        },
        {
          "indexed": false,
          "internalType": "uint256",
          "name": "remainingWETH",
          "type": "uint256"
        }
      ],
      "name": "WETHProcessed",
      "type": "event"
    },
    {
      "stateMutability": "payable",
      "type": "fallback"
    },
    {
      "inputs": [],
      "name": "REWARD_INTERVAL",
      "outputs": [
        {
          "internalType": "uint256",
          "name": "",
          "type": "uint256"
        }
      ],
      "stateMutability": "view",
      "type": "function"
    },
    {
      "inputs": [],
      "name": "accRewardPerShare",
      "outputs": [
        {
          "internalType": "uint256",
          "name": "",
          "type": "uint256"
        }
      ],
      "stateMutability": "view",
      "type": "function"
    },
    {
      "inputs": [],
      "name": "addRewards",
      "outputs": [],
      "stateMutability": "payable",
      "type": "function"
    },
    {
      "inputs": [],
      "name": "claimRewards",
      "outputs": [],
      "stateMutability": "nonpayable",
      "type": "function"
    },
    {
      "inputs": [],
      "name": "factoryAddress",
      "outputs": [
        {
          "internalType": "address",
          "name": "",
          "type": "address"
        }
      ],
      "stateMutability": "view",
      "type": "function"
    },
    {
      "inputs": [
        {
          "internalType": "address",
          "name": "staker",
          "type": "address"
        }
      ],
      "name": "getStake",
      "outputs": [
        {
          "internalType": "uint256",
          "name": "",
          "type": "uint256"
        }
      ],
      "stateMutability": "view",
      "type": "function"
    },
    {
      "inputs": [],
      "name": "getTotalStaked",
      "outputs": [
        {
          "internalType": "uint256",
          "name": "",
          "type": "uint256"
        }
      ],
      "stateMutability": "view",
      "type": "function"
    },
    {
      "inputs": [],
      "name": "getTotalUnstakeQueueAmount",
      "outputs": [
        {
          "internalType": "uint256",
          "name": "totalAmount",
          "type": "uint256"
        }
      ],
      "stateMutability": "view",
      "type": "function"
    },
    {
      "inputs": [],
      "name": "getUnstakeQueueLength",
      "outputs": [
        {
          "internalType": "uint256",
          "name": "",
          "type": "uint256"
        }
      ],
      "stateMutability": "view",
      "type": "function"
    },
    {
      "inputs": [
        {
          "internalType": "uint256",
          "name": "index",
          "type": "uint256"
        }
      ],
      "name": "getUnstakeRequest",
      "outputs": [
        {
          "internalType": "address",
          "name": "user",
          "type": "address"
        },
        {
          "internalType": "uint256",
          "name": "amount",
          "type": "uint256"
        },
        {
          "internalType": "uint256",
          "name": "timestamp",
          "type": "uint256"
        }
      ],
      "stateMutability": "view",
      "type": "function"
    },
    {
      "inputs": [],
      "name": "handleReceivedWETHDELETE",
      "outputs": [],
      "stateMutability": "nonpayable",
      "type": "function"
    },
    {
      "inputs": [],
      "name": "lastRewardTime",
      "outputs": [
        {
          "internalType": "uint256",
          "name": "",
          "type": "uint256"
        }
      ],
      "stateMutability": "view",
      "type": "function"
    },
    {
      "inputs": [
        {
          "internalType": "uint256",
          "name": "amount",
          "type": "uint256"
        }
      ],
      "name": "notifyFundsReceived",
      "outputs": [],
      "stateMutability": "nonpayable",
      "type": "function"
    },
    {
      "inputs": [],
      "name": "owner",
      "outputs": [
        {
          "internalType": "address",
          "name": "",
          "type": "address"
        }
      ],
      "stateMutability": "view",
      "type": "function"
    },
    {
      "inputs": [
        {
          "internalType": "address",
          "name": "_user",
          "type": "address"
        }
      ],
      "name": "pendingReward",
      "outputs": [
        {
          "internalType": "uint256",
          "name": "",
          "type": "uint256"
        }
      ],
      "stateMutability": "view",
      "type": "function"
    },
    {
      "inputs": [
        {
          "internalType": "address",
          "name": "",
          "type": "address"
        }
      ],
      "name": "pendingUnstakes",
      "outputs": [
        {
          "internalType": "uint256",
          "name": "",
          "type": "uint256"
        }
      ],
      "stateMutability": "view",
      "type": "function"
    },
    {
      "inputs": [
        {
          "internalType": "uint256",
          "name": "amount",
          "type": "uint256"
        }
      ],
      "name": "requestUnstake",
      "outputs": [],
      "stateMutability": "nonpayable",
      "type": "function"
    },
    {
      "inputs": [
        {
          "internalType": "address",
          "name": "",
          "type": "address"
        }
      ],
      "name": "rewardDebt",
      "outputs": [
        {
          "internalType": "uint256",
          "name": "",
          "type": "uint256"
        }
      ],
      "stateMutability": "view",
      "type": "function"
    },
    {
      "inputs": [
        {
          "internalType": "address",
          "name": "_factoryAddress",
          "type": "address"
        }
      ],
      "name": "setFactoryAddress",
      "outputs": [],
      "stateMutability": "nonpayable",
      "type": "function"
    },
    {
      "inputs": [],
      "name": "stake",
      "outputs": [],
      "stateMutability": "payable",
      "type": "function"
    },
    {
      "inputs": [
        {
          "internalType": "address",
          "name": "",
          "type": "address"
        }
      ],
      "name": "stakes",
      "outputs": [
        {
          "internalType": "uint256",
          "name": "",
          "type": "uint256"
        }
      ],
      "stateMutability": "view",
      "type": "function"
    },
    {
      "inputs": [],
      "name": "totalFundsNeeded",
      "outputs": [
        {
          "internalType": "uint256",
          "name": "",
          "type": "uint256"
        }
      ],
      "stateMutability": "view",
      "type": "function"
    },
    {
      "inputs": [],
      "name": "totalRewards",
      "outputs": [
        {
          "internalType": "uint256",
          "name": "",
          "type": "uint256"
        }
      ],
      "stateMutability": "view",
      "type": "function"
    },
    {
      "inputs": [],
      "name": "totalStaked",
      "outputs": [
        {
          "internalType": "uint256",
          "name": "",
          "type": "uint256"
        }
      ],
      "stateMutability": "view",
      "type": "function"
    },
    {
      "inputs": [
        {
          "internalType": "uint256",
          "name": "",
          "type": "uint256"
        }
      ],
      "name": "unstakeQueue",
      "outputs": [
        {
          "internalType": "address",
          "name": "user",
          "type": "address"
        },
        {
          "internalType": "uint256",
          "name": "amount",
          "type": "uint256"
        },
        {
          "internalType": "uint256",
          "name": "timestamp",
          "type": "uint256"
        }
      ],
      "stateMutability": "view",
      "type": "function"
    },
    {
      "inputs": [],
      "name": "weth",
      "outputs": [
        {
          "internalType": "address",
          "name": "",
          "type": "address"
        }
      ],
      "stateMutability": "view",
      "type": "function"
    },
    {
      "stateMutability": "payable",
      "type": "receive"
    }
  ],
  "bytecode": "0x60803461008357601f611a7838819003918201601f19168301916001600160401b038311848410176100885780849260209460405283398101031261008357516001600160a01b0381169081900361008357600160005560018060a01b03193381600654161760065542600a5560055416176005556040516119d9908161009f8239f35b600080fd5b634e487b7160e01b600052604160045260246000fdfe6080604081815260048036101561001e575b505050361561001c57005b005b600092833560e01c9081630917e77614611474575080630e15561a1461145557806314d6aed01461134857806316934fc4146108d55780632309572114610fc3578063372500ab14610d335780633a4b66f1146109a95780633bac9c991461098a5780633fc8cef3146109625780635873eb9b1461092a5780635dbdda691461090d5780637a766460146108d5578063817b1cd2146108b657806383c17c551461081e5780638da5cb5b146107f65780639231cf74146107d7578063939d6237146107b8578063966dae0e146107915780639b5ceb3514610505578063afa58070146104db578063b8e347df146104be578063d6b6b23f14610486578063ddb59e13146103e6578063f3385ace146103c3578063f40f0f52146102c75763f67a25e80361001157346102c357826003193601126102c3576001600160a01b0380600554169183519283916370a0823160e01b8352309083015281602460209384935afa9283156102b9578593610285575b507f264b03945932e4bc51e688f9f27dbb1f5faba7660d11abdbf7e7f41ed87928ba818551858152a1600b546101c3578480f35b6101cb6114e1565b5090828254169460018301947faeadbfc8febf10d119916528ecb37175473490279c943963f050330e4c90e959608087549860028701548551918c8352878301528a868301526060820152a186811061024057505050610230935054169054906116c3565b61023861185e565b388080808480f35b919450925061027191507fd5e85995d9bdcdafb72531ec59faef29167c16780583ca2068587fe896170c47946115b7565b9061027b826117c5565b51908152a1610238565b9080935081813d83116102b2575b61029d818361153f565b810103126102ad5751913861018f565b600080fd5b503d610293565b84513d87823e3d90fd5b8280fd5b5091346103c05760203660031901126103c0578235906001600160a01b0382168092036103c057600954600a54804211806103b5575b61033c575b60208561033586828764e8d4a51000610325898584526001895284842054611584565b04928152600286522054906115b7565b9051908152f35b61035561034c61012c92426115b7565b60085490611584565b0464e8d4a51000908181029181830414901517156103a257602095509164e8d4a510006103256103978794610391610335989760075490611597565b90611561565b935050509192610302565b602483601188634e487b7160e01b835252fd5b5060075415156102fd565b80fd5b5050346103e257816003193601126103e257602090600c549051908152f35b5080fd5b5082346103c05760203660031901126103c05750803590600b54821015610443575061041190611490565b508054600182015460029092015492516001600160a01b03909116815260208101919091526040810191909152606090f35b606490602084519162461bcd60e51b8352820152601360248201527f496e646578206f7574206f6620626f756e6473000000000000000000000000006044820152fd5b50346102c35760203660031901126102c357356001600160a01b0381168091036102c357828291602094526003845220549051908152f35b5050346103e257816003193601126103e2576020906103356115c4565b508290346103e25760203660031901126103e2573590600b548210156103c0575061041190611490565b50346102c3576020918260031936011261078d576001600160a01b039182815416330361074c577f063d07ee72a7483b8e07ca09054bb686775c5c030f945dde3823a5257a0a93eb828051833581524287820152a1826005541692825185816024816370a0823160e01b9889825230888301525afa908115610742578791610715575b507f264b03945932e4bc51e688f9f27dbb1f5faba7660d11abdbf7e7f41ed87928ba868551838152a1600b546105bc578680f35b6105c46114e1565b50828154169160018201927faeadbfc8febf10d119916528ecb37175473490279c943963f050330e4c90e95960808b8654936002870154908b519283528d830152848b8301526060820152a18082106106ce5750505481546106279184166116c3565b61062f61185e565b546046810290808204604614901517156106bb57859291610657606460249304600c546115b7565b600c55600554169484519586938492835230908301525afa9081156106b25750610689575b50505b3880808080808680f35b813d83116106ab575b61069c818361153f565b810103126102ad57388061067c565b503d610692565b513d85823e3d90fd5b602487601185634e487b7160e01b835252fd5b92509250507fd5e85995d9bdcdafb72531ec59faef29167c16780583ca2068587fe896170c4795945061070192506115b7565b9061070b826117c5565b51908152a161067f565b90508581813d831161073b575b61072c818361153f565b810103126102ad575138610588565b503d610722565b84513d89823e3d90fd5b83606492519162461bcd60e51b8352820152601760248201527f4f6e6c7920666163746f72792063616e206e6f746966790000000000000000006044820152fd5b8380fd5b5091346103c057806003193601126103c057506001600160a01b0360209254169051908152f35b5050346103e257816003193601126103e2576020906009549051908152f35b5050346103e257816003193601126103e257602090600a549051908152f35b5050346103e257816003193601126103e2576020906001600160a01b03600654169051908152f35b5090346102c35760203660031901126102c3578135906001600160a01b038083168093036108b257600654163303610870575073ffffffffffffffffffffffffffffffffffffffff1982541617905580f35b5162461bcd60e51b8152602081840152601760248201527f43616c6c6572206973206e6f7420746865206f776e65720000000000000000006044820152606490fd5b8480fd5b5050346103e257816003193601126103e2576020906007549051908152f35b50346102c35760203660031901126102c357356001600160a01b0381168091036102c357828291602094526001845220549051908152f35b5050346103e257816003193601126103e2576020905161012c8152f35b50346102c35760203660031901126102c357356001600160a01b0381168091036102c357828291602094526002845220549051908152f35b5050346103e257816003193601126103e2576020906001600160a01b03600554169051908152f35b5050346103e257816003193601126103e257602090600b549051908152f35b5090826003193601126102c3576109be611688565b3415610cf0576109cc6115fa565b6001600160a01b0391838360055416803b156103e257818391855192838092630d0e30db60e41b825234905af18015610ce657610cd2575b505060463402348104604603610cbf576064900492610a2384346115b7565b50806005541681835416845180927fa9059cbb000000000000000000000000000000000000000000000000000000008252818981610a7d60209b8c978b8401602090939291936001600160a01b0360408201951681520152565b03925af1908115610cb5578691610c7b575b5015610c39578490338252600185528382205480610b2a575b82867febedb8b3c678666e7f36970bc8f57abf6d8fa2e828c0da91ea5b75bf68ed101a8733845260018352808420610ae1348254611561565b9055610aef34600754611561565b6007553384526001835264e8d4a51000610b0f8286205460095490611584565b04338552600284528185205551913483523392a26001815580f35b64e8d4a51000610b40610b529260095490611584565b043384526002875285842054906115b7565b928315918215610b63575b50610aa8565b6005541690813b1561078d5784602485928389519586948593632e1a7d4d60e01b85528401525af18015610c2f57908391610c1b575b50839091610c11575b8280929181923390f115610c0757907febedb8b3c678666e7f36970bc8f57abf6d8fa2e828c0da91ea5b75bf68ed101a9181519081527f106f923f993c2149d49b4255ff723acafa1f2d94393f561d3eda32ae348f7241843392a29083388080610b5d565b81513d85823e3d90fd5b6108fc9150610ba2565b610c2490611515565b6103e2578138610b99565b85513d85823e3d90fd5b5082606492519162461bcd60e51b8352820152601e60248201527f4661696c656420746f2073656e64205745544820746f20666163746f727900006044820152fd5b90508481813d8311610cae575b610c92818361153f565b81010312610caa57518015158103610caa5738610a8f565b8580fd5b503d610c88565b84513d88823e3d90fd5b602485601184634e487b7160e01b835252fd5b610cdb90611515565b61078d578338610a04565b84513d84823e3d90fd5b906020606492519162461bcd60e51b8352820152601260248201527f43616e6e6f74207374616b6520302045544800000000000000000000000000006044820152fd5b5090346102c357826003193601126102c357610d4d611688565b610d556115fa565b33835260209060018252808420548015610f5b57610d7c64e8d4a510009160095490611584565b049233855260028352610d9282862054856115b7565b938415610f1957600854858110610ed75785610dad916115b7565b6008553386526002845282862055846001600160a01b0360055416803b156103e2578180916024865180948193632e1a7d4d60e01b83528b898401525af18015610ce657610ec3575b5080808087335af13d15610ebe573d67ffffffffffffffff8111610eab57835190610e2a601f8201601f191687018361153f565b815286853d92013e5b15610e6a5750907f106f923f993c2149d49b4255ff723acafa1f2d94393f561d3eda32ae348f724191519283523392a26001815580f35b82606492519162461bcd60e51b8352820152601260248201527f4661696c656420746f2073656e642045544800000000000000000000000000006044820152fd5b602487604185634e487b7160e01b835252fd5b610e33565b610ecc90611515565b6108b2578438610df6565b6064838686519162461bcd60e51b8352820152601a60248201527f4e6f7420656e6f756768207265776172647320696e20706f6f6c0000000000006044820152fd5b5082606492519162461bcd60e51b8352820152601360248201527f4e6f207265776172647320746f20636c61696d000000000000000000000000006044820152fd5b5060849350519162461bcd60e51b8352820152602560248201527f4e6f207374616b656420616d6f756e7420746f20636c61696d2072657761726460448201527f7320666f720000000000000000000000000000000000000000000000000000006064820152fd5b509190346103e257602090816003193601126102c357833591610fe4611688565b33845260018152828285205410611306576001600160a01b038060055416835183816024816370a0823160e01b95868252308d8301525afa9081156112c75790869188916112d5575b5010611082575050829394506110647f57e41df54512c76148b5ba9b643d149752b0d35e493b969bd017d0a3fe5228cf93336116c3565b33855260038152818520549082519485528401523392a26001815580f35b81875416803b156112d15784517fbe5ef17600000000000000000000000000000000000000000000000000000000815230818a01908152602081018890529091889183919082908490829060400103925af180156112c7579087916112b3575b50508282600554169160248651809481938252308c8301525afa908115610cb5579085918791611282575b50106111485750829394506111437f57e41df54512c76148b5ba9b643d149752b0d35e493b969bd017d0a3fe5228cf93336116c3565b611064565b3385526003825282852061115d858254611561565b90558251906060820182811067ffffffffffffffff82111761126d57845233825282820185815284830191428352600b546801000000000000000081101561125a578060016111af9201600b55611490565b949094611248577f57e41df54512c76148b5ba9b643d149752b0d35e493b969bd017d0a3fe5228cf97989950906002939291511673ffffffffffffffffffffffffffffffffffffffff1985541617845551600184015551910155815184815242828201527ff24ceb8901eaecb633a833076ec1a09f317122e81bd3bc200d811e0c9bb08146833392a26111436112436115c4565b6117c5565b602489808c634e487b7160e01b825252fd5b60248960418c634e487b7160e01b835252fd5b604188634e487b7160e01b6000525260246000fd5b809250848092503d83116112ac575b61129b818361153f565b810103126102ad578490513861110d565b503d611291565b6112bc90611515565b610caa5785386110e2565b85513d89823e3d90fd5b8680fd5b809250858092503d83116112ff575b6112ee818361153f565b810103126102ad578590513861102d565b503d6112e4565b8490606492519162461bcd60e51b8352820152601b60248201527f496e73756666696369656e74207374616b65642062616c616e636500000000006044820152fd5b50826003193601126102c357341561141357826001600160a01b0360055416803b156103e257835192838092630d0e30db60e41b825234905af18015611407576113d1575b5060207ff8fad42e780bfa5459be3fe691e8ba1aec70342250112139c5771c3fd155f312916113be34600854611561565b6008556113c96115fa565b51348152a180f35b7ff8fad42e780bfa5459be3fe691e8ba1aec70342250112139c5771c3fd155f31291926113ff602092611515565b92915061138d565b505051903d90823e3d90fd5b6020606492519162461bcd60e51b8352820152601160248201527f4e6f207265776172647320746f206164640000000000000000000000000000006044820152fd5b5050346103e257816003193601126103e2576020906008549051908152f35b8490346103e257816003193601126103e2576020906007548152f35b600b548110156114cb57600390600b600052027f0175b7a638427703f0dbe7bb9bbf987a2551717b34e79f33b5b1008d1fa01db90190600090565b634e487b7160e01b600052603260045260246000fd5b600b54156114cb57600b6000527f0175b7a638427703f0dbe7bb9bbf987a2551717b34e79f33b5b1008d1fa01db990600090565b67ffffffffffffffff811161152957604052565b634e487b7160e01b600052604160045260246000fd5b90601f8019910116810190811067ffffffffffffffff82111761152957604052565b9190820180921161156e57565b634e487b7160e01b600052601160045260246000fd5b8181029291811591840414171561156e57565b81156115a1570490565b634e487b7160e01b600052601260045260246000fd5b9190820391821161156e57565b600080600b545b8082106115d757505090565b90916115f2600191826115e986611490565b50015490611561565b9201906115cb565b600a5442111561168657600754801561167f57611619600a54426115b7565b61012c6116296008548093611584565b0490151580611676575b611640575b505042600a55565b64e8d4a510009081810291818304149015171561156e5761166c9161166491611597565b600954611561565b6009553880611638565b50801515611633565b5042600a55565b565b600260005414611699576002600055565b60046040517f3ee5aeb5000000000000000000000000000000000000000000000000000000008152fd5b90600554916000926001600160a01b0380911691823b156108b25784806040946024865180948193632e1a7d4d60e01b83528a60048401525af18015610cb5576117b2575b5016928083858282156117a9575b839283928392f11561179e579160209183857f85082129d87b2fe11527cb1b3b7a520aeb5aa6913f88a3d8757fe40d1db02fdd95526001845281812061175d8482546115b7565b905561176b836007546115b7565b600755858152600184528164e8d4a5100061178c8284205460095490611584565b049187815260028652205551908152a2565b9051903d90823e3d90fd5b506108fc611716565b6117be90959195611515565b9338611708565b7fac0a36a73050720c3fa0d6988cca2309ef4472b3b09fafa8e713f434ff33a05b6020604051838152a16001600160a01b036004541690813b156102ad576000916024839260405194859384927f8c3a65a200000000000000000000000000000000000000000000000000000000845260048401525af18015611852576118495750565b61168690611515565b6040513d6000823e3d90fd5b600b54801561195f57600019810190811161156e5761187c81611490565b50600090600b82527f0175b7a638427703f0dbe7bb9bbf987a2551717b34e79f33b5b1008d1fa01db9908082036118e3575b50506118b982611490565b6118d0578082600292558260018201550155600b55565b602482634e487b7160e01b815280600452fd5b6002916001600160a01b0382541673ffffffffffffffffffffffffffffffffffffffff1982541617905560018101547f0175b7a638427703f0dbe7bb9bbf987a2551717b34e79f33b5b1008d1fa01dba5501547f0175b7a638427703f0dbe7bb9bbf987a2551717b34e79f33b5b1008d1fa01dbb5538806118ae565b606460405162461bcd60e51b815260206004820152601460248201527f496e646578206f7574206f6620626f756e64732e0000000000000000000000006044820152fdfea26469706673582212206d314ff69ee5ec718559f60c3395e9ed347f24e6f457adbaff7b1fe1b348155f64736f6c63430008180033",
  "linkReferences": {},
  "deployedLinkReferences": {}
}