{
  "_format": "hh-sol-artifact-1",
  "contractName": "SimpleStaking",
  "sourceName": "contracts/Staking.sol",
  "abi": [
    {
      "inputs": [
        {
          "internalType": "address",
          "name": "_weth",
          "type": "address"
        }
      ],
      "stateMutability": "nonpayable",
      "type": "constructor"
    },
    {
      "inputs": [],
      "name": "ReentrancyGuardReentrantCall",
      "type": "error"
    },
    {
      "anonymous": false,
      "inputs": [
        {
          "indexed": false,
          "internalType": "uint256",
          "name": "availableWETH",
          "type": "uint256"
        }
      ],
      "name": "DebugAvailableWETH",
      "type": "event"
    },
    {
      "anonymous": false,
      "inputs": [
        {
          "indexed": false,
          "internalType": "address",
          "name": "user",
          "type": "address"
        },
        {
          "indexed": false,
          "internalType": "uint256",
          "name": "amountToProcess",
          "type": "uint256"
        }
      ],
      "name": "DebugProcessAttempt",
      "type": "event"
    },
    {
      "anonymous": false,
      "inputs": [
        {
          "indexed": false,
          "internalType": "address",
          "name": "user",
          "type": "address"
        },
        {
          "indexed": false,
          "internalType": "uint256",
          "name": "amount",
          "type": "uint256"
        }
      ],
      "name": "FailedToProcessUnstake",
      "type": "event"
    },
    {
      "anonymous": false,
      "inputs": [
        {
          "indexed": false,
          "internalType": "uint256",
          "name": "amount",
          "type": "uint256"
        },
        {
          "indexed": false,
          "internalType": "uint256",
          "name": "timestamp",
          "type": "uint256"
        }
      ],
      "name": "FundsReceived",
      "type": "event"
    },
    {
      "anonymous": false,
      "inputs": [
        {
          "indexed": false,
          "internalType": "uint256",
          "name": "amount",
          "type": "uint256"
        }
      ],
      "name": "FundsRequested",
      "type": "event"
    },
    {
      "anonymous": false,
      "inputs": [
        {
          "indexed": false,
          "internalType": "address",
          "name": "user",
          "type": "address"
        },
        {
          "indexed": false,
          "internalType": "uint256",
          "name": "requestedAmount",
          "type": "uint256"
        },
        {
          "indexed": false,
          "internalType": "string",
          "name": "error",
          "type": "string"
        }
      ],
      "name": "ProcessUnstakeError",
      "type": "event"
    },
    {
      "anonymous": false,
      "inputs": [
        {
          "indexed": true,
          "internalType": "address",
          "name": "user",
          "type": "address"
        },
        {
          "indexed": false,
          "internalType": "uint256",
          "name": "amount",
          "type": "uint256"
        }
      ],
      "name": "RewardClaimed",
      "type": "event"
    },
    {
      "anonymous": false,
      "inputs": [
        {
          "indexed": false,
          "internalType": "uint256",
          "name": "amount",
          "type": "uint256"
        }
      ],
      "name": "RewardsAdded",
      "type": "event"
    },
    {
      "anonymous": false,
      "inputs": [
        {
          "indexed": true,
          "internalType": "address",
          "name": "user",
          "type": "address"
        },
        {
          "indexed": false,
          "internalType": "uint256",
          "name": "amount",
          "type": "uint256"
        }
      ],
      "name": "Stake",
      "type": "event"
    },
    {
      "anonymous": false,
      "inputs": [
        {
          "indexed": true,
          "internalType": "address",
          "name": "user",
          "type": "address"
        },
        {
          "indexed": false,
          "internalType": "uint256",
          "name": "amount",
          "type": "uint256"
        }
      ],
      "name": "Unstake",
      "type": "event"
    },
    {
      "anonymous": false,
      "inputs": [
        {
          "indexed": true,
          "internalType": "address",
          "name": "user",
          "type": "address"
        },
        {
          "indexed": false,
          "internalType": "uint256",
          "name": "amount",
          "type": "uint256"
        },
        {
          "indexed": false,
          "internalType": "uint256",
          "name": "pendingAmount",
          "type": "uint256"
        }
      ],
      "name": "UnstakeProcessed",
      "type": "event"
    },
    {
      "anonymous": false,
      "inputs": [
        {
          "indexed": true,
          "internalType": "address",
          "name": "user",
          "type": "address"
        },
        {
          "indexed": false,
          "internalType": "uint256",
          "name": "amount",
          "type": "uint256"
        },
        {
          "indexed": false,
          "internalType": "uint256",
          "name": "timestamp",
          "type": "uint256"
        }
      ],
      "name": "UnstakeQueued",
      "type": "event"
    },
    {
      "anonymous": false,
      "inputs": [
        {
          "indexed": false,
          "internalType": "uint256",
          "name": "index",
          "type": "uint256"
        },
        {
          "indexed": false,
          "internalType": "address",
          "name": "user",
          "type": "address"
        },
        {
          "indexed": false,
          "internalType": "uint256",
          "name": "amount",
          "type": "uint256"
        },
        {
          "indexed": false,
          "internalType": "uint256",
          "name": "pendingUnstakes",
          "type": "uint256"
        }
      ],
      "name": "UnstakeRequestDetails",
      "type": "event"
    },
    {
      "anonymous": false,
      "inputs": [
        {
          "indexed": true,
          "internalType": "address",
          "name": "user",
          "type": "address"
        },
        {
          "indexed": false,
          "internalType": "uint256",
          "name": "amount",
          "type": "uint256"
        },
        {
          "indexed": false,
          "internalType": "uint256",
          "name": "pendingAmount",
          "type": "uint256"
        }
      ],
      "name": "UnstakeRequested",
      "type": "event"
    },
    {
      "anonymous": false,
      "inputs": [
        {
          "indexed": false,
          "internalType": "address",
          "name": "user",
          "type": "address"
        },
        {
          "indexed": false,
          "internalType": "uint256",
          "name": "processedAmount",
          "type": "uint256"
        },
        {
          "indexed": false,
          "internalType": "uint256",
          "name": "remainingWETH",
          "type": "uint256"
        }
      ],
      "name": "WETHProcessed",
      "type": "event"
    },
    {
      "stateMutability": "payable",
      "type": "fallback"
    },
    {
      "inputs": [],
      "name": "REWARD_INTERVAL",
      "outputs": [
        {
          "internalType": "uint256",
          "name": "",
          "type": "uint256"
        }
      ],
      "stateMutability": "view",
      "type": "function"
    },
    {
      "inputs": [],
      "name": "accRewardPerShare",
      "outputs": [
        {
          "internalType": "uint256",
          "name": "",
          "type": "uint256"
        }
      ],
      "stateMutability": "view",
      "type": "function"
    },
    {
      "inputs": [],
      "name": "addRewards",
      "outputs": [],
      "stateMutability": "payable",
      "type": "function"
    },
    {
      "inputs": [],
      "name": "claimRewards",
      "outputs": [],
      "stateMutability": "nonpayable",
      "type": "function"
    },
    {
      "inputs": [],
      "name": "factoryAddress",
      "outputs": [
        {
          "internalType": "address",
          "name": "",
          "type": "address"
        }
      ],
      "stateMutability": "view",
      "type": "function"
    },
    {
      "inputs": [
        {
          "internalType": "address",
          "name": "staker",
          "type": "address"
        }
      ],
      "name": "getStake",
      "outputs": [
        {
          "internalType": "uint256",
          "name": "",
          "type": "uint256"
        }
      ],
      "stateMutability": "view",
      "type": "function"
    },
    {
      "inputs": [],
      "name": "getUnstakeQueueLength",
      "outputs": [
        {
          "internalType": "uint256",
          "name": "",
          "type": "uint256"
        }
      ],
      "stateMutability": "view",
      "type": "function"
    },
    {
      "inputs": [
        {
          "internalType": "uint256",
          "name": "index",
          "type": "uint256"
        }
      ],
      "name": "getUnstakeRequest",
      "outputs": [
        {
          "internalType": "address",
          "name": "user",
          "type": "address"
        },
        {
          "internalType": "uint256",
          "name": "amount",
          "type": "uint256"
        },
        {
          "internalType": "uint256",
          "name": "timestamp",
          "type": "uint256"
        }
      ],
      "stateMutability": "view",
      "type": "function"
    },
    {
      "inputs": [],
      "name": "handleReceivedWETHDELETE",
      "outputs": [],
      "stateMutability": "nonpayable",
      "type": "function"
    },
    {
      "inputs": [],
      "name": "lastRewardTime",
      "outputs": [
        {
          "internalType": "uint256",
          "name": "",
          "type": "uint256"
        }
      ],
      "stateMutability": "view",
      "type": "function"
    },
    {
      "inputs": [
        {
          "internalType": "uint256",
          "name": "amount",
          "type": "uint256"
        }
      ],
      "name": "notifyFundsReceived",
      "outputs": [],
      "stateMutability": "nonpayable",
      "type": "function"
    },
    {
      "inputs": [],
      "name": "owner",
      "outputs": [
        {
          "internalType": "address",
          "name": "",
          "type": "address"
        }
      ],
      "stateMutability": "view",
      "type": "function"
    },
    {
      "inputs": [
        {
          "internalType": "address",
          "name": "_user",
          "type": "address"
        }
      ],
      "name": "pendingReward",
      "outputs": [
        {
          "internalType": "uint256",
          "name": "",
          "type": "uint256"
        }
      ],
      "stateMutability": "view",
      "type": "function"
    },
    {
      "inputs": [
        {
          "internalType": "address",
          "name": "",
          "type": "address"
        }
      ],
      "name": "pendingUnstakes",
      "outputs": [
        {
          "internalType": "uint256",
          "name": "",
          "type": "uint256"
        }
      ],
      "stateMutability": "view",
      "type": "function"
    },
    {
      "inputs": [
        {
          "internalType": "uint256",
          "name": "amount",
          "type": "uint256"
        }
      ],
      "name": "requestUnstake",
      "outputs": [],
      "stateMutability": "nonpayable",
      "type": "function"
    },
    {
      "inputs": [
        {
          "internalType": "address",
          "name": "",
          "type": "address"
        }
      ],
      "name": "rewardDebt",
      "outputs": [
        {
          "internalType": "uint256",
          "name": "",
          "type": "uint256"
        }
      ],
      "stateMutability": "view",
      "type": "function"
    },
    {
      "inputs": [
        {
          "internalType": "address",
          "name": "_factoryAddress",
          "type": "address"
        }
      ],
      "name": "setFactoryAddress",
      "outputs": [],
      "stateMutability": "nonpayable",
      "type": "function"
    },
    {
      "inputs": [],
      "name": "stake",
      "outputs": [],
      "stateMutability": "payable",
      "type": "function"
    },
    {
      "inputs": [
        {
          "internalType": "address",
          "name": "",
          "type": "address"
        }
      ],
      "name": "stakes",
      "outputs": [
        {
          "internalType": "uint256",
          "name": "",
          "type": "uint256"
        }
      ],
      "stateMutability": "view",
      "type": "function"
    },
    {
      "inputs": [],
      "name": "totalFundsNeeded",
      "outputs": [
        {
          "internalType": "uint256",
          "name": "",
          "type": "uint256"
        }
      ],
      "stateMutability": "view",
      "type": "function"
    },
    {
      "inputs": [],
      "name": "totalRewards",
      "outputs": [
        {
          "internalType": "uint256",
          "name": "",
          "type": "uint256"
        }
      ],
      "stateMutability": "view",
      "type": "function"
    },
    {
      "inputs": [],
      "name": "totalStaked",
      "outputs": [
        {
          "internalType": "uint256",
          "name": "",
          "type": "uint256"
        }
      ],
      "stateMutability": "view",
      "type": "function"
    },
    {
      "inputs": [
        {
          "internalType": "uint256",
          "name": "amount",
          "type": "uint256"
        }
      ],
      "name": "unstake",
      "outputs": [],
      "stateMutability": "nonpayable",
      "type": "function"
    },
    {
      "inputs": [
        {
          "internalType": "uint256",
          "name": "",
          "type": "uint256"
        }
      ],
      "name": "unstakeQueue",
      "outputs": [
        {
          "internalType": "address",
          "name": "user",
          "type": "address"
        },
        {
          "internalType": "uint256",
          "name": "amount",
          "type": "uint256"
        },
        {
          "internalType": "uint256",
          "name": "timestamp",
          "type": "uint256"
        }
      ],
      "stateMutability": "view",
      "type": "function"
    },
    {
      "inputs": [],
      "name": "weth",
      "outputs": [
        {
          "internalType": "address",
          "name": "",
          "type": "address"
        }
      ],
      "stateMutability": "view",
      "type": "function"
    },
    {
      "stateMutability": "payable",
      "type": "receive"
    }
  ],
  "bytecode": "0x60803461008357601f611a6638819003918201601f19168301916001600160401b038311848410176100885780849260209460405283398101031261008357516001600160a01b0381169081900361008357600160005560018060a01b03193381600654161760065542600a5560055416176005556040516119c7908161009f8239f35b600080fd5b634e487b7160e01b600052604160045260246000fdfe6080604081815260048036101561001e575b505050361561001c57005b005b600092833560e01c9081630e15561a146112f05750806314d6aed01461125857806316934fc4146108ad57806323095721146110fd5780632e17de781461100a578063372500ab14610d115780633a4b66f1146109815780633bac9c99146109625780633fc8cef31461093a5780635873eb9b146109025780635dbdda69146108e55780637a766460146108ad578063817b1cd21461088e57806383c17c55146107f65780638da5cb5b146107ce5780639231cf74146107af578063939d623714610790578063966dae0e146107695780639b5ceb35146104dd578063afa58070146104b3578063d6b6b23f1461047b578063ddb59e13146103db578063f3385ace146103b8578063f40f0f52146102bc5763f67a25e80361001157346102b857826003193601126102b8576001600160a01b0380600554169183519283916370a0823160e01b8352309083015281602460209384935afa9283156102ae57859361027a575b507f264b03945932e4bc51e688f9f27dbb1f5faba7660d11abdbf7e7f41ed87928ba818551858152a1600b546101b8578480f35b6101c061130c565b5090828254169460018301947faeadbfc8febf10d119916528ecb37175473490279c943963f050330e4c90e959608087549860028701548551918c8352878301528a868301526060820152a186811061023557505050610225935054169054906115d6565b61022d61184c565b388080808480f35b919450925061026691507fd5e85995d9bdcdafb72531ec59faef29167c16780583ca2068587fe896170c47946113ff565b90610270826117dd565b51908152a161022d565b9080935081813d83116102a7575b61029281836114a7565b810103126102a257519138610184565b600080fd5b503d610288565b84513d87823e3d90fd5b8280fd5b5091346103b55760203660031901126103b5578235906001600160a01b0382168092036103b557600954600a54804211806103aa575b610331575b60208561032a86828764e8d4a5100061031a8985845260018952848420546114c9565b04928152600286522054906113ff565b9051908152f35b61034a61034161012c92426113ff565b600854906114c9565b0464e8d4a510009081810291818304149015171561039757602095509164e8d4a5100061031a61038c879461038661032a9897600754906114dc565b90611391565b9350505091926102f7565b602483601188634e487b7160e01b835252fd5b5060075415156102f2565b80fd5b5050346103d757816003193601126103d757602090600c549051908152f35b5080fd5b5082346103b55760203660031901126103b55750803590600b54821015610438575061040690611356565b508054600182015460029092015492516001600160a01b03909116815260208101919091526040810191909152606090f35b606490602084519162461bcd60e51b8352820152601360248201527f496e646578206f7574206f6620626f756e6473000000000000000000000000006044820152fd5b50346102b85760203660031901126102b857356001600160a01b0381168091036102b857828291602094526003845220549051908152f35b508290346103d75760203660031901126103d7573590600b548210156103b5575061040690611356565b50346102b85760209182600319360112610765576001600160a01b0391828154163303610724577f063d07ee72a7483b8e07ca09054bb686775c5c030f945dde3823a5257a0a93eb828051833581524287820152a1826005541692825185816024816370a0823160e01b9889825230888301525afa90811561071a5787916106ed575b507f264b03945932e4bc51e688f9f27dbb1f5faba7660d11abdbf7e7f41ed87928ba868551838152a1600b54610594578680f35b61059c61130c565b50828154169160018201927faeadbfc8febf10d119916528ecb37175473490279c943963f050330e4c90e95960808b8654936002870154908b519283528d830152848b8301526060820152a18082106106a65750505481546105ff9184166115d6565b61060761184c565b546046810290808204604614901517156106935785929161062f606460249304600c546113ff565b600c55600554169484519586938492835230908301525afa90811561068a5750610661575b50505b3880808080808680f35b813d8311610683575b61067481836114a7565b810103126102a2573880610654565b503d61066a565b513d85823e3d90fd5b602487601185634e487b7160e01b835252fd5b92509250507fd5e85995d9bdcdafb72531ec59faef29167c16780583ca2068587fe896170c479594506106d992506113ff565b906106e3826117dd565b51908152a1610657565b90508581813d8311610713575b61070481836114a7565b810103126102a2575138610560565b503d6106fa565b84513d89823e3d90fd5b83606492519162461bcd60e51b8352820152601760248201527f4f6e6c7920666163746f72792063616e206e6f746966790000000000000000006044820152fd5b8380fd5b5091346103b557806003193601126103b557506001600160a01b0360209254169051908152f35b5050346103d757816003193601126103d7576020906009549051908152f35b5050346103d757816003193601126103d757602090600a549051908152f35b5050346103d757816003193601126103d7576020906001600160a01b03600654169051908152f35b5090346102b85760203660031901126102b8578135906001600160a01b0380831680930361088a57600654163303610848575073ffffffffffffffffffffffffffffffffffffffff1982541617905580f35b5162461bcd60e51b8152602081840152601760248201527f43616c6c6572206973206e6f7420746865206f776e65720000000000000000006044820152606490fd5b8480fd5b5050346103d757816003193601126103d7576020906007549051908152f35b50346102b85760203660031901126102b857356001600160a01b0381168091036102b857828291602094526001845220549051908152f35b5050346103d757816003193601126103d7576020905161012c8152f35b50346102b85760203660031901126102b857356001600160a01b0381168091036102b857828291602094526002845220549051908152f35b5050346103d757816003193601126103d7576020906001600160a01b03600554169051908152f35b5050346103d757816003193601126103d757602090600b549051908152f35b509190816003193601126103d75761099761159b565b3415610ccf576109a56114fc565b6001600160a01b03928360055416803b15610765578382918451928380927fd0e30db000000000000000000000000000000000000000000000000000000000825234905af18015610cc257908491610cae575b50506046340293348504604603610c9b576064849504610a1881346113ff565b50816005541682845416918551927fa9059cbb0000000000000000000000000000000000000000000000000000000084528584015260248301528160448160209889945af1908115610c91578691610c57575b5015610c15578490338252600185528382205480610b06575b82867febedb8b3c678666e7f36970bc8f57abf6d8fa2e828c0da91ea5b75bf68ed101a8733845260018352808420610abd348254611391565b9055610acb34600754611391565b6007553384526001835264e8d4a51000610aeb82862054600954906114c9565b04338552600284528185205551913483523392a26001815580f35b64e8d4a51000610b1c610b2e92600954906114c9565b043384526002875285842054906113ff565b928315918215610b3f575b50610a84565b6005541690813b156107655784602485928389519586948593632e1a7d4d60e01b85528401525af18015610c0b57908391610bf7575b50839091610bed575b8280929181923390f115610be357907febedb8b3c678666e7f36970bc8f57abf6d8fa2e828c0da91ea5b75bf68ed101a9181519081527f106f923f993c2149d49b4255ff723acafa1f2d94393f561d3eda32ae348f7241843392a29083388080610b39565b81513d85823e3d90fd5b6108fc9150610b7e565b610c009061147d565b6103d7578138610b75565b85513d85823e3d90fd5b5082606492519162461bcd60e51b8352820152601e60248201527f4661696c656420746f2073656e64205745544820746f20666163746f727900006044820152fd5b90508481813d8311610c8a575b610c6e81836114a7565b81010312610c8657518015158103610c865738610a6b565b8580fd5b503d610c64565b84513d88823e3d90fd5b602484601184634e487b7160e01b835252fd5b610cb79061147d565b6102b85782386109f8565b50505051903d90823e3d90fd5b5162461bcd60e51b8152602081840152601260248201527f43616e6e6f74207374616b6520302045544800000000000000000000000000006044820152606490fd5b5090346102b857826003193601126102b857610d2b61159b565b33835260209060018252808420548015610fa257610d5a64e8d4a5100091610d516114fc565b600954906114c9565b049233855260028352610d7082862054856113ff565b938415610f60576001600160a01b039060248583600554168651928380926370a0823160e01b825230898301525afa908115610f56579087918991610f21575b5010610edf573387526002855283872055600554869116803b156103d75781906024855180948193632e1a7d4d60e01b83528a888401525af18015610ed557610ec2575b508480808087335af13d15610ebd573d67ffffffffffffffff8111610eaa57835190610e29601f8201601f19168701836114a7565b815286853d92013e5b15610e695750907f106f923f993c2149d49b4255ff723acafa1f2d94393f561d3eda32ae348f724191519283523392a26001815580f35b82606492519162461bcd60e51b8352820152601260248201527f4661696c656420746f2073656e642045544800000000000000000000000000006044820152fd5b602487604185634e487b7160e01b835252fd5b610e32565b610ece9095919561147d565b9338610df4565b83513d88823e3d90fd5b6064838686519162461bcd60e51b8352820152601b60248201527f4e6f7420656e6f756768205745544820696e20636f6e747261637400000000006044820152fd5b809250878092503d8311610f4f575b610f3a81836114a7565b81010312610f4b5786905138610db0565b8780fd5b503d610f30565b85513d8a823e3d90fd5b5082606492519162461bcd60e51b8352820152601360248201527f4e6f207265776172647320746f20636c61696d000000000000000000000000006044820152fd5b5060849350519162461bcd60e51b8352820152602560248201527f4e6f207374616b656420616d6f756e7420746f20636c61696d2072657761726460448201527f7320666f720000000000000000000000000000000000000000000000000000006064820152fd5b50346102b8576020806003193601126107655781359161102861159b565b3385526001825261103e838587205410156113b4565b338552600182526110658361105e868820546003865287892054906113ff565b101561140c565b61106d6114fc565b816001600160a01b03600554169160248651809481936370a0823160e01b835230908301525afa9182156102ae5783945085926110cc575b5050106110bd576110b690336115d6565b6001815580f35b6110c790336116d8565b6110b6565b8193508092503d83116110f6575b6110e481836114a7565b810103126102b85781905138806110a5565b503d6110da565b50346102b857602091826003193601126107655781359261111c61159b565b33855260018152611132848387205410156113b4565b338552600181526111528461105e848820546003855285892054906113ff565b33855260038152818520611167858254611391565b9055806001600160a01b03600554169360248451809681936370a0823160e01b835230908301525afa801561124e57849086906111ff575b7f57e41df54512c76148b5ba9b643d149752b0d35e493b969bd017d0a3fe5228cf945010156111f0576111d284336116d8565b33855260038152818520549082519485528401523392a26001815580f35b6111fa84336115d6565b6111d2565b50508083813d8311611247575b61121681836114a7565b8101031261088a57837f57e41df54512c76148b5ba9b643d149752b0d35e493b969bd017d0a3fe5228cf935161119f565b503d61120c565b82513d87823e3d90fd5b50826003193601126102b85734156112ae575060207ff8fad42e780bfa5459be3fe691e8ba1aec70342250112139c5771c3fd155f3129161129b34600854611391565b6008556112a66114fc565b51348152a180f35b6020606492519162461bcd60e51b8352820152601160248201527f4e6f207265776172647320746f206164640000000000000000000000000000006044820152fd5b8490346103d757816003193601126103d7576020906008548152f35b600b541561134057600b6000527f0175b7a638427703f0dbe7bb9bbf987a2551717b34e79f33b5b1008d1fa01db990600090565b634e487b7160e01b600052603260045260246000fd5b600b5481101561134057600390600b600052027f0175b7a638427703f0dbe7bb9bbf987a2551717b34e79f33b5b1008d1fa01db90190600090565b9190820180921161139e57565b634e487b7160e01b600052601160045260246000fd5b156113bb57565b606460405162461bcd60e51b815260206004820152601b60248201527f496e73756666696369656e74207374616b65642062616c616e636500000000006044820152fd5b9190820391821161139e57565b1561141357565b608460405162461bcd60e51b815260206004820152602860248201527f556e7374616b6520616d6f756e74206578636565647320617661696c61626c6560448201527f2062616c616e63650000000000000000000000000000000000000000000000006064820152fd5b67ffffffffffffffff811161149157604052565b634e487b7160e01b600052604160045260246000fd5b90601f8019910116810190811067ffffffffffffffff82111761149157604052565b8181029291811591840414171561139e57565b81156114e6570490565b634e487b7160e01b600052601260045260246000fd5b600a544211156115995760075480156115925761151b600a54426113ff565b600854908161152e575b50505042600a55565b61153b8261012c926114c9565b049081808211156115895761154f916113ff565b60085564e8d4a510009081810291818304149015171561139e5761157e91611576916114dc565b600954611391565b600955388080611525565b5050600061154f565b5042600a55565b565b6002600054146115ac576002600055565b60046040517f3ee5aeb5000000000000000000000000000000000000000000000000000000008152fd5b90600554916000926001600160a01b0380911691823b1561088a5784806040946024865180948193632e1a7d4d60e01b83528a60048401525af18015610c91576116c5575b5016928083858282156116bc575b839283928392f1156116b1579160209183857f85082129d87b2fe11527cb1b3b7a520aeb5aa6913f88a3d8757fe40d1db02fdd9552600184528181206116708482546113ff565b905561167e836007546113ff565b600755858152600184528164e8d4a5100061169f82842054600954906114c9565b049187815260028652205551908152a2565b9051903d90823e3d90fd5b506108fc611629565b6116d19095919561147d565b933861161b565b604051906060820182811067ffffffffffffffff821117611491576040526001600160a01b0380911691828152602081018481526040820190428252600b5468010000000000000000811015611491578060016117389201600b55611356565b9490946117c757600293511673ffffffffffffffffffffffffffffffffffffffff19855416178455516001840155519101557ff24ceb8901eaecb633a833076ec1a09f317122e81bd3bc200d811e0c9bb0814660408051848152426020820152a260468102908082046046149015171561139e576117be60646115999204600c54611391565b80600c556117dd565b634e487b7160e01b600052600060045260246000fd5b6001600160a01b036004541690813b156102a2576000916024839260405194859384927f8c3a65a200000000000000000000000000000000000000000000000000000000845260048401525af18015611840576118375750565b6115999061147d565b6040513d6000823e3d90fd5b600b54801561194d57600019810190811161139e5761186a81611356565b50600090600b82527f0175b7a638427703f0dbe7bb9bbf987a2551717b34e79f33b5b1008d1fa01db9908082036118d1575b50506118a782611356565b6118be578082600292558260018201550155600b55565b602482634e487b7160e01b815280600452fd5b6002916001600160a01b0382541673ffffffffffffffffffffffffffffffffffffffff1982541617905560018101547f0175b7a638427703f0dbe7bb9bbf987a2551717b34e79f33b5b1008d1fa01dba5501547f0175b7a638427703f0dbe7bb9bbf987a2551717b34e79f33b5b1008d1fa01dbb55388061189c565b606460405162461bcd60e51b815260206004820152601460248201527f496e646578206f7574206f6620626f756e64732e0000000000000000000000006044820152fdfea26469706673582212204d5fa62cd27f9172dcbea0270785fe3d34e482ed824c860097d8eef035fce7ee64736f6c63430008180033",
  "linkReferences": {},
  "deployedLinkReferences": {}
}