{
  "_format": "hh-sol-artifact-1",
  "contractName": "SimpleStaking",
  "sourceName": "contracts/Staking.sol",
  "abi": [
    {
      "inputs": [
        {
          "internalType": "address",
          "name": "_weth",
          "type": "address"
        }
      ],
      "stateMutability": "nonpayable",
      "type": "constructor"
    },
    {
      "inputs": [],
      "name": "ReentrancyGuardReentrantCall",
      "type": "error"
    },
    {
      "anonymous": false,
      "inputs": [
        {
          "indexed": false,
          "internalType": "uint256",
          "name": "availableWETH",
          "type": "uint256"
        }
      ],
      "name": "DebugAvailableWETH",
      "type": "event"
    },
    {
      "anonymous": false,
      "inputs": [
        {
          "indexed": false,
          "internalType": "address",
          "name": "user",
          "type": "address"
        },
        {
          "indexed": false,
          "internalType": "uint256",
          "name": "amountToProcess",
          "type": "uint256"
        }
      ],
      "name": "DebugProcessAttempt",
      "type": "event"
    },
    {
      "anonymous": false,
      "inputs": [
        {
          "indexed": false,
          "internalType": "address",
          "name": "user",
          "type": "address"
        },
        {
          "indexed": false,
          "internalType": "uint256",
          "name": "amount",
          "type": "uint256"
        }
      ],
      "name": "FailedToProcessUnstake",
      "type": "event"
    },
    {
      "anonymous": false,
      "inputs": [
        {
          "indexed": false,
          "internalType": "uint256",
          "name": "amount",
          "type": "uint256"
        },
        {
          "indexed": false,
          "internalType": "uint256",
          "name": "timestamp",
          "type": "uint256"
        }
      ],
      "name": "FundsReceived",
      "type": "event"
    },
    {
      "anonymous": false,
      "inputs": [
        {
          "indexed": false,
          "internalType": "uint256",
          "name": "amount",
          "type": "uint256"
        }
      ],
      "name": "FundsRequested",
      "type": "event"
    },
    {
      "anonymous": false,
      "inputs": [
        {
          "indexed": false,
          "internalType": "address",
          "name": "user",
          "type": "address"
        },
        {
          "indexed": false,
          "internalType": "uint256",
          "name": "requestedAmount",
          "type": "uint256"
        },
        {
          "indexed": false,
          "internalType": "string",
          "name": "error",
          "type": "string"
        }
      ],
      "name": "ProcessUnstakeError",
      "type": "event"
    },
    {
      "anonymous": false,
      "inputs": [
        {
          "indexed": true,
          "internalType": "address",
          "name": "user",
          "type": "address"
        },
        {
          "indexed": false,
          "internalType": "uint256",
          "name": "amount",
          "type": "uint256"
        }
      ],
      "name": "RewardClaimed",
      "type": "event"
    },
    {
      "anonymous": false,
      "inputs": [
        {
          "indexed": false,
          "internalType": "uint256",
          "name": "amount",
          "type": "uint256"
        }
      ],
      "name": "RewardsAdded",
      "type": "event"
    },
    {
      "anonymous": false,
      "inputs": [
        {
          "indexed": true,
          "internalType": "address",
          "name": "user",
          "type": "address"
        },
        {
          "indexed": false,
          "internalType": "uint256",
          "name": "amount",
          "type": "uint256"
        }
      ],
      "name": "Stake",
      "type": "event"
    },
    {
      "anonymous": false,
      "inputs": [
        {
          "indexed": true,
          "internalType": "address",
          "name": "user",
          "type": "address"
        },
        {
          "indexed": false,
          "internalType": "uint256",
          "name": "amount",
          "type": "uint256"
        }
      ],
      "name": "Unstake",
      "type": "event"
    },
    {
      "anonymous": false,
      "inputs": [
        {
          "indexed": true,
          "internalType": "address",
          "name": "user",
          "type": "address"
        },
        {
          "indexed": false,
          "internalType": "uint256",
          "name": "amount",
          "type": "uint256"
        },
        {
          "indexed": false,
          "internalType": "uint256",
          "name": "pendingAmount",
          "type": "uint256"
        }
      ],
      "name": "UnstakeProcessed",
      "type": "event"
    },
    {
      "anonymous": false,
      "inputs": [
        {
          "indexed": true,
          "internalType": "address",
          "name": "user",
          "type": "address"
        },
        {
          "indexed": false,
          "internalType": "uint256",
          "name": "amount",
          "type": "uint256"
        },
        {
          "indexed": false,
          "internalType": "uint256",
          "name": "timestamp",
          "type": "uint256"
        }
      ],
      "name": "UnstakeQueued",
      "type": "event"
    },
    {
      "anonymous": false,
      "inputs": [
        {
          "indexed": false,
          "internalType": "uint256",
          "name": "index",
          "type": "uint256"
        },
        {
          "indexed": false,
          "internalType": "address",
          "name": "user",
          "type": "address"
        },
        {
          "indexed": false,
          "internalType": "uint256",
          "name": "amount",
          "type": "uint256"
        },
        {
          "indexed": false,
          "internalType": "uint256",
          "name": "pendingUnstakes",
          "type": "uint256"
        }
      ],
      "name": "UnstakeRequestDetails",
      "type": "event"
    },
    {
      "anonymous": false,
      "inputs": [
        {
          "indexed": true,
          "internalType": "address",
          "name": "user",
          "type": "address"
        },
        {
          "indexed": false,
          "internalType": "uint256",
          "name": "amount",
          "type": "uint256"
        },
        {
          "indexed": false,
          "internalType": "uint256",
          "name": "pendingAmount",
          "type": "uint256"
        }
      ],
      "name": "UnstakeRequested",
      "type": "event"
    },
    {
      "anonymous": false,
      "inputs": [
        {
          "indexed": false,
          "internalType": "address",
          "name": "user",
          "type": "address"
        },
        {
          "indexed": false,
          "internalType": "uint256",
          "name": "processedAmount",
          "type": "uint256"
        },
        {
          "indexed": false,
          "internalType": "uint256",
          "name": "remainingWETH",
          "type": "uint256"
        }
      ],
      "name": "WETHProcessed",
      "type": "event"
    },
    {
      "stateMutability": "payable",
      "type": "fallback"
    },
    {
      "inputs": [],
      "name": "REWARD_INTERVAL",
      "outputs": [
        {
          "internalType": "uint256",
          "name": "",
          "type": "uint256"
        }
      ],
      "stateMutability": "view",
      "type": "function"
    },
    {
      "inputs": [],
      "name": "accRewardPerShare",
      "outputs": [
        {
          "internalType": "uint256",
          "name": "",
          "type": "uint256"
        }
      ],
      "stateMutability": "view",
      "type": "function"
    },
    {
      "inputs": [],
      "name": "addRewards",
      "outputs": [],
      "stateMutability": "payable",
      "type": "function"
    },
    {
      "inputs": [],
      "name": "claimRewards",
      "outputs": [],
      "stateMutability": "nonpayable",
      "type": "function"
    },
    {
      "inputs": [],
      "name": "factoryAddress",
      "outputs": [
        {
          "internalType": "address",
          "name": "",
          "type": "address"
        }
      ],
      "stateMutability": "view",
      "type": "function"
    },
    {
      "inputs": [
        {
          "internalType": "address",
          "name": "staker",
          "type": "address"
        }
      ],
      "name": "getStake",
      "outputs": [
        {
          "internalType": "uint256",
          "name": "",
          "type": "uint256"
        }
      ],
      "stateMutability": "view",
      "type": "function"
    },
    {
      "inputs": [],
      "name": "getUnstakeQueueLength",
      "outputs": [
        {
          "internalType": "uint256",
          "name": "",
          "type": "uint256"
        }
      ],
      "stateMutability": "view",
      "type": "function"
    },
    {
      "inputs": [
        {
          "internalType": "uint256",
          "name": "index",
          "type": "uint256"
        }
      ],
      "name": "getUnstakeRequest",
      "outputs": [
        {
          "internalType": "address",
          "name": "user",
          "type": "address"
        },
        {
          "internalType": "uint256",
          "name": "amount",
          "type": "uint256"
        },
        {
          "internalType": "uint256",
          "name": "timestamp",
          "type": "uint256"
        }
      ],
      "stateMutability": "view",
      "type": "function"
    },
    {
      "inputs": [],
      "name": "handleReceivedWETH",
      "outputs": [],
      "stateMutability": "nonpayable",
      "type": "function"
    },
    {
      "inputs": [],
      "name": "lastRewardTime",
      "outputs": [
        {
          "internalType": "uint256",
          "name": "",
          "type": "uint256"
        }
      ],
      "stateMutability": "view",
      "type": "function"
    },
    {
      "inputs": [
        {
          "internalType": "uint256",
          "name": "amount",
          "type": "uint256"
        }
      ],
      "name": "notifyFundsReceived",
      "outputs": [],
      "stateMutability": "nonpayable",
      "type": "function"
    },
    {
      "inputs": [],
      "name": "owner",
      "outputs": [
        {
          "internalType": "address",
          "name": "",
          "type": "address"
        }
      ],
      "stateMutability": "view",
      "type": "function"
    },
    {
      "inputs": [
        {
          "internalType": "address",
          "name": "_user",
          "type": "address"
        }
      ],
      "name": "pendingReward",
      "outputs": [
        {
          "internalType": "uint256",
          "name": "",
          "type": "uint256"
        }
      ],
      "stateMutability": "view",
      "type": "function"
    },
    {
      "inputs": [
        {
          "internalType": "address",
          "name": "",
          "type": "address"
        }
      ],
      "name": "pendingUnstakes",
      "outputs": [
        {
          "internalType": "uint256",
          "name": "",
          "type": "uint256"
        }
      ],
      "stateMutability": "view",
      "type": "function"
    },
    {
      "inputs": [
        {
          "internalType": "uint256",
          "name": "amount",
          "type": "uint256"
        }
      ],
      "name": "requestUnstake",
      "outputs": [],
      "stateMutability": "nonpayable",
      "type": "function"
    },
    {
      "inputs": [
        {
          "internalType": "address",
          "name": "",
          "type": "address"
        }
      ],
      "name": "rewardDebt",
      "outputs": [
        {
          "internalType": "uint256",
          "name": "",
          "type": "uint256"
        }
      ],
      "stateMutability": "view",
      "type": "function"
    },
    {
      "inputs": [
        {
          "internalType": "address",
          "name": "_factoryAddress",
          "type": "address"
        }
      ],
      "name": "setFactoryAddress",
      "outputs": [],
      "stateMutability": "nonpayable",
      "type": "function"
    },
    {
      "inputs": [],
      "name": "stake",
      "outputs": [],
      "stateMutability": "payable",
      "type": "function"
    },
    {
      "inputs": [
        {
          "internalType": "address",
          "name": "",
          "type": "address"
        }
      ],
      "name": "stakes",
      "outputs": [
        {
          "internalType": "uint256",
          "name": "",
          "type": "uint256"
        }
      ],
      "stateMutability": "view",
      "type": "function"
    },
    {
      "inputs": [],
      "name": "totalRewards",
      "outputs": [
        {
          "internalType": "uint256",
          "name": "",
          "type": "uint256"
        }
      ],
      "stateMutability": "view",
      "type": "function"
    },
    {
      "inputs": [],
      "name": "totalStaked",
      "outputs": [
        {
          "internalType": "uint256",
          "name": "",
          "type": "uint256"
        }
      ],
      "stateMutability": "view",
      "type": "function"
    },
    {
      "inputs": [
        {
          "internalType": "uint256",
          "name": "amount",
          "type": "uint256"
        }
      ],
      "name": "unstake",
      "outputs": [],
      "stateMutability": "nonpayable",
      "type": "function"
    },
    {
      "inputs": [
        {
          "internalType": "uint256",
          "name": "",
          "type": "uint256"
        }
      ],
      "name": "unstakeQueue",
      "outputs": [
        {
          "internalType": "address",
          "name": "user",
          "type": "address"
        },
        {
          "internalType": "uint256",
          "name": "amount",
          "type": "uint256"
        },
        {
          "internalType": "uint256",
          "name": "timestamp",
          "type": "uint256"
        }
      ],
      "stateMutability": "view",
      "type": "function"
    },
    {
      "inputs": [],
      "name": "weth",
      "outputs": [
        {
          "internalType": "address",
          "name": "",
          "type": "address"
        }
      ],
      "stateMutability": "view",
      "type": "function"
    },
    {
      "stateMutability": "payable",
      "type": "receive"
    }
  ],
  "bytecode": "0x60803461008357601f61183438819003918201601f19168301916001600160401b038311848410176100885780849260209460405283398101031261008357516001600160a01b0381169081900361008357600160005560018060a01b03193381600654161760065542600a556005541617600555604051611795908161009f8239f35b600080fd5b634e487b7160e01b600052604160045260246000fdfe608060408181526004918236101561001f575b505050361561001d57005b005b600090813560e01c9081630e15561a14610f895750806314d6aed014610ef057806316934fc4146105335780632309572114610d945780632e17de7814610c96578063372500ab1461099c5780633a4b66f1146106095780633bac9c99146105ea5780633fc8cef3146105c25780635873eb9b146105895780635dbdda691461056c5780637a76646014610533578063817b1cd21461051457806383c17c551461047b5780638da5cb5b146104535780639231cf7414610434578063939d623714610415578063966dae0e146103ef5780639b5ceb3514610351578063afa5807014610324578063c4ebe08814610308578063d6b6b23f146102cb578063ddb59e131461022a5763f40f0f52036100125734610227576020366003190112610227578235906001600160a01b03821680920361022757600954600a548042118061021c575b6101a3575b60208561019c86828764e8d4a5100061018c898584526001895284842054611162565b0492815260028652205490611098565b9051908152f35b6101bc6101b36107089242611098565b60085490611162565b0464e8d4a510009081810291818304149015171561020957602095509164e8d4a5100061018c6101fe87946101f861019c989760075490611175565b9061102a565b935050509192610169565b602483601188634e487b7160e01b835252fd5b506007541515610164565b80fd5b508290346102275760203660031901126102275750803590600b54821015610288575061025690610fa5565b508054600182015460029092015492516001600160a01b03909116815260208101919091526040810191909152606090f35b606490602084519162461bcd60e51b8352820152601360248201527f496e646578206f7574206f6620626f756e6473000000000000000000000000006044820152fd5b50913461030457602036600319011261030457356001600160a01b03811680910361030457828291602094526003845220549051908152f35b8280fd5b5034610227578060031936011261022757610321611195565b80f35b50823461034d57602036600319011261034d573590600b54821015610227575061025690610fa5565b5080fd5b509134610304576020366003190112610304576001600160a01b0381541633036103ad57907f063d07ee72a7483b8e07ca09054bb686775c5c030f945dde3823a5257a0a93eb91815190358152426020820152a1610321611195565b6020606492519162461bcd60e51b8352820152601760248201527f4f6e6c7920666163746f72792063616e206e6f746966790000000000000000006044820152fd5b5034610227578060031936011261022757506001600160a01b0360209254169051908152f35b50903461034d578160031936011261034d576020906009549051908152f35b50903461034d578160031936011261034d57602090600a549051908152f35b50903461034d578160031936011261034d576020906001600160a01b03600654169051908152f35b50919034610304576020366003190112610304578135906001600160a01b03808316809303610510576006541633036104ce575073ffffffffffffffffffffffffffffffffffffffff1982541617905580f35b5162461bcd60e51b8152602081840152601760248201527f43616c6c6572206973206e6f7420746865206f776e65720000000000000000006044820152606490fd5b8480fd5b50903461034d578160031936011261034d576020906007549051908152f35b50913461030457602036600319011261030457356001600160a01b03811680910361030457828291602094526001845220549051908152f35b50903461034d578160031936011261034d57602090516107088152f35b50913461030457602036600319011261030457356001600160a01b03811680910361030457828291602094526002845220549051908152f35b50903461034d578160031936011261034d576020906001600160a01b03600554169051908152f35b50903461034d578160031936011261034d57602090600b549051908152f35b50908160031936011261034d5761061e6114b8565b341561095a5761062c61143d565b6001600160a01b03928360055416803b1561089c578382918451928380927fd0e30db000000000000000000000000000000000000000000000000000000000825234905af1801561094d57908491610939575b5050604634029334850460460361092657606484950461069f8134611098565b50816005541682845416918551927fa9059cbb0000000000000000000000000000000000000000000000000000000084528584015260248301528160448160209889945af190811561091c5786916108e2575b50156108a057849033825260018552838220548061078d575b82867febedb8b3c678666e7f36970bc8f57abf6d8fa2e828c0da91ea5b75bf68ed101a873384526001835280842061074434825461102a565b90556107523460075461102a565b6007553384526001835264e8d4a510006107728286205460095490611162565b04338552600284528185205551913483523392a26001815580f35b64e8d4a510006107a36107b59260095490611162565b04338452600287528584205490611098565b9283159182156107c6575b5061070b565b6005541690813b1561089c5784602485928389519586948593632e1a7d4d60e01b85528401525af180156108925790839161087e575b50839091610874575b8280929181923390f11561086a57907febedb8b3c678666e7f36970bc8f57abf6d8fa2e828c0da91ea5b75bf68ed101a9181519081527f106f923f993c2149d49b4255ff723acafa1f2d94393f561d3eda32ae348f7241843392a290833880806107c0565b81513d85823e3d90fd5b6108fc9150610805565b61088790611116565b61034d5781386107fc565b85513d85823e3d90fd5b8380fd5b5082606492519162461bcd60e51b8352820152601e60248201527f4661696c656420746f2073656e64205745544820746f20666163746f727900006044820152fd5b90508481813d8311610915575b6108f98183611140565b810103126109115751801515810361091157386106f2565b8580fd5b503d6108ef565b84513d88823e3d90fd5b602484601184634e487b7160e01b835252fd5b61094290611116565b61030457823861067f565b50505051903d90823e3d90fd5b5162461bcd60e51b8152602081840152601260248201527f43616e6e6f74207374616b6520302045544800000000000000000000000000006044820152606490fd5b509190346103045782600319360112610304576109b76114b8565b33835260209060018252808420548015610c2e576109e664e8d4a51000916109dd61143d565b60095490611162565b0492338552600283526109fc8286205485611098565b938415610bec576001600160a01b039060248583600554168651928380926370a0823160e01b825230898301525afa908115610be2579087918991610bad575b5010610b6b573387526002855283872055600554869116803b1561034d5781906024855180948193632e1a7d4d60e01b83528a888401525af18015610b6157610b4e575b508480808087335af13d15610b49573d67ffffffffffffffff8111610b3657835190610ab5601f8201601f1916870183611140565b815286853d92013e5b15610af55750907f106f923f993c2149d49b4255ff723acafa1f2d94393f561d3eda32ae348f724191519283523392a26001815580f35b82606492519162461bcd60e51b8352820152601260248201527f4661696c656420746f2073656e642045544800000000000000000000000000006044820152fd5b602487604185634e487b7160e01b835252fd5b610abe565b610b5a90959195611116565b9338610a80565b83513d88823e3d90fd5b6064838686519162461bcd60e51b8352820152601b60248201527f4e6f7420656e6f756768205745544820696e20636f6e747261637400000000006044820152fd5b809250878092503d8311610bdb575b610bc68183611140565b81010312610bd75786905138610a3c565b8780fd5b503d610bbc565b85513d8a823e3d90fd5b5082606492519162461bcd60e51b8352820152601360248201527f4e6f207265776172647320746f20636c61696d000000000000000000000000006044820152fd5b5060849350519162461bcd60e51b8352820152602560248201527f4e6f207374616b656420616d6f756e7420746f20636c61696d2072657761726460448201527f7320666f720000000000000000000000000000000000000000000000000000006064820152fd5b5091346103045760208060031936011261089c57813591610cb56114b8565b33855260018252610ccb8385872054101561104d565b33855260018252610cf283610ceb86882054600386528789205490611098565b10156110a5565b610cfa61143d565b816001600160a01b03600554169160248651809481936370a0823160e01b835230908301525afa918215610d8a578394508592610d59575b505010610d4a57610d4390336114f3565b6001815580f35b610d5490336115f5565b610d43565b8193508092503d8311610d83575b610d718183611140565b81010312610304578190513880610d32565b503d610d67565b84513d87823e3d90fd5b509134610304576020918260031936011261089c57813592610db46114b8565b33855260018152610dca8483872054101561104d565b33855260018152610dea84610ceb84882054600385528589205490611098565b33855260038152818520610dff85825461102a565b9055806001600160a01b03600554169360248451809681936370a0823160e01b835230908301525afa8015610ee65784908690610e97575b7f57e41df54512c76148b5ba9b643d149752b0d35e493b969bd017d0a3fe5228cf94501015610e8857610e6a84336115f5565b33855260038152818520549082519485528401523392a26001815580f35b610e9284336114f3565b610e6a565b50508083813d8311610edf575b610eae8183611140565b8101031261051057837f57e41df54512c76148b5ba9b643d149752b0d35e493b969bd017d0a3fe5228cf9351610e37565b503d610ea4565b82513d87823e3d90fd5b509182600319360112610304573415610f47575060207ff8fad42e780bfa5459be3fe691e8ba1aec70342250112139c5771c3fd155f31291610f3061143d565b610f3c3460085461102a565b60085551348152a180f35b6020606492519162461bcd60e51b8352820152601160248201527f4e6f207265776172647320746f206164640000000000000000000000000000006044820152fd5b90503461034d578160031936011261034d576020906008548152f35b600b54811015610fe057600390600b600052027f0175b7a638427703f0dbe7bb9bbf987a2551717b34e79f33b5b1008d1fa01db90190600090565b634e487b7160e01b600052603260045260246000fd5b600b5415610fe057600b6000527f0175b7a638427703f0dbe7bb9bbf987a2551717b34e79f33b5b1008d1fa01db990600090565b9190820180921161103757565b634e487b7160e01b600052601160045260246000fd5b1561105457565b606460405162461bcd60e51b815260206004820152601b60248201527f496e73756666696369656e74207374616b65642062616c616e636500000000006044820152fd5b9190820391821161103757565b156110ac57565b608460405162461bcd60e51b815260206004820152602860248201527f556e7374616b6520616d6f756e74206578636565647320617661696c61626c6560448201527f2062616c616e63650000000000000000000000000000000000000000000000006064820152fd5b67ffffffffffffffff811161112a57604052565b634e487b7160e01b600052604160045260246000fd5b90601f8019910116810190811067ffffffffffffffff82111761112a57604052565b8181029291811591840414171561103757565b811561117f570490565b634e487b7160e01b600052601260045260246000fd5b6001600160a01b03806005541660408051926370a0823160e01b845283806004943086830152602092839160249889915afa90811561143257600091611405575b507f264b03945932e4bc51e688f9f27dbb1f5faba7660d11abdbf7e7f41ed87928ba828551838152a1600b5461120f575b505050505050565b611217610ff6565b50838154169160018201927faeadbfc8febf10d119916528ecb37175473490279c943963f050330e4c90e959608085549260028601548a51916000835289830152848b8301526060820152a18082106113be57505054905461127a9184166114f3565b600b5492831561137d575060001992808401915081116113695761129d90610fa5565b506112a6610ff6565b9290926113565781830361131a575b505050600b5480156113065701916112cc83610fa5565b9290926112f457505060028160008093558260018201550155600b555b388080808080611207565b600090634e487b7160e01b8252526000fd5b83603184634e487b7160e01b600052526000fd5b81600292918392541673ffffffffffffffffffffffffffffffffffffffff198554161784556001810154600185015501549101553880806112b5565b85600086634e487b7160e01b8252526000fd5b84601185634e487b7160e01b600052526000fd5b6014866064938793519362461bcd60e51b85528401528201527f496e646578206f7574206f6620626f756e64732e0000000000000000000000006044820152fd5b9250929550507fd5e85995d9bdcdafb72531ec59faef29167c16780583ca2068587fe896170c4795506113f19250611098565b906113fb826116eb565b51908152a16112e9565b908282813d831161142b575b61141b8183611140565b81010312610227575051386111d6565b503d611411565b84513d6000823e3d90fd5b600a544211156114b65760075480156114af5761145c600a5442611098565b61147761070861146f6008548094611162565b048092611098565b60085564e8d4a5100090818102918183041490151715611037576114a69161149e91611175565b60095461102a565b60095542600a55565b5042600a55565b565b6002600054146114c9576002600055565b60046040517f3ee5aeb5000000000000000000000000000000000000000000000000000000008152fd5b90600554916000926001600160a01b0380911691823b156105105784806040946024865180948193632e1a7d4d60e01b83528a60048401525af1801561091c576115e2575b5016928083858282156115d9575b839283928392f1156115ce579160209183857f85082129d87b2fe11527cb1b3b7a520aeb5aa6913f88a3d8757fe40d1db02fdd95526001845281812061158d848254611098565b905561159b83600754611098565b600755858152600184528164e8d4a510006115bc8284205460095490611162565b049187815260028652205551908152a2565b9051903d90823e3d90fd5b506108fc611546565b6115ee90959195611116565b9338611538565b604051906060820182811067ffffffffffffffff82111761112a576040526001600160a01b0380911691828152602081018481526040820190428252600b546801000000000000000081101561112a578060016116559201600b55610fa5565b9490946116d557600293511673ffffffffffffffffffffffffffffffffffffffff19855416178455516001840155519101557ff24ceb8901eaecb633a833076ec1a09f317122e81bd3bc200d811e0c9bb0814660408051848152426020820152a26046810290808204604614901517156110375760646114b691046116eb565b634e487b7160e01b600052600060045260246000fd5b6001600160a01b036004541690813b1561175a576000916024839260405194859384927f8c3a65a200000000000000000000000000000000000000000000000000000000845260048401525af1801561174e576117455750565b6114b690611116565b6040513d6000823e3d90fd5b600080fdfea2646970667358221220ed31441b180696dd0302f1dc5ecf79050fd4e9ce28d3a94ab6655d0f5846f05c64736f6c63430008180033",
  "linkReferences": {},
  "deployedLinkReferences": {}
}