{
  "_format": "hh-sol-artifact-1",
  "contractName": "SimpleStaking",
  "sourceName": "contracts/Staking.sol",
  "abi": [
    {
      "inputs": [
        {
          "internalType": "address",
          "name": "_weth",
          "type": "address"
        }
      ],
      "stateMutability": "nonpayable",
      "type": "constructor"
    },
    {
      "inputs": [],
      "name": "ReentrancyGuardReentrantCall",
      "type": "error"
    },
    {
      "anonymous": false,
      "inputs": [
        {
          "indexed": false,
          "internalType": "uint256",
          "name": "availableWETH",
          "type": "uint256"
        }
      ],
      "name": "DebugAvailableWETH",
      "type": "event"
    },
    {
      "anonymous": false,
      "inputs": [
        {
          "indexed": false,
          "internalType": "address",
          "name": "user",
          "type": "address"
        },
        {
          "indexed": false,
          "internalType": "uint256",
          "name": "amountToProcess",
          "type": "uint256"
        }
      ],
      "name": "DebugProcessAttempt",
      "type": "event"
    },
    {
      "anonymous": false,
      "inputs": [
        {
          "indexed": false,
          "internalType": "address",
          "name": "user",
          "type": "address"
        },
        {
          "indexed": false,
          "internalType": "uint256",
          "name": "amount",
          "type": "uint256"
        }
      ],
      "name": "FailedToProcessUnstake",
      "type": "event"
    },
    {
      "anonymous": false,
      "inputs": [
        {
          "indexed": false,
          "internalType": "uint256",
          "name": "amount",
          "type": "uint256"
        },
        {
          "indexed": false,
          "internalType": "uint256",
          "name": "timestamp",
          "type": "uint256"
        }
      ],
      "name": "FundsReceived",
      "type": "event"
    },
    {
      "anonymous": false,
      "inputs": [
        {
          "indexed": false,
          "internalType": "uint256",
          "name": "amount",
          "type": "uint256"
        }
      ],
      "name": "FundsRequested",
      "type": "event"
    },
    {
      "anonymous": false,
      "inputs": [
        {
          "indexed": false,
          "internalType": "address",
          "name": "user",
          "type": "address"
        },
        {
          "indexed": false,
          "internalType": "uint256",
          "name": "requestedAmount",
          "type": "uint256"
        },
        {
          "indexed": false,
          "internalType": "string",
          "name": "error",
          "type": "string"
        }
      ],
      "name": "ProcessUnstakeError",
      "type": "event"
    },
    {
      "anonymous": false,
      "inputs": [
        {
          "indexed": true,
          "internalType": "address",
          "name": "user",
          "type": "address"
        },
        {
          "indexed": false,
          "internalType": "uint256",
          "name": "amount",
          "type": "uint256"
        }
      ],
      "name": "RewardClaimed",
      "type": "event"
    },
    {
      "anonymous": false,
      "inputs": [
        {
          "indexed": false,
          "internalType": "uint256",
          "name": "amount",
          "type": "uint256"
        }
      ],
      "name": "RewardsAdded",
      "type": "event"
    },
    {
      "anonymous": false,
      "inputs": [
        {
          "indexed": true,
          "internalType": "address",
          "name": "user",
          "type": "address"
        },
        {
          "indexed": false,
          "internalType": "uint256",
          "name": "amount",
          "type": "uint256"
        }
      ],
      "name": "Stake",
      "type": "event"
    },
    {
      "anonymous": false,
      "inputs": [
        {
          "indexed": true,
          "internalType": "address",
          "name": "user",
          "type": "address"
        },
        {
          "indexed": false,
          "internalType": "uint256",
          "name": "amount",
          "type": "uint256"
        }
      ],
      "name": "Unstake",
      "type": "event"
    },
    {
      "anonymous": false,
      "inputs": [
        {
          "indexed": true,
          "internalType": "address",
          "name": "user",
          "type": "address"
        },
        {
          "indexed": false,
          "internalType": "uint256",
          "name": "amount",
          "type": "uint256"
        },
        {
          "indexed": false,
          "internalType": "uint256",
          "name": "pendingAmount",
          "type": "uint256"
        }
      ],
      "name": "UnstakeProcessed",
      "type": "event"
    },
    {
      "anonymous": false,
      "inputs": [
        {
          "indexed": true,
          "internalType": "address",
          "name": "user",
          "type": "address"
        },
        {
          "indexed": false,
          "internalType": "uint256",
          "name": "amount",
          "type": "uint256"
        },
        {
          "indexed": false,
          "internalType": "uint256",
          "name": "timestamp",
          "type": "uint256"
        }
      ],
      "name": "UnstakeQueued",
      "type": "event"
    },
    {
      "anonymous": false,
      "inputs": [
        {
          "indexed": false,
          "internalType": "uint256",
          "name": "index",
          "type": "uint256"
        },
        {
          "indexed": false,
          "internalType": "address",
          "name": "user",
          "type": "address"
        },
        {
          "indexed": false,
          "internalType": "uint256",
          "name": "amount",
          "type": "uint256"
        },
        {
          "indexed": false,
          "internalType": "uint256",
          "name": "pendingUnstakes",
          "type": "uint256"
        }
      ],
      "name": "UnstakeRequestDetails",
      "type": "event"
    },
    {
      "anonymous": false,
      "inputs": [
        {
          "indexed": true,
          "internalType": "address",
          "name": "user",
          "type": "address"
        },
        {
          "indexed": false,
          "internalType": "uint256",
          "name": "amount",
          "type": "uint256"
        },
        {
          "indexed": false,
          "internalType": "uint256",
          "name": "pendingAmount",
          "type": "uint256"
        }
      ],
      "name": "UnstakeRequested",
      "type": "event"
    },
    {
      "anonymous": false,
      "inputs": [
        {
          "indexed": false,
          "internalType": "address",
          "name": "user",
          "type": "address"
        },
        {
          "indexed": false,
          "internalType": "uint256",
          "name": "processedAmount",
          "type": "uint256"
        },
        {
          "indexed": false,
          "internalType": "uint256",
          "name": "remainingWETH",
          "type": "uint256"
        }
      ],
      "name": "WETHProcessed",
      "type": "event"
    },
    {
      "stateMutability": "payable",
      "type": "fallback"
    },
    {
      "inputs": [],
      "name": "REWARD_INTERVAL",
      "outputs": [
        {
          "internalType": "uint256",
          "name": "",
          "type": "uint256"
        }
      ],
      "stateMutability": "view",
      "type": "function"
    },
    {
      "inputs": [],
      "name": "accRewardPerShare",
      "outputs": [
        {
          "internalType": "uint256",
          "name": "",
          "type": "uint256"
        }
      ],
      "stateMutability": "view",
      "type": "function"
    },
    {
      "inputs": [],
      "name": "addRewards",
      "outputs": [],
      "stateMutability": "payable",
      "type": "function"
    },
    {
      "inputs": [],
      "name": "claimRewards",
      "outputs": [],
      "stateMutability": "nonpayable",
      "type": "function"
    },
    {
      "inputs": [],
      "name": "factoryAddress",
      "outputs": [
        {
          "internalType": "address",
          "name": "",
          "type": "address"
        }
      ],
      "stateMutability": "view",
      "type": "function"
    },
    {
      "inputs": [
        {
          "internalType": "address",
          "name": "staker",
          "type": "address"
        }
      ],
      "name": "getStake",
      "outputs": [
        {
          "internalType": "uint256",
          "name": "",
          "type": "uint256"
        }
      ],
      "stateMutability": "view",
      "type": "function"
    },
    {
      "inputs": [],
      "name": "getTotalUnstakeQueueAmount",
      "outputs": [
        {
          "internalType": "uint256",
          "name": "totalAmount",
          "type": "uint256"
        }
      ],
      "stateMutability": "view",
      "type": "function"
    },
    {
      "inputs": [],
      "name": "getUnstakeQueueLength",
      "outputs": [
        {
          "internalType": "uint256",
          "name": "",
          "type": "uint256"
        }
      ],
      "stateMutability": "view",
      "type": "function"
    },
    {
      "inputs": [
        {
          "internalType": "uint256",
          "name": "index",
          "type": "uint256"
        }
      ],
      "name": "getUnstakeRequest",
      "outputs": [
        {
          "internalType": "address",
          "name": "user",
          "type": "address"
        },
        {
          "internalType": "uint256",
          "name": "amount",
          "type": "uint256"
        },
        {
          "internalType": "uint256",
          "name": "timestamp",
          "type": "uint256"
        }
      ],
      "stateMutability": "view",
      "type": "function"
    },
    {
      "inputs": [],
      "name": "handleReceivedWETHDELETE",
      "outputs": [],
      "stateMutability": "nonpayable",
      "type": "function"
    },
    {
      "inputs": [],
      "name": "lastRewardTime",
      "outputs": [
        {
          "internalType": "uint256",
          "name": "",
          "type": "uint256"
        }
      ],
      "stateMutability": "view",
      "type": "function"
    },
    {
      "inputs": [
        {
          "internalType": "uint256",
          "name": "amount",
          "type": "uint256"
        }
      ],
      "name": "notifyFundsReceived",
      "outputs": [],
      "stateMutability": "nonpayable",
      "type": "function"
    },
    {
      "inputs": [],
      "name": "owner",
      "outputs": [
        {
          "internalType": "address",
          "name": "",
          "type": "address"
        }
      ],
      "stateMutability": "view",
      "type": "function"
    },
    {
      "inputs": [
        {
          "internalType": "address",
          "name": "_user",
          "type": "address"
        }
      ],
      "name": "pendingReward",
      "outputs": [
        {
          "internalType": "uint256",
          "name": "",
          "type": "uint256"
        }
      ],
      "stateMutability": "view",
      "type": "function"
    },
    {
      "inputs": [
        {
          "internalType": "address",
          "name": "",
          "type": "address"
        }
      ],
      "name": "pendingUnstakes",
      "outputs": [
        {
          "internalType": "uint256",
          "name": "",
          "type": "uint256"
        }
      ],
      "stateMutability": "view",
      "type": "function"
    },
    {
      "inputs": [
        {
          "internalType": "uint256",
          "name": "amount",
          "type": "uint256"
        }
      ],
      "name": "requestUnstake",
      "outputs": [],
      "stateMutability": "nonpayable",
      "type": "function"
    },
    {
      "inputs": [
        {
          "internalType": "address",
          "name": "",
          "type": "address"
        }
      ],
      "name": "rewardDebt",
      "outputs": [
        {
          "internalType": "uint256",
          "name": "",
          "type": "uint256"
        }
      ],
      "stateMutability": "view",
      "type": "function"
    },
    {
      "inputs": [
        {
          "internalType": "address",
          "name": "_factoryAddress",
          "type": "address"
        }
      ],
      "name": "setFactoryAddress",
      "outputs": [],
      "stateMutability": "nonpayable",
      "type": "function"
    },
    {
      "inputs": [],
      "name": "stake",
      "outputs": [],
      "stateMutability": "payable",
      "type": "function"
    },
    {
      "inputs": [
        {
          "internalType": "address",
          "name": "",
          "type": "address"
        }
      ],
      "name": "stakes",
      "outputs": [
        {
          "internalType": "uint256",
          "name": "",
          "type": "uint256"
        }
      ],
      "stateMutability": "view",
      "type": "function"
    },
    {
      "inputs": [],
      "name": "totalFundsNeeded",
      "outputs": [
        {
          "internalType": "uint256",
          "name": "",
          "type": "uint256"
        }
      ],
      "stateMutability": "view",
      "type": "function"
    },
    {
      "inputs": [],
      "name": "totalRewards",
      "outputs": [
        {
          "internalType": "uint256",
          "name": "",
          "type": "uint256"
        }
      ],
      "stateMutability": "view",
      "type": "function"
    },
    {
      "inputs": [],
      "name": "totalStaked",
      "outputs": [
        {
          "internalType": "uint256",
          "name": "",
          "type": "uint256"
        }
      ],
      "stateMutability": "view",
      "type": "function"
    },
    {
      "inputs": [
        {
          "internalType": "uint256",
          "name": "",
          "type": "uint256"
        }
      ],
      "name": "unstakeQueue",
      "outputs": [
        {
          "internalType": "address",
          "name": "user",
          "type": "address"
        },
        {
          "internalType": "uint256",
          "name": "amount",
          "type": "uint256"
        },
        {
          "internalType": "uint256",
          "name": "timestamp",
          "type": "uint256"
        }
      ],
      "stateMutability": "view",
      "type": "function"
    },
    {
      "inputs": [],
      "name": "weth",
      "outputs": [
        {
          "internalType": "address",
          "name": "",
          "type": "address"
        }
      ],
      "stateMutability": "view",
      "type": "function"
    },
    {
      "stateMutability": "payable",
      "type": "receive"
    }
  ],
  "bytecode": "0x60803461008357601f611a6338819003918201601f19168301916001600160401b038311848410176100885780849260209460405283398101031261008357516001600160a01b0381169081900361008357600160005560018060a01b03193381600654161760065542600a5560055416176005556040516119c4908161009f8239f35b600080fd5b634e487b7160e01b600052604160045260246000fdfe6080604081815260048036101561001e575b505050361561001c57005b005b600092833560e01c9081630e15561a146114ae5750806314d6aed01461141657806316934fc4146108f7578063230957211461105a578063372500ab14610d6e5780633a4b66f1146109cb5780633bac9c99146109ac5780633fc8cef3146109845780635873eb9b1461094c5780635dbdda691461092f5780637a766460146108f7578063817b1cd2146108d857806383c17c55146108405780638da5cb5b146108185780639231cf74146107f9578063939d6237146107da578063966dae0e146107b35780639b5ceb3514610527578063afa58070146104fd578063b8e347df146104b3578063d6b6b23f1461047b578063ddb59e13146103db578063f3385ace146103b8578063f40f0f52146102bc5763f67a25e80361001157346102b857826003193601126102b8576001600160a01b0380600554169183519283916370a0823160e01b8352309083015281602460209384935afa9283156102ae57859361027a575b507f264b03945932e4bc51e688f9f27dbb1f5faba7660d11abdbf7e7f41ed87928ba818551858152a1600b546101b8578480f35b6101c061151b565b5090828254169460018301947faeadbfc8febf10d119916528ecb37175473490279c943963f050330e4c90e959608087549860028701548551918c8352878301528a868301526060820152a186811061023557505050610225935054169054906116d8565b61022d611849565b388080808480f35b919450925061026691507fd5e85995d9bdcdafb72531ec59faef29167c16780583ca2068587fe896170c47946115f1565b90610270826117da565b51908152a161022d565b9080935081813d83116102a7575b610292818361159c565b810103126102a257519138610184565b600080fd5b503d610288565b84513d87823e3d90fd5b8280fd5b5091346103b55760203660031901126103b5578235906001600160a01b0382168092036103b557600954600a54804211806103aa575b610331575b60208561032a86828764e8d4a5100061031a8985845260018952848420546115be565b04928152600286522054906115f1565b9051908152f35b61034a61034161012c92426115f1565b600854906115be565b0464e8d4a510009081810291818304149015171561039757602095509164e8d4a5100061031a61038c879461038661032a9897600754906115d1565b9061154f565b9350505091926102f7565b602483601188634e487b7160e01b835252fd5b5060075415156102f2565b80fd5b5050346103d757816003193601126103d757602090600c549051908152f35b5080fd5b5082346103b55760203660031901126103b55750803590600b548210156104385750610406906114ca565b508054600182015460029092015492516001600160a01b03909116815260208101919091526040810191909152606090f35b606490602084519162461bcd60e51b8352820152601360248201527f496e646578206f7574206f6620626f756e6473000000000000000000000000006044820152fd5b50346102b85760203660031901126102b857356001600160a01b0381168091036102b857828291602094526003845220549051908152f35b8284346103b557806003193601126103b557600b5491815b8381106104dc576020838351908152f35b916104f6600191826104ed866114ca565b5001549061154f565b92016104cb565b508290346103d75760203660031901126103d7573590600b548210156103b55750610406906114ca565b50346102b857602091826003193601126107af576001600160a01b039182815416330361076e577f063d07ee72a7483b8e07ca09054bb686775c5c030f945dde3823a5257a0a93eb828051833581524287820152a1826005541692825185816024816370a0823160e01b9889825230888301525afa908115610764578791610737575b507f264b03945932e4bc51e688f9f27dbb1f5faba7660d11abdbf7e7f41ed87928ba868551838152a1600b546105de578680f35b6105e661151b565b50828154169160018201927faeadbfc8febf10d119916528ecb37175473490279c943963f050330e4c90e95960808b8654936002870154908b519283528d830152848b8301526060820152a18082106106f05750505481546106499184166116d8565b610651611849565b546046810290808204604614901517156106dd57859291610679606460249304600c546115f1565b600c55600554169484519586938492835230908301525afa9081156106d457506106ab575b50505b3880808080808680f35b813d83116106cd575b6106be818361159c565b810103126102a257388061069e565b503d6106b4565b513d85823e3d90fd5b602487601185634e487b7160e01b835252fd5b92509250507fd5e85995d9bdcdafb72531ec59faef29167c16780583ca2068587fe896170c4795945061072392506115f1565b9061072d826117da565b51908152a16106a1565b90508581813d831161075d575b61074e818361159c565b810103126102a25751386105aa565b503d610744565b84513d89823e3d90fd5b83606492519162461bcd60e51b8352820152601760248201527f4f6e6c7920666163746f72792063616e206e6f746966790000000000000000006044820152fd5b8380fd5b5091346103b557806003193601126103b557506001600160a01b0360209254169051908152f35b5050346103d757816003193601126103d7576020906009549051908152f35b5050346103d757816003193601126103d757602090600a549051908152f35b5050346103d757816003193601126103d7576020906001600160a01b03600654169051908152f35b5090346102b85760203660031901126102b8578135906001600160a01b038083168093036108d457600654163303610892575073ffffffffffffffffffffffffffffffffffffffff1982541617905580f35b5162461bcd60e51b8152602081840152601760248201527f43616c6c6572206973206e6f7420746865206f776e65720000000000000000006044820152606490fd5b8480fd5b5050346103d757816003193601126103d7576020906007549051908152f35b50346102b85760203660031901126102b857356001600160a01b0381168091036102b857828291602094526001845220549051908152f35b5050346103d757816003193601126103d7576020905161012c8152f35b50346102b85760203660031901126102b857356001600160a01b0381168091036102b857828291602094526002845220549051908152f35b5050346103d757816003193601126103d7576020906001600160a01b03600554169051908152f35b5050346103d757816003193601126103d757602090600b549051908152f35b5090826003193601126102b8576109e061169d565b3415610d2b576109ee6115fe565b6001600160a01b0391838360055416803b156103d7578183918551928380927fd0e30db000000000000000000000000000000000000000000000000000000000825234905af18015610d2157610d0d575b505060463402348104604603610cfa576064900492610a5e84346115f1565b50806005541681835416845180927fa9059cbb000000000000000000000000000000000000000000000000000000008252818981610ab860209b8c978b8401602090939291936001600160a01b0360408201951681520152565b03925af1908115610cf0578691610cb6575b5015610c74578490338252600185528382205480610b65575b82867febedb8b3c678666e7f36970bc8f57abf6d8fa2e828c0da91ea5b75bf68ed101a8733845260018352808420610b1c34825461154f565b9055610b2a3460075461154f565b6007553384526001835264e8d4a51000610b4a82862054600954906115be565b04338552600284528185205551913483523392a26001815580f35b64e8d4a51000610b7b610b8d92600954906115be565b043384526002875285842054906115f1565b928315918215610b9e575b50610ae3565b6005541690813b156107af5784602485928389519586948593632e1a7d4d60e01b85528401525af18015610c6a57908391610c56575b50839091610c4c575b8280929181923390f115610c4257907febedb8b3c678666e7f36970bc8f57abf6d8fa2e828c0da91ea5b75bf68ed101a9181519081527f106f923f993c2149d49b4255ff723acafa1f2d94393f561d3eda32ae348f7241843392a29083388080610b98565b81513d85823e3d90fd5b6108fc9150610bdd565b610c5f90611572565b6103d7578138610bd4565b85513d85823e3d90fd5b5082606492519162461bcd60e51b8352820152601e60248201527f4661696c656420746f2073656e64205745544820746f20666163746f727900006044820152fd5b90508481813d8311610ce9575b610ccd818361159c565b81010312610ce557518015158103610ce55738610aca565b8580fd5b503d610cc3565b84513d88823e3d90fd5b602485601184634e487b7160e01b835252fd5b610d1690611572565b6107af578338610a3f565b84513d84823e3d90fd5b906020606492519162461bcd60e51b8352820152601260248201527f43616e6e6f74207374616b6520302045544800000000000000000000000000006044820152fd5b5090346102b857826003193601126102b857610d8861169d565b33835260209060018252808420548015610ff257610db764e8d4a5100091610dae6115fe565b600954906115be565b049233855260028352610dcd82862054856115f1565b938415610fb0576001600160a01b039060248583600554168651928380926370a0823160e01b825230898301525afa908115610fa6579087918991610f75575b5010610f33573387526002855283872055600554869116803b156103d7578180916024865180948193632e1a7d4d60e01b83528b898401525af18015610d2157610f1f575b5080808087335af13d15610f1a573d67ffffffffffffffff8111610f0757835190610e86601f8201601f191687018361159c565b815286853d92013e5b15610ec65750907f106f923f993c2149d49b4255ff723acafa1f2d94393f561d3eda32ae348f724191519283523392a26001815580f35b82606492519162461bcd60e51b8352820152601260248201527f4661696c656420746f2073656e642045544800000000000000000000000000006044820152fd5b602487604185634e487b7160e01b835252fd5b610e8f565b610f2890611572565b6108d4578438610e52565b6064838686519162461bcd60e51b8352820152601b60248201527f4e6f7420656e6f756768205745544820696e20636f6e747261637400000000006044820152fd5b809250878092503d8311610f9f575b610f8e818361159c565b810103126102a25786905138610e0d565b503d610f84565b85513d8a823e3d90fd5b5082606492519162461bcd60e51b8352820152601360248201527f4e6f207265776172647320746f20636c61696d000000000000000000000000006044820152fd5b5060849350519162461bcd60e51b8352820152602560248201527f4e6f207374616b656420616d6f756e7420746f20636c61696d2072657761726460448201527f7320666f720000000000000000000000000000000000000000000000000000006064820152fd5b509190346103d757602090816003193601126102b85783359161107b61169d565b338452600181528282852054106113d4576001600160a01b038060055416908351918284816370a0823160e01b93848252308c83015260249687915afa9081156113955790879189916113a3575b501061111f57505050829394506111017f57e41df54512c76148b5ba9b643d149752b0d35e493b969bd017d0a3fe5228cf93336116d8565b33855260038152818520549082519485528401523392a26001815580f35b81885416803b1561139f5785517fbe5ef17600000000000000000000000000000000000000000000000000000000815230818b01908152602081018990529091899183919082908490829060400103925af1801561139557611382575b5083826005541691848751809481938252308d8301525afa908115611378579086918891611347575b50106111e1575050829394506111dc7f57e41df54512c76148b5ba9b643d149752b0d35e493b969bd017d0a3fe5228cf93336116d8565b611101565b338652600383528386206111f686825461154f565b90558351906060820182811067ffffffffffffffff82111761133357855233825283820186815285830191428352600b5468010000000000000000811015611321578060016112489201600b556114ca565b94909461131057906002939291511673ffffffffffffffffffffffffffffffffffffffff1985541617845551600184015551910155825184815242838201527ff24ceb8901eaecb633a833076ec1a09f317122e81bd3bc200d811e0c9bb08146843392a26046840295848704604614851517156112ff5750506111dc6112f660647f57e41df54512c76148b5ba9b643d149752b0d35e493b969bd017d0a3fe5228cf95969704600c5461154f565b80600c556117da565b60118691634e487b7160e01b835252fd5b858a808d634e487b7160e01b825252fd5b858a60418d634e487b7160e01b835252fd5b8360418a634e487b7160e01b600052526000fd5b809250858092503d8311611371575b611360818361159c565b810103126102a257859051386111a5565b503d611356565b85513d89823e3d90fd5b61138e90979197611572565b953861117c565b86513d8a823e3d90fd5b8780fd5b809250868092503d83116113cd575b6113bc818361159c565b8101031261139f57869051386110c9565b503d6113b2565b8490606492519162461bcd60e51b8352820152601b60248201527f496e73756666696369656e74207374616b65642062616c616e636500000000006044820152fd5b50826003193601126102b857341561146c575060207ff8fad42e780bfa5459be3fe691e8ba1aec70342250112139c5771c3fd155f312916114593460085461154f565b6008556114646115fe565b51348152a180f35b6020606492519162461bcd60e51b8352820152601160248201527f4e6f207265776172647320746f206164640000000000000000000000000000006044820152fd5b8490346103d757816003193601126103d7576020906008548152f35b600b5481101561150557600390600b600052027f0175b7a638427703f0dbe7bb9bbf987a2551717b34e79f33b5b1008d1fa01db90190600090565b634e487b7160e01b600052603260045260246000fd5b600b541561150557600b6000527f0175b7a638427703f0dbe7bb9bbf987a2551717b34e79f33b5b1008d1fa01db990600090565b9190820180921161155c57565b634e487b7160e01b600052601160045260246000fd5b67ffffffffffffffff811161158657604052565b634e487b7160e01b600052604160045260246000fd5b90601f8019910116810190811067ffffffffffffffff82111761158657604052565b8181029291811591840414171561155c57565b81156115db570490565b634e487b7160e01b600052601260045260246000fd5b9190820391821161155c57565b600a5442111561169b5760075480156116945761161d600a54426115f1565b6008549081611630575b50505042600a55565b61163d8261012c926115be565b0490818082111561168b57611651916115f1565b60085564e8d4a510009081810291818304149015171561155c5761168091611678916115d1565b60095461154f565b600955388080611627565b50506000611651565b5042600a55565b565b6002600054146116ae576002600055565b60046040517f3ee5aeb5000000000000000000000000000000000000000000000000000000008152fd5b90600554916000926001600160a01b0380911691823b156108d45784806040946024865180948193632e1a7d4d60e01b83528a60048401525af18015610cf0576117c7575b5016928083858282156117be575b839283928392f1156117b3579160209183857f85082129d87b2fe11527cb1b3b7a520aeb5aa6913f88a3d8757fe40d1db02fdd9552600184528181206117728482546115f1565b9055611780836007546115f1565b600755858152600184528164e8d4a510006117a182842054600954906115be565b049187815260028652205551908152a2565b9051903d90823e3d90fd5b506108fc61172b565b6117d390959195611572565b933861171d565b6001600160a01b036004541690813b156102a2576000916024839260405194859384927f8c3a65a200000000000000000000000000000000000000000000000000000000845260048401525af1801561183d576118345750565b61169b90611572565b6040513d6000823e3d90fd5b600b54801561194a57600019810190811161155c57611867816114ca565b50600090600b82527f0175b7a638427703f0dbe7bb9bbf987a2551717b34e79f33b5b1008d1fa01db9908082036118ce575b50506118a4826114ca565b6118bb578082600292558260018201550155600b55565b602482634e487b7160e01b815280600452fd5b6002916001600160a01b0382541673ffffffffffffffffffffffffffffffffffffffff1982541617905560018101547f0175b7a638427703f0dbe7bb9bbf987a2551717b34e79f33b5b1008d1fa01dba5501547f0175b7a638427703f0dbe7bb9bbf987a2551717b34e79f33b5b1008d1fa01dbb553880611899565b606460405162461bcd60e51b815260206004820152601460248201527f496e646578206f7574206f6620626f756e64732e0000000000000000000000006044820152fdfea26469706673582212208dd3d419180444a20bcfaccbd1be4473574258596170ec7a5a537efe5e87e4a064736f6c63430008180033",
  "linkReferences": {},
  "deployedLinkReferences": {}
}