{
  "_format": "hh-sol-artifact-1",
  "contractName": "SimpleStaking",
  "sourceName": "contracts/Staking.sol",
  "abi": [
    {
      "inputs": [
        {
          "internalType": "address",
          "name": "_weth",
          "type": "address"
        }
      ],
      "stateMutability": "nonpayable",
      "type": "constructor"
    },
    {
      "inputs": [],
      "name": "ReentrancyGuardReentrantCall",
      "type": "error"
    },
    {
      "anonymous": false,
      "inputs": [
        {
          "indexed": false,
          "internalType": "uint256",
          "name": "availableWETH",
          "type": "uint256"
        }
      ],
      "name": "DebugAvailableWETH",
      "type": "event"
    },
    {
      "anonymous": false,
      "inputs": [
        {
          "indexed": false,
          "internalType": "address",
          "name": "user",
          "type": "address"
        },
        {
          "indexed": false,
          "internalType": "uint256",
          "name": "amountToProcess",
          "type": "uint256"
        }
      ],
      "name": "DebugProcessAttempt",
      "type": "event"
    },
    {
      "anonymous": false,
      "inputs": [
        {
          "indexed": false,
          "internalType": "address",
          "name": "user",
          "type": "address"
        },
        {
          "indexed": false,
          "internalType": "uint256",
          "name": "amount",
          "type": "uint256"
        }
      ],
      "name": "FailedToProcessUnstake",
      "type": "event"
    },
    {
      "anonymous": false,
      "inputs": [
        {
          "indexed": false,
          "internalType": "uint256",
          "name": "amount",
          "type": "uint256"
        },
        {
          "indexed": false,
          "internalType": "uint256",
          "name": "timestamp",
          "type": "uint256"
        }
      ],
      "name": "FundsReceived",
      "type": "event"
    },
    {
      "anonymous": false,
      "inputs": [
        {
          "indexed": false,
          "internalType": "uint256",
          "name": "amount",
          "type": "uint256"
        }
      ],
      "name": "FundsRequested",
      "type": "event"
    },
    {
      "anonymous": false,
      "inputs": [
        {
          "indexed": false,
          "internalType": "address",
          "name": "user",
          "type": "address"
        },
        {
          "indexed": false,
          "internalType": "uint256",
          "name": "requestedAmount",
          "type": "uint256"
        },
        {
          "indexed": false,
          "internalType": "string",
          "name": "error",
          "type": "string"
        }
      ],
      "name": "ProcessUnstakeError",
      "type": "event"
    },
    {
      "anonymous": false,
      "inputs": [
        {
          "indexed": true,
          "internalType": "address",
          "name": "user",
          "type": "address"
        },
        {
          "indexed": false,
          "internalType": "uint256",
          "name": "amount",
          "type": "uint256"
        }
      ],
      "name": "RewardClaimed",
      "type": "event"
    },
    {
      "anonymous": false,
      "inputs": [
        {
          "indexed": false,
          "internalType": "uint256",
          "name": "amount",
          "type": "uint256"
        }
      ],
      "name": "RewardsAdded",
      "type": "event"
    },
    {
      "anonymous": false,
      "inputs": [
        {
          "indexed": true,
          "internalType": "address",
          "name": "user",
          "type": "address"
        },
        {
          "indexed": false,
          "internalType": "uint256",
          "name": "amount",
          "type": "uint256"
        }
      ],
      "name": "Stake",
      "type": "event"
    },
    {
      "anonymous": false,
      "inputs": [
        {
          "indexed": true,
          "internalType": "address",
          "name": "user",
          "type": "address"
        },
        {
          "indexed": false,
          "internalType": "uint256",
          "name": "amount",
          "type": "uint256"
        }
      ],
      "name": "Unstake",
      "type": "event"
    },
    {
      "anonymous": false,
      "inputs": [
        {
          "indexed": true,
          "internalType": "address",
          "name": "user",
          "type": "address"
        },
        {
          "indexed": false,
          "internalType": "uint256",
          "name": "amount",
          "type": "uint256"
        },
        {
          "indexed": false,
          "internalType": "uint256",
          "name": "pendingAmount",
          "type": "uint256"
        }
      ],
      "name": "UnstakeProcessed",
      "type": "event"
    },
    {
      "anonymous": false,
      "inputs": [
        {
          "indexed": true,
          "internalType": "address",
          "name": "user",
          "type": "address"
        },
        {
          "indexed": false,
          "internalType": "uint256",
          "name": "amount",
          "type": "uint256"
        },
        {
          "indexed": false,
          "internalType": "uint256",
          "name": "timestamp",
          "type": "uint256"
        }
      ],
      "name": "UnstakeQueued",
      "type": "event"
    },
    {
      "anonymous": false,
      "inputs": [
        {
          "indexed": false,
          "internalType": "uint256",
          "name": "index",
          "type": "uint256"
        },
        {
          "indexed": false,
          "internalType": "address",
          "name": "user",
          "type": "address"
        },
        {
          "indexed": false,
          "internalType": "uint256",
          "name": "amount",
          "type": "uint256"
        },
        {
          "indexed": false,
          "internalType": "uint256",
          "name": "pendingUnstakes",
          "type": "uint256"
        }
      ],
      "name": "UnstakeRequestDetails",
      "type": "event"
    },
    {
      "anonymous": false,
      "inputs": [
        {
          "indexed": true,
          "internalType": "address",
          "name": "user",
          "type": "address"
        },
        {
          "indexed": false,
          "internalType": "uint256",
          "name": "amount",
          "type": "uint256"
        },
        {
          "indexed": false,
          "internalType": "uint256",
          "name": "pendingAmount",
          "type": "uint256"
        }
      ],
      "name": "UnstakeRequested",
      "type": "event"
    },
    {
      "anonymous": false,
      "inputs": [
        {
          "indexed": false,
          "internalType": "address",
          "name": "user",
          "type": "address"
        },
        {
          "indexed": false,
          "internalType": "uint256",
          "name": "processedAmount",
          "type": "uint256"
        },
        {
          "indexed": false,
          "internalType": "uint256",
          "name": "remainingWETH",
          "type": "uint256"
        }
      ],
      "name": "WETHProcessed",
      "type": "event"
    },
    {
      "stateMutability": "payable",
      "type": "fallback"
    },
    {
      "inputs": [],
      "name": "REWARD_INTERVAL",
      "outputs": [
        {
          "internalType": "uint256",
          "name": "",
          "type": "uint256"
        }
      ],
      "stateMutability": "view",
      "type": "function"
    },
    {
      "inputs": [],
      "name": "accRewardPerShare",
      "outputs": [
        {
          "internalType": "uint256",
          "name": "",
          "type": "uint256"
        }
      ],
      "stateMutability": "view",
      "type": "function"
    },
    {
      "inputs": [],
      "name": "addRewards",
      "outputs": [],
      "stateMutability": "payable",
      "type": "function"
    },
    {
      "inputs": [],
      "name": "factoryAddress",
      "outputs": [
        {
          "internalType": "address",
          "name": "",
          "type": "address"
        }
      ],
      "stateMutability": "view",
      "type": "function"
    },
    {
      "inputs": [
        {
          "internalType": "address",
          "name": "staker",
          "type": "address"
        }
      ],
      "name": "getStake",
      "outputs": [
        {
          "internalType": "uint256",
          "name": "",
          "type": "uint256"
        }
      ],
      "stateMutability": "view",
      "type": "function"
    },
    {
      "inputs": [],
      "name": "getUnstakeQueueLength",
      "outputs": [
        {
          "internalType": "uint256",
          "name": "",
          "type": "uint256"
        }
      ],
      "stateMutability": "view",
      "type": "function"
    },
    {
      "inputs": [
        {
          "internalType": "uint256",
          "name": "index",
          "type": "uint256"
        }
      ],
      "name": "getUnstakeRequest",
      "outputs": [
        {
          "internalType": "address",
          "name": "user",
          "type": "address"
        },
        {
          "internalType": "uint256",
          "name": "amount",
          "type": "uint256"
        },
        {
          "internalType": "uint256",
          "name": "timestamp",
          "type": "uint256"
        }
      ],
      "stateMutability": "view",
      "type": "function"
    },
    {
      "inputs": [],
      "name": "handleReceivedWETH",
      "outputs": [],
      "stateMutability": "nonpayable",
      "type": "function"
    },
    {
      "inputs": [],
      "name": "lastRewardTime",
      "outputs": [
        {
          "internalType": "uint256",
          "name": "",
          "type": "uint256"
        }
      ],
      "stateMutability": "view",
      "type": "function"
    },
    {
      "inputs": [
        {
          "internalType": "uint256",
          "name": "amount",
          "type": "uint256"
        }
      ],
      "name": "notifyFundsReceived",
      "outputs": [],
      "stateMutability": "nonpayable",
      "type": "function"
    },
    {
      "inputs": [],
      "name": "owner",
      "outputs": [
        {
          "internalType": "address",
          "name": "",
          "type": "address"
        }
      ],
      "stateMutability": "view",
      "type": "function"
    },
    {
      "inputs": [
        {
          "internalType": "address",
          "name": "_user",
          "type": "address"
        }
      ],
      "name": "pendingReward",
      "outputs": [
        {
          "internalType": "uint256",
          "name": "",
          "type": "uint256"
        }
      ],
      "stateMutability": "view",
      "type": "function"
    },
    {
      "inputs": [
        {
          "internalType": "address",
          "name": "",
          "type": "address"
        }
      ],
      "name": "pendingUnstakes",
      "outputs": [
        {
          "internalType": "uint256",
          "name": "",
          "type": "uint256"
        }
      ],
      "stateMutability": "view",
      "type": "function"
    },
    {
      "inputs": [
        {
          "internalType": "uint256",
          "name": "amount",
          "type": "uint256"
        }
      ],
      "name": "requestUnstake",
      "outputs": [],
      "stateMutability": "nonpayable",
      "type": "function"
    },
    {
      "inputs": [
        {
          "internalType": "address",
          "name": "",
          "type": "address"
        }
      ],
      "name": "rewardDebt",
      "outputs": [
        {
          "internalType": "uint256",
          "name": "",
          "type": "uint256"
        }
      ],
      "stateMutability": "view",
      "type": "function"
    },
    {
      "inputs": [
        {
          "internalType": "address",
          "name": "_factoryAddress",
          "type": "address"
        }
      ],
      "name": "setFactoryAddress",
      "outputs": [],
      "stateMutability": "nonpayable",
      "type": "function"
    },
    {
      "inputs": [],
      "name": "stake",
      "outputs": [],
      "stateMutability": "payable",
      "type": "function"
    },
    {
      "inputs": [
        {
          "internalType": "address",
          "name": "",
          "type": "address"
        }
      ],
      "name": "stakes",
      "outputs": [
        {
          "internalType": "uint256",
          "name": "",
          "type": "uint256"
        }
      ],
      "stateMutability": "view",
      "type": "function"
    },
    {
      "inputs": [],
      "name": "totalRewards",
      "outputs": [
        {
          "internalType": "uint256",
          "name": "",
          "type": "uint256"
        }
      ],
      "stateMutability": "view",
      "type": "function"
    },
    {
      "inputs": [],
      "name": "totalStaked",
      "outputs": [
        {
          "internalType": "uint256",
          "name": "",
          "type": "uint256"
        }
      ],
      "stateMutability": "view",
      "type": "function"
    },
    {
      "inputs": [
        {
          "internalType": "uint256",
          "name": "amount",
          "type": "uint256"
        }
      ],
      "name": "unstake",
      "outputs": [],
      "stateMutability": "nonpayable",
      "type": "function"
    },
    {
      "inputs": [
        {
          "internalType": "uint256",
          "name": "",
          "type": "uint256"
        }
      ],
      "name": "unstakeQueue",
      "outputs": [
        {
          "internalType": "address",
          "name": "user",
          "type": "address"
        },
        {
          "internalType": "uint256",
          "name": "amount",
          "type": "uint256"
        },
        {
          "internalType": "uint256",
          "name": "timestamp",
          "type": "uint256"
        }
      ],
      "stateMutability": "view",
      "type": "function"
    },
    {
      "inputs": [],
      "name": "weth",
      "outputs": [
        {
          "internalType": "address",
          "name": "",
          "type": "address"
        }
      ],
      "stateMutability": "view",
      "type": "function"
    },
    {
      "stateMutability": "payable",
      "type": "receive"
    }
  ],
  "bytecode": "0x60803461008357601f61152d38819003918201601f19168301916001600160401b038311848410176100885780849260209460405283398101031261008357516001600160a01b0381169081900361008357600160005560018060a01b03193381600654161760065542600a55600554161760055560405161148e908161009f8239f35b600080fd5b634e487b7160e01b600052604160045260246000fdfe608060408181526004918236101561001f575b505050361561001d57005b005b600090813560e01c9081630e15561a14610c815750806314d6aed014610be857806316934fc4146105295780632309572114610a8c5780632e17de781461098e5780633a4b66f1146106005780633bac9c99146105e15780633fc8cef3146105b95780635873eb9b146105805780635dbdda69146105625780637a76646014610529578063817b1cd21461050a57806383c17c55146104715780638da5cb5b146104495780639231cf741461042a578063939d62371461040b578063966dae0e146103e55780639b5ceb3514610347578063afa580701461031a578063c4ebe088146102fe578063d6b6b23f146102c1578063ddb59e13146102205763f40f0f5203610012573461021d57602036600319011261021d578235906001600160a01b03821680920361021d57600954600a5480421180610212575b610198575b60208561019186828764e8d4a51000610181898584526001895284842054610e5a565b0492815260028652205490610d90565b9051908152f35b6101b26101a9620151809242610d90565b60085490610e5a565b0464e8d4a51000908181029181830414901517156101ff57602095509164e8d4a510006101816101f487946101ee610191989760075490610e6d565b90610d22565b93505050919261015e565b602483601188634e487b7160e01b835252fd5b506007541515610159565b80fd5b5082903461021d57602036600319011261021d5750803590600b5482101561027e575061024c90610c9d565b508054600182015460029092015492516001600160a01b03909116815260208101919091526040810191909152606090f35b606490602084519162461bcd60e51b8352820152601360248201527f496e646578206f7574206f6620626f756e6473000000000000000000000000006044820152fd5b5091346102fa5760203660031901126102fa57356001600160a01b0381168091036102fa57828291602094526003845220549051908152f35b8280fd5b503461021d578060031936011261021d57610317610e8d565b80f35b508234610343576020366003190112610343573590600b5482101561021d575061024c90610c9d565b5080fd5b5091346102fa5760203660031901126102fa576001600160a01b0381541633036103a357907f063d07ee72a7483b8e07ca09054bb686775c5c030f945dde3823a5257a0a93eb91815190358152426020820152a1610317610e8d565b6020606492519162461bcd60e51b8352820152601760248201527f4f6e6c7920666163746f72792063616e206e6f746966790000000000000000006044820152fd5b503461021d578060031936011261021d57506001600160a01b0360209254169051908152f35b5090346103435781600319360112610343576020906009549051908152f35b509034610343578160031936011261034357602090600a549051908152f35b5090346103435781600319360112610343576020906001600160a01b03600654169051908152f35b509190346102fa5760203660031901126102fa578135906001600160a01b03808316809303610506576006541633036104c4575073ffffffffffffffffffffffffffffffffffffffff1982541617905580f35b5162461bcd60e51b8152602081840152601760248201527f43616c6c6572206973206e6f7420746865206f776e65720000000000000000006044820152606490fd5b8480fd5b5090346103435781600319360112610343576020906007549051908152f35b5091346102fa5760203660031901126102fa57356001600160a01b0381168091036102fa57828291602094526001845220549051908152f35b50903461034357816003193601126103435760209051620151808152f35b5091346102fa5760203660031901126102fa57356001600160a01b0381168091036102fa57828291602094526002845220549051908152f35b5090346103435781600319360112610343576020906001600160a01b03600554169051908152f35b509034610343578160031936011261034357602090600b549051908152f35b509081600319360112610343576106156111b1565b341561094c57610623611135565b6001600160a01b03928360055416803b1561088f578382918451928380927fd0e30db000000000000000000000000000000000000000000000000000000000825234905af1801561093f5761092c575b5060463402933485046046036109195760648495046106928134610d90565b50816005541682845416918551927fa9059cbb0000000000000000000000000000000000000000000000000000000084528584015260248301528160448160209889945af190811561090f5786916108d5575b5015610893578490338252600185528382205480610780575b82867febedb8b3c678666e7f36970bc8f57abf6d8fa2e828c0da91ea5b75bf68ed101a8733845260018352808420610737348254610d22565b905561074534600754610d22565b6007553384526001835264e8d4a510006107658286205460095490610e5a565b04338552600284528185205551913483523392a26001815580f35b64e8d4a510006107966107a89260095490610e5a565b04338452600287528584205490610d90565b9283159182156107b9575b506106fe565b6005541690813b1561088f5784602485928389519586948593632e1a7d4d60e01b85528401525af1801561088557908391610871575b50839091610867575b8280929181923390f11561085d57907febedb8b3c678666e7f36970bc8f57abf6d8fa2e828c0da91ea5b75bf68ed101a9181519081527f106f923f993c2149d49b4255ff723acafa1f2d94393f561d3eda32ae348f7241843392a290833880806107b3565b81513d85823e3d90fd5b6108fc91506107f8565b61087a90610e0e565b6103435781386107ef565b85513d85823e3d90fd5b8380fd5b5082606492519162461bcd60e51b8352820152601e60248201527f4661696c656420746f2073656e64205745544820746f20666163746f727900006044820152fd5b90508481813d8311610908575b6108ec8183610e38565b810103126109045751801515810361090457386106e5565b8580fd5b503d6108e2565b84513d88823e3d90fd5b602484601184634e487b7160e01b835252fd5b61093890939193610e0e565b9138610673565b50505051903d90823e3d90fd5b5162461bcd60e51b8152602081840152601260248201527f43616e6e6f74207374616b6520302045544800000000000000000000000000006044820152606490fd5b5091346102fa5760208060031936011261088f578135916109ad6111b1565b338552600182526109c383858720541015610d45565b338552600182526109ea836109e386882054600386528789205490610d90565b1015610d9d565b6109f2611135565b816001600160a01b03600554169160248651809481936370a0823160e01b835230908301525afa918215610a82578394508592610a51575b505010610a4257610a3b90336111ec565b6001815580f35b610a4c90336112ee565b610a3b565b8193508092503d8311610a7b575b610a698183610e38565b810103126102fa578190513880610a2a565b503d610a5f565b84513d87823e3d90fd5b5091346102fa576020918260031936011261088f57813592610aac6111b1565b33855260018152610ac284838720541015610d45565b33855260018152610ae2846109e384882054600385528589205490610d90565b33855260038152818520610af7858254610d22565b9055806001600160a01b03600554169360248451809681936370a0823160e01b835230908301525afa8015610bde5784908690610b8f575b7f57e41df54512c76148b5ba9b643d149752b0d35e493b969bd017d0a3fe5228cf94501015610b8057610b6284336112ee565b33855260038152818520549082519485528401523392a26001815580f35b610b8a84336111ec565b610b62565b50508083813d8311610bd7575b610ba68183610e38565b8101031261050657837f57e41df54512c76148b5ba9b643d149752b0d35e493b969bd017d0a3fe5228cf9351610b2f565b503d610b9c565b82513d87823e3d90fd5b5091826003193601126102fa573415610c3f575060207ff8fad42e780bfa5459be3fe691e8ba1aec70342250112139c5771c3fd155f31291610c28611135565b610c3434600854610d22565b60085551348152a180f35b6020606492519162461bcd60e51b8352820152601160248201527f4e6f207265776172647320746f206164640000000000000000000000000000006044820152fd5b9050346103435781600319360112610343576020906008548152f35b600b54811015610cd857600390600b600052027f0175b7a638427703f0dbe7bb9bbf987a2551717b34e79f33b5b1008d1fa01db90190600090565b634e487b7160e01b600052603260045260246000fd5b600b5415610cd857600b6000527f0175b7a638427703f0dbe7bb9bbf987a2551717b34e79f33b5b1008d1fa01db990600090565b91908201809211610d2f57565b634e487b7160e01b600052601160045260246000fd5b15610d4c57565b606460405162461bcd60e51b815260206004820152601b60248201527f496e73756666696369656e74207374616b65642062616c616e636500000000006044820152fd5b91908203918211610d2f57565b15610da457565b608460405162461bcd60e51b815260206004820152602860248201527f556e7374616b6520616d6f756e74206578636565647320617661696c61626c6560448201527f2062616c616e63650000000000000000000000000000000000000000000000006064820152fd5b67ffffffffffffffff8111610e2257604052565b634e487b7160e01b600052604160045260246000fd5b90601f8019910116810190811067ffffffffffffffff821117610e2257604052565b81810292918115918404141715610d2f57565b8115610e77570490565b634e487b7160e01b600052601260045260246000fd5b6001600160a01b03806005541660408051926370a0823160e01b845283806004943086830152602092839160249889915afa90811561112a576000916110fd575b507f264b03945932e4bc51e688f9f27dbb1f5faba7660d11abdbf7e7f41ed87928ba828551838152a1600b54610f07575b505050505050565b610f0f610cee565b50838154169160018201927faeadbfc8febf10d119916528ecb37175473490279c943963f050330e4c90e959608085549260028601548a51916000835289830152848b8301526060820152a18082106110b6575050549054610f729184166111ec565b600b549283156110755750600019928084019150811161106157610f9590610c9d565b50610f9e610cee565b92909261104e57818303611012575b505050600b548015610ffe570191610fc483610c9d565b929092610fec57505060028160008093558260018201550155600b555b388080808080610eff565b600090634e487b7160e01b8252526000fd5b83603184634e487b7160e01b600052526000fd5b81600292918392541673ffffffffffffffffffffffffffffffffffffffff19855416178455600181015460018501550154910155388080610fad565b85600086634e487b7160e01b8252526000fd5b84601185634e487b7160e01b600052526000fd5b6014866064938793519362461bcd60e51b85528401528201527f496e646578206f7574206f6620626f756e64732e0000000000000000000000006044820152fd5b9250929550507fd5e85995d9bdcdafb72531ec59faef29167c16780583ca2068587fe896170c4795506110e99250610d90565b906110f3826113e4565b51908152a1610fe1565b908282813d8311611123575b6111138183610e38565b8101031261021d57505138610ece565b503d611109565b84513d6000823e3d90fd5b600a544211156111af5760075480156111a857611154600a5442610d90565b611170620151806111686008548094610e5a565b048092610d90565b60085564e8d4a5100090818102918183041490151715610d2f5761119f9161119791610e6d565b600954610d22565b60095542600a55565b5042600a55565b565b6002600054146111c2576002600055565b60046040517f3ee5aeb5000000000000000000000000000000000000000000000000000000008152fd5b90600554916000926001600160a01b0380911691823b156105065784806040946024865180948193632e1a7d4d60e01b83528a60048401525af1801561090f576112db575b5016928083858282156112d2575b839283928392f1156112c7579160209183857f85082129d87b2fe11527cb1b3b7a520aeb5aa6913f88a3d8757fe40d1db02fdd955260018452818120611286848254610d90565b905561129483600754610d90565b600755858152600184528164e8d4a510006112b58284205460095490610e5a565b049187815260028652205551908152a2565b9051903d90823e3d90fd5b506108fc61123f565b6112e790959195610e0e565b9338611231565b604051906060820182811067ffffffffffffffff821117610e22576040526001600160a01b0380911691828152602081018481526040820190428252600b5468010000000000000000811015610e225780600161134e9201600b55610c9d565b9490946113ce57600293511673ffffffffffffffffffffffffffffffffffffffff19855416178455516001840155519101557ff24ceb8901eaecb633a833076ec1a09f317122e81bd3bc200d811e0c9bb0814660408051848152426020820152a2604681029080820460461490151715610d2f5760646111af91046113e4565b634e487b7160e01b600052600060045260246000fd5b6001600160a01b036004541690813b15611453576000916024839260405194859384927f8c3a65a200000000000000000000000000000000000000000000000000000000845260048401525af180156114475761143e5750565b6111af90610e0e565b6040513d6000823e3d90fd5b600080fdfea26469706673582212209106d2f8eb763025c38066747810ee3b6c203a6e591a841420dda1f011a898c764736f6c63430008180033",
  "linkReferences": {},
  "deployedLinkReferences": {}
}