{
  "_format": "hh-sol-artifact-1",
  "contractName": "SimpleStaking",
  "sourceName": "contracts/Staking.sol",
  "abi": [
    {
      "inputs": [
        {
          "internalType": "address",
          "name": "_weth",
          "type": "address"
        }
      ],
      "stateMutability": "nonpayable",
      "type": "constructor"
    },
    {
      "inputs": [],
      "name": "ReentrancyGuardReentrantCall",
      "type": "error"
    },
    {
      "anonymous": false,
      "inputs": [
        {
          "indexed": true,
          "internalType": "address",
          "name": "user",
          "type": "address"
        },
        {
          "indexed": false,
          "internalType": "uint256",
          "name": "amount",
          "type": "uint256"
        }
      ],
      "name": "RewardClaimed",
      "type": "event"
    },
    {
      "anonymous": false,
      "inputs": [
        {
          "indexed": false,
          "internalType": "uint256",
          "name": "amount",
          "type": "uint256"
        }
      ],
      "name": "RewardsAdded",
      "type": "event"
    },
    {
      "anonymous": false,
      "inputs": [
        {
          "indexed": true,
          "internalType": "address",
          "name": "user",
          "type": "address"
        },
        {
          "indexed": false,
          "internalType": "uint256",
          "name": "amount",
          "type": "uint256"
        }
      ],
      "name": "Stake",
      "type": "event"
    },
    {
      "anonymous": false,
      "inputs": [
        {
          "indexed": true,
          "internalType": "address",
          "name": "user",
          "type": "address"
        },
        {
          "indexed": false,
          "internalType": "uint256",
          "name": "amount",
          "type": "uint256"
        }
      ],
      "name": "Unstake",
      "type": "event"
    },
    {
      "stateMutability": "payable",
      "type": "fallback"
    },
    {
      "inputs": [],
      "name": "REWARD_INTERVAL",
      "outputs": [
        {
          "internalType": "uint256",
          "name": "",
          "type": "uint256"
        }
      ],
      "stateMutability": "view",
      "type": "function"
    },
    {
      "inputs": [],
      "name": "accRewardPerShare",
      "outputs": [
        {
          "internalType": "uint256",
          "name": "",
          "type": "uint256"
        }
      ],
      "stateMutability": "view",
      "type": "function"
    },
    {
      "inputs": [],
      "name": "addRewards",
      "outputs": [],
      "stateMutability": "payable",
      "type": "function"
    },
    {
      "inputs": [],
      "name": "factoryAddress",
      "outputs": [
        {
          "internalType": "address",
          "name": "",
          "type": "address"
        }
      ],
      "stateMutability": "view",
      "type": "function"
    },
    {
      "inputs": [
        {
          "internalType": "address",
          "name": "staker",
          "type": "address"
        }
      ],
      "name": "getStake",
      "outputs": [
        {
          "internalType": "uint256",
          "name": "",
          "type": "uint256"
        }
      ],
      "stateMutability": "view",
      "type": "function"
    },
    {
      "inputs": [],
      "name": "lastRewardTime",
      "outputs": [
        {
          "internalType": "uint256",
          "name": "",
          "type": "uint256"
        }
      ],
      "stateMutability": "view",
      "type": "function"
    },
    {
      "inputs": [],
      "name": "owner",
      "outputs": [
        {
          "internalType": "address",
          "name": "",
          "type": "address"
        }
      ],
      "stateMutability": "view",
      "type": "function"
    },
    {
      "inputs": [
        {
          "internalType": "address",
          "name": "_user",
          "type": "address"
        }
      ],
      "name": "pendingReward",
      "outputs": [
        {
          "internalType": "uint256",
          "name": "",
          "type": "uint256"
        }
      ],
      "stateMutability": "view",
      "type": "function"
    },
    {
      "inputs": [
        {
          "internalType": "address",
          "name": "",
          "type": "address"
        }
      ],
      "name": "rewardDebt",
      "outputs": [
        {
          "internalType": "uint256",
          "name": "",
          "type": "uint256"
        }
      ],
      "stateMutability": "view",
      "type": "function"
    },
    {
      "inputs": [
        {
          "internalType": "address",
          "name": "_factoryAddress",
          "type": "address"
        }
      ],
      "name": "setFactoryAddress",
      "outputs": [],
      "stateMutability": "nonpayable",
      "type": "function"
    },
    {
      "inputs": [],
      "name": "stake",
      "outputs": [],
      "stateMutability": "payable",
      "type": "function"
    },
    {
      "inputs": [
        {
          "internalType": "address",
          "name": "",
          "type": "address"
        }
      ],
      "name": "stakes",
      "outputs": [
        {
          "internalType": "uint256",
          "name": "",
          "type": "uint256"
        }
      ],
      "stateMutability": "view",
      "type": "function"
    },
    {
      "inputs": [],
      "name": "totalRewards",
      "outputs": [
        {
          "internalType": "uint256",
          "name": "",
          "type": "uint256"
        }
      ],
      "stateMutability": "view",
      "type": "function"
    },
    {
      "inputs": [],
      "name": "totalStaked",
      "outputs": [
        {
          "internalType": "uint256",
          "name": "",
          "type": "uint256"
        }
      ],
      "stateMutability": "view",
      "type": "function"
    },
    {
      "inputs": [
        {
          "internalType": "uint256",
          "name": "amount",
          "type": "uint256"
        }
      ],
      "name": "unstake",
      "outputs": [],
      "stateMutability": "nonpayable",
      "type": "function"
    },
    {
      "inputs": [],
      "name": "weth",
      "outputs": [
        {
          "internalType": "address",
          "name": "",
          "type": "address"
        }
      ],
      "stateMutability": "view",
      "type": "function"
    },
    {
      "stateMutability": "payable",
      "type": "receive"
    }
  ],
  "bytecode": "0x60803461008357601f610c7338819003918201601f19168301916001600160401b038311848410176100885780849260209460405283398101031261008357516001600160a01b0381169081900361008357600160005560018060a01b031933816005541617600555426009556004541617600455604051610bd4908161009f8239f35b600080fd5b634e487b7160e01b600052604160045260246000fdfe608060408181526004918236101561001f575b505050361561001d57005b005b600090813560e01c9081630e15561a14610a1c5750806314d6aed01461098357806316934fc41461032f5780632e17de78146107765780633a4b66f1146103e55780633fc8cef3146103bf5780635873eb9b146103865780635dbdda69146103685780637a7664601461032f578063817b1cd21461031057806383c17c55146102655780638da5cb5b1461023d5780639231cf741461021e578063939d6237146101ff578063966dae0e146101d35763f40f0f520361001257346101d05760203660031901126101d0578235906001600160a01b0382168092036101d057600854600954804211806101c5575b61014b575b60208561014486828764e8d4a51000610134898584526001895284842054610aa7565b0492815260028652205490610ada565b9051908152f35b61016561015c620151809242610ada565b60075490610aa7565b0464e8d4a51000908181029181830414901517156101b257602095509164e8d4a510006101346101a787946101a1610144989760065490610aba565b90610a38565b935050509192610111565b602483601188634e487b7160e01b835252fd5b50600654151561010c565b80fd5b5090346101fb57816003193601126101fb576020906001600160a01b03600354169051908152f35b5080fd5b5090346101fb57816003193601126101fb576020906008549051908152f35b5090346101fb57816003193601126101fb576020906009549051908152f35b5090346101fb57816003193601126101fb576020906001600160a01b03600554169051908152f35b50913461030c57602036600319011261030c578035916001600160a01b03808416809403610308576005541633036102c55750507fffffffffffffffffffffffff0000000000000000000000000000000000000000600354161760035580f35b906020606492519162461bcd60e51b8352820152601760248201527f43616c6c6572206973206e6f7420746865206f776e65720000000000000000006044820152fd5b8480fd5b8280fd5b5090346101fb57816003193601126101fb576020906006549051908152f35b50913461030c57602036600319011261030c57356001600160a01b03811680910361030c57828291602094526001845220549051908152f35b5090346101fb57816003193601126101fb5760209051620151808152f35b50913461030c57602036600319011261030c57356001600160a01b03811680910361030c57828291602094526002845220549051908152f35b50346101d057806003193601126101d057506001600160a01b0360209254169051908152f35b5090816003193601126101fb576103fa610b63565b341561073457610408610ae7565b6001600160a01b039283815416803b15610676578382918451928380927fd0e30db000000000000000000000000000000000000000000000000000000000825234905af1801561072757908491610713575b5050604634029334850460460361070057606484950461047a8134610ada565b50818354168260035416918551927fa9059cbb0000000000000000000000000000000000000000000000000000000084528584015260248301528160448160209889945af19081156106f65786916106bc575b501561067a578490338252600185528382205480610568575b82867febedb8b3c678666e7f36970bc8f57abf6d8fa2e828c0da91ea5b75bf68ed101a873384526001835280842061051f348254610a38565b905561052d34600654610a38565b6006553384526001835264e8d4a5100061054d8286205460085490610aa7565b04338552600284528185205551913483523392a26001815580f35b64e8d4a5100061057e6105909260085490610aa7565b04338452600287528584205490610ada565b9283159182156105a1575b506104e6565b81541690813b156106765784602485928389519586948593632e1a7d4d60e01b85528401525af1801561066c57908391610658575b5083909161064e575b8280929181923390f11561064457907febedb8b3c678666e7f36970bc8f57abf6d8fa2e828c0da91ea5b75bf68ed101a9181519081527f106f923f993c2149d49b4255ff723acafa1f2d94393f561d3eda32ae348f7241843392a2908338808061059b565b81513d85823e3d90fd5b6108fc91506105df565b61066190610a5b565b6101fb5781386105d6565b85513d85823e3d90fd5b8380fd5b5082606492519162461bcd60e51b8352820152601e60248201527f4661696c656420746f2073656e64205745544820746f20666163746f727900006044820152fd5b90508481813d83116106ef575b6106d38183610a85565b810103126106eb575180151581036106eb57386104cd565b8580fd5b503d6106c9565b84513d88823e3d90fd5b602484601184634e487b7160e01b835252fd5b61071c90610a5b565b61030c57823861045a565b50505051903d90823e3d90fd5b5162461bcd60e51b8152602081840152601260248201527f43616e6e6f74207374616b6520302045544800000000000000000000000000006044820152606490fd5b50913461030c5760208060031936011261067657813591610795610b63565b33855260018252828486205410610942576107ae610ae7565b846001600160a01b038254169185517f70a0823100000000000000000000000000000000000000000000000000000000815230828201528481602481875afa80156109385786918491610907575b50106108fc57823b156101fb57602485918388519586948593632e1a7d4d60e01b85528401525af180156108f2576108df575b5083808380156108d5575b8280929181923390f1156108c9577f85082129d87b2fe11527cb1b3b7a520aeb5aa6913f88a3d8757fe40d1db02fdd919233855260018252808520610880858254610ada565b905561088e84600654610ada565b6006553385526001825264e8d4a510006108ae8287205460085490610aa7565b043386526002835281862055519283523392a25b6001815580f35b505051903d90823e3d90fd5b6108fc915061083a565b6108eb90949194610a5b565b923861082f565b84513d87823e3d90fd5b5050505050506108c2565b809250868092503d8311610931575b6109208183610a85565b8101031261030c57859051386107fc565b503d610916565b87513d85823e3d90fd5b60649184519162461bcd60e51b8352820152601b60248201527f496e73756666696369656e74207374616b65642062616c616e636500000000006044820152fd5b50918260031936011261030c5734156109da575060207ff8fad42e780bfa5459be3fe691e8ba1aec70342250112139c5771c3fd155f312916109c3610ae7565b6109cf34600754610a38565b60075551348152a180f35b6020606492519162461bcd60e51b8352820152601160248201527f4e6f207265776172647320746f206164640000000000000000000000000000006044820152fd5b9050346101fb57816003193601126101fb576020906007548152f35b91908201809211610a4557565b634e487b7160e01b600052601160045260246000fd5b67ffffffffffffffff8111610a6f57604052565b634e487b7160e01b600052604160045260246000fd5b90601f8019910116810190811067ffffffffffffffff821117610a6f57604052565b81810292918115918404141715610a4557565b8115610ac4570490565b634e487b7160e01b600052601260045260246000fd5b91908203918211610a4557565b600954421115610b61576006548015610b5a57610b0660095442610ada565b610b2262015180610b1a6007548094610aa7565b048092610ada565b60075564e8d4a5100090818102918183041490151715610a4557610b5191610b4991610aba565b600854610a38565b60085542600955565b5042600955565b565b600260005414610b74576002600055565b60046040517f3ee5aeb5000000000000000000000000000000000000000000000000000000008152fdfea264697066735822122039e27bfa549bc12e1e2e4f6e7f8667d76286bfeff591d276caa0eb3926bc689f64736f6c63430008180033",
  "linkReferences": {},
  "deployedLinkReferences": {}
}