{
  "_format": "hh-sol-artifact-1",
  "contractName": "SimpleStaking",
  "sourceName": "contracts/Staking.sol",
  "abi": [
    {
      "inputs": [
        {
          "internalType": "address",
          "name": "_weth",
          "type": "address"
        },
        {
          "internalType": "address",
          "name": "factory",
          "type": "address"
        }
      ],
      "stateMutability": "nonpayable",
      "type": "constructor"
    },
    {
      "inputs": [],
      "name": "ReentrancyGuardReentrantCall",
      "type": "error"
    },
    {
      "anonymous": false,
      "inputs": [
        {
          "indexed": false,
          "internalType": "uint256",
          "name": "availableWETH",
          "type": "uint256"
        }
      ],
      "name": "DebugAvailableWETH",
      "type": "event"
    },
    {
      "anonymous": false,
      "inputs": [
        {
          "indexed": false,
          "internalType": "address",
          "name": "user",
          "type": "address"
        },
        {
          "indexed": false,
          "internalType": "uint256",
          "name": "amountToProcess",
          "type": "uint256"
        }
      ],
      "name": "DebugProcessAttempt",
      "type": "event"
    },
    {
      "anonymous": false,
      "inputs": [
        {
          "indexed": false,
          "internalType": "address",
          "name": "user",
          "type": "address"
        },
        {
          "indexed": false,
          "internalType": "uint256",
          "name": "amount",
          "type": "uint256"
        }
      ],
      "name": "FailedToProcessUnstake",
      "type": "event"
    },
    {
      "anonymous": false,
      "inputs": [
        {
          "indexed": false,
          "internalType": "uint256",
          "name": "amount",
          "type": "uint256"
        },
        {
          "indexed": false,
          "internalType": "uint256",
          "name": "timestamp",
          "type": "uint256"
        }
      ],
      "name": "FundsReceived",
      "type": "event"
    },
    {
      "anonymous": false,
      "inputs": [
        {
          "indexed": false,
          "internalType": "uint256",
          "name": "amount",
          "type": "uint256"
        }
      ],
      "name": "FundsRequested",
      "type": "event"
    },
    {
      "anonymous": false,
      "inputs": [
        {
          "indexed": false,
          "internalType": "uint256",
          "name": "amountNeeded",
          "type": "uint256"
        }
      ],
      "name": "NotifyFactoryForFunds",
      "type": "event"
    },
    {
      "anonymous": false,
      "inputs": [
        {
          "indexed": false,
          "internalType": "address",
          "name": "user",
          "type": "address"
        },
        {
          "indexed": false,
          "internalType": "uint256",
          "name": "requestedAmount",
          "type": "uint256"
        },
        {
          "indexed": false,
          "internalType": "string",
          "name": "error",
          "type": "string"
        }
      ],
      "name": "ProcessUnstakeError",
      "type": "event"
    },
    {
      "anonymous": false,
      "inputs": [
        {
          "indexed": true,
          "internalType": "address",
          "name": "user",
          "type": "address"
        },
        {
          "indexed": false,
          "internalType": "uint256",
          "name": "amount",
          "type": "uint256"
        }
      ],
      "name": "RewardClaimed",
      "type": "event"
    },
    {
      "anonymous": false,
      "inputs": [
        {
          "indexed": false,
          "internalType": "uint256",
          "name": "amount",
          "type": "uint256"
        }
      ],
      "name": "RewardsAdded",
      "type": "event"
    },
    {
      "anonymous": false,
      "inputs": [
        {
          "indexed": true,
          "internalType": "address",
          "name": "user",
          "type": "address"
        },
        {
          "indexed": false,
          "internalType": "uint256",
          "name": "amount",
          "type": "uint256"
        }
      ],
      "name": "Stake",
      "type": "event"
    },
    {
      "anonymous": false,
      "inputs": [
        {
          "indexed": true,
          "internalType": "address",
          "name": "user",
          "type": "address"
        },
        {
          "indexed": false,
          "internalType": "uint256",
          "name": "amount",
          "type": "uint256"
        }
      ],
      "name": "Unstake",
      "type": "event"
    },
    {
      "anonymous": false,
      "inputs": [
        {
          "indexed": true,
          "internalType": "address",
          "name": "user",
          "type": "address"
        },
        {
          "indexed": false,
          "internalType": "uint256",
          "name": "amount",
          "type": "uint256"
        },
        {
          "indexed": false,
          "internalType": "uint256",
          "name": "pendingAmount",
          "type": "uint256"
        }
      ],
      "name": "UnstakeProcessed",
      "type": "event"
    },
    {
      "anonymous": false,
      "inputs": [
        {
          "indexed": true,
          "internalType": "address",
          "name": "user",
          "type": "address"
        },
        {
          "indexed": false,
          "internalType": "uint256",
          "name": "amount",
          "type": "uint256"
        },
        {
          "indexed": false,
          "internalType": "uint256",
          "name": "timestamp",
          "type": "uint256"
        }
      ],
      "name": "UnstakeQueued",
      "type": "event"
    },
    {
      "anonymous": false,
      "inputs": [
        {
          "indexed": false,
          "internalType": "uint256",
          "name": "index",
          "type": "uint256"
        },
        {
          "indexed": false,
          "internalType": "address",
          "name": "user",
          "type": "address"
        },
        {
          "indexed": false,
          "internalType": "uint256",
          "name": "amount",
          "type": "uint256"
        },
        {
          "indexed": false,
          "internalType": "uint256",
          "name": "pendingUnstakes",
          "type": "uint256"
        }
      ],
      "name": "UnstakeRequestDetails",
      "type": "event"
    },
    {
      "anonymous": false,
      "inputs": [
        {
          "indexed": true,
          "internalType": "address",
          "name": "user",
          "type": "address"
        },
        {
          "indexed": false,
          "internalType": "uint256",
          "name": "amount",
          "type": "uint256"
        },
        {
          "indexed": false,
          "internalType": "uint256",
          "name": "pendingAmount",
          "type": "uint256"
        }
      ],
      "name": "UnstakeRequested",
      "type": "event"
    },
    {
      "anonymous": false,
      "inputs": [
        {
          "indexed": false,
          "internalType": "address",
          "name": "user",
          "type": "address"
        },
        {
          "indexed": false,
          "internalType": "uint256",
          "name": "processedAmount",
          "type": "uint256"
        },
        {
          "indexed": false,
          "internalType": "uint256",
          "name": "remainingWETH",
          "type": "uint256"
        }
      ],
      "name": "WETHProcessed",
      "type": "event"
    },
    {
      "stateMutability": "payable",
      "type": "fallback"
    },
    {
      "inputs": [],
      "name": "REWARD_INTERVAL",
      "outputs": [
        {
          "internalType": "uint256",
          "name": "",
          "type": "uint256"
        }
      ],
      "stateMutability": "view",
      "type": "function"
    },
    {
      "inputs": [],
      "name": "accRewardPerShare",
      "outputs": [
        {
          "internalType": "uint256",
          "name": "",
          "type": "uint256"
        }
      ],
      "stateMutability": "view",
      "type": "function"
    },
    {
      "inputs": [],
      "name": "addRewards",
      "outputs": [],
      "stateMutability": "payable",
      "type": "function"
    },
    {
      "inputs": [],
      "name": "claimRewards",
      "outputs": [],
      "stateMutability": "nonpayable",
      "type": "function"
    },
    {
      "inputs": [],
      "name": "factoryAddress",
      "outputs": [
        {
          "internalType": "address",
          "name": "",
          "type": "address"
        }
      ],
      "stateMutability": "view",
      "type": "function"
    },
    {
      "inputs": [
        {
          "internalType": "address",
          "name": "staker",
          "type": "address"
        }
      ],
      "name": "getStake",
      "outputs": [
        {
          "internalType": "uint256",
          "name": "",
          "type": "uint256"
        }
      ],
      "stateMutability": "view",
      "type": "function"
    },
    {
      "inputs": [],
      "name": "getTotalStaked",
      "outputs": [
        {
          "internalType": "uint256",
          "name": "",
          "type": "uint256"
        }
      ],
      "stateMutability": "view",
      "type": "function"
    },
    {
      "inputs": [],
      "name": "getTotalUnstakeQueueAmount",
      "outputs": [
        {
          "internalType": "uint256",
          "name": "totalAmount",
          "type": "uint256"
        }
      ],
      "stateMutability": "view",
      "type": "function"
    },
    {
      "inputs": [],
      "name": "getUnstakeQueueLength",
      "outputs": [
        {
          "internalType": "uint256",
          "name": "",
          "type": "uint256"
        }
      ],
      "stateMutability": "view",
      "type": "function"
    },
    {
      "inputs": [
        {
          "internalType": "uint256",
          "name": "index",
          "type": "uint256"
        }
      ],
      "name": "getUnstakeRequest",
      "outputs": [
        {
          "internalType": "address",
          "name": "user",
          "type": "address"
        },
        {
          "internalType": "uint256",
          "name": "amount",
          "type": "uint256"
        },
        {
          "internalType": "uint256",
          "name": "timestamp",
          "type": "uint256"
        }
      ],
      "stateMutability": "view",
      "type": "function"
    },
    {
      "inputs": [],
      "name": "handleReceivedWETHFromScript",
      "outputs": [],
      "stateMutability": "nonpayable",
      "type": "function"
    },
    {
      "inputs": [],
      "name": "lastRewardTime",
      "outputs": [
        {
          "internalType": "uint256",
          "name": "",
          "type": "uint256"
        }
      ],
      "stateMutability": "view",
      "type": "function"
    },
    {
      "inputs": [
        {
          "internalType": "uint256",
          "name": "amount",
          "type": "uint256"
        }
      ],
      "name": "notifyFundsReceived",
      "outputs": [],
      "stateMutability": "nonpayable",
      "type": "function"
    },
    {
      "inputs": [],
      "name": "owner",
      "outputs": [
        {
          "internalType": "address",
          "name": "",
          "type": "address"
        }
      ],
      "stateMutability": "view",
      "type": "function"
    },
    {
      "inputs": [
        {
          "internalType": "address",
          "name": "_user",
          "type": "address"
        }
      ],
      "name": "pendingReward",
      "outputs": [
        {
          "internalType": "uint256",
          "name": "",
          "type": "uint256"
        }
      ],
      "stateMutability": "view",
      "type": "function"
    },
    {
      "inputs": [
        {
          "internalType": "address",
          "name": "",
          "type": "address"
        }
      ],
      "name": "pendingUnstakes",
      "outputs": [
        {
          "internalType": "uint256",
          "name": "",
          "type": "uint256"
        }
      ],
      "stateMutability": "view",
      "type": "function"
    },
    {
      "inputs": [
        {
          "internalType": "uint256",
          "name": "amount",
          "type": "uint256"
        }
      ],
      "name": "requestUnstake",
      "outputs": [],
      "stateMutability": "nonpayable",
      "type": "function"
    },
    {
      "inputs": [
        {
          "internalType": "address",
          "name": "",
          "type": "address"
        }
      ],
      "name": "rewardDebt",
      "outputs": [
        {
          "internalType": "uint256",
          "name": "",
          "type": "uint256"
        }
      ],
      "stateMutability": "view",
      "type": "function"
    },
    {
      "inputs": [
        {
          "internalType": "address",
          "name": "_factoryAddress",
          "type": "address"
        }
      ],
      "name": "setFactoryAddress",
      "outputs": [],
      "stateMutability": "nonpayable",
      "type": "function"
    },
    {
      "inputs": [],
      "name": "stake",
      "outputs": [],
      "stateMutability": "payable",
      "type": "function"
    },
    {
      "inputs": [
        {
          "internalType": "address",
          "name": "",
          "type": "address"
        }
      ],
      "name": "stakes",
      "outputs": [
        {
          "internalType": "uint256",
          "name": "",
          "type": "uint256"
        }
      ],
      "stateMutability": "view",
      "type": "function"
    },
    {
      "inputs": [],
      "name": "totalFundsNeeded",
      "outputs": [
        {
          "internalType": "uint256",
          "name": "",
          "type": "uint256"
        }
      ],
      "stateMutability": "view",
      "type": "function"
    },
    {
      "inputs": [],
      "name": "totalRewards",
      "outputs": [
        {
          "internalType": "uint256",
          "name": "",
          "type": "uint256"
        }
      ],
      "stateMutability": "view",
      "type": "function"
    },
    {
      "inputs": [],
      "name": "totalStaked",
      "outputs": [
        {
          "internalType": "uint256",
          "name": "",
          "type": "uint256"
        }
      ],
      "stateMutability": "view",
      "type": "function"
    },
    {
      "inputs": [
        {
          "internalType": "uint256",
          "name": "",
          "type": "uint256"
        }
      ],
      "name": "unstakeQueue",
      "outputs": [
        {
          "internalType": "address",
          "name": "user",
          "type": "address"
        },
        {
          "internalType": "uint256",
          "name": "amount",
          "type": "uint256"
        },
        {
          "internalType": "uint256",
          "name": "timestamp",
          "type": "uint256"
        }
      ],
      "stateMutability": "view",
      "type": "function"
    },
    {
      "inputs": [],
      "name": "weth",
      "outputs": [
        {
          "internalType": "address",
          "name": "",
          "type": "address"
        }
      ],
      "stateMutability": "view",
      "type": "function"
    },
    {
      "stateMutability": "payable",
      "type": "receive"
    }
  ],
  "bytecode": "0x60803461009b57601f611a2238819003918201601f19168301916001600160401b038311848410176100a057808492604094855283398101031261009b57610052602061004b836100b6565b92016100b6565b90600160005560018060a01b0319913383600654161760065542600a5560018060a01b038092168360055416176005551690600454161760045560405161195790816100cb8239f35b600080fd5b634e487b7160e01b600052604160045260246000fd5b51906001600160a01b038216820361009b5756fe608060408181526004918236101561001f575b505050361561001d57005b005b600090813560e01c9081630917e776146114a8575080630e15561a1461148957806314d6aed01461137b57806316934fc4146107035780632309572114610ff7578063372500ab14610d665780633a4b66f1146109d75780633bac9c99146109b85780633fc8cef3146109905780635873eb9b146109575780635dbdda6914610939578063743432051461073c5780637a76646014610703578063817b1cd2146106e457806383c17c551461064b5780638da5cb5b146106235780639231cf7414610604578063939d6237146105e5578063966dae0e146105bf5780639b5ceb3514610388578063afa580701461035f578063b8e347df14610342578063d6b6b23f14610305578063ddb59e1314610264578063f3385ace146102415763f40f0f5203610012573461023e57602036600319011261023e578235906001600160a01b03821680920361023e57600954600a5480421180610233575b6101b9575b6020856101b286828764e8d4a510006101a28985845260018952848420546115b8565b04928152600286522054906115eb565b9051908152f35b6101d36101ca62093a8092426115eb565b600854906115b8565b0464e8d4a510009081810291818304149015171561022057602095509164e8d4a510006101a2610215879461020f6101b29897600754906115cb565b90611595565b93505050919261017f565b602483601188634e487b7160e01b835252fd5b50600754151561017a565b80fd5b509034610260578160031936011261026057602090600c549051908152f35b5080fd5b5082903461023e57602036600319011261023e5750803590600b548210156102c25750610290906114c4565b508054600182015460029092015492516001600160a01b03909116815260208101919091526040810191909152606090f35b606490602084519162461bcd60e51b8352820152601360248201527f496e646578206f7574206f6620626f756e6473000000000000000000000000006044820152fd5b50913461033e57602036600319011261033e57356001600160a01b03811680910361033e57828291602094526003845220549051908152f35b8280fd5b5090346102605781600319360112610260576020906101b26115f8565b508234610260576020366003190112610260573590600b5482101561023e5750610290906114c4565b503461023e576020908160031936011261023e576001600160a01b039182855416330361057d577f063d07ee72a7483b8e07ca09054bb686775c5c030f945dde3823a5257a0a93eb848051873581524284820152a18260055416928451906370a0823160e01b82523087830152828260248181985afa91821561057357849261053f575b507f264b03945932e4bc51e688f9f27dbb1f5faba7660d11abdbf7e7f41ed87928ba83838851908152a18384965b600b938454891080610536575b156104f257610455896114c4565b5060018181018054909290918285106104cb57506104829392918761047b9254166116de565b54906115eb565b935460001981019081116104b95761049c6104ac916114c4565b506104a68a6114c4565b90611879565b6104b46118dc565b61043a565b878760118c634e487b7160e01b835252fd5b949b95925050826104e193975061020f916115eb565b9160001981146104b957019661043a565b50848692806104ff578380f35b7fd5e85995d9bdcdafb72531ec59faef29167c16780583ca2068587fe896170c479261052a826117e0565b51908152a18180808380f35b50801515610447565b9091508281813d831161056c575b6105578183611573565b810103126105675751903861040c565b600080fd5b503d61054d565b86513d86823e3d90fd5b8460649185519162461bcd60e51b8352820152601760248201527f4f6e6c7920666163746f72792063616e206e6f746966790000000000000000006044820152fd5b503461023e578060031936011261023e57506001600160a01b0360209254169051908152f35b5090346102605781600319360112610260576020906009549051908152f35b509034610260578160031936011261026057602090600a549051908152f35b5090346102605781600319360112610260576020906001600160a01b03600654169051908152f35b5091903461033e57602036600319011261033e578135906001600160a01b038083168093036106e05760065416330361069e575073ffffffffffffffffffffffffffffffffffffffff1982541617905580f35b5162461bcd60e51b8152602081840152601760248201527f43616c6c6572206973206e6f7420746865206f776e65720000000000000000006044820152606490fd5b8480fd5b5090346102605781600319360112610260576020906007549051908152f35b50913461033e57602036600319011261033e57356001600160a01b03811680910361033e57828291602094526001845220549051908152f35b50913461033e578260031936011261033e576001600160a01b03806005541683519182916370a0823160e01b8352308584015282602460209586935afa91821561092f578692610900575b507f264b03945932e4bc51e688f9f27dbb1f5faba7660d11abdbf7e7f41ed87928ba838651848152a1600b546107bb578580f35b6107c3611515565b50818154169260018201937faeadbfc8febf10d119916528ecb37175473490279c943963f050330e4c90e959608086549260028601548b51918d83528a830152848c8301526060820152a18082106108b9575050549154610826929091166116de565b600b549283156108785750506000198201918211610865575061084b610854916114c4565b506104a6611515565b61085c6118dc565b38808080808580f35b826011602492634e487b7160e01b835252fd5b60649350519162461bcd60e51b8352820152601460248201527f496e646578206f7574206f6620626f756e64732e0000000000000000000000006044820152fd5b915091507fd5e85995d9bdcdafb72531ec59faef29167c16780583ca2068587fe896170c47959394506108ec92506115eb565b906108f6826117e0565b51908152a161085c565b9091508281813d8311610928575b6109188183611573565b8101031261056757519038610787565b503d61090e565b85513d88823e3d90fd5b5090346102605781600319360112610260576020905162093a808152f35b50913461033e57602036600319011261033e57356001600160a01b03811680910361033e57828291602094526002845220549051908152f35b5090346102605781600319360112610260576020906001600160a01b03600554169051908152f35b509034610260578160031936011261026057602090600b549051908152f35b5091908260031936011261033e576109ed6116a3565b3415610d23576109fb61162e565b6001600160a01b0391838360055416803b1561026057818391855192838092630d0e30db60e41b825234905af18015610d1957610d05575b505060463402348104604603610cf2576064900492610a5284346115eb565b50806005541681835416845180927fa9059cbb000000000000000000000000000000000000000000000000000000008252818981610aac60209b8c978b8401602090939291936001600160a01b0360408201951681520152565b03925af1908115610ce8578691610cae575b5015610c6c578490338252600185528382205480610b59575b82867febedb8b3c678666e7f36970bc8f57abf6d8fa2e828c0da91ea5b75bf68ed101a8733845260018352808420610b10348254611595565b9055610b1e34600754611595565b6007553384526001835264e8d4a51000610b3e82862054600954906115b8565b04338552600284528185205551913483523392a26001815580f35b64e8d4a51000610b6f610b8192600954906115b8565b043384526002875285842054906115eb565b928315918215610b92575b50610ad7565b6005541690813b15610c685784602485928389519586948593632e1a7d4d60e01b85528401525af18015610c5e57908391610c4a575b50839091610c40575b8280929181923390f115610c3657907febedb8b3c678666e7f36970bc8f57abf6d8fa2e828c0da91ea5b75bf68ed101a9181519081527f106f923f993c2149d49b4255ff723acafa1f2d94393f561d3eda32ae348f7241843392a29083388080610b8c565b81513d85823e3d90fd5b6108fc9150610bd1565b610c5390611549565b610260578138610bc8565b85513d85823e3d90fd5b8380fd5b5082606492519162461bcd60e51b8352820152601e60248201527f4661696c656420746f2073656e64205745544820746f20666163746f727900006044820152fd5b90508481813d8311610ce1575b610cc58183611573565b81010312610cdd57518015158103610cdd5738610abe565b8580fd5b503d610cbb565b84513d88823e3d90fd5b602485601184634e487b7160e01b835252fd5b610d0e90611549565b610c68578338610a33565b84513d84823e3d90fd5b906020606492519162461bcd60e51b8352820152601260248201527f43616e6e6f74207374616b6520302045544800000000000000000000000000006044820152fd5b5091903461033e578260031936011261033e57610d816116a3565b610d8961162e565b33835260209060018252808420548015610f8f57610db064e8d4a5100091600954906115b8565b049233855260028352610dc682862054856115eb565b938415610f4d57600854858110610f0b5785610de1916115eb565b6008553386526002845282862055846001600160a01b0360055416803b15610260578180916024865180948193632e1a7d4d60e01b83528b898401525af18015610d1957610ef7575b5080808087335af13d15610ef2573d67ffffffffffffffff8111610edf57835190610e5e601f8201601f1916870183611573565b815286853d92013e5b15610e9e5750907f106f923f993c2149d49b4255ff723acafa1f2d94393f561d3eda32ae348f724191519283523392a26001815580f35b82606492519162461bcd60e51b8352820152601260248201527f4661696c656420746f2073656e642045544800000000000000000000000000006044820152fd5b602487604185634e487b7160e01b835252fd5b610e67565b610f0090611549565b6106e0578438610e2a565b6064838686519162461bcd60e51b8352820152601a60248201527f4e6f7420656e6f756768207265776172647320696e20706f6f6c0000000000006044820152fd5b5082606492519162461bcd60e51b8352820152601360248201527f4e6f207265776172647320746f20636c61696d000000000000000000000000006044820152fd5b5060849350519162461bcd60e51b8352820152602560248201527f4e6f207374616b656420616d6f756e7420746f20636c61696d2072657761726460448201527f7320666f720000000000000000000000000000000000000000000000000000006064820152fd5b509034610260576020908160031936011261033e578335916110176116a3565b33845260018152828285205410611339576001600160a01b038060055416835183816024816370a0823160e01b95868252308d8301525afa9081156112fa579086918891611308575b50106110b5575050829394506110977f57e41df54512c76148b5ba9b643d149752b0d35e493b969bd017d0a3fe5228cf93336116de565b33855260038152818520549082519485528401523392a26001815580f35b81875416803b156113045784517fbe5ef17600000000000000000000000000000000000000000000000000000000815230818a01908152602081018890529091889183919082908490829060400103925af180156112fa579087916112e6575b50508282600554169160248651809481938252308c8301525afa908115610ce85790859187916112b5575b501061117b5750829394506111767f57e41df54512c76148b5ba9b643d149752b0d35e493b969bd017d0a3fe5228cf93336116de565b611097565b33855260038252828520611190858254611595565b90558251906060820182811067ffffffffffffffff8211176112a057845233825282820185815284830191428352600b546801000000000000000081101561128d578060016111e29201600b556114c4565b94909461127b577f57e41df54512c76148b5ba9b643d149752b0d35e493b969bd017d0a3fe5228cf97989950906002939291511673ffffffffffffffffffffffffffffffffffffffff1985541617845551600184015551910155815184815242828201527ff24ceb8901eaecb633a833076ec1a09f317122e81bd3bc200d811e0c9bb08146833392a26111766112766115f8565b6117e0565b602489808c634e487b7160e01b825252fd5b60248960418c634e487b7160e01b835252fd5b604188634e487b7160e01b6000525260246000fd5b809250848092503d83116112df575b6112ce8183611573565b810103126105675784905138611140565b503d6112c4565b6112ef90611549565b610cdd578538611115565b85513d89823e3d90fd5b8680fd5b809250858092503d8311611332575b6113218183611573565b810103126105675785905138611060565b503d611317565b8490606492519162461bcd60e51b8352820152601b60248201527f496e73756666696369656e74207374616b65642062616c616e636500000000006044820152fd5b50918260031936011261033e57341561144757826001600160a01b0360055416803b1561026057835192838092630d0e30db60e41b825234905af1801561143b57611405575b5060207ff8fad42e780bfa5459be3fe691e8ba1aec70342250112139c5771c3fd155f312916113f234600854611595565b6008556113fd61162e565b51348152a180f35b7ff8fad42e780bfa5459be3fe691e8ba1aec70342250112139c5771c3fd155f3129192611433602092611549565b9291506113c1565b505051903d90823e3d90fd5b6020606492519162461bcd60e51b8352820152601160248201527f4e6f207265776172647320746f206164640000000000000000000000000000006044820152fd5b5090346102605781600319360112610260576020906008549051908152f35b9050346102605781600319360112610260576020906007548152f35b600b548110156114ff57600390600b600052027f0175b7a638427703f0dbe7bb9bbf987a2551717b34e79f33b5b1008d1fa01db90190600090565b634e487b7160e01b600052603260045260246000fd5b600b54156114ff57600b6000527f0175b7a638427703f0dbe7bb9bbf987a2551717b34e79f33b5b1008d1fa01db990600090565b67ffffffffffffffff811161155d57604052565b634e487b7160e01b600052604160045260246000fd5b90601f8019910116810190811067ffffffffffffffff82111761155d57604052565b919082018092116115a257565b634e487b7160e01b600052601160045260246000fd5b818102929181159184041417156115a257565b81156115d5570490565b634e487b7160e01b600052601260045260246000fd5b919082039182116115a257565b600080600b545b80821061160b57505090565b90916116266001918261161d866114c4565b50015490611595565b9201906115ff565b600a544211156116a157600754801561169a5762093a806116546101ca600a54426115eb565b0480158015611667575b50505042600a55565b64e8d4a510008083029283041417156115a25761168f91611687916115cb565b600954611595565b60095538808061165e565b5042600a55565b565b6002600054146116b4576002600055565b60046040517f3ee5aeb5000000000000000000000000000000000000000000000000000000008152fd5b90600554916000926001600160a01b0380911691823b156106e05784806040946024865180948193632e1a7d4d60e01b83528a60048401525af18015610ce8576117cd575b5016928083858282156117c4575b839283928392f1156117b9579160209183857f85082129d87b2fe11527cb1b3b7a520aeb5aa6913f88a3d8757fe40d1db02fdd9552600184528181206117788482546115eb565b9055611786836007546115eb565b600755858152600184528164e8d4a510006117a782842054600954906115b8565b049187815260028652205551908152a2565b9051903d90823e3d90fd5b506108fc611731565b6117d990959195611549565b9338611723565b7fac0a36a73050720c3fa0d6988cca2309ef4472b3b09fafa8e713f434ff33a05b6020604051838152a16001600160a01b036004541690813b15610567576000916024839260405194859384927f8c3a65a200000000000000000000000000000000000000000000000000000000845260048401525af1801561186d576118645750565b6116a190611549565b6040513d6000823e3d90fd5b91906118c65780820361188a575050565b6002816001600160a01b038293541673ffffffffffffffffffffffffffffffffffffffff19855416178455600181015460018501550154910155565b634e487b7160e01b600052600060045260246000fd5b600b54801561190b57600019016118f2816114c4565b6118c65760028160008093558260018201550155600b55565b634e487b7160e01b600052603160045260246000fdfea26469706673582212209721c9a2247ae2381d6bb6b2e5d234986dffb58f1bee0bba685c890443c23d3f64736f6c63430008180033",
  "linkReferences": {},
  "deployedLinkReferences": {}
}