{
  "_format": "hh-sol-artifact-1",
  "contractName": "SimpleStaking",
  "sourceName": "contracts/Staking.sol",
  "abi": [
    {
      "inputs": [
        {
          "internalType": "address",
          "name": "_weth",
          "type": "address"
        },
        {
          "internalType": "address",
          "name": "factory",
          "type": "address"
        }
      ],
      "stateMutability": "nonpayable",
      "type": "constructor"
    },
    {
      "inputs": [],
      "name": "ReentrancyGuardReentrantCall",
      "type": "error"
    },
    {
      "anonymous": false,
      "inputs": [
        {
          "indexed": false,
          "internalType": "uint256",
          "name": "availableWETH",
          "type": "uint256"
        }
      ],
      "name": "DebugAvailableWETH",
      "type": "event"
    },
    {
      "anonymous": false,
      "inputs": [
        {
          "indexed": false,
          "internalType": "address",
          "name": "user",
          "type": "address"
        },
        {
          "indexed": false,
          "internalType": "uint256",
          "name": "amountToProcess",
          "type": "uint256"
        }
      ],
      "name": "DebugProcessAttempt",
      "type": "event"
    },
    {
      "anonymous": false,
      "inputs": [
        {
          "indexed": false,
          "internalType": "address",
          "name": "user",
          "type": "address"
        },
        {
          "indexed": false,
          "internalType": "uint256",
          "name": "amount",
          "type": "uint256"
        }
      ],
      "name": "FailedToProcessUnstake",
      "type": "event"
    },
    {
      "anonymous": false,
      "inputs": [
        {
          "indexed": false,
          "internalType": "uint256",
          "name": "amount",
          "type": "uint256"
        },
        {
          "indexed": false,
          "internalType": "uint256",
          "name": "timestamp",
          "type": "uint256"
        }
      ],
      "name": "FundsReceived",
      "type": "event"
    },
    {
      "anonymous": false,
      "inputs": [
        {
          "indexed": false,
          "internalType": "uint256",
          "name": "amount",
          "type": "uint256"
        }
      ],
      "name": "FundsRequested",
      "type": "event"
    },
    {
      "anonymous": false,
      "inputs": [
        {
          "indexed": false,
          "internalType": "uint256",
          "name": "amountNeeded",
          "type": "uint256"
        }
      ],
      "name": "NotifyFactoryForFunds",
      "type": "event"
    },
    {
      "anonymous": false,
      "inputs": [
        {
          "indexed": false,
          "internalType": "address",
          "name": "user",
          "type": "address"
        },
        {
          "indexed": false,
          "internalType": "uint256",
          "name": "requestedAmount",
          "type": "uint256"
        },
        {
          "indexed": false,
          "internalType": "string",
          "name": "error",
          "type": "string"
        }
      ],
      "name": "ProcessUnstakeError",
      "type": "event"
    },
    {
      "anonymous": false,
      "inputs": [
        {
          "indexed": true,
          "internalType": "address",
          "name": "user",
          "type": "address"
        },
        {
          "indexed": false,
          "internalType": "uint256",
          "name": "amount",
          "type": "uint256"
        }
      ],
      "name": "RewardClaimed",
      "type": "event"
    },
    {
      "anonymous": false,
      "inputs": [
        {
          "indexed": false,
          "internalType": "uint256",
          "name": "amount",
          "type": "uint256"
        }
      ],
      "name": "RewardsAdded",
      "type": "event"
    },
    {
      "anonymous": false,
      "inputs": [
        {
          "indexed": true,
          "internalType": "address",
          "name": "user",
          "type": "address"
        },
        {
          "indexed": false,
          "internalType": "uint256",
          "name": "amount",
          "type": "uint256"
        }
      ],
      "name": "Stake",
      "type": "event"
    },
    {
      "anonymous": false,
      "inputs": [
        {
          "indexed": true,
          "internalType": "address",
          "name": "user",
          "type": "address"
        },
        {
          "indexed": false,
          "internalType": "uint256",
          "name": "amount",
          "type": "uint256"
        }
      ],
      "name": "Unstake",
      "type": "event"
    },
    {
      "anonymous": false,
      "inputs": [
        {
          "indexed": true,
          "internalType": "address",
          "name": "user",
          "type": "address"
        },
        {
          "indexed": false,
          "internalType": "uint256",
          "name": "amount",
          "type": "uint256"
        },
        {
          "indexed": false,
          "internalType": "uint256",
          "name": "pendingAmount",
          "type": "uint256"
        }
      ],
      "name": "UnstakeProcessed",
      "type": "event"
    },
    {
      "anonymous": false,
      "inputs": [
        {
          "indexed": true,
          "internalType": "address",
          "name": "user",
          "type": "address"
        },
        {
          "indexed": false,
          "internalType": "uint256",
          "name": "amount",
          "type": "uint256"
        },
        {
          "indexed": false,
          "internalType": "uint256",
          "name": "timestamp",
          "type": "uint256"
        }
      ],
      "name": "UnstakeQueued",
      "type": "event"
    },
    {
      "anonymous": false,
      "inputs": [
        {
          "indexed": false,
          "internalType": "uint256",
          "name": "index",
          "type": "uint256"
        },
        {
          "indexed": false,
          "internalType": "address",
          "name": "user",
          "type": "address"
        },
        {
          "indexed": false,
          "internalType": "uint256",
          "name": "amount",
          "type": "uint256"
        },
        {
          "indexed": false,
          "internalType": "uint256",
          "name": "pendingUnstakes",
          "type": "uint256"
        }
      ],
      "name": "UnstakeRequestDetails",
      "type": "event"
    },
    {
      "anonymous": false,
      "inputs": [
        {
          "indexed": true,
          "internalType": "address",
          "name": "user",
          "type": "address"
        },
        {
          "indexed": false,
          "internalType": "uint256",
          "name": "amount",
          "type": "uint256"
        },
        {
          "indexed": false,
          "internalType": "uint256",
          "name": "pendingAmount",
          "type": "uint256"
        }
      ],
      "name": "UnstakeRequested",
      "type": "event"
    },
    {
      "anonymous": false,
      "inputs": [
        {
          "indexed": false,
          "internalType": "address",
          "name": "user",
          "type": "address"
        },
        {
          "indexed": false,
          "internalType": "uint256",
          "name": "processedAmount",
          "type": "uint256"
        },
        {
          "indexed": false,
          "internalType": "uint256",
          "name": "remainingWETH",
          "type": "uint256"
        }
      ],
      "name": "WETHProcessed",
      "type": "event"
    },
    {
      "stateMutability": "payable",
      "type": "fallback"
    },
    {
      "inputs": [],
      "name": "REWARD_INTERVAL",
      "outputs": [
        {
          "internalType": "uint256",
          "name": "",
          "type": "uint256"
        }
      ],
      "stateMutability": "view",
      "type": "function"
    },
    {
      "inputs": [],
      "name": "accRewardPerShare",
      "outputs": [
        {
          "internalType": "uint256",
          "name": "",
          "type": "uint256"
        }
      ],
      "stateMutability": "view",
      "type": "function"
    },
    {
      "inputs": [],
      "name": "addRewards",
      "outputs": [],
      "stateMutability": "payable",
      "type": "function"
    },
    {
      "inputs": [],
      "name": "claimRewards",
      "outputs": [],
      "stateMutability": "nonpayable",
      "type": "function"
    },
    {
      "inputs": [],
      "name": "factoryAddress",
      "outputs": [
        {
          "internalType": "address",
          "name": "",
          "type": "address"
        }
      ],
      "stateMutability": "view",
      "type": "function"
    },
    {
      "inputs": [
        {
          "internalType": "address",
          "name": "staker",
          "type": "address"
        }
      ],
      "name": "getStake",
      "outputs": [
        {
          "internalType": "uint256",
          "name": "",
          "type": "uint256"
        }
      ],
      "stateMutability": "view",
      "type": "function"
    },
    {
      "inputs": [],
      "name": "getTotalRewards",
      "outputs": [
        {
          "internalType": "uint256",
          "name": "",
          "type": "uint256"
        }
      ],
      "stateMutability": "view",
      "type": "function"
    },
    {
      "inputs": [],
      "name": "getTotalStaked",
      "outputs": [
        {
          "internalType": "uint256",
          "name": "",
          "type": "uint256"
        }
      ],
      "stateMutability": "view",
      "type": "function"
    },
    {
      "inputs": [],
      "name": "getTotalUnstakeQueueAmount",
      "outputs": [
        {
          "internalType": "uint256",
          "name": "totalAmount",
          "type": "uint256"
        }
      ],
      "stateMutability": "view",
      "type": "function"
    },
    {
      "inputs": [],
      "name": "getUnstakeQueueLength",
      "outputs": [
        {
          "internalType": "uint256",
          "name": "",
          "type": "uint256"
        }
      ],
      "stateMutability": "view",
      "type": "function"
    },
    {
      "inputs": [
        {
          "internalType": "uint256",
          "name": "index",
          "type": "uint256"
        }
      ],
      "name": "getUnstakeRequest",
      "outputs": [
        {
          "internalType": "address",
          "name": "user",
          "type": "address"
        },
        {
          "internalType": "uint256",
          "name": "amount",
          "type": "uint256"
        },
        {
          "internalType": "uint256",
          "name": "timestamp",
          "type": "uint256"
        }
      ],
      "stateMutability": "view",
      "type": "function"
    },
    {
      "inputs": [],
      "name": "handleReceivedWETHFromScript",
      "outputs": [],
      "stateMutability": "nonpayable",
      "type": "function"
    },
    {
      "inputs": [],
      "name": "lastRewardTime",
      "outputs": [
        {
          "internalType": "uint256",
          "name": "",
          "type": "uint256"
        }
      ],
      "stateMutability": "view",
      "type": "function"
    },
    {
      "inputs": [
        {
          "internalType": "uint256",
          "name": "amount",
          "type": "uint256"
        }
      ],
      "name": "notifyFundsReceived",
      "outputs": [],
      "stateMutability": "nonpayable",
      "type": "function"
    },
    {
      "inputs": [],
      "name": "owner",
      "outputs": [
        {
          "internalType": "address",
          "name": "",
          "type": "address"
        }
      ],
      "stateMutability": "view",
      "type": "function"
    },
    {
      "inputs": [
        {
          "internalType": "address",
          "name": "_user",
          "type": "address"
        }
      ],
      "name": "pendingReward",
      "outputs": [
        {
          "internalType": "uint256",
          "name": "",
          "type": "uint256"
        }
      ],
      "stateMutability": "view",
      "type": "function"
    },
    {
      "inputs": [
        {
          "internalType": "address",
          "name": "",
          "type": "address"
        }
      ],
      "name": "pendingUnstakes",
      "outputs": [
        {
          "internalType": "uint256",
          "name": "",
          "type": "uint256"
        }
      ],
      "stateMutability": "view",
      "type": "function"
    },
    {
      "inputs": [
        {
          "internalType": "uint256",
          "name": "amount",
          "type": "uint256"
        }
      ],
      "name": "requestUnstake",
      "outputs": [],
      "stateMutability": "nonpayable",
      "type": "function"
    },
    {
      "inputs": [
        {
          "internalType": "address",
          "name": "",
          "type": "address"
        }
      ],
      "name": "rewardDebt",
      "outputs": [
        {
          "internalType": "uint256",
          "name": "",
          "type": "uint256"
        }
      ],
      "stateMutability": "view",
      "type": "function"
    },
    {
      "inputs": [
        {
          "internalType": "address",
          "name": "_factoryAddress",
          "type": "address"
        }
      ],
      "name": "setFactoryAddress",
      "outputs": [],
      "stateMutability": "nonpayable",
      "type": "function"
    },
    {
      "inputs": [],
      "name": "stake",
      "outputs": [],
      "stateMutability": "payable",
      "type": "function"
    },
    {
      "inputs": [
        {
          "internalType": "address",
          "name": "",
          "type": "address"
        }
      ],
      "name": "stakes",
      "outputs": [
        {
          "internalType": "uint256",
          "name": "",
          "type": "uint256"
        }
      ],
      "stateMutability": "view",
      "type": "function"
    },
    {
      "inputs": [],
      "name": "totalFundsNeeded",
      "outputs": [
        {
          "internalType": "uint256",
          "name": "",
          "type": "uint256"
        }
      ],
      "stateMutability": "view",
      "type": "function"
    },
    {
      "inputs": [],
      "name": "totalRewards",
      "outputs": [
        {
          "internalType": "uint256",
          "name": "",
          "type": "uint256"
        }
      ],
      "stateMutability": "view",
      "type": "function"
    },
    {
      "inputs": [],
      "name": "totalStaked",
      "outputs": [
        {
          "internalType": "uint256",
          "name": "",
          "type": "uint256"
        }
      ],
      "stateMutability": "view",
      "type": "function"
    },
    {
      "inputs": [
        {
          "internalType": "uint256",
          "name": "",
          "type": "uint256"
        }
      ],
      "name": "unstakeQueue",
      "outputs": [
        {
          "internalType": "address",
          "name": "user",
          "type": "address"
        },
        {
          "internalType": "uint256",
          "name": "amount",
          "type": "uint256"
        },
        {
          "internalType": "uint256",
          "name": "timestamp",
          "type": "uint256"
        }
      ],
      "stateMutability": "view",
      "type": "function"
    },
    {
      "inputs": [],
      "name": "weth",
      "outputs": [
        {
          "internalType": "address",
          "name": "",
          "type": "address"
        }
      ],
      "stateMutability": "view",
      "type": "function"
    },
    {
      "stateMutability": "payable",
      "type": "receive"
    }
  ],
  "bytecode": "0x60803461009b57601f611a2d38819003918201601f19168301916001600160401b038311848410176100a057808492604094855283398101031261009b57610052602061004b836100b6565b92016100b6565b90600160005560018060a01b0319913383600654161760065542600a5560018060a01b038092168360055416176005551690600454161760045560405161196290816100cb8239f35b600080fd5b634e487b7160e01b600052604160045260246000fd5b51906001600160a01b038216820361009b5756fe608060408181526004918236101561001f575b505050361561001d57005b005b600090813560e01c9081630917e776146114b3575080630e15561a1461026f57806314d6aed0146113a557806316934fc41461072d5780632309572114611021578063372500ab14610d905780633a4b66f114610a015780633bac9c99146109e25780633fc8cef3146109ba5780635873eb9b146109815780635dbdda691461096357806374343205146107665780637a7664601461072d578063817b1cd21461070e57806383c17c55146106755780638da5cb5b1461064d5780639231cf741461062e578063939d62371461060f578063966dae0e146105e95780639b5ceb35146103b2578063afa5807014610389578063b8e347df1461036c578063d6b6b23f1461032f578063ddb59e131461028e578063e627f2db1461026f578063f3385ace1461024c5763f40f0f52036100125734610249576020366003190112610249578235906001600160a01b03821680920361024957600954600a548042118061023e575b6101c4575b6020856101bd86828764e8d4a510006101ad8985845260018952848420546115c3565b04928152600286522054906115f6565b9051908152f35b6101de6101d562093a8092426115f6565b600854906115c3565b0464e8d4a510009081810291818304149015171561022b57602095509164e8d4a510006101ad610220879461021a6101bd9897600754906115d6565b906115a0565b93505050919261018a565b602483601188634e487b7160e01b835252fd5b506007541515610185565b80fd5b50903461026b578160031936011261026b57602090600c549051908152f35b5080fd5b50903461026b578160031936011261026b576020906008549051908152f35b508290346102495760203660031901126102495750803590600b548210156102ec57506102ba906114cf565b508054600182015460029092015492516001600160a01b03909116815260208101919091526040810191909152606090f35b606490602084519162461bcd60e51b8352820152601360248201527f496e646578206f7574206f6620626f756e6473000000000000000000000000006044820152fd5b50913461036857602036600319011261036857356001600160a01b03811680910361036857828291602094526003845220549051908152f35b8280fd5b50903461026b578160031936011261026b576020906101bd611603565b50823461026b57602036600319011261026b573590600b5482101561024957506102ba906114cf565b50346102495760209081600319360112610249576001600160a01b03918285541633036105a7577f063d07ee72a7483b8e07ca09054bb686775c5c030f945dde3823a5257a0a93eb848051873581524284820152a18260055416928451906370a0823160e01b82523087830152828260248181985afa91821561059d578492610569575b507f264b03945932e4bc51e688f9f27dbb1f5faba7660d11abdbf7e7f41ed87928ba83838851908152a18384965b600b938454891080610560575b1561051c5761047f896114cf565b5060018181018054909290918285106104f557506104ac939291876104a59254166116e9565b54906115f6565b935460001981019081116104e3576104c66104d6916114cf565b506104d08a6114cf565b90611884565b6104de6118e7565b610464565b878760118c634e487b7160e01b835252fd5b949b959250508261050b93975061021a916115f6565b9160001981146104e3570196610464565b5084869280610529578380f35b7fd5e85995d9bdcdafb72531ec59faef29167c16780583ca2068587fe896170c4792610554826117eb565b51908152a18180808380f35b50801515610471565b9091508281813d8311610596575b610581818361157e565b8101031261059157519038610436565b600080fd5b503d610577565b86513d86823e3d90fd5b8460649185519162461bcd60e51b8352820152601760248201527f4f6e6c7920666163746f72792063616e206e6f746966790000000000000000006044820152fd5b5034610249578060031936011261024957506001600160a01b0360209254169051908152f35b50903461026b578160031936011261026b576020906009549051908152f35b50903461026b578160031936011261026b57602090600a549051908152f35b50903461026b578160031936011261026b576020906001600160a01b03600654169051908152f35b50919034610368576020366003190112610368578135906001600160a01b0380831680930361070a576006541633036106c8575073ffffffffffffffffffffffffffffffffffffffff1982541617905580f35b5162461bcd60e51b8152602081840152601760248201527f43616c6c6572206973206e6f7420746865206f776e65720000000000000000006044820152606490fd5b8480fd5b50903461026b578160031936011261026b576020906007549051908152f35b50913461036857602036600319011261036857356001600160a01b03811680910361036857828291602094526001845220549051908152f35b5091346103685782600319360112610368576001600160a01b03806005541683519182916370a0823160e01b8352308584015282602460209586935afa91821561095957869261092a575b507f264b03945932e4bc51e688f9f27dbb1f5faba7660d11abdbf7e7f41ed87928ba838651848152a1600b546107e5578580f35b6107ed611520565b50818154169260018201937faeadbfc8febf10d119916528ecb37175473490279c943963f050330e4c90e959608086549260028601548b51918d83528a830152848c8301526060820152a18082106108e3575050549154610850929091166116e9565b600b549283156108a2575050600019820191821161088f575061087561087e916114cf565b506104d0611520565b6108866118e7565b38808080808580f35b826011602492634e487b7160e01b835252fd5b60649350519162461bcd60e51b8352820152601460248201527f496e646578206f7574206f6620626f756e64732e0000000000000000000000006044820152fd5b915091507fd5e85995d9bdcdafb72531ec59faef29167c16780583ca2068587fe896170c479593945061091692506115f6565b90610920826117eb565b51908152a1610886565b9091508281813d8311610952575b610942818361157e565b81010312610591575190386107b1565b503d610938565b85513d88823e3d90fd5b50903461026b578160031936011261026b576020905162093a808152f35b50913461036857602036600319011261036857356001600160a01b03811680910361036857828291602094526002845220549051908152f35b50903461026b578160031936011261026b576020906001600160a01b03600554169051908152f35b50903461026b578160031936011261026b57602090600b549051908152f35b5091908260031936011261036857610a176116ae565b3415610d4d57610a25611639565b6001600160a01b0391838360055416803b1561026b57818391855192838092630d0e30db60e41b825234905af18015610d4357610d2f575b505060463402348104604603610d1c576064900492610a7c84346115f6565b50806005541681835416845180927fa9059cbb000000000000000000000000000000000000000000000000000000008252818981610ad660209b8c978b8401602090939291936001600160a01b0360408201951681520152565b03925af1908115610d12578691610cd8575b5015610c96578490338252600185528382205480610b83575b82867febedb8b3c678666e7f36970bc8f57abf6d8fa2e828c0da91ea5b75bf68ed101a8733845260018352808420610b3a3482546115a0565b9055610b48346007546115a0565b6007553384526001835264e8d4a51000610b6882862054600954906115c3565b04338552600284528185205551913483523392a26001815580f35b64e8d4a51000610b99610bab92600954906115c3565b043384526002875285842054906115f6565b928315918215610bbc575b50610b01565b6005541690813b15610c925784602485928389519586948593632e1a7d4d60e01b85528401525af18015610c8857908391610c74575b50839091610c6a575b8280929181923390f115610c6057907febedb8b3c678666e7f36970bc8f57abf6d8fa2e828c0da91ea5b75bf68ed101a9181519081527f106f923f993c2149d49b4255ff723acafa1f2d94393f561d3eda32ae348f7241843392a29083388080610bb6565b81513d85823e3d90fd5b6108fc9150610bfb565b610c7d90611554565b61026b578138610bf2565b85513d85823e3d90fd5b8380fd5b5082606492519162461bcd60e51b8352820152601e60248201527f4661696c656420746f2073656e64205745544820746f20666163746f727900006044820152fd5b90508481813d8311610d0b575b610cef818361157e565b81010312610d0757518015158103610d075738610ae8565b8580fd5b503d610ce5565b84513d88823e3d90fd5b602485601184634e487b7160e01b835252fd5b610d3890611554565b610c92578338610a5d565b84513d84823e3d90fd5b906020606492519162461bcd60e51b8352820152601260248201527f43616e6e6f74207374616b6520302045544800000000000000000000000000006044820152fd5b50919034610368578260031936011261036857610dab6116ae565b610db3611639565b33835260209060018252808420548015610fb957610dda64e8d4a5100091600954906115c3565b049233855260028352610df082862054856115f6565b938415610f7757600854858110610f355785610e0b916115f6565b6008553386526002845282862055846001600160a01b0360055416803b1561026b578180916024865180948193632e1a7d4d60e01b83528b898401525af18015610d4357610f21575b5080808087335af13d15610f1c573d67ffffffffffffffff8111610f0957835190610e88601f8201601f191687018361157e565b815286853d92013e5b15610ec85750907f106f923f993c2149d49b4255ff723acafa1f2d94393f561d3eda32ae348f724191519283523392a26001815580f35b82606492519162461bcd60e51b8352820152601260248201527f4661696c656420746f2073656e642045544800000000000000000000000000006044820152fd5b602487604185634e487b7160e01b835252fd5b610e91565b610f2a90611554565b61070a578438610e54565b6064838686519162461bcd60e51b8352820152601a60248201527f4e6f7420656e6f756768207265776172647320696e20706f6f6c0000000000006044820152fd5b5082606492519162461bcd60e51b8352820152601360248201527f4e6f207265776172647320746f20636c61696d000000000000000000000000006044820152fd5b5060849350519162461bcd60e51b8352820152602560248201527f4e6f207374616b656420616d6f756e7420746f20636c61696d2072657761726460448201527f7320666f720000000000000000000000000000000000000000000000000000006064820152fd5b50903461026b5760209081600319360112610368578335916110416116ae565b33845260018152828285205410611363576001600160a01b038060055416835183816024816370a0823160e01b95868252308d8301525afa908115611324579086918891611332575b50106110df575050829394506110c17f57e41df54512c76148b5ba9b643d149752b0d35e493b969bd017d0a3fe5228cf93336116e9565b33855260038152818520549082519485528401523392a26001815580f35b81875416803b1561132e5784517fbe5ef17600000000000000000000000000000000000000000000000000000000815230818a01908152602081018890529091889183919082908490829060400103925af1801561132457908791611310575b50508282600554169160248651809481938252308c8301525afa908115610d125790859187916112df575b50106111a55750829394506111a07f57e41df54512c76148b5ba9b643d149752b0d35e493b969bd017d0a3fe5228cf93336116e9565b6110c1565b338552600382528285206111ba8582546115a0565b90558251906060820182811067ffffffffffffffff8211176112ca57845233825282820185815284830191428352600b54680100000000000000008110156112b75780600161120c9201600b556114cf565b9490946112a5577f57e41df54512c76148b5ba9b643d149752b0d35e493b969bd017d0a3fe5228cf97989950906002939291511673ffffffffffffffffffffffffffffffffffffffff1985541617845551600184015551910155815184815242828201527ff24ceb8901eaecb633a833076ec1a09f317122e81bd3bc200d811e0c9bb08146833392a26111a06112a0611603565b6117eb565b602489808c634e487b7160e01b825252fd5b60248960418c634e487b7160e01b835252fd5b604188634e487b7160e01b6000525260246000fd5b809250848092503d8311611309575b6112f8818361157e565b81010312610591578490513861116a565b503d6112ee565b61131990611554565b610d0757853861113f565b85513d89823e3d90fd5b8680fd5b809250858092503d831161135c575b61134b818361157e565b81010312610591578590513861108a565b503d611341565b8490606492519162461bcd60e51b8352820152601b60248201527f496e73756666696369656e74207374616b65642062616c616e636500000000006044820152fd5b50918260031936011261036857341561147157826001600160a01b0360055416803b1561026b57835192838092630d0e30db60e41b825234905af180156114655761142f575b5060207ff8fad42e780bfa5459be3fe691e8ba1aec70342250112139c5771c3fd155f3129161141c346008546115a0565b600855611427611639565b51348152a180f35b7ff8fad42e780bfa5459be3fe691e8ba1aec70342250112139c5771c3fd155f312919261145d602092611554565b9291506113eb565b505051903d90823e3d90fd5b6020606492519162461bcd60e51b8352820152601160248201527f4e6f207265776172647320746f206164640000000000000000000000000000006044820152fd5b90503461026b578160031936011261026b576020906007548152f35b600b5481101561150a57600390600b600052027f0175b7a638427703f0dbe7bb9bbf987a2551717b34e79f33b5b1008d1fa01db90190600090565b634e487b7160e01b600052603260045260246000fd5b600b541561150a57600b6000527f0175b7a638427703f0dbe7bb9bbf987a2551717b34e79f33b5b1008d1fa01db990600090565b67ffffffffffffffff811161156857604052565b634e487b7160e01b600052604160045260246000fd5b90601f8019910116810190811067ffffffffffffffff82111761156857604052565b919082018092116115ad57565b634e487b7160e01b600052601160045260246000fd5b818102929181159184041417156115ad57565b81156115e0570490565b634e487b7160e01b600052601260045260246000fd5b919082039182116115ad57565b600080600b545b80821061161657505090565b909161163160019182611628866114cf565b500154906115a0565b92019061160a565b600a544211156116ac5760075480156116a55762093a8061165f6101d5600a54426115f6565b0480158015611672575b50505042600a55565b64e8d4a510008083029283041417156115ad5761169a91611692916115d6565b6009546115a0565b600955388080611669565b5042600a55565b565b6002600054146116bf576002600055565b60046040517f3ee5aeb5000000000000000000000000000000000000000000000000000000008152fd5b90600554916000926001600160a01b0380911691823b1561070a5784806040946024865180948193632e1a7d4d60e01b83528a60048401525af18015610d12576117d8575b5016928083858282156117cf575b839283928392f1156117c4579160209183857f85082129d87b2fe11527cb1b3b7a520aeb5aa6913f88a3d8757fe40d1db02fdd9552600184528181206117838482546115f6565b9055611791836007546115f6565b600755858152600184528164e8d4a510006117b282842054600954906115c3565b049187815260028652205551908152a2565b9051903d90823e3d90fd5b506108fc61173c565b6117e490959195611554565b933861172e565b7fac0a36a73050720c3fa0d6988cca2309ef4472b3b09fafa8e713f434ff33a05b6020604051838152a16001600160a01b036004541690813b15610591576000916024839260405194859384927f8c3a65a200000000000000000000000000000000000000000000000000000000845260048401525af180156118785761186f5750565b6116ac90611554565b6040513d6000823e3d90fd5b91906118d157808203611895575050565b6002816001600160a01b038293541673ffffffffffffffffffffffffffffffffffffffff19855416178455600181015460018501550154910155565b634e487b7160e01b600052600060045260246000fd5b600b54801561191657600019016118fd816114cf565b6118d15760028160008093558260018201550155600b55565b634e487b7160e01b600052603160045260246000fdfea2646970667358221220883be3de4539f9314cc9afaafeb75bdaccc277ee8ed4696f6692559ac7a3351064736f6c63430008180033",
  "linkReferences": {},
  "deployedLinkReferences": {}
}