{
  "_format": "hh-sol-artifact-1",
  "contractName": "SimpleStaking",
  "sourceName": "contracts/Staking.sol",
  "abi": [
    {
      "inputs": [
        {
          "internalType": "address",
          "name": "_weth",
          "type": "address"
        }
      ],
      "stateMutability": "nonpayable",
      "type": "constructor"
    },
    {
      "inputs": [],
      "name": "ReentrancyGuardReentrantCall",
      "type": "error"
    },
    {
      "anonymous": false,
      "inputs": [
        {
          "indexed": false,
          "internalType": "uint256",
          "name": "amount",
          "type": "uint256"
        },
        {
          "indexed": false,
          "internalType": "uint256",
          "name": "timestamp",
          "type": "uint256"
        }
      ],
      "name": "FundsReceived",
      "type": "event"
    },
    {
      "anonymous": false,
      "inputs": [
        {
          "indexed": true,
          "internalType": "address",
          "name": "user",
          "type": "address"
        },
        {
          "indexed": false,
          "internalType": "uint256",
          "name": "amount",
          "type": "uint256"
        }
      ],
      "name": "RewardClaimed",
      "type": "event"
    },
    {
      "anonymous": false,
      "inputs": [
        {
          "indexed": false,
          "internalType": "uint256",
          "name": "amount",
          "type": "uint256"
        }
      ],
      "name": "RewardsAdded",
      "type": "event"
    },
    {
      "anonymous": false,
      "inputs": [
        {
          "indexed": true,
          "internalType": "address",
          "name": "user",
          "type": "address"
        },
        {
          "indexed": false,
          "internalType": "uint256",
          "name": "amount",
          "type": "uint256"
        }
      ],
      "name": "Stake",
      "type": "event"
    },
    {
      "anonymous": false,
      "inputs": [
        {
          "indexed": true,
          "internalType": "address",
          "name": "user",
          "type": "address"
        },
        {
          "indexed": false,
          "internalType": "uint256",
          "name": "amount",
          "type": "uint256"
        }
      ],
      "name": "Unstake",
      "type": "event"
    },
    {
      "anonymous": false,
      "inputs": [
        {
          "indexed": true,
          "internalType": "address",
          "name": "user",
          "type": "address"
        },
        {
          "indexed": false,
          "internalType": "uint256",
          "name": "amount",
          "type": "uint256"
        },
        {
          "indexed": false,
          "internalType": "uint256",
          "name": "pendingAmount",
          "type": "uint256"
        }
      ],
      "name": "UnstakeProcessed",
      "type": "event"
    },
    {
      "anonymous": false,
      "inputs": [
        {
          "indexed": true,
          "internalType": "address",
          "name": "user",
          "type": "address"
        },
        {
          "indexed": false,
          "internalType": "uint256",
          "name": "amount",
          "type": "uint256"
        },
        {
          "indexed": false,
          "internalType": "uint256",
          "name": "timestamp",
          "type": "uint256"
        }
      ],
      "name": "UnstakeQueued",
      "type": "event"
    },
    {
      "anonymous": false,
      "inputs": [
        {
          "indexed": true,
          "internalType": "address",
          "name": "user",
          "type": "address"
        },
        {
          "indexed": false,
          "internalType": "uint256",
          "name": "amount",
          "type": "uint256"
        },
        {
          "indexed": false,
          "internalType": "uint256",
          "name": "pendingAmount",
          "type": "uint256"
        }
      ],
      "name": "UnstakeRequested",
      "type": "event"
    },
    {
      "stateMutability": "payable",
      "type": "fallback"
    },
    {
      "inputs": [],
      "name": "REWARD_INTERVAL",
      "outputs": [
        {
          "internalType": "uint256",
          "name": "",
          "type": "uint256"
        }
      ],
      "stateMutability": "view",
      "type": "function"
    },
    {
      "inputs": [],
      "name": "accRewardPerShare",
      "outputs": [
        {
          "internalType": "uint256",
          "name": "",
          "type": "uint256"
        }
      ],
      "stateMutability": "view",
      "type": "function"
    },
    {
      "inputs": [],
      "name": "addRewards",
      "outputs": [],
      "stateMutability": "payable",
      "type": "function"
    },
    {
      "inputs": [],
      "name": "factoryAddress",
      "outputs": [
        {
          "internalType": "address",
          "name": "",
          "type": "address"
        }
      ],
      "stateMutability": "view",
      "type": "function"
    },
    {
      "inputs": [
        {
          "internalType": "address",
          "name": "staker",
          "type": "address"
        }
      ],
      "name": "getStake",
      "outputs": [
        {
          "internalType": "uint256",
          "name": "",
          "type": "uint256"
        }
      ],
      "stateMutability": "view",
      "type": "function"
    },
    {
      "inputs": [],
      "name": "getUnstakeQueueLength",
      "outputs": [
        {
          "internalType": "uint256",
          "name": "",
          "type": "uint256"
        }
      ],
      "stateMutability": "view",
      "type": "function"
    },
    {
      "inputs": [
        {
          "internalType": "uint256",
          "name": "index",
          "type": "uint256"
        }
      ],
      "name": "getUnstakeRequest",
      "outputs": [
        {
          "internalType": "address",
          "name": "user",
          "type": "address"
        },
        {
          "internalType": "uint256",
          "name": "amount",
          "type": "uint256"
        },
        {
          "internalType": "uint256",
          "name": "timestamp",
          "type": "uint256"
        }
      ],
      "stateMutability": "view",
      "type": "function"
    },
    {
      "inputs": [],
      "name": "handleReceivedWETH",
      "outputs": [],
      "stateMutability": "nonpayable",
      "type": "function"
    },
    {
      "inputs": [],
      "name": "lastRewardTime",
      "outputs": [
        {
          "internalType": "uint256",
          "name": "",
          "type": "uint256"
        }
      ],
      "stateMutability": "view",
      "type": "function"
    },
    {
      "inputs": [
        {
          "internalType": "uint256",
          "name": "amount",
          "type": "uint256"
        }
      ],
      "name": "notifyFundsReceived",
      "outputs": [],
      "stateMutability": "nonpayable",
      "type": "function"
    },
    {
      "inputs": [],
      "name": "owner",
      "outputs": [
        {
          "internalType": "address",
          "name": "",
          "type": "address"
        }
      ],
      "stateMutability": "view",
      "type": "function"
    },
    {
      "inputs": [
        {
          "internalType": "address",
          "name": "_user",
          "type": "address"
        }
      ],
      "name": "pendingReward",
      "outputs": [
        {
          "internalType": "uint256",
          "name": "",
          "type": "uint256"
        }
      ],
      "stateMutability": "view",
      "type": "function"
    },
    {
      "inputs": [
        {
          "internalType": "address",
          "name": "",
          "type": "address"
        }
      ],
      "name": "pendingUnstakes",
      "outputs": [
        {
          "internalType": "uint256",
          "name": "",
          "type": "uint256"
        }
      ],
      "stateMutability": "view",
      "type": "function"
    },
    {
      "inputs": [
        {
          "internalType": "uint256",
          "name": "amount",
          "type": "uint256"
        }
      ],
      "name": "requestUnstake",
      "outputs": [],
      "stateMutability": "nonpayable",
      "type": "function"
    },
    {
      "inputs": [
        {
          "internalType": "address",
          "name": "",
          "type": "address"
        }
      ],
      "name": "rewardDebt",
      "outputs": [
        {
          "internalType": "uint256",
          "name": "",
          "type": "uint256"
        }
      ],
      "stateMutability": "view",
      "type": "function"
    },
    {
      "inputs": [
        {
          "internalType": "address",
          "name": "_factoryAddress",
          "type": "address"
        }
      ],
      "name": "setFactoryAddress",
      "outputs": [],
      "stateMutability": "nonpayable",
      "type": "function"
    },
    {
      "inputs": [],
      "name": "stake",
      "outputs": [],
      "stateMutability": "payable",
      "type": "function"
    },
    {
      "inputs": [
        {
          "internalType": "address",
          "name": "",
          "type": "address"
        }
      ],
      "name": "stakes",
      "outputs": [
        {
          "internalType": "uint256",
          "name": "",
          "type": "uint256"
        }
      ],
      "stateMutability": "view",
      "type": "function"
    },
    {
      "inputs": [],
      "name": "totalRewards",
      "outputs": [
        {
          "internalType": "uint256",
          "name": "",
          "type": "uint256"
        }
      ],
      "stateMutability": "view",
      "type": "function"
    },
    {
      "inputs": [],
      "name": "totalStaked",
      "outputs": [
        {
          "internalType": "uint256",
          "name": "",
          "type": "uint256"
        }
      ],
      "stateMutability": "view",
      "type": "function"
    },
    {
      "inputs": [
        {
          "internalType": "uint256",
          "name": "amount",
          "type": "uint256"
        }
      ],
      "name": "unstake",
      "outputs": [],
      "stateMutability": "nonpayable",
      "type": "function"
    },
    {
      "inputs": [
        {
          "internalType": "uint256",
          "name": "",
          "type": "uint256"
        }
      ],
      "name": "unstakeQueue",
      "outputs": [
        {
          "internalType": "address",
          "name": "user",
          "type": "address"
        },
        {
          "internalType": "uint256",
          "name": "amount",
          "type": "uint256"
        },
        {
          "internalType": "uint256",
          "name": "timestamp",
          "type": "uint256"
        }
      ],
      "stateMutability": "view",
      "type": "function"
    },
    {
      "inputs": [],
      "name": "weth",
      "outputs": [
        {
          "internalType": "address",
          "name": "",
          "type": "address"
        }
      ],
      "stateMutability": "view",
      "type": "function"
    },
    {
      "stateMutability": "payable",
      "type": "receive"
    }
  ],
  "bytecode": "0x60803461008357601f61173138819003918201601f19168301916001600160401b038311848410176100885780849260209460405283398101031261008357516001600160a01b0381169081900361008357600160005560018060a01b03193381600654161760065542600a556005541617600555604051611692908161009f8239f35b600080fd5b634e487b7160e01b600052604160045260246000fdfe608060408181526004918236101561001f575b505050361561001d57005b005b600090813560e01c9081630e15561a14610e835750806314d6aed014610dea57806316934fc4146106355780632309572114610c8e5780632e17de7814610a9f5780633a4b66f11461070c5780633bac9c99146106ed5780633fc8cef3146106c55780635873eb9b1461068c5780635dbdda691461066e5780637a76646014610635578063817b1cd21461061657806383c17c551461057d5780638da5cb5b146105555780639231cf7414610536578063939d623714610517578063966dae0e146104f15780639b5ceb3514610458578063afa580701461042b578063c4ebe088146102fe578063d6b6b23f146102c1578063ddb59e13146102205763f40f0f5203610012573461021d57602036600319011261021d578235906001600160a01b03821680920361021d57600954600a5480421180610212575b610198575b60208561019186828764e8d4a51000610181898584526001895284842054611028565b0492815260028652205490610f5e565b9051908152f35b6101b26101a9620151809242610f5e565b60085490611028565b0464e8d4a51000908181029181830414901517156101ff57602095509164e8d4a510006101816101f487946101ee61019198976007549061103b565b90610ef0565b93505050919261015e565b602483601188634e487b7160e01b835252fd5b506007541515610159565b80fd5b5082903461021d57602036600319011261021d5750803590600b5482101561027e575061024c90610e9f565b508054600182015460029092015492516001600160a01b03909116815260208101919091526040810191909152606090f35b606490602084519162461bcd60e51b8352820152601360248201527f496e646578206f7574206f6620626f756e6473000000000000000000000000006044820152fd5b5091346102fa5760203660031901126102fa57356001600160a01b0381168091036102fa57828291602094526003845220549051908152f35b8280fd5b509190346102fa57826003193601126102fa576001600160a01b038060055416928251906370a0823160e01b8252309082015260208160248183975afa9081156104215785916103ea575b50845b600b548110806103e1575b156103dd578261036682610e9f565b506001810154801515806103c6575b61038b575b5050506103869061105b565b61034c565b9293610386936103b193926103ac918084106103bc579384915b5416611121565b610f5e565b91905082388061037a565b50829384916103a5565b508282541689526003885280878a20541015610375565b8580f35b50811515610357565b90506020813d602011610419575b8161040560209383611006565b81010312610414575138610349565b600080fd5b3d91506103f8565b83513d87823e3d90fd5b508234610454576020366003190112610454573590600b5482101561021d575061024c90610e9f565b5080fd5b5091346102fa5760203660031901126102fa576001600160a01b0381541633036104af57907f063d07ee72a7483b8e07ca09054bb686775c5c030f945dde3823a5257a0a93eb91815190358152426020820152a180f35b6020606492519162461bcd60e51b8352820152601760248201527f4f6e6c7920666163746f72792063616e206e6f746966790000000000000000006044820152fd5b503461021d578060031936011261021d57506001600160a01b0360209254169051908152f35b5090346104545781600319360112610454576020906009549051908152f35b509034610454578160031936011261045457602090600a549051908152f35b5090346104545781600319360112610454576020906001600160a01b03600654169051908152f35b509190346102fa5760203660031901126102fa578135906001600160a01b03808316809303610612576006541633036105d0575073ffffffffffffffffffffffffffffffffffffffff1982541617905580f35b5162461bcd60e51b8152602081840152601760248201527f43616c6c6572206973206e6f7420746865206f776e65720000000000000000006044820152606490fd5b8480fd5b5090346104545781600319360112610454576020906007549051908152f35b5091346102fa5760203660031901126102fa57356001600160a01b0381168091036102fa57828291602094526001845220549051908152f35b50903461045457816003193601126104545760209051620151808152f35b5091346102fa5760203660031901126102fa57356001600160a01b0381168091036102fa57828291602094526002845220549051908152f35b5090346104545781600319360112610454576020906001600160a01b03600554169051908152f35b509034610454578160031936011261045457602090600b549051908152f35b509081600319360112610454576107216110e6565b3415610a5d5761072f61106a565b6001600160a01b03928360055416803b1561099f578382918451928380927fd0e30db000000000000000000000000000000000000000000000000000000000825234905af18015610a5057908491610a3c575b50506046340293348504604603610a295760648495046107a28134610f5e565b50816005541682845416918551927fa9059cbb0000000000000000000000000000000000000000000000000000000084528584015260248301528160448160209889945af1908115610a1f5786916109e5575b50156109a3578490338252600185528382205480610890575b82867febedb8b3c678666e7f36970bc8f57abf6d8fa2e828c0da91ea5b75bf68ed101a8733845260018352808420610847348254610ef0565b905561085534600754610ef0565b6007553384526001835264e8d4a510006108758286205460095490611028565b04338552600284528185205551913483523392a26001815580f35b64e8d4a510006108a66108b89260095490611028565b04338452600287528584205490610f5e565b9283159182156108c9575b5061080e565b6005541690813b1561099f5784602485928389519586948593632e1a7d4d60e01b85528401525af1801561099557908391610981575b50839091610977575b8280929181923390f11561096d57907febedb8b3c678666e7f36970bc8f57abf6d8fa2e828c0da91ea5b75bf68ed101a9181519081527f106f923f993c2149d49b4255ff723acafa1f2d94393f561d3eda32ae348f7241843392a290833880806108c3565b81513d85823e3d90fd5b6108fc9150610908565b61098a90610fdc565b6104545781386108ff565b85513d85823e3d90fd5b8380fd5b5082606492519162461bcd60e51b8352820152601e60248201527f4661696c656420746f2073656e64205745544820746f20666163746f727900006044820152fd5b90508481813d8311610a18575b6109fc8183611006565b81010312610a1457518015158103610a1457386107f5565b8580fd5b503d6109f2565b84513d88823e3d90fd5b602484601184634e487b7160e01b835252fd5b610a4590610fdc565b6102fa578238610782565b50505051903d90823e3d90fd5b5162461bcd60e51b8152602081840152601260248201527f43616e6e6f74207374616b6520302045544800000000000000000000000000006044820152606490fd5b5091346102fa5760208060031936011261099f57813591610abe6110e6565b33855260018252610ad483858720541015610f13565b33855260018252610afb83610af486882054600386528789205490610f5e565b1015610f6b565b610b0361106a565b846001600160a01b0360248482600554168851928380926370a0823160e01b825230898301525afa8015610c845786918491610c53575b5010610c3f576005541691823b1561045457602485918388519586948593632e1a7d4d60e01b85528401525af18015610c3557610c22575b508380838015610c18575b8280929181923390f115610c0c577f85082129d87b2fe11527cb1b3b7a520aeb5aa6913f88a3d8757fe40d1db02fdd919233855260018252808520610bc3858254610f5e565b9055610bd184600754610f5e565b6007553385526001825264e8d4a51000610bf18287205460095490611028565b043386526002835281862055519283523392a25b6001815580f35b505051903d90823e3d90fd5b6108fc9150610b7d565b610c2e90949194610fdc565b9238610b72565b84513d87823e3d90fd5b50505050610c4e91503361150b565b610c05565b809250868092503d8311610c7d575b610c6c8183611006565b810103126102fa5785905138610b3a565b503d610c62565b87513d85823e3d90fd5b5091346102fa576020918260031936011261099f57813592610cae6110e6565b33855260018152610cc484838720541015610f13565b33855260018152610ce484610af484882054600385528589205490610f5e565b33855260038152818520610cf9858254610ef0565b9055806001600160a01b03600554169360248451809681936370a0823160e01b835230908301525afa8015610de05784908690610d91575b7f57e41df54512c76148b5ba9b643d149752b0d35e493b969bd017d0a3fe5228cf94501015610d8257610d64843361150b565b33855260038152818520549082519485528401523392a26001815580f35b610d8c8433611121565b610d64565b50508083813d8311610dd9575b610da88183611006565b8101031261061257837f57e41df54512c76148b5ba9b643d149752b0d35e493b969bd017d0a3fe5228cf9351610d31565b503d610d9e565b82513d87823e3d90fd5b5091826003193601126102fa573415610e41575060207ff8fad42e780bfa5459be3fe691e8ba1aec70342250112139c5771c3fd155f31291610e2a61106a565b610e3634600854610ef0565b60085551348152a180f35b6020606492519162461bcd60e51b8352820152601160248201527f4e6f207265776172647320746f206164640000000000000000000000000000006044820152fd5b9050346104545781600319360112610454576020906008548152f35b600b54811015610eda57600390600b600052027f0175b7a638427703f0dbe7bb9bbf987a2551717b34e79f33b5b1008d1fa01db90190600090565b634e487b7160e01b600052603260045260246000fd5b91908201809211610efd57565b634e487b7160e01b600052601160045260246000fd5b15610f1a57565b606460405162461bcd60e51b815260206004820152601b60248201527f496e73756666696369656e74207374616b65642062616c616e636500000000006044820152fd5b91908203918211610efd57565b15610f7257565b608460405162461bcd60e51b815260206004820152602860248201527f556e7374616b6520616d6f756e74206578636565647320617661696c61626c6560448201527f2062616c616e63650000000000000000000000000000000000000000000000006064820152fd5b67ffffffffffffffff8111610ff057604052565b634e487b7160e01b600052604160045260246000fd5b90601f8019910116810190811067ffffffffffffffff821117610ff057604052565b81810292918115918404141715610efd57565b8115611045570490565b634e487b7160e01b600052601260045260246000fd5b6000198114610efd5760010190565b600a544211156110e45760075480156110dd57611089600a5442610f5e565b6110a56201518061109d6008548094611028565b048092610f5e565b60085564e8d4a5100090818102918183041490151715610efd576110d4916110cc9161103b565b600954610ef0565b60095542600a55565b5042600a55565b565b6002600054146110f7576002600055565b60046040517f3ee5aeb5000000000000000000000000000000000000000000000000000000008152fd5b9190916001600160a01b03809116926000918483526003602091600383526040928484872054106114a2578493865b600b8054821080611499575b1561143e578a8561116c84610e9f565b5054161480611428575b61118a575b506111859061105b565b611150565b9061119a819b9a9998979b610e9f565b506001908101548c1061142157806111b183610e9f565b500154905b866005541691823b1561141d57908a92918651632e1a7d4d60e01b8152848160049584878301528160249889925af18015611413578f8e848194928294938394611404575b508282156113fb575bf1156113f1579c7f8afe5678fa641d4c7b1e0e9f5c781e370d85a57d57e7aca780178762158d6243819f8d9e9f898d9e9f611259838395896112458e610e9f565b5001611252838254610f5e565b9055610f5e565b9f8682528d52205482519182528b820152a28061127585610e9f565b50015415611287575b5050509061117b565b84548410156113b05783815b611312575b50845494851561130057600019958601916112b283610e9f565b9190916112ef57818f6002928180955582015501555582156112de57505090611185910138808061127e565b60118b91634e487b7160e01b835252fd5b858f8087634e487b7160e01b825252fd5b838d603185634e487b7160e01b835252fd5b85546000198101908111611399578110156113ab578181018082116113995761133a90610e9f565b5061134482610e9f565b9190916112ef579181838594859403611361575b50500190611293565b8c81541673ffffffffffffffffffffffffffffffffffffffff1983541617825583810154848301556002809101549101553880611358565b848e601186634e487b7160e01b835252fd5b611298565b5060146064928787519362461bcd60e51b85528401528201527f496e646578206f7574206f6620626f756e64732e0000000000000000000000006044820152fd5b86513d8d823e3d90fd5b506108fc611204565b61140d90610fdc565b386111fb565b88513d8f823e3d90fd5b8a80fd5b8b906111b6565b50600161143483610e9f565b5001541515611176565b5050959490925060029350611470915096959686855260038352858520611466828254610f5e565b9055600754610f5e565b6007558483526001815264e8d4a510006114908585205460095490611028565b04948352522055565b5086151561115c565b60849084519062461bcd60e51b82526004820152602a60248201527f52657175657374656420616d6f756e7420657863656564732070656e64696e6760448201527f20756e7374616b65732e000000000000000000000000000000000000000000006064820152fd5b60409081516060810181811067ffffffffffffffff821117610ff05783526001600160a01b03809216908181526020810190858252848101428152600b5468010000000000000000811015610ff05780600161156a9201600b55610e9f565b9390936116465785600293511673ffffffffffffffffffffffffffffffffffffffff19855416178455516001840155519101557ff24ceb8901eaecb633a833076ec1a09f317122e81bd3bc200d811e0c9bb08146838051868152426020820152a2604683029280840460461490151715610efd576004541691823b15610414576064602460009283855196879485937f8c3a65a20000000000000000000000000000000000000000000000000000000085520460048401525af190811561163c57506116335750565b6110e490610fdc565b513d6000823e3d90fd5b634e487b7160e01b600052600060045260246000fdfea2646970667358221220086a424f7182304ea7625718fa9de7dd05fc0770673529976446cc8c8845ecd564736f6c63430008180033",
  "linkReferences": {},
  "deployedLinkReferences": {}
}