{
  "_format": "hh-sol-artifact-1",
  "contractName": "SimpleStaking",
  "sourceName": "contracts/Staking.sol",
  "abi": [
    {
      "inputs": [
        {
          "internalType": "address",
          "name": "_weth",
          "type": "address"
        }
      ],
      "stateMutability": "nonpayable",
      "type": "constructor"
    },
    {
      "inputs": [],
      "name": "ReentrancyGuardReentrantCall",
      "type": "error"
    },
    {
      "anonymous": false,
      "inputs": [
        {
          "indexed": false,
          "internalType": "uint256",
          "name": "availableWETH",
          "type": "uint256"
        }
      ],
      "name": "DebugAvailableWETH",
      "type": "event"
    },
    {
      "anonymous": false,
      "inputs": [
        {
          "indexed": false,
          "internalType": "address",
          "name": "user",
          "type": "address"
        },
        {
          "indexed": false,
          "internalType": "uint256",
          "name": "amountToProcess",
          "type": "uint256"
        }
      ],
      "name": "DebugProcessAttempt",
      "type": "event"
    },
    {
      "anonymous": false,
      "inputs": [
        {
          "indexed": false,
          "internalType": "address",
          "name": "user",
          "type": "address"
        },
        {
          "indexed": false,
          "internalType": "uint256",
          "name": "amount",
          "type": "uint256"
        }
      ],
      "name": "FailedToProcessUnstake",
      "type": "event"
    },
    {
      "anonymous": false,
      "inputs": [
        {
          "indexed": false,
          "internalType": "uint256",
          "name": "amount",
          "type": "uint256"
        },
        {
          "indexed": false,
          "internalType": "uint256",
          "name": "timestamp",
          "type": "uint256"
        }
      ],
      "name": "FundsReceived",
      "type": "event"
    },
    {
      "anonymous": false,
      "inputs": [
        {
          "indexed": false,
          "internalType": "uint256",
          "name": "amount",
          "type": "uint256"
        }
      ],
      "name": "FundsRequested",
      "type": "event"
    },
    {
      "anonymous": false,
      "inputs": [
        {
          "indexed": false,
          "internalType": "address",
          "name": "user",
          "type": "address"
        },
        {
          "indexed": false,
          "internalType": "uint256",
          "name": "requestedAmount",
          "type": "uint256"
        },
        {
          "indexed": false,
          "internalType": "string",
          "name": "error",
          "type": "string"
        }
      ],
      "name": "ProcessUnstakeError",
      "type": "event"
    },
    {
      "anonymous": false,
      "inputs": [
        {
          "indexed": true,
          "internalType": "address",
          "name": "user",
          "type": "address"
        },
        {
          "indexed": false,
          "internalType": "uint256",
          "name": "amount",
          "type": "uint256"
        }
      ],
      "name": "RewardClaimed",
      "type": "event"
    },
    {
      "anonymous": false,
      "inputs": [
        {
          "indexed": false,
          "internalType": "uint256",
          "name": "amount",
          "type": "uint256"
        }
      ],
      "name": "RewardsAdded",
      "type": "event"
    },
    {
      "anonymous": false,
      "inputs": [
        {
          "indexed": true,
          "internalType": "address",
          "name": "user",
          "type": "address"
        },
        {
          "indexed": false,
          "internalType": "uint256",
          "name": "amount",
          "type": "uint256"
        }
      ],
      "name": "Stake",
      "type": "event"
    },
    {
      "anonymous": false,
      "inputs": [
        {
          "indexed": true,
          "internalType": "address",
          "name": "user",
          "type": "address"
        },
        {
          "indexed": false,
          "internalType": "uint256",
          "name": "amount",
          "type": "uint256"
        }
      ],
      "name": "Unstake",
      "type": "event"
    },
    {
      "anonymous": false,
      "inputs": [
        {
          "indexed": true,
          "internalType": "address",
          "name": "user",
          "type": "address"
        },
        {
          "indexed": false,
          "internalType": "uint256",
          "name": "amount",
          "type": "uint256"
        },
        {
          "indexed": false,
          "internalType": "uint256",
          "name": "pendingAmount",
          "type": "uint256"
        }
      ],
      "name": "UnstakeProcessed",
      "type": "event"
    },
    {
      "anonymous": false,
      "inputs": [
        {
          "indexed": true,
          "internalType": "address",
          "name": "user",
          "type": "address"
        },
        {
          "indexed": false,
          "internalType": "uint256",
          "name": "amount",
          "type": "uint256"
        },
        {
          "indexed": false,
          "internalType": "uint256",
          "name": "timestamp",
          "type": "uint256"
        }
      ],
      "name": "UnstakeQueued",
      "type": "event"
    },
    {
      "anonymous": false,
      "inputs": [
        {
          "indexed": false,
          "internalType": "uint256",
          "name": "index",
          "type": "uint256"
        },
        {
          "indexed": false,
          "internalType": "address",
          "name": "user",
          "type": "address"
        },
        {
          "indexed": false,
          "internalType": "uint256",
          "name": "amount",
          "type": "uint256"
        },
        {
          "indexed": false,
          "internalType": "uint256",
          "name": "pendingUnstakes",
          "type": "uint256"
        }
      ],
      "name": "UnstakeRequestDetails",
      "type": "event"
    },
    {
      "anonymous": false,
      "inputs": [
        {
          "indexed": true,
          "internalType": "address",
          "name": "user",
          "type": "address"
        },
        {
          "indexed": false,
          "internalType": "uint256",
          "name": "amount",
          "type": "uint256"
        },
        {
          "indexed": false,
          "internalType": "uint256",
          "name": "pendingAmount",
          "type": "uint256"
        }
      ],
      "name": "UnstakeRequested",
      "type": "event"
    },
    {
      "anonymous": false,
      "inputs": [
        {
          "indexed": false,
          "internalType": "address",
          "name": "user",
          "type": "address"
        },
        {
          "indexed": false,
          "internalType": "uint256",
          "name": "processedAmount",
          "type": "uint256"
        },
        {
          "indexed": false,
          "internalType": "uint256",
          "name": "remainingWETH",
          "type": "uint256"
        }
      ],
      "name": "WETHProcessed",
      "type": "event"
    },
    {
      "stateMutability": "payable",
      "type": "fallback"
    },
    {
      "inputs": [],
      "name": "REWARD_INTERVAL",
      "outputs": [
        {
          "internalType": "uint256",
          "name": "",
          "type": "uint256"
        }
      ],
      "stateMutability": "view",
      "type": "function"
    },
    {
      "inputs": [],
      "name": "accRewardPerShare",
      "outputs": [
        {
          "internalType": "uint256",
          "name": "",
          "type": "uint256"
        }
      ],
      "stateMutability": "view",
      "type": "function"
    },
    {
      "inputs": [],
      "name": "addRewards",
      "outputs": [],
      "stateMutability": "payable",
      "type": "function"
    },
    {
      "inputs": [],
      "name": "claimRewards",
      "outputs": [],
      "stateMutability": "nonpayable",
      "type": "function"
    },
    {
      "inputs": [],
      "name": "factoryAddress",
      "outputs": [
        {
          "internalType": "address",
          "name": "",
          "type": "address"
        }
      ],
      "stateMutability": "view",
      "type": "function"
    },
    {
      "inputs": [
        {
          "internalType": "address",
          "name": "staker",
          "type": "address"
        }
      ],
      "name": "getStake",
      "outputs": [
        {
          "internalType": "uint256",
          "name": "",
          "type": "uint256"
        }
      ],
      "stateMutability": "view",
      "type": "function"
    },
    {
      "inputs": [],
      "name": "getUnstakeQueueLength",
      "outputs": [
        {
          "internalType": "uint256",
          "name": "",
          "type": "uint256"
        }
      ],
      "stateMutability": "view",
      "type": "function"
    },
    {
      "inputs": [
        {
          "internalType": "uint256",
          "name": "index",
          "type": "uint256"
        }
      ],
      "name": "getUnstakeRequest",
      "outputs": [
        {
          "internalType": "address",
          "name": "user",
          "type": "address"
        },
        {
          "internalType": "uint256",
          "name": "amount",
          "type": "uint256"
        },
        {
          "internalType": "uint256",
          "name": "timestamp",
          "type": "uint256"
        }
      ],
      "stateMutability": "view",
      "type": "function"
    },
    {
      "inputs": [],
      "name": "handleReceivedWETHDELETE",
      "outputs": [],
      "stateMutability": "nonpayable",
      "type": "function"
    },
    {
      "inputs": [],
      "name": "lastRewardTime",
      "outputs": [
        {
          "internalType": "uint256",
          "name": "",
          "type": "uint256"
        }
      ],
      "stateMutability": "view",
      "type": "function"
    },
    {
      "inputs": [
        {
          "internalType": "uint256",
          "name": "amount",
          "type": "uint256"
        }
      ],
      "name": "notifyFundsReceived",
      "outputs": [],
      "stateMutability": "nonpayable",
      "type": "function"
    },
    {
      "inputs": [],
      "name": "owner",
      "outputs": [
        {
          "internalType": "address",
          "name": "",
          "type": "address"
        }
      ],
      "stateMutability": "view",
      "type": "function"
    },
    {
      "inputs": [
        {
          "internalType": "address",
          "name": "_user",
          "type": "address"
        }
      ],
      "name": "pendingReward",
      "outputs": [
        {
          "internalType": "uint256",
          "name": "",
          "type": "uint256"
        }
      ],
      "stateMutability": "view",
      "type": "function"
    },
    {
      "inputs": [
        {
          "internalType": "address",
          "name": "",
          "type": "address"
        }
      ],
      "name": "pendingUnstakes",
      "outputs": [
        {
          "internalType": "uint256",
          "name": "",
          "type": "uint256"
        }
      ],
      "stateMutability": "view",
      "type": "function"
    },
    {
      "inputs": [
        {
          "internalType": "uint256",
          "name": "amount",
          "type": "uint256"
        }
      ],
      "name": "requestUnstake",
      "outputs": [],
      "stateMutability": "nonpayable",
      "type": "function"
    },
    {
      "inputs": [
        {
          "internalType": "address",
          "name": "",
          "type": "address"
        }
      ],
      "name": "rewardDebt",
      "outputs": [
        {
          "internalType": "uint256",
          "name": "",
          "type": "uint256"
        }
      ],
      "stateMutability": "view",
      "type": "function"
    },
    {
      "inputs": [
        {
          "internalType": "address",
          "name": "_factoryAddress",
          "type": "address"
        }
      ],
      "name": "setFactoryAddress",
      "outputs": [],
      "stateMutability": "nonpayable",
      "type": "function"
    },
    {
      "inputs": [],
      "name": "stake",
      "outputs": [],
      "stateMutability": "payable",
      "type": "function"
    },
    {
      "inputs": [
        {
          "internalType": "address",
          "name": "",
          "type": "address"
        }
      ],
      "name": "stakes",
      "outputs": [
        {
          "internalType": "uint256",
          "name": "",
          "type": "uint256"
        }
      ],
      "stateMutability": "view",
      "type": "function"
    },
    {
      "inputs": [],
      "name": "totalRewards",
      "outputs": [
        {
          "internalType": "uint256",
          "name": "",
          "type": "uint256"
        }
      ],
      "stateMutability": "view",
      "type": "function"
    },
    {
      "inputs": [],
      "name": "totalStaked",
      "outputs": [
        {
          "internalType": "uint256",
          "name": "",
          "type": "uint256"
        }
      ],
      "stateMutability": "view",
      "type": "function"
    },
    {
      "inputs": [
        {
          "internalType": "uint256",
          "name": "amount",
          "type": "uint256"
        }
      ],
      "name": "unstake",
      "outputs": [],
      "stateMutability": "nonpayable",
      "type": "function"
    },
    {
      "inputs": [
        {
          "internalType": "uint256",
          "name": "",
          "type": "uint256"
        }
      ],
      "name": "unstakeQueue",
      "outputs": [
        {
          "internalType": "address",
          "name": "user",
          "type": "address"
        },
        {
          "internalType": "uint256",
          "name": "amount",
          "type": "uint256"
        },
        {
          "internalType": "uint256",
          "name": "timestamp",
          "type": "uint256"
        }
      ],
      "stateMutability": "view",
      "type": "function"
    },
    {
      "inputs": [],
      "name": "weth",
      "outputs": [
        {
          "internalType": "address",
          "name": "",
          "type": "address"
        }
      ],
      "stateMutability": "view",
      "type": "function"
    },
    {
      "stateMutability": "payable",
      "type": "receive"
    }
  ],
  "bytecode": "0x60803461008357601f61186038819003918201601f19168301916001600160401b038311848410176100885780849260209460405283398101031261008357516001600160a01b0381169081900361008357600160005560018060a01b03193381600654161760065542600a5560055416176005556040516117c1908161009f8239f35b600080fd5b634e487b7160e01b600052604160045260246000fdfe608060409080825260048036101561001f575b505050361561001d57005b005b600092833560e01c9283630e15561a14610f915750826314d6aed014610ef857826316934fc41461053b5782632309572114610d9c5782632e17de7814610c9e578263372500ab146109a45782633a4b66f1146106115782633bac9c99146105f25782633fc8cef3146105ca5782635873eb9b146105915782635dbdda69146105745782637a7664601461053b578263817b1cd21461051c57826383c17c55146104835782638da5cb5b1461045b5782639231cf741461043c578263939d62371461041d578263966dae0e146103f75782639b5ceb3514610359578263afa580701461032c578263d6b6b23f146102ef578263ddb59e131461024f578263f40f0f521461015757505063f67a25e814610139578080610012565b3461015457806003193601126101545761015161119d565b80f35b80fd5b8334610154576020366003190112610154578235906001600160a01b03821680920361015457600954600a5480421180610244575b6101cb575b6020856101c486828764e8d4a510006101b489858452600189528484205461116a565b04928152600286522054906110a0565b9051908152f35b6101e46101db61012c92426110a0565b6008549061116a565b0464e8d4a510009081810291818304149015171561023157602095509164e8d4a510006101b461022687946102206101c498976007549061117d565b90611032565b935050509192610191565b602483601188634e487b7160e01b835252fd5b50600754151561018c565b9083346101545760203660031901126101545750803590600b548210156102ac575061027a90610fad565b508054600182015460029092015492516001600160a01b03909116815260208101919091526040810191909152606090f35b606490602084519162461bcd60e51b8352820152601360248201527f496e646578206f7574206f6620626f756e6473000000000000000000000000006044820152fd5b91503461032857602036600319011261032857356001600160a01b03811680910361032857828291602094526003845220549051908152f35b8280fd5b838234610355576020366003190112610355573590600b54821015610154575061027a90610fad565b5080fd5b915034610328576020366003190112610328576001600160a01b0381541633036103b557907f063d07ee72a7483b8e07ca09054bb686775c5c030f945dde3823a5257a0a93eb91815190358152426020820152a161015161119d565b6020606492519162461bcd60e51b8352820152601760248201527f4f6e6c7920666163746f72792063616e206e6f746966790000000000000000006044820152fd5b8334610154578060031936011261015457506001600160a01b0360209254169051908152f35b8390346103555781600319360112610355576020906009549051908152f35b839034610355578160031936011261035557602090600a549051908152f35b8390346103555781600319360112610355576020906001600160a01b03600654169051908152f35b90915034610328576020366003190112610328578135906001600160a01b03808316809303610518576006541633036104d6575073ffffffffffffffffffffffffffffffffffffffff1982541617905580f35b5162461bcd60e51b8152602081840152601760248201527f43616c6c6572206973206e6f7420746865206f776e65720000000000000000006044820152606490fd5b8480fd5b8390346103555781600319360112610355576020906007549051908152f35b91503461032857602036600319011261032857356001600160a01b03811680910361032857828291602094526001845220549051908152f35b8390346103555781600319360112610355576020905161012c8152f35b91503461032857602036600319011261032857356001600160a01b03811680910361032857828291602094526002845220549051908152f35b8390346103555781600319360112610355576020906001600160a01b03600554169051908152f35b839034610355578160031936011261035557602090600b549051908152f35b839081600319360112610355576106266114e4565b341561096257610634611445565b6001600160a01b03928360055416803b156108a4578382918451928380927fd0e30db000000000000000000000000000000000000000000000000000000000825234905af1801561095557908491610941575b5050604634029334850460460361092e5760648495046106a781346110a0565b50816005541682845416918551927fa9059cbb0000000000000000000000000000000000000000000000000000000084528584015260248301528160448160209889945af19081156109245786916108ea575b50156108a8578490338252600185528382205480610795575b82867febedb8b3c678666e7f36970bc8f57abf6d8fa2e828c0da91ea5b75bf68ed101a873384526001835280842061074c348254611032565b905561075a34600754611032565b6007553384526001835264e8d4a5100061077a828620546009549061116a565b04338552600284528185205551913483523392a26001815580f35b64e8d4a510006107ab6107bd926009549061116a565b043384526002875285842054906110a0565b9283159182156107ce575b50610713565b6005541690813b156108a45784602485928389519586948593632e1a7d4d60e01b85528401525af1801561089a57908391610886575b5083909161087c575b8280929181923390f11561087257907febedb8b3c678666e7f36970bc8f57abf6d8fa2e828c0da91ea5b75bf68ed101a9181519081527f106f923f993c2149d49b4255ff723acafa1f2d94393f561d3eda32ae348f7241843392a290838580806107c8565b81513d85823e3d90fd5b6108fc915061080d565b61088f9061111e565b610355578187610804565b85513d85823e3d90fd5b8380fd5b5082606492519162461bcd60e51b8352820152601e60248201527f4661696c656420746f2073656e64205745544820746f20666163746f727900006044820152fd5b90508481813d831161091d575b6109018183611148565b810103126109195751801515810361091957866106fa565b8580fd5b503d6108f7565b84513d88823e3d90fd5b602484601184634e487b7160e01b835252fd5b61094a9061111e565b610328578285610687565b50505051903d90823e3d90fd5b5162461bcd60e51b8152602081840152601260248201527f43616e6e6f74207374616b6520302045544800000000000000000000000000006044820152606490fd5b909150346103285782600319360112610328576109bf6114e4565b33835260209060018252808420548015610c36576109ee64e8d4a51000916109e5611445565b6009549061116a565b049233855260028352610a0482862054856110a0565b938415610bf4576001600160a01b039060248583600554168651928380926370a0823160e01b825230898301525afa908115610bea579087918991610bb5575b5010610b73573387526002855283872055600554869116803b156103555781906024855180948193632e1a7d4d60e01b83528a888401525af18015610b6957610b56575b508480808087335af13d15610b51573d67ffffffffffffffff8111610b3e57835190610abd601f8201601f1916870183611148565b815286853d92013e5b15610afd5750907f106f923f993c2149d49b4255ff723acafa1f2d94393f561d3eda32ae348f724191519283523392a26001815580f35b82606492519162461bcd60e51b8352820152601260248201527f4661696c656420746f2073656e642045544800000000000000000000000000006044820152fd5b602487604185634e487b7160e01b835252fd5b610ac6565b610b629095919561111e565b9338610a88565b83513d88823e3d90fd5b6064838686519162461bcd60e51b8352820152601b60248201527f4e6f7420656e6f756768205745544820696e20636f6e747261637400000000006044820152fd5b809250878092503d8311610be3575b610bce8183611148565b81010312610bdf5786905138610a44565b8780fd5b503d610bc4565b85513d8a823e3d90fd5b5082606492519162461bcd60e51b8352820152601360248201527f4e6f207265776172647320746f20636c61696d000000000000000000000000006044820152fd5b5060849350519162461bcd60e51b8352820152602560248201527f4e6f207374616b656420616d6f756e7420746f20636c61696d2072657761726460448201527f7320666f720000000000000000000000000000000000000000000000000000006064820152fd5b915034610328576020806003193601126108a457813591610cbd6114e4565b33855260018252610cd383858720541015611055565b33855260018252610cfa83610cf3868820546003865287892054906110a0565b10156110ad565b610d02611445565b816001600160a01b03600554169160248651809481936370a0823160e01b835230908301525afa918215610d92578394508592610d61575b505010610d5257610d4b903361151f565b6001815580f35b610d5c9033611621565b610d4b565b8193508092503d8311610d8b575b610d798183611148565b81010312610328578190513880610d3a565b503d610d6f565b84513d87823e3d90fd5b91503461032857602091826003193601126108a457813592610dbc6114e4565b33855260018152610dd284838720541015611055565b33855260018152610df284610cf3848820546003855285892054906110a0565b33855260038152818520610e07858254611032565b9055806001600160a01b03600554169360248451809681936370a0823160e01b835230908301525afa8015610eee5784908690610e9f575b7f57e41df54512c76148b5ba9b643d149752b0d35e493b969bd017d0a3fe5228cf94501015610e9057610e728433611621565b33855260038152818520549082519485528401523392a26001815580f35b610e9a843361151f565b610e72565b50508083813d8311610ee7575b610eb68183611148565b8101031261051857837f57e41df54512c76148b5ba9b643d149752b0d35e493b969bd017d0a3fe5228cf9351610e3f565b503d610eac565b82513d87823e3d90fd5b915082600319360112610328573415610f4f575060207ff8fad42e780bfa5459be3fe691e8ba1aec70342250112139c5771c3fd155f31291610f3c34600854611032565b600855610f47611445565b51348152a180f35b6020606492519162461bcd60e51b8352820152601160248201527f4e6f207265776172647320746f206164640000000000000000000000000000006044820152fd5b8490346103555781600319360112610355576020906008548152f35b600b54811015610fe857600390600b600052027f0175b7a638427703f0dbe7bb9bbf987a2551717b34e79f33b5b1008d1fa01db90190600090565b634e487b7160e01b600052603260045260246000fd5b600b5415610fe857600b6000527f0175b7a638427703f0dbe7bb9bbf987a2551717b34e79f33b5b1008d1fa01db990600090565b9190820180921161103f57565b634e487b7160e01b600052601160045260246000fd5b1561105c57565b606460405162461bcd60e51b815260206004820152601b60248201527f496e73756666696369656e74207374616b65642062616c616e636500000000006044820152fd5b9190820391821161103f57565b156110b457565b608460405162461bcd60e51b815260206004820152602860248201527f556e7374616b6520616d6f756e74206578636565647320617661696c61626c6560448201527f2062616c616e63650000000000000000000000000000000000000000000000006064820152fd5b67ffffffffffffffff811161113257604052565b634e487b7160e01b600052604160045260246000fd5b90601f8019910116810190811067ffffffffffffffff82111761113257604052565b8181029291811591840414171561103f57565b8115611187570490565b634e487b7160e01b600052601260045260246000fd5b6001600160a01b03806005541660408051926370a0823160e01b845283806004943086830152602092839160249889915afa90811561143a5760009161140d575b507f264b03945932e4bc51e688f9f27dbb1f5faba7660d11abdbf7e7f41ed87928ba828551838152a1600b54611217575b505050505050565b61121f610ffe565b50838154169160018201927faeadbfc8febf10d119916528ecb37175473490279c943963f050330e4c90e959608085549260028601548a51916000835289830152848b8301526060820152a18082106113c657505054905461128291841661151f565b600b5492831561138557506000199280840191508111611371576112a590610fad565b506112ae610ffe565b92909261135e57818303611322575b505050600b54801561130e5701916112d483610fad565b9290926112fc57505060028160008093558260018201550155600b555b38808080808061120f565b600090634e487b7160e01b8252526000fd5b83603184634e487b7160e01b600052526000fd5b81600292918392541673ffffffffffffffffffffffffffffffffffffffff198554161784556001810154600185015501549101553880806112bd565b85600086634e487b7160e01b8252526000fd5b84601185634e487b7160e01b600052526000fd5b6014866064938793519362461bcd60e51b85528401528201527f496e646578206f7574206f6620626f756e64732e0000000000000000000000006044820152fd5b9250929550507fd5e85995d9bdcdafb72531ec59faef29167c16780583ca2068587fe896170c4795506113f992506110a0565b9061140382611717565b51908152a16112f1565b908282813d8311611433575b6114238183611148565b81010312610154575051386111de565b503d611419565b84513d6000823e3d90fd5b600a544211156114e25760075480156114db57611464600a54426110a0565b6008549081611477575b50505042600a55565b6114848261012c9261116a565b049081808211156114d257611498916110a0565b60085564e8d4a510009081810291818304149015171561103f576114c7916114bf9161117d565b600954611032565b60095538808061146e565b50506000611498565b5042600a55565b565b6002600054146114f5576002600055565b60046040517f3ee5aeb5000000000000000000000000000000000000000000000000000000008152fd5b90600554916000926001600160a01b0380911691823b156105185784806040946024865180948193632e1a7d4d60e01b83528a60048401525af180156109245761160e575b501692808385828215611605575b839283928392f1156115fa579160209183857f85082129d87b2fe11527cb1b3b7a520aeb5aa6913f88a3d8757fe40d1db02fdd9552600184528181206115b98482546110a0565b90556115c7836007546110a0565b600755858152600184528164e8d4a510006115e8828420546009549061116a565b049187815260028652205551908152a2565b9051903d90823e3d90fd5b506108fc611572565b61161a9095919561111e565b9338611564565b604051906060820182811067ffffffffffffffff821117611132576040526001600160a01b0380911691828152602081018481526040820190428252600b5468010000000000000000811015611132578060016116819201600b55610fad565b94909461170157600293511673ffffffffffffffffffffffffffffffffffffffff19855416178455516001840155519101557ff24ceb8901eaecb633a833076ec1a09f317122e81bd3bc200d811e0c9bb0814660408051848152426020820152a260468102908082046046149015171561103f5760646114e29104611717565b634e487b7160e01b600052600060045260246000fd5b6001600160a01b036004541690813b15611786576000916024839260405194859384927f8c3a65a200000000000000000000000000000000000000000000000000000000845260048401525af1801561177a576117715750565b6114e29061111e565b6040513d6000823e3d90fd5b600080fdfea264697066735822122095d0c3ba7afbf8862fd7737bed0b6ebaea403cbce18a908405d030b1590b597264736f6c63430008180033",
  "linkReferences": {},
  "deployedLinkReferences": {}
}