{
  "_format": "hh-sol-artifact-1",
  "contractName": "SimpleStaking",
  "sourceName": "contracts/Staking.sol",
  "abi": [
    {
      "stateMutability": "payable",
      "type": "fallback"
    },
    {
      "inputs": [
        {
          "internalType": "address",
          "name": "staker",
          "type": "address"
        }
      ],
      "name": "getStake",
      "outputs": [
        {
          "internalType": "uint256",
          "name": "",
          "type": "uint256"
        }
      ],
      "stateMutability": "view",
      "type": "function"
    },
    {
      "inputs": [],
      "name": "stake",
      "outputs": [],
      "stateMutability": "payable",
      "type": "function"
    },
    {
      "inputs": [
        {
          "internalType": "address",
          "name": "",
          "type": "address"
        }
      ],
      "name": "stakes",
      "outputs": [
        {
          "internalType": "uint256",
          "name": "",
          "type": "uint256"
        }
      ],
      "stateMutability": "view",
      "type": "function"
    },
    {
      "inputs": [],
      "name": "totalStaked",
      "outputs": [
        {
          "internalType": "uint256",
          "name": "",
          "type": "uint256"
        }
      ],
      "stateMutability": "view",
      "type": "function"
    },
    {
      "inputs": [
        {
          "internalType": "uint256",
          "name": "amount",
          "type": "uint256"
        }
      ],
      "name": "unstake",
      "outputs": [],
      "stateMutability": "nonpayable",
      "type": "function"
    },
    {
      "stateMutability": "payable",
      "type": "receive"
    }
  ],
  "bytecode": "0x608060405234801561001057600080fd5b50610654806100206000396000f3fe60806040526004361061004e5760003560e01c806316934fc4146100575780632e17de78146100945780633a4b66f1146100bd5780637a766460146100c7578063817b1cd21461010457610055565b3661005557005b005b34801561006357600080fd5b5061007e600480360381019061007991906103e4565b61012f565b60405161008b919061042a565b60405180910390f35b3480156100a057600080fd5b506100bb60048036038101906100b69190610471565b610147565b005b6100c5610280565b005b3480156100d357600080fd5b506100ee60048036038101906100e991906103e4565b610333565b6040516100fb919061042a565b60405180910390f35b34801561011057600080fd5b5061011961037b565b604051610126919061042a565b60405180910390f35b60006020528060005260406000206000915090505481565b806000803373ffffffffffffffffffffffffffffffffffffffff1673ffffffffffffffffffffffffffffffffffffffff1681526020019081526020016000205410156101c8576040517f08c379a00000000000000000000000000000000000000000000000000000000081526004016101bf906104fb565b60405180910390fd5b806000803373ffffffffffffffffffffffffffffffffffffffff1673ffffffffffffffffffffffffffffffffffffffff1681526020019081526020016000206000828254610216919061054a565b92505081905550806001600082825461022f919061054a565b925050819055503373ffffffffffffffffffffffffffffffffffffffff166108fc829081150290604051600060405180830381858888f1935050505015801561027c573d6000803e3d6000fd5b5050565b600034116102c3576040517f08c379a00000000000000000000000000000000000000000000000000000000081526004016102ba906105ca565b60405180910390fd5b346000803373ffffffffffffffffffffffffffffffffffffffff1673ffffffffffffffffffffffffffffffffffffffff168152602001908152602001600020600082825461031191906105ea565b92505081905550346001600082825461032a91906105ea565b92505081905550565b60008060008373ffffffffffffffffffffffffffffffffffffffff1673ffffffffffffffffffffffffffffffffffffffff168152602001908152602001600020549050919050565b60015481565b600080fd5b600073ffffffffffffffffffffffffffffffffffffffff82169050919050565b60006103b182610386565b9050919050565b6103c1816103a6565b81146103cc57600080fd5b50565b6000813590506103de816103b8565b92915050565b6000602082840312156103fa576103f9610381565b5b6000610408848285016103cf565b91505092915050565b6000819050919050565b61042481610411565b82525050565b600060208201905061043f600083018461041b565b92915050565b61044e81610411565b811461045957600080fd5b50565b60008135905061046b81610445565b92915050565b60006020828403121561048757610486610381565b5b60006104958482850161045c565b91505092915050565b600082825260208201905092915050565b7f496e73756666696369656e742062616c616e636520746f20756e7374616b6500600082015250565b60006104e5601f8361049e565b91506104f0826104af565b602082019050919050565b60006020820190508181036000830152610514816104d8565b9050919050565b7f4e487b7100000000000000000000000000000000000000000000000000000000600052601160045260246000fd5b600061055582610411565b915061056083610411565b92508282039050818111156105785761057761051b565b5b92915050565b7f43616e6e6f74207374616b652030204554480000000000000000000000000000600082015250565b60006105b460128361049e565b91506105bf8261057e565b602082019050919050565b600060208201905081810360008301526105e3816105a7565b9050919050565b60006105f582610411565b915061060083610411565b92508282019050808211156106185761061761051b565b5b9291505056fea2646970667358221220432775b6ef7100a1aa760a7536e83a6a24e58dc6add51d491149572e2d09986d64736f6c63430008180033",
  "linkReferences": {},
  "deployedLinkReferences": {}
}