{
  "_format": "hh-sol-artifact-1",
  "contractName": "SimpleStaking",
  "sourceName": "contracts/Staking.sol",
  "abi": [
    {
      "inputs": [],
      "stateMutability": "nonpayable",
      "type": "constructor"
    },
    {
      "inputs": [],
      "name": "ReentrancyGuardReentrantCall",
      "type": "error"
    },
    {
      "anonymous": false,
      "inputs": [
        {
          "indexed": true,
          "internalType": "address",
          "name": "user",
          "type": "address"
        },
        {
          "indexed": false,
          "internalType": "uint256",
          "name": "amount",
          "type": "uint256"
        }
      ],
      "name": "RewardClaimed",
      "type": "event"
    },
    {
      "anonymous": false,
      "inputs": [
        {
          "indexed": false,
          "internalType": "uint256",
          "name": "amount",
          "type": "uint256"
        }
      ],
      "name": "RewardsAdded",
      "type": "event"
    },
    {
      "anonymous": false,
      "inputs": [
        {
          "indexed": true,
          "internalType": "address",
          "name": "user",
          "type": "address"
        },
        {
          "indexed": false,
          "internalType": "uint256",
          "name": "amount",
          "type": "uint256"
        }
      ],
      "name": "Stake",
      "type": "event"
    },
    {
      "anonymous": false,
      "inputs": [
        {
          "indexed": true,
          "internalType": "address",
          "name": "user",
          "type": "address"
        },
        {
          "indexed": false,
          "internalType": "uint256",
          "name": "amount",
          "type": "uint256"
        }
      ],
      "name": "Unstake",
      "type": "event"
    },
    {
      "inputs": [],
      "name": "REWARD_INTERVAL",
      "outputs": [
        {
          "internalType": "uint256",
          "name": "",
          "type": "uint256"
        }
      ],
      "stateMutability": "view",
      "type": "function"
    },
    {
      "inputs": [],
      "name": "accRewardPerShare",
      "outputs": [
        {
          "internalType": "uint256",
          "name": "",
          "type": "uint256"
        }
      ],
      "stateMutability": "view",
      "type": "function"
    },
    {
      "inputs": [],
      "name": "addRewards",
      "outputs": [],
      "stateMutability": "payable",
      "type": "function"
    },
    {
      "inputs": [
        {
          "internalType": "address",
          "name": "staker",
          "type": "address"
        }
      ],
      "name": "getStake",
      "outputs": [
        {
          "internalType": "uint256",
          "name": "",
          "type": "uint256"
        }
      ],
      "stateMutability": "view",
      "type": "function"
    },
    {
      "inputs": [],
      "name": "lastRewardTime",
      "outputs": [
        {
          "internalType": "uint256",
          "name": "",
          "type": "uint256"
        }
      ],
      "stateMutability": "view",
      "type": "function"
    },
    {
      "inputs": [
        {
          "internalType": "address",
          "name": "_user",
          "type": "address"
        }
      ],
      "name": "pendingReward",
      "outputs": [
        {
          "internalType": "uint256",
          "name": "",
          "type": "uint256"
        }
      ],
      "stateMutability": "view",
      "type": "function"
    },
    {
      "inputs": [
        {
          "internalType": "address",
          "name": "",
          "type": "address"
        }
      ],
      "name": "rewardDebt",
      "outputs": [
        {
          "internalType": "uint256",
          "name": "",
          "type": "uint256"
        }
      ],
      "stateMutability": "view",
      "type": "function"
    },
    {
      "inputs": [],
      "name": "stake",
      "outputs": [],
      "stateMutability": "payable",
      "type": "function"
    },
    {
      "inputs": [
        {
          "internalType": "address",
          "name": "",
          "type": "address"
        }
      ],
      "name": "stakes",
      "outputs": [
        {
          "internalType": "uint256",
          "name": "",
          "type": "uint256"
        }
      ],
      "stateMutability": "view",
      "type": "function"
    },
    {
      "inputs": [],
      "name": "totalRewards",
      "outputs": [
        {
          "internalType": "uint256",
          "name": "",
          "type": "uint256"
        }
      ],
      "stateMutability": "view",
      "type": "function"
    },
    {
      "inputs": [],
      "name": "totalStaked",
      "outputs": [
        {
          "internalType": "uint256",
          "name": "",
          "type": "uint256"
        }
      ],
      "stateMutability": "view",
      "type": "function"
    },
    {
      "inputs": [
        {
          "internalType": "uint256",
          "name": "amount",
          "type": "uint256"
        }
      ],
      "name": "unstake",
      "outputs": [],
      "stateMutability": "nonpayable",
      "type": "function"
    }
  ],
  "bytecode": "0x608060405234801561001057600080fd5b506001600081905550426006819055506110cf8061002f6000396000f3fe6080604052600436106100a75760003560e01c80635dbdda69116100645780635dbdda691461018e5780637a766460146101b9578063817b1cd2146101f65780639231cf7414610221578063939d62371461024c578063f40f0f5214610277576100a7565b80630e15561a146100ac57806314d6aed0146100d757806316934fc4146100e15780632e17de781461011e5780633a4b66f1146101475780635873eb9b14610151575b600080fd5b3480156100b857600080fd5b506100c16102b4565b6040516100ce9190610d07565b60405180910390f35b6100df6102ba565b005b3480156100ed57600080fd5b5061010860048036038101906101039190610d85565b610357565b6040516101159190610d07565b60405180910390f35b34801561012a57600080fd5b5061014560048036038101906101409190610dde565b61036f565b005b61014f6106fb565b005b34801561015d57600080fd5b5061017860048036038101906101739190610d85565b610a49565b6040516101859190610d07565b60405180910390f35b34801561019a57600080fd5b506101a3610a61565b6040516101b09190610d07565b60405180910390f35b3480156101c557600080fd5b506101e060048036038101906101db9190610d85565b610a68565b6040516101ed9190610d07565b60405180910390f35b34801561020257600080fd5b5061020b610ab1565b6040516102189190610d07565b60405180910390f35b34801561022d57600080fd5b50610236610ab7565b6040516102439190610d07565b60405180910390f35b34801561025857600080fd5b50610261610abd565b60405161026e9190610d07565b60405180910390f35b34801561028357600080fd5b5061029e60048036038101906102999190610d85565b610ac3565b6040516102ab9190610d07565b60405180910390f35b60045481565b600034116102fd576040517f08c379a00000000000000000000000000000000000000000000000000000000081526004016102f490610e68565b60405180910390fd5b610305610bf1565b34600460008282546103179190610eb7565b925050819055507ff8fad42e780bfa5459be3fe691e8ba1aec70342250112139c5771c3fd155f3123460405161034d9190610d07565b60405180910390a1565b60016020528060005260406000206000915090505481565b610377610c9e565b80600160003373ffffffffffffffffffffffffffffffffffffffff1673ffffffffffffffffffffffffffffffffffffffff1681526020019081526020016000205410156103f9576040517f08c379a00000000000000000000000000000000000000000000000000000000081526004016103f090610f37565b60405180910390fd5b610401610bf1565b6000600260003373ffffffffffffffffffffffffffffffffffffffff1673ffffffffffffffffffffffffffffffffffffffff1681526020019081526020016000205464e8d4a51000600554600160003373ffffffffffffffffffffffffffffffffffffffff1673ffffffffffffffffffffffffffffffffffffffff168152602001908152602001600020546104969190610f57565b6104a09190610fc8565b6104aa9190610ff9565b9050600081111561054b573373ffffffffffffffffffffffffffffffffffffffff166108fc829081150290604051600060405180830381858888f193505050501580156104fb573d6000803e3d6000fd5b503373ffffffffffffffffffffffffffffffffffffffff167f106f923f993c2149d49b4255ff723acafa1f2d94393f561d3eda32ae348f7241826040516105429190610d07565b60405180910390a25b81600160003373ffffffffffffffffffffffffffffffffffffffff1673ffffffffffffffffffffffffffffffffffffffff168152602001908152602001600020600082825461059a9190610ff9565b9250508190555081600360008282546105b39190610ff9565b9250508190555064e8d4a51000600554600160003373ffffffffffffffffffffffffffffffffffffffff1673ffffffffffffffffffffffffffffffffffffffff1681526020019081526020016000205461060d9190610f57565b6106179190610fc8565b600260003373ffffffffffffffffffffffffffffffffffffffff1673ffffffffffffffffffffffffffffffffffffffff168152602001908152602001600020819055503373ffffffffffffffffffffffffffffffffffffffff166108fc839081150290604051600060405180830381858888f193505050501580156106a0573d6000803e3d6000fd5b503373ffffffffffffffffffffffffffffffffffffffff167f85082129d87b2fe11527cb1b3b7a520aeb5aa6913f88a3d8757fe40d1db02fdd836040516106e79190610d07565b60405180910390a2506106f8610ce4565b50565b610703610c9e565b60003411610746576040517f08c379a000000000000000000000000000000000000000000000000000000000815260040161073d90611079565b60405180910390fd5b61074e610bf1565b6000600160003373ffffffffffffffffffffffffffffffffffffffff1673ffffffffffffffffffffffffffffffffffffffff1681526020019081526020016000205411156108e2576000600260003373ffffffffffffffffffffffffffffffffffffffff1673ffffffffffffffffffffffffffffffffffffffff1681526020019081526020016000205464e8d4a51000600554600160003373ffffffffffffffffffffffffffffffffffffffff1673ffffffffffffffffffffffffffffffffffffffff1681526020019081526020016000205461082b9190610f57565b6108359190610fc8565b61083f9190610ff9565b905060008111156108e0573373ffffffffffffffffffffffffffffffffffffffff166108fc829081150290604051600060405180830381858888f19350505050158015610890573d6000803e3d6000fd5b503373ffffffffffffffffffffffffffffffffffffffff167f106f923f993c2149d49b4255ff723acafa1f2d94393f561d3eda32ae348f7241826040516108d79190610d07565b60405180910390a25b505b34600160003373ffffffffffffffffffffffffffffffffffffffff1673ffffffffffffffffffffffffffffffffffffffff16815260200190815260200160002060008282546109319190610eb7565b92505081905550346003600082825461094a9190610eb7565b9250508190555064e8d4a51000600554600160003373ffffffffffffffffffffffffffffffffffffffff1673ffffffffffffffffffffffffffffffffffffffff168152602001908152602001600020546109a49190610f57565b6109ae9190610fc8565b600260003373ffffffffffffffffffffffffffffffffffffffff1673ffffffffffffffffffffffffffffffffffffffff168152602001908152602001600020819055503373ffffffffffffffffffffffffffffffffffffffff167febedb8b3c678666e7f36970bc8f57abf6d8fa2e828c0da91ea5b75bf68ed101a34604051610a379190610d07565b60405180910390a2610a47610ce4565b565b60026020528060005260406000206000915090505481565b6201518081565b6000600160008373ffffffffffffffffffffffffffffffffffffffff1673ffffffffffffffffffffffffffffffffffffffff168152602001908152602001600020549050919050565b60035481565b60065481565b60055481565b600080600554905060065442118015610adf5750600060035414155b15610b4457600060065442610af49190610ff9565b905060006201518060045483610b0a9190610f57565b610b149190610fc8565b905060035464e8d4a5100082610b2a9190610f57565b610b349190610fc8565b83610b3f9190610eb7565b925050505b600260008473ffffffffffffffffffffffffffffffffffffffff1673ffffffffffffffffffffffffffffffffffffffff1681526020019081526020016000205464e8d4a5100082600160008773ffffffffffffffffffffffffffffffffffffffff1673ffffffffffffffffffffffffffffffffffffffff16815260200190815260200160002054610bd59190610f57565b610bdf9190610fc8565b610be99190610ff9565b915050919050565b600654421115610c9c57600060035403610c115742600681905550610c9c565b600060065442610c219190610ff9565b905060006201518060045483610c379190610f57565b610c419190610fc8565b90508060046000828254610c559190610ff9565b9250508190555060035464e8d4a5100082610c709190610f57565b610c7a9190610fc8565b60056000828254610c8b9190610eb7565b925050819055504260068190555050505b565b600260005403610cda576040517f3ee5aeb500000000000000000000000000000000000000000000000000000000815260040160405180910390fd5b6002600081905550565b6001600081905550565b6000819050919050565b610d0181610cee565b82525050565b6000602082019050610d1c6000830184610cf8565b92915050565b600080fd5b600073ffffffffffffffffffffffffffffffffffffffff82169050919050565b6000610d5282610d27565b9050919050565b610d6281610d47565b8114610d6d57600080fd5b50565b600081359050610d7f81610d59565b92915050565b600060208284031215610d9b57610d9a610d22565b5b6000610da984828501610d70565b91505092915050565b610dbb81610cee565b8114610dc657600080fd5b50565b600081359050610dd881610db2565b92915050565b600060208284031215610df457610df3610d22565b5b6000610e0284828501610dc9565b91505092915050565b600082825260208201905092915050565b7f4e6f207265776172647320746f20616464000000000000000000000000000000600082015250565b6000610e52601183610e0b565b9150610e5d82610e1c565b602082019050919050565b60006020820190508181036000830152610e8181610e45565b9050919050565b7f4e487b7100000000000000000000000000000000000000000000000000000000600052601160045260246000fd5b6000610ec282610cee565b9150610ecd83610cee565b9250828201905080821115610ee557610ee4610e88565b5b92915050565b7f496e73756666696369656e742062616c616e636520746f20756e7374616b6500600082015250565b6000610f21601f83610e0b565b9150610f2c82610eeb565b602082019050919050565b60006020820190508181036000830152610f5081610f14565b9050919050565b6000610f6282610cee565b9150610f6d83610cee565b9250828202610f7b81610cee565b91508282048414831517610f9257610f91610e88565b5b5092915050565b7f4e487b7100000000000000000000000000000000000000000000000000000000600052601260045260246000fd5b6000610fd382610cee565b9150610fde83610cee565b925082610fee57610fed610f99565b5b828204905092915050565b600061100482610cee565b915061100f83610cee565b925082820390508181111561102757611026610e88565b5b92915050565b7f43616e6e6f74207374616b652030204554480000000000000000000000000000600082015250565b6000611063601283610e0b565b915061106e8261102d565b602082019050919050565b6000602082019050818103600083015261109281611056565b905091905056fea2646970667358221220eb91a46143904ce5ee70a6bf896743c1c8dd7e60f7bd8d39801db92f8357e54964736f6c63430008180033",
  "linkReferences": {},
  "deployedLinkReferences": {}
}