{
  "_format": "hh-sol-artifact-1",
  "contractName": "SimpleStaking",
  "sourceName": "contracts/Staking.sol",
  "abi": [
    {
      "inputs": [
        {
          "internalType": "address",
          "name": "_weth",
          "type": "address"
        }
      ],
      "stateMutability": "nonpayable",
      "type": "constructor"
    },
    {
      "inputs": [],
      "name": "ReentrancyGuardReentrantCall",
      "type": "error"
    },
    {
      "anonymous": false,
      "inputs": [
        {
          "indexed": true,
          "internalType": "address",
          "name": "user",
          "type": "address"
        },
        {
          "indexed": false,
          "internalType": "uint256",
          "name": "amount",
          "type": "uint256"
        }
      ],
      "name": "RewardClaimed",
      "type": "event"
    },
    {
      "anonymous": false,
      "inputs": [
        {
          "indexed": false,
          "internalType": "uint256",
          "name": "amount",
          "type": "uint256"
        }
      ],
      "name": "RewardsAdded",
      "type": "event"
    },
    {
      "anonymous": false,
      "inputs": [
        {
          "indexed": true,
          "internalType": "address",
          "name": "user",
          "type": "address"
        },
        {
          "indexed": false,
          "internalType": "uint256",
          "name": "amount",
          "type": "uint256"
        }
      ],
      "name": "Stake",
      "type": "event"
    },
    {
      "anonymous": false,
      "inputs": [
        {
          "indexed": true,
          "internalType": "address",
          "name": "user",
          "type": "address"
        },
        {
          "indexed": false,
          "internalType": "uint256",
          "name": "amount",
          "type": "uint256"
        }
      ],
      "name": "Unstake",
      "type": "event"
    },
    {
      "inputs": [],
      "name": "REWARD_INTERVAL",
      "outputs": [
        {
          "internalType": "uint256",
          "name": "",
          "type": "uint256"
        }
      ],
      "stateMutability": "view",
      "type": "function"
    },
    {
      "inputs": [],
      "name": "accRewardPerShare",
      "outputs": [
        {
          "internalType": "uint256",
          "name": "",
          "type": "uint256"
        }
      ],
      "stateMutability": "view",
      "type": "function"
    },
    {
      "inputs": [],
      "name": "addRewards",
      "outputs": [],
      "stateMutability": "payable",
      "type": "function"
    },
    {
      "inputs": [],
      "name": "factoryAddress",
      "outputs": [
        {
          "internalType": "address",
          "name": "",
          "type": "address"
        }
      ],
      "stateMutability": "view",
      "type": "function"
    },
    {
      "inputs": [
        {
          "internalType": "address",
          "name": "staker",
          "type": "address"
        }
      ],
      "name": "getStake",
      "outputs": [
        {
          "internalType": "uint256",
          "name": "",
          "type": "uint256"
        }
      ],
      "stateMutability": "view",
      "type": "function"
    },
    {
      "inputs": [],
      "name": "lastRewardTime",
      "outputs": [
        {
          "internalType": "uint256",
          "name": "",
          "type": "uint256"
        }
      ],
      "stateMutability": "view",
      "type": "function"
    },
    {
      "inputs": [],
      "name": "owner",
      "outputs": [
        {
          "internalType": "address",
          "name": "",
          "type": "address"
        }
      ],
      "stateMutability": "view",
      "type": "function"
    },
    {
      "inputs": [
        {
          "internalType": "address",
          "name": "_user",
          "type": "address"
        }
      ],
      "name": "pendingReward",
      "outputs": [
        {
          "internalType": "uint256",
          "name": "",
          "type": "uint256"
        }
      ],
      "stateMutability": "view",
      "type": "function"
    },
    {
      "inputs": [
        {
          "internalType": "address",
          "name": "",
          "type": "address"
        }
      ],
      "name": "rewardDebt",
      "outputs": [
        {
          "internalType": "uint256",
          "name": "",
          "type": "uint256"
        }
      ],
      "stateMutability": "view",
      "type": "function"
    },
    {
      "inputs": [
        {
          "internalType": "address",
          "name": "_factoryAddress",
          "type": "address"
        }
      ],
      "name": "setFactoryAddress",
      "outputs": [],
      "stateMutability": "nonpayable",
      "type": "function"
    },
    {
      "inputs": [],
      "name": "stake",
      "outputs": [],
      "stateMutability": "payable",
      "type": "function"
    },
    {
      "inputs": [
        {
          "internalType": "address",
          "name": "",
          "type": "address"
        }
      ],
      "name": "stakes",
      "outputs": [
        {
          "internalType": "uint256",
          "name": "",
          "type": "uint256"
        }
      ],
      "stateMutability": "view",
      "type": "function"
    },
    {
      "inputs": [],
      "name": "totalRewards",
      "outputs": [
        {
          "internalType": "uint256",
          "name": "",
          "type": "uint256"
        }
      ],
      "stateMutability": "view",
      "type": "function"
    },
    {
      "inputs": [],
      "name": "totalStaked",
      "outputs": [
        {
          "internalType": "uint256",
          "name": "",
          "type": "uint256"
        }
      ],
      "stateMutability": "view",
      "type": "function"
    },
    {
      "inputs": [
        {
          "internalType": "uint256",
          "name": "amount",
          "type": "uint256"
        }
      ],
      "name": "unstake",
      "outputs": [],
      "stateMutability": "nonpayable",
      "type": "function"
    },
    {
      "inputs": [],
      "name": "weth",
      "outputs": [
        {
          "internalType": "address",
          "name": "",
          "type": "address"
        }
      ],
      "stateMutability": "view",
      "type": "function"
    }
  ],
  "bytecode": "0x60803461008357601f610c4038819003918201601f19168301916001600160401b038311848410176100885780849260209460405283398101031261008357516001600160a01b0381169081900361008357600160005560018060a01b031933816005541617600555426009556004541617600455604051610ba1908161009f8239f35b600080fd5b634e487b7160e01b600052604160045260246000fdfe608060408181526004918236101561001657600080fd5b600090813560e01c9081630e15561a14610a0b5750806314d6aed01461097257806316934fc41461032b5780632e17de78146107b25780633a4b66f1146103e15780633fc8cef3146103bb5780635873eb9b146103825780635dbdda69146103645780637a7664601461032b578063817b1cd21461030c57806383c17c55146102615780638da5cb5b146102395780639231cf741461021a578063939d6237146101fb578063966dae0e146101cf5763f40f0f52146100d457600080fd5b346101cc5760203660031901126101cc578235906001600160a01b0382168092036101cc57600854600954804211806101c1575b610147575b60208561014086828764e8d4a51000610130898584526001895284842054610a4a565b0492815260028652205490610a7d565b9051908152f35b610161610158620151809242610a7d565b60075490610a4a565b0464e8d4a51000908181029181830414901517156101ae57602095509164e8d4a510006101306101a3879461019d610140989760065490610a5d565b90610a27565b93505050919261010d565b602483601188634e487b7160e01b835252fd5b506006541515610108565b80fd5b5090346101f757816003193601126101f7576020906001600160a01b03600354169051908152f35b5080fd5b5090346101f757816003193601126101f7576020906008549051908152f35b5090346101f757816003193601126101f7576020906009549051908152f35b5090346101f757816003193601126101f7576020906001600160a01b03600554169051908152f35b509134610308576020366003190112610308578035916001600160a01b03808416809403610304576005541633036102c15750507fffffffffffffffffffffffff0000000000000000000000000000000000000000600354161760035580f35b906020606492519162461bcd60e51b8352820152601760248201527f43616c6c6572206973206e6f7420746865206f776e65720000000000000000006044820152fd5b8480fd5b8280fd5b5090346101f757816003193601126101f7576020906006549051908152f35b50913461030857602036600319011261030857356001600160a01b03811680910361030857828291602094526001845220549051908152f35b5090346101f757816003193601126101f75760209051620151808152f35b50913461030857602036600319011261030857356001600160a01b03811680910361030857828291602094526002845220549051908152f35b50346101cc57806003193601126101cc57506001600160a01b0360209254169051908152f35b5090816003193601126101f7576103f6610b30565b341561077057610404610ab4565b6001600160a01b039283815416803b15610687578382918451928380927fd0e30db000000000000000000000000000000000000000000000000000000000825234905af1801561076357610750575b50604634029334850460460361073d5760648495046104728134610a7d565b50818354168260035416918551927fa9059cbb0000000000000000000000000000000000000000000000000000000084528584015260248301528160448160209889945af19081156107335786916106cd575b501561068b578490338252600185528382205480610560575b82867febedb8b3c678666e7f36970bc8f57abf6d8fa2e828c0da91ea5b75bf68ed101a8733845260018352808420610517348254610a27565b905561052534600654610a27565b6006553384526001835264e8d4a510006105458286205460085490610a4a565b04338552600284528185205551913483523392a26001815580f35b64e8d4a510006105766105889260085490610a4a565b04338452600287528584205490610a7d565b928315918215610599575b506104de565b81541690813b1561068757846024859283895195869485937f2e1a7d4d0000000000000000000000000000000000000000000000000000000085528401525af1801561067d57908391610669575b5083909161065f575b8280929181923390f11561065557907febedb8b3c678666e7f36970bc8f57abf6d8fa2e828c0da91ea5b75bf68ed101a9181519081527f106f923f993c2149d49b4255ff723acafa1f2d94393f561d3eda32ae348f7241843392a29083388080610593565b81513d85823e3d90fd5b6108fc91506105f0565b61067290610a8a565b6101f75781386105e7565b85513d85823e3d90fd5b8380fd5b5082606492519162461bcd60e51b8352820152601e60248201527f4661696c656420746f2073656e64205745544820746f20666163746f727900006044820152fd5b9050843d861161072c575b601f8101601f1916820167ffffffffffffffff81118382101761071757869183918752810103126107135751801515810361071357386104c5565b8580fd5b604185634e487b7160e01b6000525260246000fd5b503d6106d8565b84513d88823e3d90fd5b602484601184634e487b7160e01b835252fd5b61075c90939193610a8a565b9138610453565b50505051903d90823e3d90fd5b5162461bcd60e51b8152602081840152601260248201527f43616e6e6f74207374616b6520302045544800000000000000000000000000006044820152606490fd5b50913461030857602080600319360112610687578135916107d1610b30565b3385526001825282848620541061093157506107eb610ab4565b3384526001815261080e6108208486205464e8d4a5100092839160085490610a4a565b04338752600284528587205490610a7d565b85811580156108d5575b50505033855260018252838520610842848254610a7d565b905561085083600654610a7d565b6006553385526001825261086a8486205460085490610a4a565b04338552600282528385205583808380156108cb575b8280929181923390f1156108bf577f85082129d87b2fe11527cb1b3b7a520aeb5aa6913f88a3d8757fe40d1db02fdd9192519283523392a26001815580f35b505051903d90823e3d90fd5b6108fc9150610880565b828291610927575b8280929181923390f11561091d5784519081527f106f923f993c2149d49b4255ff723acafa1f2d94393f561d3eda32ae348f7241833392a238858161082a565b84513d87823e3d90fd5b6108fc91506108dd565b60649184519162461bcd60e51b8352820152601f60248201527f496e73756666696369656e742062616c616e636520746f20756e7374616b65006044820152fd5b5091826003193601126103085734156109c9575060207ff8fad42e780bfa5459be3fe691e8ba1aec70342250112139c5771c3fd155f312916109b2610ab4565b6109be34600754610a27565b60075551348152a180f35b6020606492519162461bcd60e51b8352820152601160248201527f4e6f207265776172647320746f206164640000000000000000000000000000006044820152fd5b9050346101f757816003193601126101f7576020906007548152f35b91908201809211610a3457565b634e487b7160e01b600052601160045260246000fd5b81810292918115918404141715610a3457565b8115610a67570490565b634e487b7160e01b600052601260045260246000fd5b91908203918211610a3457565b67ffffffffffffffff8111610a9e57604052565b634e487b7160e01b600052604160045260246000fd5b600954421115610b2e576006548015610b2757610ad360095442610a7d565b610aef62015180610ae76007548094610a4a565b048092610a7d565b60075564e8d4a5100090818102918183041490151715610a3457610b1e91610b1691610a5d565b600854610a27565b60085542600955565b5042600955565b565b600260005414610b41576002600055565b60046040517f3ee5aeb5000000000000000000000000000000000000000000000000000000008152fdfea2646970667358221220bc27e3a03efe7e0884a1e2d8888bf399f593d3f49699009678ddb06ef118e2f464736f6c63430008180033",
  "linkReferences": {},
  "deployedLinkReferences": {}
}