{
  "_format": "hh-sol-artifact-1",
  "contractName": "SimpleStaking",
  "sourceName": "contracts/Staking.sol",
  "abi": [
    {
      "inputs": [
        {
          "internalType": "address",
          "name": "_weth",
          "type": "address"
        }
      ],
      "stateMutability": "nonpayable",
      "type": "constructor"
    },
    {
      "inputs": [],
      "name": "ReentrancyGuardReentrantCall",
      "type": "error"
    },
    {
      "anonymous": false,
      "inputs": [
        {
          "indexed": false,
          "internalType": "uint256",
          "name": "availableWETH",
          "type": "uint256"
        }
      ],
      "name": "DebugAvailableWETH",
      "type": "event"
    },
    {
      "anonymous": false,
      "inputs": [
        {
          "indexed": false,
          "internalType": "address",
          "name": "user",
          "type": "address"
        },
        {
          "indexed": false,
          "internalType": "uint256",
          "name": "amountToProcess",
          "type": "uint256"
        }
      ],
      "name": "DebugProcessAttempt",
      "type": "event"
    },
    {
      "anonymous": false,
      "inputs": [
        {
          "indexed": false,
          "internalType": "address",
          "name": "user",
          "type": "address"
        },
        {
          "indexed": false,
          "internalType": "uint256",
          "name": "amount",
          "type": "uint256"
        }
      ],
      "name": "FailedToProcessUnstake",
      "type": "event"
    },
    {
      "anonymous": false,
      "inputs": [
        {
          "indexed": false,
          "internalType": "uint256",
          "name": "amount",
          "type": "uint256"
        },
        {
          "indexed": false,
          "internalType": "uint256",
          "name": "timestamp",
          "type": "uint256"
        }
      ],
      "name": "FundsReceived",
      "type": "event"
    },
    {
      "anonymous": false,
      "inputs": [
        {
          "indexed": false,
          "internalType": "uint256",
          "name": "amount",
          "type": "uint256"
        }
      ],
      "name": "FundsRequested",
      "type": "event"
    },
    {
      "anonymous": false,
      "inputs": [
        {
          "indexed": false,
          "internalType": "uint256",
          "name": "amountNeeded",
          "type": "uint256"
        }
      ],
      "name": "NotifyFactoryForFunds",
      "type": "event"
    },
    {
      "anonymous": false,
      "inputs": [
        {
          "indexed": false,
          "internalType": "address",
          "name": "user",
          "type": "address"
        },
        {
          "indexed": false,
          "internalType": "uint256",
          "name": "requestedAmount",
          "type": "uint256"
        },
        {
          "indexed": false,
          "internalType": "string",
          "name": "error",
          "type": "string"
        }
      ],
      "name": "ProcessUnstakeError",
      "type": "event"
    },
    {
      "anonymous": false,
      "inputs": [
        {
          "indexed": true,
          "internalType": "address",
          "name": "user",
          "type": "address"
        },
        {
          "indexed": false,
          "internalType": "uint256",
          "name": "amount",
          "type": "uint256"
        }
      ],
      "name": "RewardClaimed",
      "type": "event"
    },
    {
      "anonymous": false,
      "inputs": [
        {
          "indexed": false,
          "internalType": "uint256",
          "name": "amount",
          "type": "uint256"
        }
      ],
      "name": "RewardsAdded",
      "type": "event"
    },
    {
      "anonymous": false,
      "inputs": [
        {
          "indexed": true,
          "internalType": "address",
          "name": "user",
          "type": "address"
        },
        {
          "indexed": false,
          "internalType": "uint256",
          "name": "amount",
          "type": "uint256"
        }
      ],
      "name": "Stake",
      "type": "event"
    },
    {
      "anonymous": false,
      "inputs": [
        {
          "indexed": true,
          "internalType": "address",
          "name": "user",
          "type": "address"
        },
        {
          "indexed": false,
          "internalType": "uint256",
          "name": "amount",
          "type": "uint256"
        }
      ],
      "name": "Unstake",
      "type": "event"
    },
    {
      "anonymous": false,
      "inputs": [
        {
          "indexed": true,
          "internalType": "address",
          "name": "user",
          "type": "address"
        },
        {
          "indexed": false,
          "internalType": "uint256",
          "name": "amount",
          "type": "uint256"
        },
        {
          "indexed": false,
          "internalType": "uint256",
          "name": "pendingAmount",
          "type": "uint256"
        }
      ],
      "name": "UnstakeProcessed",
      "type": "event"
    },
    {
      "anonymous": false,
      "inputs": [
        {
          "indexed": true,
          "internalType": "address",
          "name": "user",
          "type": "address"
        },
        {
          "indexed": false,
          "internalType": "uint256",
          "name": "amount",
          "type": "uint256"
        },
        {
          "indexed": false,
          "internalType": "uint256",
          "name": "timestamp",
          "type": "uint256"
        }
      ],
      "name": "UnstakeQueued",
      "type": "event"
    },
    {
      "anonymous": false,
      "inputs": [
        {
          "indexed": false,
          "internalType": "uint256",
          "name": "index",
          "type": "uint256"
        },
        {
          "indexed": false,
          "internalType": "address",
          "name": "user",
          "type": "address"
        },
        {
          "indexed": false,
          "internalType": "uint256",
          "name": "amount",
          "type": "uint256"
        },
        {
          "indexed": false,
          "internalType": "uint256",
          "name": "pendingUnstakes",
          "type": "uint256"
        }
      ],
      "name": "UnstakeRequestDetails",
      "type": "event"
    },
    {
      "anonymous": false,
      "inputs": [
        {
          "indexed": true,
          "internalType": "address",
          "name": "user",
          "type": "address"
        },
        {
          "indexed": false,
          "internalType": "uint256",
          "name": "amount",
          "type": "uint256"
        },
        {
          "indexed": false,
          "internalType": "uint256",
          "name": "pendingAmount",
          "type": "uint256"
        }
      ],
      "name": "UnstakeRequested",
      "type": "event"
    },
    {
      "anonymous": false,
      "inputs": [
        {
          "indexed": false,
          "internalType": "address",
          "name": "user",
          "type": "address"
        },
        {
          "indexed": false,
          "internalType": "uint256",
          "name": "processedAmount",
          "type": "uint256"
        },
        {
          "indexed": false,
          "internalType": "uint256",
          "name": "remainingWETH",
          "type": "uint256"
        }
      ],
      "name": "WETHProcessed",
      "type": "event"
    },
    {
      "stateMutability": "payable",
      "type": "fallback"
    },
    {
      "inputs": [],
      "name": "REWARD_INTERVAL",
      "outputs": [
        {
          "internalType": "uint256",
          "name": "",
          "type": "uint256"
        }
      ],
      "stateMutability": "view",
      "type": "function"
    },
    {
      "inputs": [],
      "name": "accRewardPerShare",
      "outputs": [
        {
          "internalType": "uint256",
          "name": "",
          "type": "uint256"
        }
      ],
      "stateMutability": "view",
      "type": "function"
    },
    {
      "inputs": [],
      "name": "addRewards",
      "outputs": [],
      "stateMutability": "payable",
      "type": "function"
    },
    {
      "inputs": [],
      "name": "claimRewards",
      "outputs": [],
      "stateMutability": "nonpayable",
      "type": "function"
    },
    {
      "inputs": [],
      "name": "factoryAddress",
      "outputs": [
        {
          "internalType": "address",
          "name": "",
          "type": "address"
        }
      ],
      "stateMutability": "view",
      "type": "function"
    },
    {
      "inputs": [
        {
          "internalType": "address",
          "name": "staker",
          "type": "address"
        }
      ],
      "name": "getStake",
      "outputs": [
        {
          "internalType": "uint256",
          "name": "",
          "type": "uint256"
        }
      ],
      "stateMutability": "view",
      "type": "function"
    },
    {
      "inputs": [],
      "name": "getTotalStaked",
      "outputs": [
        {
          "internalType": "uint256",
          "name": "",
          "type": "uint256"
        }
      ],
      "stateMutability": "view",
      "type": "function"
    },
    {
      "inputs": [],
      "name": "getTotalUnstakeQueueAmount",
      "outputs": [
        {
          "internalType": "uint256",
          "name": "totalAmount",
          "type": "uint256"
        }
      ],
      "stateMutability": "view",
      "type": "function"
    },
    {
      "inputs": [],
      "name": "getUnstakeQueueLength",
      "outputs": [
        {
          "internalType": "uint256",
          "name": "",
          "type": "uint256"
        }
      ],
      "stateMutability": "view",
      "type": "function"
    },
    {
      "inputs": [
        {
          "internalType": "uint256",
          "name": "index",
          "type": "uint256"
        }
      ],
      "name": "getUnstakeRequest",
      "outputs": [
        {
          "internalType": "address",
          "name": "user",
          "type": "address"
        },
        {
          "internalType": "uint256",
          "name": "amount",
          "type": "uint256"
        },
        {
          "internalType": "uint256",
          "name": "timestamp",
          "type": "uint256"
        }
      ],
      "stateMutability": "view",
      "type": "function"
    },
    {
      "inputs": [],
      "name": "handleReceivedWETHDELETE",
      "outputs": [],
      "stateMutability": "nonpayable",
      "type": "function"
    },
    {
      "inputs": [],
      "name": "lastRewardTime",
      "outputs": [
        {
          "internalType": "uint256",
          "name": "",
          "type": "uint256"
        }
      ],
      "stateMutability": "view",
      "type": "function"
    },
    {
      "inputs": [
        {
          "internalType": "uint256",
          "name": "amount",
          "type": "uint256"
        }
      ],
      "name": "notifyFundsReceived",
      "outputs": [],
      "stateMutability": "nonpayable",
      "type": "function"
    },
    {
      "inputs": [],
      "name": "owner",
      "outputs": [
        {
          "internalType": "address",
          "name": "",
          "type": "address"
        }
      ],
      "stateMutability": "view",
      "type": "function"
    },
    {
      "inputs": [
        {
          "internalType": "address",
          "name": "_user",
          "type": "address"
        }
      ],
      "name": "pendingReward",
      "outputs": [
        {
          "internalType": "uint256",
          "name": "",
          "type": "uint256"
        }
      ],
      "stateMutability": "view",
      "type": "function"
    },
    {
      "inputs": [
        {
          "internalType": "address",
          "name": "",
          "type": "address"
        }
      ],
      "name": "pendingUnstakes",
      "outputs": [
        {
          "internalType": "uint256",
          "name": "",
          "type": "uint256"
        }
      ],
      "stateMutability": "view",
      "type": "function"
    },
    {
      "inputs": [
        {
          "internalType": "uint256",
          "name": "amount",
          "type": "uint256"
        }
      ],
      "name": "requestUnstake",
      "outputs": [],
      "stateMutability": "nonpayable",
      "type": "function"
    },
    {
      "inputs": [
        {
          "internalType": "address",
          "name": "",
          "type": "address"
        }
      ],
      "name": "rewardDebt",
      "outputs": [
        {
          "internalType": "uint256",
          "name": "",
          "type": "uint256"
        }
      ],
      "stateMutability": "view",
      "type": "function"
    },
    {
      "inputs": [
        {
          "internalType": "address",
          "name": "_factoryAddress",
          "type": "address"
        }
      ],
      "name": "setFactoryAddress",
      "outputs": [],
      "stateMutability": "nonpayable",
      "type": "function"
    },
    {
      "inputs": [],
      "name": "stake",
      "outputs": [],
      "stateMutability": "payable",
      "type": "function"
    },
    {
      "inputs": [
        {
          "internalType": "address",
          "name": "",
          "type": "address"
        }
      ],
      "name": "stakes",
      "outputs": [
        {
          "internalType": "uint256",
          "name": "",
          "type": "uint256"
        }
      ],
      "stateMutability": "view",
      "type": "function"
    },
    {
      "inputs": [],
      "name": "totalFundsNeeded",
      "outputs": [
        {
          "internalType": "uint256",
          "name": "",
          "type": "uint256"
        }
      ],
      "stateMutability": "view",
      "type": "function"
    },
    {
      "inputs": [],
      "name": "totalRewards",
      "outputs": [
        {
          "internalType": "uint256",
          "name": "",
          "type": "uint256"
        }
      ],
      "stateMutability": "view",
      "type": "function"
    },
    {
      "inputs": [],
      "name": "totalStaked",
      "outputs": [
        {
          "internalType": "uint256",
          "name": "",
          "type": "uint256"
        }
      ],
      "stateMutability": "view",
      "type": "function"
    },
    {
      "inputs": [
        {
          "internalType": "uint256",
          "name": "",
          "type": "uint256"
        }
      ],
      "name": "unstakeQueue",
      "outputs": [
        {
          "internalType": "address",
          "name": "user",
          "type": "address"
        },
        {
          "internalType": "uint256",
          "name": "amount",
          "type": "uint256"
        },
        {
          "internalType": "uint256",
          "name": "timestamp",
          "type": "uint256"
        }
      ],
      "stateMutability": "view",
      "type": "function"
    },
    {
      "inputs": [],
      "name": "weth",
      "outputs": [
        {
          "internalType": "address",
          "name": "",
          "type": "address"
        }
      ],
      "stateMutability": "view",
      "type": "function"
    },
    {
      "stateMutability": "payable",
      "type": "receive"
    }
  ],
  "bytecode": "0x60803461008357601f611a5b38819003918201601f19168301916001600160401b038311848410176100885780849260209460405283398101031261008357516001600160a01b0381169081900361008357600160005560018060a01b03193381600654161760065542600a5560055416176005556040516119bc908161009f8239f35b600080fd5b634e487b7160e01b600052604160045260246000fdfe6080604081815260048036101561001e575b505050361561001c57005b005b600092833560e01c9081630917e77614611472575080630e15561a1461145357806314d6aed01461134657806316934fc4146108d45780632309572114610fc1578063372500ab14610d315780633a4b66f1146109a75780633bac9c99146109885780633fc8cef3146109605780635873eb9b146109285780635dbdda691461090c5780637a766460146108d4578063817b1cd2146108b557806383c17c551461081d5780638da5cb5b146107f55780639231cf74146107d6578063939d6237146107b7578063966dae0e146107905780639b5ceb3514610504578063afa58070146104da578063b8e347df146104bd578063d6b6b23f14610485578063ddb59e13146103e5578063f3385ace146103c2578063f40f0f52146102c75763f67a25e80361001157346102c357826003193601126102c3576001600160a01b0380600554169183519283916370a0823160e01b8352309083015281602460209384935afa9283156102b9578593610285575b507f264b03945932e4bc51e688f9f27dbb1f5faba7660d11abdbf7e7f41ed87928ba818551858152a1600b546101c3578480f35b6101cb6114df565b5090828254169460018301947faeadbfc8febf10d119916528ecb37175473490279c943963f050330e4c90e959608087549860028701548551918c8352878301528a868301526060820152a186811061024057505050610230935054169054906116a6565b610238611841565b388080808480f35b919450925061027191507fd5e85995d9bdcdafb72531ec59faef29167c16780583ca2068587fe896170c47946115b5565b9061027b826117a8565b51908152a1610238565b9080935081813d83116102b2575b61029d818361153d565b810103126102ad5751913861018f565b600080fd5b503d610293565b84513d87823e3d90fd5b8280fd5b5091346103bf5760203660031901126103bf578235906001600160a01b0382168092036103bf57600954600a54804211806103b4575b61033c575b60208561033586828764e8d4a51000610325898584526001895284842054611582565b04928152600286522054906115b5565b9051908152f35b61035461034b603c92426115b5565b60085490611582565b0464e8d4a51000908181029181830414901517156103a157602095509164e8d4a510006103256103968794610390610335989760075490611595565b9061155f565b935050509192610302565b602483601188634e487b7160e01b835252fd5b5060075415156102fd565b80fd5b5050346103e157816003193601126103e157602090600c549051908152f35b5080fd5b5082346103bf5760203660031901126103bf5750803590600b5482101561044257506104109061148e565b508054600182015460029092015492516001600160a01b03909116815260208101919091526040810191909152606090f35b606490602084519162461bcd60e51b8352820152601360248201527f496e646578206f7574206f6620626f756e6473000000000000000000000000006044820152fd5b50346102c35760203660031901126102c357356001600160a01b0381168091036102c357828291602094526003845220549051908152f35b5050346103e157816003193601126103e1576020906103356115c2565b508290346103e15760203660031901126103e1573590600b548210156103bf57506104109061148e565b50346102c3576020918260031936011261078c576001600160a01b039182815416330361074b577f063d07ee72a7483b8e07ca09054bb686775c5c030f945dde3823a5257a0a93eb828051833581524287820152a1826005541692825185816024816370a0823160e01b9889825230888301525afa908115610741578791610714575b507f264b03945932e4bc51e688f9f27dbb1f5faba7660d11abdbf7e7f41ed87928ba868551838152a1600b546105bb578680f35b6105c36114df565b50828154169160018201927faeadbfc8febf10d119916528ecb37175473490279c943963f050330e4c90e95960808b8654936002870154908b519283528d830152848b8301526060820152a18082106106cd5750505481546106269184166116a6565b61062e611841565b546046810290808204604614901517156106ba57859291610656606460249304600c546115b5565b600c55600554169484519586938492835230908301525afa9081156106b15750610688575b50505b3880808080808680f35b813d83116106aa575b61069b818361153d565b810103126102ad57388061067b565b503d610691565b513d85823e3d90fd5b602487601185634e487b7160e01b835252fd5b92509250507fd5e85995d9bdcdafb72531ec59faef29167c16780583ca2068587fe896170c4795945061070092506115b5565b9061070a826117a8565b51908152a161067e565b90508581813d831161073a575b61072b818361153d565b810103126102ad575138610587565b503d610721565b84513d89823e3d90fd5b83606492519162461bcd60e51b8352820152601760248201527f4f6e6c7920666163746f72792063616e206e6f746966790000000000000000006044820152fd5b8380fd5b5091346103bf57806003193601126103bf57506001600160a01b0360209254169051908152f35b5050346103e157816003193601126103e1576020906009549051908152f35b5050346103e157816003193601126103e157602090600a549051908152f35b5050346103e157816003193601126103e1576020906001600160a01b03600654169051908152f35b5090346102c35760203660031901126102c3578135906001600160a01b038083168093036108b15760065416330361086f575073ffffffffffffffffffffffffffffffffffffffff1982541617905580f35b5162461bcd60e51b8152602081840152601760248201527f43616c6c6572206973206e6f7420746865206f776e65720000000000000000006044820152606490fd5b8480fd5b5050346103e157816003193601126103e1576020906007549051908152f35b50346102c35760203660031901126102c357356001600160a01b0381168091036102c357828291602094526001845220549051908152f35b5050346103e157816003193601126103e15760209051603c8152f35b50346102c35760203660031901126102c357356001600160a01b0381168091036102c357828291602094526002845220549051908152f35b5050346103e157816003193601126103e1576020906001600160a01b03600554169051908152f35b5050346103e157816003193601126103e157602090600b549051908152f35b5090826003193601126102c3576109bc61166b565b3415610cee576109ca6115f8565b6001600160a01b0391838360055416803b156103e157818391855192838092630d0e30db60e41b825234905af18015610ce457610cd0575b505060463402348104604603610cbd576064900492610a2184346115b5565b50806005541681835416845180927fa9059cbb000000000000000000000000000000000000000000000000000000008252818981610a7b60209b8c978b8401602090939291936001600160a01b0360408201951681520152565b03925af1908115610cb3578691610c79575b5015610c37578490338252600185528382205480610b28575b82867febedb8b3c678666e7f36970bc8f57abf6d8fa2e828c0da91ea5b75bf68ed101a8733845260018352808420610adf34825461155f565b9055610aed3460075461155f565b6007553384526001835264e8d4a51000610b0d8286205460095490611582565b04338552600284528185205551913483523392a26001815580f35b64e8d4a51000610b3e610b509260095490611582565b043384526002875285842054906115b5565b928315918215610b61575b50610aa6565b6005541690813b1561078c5784602485928389519586948593632e1a7d4d60e01b85528401525af18015610c2d57908391610c19575b50839091610c0f575b8280929181923390f115610c0557907febedb8b3c678666e7f36970bc8f57abf6d8fa2e828c0da91ea5b75bf68ed101a9181519081527f106f923f993c2149d49b4255ff723acafa1f2d94393f561d3eda32ae348f7241843392a29083388080610b5b565b81513d85823e3d90fd5b6108fc9150610ba0565b610c2290611513565b6103e1578138610b97565b85513d85823e3d90fd5b5082606492519162461bcd60e51b8352820152601e60248201527f4661696c656420746f2073656e64205745544820746f20666163746f727900006044820152fd5b90508481813d8311610cac575b610c90818361153d565b81010312610ca857518015158103610ca85738610a8d565b8580fd5b503d610c86565b84513d88823e3d90fd5b602485601184634e487b7160e01b835252fd5b610cd990611513565b61078c578338610a02565b84513d84823e3d90fd5b906020606492519162461bcd60e51b8352820152601260248201527f43616e6e6f74207374616b6520302045544800000000000000000000000000006044820152fd5b5090346102c357826003193601126102c357610d4b61166b565b610d536115f8565b33835260209060018252808420548015610f5957610d7a64e8d4a510009160095490611582565b049233855260028352610d9082862054856115b5565b938415610f1757600854858110610ed55785610dab916115b5565b6008553386526002845282862055846001600160a01b0360055416803b156103e1578180916024865180948193632e1a7d4d60e01b83528b898401525af18015610ce457610ec1575b5080808087335af13d15610ebc573d67ffffffffffffffff8111610ea957835190610e28601f8201601f191687018361153d565b815286853d92013e5b15610e685750907f106f923f993c2149d49b4255ff723acafa1f2d94393f561d3eda32ae348f724191519283523392a26001815580f35b82606492519162461bcd60e51b8352820152601260248201527f4661696c656420746f2073656e642045544800000000000000000000000000006044820152fd5b602487604185634e487b7160e01b835252fd5b610e31565b610eca90611513565b6108b1578438610df4565b6064838686519162461bcd60e51b8352820152601a60248201527f4e6f7420656e6f756768207265776172647320696e20706f6f6c0000000000006044820152fd5b5082606492519162461bcd60e51b8352820152601360248201527f4e6f207265776172647320746f20636c61696d000000000000000000000000006044820152fd5b5060849350519162461bcd60e51b8352820152602560248201527f4e6f207374616b656420616d6f756e7420746f20636c61696d2072657761726460448201527f7320666f720000000000000000000000000000000000000000000000000000006064820152fd5b509190346103e157602090816003193601126102c357833591610fe261166b565b33845260018152828285205410611304576001600160a01b038060055416835183816024816370a0823160e01b95868252308d8301525afa9081156112c55790869188916112d3575b5010611080575050829394506110627f57e41df54512c76148b5ba9b643d149752b0d35e493b969bd017d0a3fe5228cf93336116a6565b33855260038152818520549082519485528401523392a26001815580f35b81875416803b156112cf5784517fbe5ef17600000000000000000000000000000000000000000000000000000000815230818a01908152602081018890529091889183919082908490829060400103925af180156112c5579087916112b1575b50508282600554169160248651809481938252308c8301525afa908115610cb3579085918791611280575b50106111465750829394506111417f57e41df54512c76148b5ba9b643d149752b0d35e493b969bd017d0a3fe5228cf93336116a6565b611062565b3385526003825282852061115b85825461155f565b90558251906060820182811067ffffffffffffffff82111761126b57845233825282820185815284830191428352600b5468010000000000000000811015611258578060016111ad9201600b5561148e565b949094611246577f57e41df54512c76148b5ba9b643d149752b0d35e493b969bd017d0a3fe5228cf97989950906002939291511673ffffffffffffffffffffffffffffffffffffffff1985541617845551600184015551910155815184815242828201527ff24ceb8901eaecb633a833076ec1a09f317122e81bd3bc200d811e0c9bb08146833392a26111416112416115c2565b6117a8565b602489808c634e487b7160e01b825252fd5b60248960418c634e487b7160e01b835252fd5b604188634e487b7160e01b6000525260246000fd5b809250848092503d83116112aa575b611299818361153d565b810103126102ad578490513861110b565b503d61128f565b6112ba90611513565b610ca85785386110e0565b85513d89823e3d90fd5b8680fd5b809250858092503d83116112fd575b6112ec818361153d565b810103126102ad578590513861102b565b503d6112e2565b8490606492519162461bcd60e51b8352820152601b60248201527f496e73756666696369656e74207374616b65642062616c616e636500000000006044820152fd5b50826003193601126102c357341561141157826001600160a01b0360055416803b156103e157835192838092630d0e30db60e41b825234905af18015611405576113cf575b5060207ff8fad42e780bfa5459be3fe691e8ba1aec70342250112139c5771c3fd155f312916113bc3460085461155f565b6008556113c76115f8565b51348152a180f35b7ff8fad42e780bfa5459be3fe691e8ba1aec70342250112139c5771c3fd155f31291926113fd602092611513565b92915061138b565b505051903d90823e3d90fd5b6020606492519162461bcd60e51b8352820152601160248201527f4e6f207265776172647320746f206164640000000000000000000000000000006044820152fd5b5050346103e157816003193601126103e1576020906008549051908152f35b8490346103e157816003193601126103e1576020906007548152f35b600b548110156114c957600390600b600052027f0175b7a638427703f0dbe7bb9bbf987a2551717b34e79f33b5b1008d1fa01db90190600090565b634e487b7160e01b600052603260045260246000fd5b600b54156114c957600b6000527f0175b7a638427703f0dbe7bb9bbf987a2551717b34e79f33b5b1008d1fa01db990600090565b67ffffffffffffffff811161152757604052565b634e487b7160e01b600052604160045260246000fd5b90601f8019910116810190811067ffffffffffffffff82111761152757604052565b9190820180921161156c57565b634e487b7160e01b600052601160045260246000fd5b8181029291811591840414171561156c57565b811561159f570490565b634e487b7160e01b600052601260045260246000fd5b9190820391821161156c57565b600080600b545b8082106115d557505090565b90916115f0600191826115e78661148e565b5001549061155f565b9201906115c9565b600a5442111561166957600754801561166257603c61161c61034b600a54426115b5565b048015801561162f575b50505042600a55565b64e8d4a5100080830292830414171561156c576116579161164f91611595565b60095461155f565b600955388080611626565b5042600a55565b565b60026000541461167c576002600055565b60046040517f3ee5aeb5000000000000000000000000000000000000000000000000000000008152fd5b90600554916000926001600160a01b0380911691823b156108b15784806040946024865180948193632e1a7d4d60e01b83528a60048401525af18015610cb357611795575b50169280838582821561178c575b839283928392f115611781579160209183857f85082129d87b2fe11527cb1b3b7a520aeb5aa6913f88a3d8757fe40d1db02fdd9552600184528181206117408482546115b5565b905561174e836007546115b5565b600755858152600184528164e8d4a5100061176f8284205460095490611582565b049187815260028652205551908152a2565b9051903d90823e3d90fd5b506108fc6116f9565b6117a190959195611513565b93386116eb565b7fac0a36a73050720c3fa0d6988cca2309ef4472b3b09fafa8e713f434ff33a05b6020604051838152a16001600160a01b036004541690813b156102ad576000916024839260405194859384927f8c3a65a200000000000000000000000000000000000000000000000000000000845260048401525af180156118355761182c5750565b61166990611513565b6040513d6000823e3d90fd5b600b54801561194257600019810190811161156c5761185f8161148e565b50600090600b82527f0175b7a638427703f0dbe7bb9bbf987a2551717b34e79f33b5b1008d1fa01db9908082036118c6575b505061189c8261148e565b6118b3578082600292558260018201550155600b55565b602482634e487b7160e01b815280600452fd5b6002916001600160a01b0382541673ffffffffffffffffffffffffffffffffffffffff1982541617905560018101547f0175b7a638427703f0dbe7bb9bbf987a2551717b34e79f33b5b1008d1fa01dba5501547f0175b7a638427703f0dbe7bb9bbf987a2551717b34e79f33b5b1008d1fa01dbb553880611891565b606460405162461bcd60e51b815260206004820152601460248201527f496e646578206f7574206f6620626f756e64732e0000000000000000000000006044820152fdfea2646970667358221220dbc691213eb4efdc3c7c21f35c594b1f3cd40ed71effdf205c1ffd15ffe1140964736f6c63430008180033",
  "linkReferences": {},
  "deployedLinkReferences": {}
}