{
  "_format": "hh-sol-artifact-1",
  "contractName": "SimpleStaking",
  "sourceName": "contracts/Staking.sol",
  "abi": [
    {
      "inputs": [
        {
          "internalType": "address",
          "name": "_weth",
          "type": "address"
        }
      ],
      "stateMutability": "nonpayable",
      "type": "constructor"
    },
    {
      "inputs": [],
      "name": "ReentrancyGuardReentrantCall",
      "type": "error"
    },
    {
      "anonymous": false,
      "inputs": [
        {
          "indexed": false,
          "internalType": "uint256",
          "name": "availableWETH",
          "type": "uint256"
        }
      ],
      "name": "DebugAvailableWETH",
      "type": "event"
    },
    {
      "anonymous": false,
      "inputs": [
        {
          "indexed": false,
          "internalType": "address",
          "name": "user",
          "type": "address"
        },
        {
          "indexed": false,
          "internalType": "uint256",
          "name": "amountToProcess",
          "type": "uint256"
        }
      ],
      "name": "DebugProcessAttempt",
      "type": "event"
    },
    {
      "anonymous": false,
      "inputs": [
        {
          "indexed": false,
          "internalType": "address",
          "name": "user",
          "type": "address"
        },
        {
          "indexed": false,
          "internalType": "uint256",
          "name": "amount",
          "type": "uint256"
        }
      ],
      "name": "FailedToProcessUnstake",
      "type": "event"
    },
    {
      "anonymous": false,
      "inputs": [
        {
          "indexed": false,
          "internalType": "uint256",
          "name": "amount",
          "type": "uint256"
        },
        {
          "indexed": false,
          "internalType": "uint256",
          "name": "timestamp",
          "type": "uint256"
        }
      ],
      "name": "FundsReceived",
      "type": "event"
    },
    {
      "anonymous": false,
      "inputs": [
        {
          "indexed": false,
          "internalType": "uint256",
          "name": "amount",
          "type": "uint256"
        }
      ],
      "name": "FundsRequested",
      "type": "event"
    },
    {
      "anonymous": false,
      "inputs": [
        {
          "indexed": false,
          "internalType": "address",
          "name": "user",
          "type": "address"
        },
        {
          "indexed": false,
          "internalType": "uint256",
          "name": "requestedAmount",
          "type": "uint256"
        },
        {
          "indexed": false,
          "internalType": "string",
          "name": "error",
          "type": "string"
        }
      ],
      "name": "ProcessUnstakeError",
      "type": "event"
    },
    {
      "anonymous": false,
      "inputs": [
        {
          "indexed": true,
          "internalType": "address",
          "name": "user",
          "type": "address"
        },
        {
          "indexed": false,
          "internalType": "uint256",
          "name": "amount",
          "type": "uint256"
        }
      ],
      "name": "RewardClaimed",
      "type": "event"
    },
    {
      "anonymous": false,
      "inputs": [
        {
          "indexed": false,
          "internalType": "uint256",
          "name": "amount",
          "type": "uint256"
        }
      ],
      "name": "RewardsAdded",
      "type": "event"
    },
    {
      "anonymous": false,
      "inputs": [
        {
          "indexed": true,
          "internalType": "address",
          "name": "user",
          "type": "address"
        },
        {
          "indexed": false,
          "internalType": "uint256",
          "name": "amount",
          "type": "uint256"
        }
      ],
      "name": "Stake",
      "type": "event"
    },
    {
      "anonymous": false,
      "inputs": [
        {
          "indexed": true,
          "internalType": "address",
          "name": "user",
          "type": "address"
        },
        {
          "indexed": false,
          "internalType": "uint256",
          "name": "amount",
          "type": "uint256"
        }
      ],
      "name": "Unstake",
      "type": "event"
    },
    {
      "anonymous": false,
      "inputs": [
        {
          "indexed": true,
          "internalType": "address",
          "name": "user",
          "type": "address"
        },
        {
          "indexed": false,
          "internalType": "uint256",
          "name": "amount",
          "type": "uint256"
        },
        {
          "indexed": false,
          "internalType": "uint256",
          "name": "pendingAmount",
          "type": "uint256"
        }
      ],
      "name": "UnstakeProcessed",
      "type": "event"
    },
    {
      "anonymous": false,
      "inputs": [
        {
          "indexed": true,
          "internalType": "address",
          "name": "user",
          "type": "address"
        },
        {
          "indexed": false,
          "internalType": "uint256",
          "name": "amount",
          "type": "uint256"
        },
        {
          "indexed": false,
          "internalType": "uint256",
          "name": "timestamp",
          "type": "uint256"
        }
      ],
      "name": "UnstakeQueued",
      "type": "event"
    },
    {
      "anonymous": false,
      "inputs": [
        {
          "indexed": false,
          "internalType": "uint256",
          "name": "index",
          "type": "uint256"
        },
        {
          "indexed": false,
          "internalType": "address",
          "name": "user",
          "type": "address"
        },
        {
          "indexed": false,
          "internalType": "uint256",
          "name": "amount",
          "type": "uint256"
        },
        {
          "indexed": false,
          "internalType": "uint256",
          "name": "pendingUnstakes",
          "type": "uint256"
        }
      ],
      "name": "UnstakeRequestDetails",
      "type": "event"
    },
    {
      "anonymous": false,
      "inputs": [
        {
          "indexed": true,
          "internalType": "address",
          "name": "user",
          "type": "address"
        },
        {
          "indexed": false,
          "internalType": "uint256",
          "name": "amount",
          "type": "uint256"
        },
        {
          "indexed": false,
          "internalType": "uint256",
          "name": "pendingAmount",
          "type": "uint256"
        }
      ],
      "name": "UnstakeRequested",
      "type": "event"
    },
    {
      "anonymous": false,
      "inputs": [
        {
          "indexed": false,
          "internalType": "address",
          "name": "user",
          "type": "address"
        },
        {
          "indexed": false,
          "internalType": "uint256",
          "name": "processedAmount",
          "type": "uint256"
        },
        {
          "indexed": false,
          "internalType": "uint256",
          "name": "remainingWETH",
          "type": "uint256"
        }
      ],
      "name": "WETHProcessed",
      "type": "event"
    },
    {
      "stateMutability": "payable",
      "type": "fallback"
    },
    {
      "inputs": [],
      "name": "REWARD_INTERVAL",
      "outputs": [
        {
          "internalType": "uint256",
          "name": "",
          "type": "uint256"
        }
      ],
      "stateMutability": "view",
      "type": "function"
    },
    {
      "inputs": [],
      "name": "accRewardPerShare",
      "outputs": [
        {
          "internalType": "uint256",
          "name": "",
          "type": "uint256"
        }
      ],
      "stateMutability": "view",
      "type": "function"
    },
    {
      "inputs": [],
      "name": "addRewards",
      "outputs": [],
      "stateMutability": "payable",
      "type": "function"
    },
    {
      "inputs": [],
      "name": "claimRewards",
      "outputs": [],
      "stateMutability": "nonpayable",
      "type": "function"
    },
    {
      "inputs": [],
      "name": "factoryAddress",
      "outputs": [
        {
          "internalType": "address",
          "name": "",
          "type": "address"
        }
      ],
      "stateMutability": "view",
      "type": "function"
    },
    {
      "inputs": [
        {
          "internalType": "address",
          "name": "staker",
          "type": "address"
        }
      ],
      "name": "getStake",
      "outputs": [
        {
          "internalType": "uint256",
          "name": "",
          "type": "uint256"
        }
      ],
      "stateMutability": "view",
      "type": "function"
    },
    {
      "inputs": [],
      "name": "getUnstakeQueueLength",
      "outputs": [
        {
          "internalType": "uint256",
          "name": "",
          "type": "uint256"
        }
      ],
      "stateMutability": "view",
      "type": "function"
    },
    {
      "inputs": [
        {
          "internalType": "uint256",
          "name": "index",
          "type": "uint256"
        }
      ],
      "name": "getUnstakeRequest",
      "outputs": [
        {
          "internalType": "address",
          "name": "user",
          "type": "address"
        },
        {
          "internalType": "uint256",
          "name": "amount",
          "type": "uint256"
        },
        {
          "internalType": "uint256",
          "name": "timestamp",
          "type": "uint256"
        }
      ],
      "stateMutability": "view",
      "type": "function"
    },
    {
      "inputs": [],
      "name": "lastRewardTime",
      "outputs": [
        {
          "internalType": "uint256",
          "name": "",
          "type": "uint256"
        }
      ],
      "stateMutability": "view",
      "type": "function"
    },
    {
      "inputs": [
        {
          "internalType": "uint256",
          "name": "amount",
          "type": "uint256"
        }
      ],
      "name": "notifyFundsReceived",
      "outputs": [],
      "stateMutability": "nonpayable",
      "type": "function"
    },
    {
      "inputs": [],
      "name": "owner",
      "outputs": [
        {
          "internalType": "address",
          "name": "",
          "type": "address"
        }
      ],
      "stateMutability": "view",
      "type": "function"
    },
    {
      "inputs": [
        {
          "internalType": "address",
          "name": "_user",
          "type": "address"
        }
      ],
      "name": "pendingReward",
      "outputs": [
        {
          "internalType": "uint256",
          "name": "",
          "type": "uint256"
        }
      ],
      "stateMutability": "view",
      "type": "function"
    },
    {
      "inputs": [
        {
          "internalType": "address",
          "name": "",
          "type": "address"
        }
      ],
      "name": "pendingUnstakes",
      "outputs": [
        {
          "internalType": "uint256",
          "name": "",
          "type": "uint256"
        }
      ],
      "stateMutability": "view",
      "type": "function"
    },
    {
      "inputs": [
        {
          "internalType": "uint256",
          "name": "amount",
          "type": "uint256"
        }
      ],
      "name": "requestUnstake",
      "outputs": [],
      "stateMutability": "nonpayable",
      "type": "function"
    },
    {
      "inputs": [
        {
          "internalType": "address",
          "name": "",
          "type": "address"
        }
      ],
      "name": "rewardDebt",
      "outputs": [
        {
          "internalType": "uint256",
          "name": "",
          "type": "uint256"
        }
      ],
      "stateMutability": "view",
      "type": "function"
    },
    {
      "inputs": [
        {
          "internalType": "address",
          "name": "_factoryAddress",
          "type": "address"
        }
      ],
      "name": "setFactoryAddress",
      "outputs": [],
      "stateMutability": "nonpayable",
      "type": "function"
    },
    {
      "inputs": [],
      "name": "stake",
      "outputs": [],
      "stateMutability": "payable",
      "type": "function"
    },
    {
      "inputs": [
        {
          "internalType": "address",
          "name": "",
          "type": "address"
        }
      ],
      "name": "stakes",
      "outputs": [
        {
          "internalType": "uint256",
          "name": "",
          "type": "uint256"
        }
      ],
      "stateMutability": "view",
      "type": "function"
    },
    {
      "inputs": [],
      "name": "totalRewards",
      "outputs": [
        {
          "internalType": "uint256",
          "name": "",
          "type": "uint256"
        }
      ],
      "stateMutability": "view",
      "type": "function"
    },
    {
      "inputs": [],
      "name": "totalStaked",
      "outputs": [
        {
          "internalType": "uint256",
          "name": "",
          "type": "uint256"
        }
      ],
      "stateMutability": "view",
      "type": "function"
    },
    {
      "inputs": [
        {
          "internalType": "uint256",
          "name": "amount",
          "type": "uint256"
        }
      ],
      "name": "unstake",
      "outputs": [],
      "stateMutability": "nonpayable",
      "type": "function"
    },
    {
      "inputs": [
        {
          "internalType": "uint256",
          "name": "",
          "type": "uint256"
        }
      ],
      "name": "unstakeQueue",
      "outputs": [
        {
          "internalType": "address",
          "name": "user",
          "type": "address"
        },
        {
          "internalType": "uint256",
          "name": "amount",
          "type": "uint256"
        },
        {
          "internalType": "uint256",
          "name": "timestamp",
          "type": "uint256"
        }
      ],
      "stateMutability": "view",
      "type": "function"
    },
    {
      "inputs": [],
      "name": "weth",
      "outputs": [
        {
          "internalType": "address",
          "name": "",
          "type": "address"
        }
      ],
      "stateMutability": "view",
      "type": "function"
    },
    {
      "stateMutability": "payable",
      "type": "receive"
    }
  ],
  "bytecode": "0x60803461008357601f61180938819003918201601f19168301916001600160401b038311848410176100885780849260209460405283398101031261008357516001600160a01b0381169081900361008357600160005560018060a01b03193381600654161760065542600a55600554161760055560405161176a908161009f8239f35b600080fd5b634e487b7160e01b600052604160045260246000fdfe608060408181526004918236101561001f575b505050361561001d57005b005b600090813560e01c9081630e15561a146111e75750806314d6aed01461114e57806316934fc4146107955780632309572114610ff25780632e17de7814610ef4578063372500ab14610bfa5780633a4b66f11461086b5780633bac9c991461084c5780633fc8cef3146108245780635873eb9b146107eb5780635dbdda69146107ce5780637a76646014610795578063817b1cd21461077657806383c17c55146106dd5780638da5cb5b146106b55780639231cf7414610696578063939d623714610677578063966dae0e146106515780639b5ceb351461032a578063afa58070146102fd578063d6b6b23f146102c0578063ddb59e131461021f5763f40f0f5203610012573461021c57602036600319011261021c578235906001600160a01b03821680920361021c57600954600a5480421180610211575b610198575b60208561019186828764e8d4a510006101818985845260018952848420546113c0565b04928152600286522054906112f6565b9051908152f35b6101b16101a861012c92426112f6565b600854906113c0565b0464e8d4a51000908181029181830414901517156101fe57602095509164e8d4a510006101816101f387946101ed6101919897600754906113d3565b90611288565b93505050919261015e565b602483601188634e487b7160e01b835252fd5b506007541515610159565b80fd5b5082903461021c57602036600319011261021c5750803590600b5482101561027d575061024b9061124d565b508054600182015460029092015492516001600160a01b03909116815260208101919091526040810191909152606090f35b606490602084519162461bcd60e51b8352820152601360248201527f496e646578206f7574206f6620626f756e6473000000000000000000000000006044820152fd5b5091346102f95760203660031901126102f957356001600160a01b0381168091036102f957828291602094526003845220549051908152f35b8280fd5b508234610326576020366003190112610326573590600b5482101561021c575061024b9061124d565b5080fd5b5091346102f9576020918260031936011261064d576001600160a01b0380835416330361060b577f063d07ee72a7483b8e07ca09054bb686775c5c030f945dde3823a5257a0a93eb828051853581524287820152a18381600554168351958680926370a0823160e01b8252308883015260249889915afa9081156106015787916105cf575b507f264b03945932e4bc51e688f9f27dbb1f5faba7660d11abdbf7e7f41ed87928ba828551838152a1600b546103e3578680f35b6103eb611203565b50838154169160018201927faeadbfc8febf10d119916528ecb37175473490279c943963f050330e4c90e95960808b8654936002870154908b5192835289830152848b8301526060820152a180821061058857505054905461044e9184166114cd565b600b5492831561054757506000199280840191508111610535576104719061124d565b5061047a611203565b929092610524578183036104e8575b505050600b5480156104d65701916104a08361124d565b9290926104c6575050600281848093558260018201550155600b555b3880808080808680f35b848091634e487b7160e01b825252fd5b8385603185634e487b7160e01b835252fd5b81600292918392541673ffffffffffffffffffffffffffffffffffffffff19855416178455600181015460018501550154910155388080610489565b85878087634e487b7160e01b825252fd5b8486601186634e487b7160e01b835252fd5b6014866064938793519362461bcd60e51b85528401528201527f496e646578206f7574206f6620626f756e64732e0000000000000000000000006044820152fd5b9250929550507fd5e85995d9bdcdafb72531ec59faef29167c16780583ca2068587fe896170c4795506105bb92506112f6565b906105c5826116c5565b51908152a16104bc565b90508181813d83116105fa575b6105e6818361139e565b810103126105f55751386103af565b600080fd5b503d6105dc565b84513d89823e3d90fd5b5091606492519162461bcd60e51b8352820152601760248201527f4f6e6c7920666163746f72792063616e206e6f746966790000000000000000006044820152fd5b8380fd5b503461021c578060031936011261021c57506001600160a01b0360209254169051908152f35b5090346103265781600319360112610326576020906009549051908152f35b509034610326578160031936011261032657602090600a549051908152f35b5090346103265781600319360112610326576020906001600160a01b03600654169051908152f35b509190346102f95760203660031901126102f9578135906001600160a01b0380831680930361077257600654163303610730575073ffffffffffffffffffffffffffffffffffffffff1982541617905580f35b5162461bcd60e51b8152602081840152601760248201527f43616c6c6572206973206e6f7420746865206f776e65720000000000000000006044820152606490fd5b8480fd5b5090346103265781600319360112610326576020906007549051908152f35b5091346102f95760203660031901126102f957356001600160a01b0381168091036102f957828291602094526001845220549051908152f35b5090346103265781600319360112610326576020905161012c8152f35b5091346102f95760203660031901126102f957356001600160a01b0381168091036102f957828291602094526002845220549051908152f35b5090346103265781600319360112610326576020906001600160a01b03600554169051908152f35b509034610326578160031936011261032657602090600b549051908152f35b50908160031936011261032657610880611492565b3415610bb85761088e6113f3565b6001600160a01b03928360055416803b1561064d578382918451928380927fd0e30db000000000000000000000000000000000000000000000000000000000825234905af18015610bab57908491610b97575b50506046340293348504604603610b8457606484950461090181346112f6565b50816005541682845416918551927fa9059cbb0000000000000000000000000000000000000000000000000000000084528584015260248301528160448160209889945af1908115610b7a578691610b40575b5015610afe5784903382526001855283822054806109ef575b82867febedb8b3c678666e7f36970bc8f57abf6d8fa2e828c0da91ea5b75bf68ed101a87338452600183528084206109a6348254611288565b90556109b434600754611288565b6007553384526001835264e8d4a510006109d482862054600954906113c0565b04338552600284528185205551913483523392a26001815580f35b64e8d4a51000610a05610a1792600954906113c0565b043384526002875285842054906112f6565b928315918215610a28575b5061096d565b6005541690813b1561064d5784602485928389519586948593632e1a7d4d60e01b85528401525af18015610af457908391610ae0575b50839091610ad6575b8280929181923390f115610acc57907febedb8b3c678666e7f36970bc8f57abf6d8fa2e828c0da91ea5b75bf68ed101a9181519081527f106f923f993c2149d49b4255ff723acafa1f2d94393f561d3eda32ae348f7241843392a29083388080610a22565b81513d85823e3d90fd5b6108fc9150610a67565b610ae990611374565b610326578138610a5e565b85513d85823e3d90fd5b5082606492519162461bcd60e51b8352820152601e60248201527f4661696c656420746f2073656e64205745544820746f20666163746f727900006044820152fd5b90508481813d8311610b73575b610b57818361139e565b81010312610b6f57518015158103610b6f5738610954565b8580fd5b503d610b4d565b84513d88823e3d90fd5b602484601184634e487b7160e01b835252fd5b610ba090611374565b6102f95782386108e1565b50505051903d90823e3d90fd5b5162461bcd60e51b8152602081840152601260248201527f43616e6e6f74207374616b6520302045544800000000000000000000000000006044820152606490fd5b509190346102f957826003193601126102f957610c15611492565b33835260209060018252808420548015610e8c57610c4464e8d4a5100091610c3b6113f3565b600954906113c0565b049233855260028352610c5a82862054856112f6565b938415610e4a576001600160a01b039060248583600554168651928380926370a0823160e01b825230898301525afa908115610e40579087918991610e0b575b5010610dc9573387526002855283872055600554869116803b156103265781906024855180948193632e1a7d4d60e01b83528a888401525af18015610dbf57610dac575b508480808087335af13d15610da7573d67ffffffffffffffff8111610d9457835190610d13601f8201601f191687018361139e565b815286853d92013e5b15610d535750907f106f923f993c2149d49b4255ff723acafa1f2d94393f561d3eda32ae348f724191519283523392a26001815580f35b82606492519162461bcd60e51b8352820152601260248201527f4661696c656420746f2073656e642045544800000000000000000000000000006044820152fd5b602487604185634e487b7160e01b835252fd5b610d1c565b610db890959195611374565b9338610cde565b83513d88823e3d90fd5b6064838686519162461bcd60e51b8352820152601b60248201527f4e6f7420656e6f756768205745544820696e20636f6e747261637400000000006044820152fd5b809250878092503d8311610e39575b610e24818361139e565b81010312610e355786905138610c9a565b8780fd5b503d610e1a565b85513d8a823e3d90fd5b5082606492519162461bcd60e51b8352820152601360248201527f4e6f207265776172647320746f20636c61696d000000000000000000000000006044820152fd5b5060849350519162461bcd60e51b8352820152602560248201527f4e6f207374616b656420616d6f756e7420746f20636c61696d2072657761726460448201527f7320666f720000000000000000000000000000000000000000000000000000006064820152fd5b5091346102f95760208060031936011261064d57813591610f13611492565b33855260018252610f29838587205410156112ab565b33855260018252610f5083610f49868820546003865287892054906112f6565b1015611303565b610f586113f3565b816001600160a01b03600554169160248651809481936370a0823160e01b835230908301525afa918215610fe8578394508592610fb7575b505010610fa857610fa190336114cd565b6001815580f35b610fb290336115cf565b610fa1565b8193508092503d8311610fe1575b610fcf818361139e565b810103126102f9578190513880610f90565b503d610fc5565b84513d87823e3d90fd5b5091346102f9576020918260031936011261064d57813592611012611492565b33855260018152611028848387205410156112ab565b3385526001815261104884610f49848820546003855285892054906112f6565b3385526003815281852061105d858254611288565b9055806001600160a01b03600554169360248451809681936370a0823160e01b835230908301525afa801561114457849086906110f5575b7f57e41df54512c76148b5ba9b643d149752b0d35e493b969bd017d0a3fe5228cf945010156110e6576110c884336115cf565b33855260038152818520549082519485528401523392a26001815580f35b6110f084336114cd565b6110c8565b50508083813d831161113d575b61110c818361139e565b8101031261077257837f57e41df54512c76148b5ba9b643d149752b0d35e493b969bd017d0a3fe5228cf9351611095565b503d611102565b82513d87823e3d90fd5b5091826003193601126102f95734156111a5575060207ff8fad42e780bfa5459be3fe691e8ba1aec70342250112139c5771c3fd155f3129161119234600854611288565b60085561119d6113f3565b51348152a180f35b6020606492519162461bcd60e51b8352820152601160248201527f4e6f207265776172647320746f206164640000000000000000000000000000006044820152fd5b9050346103265781600319360112610326576020906008548152f35b600b541561123757600b6000527f0175b7a638427703f0dbe7bb9bbf987a2551717b34e79f33b5b1008d1fa01db990600090565b634e487b7160e01b600052603260045260246000fd5b600b5481101561123757600390600b600052027f0175b7a638427703f0dbe7bb9bbf987a2551717b34e79f33b5b1008d1fa01db90190600090565b9190820180921161129557565b634e487b7160e01b600052601160045260246000fd5b156112b257565b606460405162461bcd60e51b815260206004820152601b60248201527f496e73756666696369656e74207374616b65642062616c616e636500000000006044820152fd5b9190820391821161129557565b1561130a57565b608460405162461bcd60e51b815260206004820152602860248201527f556e7374616b6520616d6f756e74206578636565647320617661696c61626c6560448201527f2062616c616e63650000000000000000000000000000000000000000000000006064820152fd5b67ffffffffffffffff811161138857604052565b634e487b7160e01b600052604160045260246000fd5b90601f8019910116810190811067ffffffffffffffff82111761138857604052565b8181029291811591840414171561129557565b81156113dd570490565b634e487b7160e01b600052601260045260246000fd5b600a5442111561149057600754801561148957611412600a54426112f6565b6008549081611425575b50505042600a55565b6114328261012c926113c0565b0490818082111561148057611446916112f6565b60085564e8d4a5100090818102918183041490151715611295576114759161146d916113d3565b600954611288565b60095538808061141c565b50506000611446565b5042600a55565b565b6002600054146114a3576002600055565b60046040517f3ee5aeb5000000000000000000000000000000000000000000000000000000008152fd5b90600554916000926001600160a01b0380911691823b156107725784806040946024865180948193632e1a7d4d60e01b83528a60048401525af18015610b7a576115bc575b5016928083858282156115b3575b839283928392f1156115a8579160209183857f85082129d87b2fe11527cb1b3b7a520aeb5aa6913f88a3d8757fe40d1db02fdd9552600184528181206115678482546112f6565b9055611575836007546112f6565b600755858152600184528164e8d4a5100061159682842054600954906113c0565b049187815260028652205551908152a2565b9051903d90823e3d90fd5b506108fc611520565b6115c890959195611374565b9338611512565b604051906060820182811067ffffffffffffffff821117611388576040526001600160a01b0380911691828152602081018481526040820190428252600b54680100000000000000008110156113885780600161162f9201600b5561124d565b9490946116af57600293511673ffffffffffffffffffffffffffffffffffffffff19855416178455516001840155519101557ff24ceb8901eaecb633a833076ec1a09f317122e81bd3bc200d811e0c9bb0814660408051848152426020820152a260468102908082046046149015171561129557606461149091046116c5565b634e487b7160e01b600052600060045260246000fd5b6001600160a01b036004541690813b156105f5576000916024839260405194859384927f8c3a65a200000000000000000000000000000000000000000000000000000000845260048401525af180156117285761171f5750565b61149090611374565b6040513d6000823e3d90fdfea264697066735822122082763d0f09ee8575317f943c2b1aa945e4a5be5869ebcdfbcb4e8aa1e13167e164736f6c63430008180033",
  "linkReferences": {},
  "deployedLinkReferences": {}
}