{
  "_format": "hh-sol-artifact-1",
  "contractName": "TokenSwapper",
  "sourceName": "contracts/TokenSwapper.sol",
  "abi": [
    {
      "inputs": [
        {
          "internalType": "address",
          "name": "_positionManager",
          "type": "address"
        },
        {
          "internalType": "address",
          "name": "_swapRouter",
          "type": "address"
        },
        {
          "internalType": "address",
          "name": "_weth",
          "type": "address"
        }
      ],
      "stateMutability": "nonpayable",
      "type": "constructor"
    },
    {
      "anonymous": false,
      "inputs": [
        {
          "indexed": true,
          "internalType": "address",
          "name": "tokenIn",
          "type": "address"
        },
        {
          "indexed": false,
          "internalType": "uint256",
          "name": "amountIn",
          "type": "uint256"
        },
        {
          "indexed": true,
          "internalType": "address",
          "name": "tokenOut",
          "type": "address"
        },
        {
          "indexed": false,
          "internalType": "uint256",
          "name": "amountOut",
          "type": "uint256"
        }
      ],
      "name": "Swap",
      "type": "event"
    },
    {
      "inputs": [],
      "name": "IWETH",
      "outputs": [
        {
          "internalType": "address",
          "name": "",
          "type": "address"
        }
      ],
      "stateMutability": "view",
      "type": "function"
    },
    {
      "inputs": [
        {
          "internalType": "address",
          "name": "token",
          "type": "address"
        }
      ],
      "name": "addSupportedToken",
      "outputs": [],
      "stateMutability": "nonpayable",
      "type": "function"
    },
    {
      "inputs": [],
      "name": "owner",
      "outputs": [
        {
          "internalType": "address",
          "name": "",
          "type": "address"
        }
      ],
      "stateMutability": "view",
      "type": "function"
    },
    {
      "inputs": [],
      "name": "positionManager",
      "outputs": [
        {
          "internalType": "contract INonfungiblePositionManager",
          "name": "",
          "type": "address"
        }
      ],
      "stateMutability": "view",
      "type": "function"
    },
    {
      "inputs": [
        {
          "internalType": "address",
          "name": "token",
          "type": "address"
        }
      ],
      "name": "removeSupportedToken",
      "outputs": [],
      "stateMutability": "nonpayable",
      "type": "function"
    },
    {
      "inputs": [
        {
          "internalType": "address",
          "name": "",
          "type": "address"
        }
      ],
      "name": "supportedTokens",
      "outputs": [
        {
          "internalType": "bool",
          "name": "",
          "type": "bool"
        }
      ],
      "stateMutability": "view",
      "type": "function"
    },
    {
      "inputs": [],
      "name": "swapRouter",
      "outputs": [
        {
          "internalType": "contract ISwapRouter",
          "name": "",
          "type": "address"
        }
      ],
      "stateMutability": "view",
      "type": "function"
    },
    {
      "inputs": [
        {
          "internalType": "address",
          "name": "tokenIn",
          "type": "address"
        },
        {
          "internalType": "uint256",
          "name": "amountIn",
          "type": "uint256"
        },
        {
          "internalType": "address",
          "name": "tokenOut",
          "type": "address"
        }
      ],
      "name": "swapTokens",
      "outputs": [],
      "stateMutability": "nonpayable",
      "type": "function"
    },
    {
      "inputs": [
        {
          "internalType": "address",
          "name": "token",
          "type": "address"
        },
        {
          "internalType": "uint256",
          "name": "amount",
          "type": "uint256"
        }
      ],
      "name": "withdrawERC20",
      "outputs": [],
      "stateMutability": "nonpayable",
      "type": "function"
    },
    {
      "inputs": [
        {
          "internalType": "uint256",
          "name": "amount",
          "type": "uint256"
        }
      ],
      "name": "withdrawETH",
      "outputs": [],
      "stateMutability": "nonpayable",
      "type": "function"
    },
    {
      "stateMutability": "payable",
      "type": "receive"
    }
  ],
  "bytecode": "0x6080346100aa57601f6106fe38819003918201601f19168301916001600160401b038311848410176100af578084926060946040528339810103126100aa57610047816100c5565b906100606040610059602084016100c5565b92016100c5565b60018060a01b0380928160018060a01b0319951685600254161760025516836003541617600355168160045416176004553390600054161760005560405161062490816100da8239f35b600080fd5b634e487b7160e01b600052604160045260246000fd5b51906001600160a01b03821682036100aa5756fe6080604081815260049182361015610022575b505050361561002057600080fd5b005b600090813560e01c90816368c4ac26146104bf575080636d69fcaf14610475578063763191901461042e578063791b98bc146104065780638da5cb5b146103e0578063a1db9782146102eb578063c31c9c07146102c3578063cbc7879814610119578063f14210a6146100c15763fcb313b50361001257346100be57806003193601126100be57506001600160a01b0360209254169051908152f35b80fd5b508092346101155760203660031901126101155781808092356001600160a01b038254166100f0813314610514565b82821561010c575bf115610102575080f35b51903d90823e3d90fd5b506108fc6100f8565b5080fd5b5091346102bf5760603660031901126102bf576101346104f9565b91602435604435936001600160a01b03908186168096036102bb5716928386526020906001825260ff8488205416806102ab575b1561026a5783517f23b872dd000000000000000000000000000000000000000000000000000000008152338282015230602482015283604482015282816064818b8a5af1908115610260578891610233575b50156101f25750908583927fe5aa1cf5889c85b4317294c95f7f50feb57435a6defc7fa30823011ec18212a19451928352820152a380f35b60649184519162461bcd60e51b8352820152601360248201527f5472616e7366657246726f6d206661696c6564000000000000000000000000006044820152fd5b6102539150833d8511610259575b61024b8183610585565b8101906105d6565b386101ba565b503d610241565b85513d8a823e3d90fd5b60649184519162461bcd60e51b8352820152601460248201527f546f6b656e73206e6f7420737570706f727465640000000000000000000000006044820152fd5b5085875260ff8488205416610168565b8680fd5b8280fd5b5090346101155781600319360112610115576020906001600160a01b03600354169051908152f35b509190346102bf57806003193601126102bf576103066104f9565b60206001600160a01b0391604483875416610322813314610514565b87865195869485937fa9059cbb0000000000000000000000000000000000000000000000000000000085528a8501526024356024850152165af19081156103d65784916103b7575b5015610374578280f35b906020606492519162461bcd60e51b8352820152600f60248201527f5472616e73666572206661696c656400000000000000000000000000000000006044820152fd5b6103d0915060203d6020116102595761024b8183610585565b3861036a565b82513d86823e3d90fd5b5090346101155781600319360112610115576001600160a01b0360209254169051908152f35b5090346101155781600319360112610115576020906001600160a01b03600254169051908152f35b509034610115576020366003190112610115576104496104f9565b6001600160a01b0390610460828554163314610514565b16825260016020528120805460ff1916905580f35b509034610115576020366003190112610115576104906104f9565b6001600160a01b03906104a7828554163314610514565b16825260016020528120600160ff1982541617905580f35b905082346102bf5760203660031901126102bf5760ff906020936001600160a01b036104e96104f9565b1681526001855220541615158152f35b600435906001600160a01b038216820361050f57565b600080fd5b1561051b57565b608460405162461bcd60e51b815260206004820152602160248201527f4f6e6c79206f776e65722063616e2063616c6c20746869732066756e6374696f60448201527f6e000000000000000000000000000000000000000000000000000000000000006064820152fd5b90601f8019910116810190811067ffffffffffffffff8211176105a757604052565b7f4e487b7100000000000000000000000000000000000000000000000000000000600052604160045260246000fd5b9081602091031261050f5751801515810361050f579056fea2646970667358221220b86a8fc2b60d948334942be185e55afd7c2757178ceb7e85b4fe5691bed69c0a64736f6c63430008180033",
  "linkReferences": {},
  "deployedLinkReferences": {}
}